{"contracts/HenNFT.sol":{"HenNFT":{"abi":[{"inputs":[],"stateMutability":"nonpayable","type":"constructor"},{"anonymous":false,"inputs":[{"indexed":true,"internalType":"address","name":"owner","type":"address"},{"indexed":true,"internalType":"address","name":"approved","type":"address"},{"indexed":true,"internalType":"uint256","name":"tokenId","type":"uint256"}],"name":"Approval","type":"event"},{"anonymous":false,"inputs":[{"indexed":true,"internalType":"address","name":"owner","type":"address"},{"indexed":true,"internalType":"address","name":"operator","type":"address"},{"indexed":false,"internalType":"bool","name":"approved","type":"bool"}],"name":"ApprovalForAll","type":"event"},{"anonymous":false,"inputs":[{"indexed":false,"internalType":"uint256","name":"_fromTokenId","type":"uint256"},{"indexed":false,"internalType":"uint256","name":"_toTokenId","type":"uint256"}],"name":"BatchMetadataUpdate","type":"event"},{"anonymous":false,"inputs":[{"indexed":true,"internalType":"uint256","name":"henId","type":"uint256"},{"indexed":false,"internalType":"bool","name":"won","type":"bool"}],"name":"BattleResult","type":"event"},{"anonymous":false,"inputs":[{"indexed":true,"internalType":"uint256","name":"tokenId","type":"uint256"},{"indexed":true,"internalType":"address","name":"seller","type":"address"}],"name":"HenDelisted","type":"event"},{"anonymous":false,"inputs":[{"indexed":true,"internalType":"uint256","name":"tokenId","type":"uint256"},{"indexed":false,"internalType":"uint256","name":"price","type":"uint256"},{"indexed":true,"internalType":"address","name":"seller","type":"address"}],"name":"HenListed","type":"event"},{"anonymous":false,"inputs":[{"indexed":true,"internalType":"uint256","name":"tokenId","type":"uint256"},{"indexed":true,"internalType":"address","name":"owner","type":"address"},{"components":[{"internalType":"uint8","name":"strength","type":"uint8"},{"internalType":"uint8","name":"speed","type":"uint8"},{"internalType":"uint8","name":"stamina","type":"uint8"},{"internalType":"uint8","name":"intelligence","type":"uint8"},{"internalType":"uint8","name":"luck","type":"uint8"},{"internalType":"uint8","name":"generation","type":"uint8"},{"internalType":"uint48","name":"birthTime","type":"uint48"},{"internalType":"uint48","name":"lastBreedTime","type":"uint48"},{"internalType":"uint32","name":"wins","type":"uint32"},{"internalType":"uint32","name":"losses","type":"uint32"},{"internalType":"uint32","name":"racesWon","type":"uint32"},{"internalType":"bool","name":"isAlive","type":"bool"},{"internalType":"uint8","name":"trainingLevel","type":"uint8"}],"indexed":false,"internalType":"struct HenNFT.HenTraits","name":"traits","type":"tuple"}],"name":"HenMinted","type":"event"},{"anonymous":false,"inputs":[{"indexed":true,"internalType":"uint256","name":"tokenId","type":"uint256"},{"indexed":false,"internalType":"string","name":"newName","type":"string"}],"name":"HenRenamed","type":"event"},{"anonymous":false,"inputs":[{"indexed":true,"internalType":"uint256","name":"tokenId","type":"uint256"},{"indexed":true,"internalType":"address","name":"from","type":"address"},{"indexed":true,"internalType":"address","name":"to","type":"address"},{"indexed":false,"internalType":"uint256","name":"price","type":"uint256"}],"name":"HenSold","type":"event"},{"anonymous":false,"inputs":[{"indexed":true,"internalType":"uint256","name":"tokenId","type":"uint256"},{"indexed":false,"internalType":"uint8","name":"trainingLevel","type":"uint8"}],"name":"HenTrained","type":"event"},{"anonymous":false,"inputs":[{"indexed":false,"internalType":"uint256","name":"_tokenId","type":"uint256"}],"name":"MetadataUpdate","type":"event"},{"anonymous":false,"inputs":[{"indexed":true,"internalType":"address","name":"previousOwner","type":"address"},{"indexed":true,"internalType":"address","name":"newOwner","type":"address"}],"name":"OwnershipTransferred","type":"event"},{"anonymous":false,"inputs":[{"indexed":true,"internalType":"address","name":"from","type":"address"},{"indexed":true,"internalType":"address","name":"to","type":"address"},{"indexed":true,"internalType":"uint256","name":"tokenId","type":"uint256"}],"name":"Transfer","type":"event"},{"inputs":[],"name":"MARKETPLACE_FEE","outputs":[{"internalType":"uint256","name":"","type":"uint256"}],"stateMutability":"view","type":"function"},{"inputs":[],"name":"MAX_SUPPLY","outputs":[{"internalType":"uint256","name":"","type":"uint256"}],"stateMutability":"view","type":"function"},{"inputs":[],"name":"MAX_TRAINING_LEVEL","outputs":[{"internalType":"uint256","name":"","type":"uint256"}],"stateMutability":"view","type":"function"},{"inputs":[],"name":"MINT_PRICE","outputs":[{"internalType":"uint256","name":"","type":"uint256"}],"stateMutability":"view","type":"function"},{"inputs":[],"name":"RENAME_PRICE","outputs":[{"internalType":"uint256","name":"","type":"uint256"}],"stateMutability":"view","type":"function"},{"inputs":[],"name":"TRAIN_PRICE","outputs":[{"internalType":"uint256","name":"","type":"uint256"}],"stateMutability":"view","type":"function"},{"inputs":[{"internalType":"address","name":"to","type":"address"},{"internalType":"uint256","name":"tokenId","type":"uint256"}],"name":"approve","outputs":[],"stateMutability":"nonpayable","type":"function"},{"inputs":[{"internalType":"address","name":"owner","type":"address"}],"name":"balanceOf","outputs":[{"internalType":"uint256","name":"","type":"uint256"}],"stateMutability":"view","type":"function"},{"inputs":[],"name":"battleContract","outputs":[{"internalType":"address","name":"","type":"address"}],"stateMutability":"view","type":"function"},{"inputs":[],"name":"breedingContract","outputs":[{"internalType":"address","name":"","type":"address"}],"stateMutability":"view","type":"function"},{"inputs":[{"internalType":"uint256","name":"tokenId","type":"uint256"}],"name":"buyHen","outputs":[],"stateMutability":"payable","type":"function"},{"inputs":[{"internalType":"uint256","name":"tokenId","type":"uint256"}],"name":"delistHen","outputs":[],"stateMutability":"nonpayable","type":"function"},{"inputs":[{"internalType":"uint256","name":"tokenId","type":"uint256"}],"name":"getApproved","outputs":[{"internalType":"address","name":"","type":"address"}],"stateMutability":"view","type":"function"},{"inputs":[{"internalType":"uint256","name":"tokenId","type":"uint256"}],"name":"getHenPower","outputs":[{"internalType":"uint256","name":"","type":"uint256"}],"stateMutability":"view","type":"function"},{"inputs":[{"internalType":"uint256","name":"tokenId","type":"uint256"}],"name":"getHenTraits","outputs":[{"components":[{"internalType":"uint8","name":"strength","type":"uint8"},{"internalType":"uint8","name":"speed","type":"uint8"},{"internalType":"uint8","name":"stamina","type":"uint8"},{"internalType":"uint8","name":"intelligence","type":"uint8"},{"internalType":"uint8","name":"luck","type":"uint8"},{"internalType":"uint8","name":"generation","type":"uint8"},{"internalType":"uint48","name":"birthTime","type":"uint48"},{"internalType":"uint48","name":"lastBreedTime","type":"uint48"},{"internalType":"uint32","name":"wins","type":"uint32"},{"internalType":"uint32","name":"losses","type":"uint32"},{"internalType":"uint32","name":"racesWon","type":"uint32"},{"internalType":"bool","name":"isAlive","type":"bool"},{"internalType":"uint8","name":"trainingLevel","type":"uint8"}],"internalType":"struct HenNFT.HenTraits","name":"","type":"tuple"}],"stateMutability":"view","type":"function"},{"inputs":[{"internalType":"address","name":"owner","type":"address"}],"name":"getHensByOwner","outputs":[{"internalType":"uint256[]","name":"","type":"uint256[]"}],"stateMutability":"view","type":"function"},{"inputs":[{"internalType":"uint256","name":"","type":"uint256"}],"name":"henNames","outputs":[{"internalType":"string","name":"","type":"string"}],"stateMutability":"view","type":"function"},{"inputs":[{"internalType":"uint256","name":"","type":"uint256"}],"name":"henTraits","outputs":[{"internalType":"uint8","name":"strength","type":"uint8"},{"internalType":"uint8","name":"speed","type":"uint8"},{"internalType":"uint8","name":"stamina","type":"uint8"},{"internalType":"uint8","name":"intelligence","type":"uint8"},{"internalType":"uint8","name":"luck","type":"uint8"},{"internalType":"uint8","name":"generation","type":"uint8"},{"internalType":"uint48","name":"birthTime","type":"uint48"},{"internalType":"uint48","name":"lastBreedTime","type":"uint48"},{"internalType":"uint32","name":"wins","type":"uint32"},{"internalType":"uint32","name":"losses","type":"uint32"},{"internalType":"uint32","name":"racesWon","type":"uint32"},{"internalType":"bool","name":"isAlive","type":"bool"},{"internalType":"uint8","name":"trainingLevel","type":"uint8"}],"stateMutability":"view","type":"function"},{"inputs":[{"internalType":"address","name":"owner","type":"address"},{"internalType":"address","name":"operator","type":"address"}],"name":"isApprovedForAll","outputs":[{"internalType":"bool","name":"","type":"bool"}],"stateMutability":"view","type":"function"},{"inputs":[{"internalType":"uint256","name":"tokenId","type":"uint256"},{"internalType":"uint256","name":"price","type":"uint256"}],"name":"listHen","outputs":[],"stateMutability":"nonpayable","type":"function"},{"inputs":[{"internalType":"uint256","name":"","type":"uint256"}],"name":"listings","outputs":[{"internalType":"uint256","name":"price","type":"uint256"},{"internalType":"address","name":"seller","type":"address"},{"internalType":"bool","name":"isActive","type":"bool"}],"stateMutability":"view","type":"function"},{"inputs":[],"name":"mintHen","outputs":[{"internalType":"uint256","name":"","type":"uint256"}],"stateMutability":"payable","type":"function"},{"inputs":[{"internalType":"address","name":"to","type":"address"},{"internalType":"uint8","name":"strength","type":"uint8"},{"internalType":"uint8","name":"speed","type":"uint8"},{"internalType":"uint8","name":"stamina","type":"uint8"},{"internalType":"uint8","name":"intelligence","type":"uint8"},{"internalType":"uint8","name":"luck","type":"uint8"},{"internalType":"uint8","name":"generation","type":"uint8"}],"name":"mintOffspring","outputs":[{"internalType":"uint256","name":"","type":"uint256"}],"stateMutability":"nonpayable","type":"function"},{"inputs":[],"name":"name","outputs":[{"internalType":"string","name":"","type":"string"}],"stateMutability":"view","type":"function"},{"inputs":[],"name":"owner","outputs":[{"internalType":"address","name":"","type":"address"}],"stateMutability":"view","type":"function"},{"inputs":[{"internalType":"uint256","name":"tokenId","type":"uint256"}],"name":"ownerOf","outputs":[{"internalType":"address","name":"","type":"address"}],"stateMutability":"view","type":"function"},{"inputs":[],"name":"racingContract","outputs":[{"internalType":"address","name":"","type":"address"}],"stateMutability":"view","type":"function"},{"inputs":[{"internalType":"uint256","name":"tokenId","type":"uint256"},{"internalType":"string","name":"newName","type":"string"}],"name":"renameHen","outputs":[],"stateMutability":"payable","type":"function"},{"inputs":[],"name":"renounceOwnership","outputs":[],"stateMutability":"nonpayable","type":"function"},{"inputs":[{"internalType":"address","name":"from","type":"address"},{"internalType":"address","name":"to","type":"address"},{"internalType":"uint256","name":"tokenId","type":"uint256"}],"name":"safeTransferFrom","outputs":[],"stateMutability":"nonpayable","type":"function"},{"inputs":[{"internalType":"address","name":"from","type":"address"},{"internalType":"address","name":"to","type":"address"},{"internalType":"uint256","name":"tokenId","type":"uint256"},{"internalType":"bytes","name":"data","type":"bytes"}],"name":"safeTransferFrom","outputs":[],"stateMutability":"nonpayable","type":"function"},{"inputs":[{"internalType":"address","name":"operator","type":"address"},{"internalType":"bool","name":"approved","type":"bool"}],"name":"setApprovalForAll","outputs":[],"stateMutability":"nonpayable","type":"function"},{"inputs":[{"internalType":"address","name":"_addr","type":"address"}],"name":"setBattleContract","outputs":[],"stateMutability":"nonpayable","type":"function"},{"inputs":[{"internalType":"address","name":"_addr","type":"address"}],"name":"setBreedingContract","outputs":[],"stateMutability":"nonpayable","type":"function"},{"inputs":[{"internalType":"address","name":"_addr","type":"address"}],"name":"setRacingContract","outputs":[],"stateMutability":"nonpayable","type":"function"},{"inputs":[{"internalType":"bytes4","name":"interfaceId","type":"bytes4"}],"name":"supportsInterface","outputs":[{"internalType":"bool","name":"","type":"bool"}],"stateMutability":"view","type":"function"},{"inputs":[],"name":"symbol","outputs":[{"internalType":"string","name":"","type":"string"}],"stateMutability":"view","type":"function"},{"inputs":[{"internalType":"uint256","name":"tokenId","type":"uint256"}],"name":"tokenURI","outputs":[{"internalType":"string","name":"","type":"string"}],"stateMutability":"view","type":"function"},{"inputs":[{"internalType":"uint256","name":"tokenId","type":"uint256"}],"name":"trainHen","outputs":[],"stateMutability":"payable","type":"function"},{"inputs":[{"internalType":"address","name":"from","type":"address"},{"internalType":"address","name":"to","type":"address"},{"internalType":"uint256","name":"tokenId","type":"uint256"}],"name":"transferFrom","outputs":[],"stateMutability":"nonpayable","type":"function"},{"inputs":[{"internalType":"address","name":"newOwner","type":"address"}],"name":"transferOwnership","outputs":[],"stateMutability":"nonpayable","type":"function"},{"inputs":[{"internalType":"uint256","name":"tokenId","type":"uint256"},{"internalType":"bool","name":"won","type":"bool"}],"name":"updateBattleStats","outputs":[],"stateMutability":"nonpayable","type":"function"},{"inputs":[{"internalType":"uint256","name":"tokenId","type":"uint256"}],"name":"updateRaceStats","outputs":[],"stateMutability":"nonpayable","type":"function"},{"inputs":[],"name":"withdraw","outputs":[],"stateMutability":"nonpayable","type":"function"}],"evm":{"bytecode":{"linkReferences":{},"object":"6080346200035d576001600160401b03906040908082018381118282101762000347578252600a81526020916943727970746f48656e7360b01b83830152805193818501858110828211176200034757825260038552622422a760e91b84860152825181811162000347576000948554916001958684811c941680156200033c575b8385101462000328578190601f94858111620002d5575b5083908583116001146200027157899262000265575b5050600019600383901b1c191690861b1786555b8651928311620002515784548581811c9116801562000246575b828210146200023257828111620001ea575b50809183116001146200018157508495829394959262000175575b5050600019600383901b1c191690831b1782555b60078054336001600160a01b03198216811790925591519390916001600160a01b0316907f8be0079c531659141344cd1fd0a4f28419497f9722a3daafe3b4186f6b6457e09080a36008556130b69081620003638239f35b01519050388062000109565b90601f198316968587528287209287905b898210620001d25750508386979896959610620001b8575b505050811b0182556200011d565b015160001960f88460031b161c19169055388080620001aa565b80888596829496860151815501950193019062000192565b8587528187208380860160051c82019284871062000228575b0160051c019086905b8281106200021c575050620000ee565b8881550186906200020c565b9250819262000203565b634e487b7160e01b87526022600452602487fd5b90607f1690620000dc565b634e487b7160e01b86526041600452602486fd5b015190503880620000ae565b898052848a208994509190601f1984168b5b87828210620002be5750508411620002a4575b505050811b018655620000c2565b015160001960f88460031b161c1916905538808062000296565b8385015186558c9790950194938401930162000283565b9091508880528389208580850160051c8201928686106200031e575b918a91869594930160051c01915b8281106200030f57505062000098565b8b81558594508a9101620002ff565b92508192620002f1565b634e487b7160e01b88526022600452602488fd5b93607f169362000081565b634e487b7160e01b600052604160045260246000fd5b600080fdfe6080806040526004908136101561001557600080fd5b60003560e01c9081630139c414146123d35750806301ffc9a71461234c57806306fdde03146122a9578063081812fc1461228b578063095ea7b3146121115780630db6dff7146120ce57806311712cc314611e4b5780631733cdc814611d8957806319dd0cd81461194457806320960c46146118cd57806323b872dd146118a957806332cb6b0c1461188c5780633ccfd60b14611817578063423b1ca3146117ee57806342842e0e146117bb5780634ac18640146117905780634b9785051461174d57806350c7d5a0146116585780636352211e1461162857806370a082311461160557806370e6e99a146114c8578063715018a61461146b5780637bba64af146112965780637deb0bf11461109d578063836e33751461107457806389d796e41461104b5780638c5527cf146110085780638da5cb5b14610fdf57806395d89b4114610f005780639c103c6114610ee45780639c903ff014610aa2578063a22cb465146109cf578063a63451411461082d578063afa2cf0314610735578063b795945b14610719578063b88d4fde14610691578063bcaf673f14610533578063c002d23d14610511578063c62e043514610407578063c87b56dd14610392578063d773154f14610370578063de74e57b14610324578063e985e9c5146102ce5763f2fde38b1461020557600080fd5b346102c95760203660031901126102c95761021e61243b565b610226612738565b6001600160a01b039081169182156102765750600754826001600160601b0360a01b821617600755167f8be0079c531659141344cd1fd0a4f28419497f9722a3daafe3b4186f6b6457e0600080a3005b60849060206040519162461bcd60e51b8352820152602660248201527f4f776e61626c653a206e6577206f776e657220697320746865207a65726f206160448201526564647265737360d01b6064820152fd5b600080fd5b346102c95760403660031901126102c9576102e761243b565b6102ef612451565b9060018060a01b03809116600052600560205260406000209116600052602052602060ff604060002054166040519015158152f35b50346102c95760203660031901126102c95735600052600f6020526060604060002060ff6001825492015460405192835260018060a01b038116602084015260a01c1615156040820152f35b346102c95760003660031901126102c957602060405166038d7ea4c680008152f35b50346102c95760203660031901126102c957356000818152600260205260409020546103c8906001600160a01b03161515612807565b60005260066020526104036103e060406000206125d2565b60006040516103ee816124d2565b52604051918291602083526020830190612416565b0390f35b50346102c95760403660031901126102c957357f19d86b8edfcd6cf16daaf1ee062fa483161495cf6ad50132e27637b7ed38fb886020610445612678565b600d5461046790336001600160a01b0391821614908115610503575b50612fb6565b80156104bb5783600052600b82526104b0604060002061049063ffffffff825460901c16612ff3565b815463ffffffff60901b191660909190911b63ffffffff60901b16179055565b6040519015158152a2005b83600052600b82526104fe60406000206104de63ffffffff825460b01c16612ff3565b815463ffffffff60b01b191660b09190911b63ffffffff60b01b16179055565b6104b0565b905060075416331438610461565b346102c95760003660031901126102c9576020604051662386f26fc100008152f35b50346102c95760403660031901126102c95780356024359161055482612853565b6001600160a01b03919061056b9083163314612f6d565b831561064d5782600052600f60205260ff60016040600020015460a01c16610618575060405161059a81612467565b83815260208101913383526001604083019281845285600052600f6020526040600020905181550192511682549160ff60a01b9051151560a01b16916affffffffffffffffffffff60a81b16171790556040519182527fb401eb59e096f41c707abda600e71ddb0066743a000c511ccfd6b58ce62141e560203393a3005b60649060206040519162461bcd60e51b8352820152600e60248201526d105b1c9958591e481b1a5cdd195960921b6044820152fd5b60649060206040519162461bcd60e51b8352820152601c60248201527f5072696365206d7573742062652067726561746572207468616e2030000000006044820152fd5b50346102c95760803660031901126102c9576106ab61243b565b906106b4612451565b916044356064359367ffffffffffffffff85116102c957366023860112156102c9576106ef610712948660246107179836930135910161252c565b926107026106fd8433612990565b6128b7565b61070d838383612a58565b612c91565b61296c565b005b346102c95760003660031901126102c9576020604051600a8152f35b50346102c95760203660031901126102c95735600052600b602052602061082560406000206040519061076782612499565b549061081c60ff918261081c8186168084528261081c818960081c16808c8801526040870193838b60101c1685526060880197848c60181c168952610180608082019c8f878f9183901c169052868160281c1660a084015265ffffffffffff808260301c1660c08501528160601c1660e084015263ffffffff808260901c16610100850152808260b01c166101208501528160d01c16610140840152868160f01c16151561016084015260f81c910152612d93565b91511690612d93565b604051908152f35b50346102c957602090816003193601126102c95760405181359261085082612499565b60008252600081830152600060408301526000606083015260006080830152600060a0830152600060c0830152600060e08301526101009260008484015261012091600083850152610140600081860152610160926000848701526000610180809701526108d388600052600260205260018060a01b0360406000205416151590565b15610994575061040396600052600b8252604060002095604051966108f788612499565b5494859360ff9485918282168b52828260081c16818c0152828260101c1660408c0152828260181c1660608c01521c166080890152838660281c1660a089015265ffffffffffff808760301c1660c08a01528660601c1660e089015263ffffffff91828760901c1690890152818660b01c16908801528460d01c16908601528260f01c1615159084015260f81c9082015260405191829182612687565b60405162461bcd60e51b81529081018390526014602482015273151bdad95b88191bd95cc81b9bdd08195e1a5cdd60621b6044820152606490fd5b50346102c95760403660031901126102c9576109e961243b565b6109f1612678565b6001600160a01b0390911691338314610a5e575033600052600560205260406000208260005260205260406000209015159060ff1981541660ff83161790556040519081527f17307eab39ab6107e8899845ad3d59bd9653f200f220920489ca2b5937696c3160203392a3005b60649060206040519162461bcd60e51b8352820152601960248201527f4552433732313a20617070726f766520746f2063616c6c6572000000000000006044820152fd5b5060003660031901126102c957610ab7612db6565b610aca662386f26fc10000341015612d0f565b600954610ada6127108210612d52565b60018101600955610aee6001820133612e0c565b6051610b1d604051610aff816124b6565b60088152670e6e8e4cadccee8d60c31b60208201526001840161302f565b0660148101809111610ecf576051610b55604051610b3a816124b6565b60058152641cdc19595960da1b60208201526001850161302f565b0660148101809111610eba576051610b8f604051610b72816124b6565b60078152667374616d696e6160c81b60208201526001860161302f565b0660148101809111610ea5576051610bce604051610bac816124b6565b600c81526b696e74656c6c6967656e636560a01b60208201526001870161302f565b069160148301809311610e90576051610c05604051610bec816124b6565b888152636c75636b60e01b60208201526001880161302f565b069560148701809711610e7b575060ff9283602097938180948160405199610c2c8b612499565b1689521689880152166040860152166060840152166080820152600060a082015265ffffffffffff421660c0820152600060e08201526000610100820152600061012082015260006101408201526001610160820152600061018082015260018201600052600b8352610e32604060002060ff83511660ff19825416178155610ccc60ff8685015116829061ff0082549160081b169061ff001916179055565b6040830151815462ff0000191660109190911b62ff0000161781556060830151815463ff000000191660189190911b63ff000000161781556080830151815464ff00000000191660209190911b64ff000000001617815560a0830151815460c085015160e086015161010087015175ffffffffffffffffffffffffffffffffff00000000001990931660289490941b65ff0000000000169390931760309190911b6bffffffffffff000000000000161760609290921b65ffffffffffff60601b169190911760909190911b63ffffffff60901b16178155610df463ffffffff610120850151835463ffffffff60b01b191690821660b01b63ffffffff60b01b16178355610140850151835463ffffffff60d01b1916911660d01b63ffffffff60d01b16178255565b61016083015181546101808501516001600160f01b0390911691151560f01b60ff60f01b169190911760f89190911b6001600160f81b031916179055565b604051907fd735f618c8354ca6eb9a4ef222d2e5bce56bf13d3fc29eec8b4dfd2504eede72339280610e68600187019482612687565b0390a36001600855600160405191018152f35b601190634e487b7160e01b6000525260246000fd5b601186634e487b7160e01b6000525260246000fd5b601185634e487b7160e01b6000525260246000fd5b601184634e487b7160e01b6000525260246000fd5b601183634e487b7160e01b6000525260246000fd5b346102c95760003660031901126102c957602060405160fa8152f35b346102c95760003660031901126102c95760405160006001805490610f2482612598565b80855291818116908115610fb85750600114610f5f575b61040384610f4b818603826124ee565b604051918291602083526020830190612416565b600081815292507fb10e2d527612073b26eecdfd717e6a320cf44b4afac2b0732d9fcbe2b7fa0cf65b828410610fa0575050508101602001610f4b82610f3b565b80546020858701810191909152909301928101610f88565b60ff191660208087019190915292151560051b85019092019250610f4b9150839050610f3b565b346102c95760003660031901126102c9576007546040516001600160a01b039091168152602090f35b346102c95760203660031901126102c95761102161243b565b611029612738565b600c80546001600160a01b0319166001600160a01b0392909216919091179055005b346102c95760003660031901126102c957600e546040516001600160a01b039091168152602090f35b346102c95760003660031901126102c957600c546040516001600160a01b039091168152602090f35b50346102c95760e03660031901126102c9576110b761243b565b906024359060ff821682036102c95760443560ff811681036102c95760643560ff811681036102c9576084359060ff821682036102c95760a4359260ff841684036102c95760c4359460ff861686036102c957611112612db6565b600c546001600160a01b031633036112405760206001898960ff8a818b818c818d818e6111566009549d8e61114a6127108210612d52565b0160098190558d612e0c565b816040519b6111648d612499565b168b52168c8a01521660408801521660608601521660808401521660a082015265ffffffffffff421660c0820152600060e08201526000610100820152600061012082015260006101408201526001610160820152600061018082015260018301600052600b8452611203604060002060ff83511660ff19825416178155610ccc60ff8785015116829061ff0082549160081b169061ff001916179055565b7fd735f618c8354ca6eb9a4ef222d2e5bce56bf13d3fc29eec8b4dfd2504eede726040519260018060a01b03169280610e68600187019482612687565b60849060206040519162461bcd60e51b8352820152602960248201527f4f6e6c79206272656564696e6720636f6e74726163742063616e206d696e74206044820152686f6666737072696e6760b81b6064820152fd5b50602090816003193601126102c95780356112af612db6565b80600052600f83526040600020906001604051926112cc84612467565b80548452015484830160ff60018060a01b0392838116835260a01c161580156040860152611431576113018451341015612d0f565b511691519160fa830283810460fa1484151715610ea5576000808061132b61271082950488612fa9565b868252600f8a52816001604082208281550155611349873388612a58565b855af1611354612b69565b50156113ed57604051918383527f23e7a5edd4c10cc4bf363be5ea945e863eb800cfb257a5d6b33b76b3a922ca5d863394a4803411611395575b6001600855005b600080806113a4819434612fa9565b335af16113af612b69565b50156113bb578061138e565b6064916040519162461bcd60e51b8352820152600d60248201526c1499599d5b990819985a5b1959609a1b6044820152fd5b60405162461bcd60e51b8152808501869052601960248201527f5472616e7366657220746f2073656c6c6572206661696c6564000000000000006044820152606490fd5b60405162461bcd60e51b815280860187905260136024820152724e6f74206c697374656420666f722073616c6560681b6044820152606490fd5b346102c95760003660031901126102c957611484612738565b600780546001600160a01b031981169091556000906001600160a01b03167f8be0079c531659141344cd1fd0a4f28419497f9722a3daafe3b4186f6b6457e08280a3005b50346102c9576020806003193601126102c9576114e361243b565b916114ed83612790565b916115106114fa84613008565b9361150860405195866124ee565b808552613008565b8382019490601f1901368637600954600193600092855b8381111561156c57505050505060405192818401908285525180915260408401949160005b8281106115595785870386f35b835187529581019592810192840161154c565b6000818152600260205260409020549698959795966001600160a01b03161515806115e8575b6115ab575b6115a090613020565b979597969496611527565b9385518110156115d3576115cb81868a6115a09460051b8a010152613020565b949050611597565b603283634e487b7160e01b6000525260246000fd5b506115f281612853565b6001600160a01b03838116911614611592565b346102c95760203660031901126102c957602061082561162361243b565b612790565b50346102c95760203660031901126102c95761164660209135612853565b6040516001600160a01b039091168152f35b50346102c9576020806003193601126102c95781356000818152600f835260409020600101549092906001600160a01b0316330361171a5782600052600f825260ff60016040600020015460a01c16156116eb5750600f9082600052526000600160408220828155015533907f08202ab9068fa5e6ea16e04517a8c260f8b0d6714d979788967e4bfb1faca28d600080a3005b6064916040519162461bcd60e51b8352820152600a602482015269139bdd081b1a5cdd195960b21b6044820152fd5b6064916040519162461bcd60e51b8352820152600e60248201526d2737ba103a34329039b2b63632b960911b6044820152fd5b346102c95760203660031901126102c95761176661243b565b61176e612738565b600e80546001600160a01b0319166001600160a01b0392909216919091179055005b50346102c95760203660031901126102c95735600052600a602052610403610f4b60406000206125d2565b346102c9576107176107126117cf36612563565b90604051926117dd846124d2565b600084526107026106fd8433612990565b346102c95760003660031901126102c957600d546040516001600160a01b039091168152602090f35b50346102c95760003660031901126102c957611831612738565b60008080804760018060a01b03600754165af161184c612b69565b501561185457005b60649060206040519162461bcd60e51b8352820152601160248201527015da5d1a191c985dd85b0819985a5b1959607a1b6044820152fd5b346102c95760003660031901126102c95760206040516127108152f35b346102c9576107176118ba36612563565b916118c86106fd8433612990565b612a58565b50346102c95760203660031901126102c957600e5461190090336001600160a01b03918216149081156105035750612fb6565b35600052600b602052610717604060002061192463ffffffff825460d01c16612ff3565b815463ffffffff60d01b191660d09190911b63ffffffff60d01b16179055565b506020806003193601126102c95781359061195d612db6565b61197961196983612853565b6001600160a01b03163314612f6d565b6611c37937e080003410611d3c5781600052600b808252600a60406000205460f81c1015611cf857826000528082526040600020805460f81c9060ff91828114611ce35781546001600160f81b0316600190910160f81b6001600160f81b031916179055611a036040516119ec816124b6565b60058152643a3930b4b760d91b858201528561302f565b9060036005830692069160018301809311611ce35795867f7baa804ecf3f4c341af2368b8f1ddd8adee82f9fa5de6f7dfbf99936c2c2235a96971580611ccb575b15611aaf57505090611a6490866000528385528260406000205416612d93565b80606410600014611aa957506064905b856000528284526040600020911660ff198254161790555b83600052815260406000205460f81c604051908152a26001600855005b90611a74565b6001811480611cb0575b15611b1a575050611ade611b1092876000528486528260406000205460081c16612d93565b80606410600014611b15575060645b866000528385521660406000209061ff0082549160081b169061ff001916179055565b611a8c565b611aed565b6002811480611c95575b15611b82575050611b49611b1092876000528486528260406000205460101c16612d93565b80606410600014611b7d575060645b866000528385521660406000209062ff000082549160101b169062ff00001916179055565b611b58565b6003811480611c7a575b15611bec575050611bb1611b1092876000528486528260406000205460181c16612d93565b80606410600014611be7575060645b866000528385521660406000209063ff00000082549160181b169063ff0000001916179055565b611bc0565b1480611c60575b611bff575b5050611a8c565b611c1c611c54928760005284865282604060002054871c16612d93565b80606410600014611c5b575060645b866000528385521660406000209064ff0000000082549160201b169064ff000000001916179055565b3880611bf8565b611c2b565b5085600052828452606481604060002054861c1610611bf3565b508760005284865260648360406000205460181c1610611b8c565b508760005284865260648360406000205460101c1610611b24565b508760005284865260648360406000205460081c1610611ab9565b50876000528486526064836040600020541610611a44565b601187634e487b7160e01b6000525260246000fd5b60405162461bcd60e51b8152808501839052601a60248201527f4d617820747261696e696e67206c6576656c20726561636865640000000000006044820152606490fd5b826084916040519162461bcd60e51b8352820152602160248201527f496e73756666696369656e74207061796d656e7420666f7220747261696e696e6044820152606760f81b6064820152fd5b50346102c95760203660031901126102c95735600052600b6020526101a06040600020546040519060ff8082168352808260081c166020840152808260101c166040840152808260181c166060840152808260201c166080840152808260281c1660a084015265ffffffffffff808360301c1660c08501528260601c1660e084015263ffffffff808360901c16610100850152808360b01c166101208501528260d01c166101408401528160f01c16151561016083015260f81c610180820152f35b5060403660031901126102c95780356024359167ffffffffffffffff928381116102c957366023820112156102c957611e8d903690602481850135910161252c565b90611e9a61196984612853565b66038d7ea4c6800034106120805781518015159081612074575b501561203a5782600052602090600a825260406000209083519586116120255750611edf8154612598565b601f8111611fdf575b5081601f8611600114611f5a5794807f93ba1fd5253bda82916758e6b2a5d92a597015cb1924170d2c0191be6392de229596600091611f4f575b508160011b916000199060031b1c19161790555b611f4a604051928284938452830190612416565b0390a2005b905084015138611f22565b601f1986169082600052836000209160005b818110611fc857509187917f93ba1fd5253bda82916758e6b2a5d92a597015cb1924170d2c0191be6392de22979860019410611faf575b5050811b019055611f36565b86015160001960f88460031b161c191690553880611fa3565b91928560018192868a015181550194019201611f6c565b8160005282600020601f870160051c81019184881061201b575b601f0160051c01905b81811061200f5750611ee8565b60008155600101612002565b9091508190611ff9565b604190634e487b7160e01b6000525260246000fd5b60649060206040519162461bcd60e51b83528201526013602482015272092dcecc2d8d2c840dcc2daca40d8cadccee8d606b1b6044820152fd5b60209150111538611eb4565b60849060206040519162461bcd60e51b8352820152602160248201527f496e73756666696369656e74207061796d656e7420666f722072656e616d696e6044820152606760f81b6064820152fd5b346102c95760203660031901126102c9576120e761243b565b6120ef612738565b600d80546001600160a01b0319166001600160a01b0392909216919091179055005b50346102c95760403660031901126102c95761212b61243b565b602435916001600160a01b0390818061214386612853565b1693169280841461223d57803314908115612218575b50156121ae57836000526020526040600020826001600160601b0360a01b82541617905561218683612853565b167f8c5be1e5ebec7d5bd14f71427d1e84f3dd0314c0f7b2291e5b200ac8c7c3b925600080a4005b60849060206040519162461bcd60e51b8352820152603d60248201527f4552433732313a20617070726f76652063616c6c6572206973206e6f7420746f60448201527f6b656e206f776e6572206f7220617070726f76656420666f7220616c6c0000006064820152fd5b9050600052600560205260406000203360005260205260ff6040600020541638612159565b60405162461bcd60e51b8152602081840152602160248201527f4552433732313a20617070726f76616c20746f2063757272656e74206f776e656044820152603960f91b6064820152608490fd5b50346102c95760203660031901126102c95761164660209135612879565b346102c95760003660031901126102c957604051600080546122ca81612598565b80845290600190818116908115610fb857506001146122f35761040384610f4b818603826124ee565b600080805292507f290decd9548b62a8d60345a988386fc84ba6bc95484008f6362f93160ef3e5635b828410612334575050508101602001610f4b82610f3b565b8054602085870181019190915290930192810161231c565b50346102c95760203660031901126102c9573563ffffffff60e01b81168091036102c957602090632483248360e11b8114908115612390575b506040519015158152f35b6380ac58cd60e01b8114915081156123c2575b81156123b1575b5038612385565b6301ffc9a760e01b149050386123aa565b635b5e139f60e01b811491506123a3565b346102c95760003660031901126102c957806611c37937e0800060209252f35b60005b8381106124065750506000910152565b81810151838201526020016123f6565b9060209161242f815180928185528580860191016123f3565b601f01601f1916010190565b600435906001600160a01b03821682036102c957565b602435906001600160a01b03821682036102c957565b6060810190811067ffffffffffffffff82111761248357604052565b634e487b7160e01b600052604160045260246000fd5b6101a0810190811067ffffffffffffffff82111761248357604052565b6040810190811067ffffffffffffffff82111761248357604052565b6020810190811067ffffffffffffffff82111761248357604052565b90601f8019910116810190811067ffffffffffffffff82111761248357604052565b67ffffffffffffffff811161248357601f01601f191660200190565b92919261253882612510565b9161254660405193846124ee565b8294818452818301116102c9578281602093846000960137010152565b60609060031901126102c9576001600160a01b039060043582811681036102c9579160243590811681036102c9579060443590565b90600182811c921680156125c8575b60208310146125b257565b634e487b7160e01b600052602260045260246000fd5b91607f16916125a7565b90604051918260008254926125e684612598565b9081845260019485811690816000146126555750600114612612575b5050612610925003836124ee565b565b9093915060005260209081600020936000915b81831061263d57505061261093508201013880612602565b85548884018501529485019487945091830191612625565b91505061261094506020925060ff191682840152151560051b8201013880612602565b6024359081151582036102c957565b9190916101a081019260ff8082511683528060208301511660208401528060408301511660408401528060608301511660608401528060808301511660808401528060a08301511660a084015265ffffffffffff8060c08401511660c085015260e08301511660e084015263ffffffff610100818185015116908501526101208181850151169085015261014090818401511690840152610160808301511515908401526101808092015116910152565b6007546001600160a01b0316330361274c57565b606460405162461bcd60e51b815260206004820152602060248201527f4f776e61626c653a2063616c6c6572206973206e6f7420746865206f776e65726044820152fd5b6001600160a01b031680156127b057600052600360205260406000205490565b60405162461bcd60e51b815260206004820152602960248201527f4552433732313a2061646472657373207a65726f206973206e6f7420612076616044820152683634b21037bbb732b960b91b6064820152608490fd5b1561280e57565b60405162461bcd60e51b815260206004820152601860248201527f4552433732313a20696e76616c696420746f6b656e20494400000000000000006044820152606490fd5b6000908152600260205260409020546001600160a01b0316612876811515612807565b90565b60008181526002602052604090205461289c906001600160a01b03161515612807565b6000908152600460205260409020546001600160a01b031690565b156128be57565b60405162461bcd60e51b815260206004820152602d60248201527f4552433732313a2063616c6c6572206973206e6f7420746f6b656e206f776e6560448201526c1c881bdc88185c1c1c9bdd9959609a1b6064820152608490fd5b60809060208152603260208201527f4552433732313a207472616e7366657220746f206e6f6e20455243373231526560408201527131b2b4bb32b91034b6b83632b6b2b73a32b960711b60608201520190565b1561297357565b60405162461bcd60e51b81528061298c60048201612919565b0390fd5b906001600160a01b0380806129a484612853565b169316918383149384156129d7575b5083156129c1575b50505090565b6129cd91929350612879565b16143880806129bb565b909350600052600560205260406000208260005260205260ff6040600020541692386129b3565b15612a0557565b60405162461bcd60e51b815260206004820152602560248201527f4552433732313a207472616e736665722066726f6d20696e636f72726563742060448201526437bbb732b960d91b6064820152608490fd5b90612a8091612a6684612853565b6001600160a01b03939184169284929091831684146129fe565b16918215612b185781612a9d91612a9686612853565b16146129fe565b7fddf252ad1be2c89b69c2b068fc378daa952ba7f163c4a11628f55a4df523b3ef60008481526004602052604081206001600160601b0360a01b9081815416905583825260036020526040822060001981540190558482526040822060018154019055858252600260205284604083209182541617905580a4565b60405162461bcd60e51b8152602060048201526024808201527f4552433732313a207472616e7366657220746f20746865207a65726f206164646044820152637265737360e01b6064820152608490fd5b3d15612b94573d90612b7a82612510565b91612b8860405193846124ee565b82523d6000602084013e565b606090565b909190803b15612c89576020604051809281630a85bd0160e11b9687825233600483015281612be260009889938460248501526044840152608060648401526084830190612416565b03926001600160a01b03165af190829082612c3a575b5050612c2c57612c06612b69565b80519081612c275760405162461bcd60e51b81528061298c60048201612919565b602001fd5b6001600160e01b0319161490565b909192506020813d8211612c81575b81612c56602093836124ee565b81010312612c7d5751906001600160e01b031982168203612c7a5750903880612bf8565b80fd5b5080fd5b3d9150612c49565b505050600190565b919290803b15612d0657604051630a85bd0160e11b8082523360048301526001600160a01b03948516602483015260448201959095526080606482015291602091839182908190612ce6906084830190612416565b03916000968791165af190829082612c3a575050612c2c57612c06612b69565b50505050600190565b15612d1657565b60405162461bcd60e51b8152602060048201526014602482015273125b9cdd59999a58da595b9d081c185e5b595b9d60621b6044820152606490fd5b15612d5957565b60405162461bcd60e51b815260206004820152601260248201527113585e081cdd5c1c1b1e481c995858da195960721b6044820152606490fd5b91908201809211612da057565b634e487b7160e01b600052601160045260246000fd5b600260085414612dc7576002600855565b60405162461bcd60e51b815260206004820152601f60248201527f5265656e7472616e637947756172643a207265656e7472616e742063616c6c006044820152606490fd5b604051612e18816124d2565b6000808252926001600160a01b038316928315612edd57816107129461261096612e60612e5a84600052600260205260018060a01b0360406000205416151590565b15612f21565b600083815260026020526040902054612e83906001600160a01b03161515612e5a565b81815260036020526040812060018154019055828152600260205260408120826001600160601b0360a01b8254161790557fddf252ad1be2c89b69c2b068fc378daa952ba7f163c4a11628f55a4df523b3ef8180a4612b99565b606460405162461bcd60e51b815260206004820152602060248201527f4552433732313a206d696e7420746f20746865207a65726f20616464726573736044820152fd5b15612f2857565b60405162461bcd60e51b815260206004820152601c60248201527f4552433732313a20746f6b656e20616c7265616479206d696e746564000000006044820152606490fd5b15612f7457565b60405162461bcd60e51b815260206004820152600d60248201526c2737ba103a34329037bbb732b960991b6044820152606490fd5b91908203918211612da057565b15612fbd57565b60405162461bcd60e51b815260206004820152600e60248201526d139bdd08185d5d1a1bdc9a5e995960921b6044820152606490fd5b63ffffffff809116908114612da05760010190565b67ffffffffffffffff81116124835760051b60200190565b6000198114612da05760010190565b9061307a60946040518093602082019542875244604084015260608301526130618151809260206080860191016123f3565b81013360601b60808201520360748101845201826124ee565b5190209056fea264697066735822122099d72b929ee662761dd2c330872014d6dd720d7bb1e238ad8090c59e1cb1290664736f6c63430008140033","opcodes":"PUSH1 0x80 CALLVALUE PUSH3 0x35D JUMPI PUSH1 0x1 PUSH1 0x1 PUSH1 0x40 SHL SUB SWAP1 PUSH1 0x40 SWAP1 DUP1 DUP3 ADD DUP4 DUP2 GT DUP3 DUP3 LT OR PUSH3 0x347 JUMPI DUP3 MSTORE PUSH1 0xA DUP2 MSTORE PUSH1 0x20 SWAP2 PUSH10 0x43727970746F48656E73 PUSH1 0xB0 SHL DUP4 DUP4 ADD MSTORE DUP1 MLOAD SWAP4 DUP2 DUP6 ADD DUP6 DUP2 LT DUP3 DUP3 GT OR PUSH3 0x347 JUMPI DUP3 MSTORE PUSH1 0x3 DUP6 MSTORE PUSH3 0x2422A7 PUSH1 0xE9 SHL DUP5 DUP7 ADD MSTORE DUP3 MLOAD DUP2 DUP2 GT PUSH3 0x347 JUMPI PUSH1 0x0 SWAP5 DUP6 SLOAD SWAP2 PUSH1 0x1 SWAP6 DUP7 DUP5 DUP2 SHR SWAP5 AND DUP1 ISZERO PUSH3 0x33C JUMPI JUMPDEST DUP4 DUP6 LT EQ PUSH3 0x328 JUMPI DUP2 SWAP1 PUSH1 0x1F SWAP5 DUP6 DUP2 GT PUSH3 0x2D5 JUMPI JUMPDEST POP DUP4 SWAP1 DUP6 DUP4 GT PUSH1 0x1 EQ PUSH3 0x271 JUMPI DUP10 SWAP3 PUSH3 0x265 JUMPI JUMPDEST POP POP PUSH1 0x0 NOT PUSH1 0x3 DUP4 SWAP1 SHL SHR NOT AND SWAP1 DUP7 SHL OR DUP7 SSTORE JUMPDEST DUP7 MLOAD SWAP3 DUP4 GT PUSH3 0x251 JUMPI DUP5 SLOAD DUP6 DUP2 DUP2 SHR SWAP2 AND DUP1 ISZERO PUSH3 0x246 JUMPI JUMPDEST DUP3 DUP3 LT EQ PUSH3 0x232 JUMPI DUP3 DUP2 GT PUSH3 0x1EA JUMPI JUMPDEST POP DUP1 SWAP2 DUP4 GT PUSH1 0x1 EQ PUSH3 0x181 JUMPI POP DUP5 SWAP6 DUP3 SWAP4 SWAP5 SWAP6 SWAP3 PUSH3 0x175 JUMPI JUMPDEST POP POP PUSH1 0x0 NOT PUSH1 0x3 DUP4 SWAP1 SHL SHR NOT AND SWAP1 DUP4 SHL OR DUP3 SSTORE JUMPDEST PUSH1 0x7 DUP1 SLOAD CALLER PUSH1 0x1 PUSH1 0x1 PUSH1 0xA0 SHL SUB NOT DUP3 AND DUP2 OR SWAP1 SWAP3 SSTORE SWAP2 MLOAD SWAP4 SWAP1 SWAP2 PUSH1 0x1 PUSH1 0x1 PUSH1 0xA0 SHL SUB AND SWAP1 PUSH32 0x8BE0079C531659141344CD1FD0A4F28419497F9722A3DAAFE3B4186F6B6457E0 SWAP1 DUP1 LOG3 PUSH1 0x8 SSTORE PUSH2 0x30B6 SWAP1 DUP2 PUSH3 0x363 DUP3 CODECOPY RETURN JUMPDEST ADD MLOAD SWAP1 POP CODESIZE DUP1 PUSH3 0x109 JUMP JUMPDEST SWAP1 PUSH1 0x1F NOT DUP4 AND SWAP7 DUP6 DUP8 MSTORE DUP3 DUP8 KECCAK256 SWAP3 DUP8 SWAP1 JUMPDEST DUP10 DUP3 LT PUSH3 0x1D2 JUMPI POP POP DUP4 DUP7 SWAP8 SWAP9 SWAP7 SWAP6 SWAP7 LT PUSH3 0x1B8 JUMPI JUMPDEST POP POP POP DUP2 SHL ADD DUP3 SSTORE PUSH3 0x11D JUMP JUMPDEST ADD MLOAD PUSH1 0x0 NOT PUSH1 0xF8 DUP5 PUSH1 0x3 SHL AND SHR NOT AND SWAP1 SSTORE CODESIZE DUP1 DUP1 PUSH3 0x1AA JUMP JUMPDEST DUP1 DUP9 DUP6 SWAP7 DUP3 SWAP5 SWAP7 DUP7 ADD MLOAD DUP2 SSTORE ADD SWAP6 ADD SWAP4 ADD SWAP1 PUSH3 0x192 JUMP JUMPDEST DUP6 DUP8 MSTORE DUP2 DUP8 KECCAK256 DUP4 DUP1 DUP7 ADD PUSH1 0x5 SHR DUP3 ADD SWAP3 DUP5 DUP8 LT PUSH3 0x228 JUMPI JUMPDEST ADD PUSH1 0x5 SHR ADD SWAP1 DUP7 SWAP1 JUMPDEST DUP3 DUP2 LT PUSH3 0x21C JUMPI POP POP PUSH3 0xEE JUMP JUMPDEST DUP9 DUP2 SSTORE ADD DUP7 SWAP1 PUSH3 0x20C JUMP JUMPDEST SWAP3 POP DUP2 SWAP3 PUSH3 0x203 JUMP JUMPDEST PUSH4 0x4E487B71 PUSH1 0xE0 SHL DUP8 MSTORE PUSH1 0x22 PUSH1 0x4 MSTORE PUSH1 0x24 DUP8 REVERT JUMPDEST SWAP1 PUSH1 0x7F AND SWAP1 PUSH3 0xDC JUMP JUMPDEST PUSH4 0x4E487B71 PUSH1 0xE0 SHL DUP7 MSTORE PUSH1 0x41 PUSH1 0x4 MSTORE PUSH1 0x24 DUP7 REVERT JUMPDEST ADD MLOAD SWAP1 POP CODESIZE DUP1 PUSH3 0xAE JUMP JUMPDEST DUP10 DUP1 MSTORE DUP5 DUP11 KECCAK256 DUP10 SWAP5 POP SWAP2 SWAP1 PUSH1 0x1F NOT DUP5 AND DUP12 JUMPDEST DUP8 DUP3 DUP3 LT PUSH3 0x2BE JUMPI POP POP DUP5 GT PUSH3 0x2A4 JUMPI JUMPDEST POP POP POP DUP2 SHL ADD DUP7 SSTORE PUSH3 0xC2 JUMP JUMPDEST ADD MLOAD PUSH1 0x0 NOT PUSH1 0xF8 DUP5 PUSH1 0x3 SHL AND SHR NOT AND SWAP1 SSTORE CODESIZE DUP1 DUP1 PUSH3 0x296 JUMP JUMPDEST DUP4 DUP6 ADD MLOAD DUP7 SSTORE DUP13 SWAP8 SWAP1 SWAP6 ADD SWAP5 SWAP4 DUP5 ADD SWAP4 ADD PUSH3 0x283 JUMP JUMPDEST SWAP1 SWAP2 POP DUP9 DUP1 MSTORE DUP4 DUP10 KECCAK256 DUP6 DUP1 DUP6 ADD PUSH1 0x5 SHR DUP3 ADD SWAP3 DUP7 DUP7 LT PUSH3 0x31E JUMPI JUMPDEST SWAP2 DUP11 SWAP2 DUP7 SWAP6 SWAP5 SWAP4 ADD PUSH1 0x5 SHR ADD SWAP2 JUMPDEST DUP3 DUP2 LT PUSH3 0x30F JUMPI POP POP PUSH3 0x98 JUMP JUMPDEST DUP12 DUP2 SSTORE DUP6 SWAP5 POP DUP11 SWAP2 ADD PUSH3 0x2FF JUMP JUMPDEST SWAP3 POP DUP2 SWAP3 PUSH3 0x2F1 JUMP JUMPDEST PUSH4 0x4E487B71 PUSH1 0xE0 SHL DUP9 MSTORE PUSH1 0x22 PUSH1 0x4 MSTORE PUSH1 0x24 DUP9 REVERT JUMPDEST SWAP4 PUSH1 0x7F AND SWAP4 PUSH3 0x81 JUMP JUMPDEST PUSH4 0x4E487B71 PUSH1 0xE0 SHL PUSH1 0x0 MSTORE PUSH1 0x41 PUSH1 0x4 MSTORE PUSH1 0x24 PUSH1 0x0 REVERT JUMPDEST PUSH1 0x0 DUP1 REVERT INVALID PUSH1 0x80 DUP1 PUSH1 0x40 MSTORE PUSH1 0x4 SWAP1 DUP2 CALLDATASIZE LT ISZERO PUSH2 0x15 JUMPI PUSH1 0x0 DUP1 REVERT JUMPDEST PUSH1 0x0 CALLDATALOAD PUSH1 0xE0 SHR SWAP1 DUP2 PUSH4 0x139C414 EQ PUSH2 0x23D3 JUMPI POP DUP1 PUSH4 0x1FFC9A7 EQ PUSH2 0x234C JUMPI DUP1 PUSH4 0x6FDDE03 EQ PUSH2 0x22A9 JUMPI DUP1 PUSH4 0x81812FC EQ PUSH2 0x228B JUMPI DUP1 PUSH4 0x95EA7B3 EQ PUSH2 0x2111 JUMPI DUP1 PUSH4 0xDB6DFF7 EQ PUSH2 0x20CE JUMPI DUP1 PUSH4 0x11712CC3 EQ PUSH2 0x1E4B JUMPI DUP1 PUSH4 0x1733CDC8 EQ PUSH2 0x1D89 JUMPI DUP1 PUSH4 0x19DD0CD8 EQ PUSH2 0x1944 JUMPI DUP1 PUSH4 0x20960C46 EQ PUSH2 0x18CD JUMPI DUP1 PUSH4 0x23B872DD EQ PUSH2 0x18A9 JUMPI DUP1 PUSH4 0x32CB6B0C EQ PUSH2 0x188C JUMPI DUP1 PUSH4 0x3CCFD60B EQ PUSH2 0x1817 JUMPI DUP1 PUSH4 0x423B1CA3 EQ PUSH2 0x17EE JUMPI DUP1 PUSH4 0x42842E0E EQ PUSH2 0x17BB JUMPI DUP1 PUSH4 0x4AC18640 EQ PUSH2 0x1790 JUMPI DUP1 PUSH4 0x4B978505 EQ PUSH2 0x174D JUMPI DUP1 PUSH4 0x50C7D5A0 EQ PUSH2 0x1658 JUMPI DUP1 PUSH4 0x6352211E EQ PUSH2 0x1628 JUMPI DUP1 PUSH4 0x70A08231 EQ PUSH2 0x1605 JUMPI DUP1 PUSH4 0x70E6E99A EQ PUSH2 0x14C8 JUMPI DUP1 PUSH4 0x715018A6 EQ PUSH2 0x146B JUMPI DUP1 PUSH4 0x7BBA64AF EQ PUSH2 0x1296 JUMPI DUP1 PUSH4 0x7DEB0BF1 EQ PUSH2 0x109D JUMPI DUP1 PUSH4 0x836E3375 EQ PUSH2 0x1074 JUMPI DUP1 PUSH4 0x89D796E4 EQ PUSH2 0x104B JUMPI DUP1 PUSH4 0x8C5527CF EQ PUSH2 0x1008 JUMPI DUP1 PUSH4 0x8DA5CB5B EQ PUSH2 0xFDF JUMPI DUP1 PUSH4 0x95D89B41 EQ PUSH2 0xF00 JUMPI DUP1 PUSH4 0x9C103C61 EQ PUSH2 0xEE4 JUMPI DUP1 PUSH4 0x9C903FF0 EQ PUSH2 0xAA2 JUMPI DUP1 PUSH4 0xA22CB465 EQ PUSH2 0x9CF JUMPI DUP1 PUSH4 0xA6345141 EQ PUSH2 0x82D JUMPI DUP1 PUSH4 0xAFA2CF03 EQ PUSH2 0x735 JUMPI DUP1 PUSH4 0xB795945B EQ PUSH2 0x719 JUMPI DUP1 PUSH4 0xB88D4FDE EQ PUSH2 0x691 JUMPI DUP1 PUSH4 0xBCAF673F EQ PUSH2 0x533 JUMPI DUP1 PUSH4 0xC002D23D EQ PUSH2 0x511 JUMPI DUP1 PUSH4 0xC62E0435 EQ PUSH2 0x407 JUMPI DUP1 PUSH4 0xC87B56DD EQ PUSH2 0x392 JUMPI DUP1 PUSH4 0xD773154F EQ PUSH2 0x370 JUMPI DUP1 PUSH4 0xDE74E57B EQ PUSH2 0x324 JUMPI DUP1 PUSH4 0xE985E9C5 EQ PUSH2 0x2CE JUMPI PUSH4 0xF2FDE38B EQ PUSH2 0x205 JUMPI PUSH1 0x0 DUP1 REVERT JUMPDEST CALLVALUE PUSH2 0x2C9 JUMPI PUSH1 0x20 CALLDATASIZE PUSH1 0x3 NOT ADD SLT PUSH2 0x2C9 JUMPI PUSH2 0x21E PUSH2 0x243B JUMP JUMPDEST PUSH2 0x226 PUSH2 0x2738 JUMP JUMPDEST PUSH1 0x1 PUSH1 0x1 PUSH1 0xA0 SHL SUB SWAP1 DUP2 AND SWAP2 DUP3 ISZERO PUSH2 0x276 JUMPI POP PUSH1 0x7 SLOAD DUP3 PUSH1 0x1 PUSH1 0x1 PUSH1 0x60 SHL SUB PUSH1 0xA0 SHL DUP3 AND OR PUSH1 0x7 SSTORE AND PUSH32 0x8BE0079C531659141344CD1FD0A4F28419497F9722A3DAAFE3B4186F6B6457E0 PUSH1 0x0 DUP1 LOG3 STOP JUMPDEST PUSH1 0x84 SWAP1 PUSH1 0x20 PUSH1 0x40 MLOAD SWAP2 PUSH3 0x461BCD PUSH1 0xE5 SHL DUP4 MSTORE DUP3 ADD MSTORE PUSH1 0x26 PUSH1 0x24 DUP3 ADD MSTORE PUSH32 0x4F776E61626C653A206E6577206F776E657220697320746865207A65726F2061 PUSH1 0x44 DUP3 ADD MSTORE PUSH6 0x646472657373 PUSH1 0xD0 SHL PUSH1 0x64 DUP3 ADD MSTORE REVERT JUMPDEST PUSH1 0x0 DUP1 REVERT JUMPDEST CALLVALUE PUSH2 0x2C9 JUMPI PUSH1 0x40 CALLDATASIZE PUSH1 0x3 NOT ADD SLT PUSH2 0x2C9 JUMPI PUSH2 0x2E7 PUSH2 0x243B JUMP JUMPDEST PUSH2 0x2EF PUSH2 0x2451 JUMP JUMPDEST SWAP1 PUSH1 0x1 DUP1 PUSH1 0xA0 SHL SUB DUP1 SWAP2 AND PUSH1 0x0 MSTORE PUSH1 0x5 PUSH1 0x20 MSTORE PUSH1 0x40 PUSH1 0x0 KECCAK256 SWAP2 AND PUSH1 0x0 MSTORE PUSH1 0x20 MSTORE PUSH1 0x20 PUSH1 0xFF PUSH1 0x40 PUSH1 0x0 KECCAK256 SLOAD AND PUSH1 0x40 MLOAD SWAP1 ISZERO ISZERO DUP2 MSTORE RETURN JUMPDEST POP CALLVALUE PUSH2 0x2C9 JUMPI PUSH1 0x20 CALLDATASIZE PUSH1 0x3 NOT ADD SLT PUSH2 0x2C9 JUMPI CALLDATALOAD PUSH1 0x0 MSTORE PUSH1 0xF PUSH1 0x20 MSTORE PUSH1 0x60 PUSH1 0x40 PUSH1 0x0 KECCAK256 PUSH1 0xFF PUSH1 0x1 DUP3 SLOAD SWAP3 ADD SLOAD PUSH1 0x40 MLOAD SWAP3 DUP4 MSTORE PUSH1 0x1 DUP1 PUSH1 0xA0 SHL SUB DUP2 AND PUSH1 0x20 DUP5 ADD MSTORE PUSH1 0xA0 SHR AND ISZERO ISZERO PUSH1 0x40 DUP3 ADD MSTORE RETURN JUMPDEST CALLVALUE PUSH2 0x2C9 JUMPI PUSH1 0x0 CALLDATASIZE PUSH1 0x3 NOT ADD SLT PUSH2 0x2C9 JUMPI PUSH1 0x20 PUSH1 0x40 MLOAD PUSH7 0x38D7EA4C68000 DUP2 MSTORE RETURN JUMPDEST POP CALLVALUE PUSH2 0x2C9 JUMPI PUSH1 0x20 CALLDATASIZE PUSH1 0x3 NOT ADD SLT PUSH2 0x2C9 JUMPI CALLDATALOAD PUSH1 0x0 DUP2 DUP2 MSTORE PUSH1 0x2 PUSH1 0x20 MSTORE PUSH1 0x40 SWAP1 KECCAK256 SLOAD PUSH2 0x3C8 SWAP1 PUSH1 0x1 PUSH1 0x1 PUSH1 0xA0 SHL SUB AND ISZERO ISZERO PUSH2 0x2807 JUMP JUMPDEST PUSH1 0x0 MSTORE PUSH1 0x6 PUSH1 0x20 MSTORE PUSH2 0x403 PUSH2 0x3E0 PUSH1 0x40 PUSH1 0x0 KECCAK256 PUSH2 0x25D2 JUMP JUMPDEST PUSH1 0x0 PUSH1 0x40 MLOAD PUSH2 0x3EE DUP2 PUSH2 0x24D2 JUMP JUMPDEST MSTORE PUSH1 0x40 MLOAD SWAP2 DUP3 SWAP2 PUSH1 0x20 DUP4 MSTORE PUSH1 0x20 DUP4 ADD SWAP1 PUSH2 0x2416 JUMP JUMPDEST SUB SWAP1 RETURN JUMPDEST POP CALLVALUE PUSH2 0x2C9 JUMPI PUSH1 0x40 CALLDATASIZE PUSH1 0x3 NOT ADD SLT PUSH2 0x2C9 JUMPI CALLDATALOAD PUSH32 0x19D86B8EDFCD6CF16DAAF1EE062FA483161495CF6AD50132E27637B7ED38FB88 PUSH1 0x20 PUSH2 0x445 PUSH2 0x2678 JUMP JUMPDEST PUSH1 0xD SLOAD PUSH2 0x467 SWAP1 CALLER PUSH1 0x1 PUSH1 0x1 PUSH1 0xA0 SHL SUB SWAP2 DUP3 AND EQ SWAP1 DUP2 ISZERO PUSH2 0x503 JUMPI JUMPDEST POP PUSH2 0x2FB6 JUMP JUMPDEST DUP1 ISZERO PUSH2 0x4BB JUMPI DUP4 PUSH1 0x0 MSTORE PUSH1 0xB DUP3 MSTORE PUSH2 0x4B0 PUSH1 0x40 PUSH1 0x0 KECCAK256 PUSH2 0x490 PUSH4 0xFFFFFFFF DUP3 SLOAD PUSH1 0x90 SHR AND PUSH2 0x2FF3 JUMP JUMPDEST DUP2 SLOAD PUSH4 0xFFFFFFFF PUSH1 0x90 SHL NOT AND PUSH1 0x90 SWAP2 SWAP1 SWAP2 SHL PUSH4 0xFFFFFFFF PUSH1 0x90 SHL AND OR SWAP1 SSTORE JUMP JUMPDEST PUSH1 0x40 MLOAD SWAP1 ISZERO ISZERO DUP2 MSTORE LOG2 STOP JUMPDEST DUP4 PUSH1 0x0 MSTORE PUSH1 0xB DUP3 MSTORE PUSH2 0x4FE PUSH1 0x40 PUSH1 0x0 KECCAK256 PUSH2 0x4DE PUSH4 0xFFFFFFFF DUP3 SLOAD PUSH1 0xB0 SHR AND PUSH2 0x2FF3 JUMP JUMPDEST DUP2 SLOAD PUSH4 0xFFFFFFFF PUSH1 0xB0 SHL NOT AND PUSH1 0xB0 SWAP2 SWAP1 SWAP2 SHL PUSH4 0xFFFFFFFF PUSH1 0xB0 SHL AND OR SWAP1 SSTORE JUMP JUMPDEST PUSH2 0x4B0 JUMP JUMPDEST SWAP1 POP PUSH1 0x7 SLOAD AND CALLER EQ CODESIZE PUSH2 0x461 JUMP JUMPDEST CALLVALUE PUSH2 0x2C9 JUMPI PUSH1 0x0 CALLDATASIZE PUSH1 0x3 NOT ADD SLT PUSH2 0x2C9 JUMPI PUSH1 0x20 PUSH1 0x40 MLOAD PUSH7 0x2386F26FC10000 DUP2 MSTORE RETURN JUMPDEST POP CALLVALUE PUSH2 0x2C9 JUMPI PUSH1 0x40 CALLDATASIZE PUSH1 0x3 NOT ADD SLT PUSH2 0x2C9 JUMPI DUP1 CALLDATALOAD PUSH1 0x24 CALLDATALOAD SWAP2 PUSH2 0x554 DUP3 PUSH2 0x2853 JUMP JUMPDEST PUSH1 0x1 PUSH1 0x1 PUSH1 0xA0 SHL SUB SWAP2 SWAP1 PUSH2 0x56B SWAP1 DUP4 AND CALLER EQ PUSH2 0x2F6D JUMP JUMPDEST DUP4 ISZERO PUSH2 0x64D JUMPI DUP3 PUSH1 0x0 MSTORE PUSH1 0xF PUSH1 0x20 MSTORE PUSH1 0xFF PUSH1 0x1 PUSH1 0x40 PUSH1 0x0 KECCAK256 ADD SLOAD PUSH1 0xA0 SHR AND PUSH2 0x618 JUMPI POP PUSH1 0x40 MLOAD PUSH2 0x59A DUP2 PUSH2 0x2467 JUMP JUMPDEST DUP4 DUP2 MSTORE PUSH1 0x20 DUP2 ADD SWAP2 CALLER DUP4 MSTORE PUSH1 0x1 PUSH1 0x40 DUP4 ADD SWAP3 DUP2 DUP5 MSTORE DUP6 PUSH1 0x0 MSTORE PUSH1 0xF PUSH1 0x20 MSTORE PUSH1 0x40 PUSH1 0x0 KECCAK256 SWAP1 MLOAD DUP2 SSTORE ADD SWAP3 MLOAD AND DUP3 SLOAD SWAP2 PUSH1 0xFF PUSH1 0xA0 SHL SWAP1 MLOAD ISZERO ISZERO PUSH1 0xA0 SHL AND SWAP2 PUSH11 0xFFFFFFFFFFFFFFFFFFFFFF PUSH1 0xA8 SHL AND OR OR SWAP1 SSTORE PUSH1 0x40 MLOAD SWAP2 DUP3 MSTORE PUSH32 0xB401EB59E096F41C707ABDA600E71DDB0066743A000C511CCFD6B58CE62141E5 PUSH1 0x20 CALLER SWAP4 LOG3 STOP JUMPDEST PUSH1 0x64 SWAP1 PUSH1 0x20 PUSH1 0x40 MLOAD SWAP2 PUSH3 0x461BCD PUSH1 0xE5 SHL DUP4 MSTORE DUP3 ADD MSTORE PUSH1 0xE PUSH1 0x24 DUP3 ADD MSTORE PUSH14 0x105B1C9958591E481B1A5CDD1959 PUSH1 0x92 SHL PUSH1 0x44 DUP3 ADD MSTORE REVERT JUMPDEST PUSH1 0x64 SWAP1 PUSH1 0x20 PUSH1 0x40 MLOAD SWAP2 PUSH3 0x461BCD PUSH1 0xE5 SHL DUP4 MSTORE DUP3 ADD MSTORE PUSH1 0x1C PUSH1 0x24 DUP3 ADD MSTORE PUSH32 0x5072696365206D7573742062652067726561746572207468616E203000000000 PUSH1 0x44 DUP3 ADD MSTORE REVERT JUMPDEST POP CALLVALUE PUSH2 0x2C9 JUMPI PUSH1 0x80 CALLDATASIZE PUSH1 0x3 NOT ADD SLT PUSH2 0x2C9 JUMPI PUSH2 0x6AB PUSH2 0x243B JUMP JUMPDEST SWAP1 PUSH2 0x6B4 PUSH2 0x2451 JUMP JUMPDEST SWAP2 PUSH1 0x44 CALLDATALOAD PUSH1 0x64 CALLDATALOAD SWAP4 PUSH8 0xFFFFFFFFFFFFFFFF DUP6 GT PUSH2 0x2C9 JUMPI CALLDATASIZE PUSH1 0x23 DUP7 ADD SLT ISZERO PUSH2 0x2C9 JUMPI PUSH2 0x6EF PUSH2 0x712 SWAP5 DUP7 PUSH1 0x24 PUSH2 0x717 SWAP9 CALLDATASIZE SWAP4 ADD CALLDATALOAD SWAP2 ADD PUSH2 0x252C JUMP JUMPDEST SWAP3 PUSH2 0x702 PUSH2 0x6FD DUP5 CALLER PUSH2 0x2990 JUMP JUMPDEST PUSH2 0x28B7 JUMP JUMPDEST PUSH2 0x70D DUP4 DUP4 DUP4 PUSH2 0x2A58 JUMP JUMPDEST PUSH2 0x2C91 JUMP JUMPDEST PUSH2 0x296C JUMP JUMPDEST STOP JUMPDEST CALLVALUE PUSH2 0x2C9 JUMPI PUSH1 0x0 CALLDATASIZE PUSH1 0x3 NOT ADD SLT PUSH2 0x2C9 JUMPI PUSH1 0x20 PUSH1 0x40 MLOAD PUSH1 0xA DUP2 MSTORE RETURN JUMPDEST POP CALLVALUE PUSH2 0x2C9 JUMPI PUSH1 0x20 CALLDATASIZE PUSH1 0x3 NOT ADD SLT PUSH2 0x2C9 JUMPI CALLDATALOAD PUSH1 0x0 MSTORE PUSH1 0xB PUSH1 0x20 MSTORE PUSH1 0x20 PUSH2 0x825 PUSH1 0x40 PUSH1 0x0 KECCAK256 PUSH1 0x40 MLOAD SWAP1 PUSH2 0x767 DUP3 PUSH2 0x2499 JUMP JUMPDEST SLOAD SWAP1 PUSH2 0x81C PUSH1 0xFF SWAP2 DUP3 PUSH2 0x81C DUP2 DUP7 AND DUP1 DUP5 MSTORE DUP3 PUSH2 0x81C DUP2 DUP10 PUSH1 0x8 SHR AND DUP1 DUP13 DUP9 ADD MSTORE PUSH1 0x40 DUP8 ADD SWAP4 DUP4 DUP12 PUSH1 0x10 SHR AND DUP6 MSTORE PUSH1 0x60 DUP9 ADD SWAP8 DUP5 DUP13 PUSH1 0x18 SHR AND DUP10 MSTORE PUSH2 0x180 PUSH1 0x80 DUP3 ADD SWAP13 DUP16 DUP8 DUP16 SWAP2 DUP4 SWAP1 SHR AND SWAP1 MSTORE DUP7 DUP2 PUSH1 0x28 SHR AND PUSH1 0xA0 DUP5 ADD MSTORE PUSH6 0xFFFFFFFFFFFF DUP1 DUP3 PUSH1 0x30 SHR AND PUSH1 0xC0 DUP6 ADD MSTORE DUP2 PUSH1 0x60 SHR AND PUSH1 0xE0 DUP5 ADD MSTORE PUSH4 0xFFFFFFFF DUP1 DUP3 PUSH1 0x90 SHR AND PUSH2 0x100 DUP6 ADD MSTORE DUP1 DUP3 PUSH1 0xB0 SHR AND PUSH2 0x120 DUP6 ADD MSTORE DUP2 PUSH1 0xD0 SHR AND PUSH2 0x140 DUP5 ADD MSTORE DUP7 DUP2 PUSH1 0xF0 SHR AND ISZERO ISZERO PUSH2 0x160 DUP5 ADD MSTORE PUSH1 0xF8 SHR SWAP2 ADD MSTORE PUSH2 0x2D93 JUMP JUMPDEST SWAP2 MLOAD AND SWAP1 PUSH2 0x2D93 JUMP JUMPDEST PUSH1 0x40 MLOAD SWAP1 DUP2 MSTORE RETURN JUMPDEST POP CALLVALUE PUSH2 0x2C9 JUMPI PUSH1 0x20 SWAP1 DUP2 PUSH1 0x3 NOT CALLDATASIZE ADD SLT PUSH2 0x2C9 JUMPI PUSH1 0x40 MLOAD DUP2 CALLDATALOAD SWAP3 PUSH2 0x850 DUP3 PUSH2 0x2499 JUMP JUMPDEST PUSH1 0x0 DUP3 MSTORE PUSH1 0x0 DUP2 DUP4 ADD MSTORE PUSH1 0x0 PUSH1 0x40 DUP4 ADD MSTORE PUSH1 0x0 PUSH1 0x60 DUP4 ADD MSTORE PUSH1 0x0 PUSH1 0x80 DUP4 ADD MSTORE PUSH1 0x0 PUSH1 0xA0 DUP4 ADD MSTORE PUSH1 0x0 PUSH1 0xC0 DUP4 ADD MSTORE PUSH1 0x0 PUSH1 0xE0 DUP4 ADD MSTORE PUSH2 0x100 SWAP3 PUSH1 0x0 DUP5 DUP5 ADD MSTORE PUSH2 0x120 SWAP2 PUSH1 0x0 DUP4 DUP6 ADD MSTORE PUSH2 0x140 PUSH1 0x0 DUP2 DUP7 ADD MSTORE PUSH2 0x160 SWAP3 PUSH1 0x0 DUP5 DUP8 ADD MSTORE PUSH1 0x0 PUSH2 0x180 DUP1 SWAP8 ADD MSTORE PUSH2 0x8D3 DUP9 PUSH1 0x0 MSTORE PUSH1 0x2 PUSH1 0x20 MSTORE PUSH1 0x1 DUP1 PUSH1 0xA0 SHL SUB PUSH1 0x40 PUSH1 0x0 KECCAK256 SLOAD AND ISZERO ISZERO SWAP1 JUMP JUMPDEST ISZERO PUSH2 0x994 JUMPI POP PUSH2 0x403 SWAP7 PUSH1 0x0 MSTORE PUSH1 0xB DUP3 MSTORE PUSH1 0x40 PUSH1 0x0 KECCAK256 SWAP6 PUSH1 0x40 MLOAD SWAP7 PUSH2 0x8F7 DUP9 PUSH2 0x2499 JUMP JUMPDEST SLOAD SWAP5 DUP6 SWAP4 PUSH1 0xFF SWAP5 DUP6 SWAP2 DUP3 DUP3 AND DUP12 MSTORE DUP3 DUP3 PUSH1 0x8 SHR AND DUP2 DUP13 ADD MSTORE DUP3 DUP3 PUSH1 0x10 SHR AND PUSH1 0x40 DUP13 ADD MSTORE DUP3 DUP3 PUSH1 0x18 SHR AND PUSH1 0x60 DUP13 ADD MSTORE SHR AND PUSH1 0x80 DUP10 ADD MSTORE DUP4 DUP7 PUSH1 0x28 SHR AND PUSH1 0xA0 DUP10 ADD MSTORE PUSH6 0xFFFFFFFFFFFF DUP1 DUP8 PUSH1 0x30 SHR AND PUSH1 0xC0 DUP11 ADD MSTORE DUP7 PUSH1 0x60 SHR AND PUSH1 0xE0 DUP10 ADD MSTORE PUSH4 0xFFFFFFFF SWAP2 DUP3 DUP8 PUSH1 0x90 SHR AND SWAP1 DUP10 ADD MSTORE DUP2 DUP7 PUSH1 0xB0 SHR AND SWAP1 DUP9 ADD MSTORE DUP5 PUSH1 0xD0 SHR AND SWAP1 DUP7 ADD MSTORE DUP3 PUSH1 0xF0 SHR AND ISZERO ISZERO SWAP1 DUP5 ADD MSTORE PUSH1 0xF8 SHR SWAP1 DUP3 ADD MSTORE PUSH1 0x40 MLOAD SWAP2 DUP3 SWAP2 DUP3 PUSH2 0x2687 JUMP JUMPDEST PUSH1 0x40 MLOAD PUSH3 0x461BCD PUSH1 0xE5 SHL DUP2 MSTORE SWAP1 DUP2 ADD DUP4 SWAP1 MSTORE PUSH1 0x14 PUSH1 0x24 DUP3 ADD MSTORE PUSH20 0x151BDAD95B88191BD95CC81B9BDD08195E1A5CDD PUSH1 0x62 SHL PUSH1 0x44 DUP3 ADD MSTORE PUSH1 0x64 SWAP1 REVERT JUMPDEST POP CALLVALUE PUSH2 0x2C9 JUMPI PUSH1 0x40 CALLDATASIZE PUSH1 0x3 NOT ADD SLT PUSH2 0x2C9 JUMPI PUSH2 0x9E9 PUSH2 0x243B JUMP JUMPDEST PUSH2 0x9F1 PUSH2 0x2678 JUMP JUMPDEST PUSH1 0x1 PUSH1 0x1 PUSH1 0xA0 SHL SUB SWAP1 SWAP2 AND SWAP2 CALLER DUP4 EQ PUSH2 0xA5E JUMPI POP CALLER PUSH1 0x0 MSTORE PUSH1 0x5 PUSH1 0x20 MSTORE PUSH1 0x40 PUSH1 0x0 KECCAK256 DUP3 PUSH1 0x0 MSTORE PUSH1 0x20 MSTORE PUSH1 0x40 PUSH1 0x0 KECCAK256 SWAP1 ISZERO ISZERO SWAP1 PUSH1 0xFF NOT DUP2 SLOAD AND PUSH1 0xFF DUP4 AND OR SWAP1 SSTORE PUSH1 0x40 MLOAD SWAP1 DUP2 MSTORE PUSH32 0x17307EAB39AB6107E8899845AD3D59BD9653F200F220920489CA2B5937696C31 PUSH1 0x20 CALLER SWAP3 LOG3 STOP JUMPDEST PUSH1 0x64 SWAP1 PUSH1 0x20 PUSH1 0x40 MLOAD SWAP2 PUSH3 0x461BCD PUSH1 0xE5 SHL DUP4 MSTORE DUP3 ADD MSTORE PUSH1 0x19 PUSH1 0x24 DUP3 ADD MSTORE PUSH32 0x4552433732313A20617070726F766520746F2063616C6C657200000000000000 PUSH1 0x44 DUP3 ADD MSTORE REVERT JUMPDEST POP PUSH1 0x0 CALLDATASIZE PUSH1 0x3 NOT ADD SLT PUSH2 0x2C9 JUMPI PUSH2 0xAB7 PUSH2 0x2DB6 JUMP JUMPDEST PUSH2 0xACA PUSH7 0x2386F26FC10000 CALLVALUE LT ISZERO PUSH2 0x2D0F JUMP JUMPDEST PUSH1 0x9 SLOAD PUSH2 0xADA PUSH2 0x2710 DUP3 LT PUSH2 0x2D52 JUMP JUMPDEST PUSH1 0x1 DUP2 ADD PUSH1 0x9 SSTORE PUSH2 0xAEE PUSH1 0x1 DUP3 ADD CALLER PUSH2 0x2E0C JUMP JUMPDEST PUSH1 0x51 PUSH2 0xB1D PUSH1 0x40 MLOAD PUSH2 0xAFF DUP2 PUSH2 0x24B6 JUMP JUMPDEST PUSH1 0x8 DUP2 MSTORE PUSH8 0xE6E8E4CADCCEE8D PUSH1 0xC3 SHL PUSH1 0x20 DUP3 ADD MSTORE PUSH1 0x1 DUP5 ADD PUSH2 0x302F JUMP JUMPDEST MOD PUSH1 0x14 DUP2 ADD DUP1 SWAP2 GT PUSH2 0xECF JUMPI PUSH1 0x51 PUSH2 0xB55 PUSH1 0x40 MLOAD PUSH2 0xB3A DUP2 PUSH2 0x24B6 JUMP JUMPDEST PUSH1 0x5 DUP2 MSTORE PUSH5 0x1CDC195959 PUSH1 0xDA SHL PUSH1 0x20 DUP3 ADD MSTORE PUSH1 0x1 DUP6 ADD PUSH2 0x302F JUMP JUMPDEST MOD PUSH1 0x14 DUP2 ADD DUP1 SWAP2 GT PUSH2 0xEBA JUMPI PUSH1 0x51 PUSH2 0xB8F PUSH1 0x40 MLOAD PUSH2 0xB72 DUP2 PUSH2 0x24B6 JUMP JUMPDEST PUSH1 0x7 DUP2 MSTORE PUSH7 0x7374616D696E61 PUSH1 0xC8 SHL PUSH1 0x20 DUP3 ADD MSTORE PUSH1 0x1 DUP7 ADD PUSH2 0x302F JUMP JUMPDEST MOD PUSH1 0x14 DUP2 ADD DUP1 SWAP2 GT PUSH2 0xEA5 JUMPI PUSH1 0x51 PUSH2 0xBCE PUSH1 0x40 MLOAD PUSH2 0xBAC DUP2 PUSH2 0x24B6 JUMP JUMPDEST PUSH1 0xC DUP2 MSTORE PUSH12 0x696E74656C6C6967656E6365 PUSH1 0xA0 SHL PUSH1 0x20 DUP3 ADD MSTORE PUSH1 0x1 DUP8 ADD PUSH2 0x302F JUMP JUMPDEST MOD SWAP2 PUSH1 0x14 DUP4 ADD DUP1 SWAP4 GT PUSH2 0xE90 JUMPI PUSH1 0x51 PUSH2 0xC05 PUSH1 0x40 MLOAD PUSH2 0xBEC DUP2 PUSH2 0x24B6 JUMP JUMPDEST DUP9 DUP2 MSTORE PUSH4 0x6C75636B PUSH1 0xE0 SHL PUSH1 0x20 DUP3 ADD MSTORE PUSH1 0x1 DUP9 ADD PUSH2 0x302F JUMP JUMPDEST MOD SWAP6 PUSH1 0x14 DUP8 ADD DUP1 SWAP8 GT PUSH2 0xE7B JUMPI POP PUSH1 0xFF SWAP3 DUP4 PUSH1 0x20 SWAP8 SWAP4 DUP2 DUP1 SWAP5 DUP2 PUSH1 0x40 MLOAD SWAP10 PUSH2 0xC2C DUP12 PUSH2 0x2499 JUMP JUMPDEST AND DUP10 MSTORE AND DUP10 DUP9 ADD MSTORE AND PUSH1 0x40 DUP7 ADD MSTORE AND PUSH1 0x60 DUP5 ADD MSTORE AND PUSH1 0x80 DUP3 ADD MSTORE PUSH1 0x0 PUSH1 0xA0 DUP3 ADD MSTORE PUSH6 0xFFFFFFFFFFFF TIMESTAMP AND PUSH1 0xC0 DUP3 ADD MSTORE PUSH1 0x0 PUSH1 0xE0 DUP3 ADD MSTORE PUSH1 0x0 PUSH2 0x100 DUP3 ADD MSTORE PUSH1 0x0 PUSH2 0x120 DUP3 ADD MSTORE PUSH1 0x0 PUSH2 0x140 DUP3 ADD MSTORE PUSH1 0x1 PUSH2 0x160 DUP3 ADD MSTORE PUSH1 0x0 PUSH2 0x180 DUP3 ADD MSTORE PUSH1 0x1 DUP3 ADD PUSH1 0x0 MSTORE PUSH1 0xB DUP4 MSTORE PUSH2 0xE32 PUSH1 0x40 PUSH1 0x0 KECCAK256 PUSH1 0xFF DUP4 MLOAD AND PUSH1 0xFF NOT DUP3 SLOAD AND OR DUP2 SSTORE PUSH2 0xCCC PUSH1 0xFF DUP7 DUP6 ADD MLOAD AND DUP3 SWAP1 PUSH2 0xFF00 DUP3 SLOAD SWAP2 PUSH1 0x8 SHL AND SWAP1 PUSH2 0xFF00 NOT AND OR SWAP1 SSTORE JUMP JUMPDEST PUSH1 0x40 DUP4 ADD MLOAD DUP2 SLOAD PUSH3 0xFF0000 NOT AND PUSH1 0x10 SWAP2 SWAP1 SWAP2 SHL PUSH3 0xFF0000 AND OR DUP2 SSTORE PUSH1 0x60 DUP4 ADD MLOAD DUP2 SLOAD PUSH4 0xFF000000 NOT AND PUSH1 0x18 SWAP2 SWAP1 SWAP2 SHL PUSH4 0xFF000000 AND OR DUP2 SSTORE PUSH1 0x80 DUP4 ADD MLOAD DUP2 SLOAD PUSH5 0xFF00000000 NOT AND PUSH1 0x20 SWAP2 SWAP1 SWAP2 SHL PUSH5 0xFF00000000 AND OR DUP2 SSTORE PUSH1 0xA0 DUP4 ADD MLOAD DUP2 SLOAD PUSH1 0xC0 DUP6 ADD MLOAD PUSH1 0xE0 DUP7 ADD MLOAD PUSH2 0x100 DUP8 ADD MLOAD PUSH22 0xFFFFFFFFFFFFFFFFFFFFFFFFFFFFFFFFFF0000000000 NOT SWAP1 SWAP4 AND PUSH1 0x28 SWAP5 SWAP1 SWAP5 SHL PUSH6 0xFF0000000000 AND SWAP4 SWAP1 SWAP4 OR PUSH1 0x30 SWAP2 SWAP1 SWAP2 SHL PUSH12 0xFFFFFFFFFFFF000000000000 AND OR PUSH1 0x60 SWAP3 SWAP1 SWAP3 SHL PUSH6 0xFFFFFFFFFFFF PUSH1 0x60 SHL AND SWAP2 SWAP1 SWAP2 OR PUSH1 0x90 SWAP2 SWAP1 SWAP2 SHL PUSH4 0xFFFFFFFF PUSH1 0x90 SHL AND OR DUP2 SSTORE PUSH2 0xDF4 PUSH4 0xFFFFFFFF PUSH2 0x120 DUP6 ADD MLOAD DUP4 SLOAD PUSH4 0xFFFFFFFF PUSH1 0xB0 SHL NOT AND SWAP1 DUP3 AND PUSH1 0xB0 SHL PUSH4 0xFFFFFFFF PUSH1 0xB0 SHL AND OR DUP4 SSTORE PUSH2 0x140 DUP6 ADD MLOAD DUP4 SLOAD PUSH4 0xFFFFFFFF PUSH1 0xD0 SHL NOT AND SWAP2 AND PUSH1 0xD0 SHL PUSH4 0xFFFFFFFF PUSH1 0xD0 SHL AND OR DUP3 SSTORE JUMP JUMPDEST PUSH2 0x160 DUP4 ADD MLOAD DUP2 SLOAD PUSH2 0x180 DUP6 ADD MLOAD PUSH1 0x1 PUSH1 0x1 PUSH1 0xF0 SHL SUB SWAP1 SWAP2 AND SWAP2 ISZERO ISZERO PUSH1 0xF0 SHL PUSH1 0xFF PUSH1 0xF0 SHL AND SWAP2 SWAP1 SWAP2 OR PUSH1 0xF8 SWAP2 SWAP1 SWAP2 SHL PUSH1 0x1 PUSH1 0x1 PUSH1 0xF8 SHL SUB NOT AND OR SWAP1 SSTORE JUMP JUMPDEST PUSH1 0x40 MLOAD SWAP1 PUSH32 0xD735F618C8354CA6EB9A4EF222D2E5BCE56BF13D3FC29EEC8B4DFD2504EEDE72 CALLER SWAP3 DUP1 PUSH2 0xE68 PUSH1 0x1 DUP8 ADD SWAP5 DUP3 PUSH2 0x2687 JUMP JUMPDEST SUB SWAP1 LOG3 PUSH1 0x1 PUSH1 0x8 SSTORE PUSH1 0x1 PUSH1 0x40 MLOAD SWAP2 ADD DUP2 MSTORE RETURN JUMPDEST PUSH1 0x11 SWAP1 PUSH4 0x4E487B71 PUSH1 0xE0 SHL PUSH1 0x0 MSTORE MSTORE PUSH1 0x24 PUSH1 0x0 REVERT JUMPDEST PUSH1 0x11 DUP7 PUSH4 0x4E487B71 PUSH1 0xE0 SHL PUSH1 0x0 MSTORE MSTORE PUSH1 0x24 PUSH1 0x0 REVERT JUMPDEST PUSH1 0x11 DUP6 PUSH4 0x4E487B71 PUSH1 0xE0 SHL PUSH1 0x0 MSTORE MSTORE PUSH1 0x24 PUSH1 0x0 REVERT JUMPDEST PUSH1 0x11 DUP5 PUSH4 0x4E487B71 PUSH1 0xE0 SHL PUSH1 0x0 MSTORE MSTORE PUSH1 0x24 PUSH1 0x0 REVERT JUMPDEST PUSH1 0x11 DUP4 PUSH4 0x4E487B71 PUSH1 0xE0 SHL PUSH1 0x0 MSTORE MSTORE PUSH1 0x24 PUSH1 0x0 REVERT JUMPDEST CALLVALUE PUSH2 0x2C9 JUMPI PUSH1 0x0 CALLDATASIZE PUSH1 0x3 NOT ADD SLT PUSH2 0x2C9 JUMPI PUSH1 0x20 PUSH1 0x40 MLOAD PUSH1 0xFA DUP2 MSTORE RETURN JUMPDEST CALLVALUE PUSH2 0x2C9 JUMPI PUSH1 0x0 CALLDATASIZE PUSH1 0x3 NOT ADD SLT PUSH2 0x2C9 JUMPI PUSH1 0x40 MLOAD PUSH1 0x0 PUSH1 0x1 DUP1 SLOAD SWAP1 PUSH2 0xF24 DUP3 PUSH2 0x2598 JUMP JUMPDEST DUP1 DUP6 MSTORE SWAP2 DUP2 DUP2 AND SWAP1 DUP2 ISZERO PUSH2 0xFB8 JUMPI POP PUSH1 0x1 EQ PUSH2 0xF5F JUMPI JUMPDEST PUSH2 0x403 DUP5 PUSH2 0xF4B DUP2 DUP7 SUB DUP3 PUSH2 0x24EE JUMP JUMPDEST PUSH1 0x40 MLOAD SWAP2 DUP3 SWAP2 PUSH1 0x20 DUP4 MSTORE PUSH1 0x20 DUP4 ADD SWAP1 PUSH2 0x2416 JUMP JUMPDEST PUSH1 0x0 DUP2 DUP2 MSTORE SWAP3 POP PUSH32 0xB10E2D527612073B26EECDFD717E6A320CF44B4AFAC2B0732D9FCBE2B7FA0CF6 JUMPDEST DUP3 DUP5 LT PUSH2 0xFA0 JUMPI POP POP POP DUP2 ADD PUSH1 0x20 ADD PUSH2 0xF4B DUP3 PUSH2 0xF3B JUMP JUMPDEST DUP1 SLOAD PUSH1 0x20 DUP6 DUP8 ADD DUP2 ADD SWAP2 SWAP1 SWAP2 MSTORE SWAP1 SWAP4 ADD SWAP3 DUP2 ADD PUSH2 0xF88 JUMP JUMPDEST PUSH1 0xFF NOT AND PUSH1 0x20 DUP1 DUP8 ADD SWAP2 SWAP1 SWAP2 MSTORE SWAP3 ISZERO ISZERO PUSH1 0x5 SHL DUP6 ADD SWAP1 SWAP3 ADD SWAP3 POP PUSH2 0xF4B SWAP2 POP DUP4 SWAP1 POP PUSH2 0xF3B JUMP JUMPDEST CALLVALUE PUSH2 0x2C9 JUMPI PUSH1 0x0 CALLDATASIZE PUSH1 0x3 NOT ADD SLT PUSH2 0x2C9 JUMPI PUSH1 0x7 SLOAD PUSH1 0x40 MLOAD PUSH1 0x1 PUSH1 0x1 PUSH1 0xA0 SHL SUB SWAP1 SWAP2 AND DUP2 MSTORE PUSH1 0x20 SWAP1 RETURN JUMPDEST CALLVALUE PUSH2 0x2C9 JUMPI PUSH1 0x20 CALLDATASIZE PUSH1 0x3 NOT ADD SLT PUSH2 0x2C9 JUMPI PUSH2 0x1021 PUSH2 0x243B JUMP JUMPDEST PUSH2 0x1029 PUSH2 0x2738 JUMP JUMPDEST PUSH1 0xC DUP1 SLOAD PUSH1 0x1 PUSH1 0x1 PUSH1 0xA0 SHL SUB NOT AND PUSH1 0x1 PUSH1 0x1 PUSH1 0xA0 SHL SUB SWAP3 SWAP1 SWAP3 AND SWAP2 SWAP1 SWAP2 OR SWAP1 SSTORE STOP JUMPDEST CALLVALUE PUSH2 0x2C9 JUMPI PUSH1 0x0 CALLDATASIZE PUSH1 0x3 NOT ADD SLT PUSH2 0x2C9 JUMPI PUSH1 0xE SLOAD PUSH1 0x40 MLOAD PUSH1 0x1 PUSH1 0x1 PUSH1 0xA0 SHL SUB SWAP1 SWAP2 AND DUP2 MSTORE PUSH1 0x20 SWAP1 RETURN JUMPDEST CALLVALUE PUSH2 0x2C9 JUMPI PUSH1 0x0 CALLDATASIZE PUSH1 0x3 NOT ADD SLT PUSH2 0x2C9 JUMPI PUSH1 0xC SLOAD PUSH1 0x40 MLOAD PUSH1 0x1 PUSH1 0x1 PUSH1 0xA0 SHL SUB SWAP1 SWAP2 AND DUP2 MSTORE PUSH1 0x20 SWAP1 RETURN JUMPDEST POP CALLVALUE PUSH2 0x2C9 JUMPI PUSH1 0xE0 CALLDATASIZE PUSH1 0x3 NOT ADD SLT PUSH2 0x2C9 JUMPI PUSH2 0x10B7 PUSH2 0x243B JUMP JUMPDEST SWAP1 PUSH1 0x24 CALLDATALOAD SWAP1 PUSH1 0xFF DUP3 AND DUP3 SUB PUSH2 0x2C9 JUMPI PUSH1 0x44 CALLDATALOAD PUSH1 0xFF DUP2 AND DUP2 SUB PUSH2 0x2C9 JUMPI PUSH1 0x64 CALLDATALOAD PUSH1 0xFF DUP2 AND DUP2 SUB PUSH2 0x2C9 JUMPI PUSH1 0x84 CALLDATALOAD SWAP1 PUSH1 0xFF DUP3 AND DUP3 SUB PUSH2 0x2C9 JUMPI PUSH1 0xA4 CALLDATALOAD SWAP3 PUSH1 0xFF DUP5 AND DUP5 SUB PUSH2 0x2C9 JUMPI PUSH1 0xC4 CALLDATALOAD SWAP5 PUSH1 0xFF DUP7 AND DUP7 SUB PUSH2 0x2C9 JUMPI PUSH2 0x1112 PUSH2 0x2DB6 JUMP JUMPDEST PUSH1 0xC SLOAD PUSH1 0x1 PUSH1 0x1 PUSH1 0xA0 SHL SUB AND CALLER SUB PUSH2 0x1240 JUMPI PUSH1 0x20 PUSH1 0x1 DUP10 DUP10 PUSH1 0xFF DUP11 DUP2 DUP12 DUP2 DUP13 DUP2 DUP14 DUP2 DUP15 PUSH2 0x1156 PUSH1 0x9 SLOAD SWAP14 DUP15 PUSH2 0x114A PUSH2 0x2710 DUP3 LT PUSH2 0x2D52 JUMP JUMPDEST ADD PUSH1 0x9 DUP2 SWAP1 SSTORE DUP14 PUSH2 0x2E0C JUMP JUMPDEST DUP2 PUSH1 0x40 MLOAD SWAP12 PUSH2 0x1164 DUP14 PUSH2 0x2499 JUMP JUMPDEST AND DUP12 MSTORE AND DUP13 DUP11 ADD MSTORE AND PUSH1 0x40 DUP9 ADD MSTORE AND PUSH1 0x60 DUP7 ADD MSTORE AND PUSH1 0x80 DUP5 ADD MSTORE AND PUSH1 0xA0 DUP3 ADD MSTORE PUSH6 0xFFFFFFFFFFFF TIMESTAMP AND PUSH1 0xC0 DUP3 ADD MSTORE PUSH1 0x0 PUSH1 0xE0 DUP3 ADD MSTORE PUSH1 0x0 PUSH2 0x100 DUP3 ADD MSTORE PUSH1 0x0 PUSH2 0x120 DUP3 ADD MSTORE PUSH1 0x0 PUSH2 0x140 DUP3 ADD MSTORE PUSH1 0x1 PUSH2 0x160 DUP3 ADD MSTORE PUSH1 0x0 PUSH2 0x180 DUP3 ADD MSTORE PUSH1 0x1 DUP4 ADD PUSH1 0x0 MSTORE PUSH1 0xB DUP5 MSTORE PUSH2 0x1203 PUSH1 0x40 PUSH1 0x0 KECCAK256 PUSH1 0xFF DUP4 MLOAD AND PUSH1 0xFF NOT DUP3 SLOAD AND OR DUP2 SSTORE PUSH2 0xCCC PUSH1 0xFF DUP8 DUP6 ADD MLOAD AND DUP3 SWAP1 PUSH2 0xFF00 DUP3 SLOAD SWAP2 PUSH1 0x8 SHL AND SWAP1 PUSH2 0xFF00 NOT AND OR SWAP1 SSTORE JUMP JUMPDEST PUSH32 0xD735F618C8354CA6EB9A4EF222D2E5BCE56BF13D3FC29EEC8B4DFD2504EEDE72 PUSH1 0x40 MLOAD SWAP3 PUSH1 0x1 DUP1 PUSH1 0xA0 SHL SUB AND SWAP3 DUP1 PUSH2 0xE68 PUSH1 0x1 DUP8 ADD SWAP5 DUP3 PUSH2 0x2687 JUMP JUMPDEST PUSH1 0x84 SWAP1 PUSH1 0x20 PUSH1 0x40 MLOAD SWAP2 PUSH3 0x461BCD PUSH1 0xE5 SHL DUP4 MSTORE DUP3 ADD MSTORE PUSH1 0x29 PUSH1 0x24 DUP3 ADD MSTORE PUSH32 0x4F6E6C79206272656564696E6720636F6E74726163742063616E206D696E7420 PUSH1 0x44 DUP3 ADD MSTORE PUSH9 0x6F6666737072696E67 PUSH1 0xB8 SHL PUSH1 0x64 DUP3 ADD MSTORE REVERT JUMPDEST POP PUSH1 0x20 SWAP1 DUP2 PUSH1 0x3 NOT CALLDATASIZE ADD SLT PUSH2 0x2C9 JUMPI DUP1 CALLDATALOAD PUSH2 0x12AF PUSH2 0x2DB6 JUMP JUMPDEST DUP1 PUSH1 0x0 MSTORE PUSH1 0xF DUP4 MSTORE PUSH1 0x40 PUSH1 0x0 KECCAK256 SWAP1 PUSH1 0x1 PUSH1 0x40 MLOAD SWAP3 PUSH2 0x12CC DUP5 PUSH2 0x2467 JUMP JUMPDEST DUP1 SLOAD DUP5 MSTORE ADD SLOAD DUP5 DUP4 ADD PUSH1 0xFF PUSH1 0x1 DUP1 PUSH1 0xA0 SHL SUB SWAP3 DUP4 DUP2 AND DUP4 MSTORE PUSH1 0xA0 SHR AND ISZERO DUP1 ISZERO PUSH1 0x40 DUP7 ADD MSTORE PUSH2 0x1431 JUMPI PUSH2 0x1301 DUP5 MLOAD CALLVALUE LT ISZERO PUSH2 0x2D0F JUMP JUMPDEST MLOAD AND SWAP2 MLOAD SWAP2 PUSH1 0xFA DUP4 MUL DUP4 DUP2 DIV PUSH1 0xFA EQ DUP5 ISZERO OR ISZERO PUSH2 0xEA5 JUMPI PUSH1 0x0 DUP1 DUP1 PUSH2 0x132B PUSH2 0x2710 DUP3 SWAP6 DIV DUP9 PUSH2 0x2FA9 JUMP JUMPDEST DUP7 DUP3 MSTORE PUSH1 0xF DUP11 MSTORE DUP2 PUSH1 0x1 PUSH1 0x40 DUP3 KECCAK256 DUP3 DUP2 SSTORE ADD SSTORE PUSH2 0x1349 DUP8 CALLER DUP9 PUSH2 0x2A58 JUMP JUMPDEST DUP6 GAS CALL PUSH2 0x1354 PUSH2 0x2B69 JUMP JUMPDEST POP ISZERO PUSH2 0x13ED JUMPI PUSH1 0x40 MLOAD SWAP2 DUP4 DUP4 MSTORE PUSH32 0x23E7A5EDD4C10CC4BF363BE5EA945E863EB800CFB257A5D6B33B76B3A922CA5D DUP7 CALLER SWAP5 LOG4 DUP1 CALLVALUE GT PUSH2 0x1395 JUMPI JUMPDEST PUSH1 0x1 PUSH1 0x8 SSTORE STOP JUMPDEST PUSH1 0x0 DUP1 DUP1 PUSH2 0x13A4 DUP2 SWAP5 CALLVALUE PUSH2 0x2FA9 JUMP JUMPDEST CALLER GAS CALL PUSH2 0x13AF PUSH2 0x2B69 JUMP JUMPDEST POP ISZERO PUSH2 0x13BB JUMPI DUP1 PUSH2 0x138E JUMP JUMPDEST PUSH1 0x64 SWAP2 PUSH1 0x40 MLOAD SWAP2 PUSH3 0x461BCD PUSH1 0xE5 SHL DUP4 MSTORE DUP3 ADD MSTORE PUSH1 0xD PUSH1 0x24 DUP3 ADD MSTORE PUSH13 0x1499599D5B990819985A5B1959 PUSH1 0x9A SHL PUSH1 0x44 DUP3 ADD MSTORE REVERT JUMPDEST PUSH1 0x40 MLOAD PUSH3 0x461BCD PUSH1 0xE5 SHL DUP2 MSTORE DUP1 DUP6 ADD DUP7 SWAP1 MSTORE PUSH1 0x19 PUSH1 0x24 DUP3 ADD MSTORE PUSH32 0x5472616E7366657220746F2073656C6C6572206661696C656400000000000000 PUSH1 0x44 DUP3 ADD MSTORE PUSH1 0x64 SWAP1 REVERT JUMPDEST PUSH1 0x40 MLOAD PUSH3 0x461BCD PUSH1 0xE5 SHL DUP2 MSTORE DUP1 DUP7 ADD DUP8 SWAP1 MSTORE PUSH1 0x13 PUSH1 0x24 DUP3 ADD MSTORE PUSH19 0x4E6F74206C697374656420666F722073616C65 PUSH1 0x68 SHL PUSH1 0x44 DUP3 ADD MSTORE PUSH1 0x64 SWAP1 REVERT JUMPDEST CALLVALUE PUSH2 0x2C9 JUMPI PUSH1 0x0 CALLDATASIZE PUSH1 0x3 NOT ADD SLT PUSH2 0x2C9 JUMPI PUSH2 0x1484 PUSH2 0x2738 JUMP JUMPDEST PUSH1 0x7 DUP1 SLOAD PUSH1 0x1 PUSH1 0x1 PUSH1 0xA0 SHL SUB NOT DUP2 AND SWAP1 SWAP2 SSTORE PUSH1 0x0 SWAP1 PUSH1 0x1 PUSH1 0x1 PUSH1 0xA0 SHL SUB AND PUSH32 0x8BE0079C531659141344CD1FD0A4F28419497F9722A3DAAFE3B4186F6B6457E0 DUP3 DUP1 LOG3 STOP JUMPDEST POP CALLVALUE PUSH2 0x2C9 JUMPI PUSH1 0x20 DUP1 PUSH1 0x3 NOT CALLDATASIZE ADD SLT PUSH2 0x2C9 JUMPI PUSH2 0x14E3 PUSH2 0x243B JUMP JUMPDEST SWAP2 PUSH2 0x14ED DUP4 PUSH2 0x2790 JUMP JUMPDEST SWAP2 PUSH2 0x1510 PUSH2 0x14FA DUP5 PUSH2 0x3008 JUMP JUMPDEST SWAP4 PUSH2 0x1508 PUSH1 0x40 MLOAD SWAP6 DUP7 PUSH2 0x24EE JUMP JUMPDEST DUP1 DUP6 MSTORE PUSH2 0x3008 JUMP JUMPDEST DUP4 DUP3 ADD SWAP5 SWAP1 PUSH1 0x1F NOT ADD CALLDATASIZE DUP7 CALLDATACOPY PUSH1 0x9 SLOAD PUSH1 0x1 SWAP4 PUSH1 0x0 SWAP3 DUP6 JUMPDEST DUP4 DUP2 GT ISZERO PUSH2 0x156C JUMPI POP POP POP POP POP PUSH1 0x40 MLOAD SWAP3 DUP2 DUP5 ADD SWAP1 DUP3 DUP6 MSTORE MLOAD DUP1 SWAP2 MSTORE PUSH1 0x40 DUP5 ADD SWAP5 SWAP2 PUSH1 0x0 JUMPDEST DUP3 DUP2 LT PUSH2 0x1559 JUMPI DUP6 DUP8 SUB DUP7 RETURN JUMPDEST DUP4 MLOAD DUP8 MSTORE SWAP6 DUP2 ADD SWAP6 SWAP3 DUP2 ADD SWAP3 DUP5 ADD PUSH2 0x154C JUMP JUMPDEST PUSH1 0x0 DUP2 DUP2 MSTORE PUSH1 0x2 PUSH1 0x20 MSTORE PUSH1 0x40 SWAP1 KECCAK256 SLOAD SWAP7 SWAP9 SWAP6 SWAP8 SWAP6 SWAP7 PUSH1 0x1 PUSH1 0x1 PUSH1 0xA0 SHL SUB AND ISZERO ISZERO DUP1 PUSH2 0x15E8 JUMPI JUMPDEST PUSH2 0x15AB JUMPI JUMPDEST PUSH2 0x15A0 SWAP1 PUSH2 0x3020 JUMP JUMPDEST SWAP8 SWAP6 SWAP8 SWAP7 SWAP5 SWAP7 PUSH2 0x1527 JUMP JUMPDEST SWAP4 DUP6 MLOAD DUP2 LT ISZERO PUSH2 0x15D3 JUMPI PUSH2 0x15CB DUP2 DUP7 DUP11 PUSH2 0x15A0 SWAP5 PUSH1 0x5 SHL DUP11 ADD ADD MSTORE PUSH2 0x3020 JUMP JUMPDEST SWAP5 SWAP1 POP PUSH2 0x1597 JUMP JUMPDEST PUSH1 0x32 DUP4 PUSH4 0x4E487B71 PUSH1 0xE0 SHL PUSH1 0x0 MSTORE MSTORE PUSH1 0x24 PUSH1 0x0 REVERT JUMPDEST POP PUSH2 0x15F2 DUP2 PUSH2 0x2853 JUMP JUMPDEST PUSH1 0x1 PUSH1 0x1 PUSH1 0xA0 SHL SUB DUP4 DUP2 AND SWAP2 AND EQ PUSH2 0x1592 JUMP JUMPDEST CALLVALUE PUSH2 0x2C9 JUMPI PUSH1 0x20 CALLDATASIZE PUSH1 0x3 NOT ADD SLT PUSH2 0x2C9 JUMPI PUSH1 0x20 PUSH2 0x825 PUSH2 0x1623 PUSH2 0x243B JUMP JUMPDEST PUSH2 0x2790 JUMP JUMPDEST POP CALLVALUE PUSH2 0x2C9 JUMPI PUSH1 0x20 CALLDATASIZE PUSH1 0x3 NOT ADD SLT PUSH2 0x2C9 JUMPI PUSH2 0x1646 PUSH1 0x20 SWAP2 CALLDATALOAD PUSH2 0x2853 JUMP JUMPDEST PUSH1 0x40 MLOAD PUSH1 0x1 PUSH1 0x1 PUSH1 0xA0 SHL SUB SWAP1 SWAP2 AND DUP2 MSTORE RETURN JUMPDEST POP CALLVALUE PUSH2 0x2C9 JUMPI PUSH1 0x20 DUP1 PUSH1 0x3 NOT CALLDATASIZE ADD SLT PUSH2 0x2C9 JUMPI DUP2 CALLDATALOAD PUSH1 0x0 DUP2 DUP2 MSTORE PUSH1 0xF DUP4 MSTORE PUSH1 0x40 SWAP1 KECCAK256 PUSH1 0x1 ADD SLOAD SWAP1 SWAP3 SWAP1 PUSH1 0x1 PUSH1 0x1 PUSH1 0xA0 SHL SUB AND CALLER SUB PUSH2 0x171A JUMPI DUP3 PUSH1 0x0 MSTORE PUSH1 0xF DUP3 MSTORE PUSH1 0xFF PUSH1 0x1 PUSH1 0x40 PUSH1 0x0 KECCAK256 ADD SLOAD PUSH1 0xA0 SHR AND ISZERO PUSH2 0x16EB JUMPI POP PUSH1 0xF SWAP1 DUP3 PUSH1 0x0 MSTORE MSTORE PUSH1 0x0 PUSH1 0x1 PUSH1 0x40 DUP3 KECCAK256 DUP3 DUP2 SSTORE ADD SSTORE CALLER SWAP1 PUSH32 0x8202AB9068FA5E6EA16E04517A8C260F8B0D6714D979788967E4BFB1FACA28D PUSH1 0x0 DUP1 LOG3 STOP JUMPDEST PUSH1 0x64 SWAP2 PUSH1 0x40 MLOAD SWAP2 PUSH3 0x461BCD PUSH1 0xE5 SHL DUP4 MSTORE DUP3 ADD MSTORE PUSH1 0xA PUSH1 0x24 DUP3 ADD MSTORE PUSH10 0x139BDD081B1A5CDD1959 PUSH1 0xB2 SHL PUSH1 0x44 DUP3 ADD MSTORE REVERT JUMPDEST PUSH1 0x64 SWAP2 PUSH1 0x40 MLOAD SWAP2 PUSH3 0x461BCD PUSH1 0xE5 SHL DUP4 MSTORE DUP3 ADD MSTORE PUSH1 0xE PUSH1 0x24 DUP3 ADD MSTORE PUSH14 0x2737BA103A34329039B2B63632B9 PUSH1 0x91 SHL PUSH1 0x44 DUP3 ADD MSTORE REVERT JUMPDEST CALLVALUE PUSH2 0x2C9 JUMPI PUSH1 0x20 CALLDATASIZE PUSH1 0x3 NOT ADD SLT PUSH2 0x2C9 JUMPI PUSH2 0x1766 PUSH2 0x243B JUMP JUMPDEST PUSH2 0x176E PUSH2 0x2738 JUMP JUMPDEST PUSH1 0xE DUP1 SLOAD PUSH1 0x1 PUSH1 0x1 PUSH1 0xA0 SHL SUB NOT AND PUSH1 0x1 PUSH1 0x1 PUSH1 0xA0 SHL SUB SWAP3 SWAP1 SWAP3 AND SWAP2 SWAP1 SWAP2 OR SWAP1 SSTORE STOP JUMPDEST POP CALLVALUE PUSH2 0x2C9 JUMPI PUSH1 0x20 CALLDATASIZE PUSH1 0x3 NOT ADD SLT PUSH2 0x2C9 JUMPI CALLDATALOAD PUSH1 0x0 MSTORE PUSH1 0xA PUSH1 0x20 MSTORE PUSH2 0x403 PUSH2 0xF4B PUSH1 0x40 PUSH1 0x0 KECCAK256 PUSH2 0x25D2 JUMP JUMPDEST CALLVALUE PUSH2 0x2C9 JUMPI PUSH2 0x717 PUSH2 0x712 PUSH2 0x17CF CALLDATASIZE PUSH2 0x2563 JUMP JUMPDEST SWAP1 PUSH1 0x40 MLOAD SWAP3 PUSH2 0x17DD DUP5 PUSH2 0x24D2 JUMP JUMPDEST PUSH1 0x0 DUP5 MSTORE PUSH2 0x702 PUSH2 0x6FD DUP5 CALLER PUSH2 0x2990 JUMP JUMPDEST CALLVALUE PUSH2 0x2C9 JUMPI PUSH1 0x0 CALLDATASIZE PUSH1 0x3 NOT ADD SLT PUSH2 0x2C9 JUMPI PUSH1 0xD SLOAD PUSH1 0x40 MLOAD PUSH1 0x1 PUSH1 0x1 PUSH1 0xA0 SHL SUB SWAP1 SWAP2 AND DUP2 MSTORE PUSH1 0x20 SWAP1 RETURN JUMPDEST POP CALLVALUE PUSH2 0x2C9 JUMPI PUSH1 0x0 CALLDATASIZE PUSH1 0x3 NOT ADD SLT PUSH2 0x2C9 JUMPI PUSH2 0x1831 PUSH2 0x2738 JUMP JUMPDEST PUSH1 0x0 DUP1 DUP1 DUP1 SELFBALANCE PUSH1 0x1 DUP1 PUSH1 0xA0 SHL SUB PUSH1 0x7 SLOAD AND GAS CALL PUSH2 0x184C PUSH2 0x2B69 JUMP JUMPDEST POP ISZERO PUSH2 0x1854 JUMPI STOP JUMPDEST PUSH1 0x64 SWAP1 PUSH1 0x20 PUSH1 0x40 MLOAD SWAP2 PUSH3 0x461BCD PUSH1 0xE5 SHL DUP4 MSTORE DUP3 ADD MSTORE PUSH1 0x11 PUSH1 0x24 DUP3 ADD MSTORE PUSH17 0x15DA5D1A191C985DD85B0819985A5B1959 PUSH1 0x7A SHL PUSH1 0x44 DUP3 ADD MSTORE REVERT JUMPDEST CALLVALUE PUSH2 0x2C9 JUMPI PUSH1 0x0 CALLDATASIZE PUSH1 0x3 NOT ADD SLT PUSH2 0x2C9 JUMPI PUSH1 0x20 PUSH1 0x40 MLOAD PUSH2 0x2710 DUP2 MSTORE RETURN JUMPDEST CALLVALUE PUSH2 0x2C9 JUMPI PUSH2 0x717 PUSH2 0x18BA CALLDATASIZE PUSH2 0x2563 JUMP JUMPDEST SWAP2 PUSH2 0x18C8 PUSH2 0x6FD DUP5 CALLER PUSH2 0x2990 JUMP JUMPDEST PUSH2 0x2A58 JUMP JUMPDEST POP CALLVALUE PUSH2 0x2C9 JUMPI PUSH1 0x20 CALLDATASIZE PUSH1 0x3 NOT ADD SLT PUSH2 0x2C9 JUMPI PUSH1 0xE SLOAD PUSH2 0x1900 SWAP1 CALLER PUSH1 0x1 PUSH1 0x1 PUSH1 0xA0 SHL SUB SWAP2 DUP3 AND EQ SWAP1 DUP2 ISZERO PUSH2 0x503 JUMPI POP PUSH2 0x2FB6 JUMP JUMPDEST CALLDATALOAD PUSH1 0x0 MSTORE PUSH1 0xB PUSH1 0x20 MSTORE PUSH2 0x717 PUSH1 0x40 PUSH1 0x0 KECCAK256 PUSH2 0x1924 PUSH4 0xFFFFFFFF DUP3 SLOAD PUSH1 0xD0 SHR AND PUSH2 0x2FF3 JUMP JUMPDEST DUP2 SLOAD PUSH4 0xFFFFFFFF PUSH1 0xD0 SHL NOT AND PUSH1 0xD0 SWAP2 SWAP1 SWAP2 SHL PUSH4 0xFFFFFFFF PUSH1 0xD0 SHL AND OR SWAP1 SSTORE JUMP JUMPDEST POP PUSH1 0x20 DUP1 PUSH1 0x3 NOT CALLDATASIZE ADD SLT PUSH2 0x2C9 JUMPI DUP2 CALLDATALOAD SWAP1 PUSH2 0x195D PUSH2 0x2DB6 JUMP JUMPDEST PUSH2 0x1979 PUSH2 0x1969 DUP4 PUSH2 0x2853 JUMP JUMPDEST PUSH1 0x1 PUSH1 0x1 PUSH1 0xA0 SHL SUB AND CALLER EQ PUSH2 0x2F6D JUMP JUMPDEST PUSH7 0x11C37937E08000 CALLVALUE LT PUSH2 0x1D3C JUMPI DUP2 PUSH1 0x0 MSTORE PUSH1 0xB DUP1 DUP3 MSTORE PUSH1 0xA PUSH1 0x40 PUSH1 0x0 KECCAK256 SLOAD PUSH1 0xF8 SHR LT ISZERO PUSH2 0x1CF8 JUMPI DUP3 PUSH1 0x0 MSTORE DUP1 DUP3 MSTORE PUSH1 0x40 PUSH1 0x0 KECCAK256 DUP1 SLOAD PUSH1 0xF8 SHR SWAP1 PUSH1 0xFF SWAP2 DUP3 DUP2 EQ PUSH2 0x1CE3 JUMPI DUP2 SLOAD PUSH1 0x1 PUSH1 0x1 PUSH1 0xF8 SHL SUB AND PUSH1 0x1 SWAP1 SWAP2 ADD PUSH1 0xF8 SHL PUSH1 0x1 PUSH1 0x1 PUSH1 0xF8 SHL SUB NOT AND OR SWAP1 SSTORE PUSH2 0x1A03 PUSH1 0x40 MLOAD PUSH2 0x19EC DUP2 PUSH2 0x24B6 JUMP JUMPDEST PUSH1 0x5 DUP2 MSTORE PUSH5 0x3A3930B4B7 PUSH1 0xD9 SHL DUP6 DUP3 ADD MSTORE DUP6 PUSH2 0x302F JUMP JUMPDEST SWAP1 PUSH1 0x3 PUSH1 0x5 DUP4 MOD SWAP3 MOD SWAP2 PUSH1 0x1 DUP4 ADD DUP1 SWAP4 GT PUSH2 0x1CE3 JUMPI SWAP6 DUP7 PUSH32 0x7BAA804ECF3F4C341AF2368B8F1DDD8ADEE82F9FA5DE6F7DFBF99936C2C2235A SWAP7 SWAP8 ISZERO DUP1 PUSH2 0x1CCB JUMPI JUMPDEST ISZERO PUSH2 0x1AAF JUMPI POP POP SWAP1 PUSH2 0x1A64 SWAP1 DUP7 PUSH1 0x0 MSTORE DUP4 DUP6 MSTORE DUP3 PUSH1 0x40 PUSH1 0x0 KECCAK256 SLOAD AND PUSH2 0x2D93 JUMP JUMPDEST DUP1 PUSH1 0x64 LT PUSH1 0x0 EQ PUSH2 0x1AA9 JUMPI POP PUSH1 0x64 SWAP1 JUMPDEST DUP6 PUSH1 0x0 MSTORE DUP3 DUP5 MSTORE PUSH1 0x40 PUSH1 0x0 KECCAK256 SWAP2 AND PUSH1 0xFF NOT DUP3 SLOAD AND OR SWAP1 SSTORE JUMPDEST DUP4 PUSH1 0x0 MSTORE DUP2 MSTORE PUSH1 0x40 PUSH1 0x0 KECCAK256 SLOAD PUSH1 0xF8 SHR PUSH1 0x40 MLOAD SWAP1 DUP2 MSTORE LOG2 PUSH1 0x1 PUSH1 0x8 SSTORE STOP JUMPDEST SWAP1 PUSH2 0x1A74 JUMP JUMPDEST PUSH1 0x1 DUP2 EQ DUP1 PUSH2 0x1CB0 JUMPI JUMPDEST ISZERO PUSH2 0x1B1A JUMPI POP POP PUSH2 0x1ADE PUSH2 0x1B10 SWAP3 DUP8 PUSH1 0x0 MSTORE DUP5 DUP7 MSTORE DUP3 PUSH1 0x40 PUSH1 0x0 KECCAK256 SLOAD PUSH1 0x8 SHR AND PUSH2 0x2D93 JUMP JUMPDEST DUP1 PUSH1 0x64 LT PUSH1 0x0 EQ PUSH2 0x1B15 JUMPI POP PUSH1 0x64 JUMPDEST DUP7 PUSH1 0x0 MSTORE DUP4 DUP6 MSTORE AND PUSH1 0x40 PUSH1 0x0 KECCAK256 SWAP1 PUSH2 0xFF00 DUP3 SLOAD SWAP2 PUSH1 0x8 SHL AND SWAP1 PUSH2 0xFF00 NOT AND OR SWAP1 SSTORE JUMP JUMPDEST PUSH2 0x1A8C JUMP JUMPDEST PUSH2 0x1AED JUMP JUMPDEST PUSH1 0x2 DUP2 EQ DUP1 PUSH2 0x1C95 JUMPI JUMPDEST ISZERO PUSH2 0x1B82 JUMPI POP POP PUSH2 0x1B49 PUSH2 0x1B10 SWAP3 DUP8 PUSH1 0x0 MSTORE DUP5 DUP7 MSTORE DUP3 PUSH1 0x40 PUSH1 0x0 KECCAK256 SLOAD PUSH1 0x10 SHR AND PUSH2 0x2D93 JUMP JUMPDEST DUP1 PUSH1 0x64 LT PUSH1 0x0 EQ PUSH2 0x1B7D JUMPI POP PUSH1 0x64 JUMPDEST DUP7 PUSH1 0x0 MSTORE DUP4 DUP6 MSTORE AND PUSH1 0x40 PUSH1 0x0 KECCAK256 SWAP1 PUSH3 0xFF0000 DUP3 SLOAD SWAP2 PUSH1 0x10 SHL AND SWAP1 PUSH3 0xFF0000 NOT AND OR SWAP1 SSTORE JUMP JUMPDEST PUSH2 0x1B58 JUMP JUMPDEST PUSH1 0x3 DUP2 EQ DUP1 PUSH2 0x1C7A JUMPI JUMPDEST ISZERO PUSH2 0x1BEC JUMPI POP POP PUSH2 0x1BB1 PUSH2 0x1B10 SWAP3 DUP8 PUSH1 0x0 MSTORE DUP5 DUP7 MSTORE DUP3 PUSH1 0x40 PUSH1 0x0 KECCAK256 SLOAD PUSH1 0x18 SHR AND PUSH2 0x2D93 JUMP JUMPDEST DUP1 PUSH1 0x64 LT PUSH1 0x0 EQ PUSH2 0x1BE7 JUMPI POP PUSH1 0x64 JUMPDEST DUP7 PUSH1 0x0 MSTORE DUP4 DUP6 MSTORE AND PUSH1 0x40 PUSH1 0x0 KECCAK256 SWAP1 PUSH4 0xFF000000 DUP3 SLOAD SWAP2 PUSH1 0x18 SHL AND SWAP1 PUSH4 0xFF000000 NOT AND OR SWAP1 SSTORE JUMP JUMPDEST PUSH2 0x1BC0 JUMP JUMPDEST EQ DUP1 PUSH2 0x1C60 JUMPI JUMPDEST PUSH2 0x1BFF JUMPI JUMPDEST POP POP PUSH2 0x1A8C JUMP JUMPDEST PUSH2 0x1C1C PUSH2 0x1C54 SWAP3 DUP8 PUSH1 0x0 MSTORE DUP5 DUP7 MSTORE DUP3 PUSH1 0x40 PUSH1 0x0 KECCAK256 SLOAD DUP8 SHR AND PUSH2 0x2D93 JUMP JUMPDEST DUP1 PUSH1 0x64 LT PUSH1 0x0 EQ PUSH2 0x1C5B JUMPI POP PUSH1 0x64 JUMPDEST DUP7 PUSH1 0x0 MSTORE DUP4 DUP6 MSTORE AND PUSH1 0x40 PUSH1 0x0 KECCAK256 SWAP1 PUSH5 0xFF00000000 DUP3 SLOAD SWAP2 PUSH1 0x20 SHL AND SWAP1 PUSH5 0xFF00000000 NOT AND OR SWAP1 SSTORE JUMP JUMPDEST CODESIZE DUP1 PUSH2 0x1BF8 JUMP JUMPDEST PUSH2 0x1C2B JUMP JUMPDEST POP DUP6 PUSH1 0x0 MSTORE DUP3 DUP5 MSTORE PUSH1 0x64 DUP2 PUSH1 0x40 PUSH1 0x0 KECCAK256 SLOAD DUP7 SHR AND LT PUSH2 0x1BF3 JUMP JUMPDEST POP DUP8 PUSH1 0x0 MSTORE DUP5 DUP7 MSTORE PUSH1 0x64 DUP4 PUSH1 0x40 PUSH1 0x0 KECCAK256 SLOAD PUSH1 0x18 SHR AND LT PUSH2 0x1B8C JUMP JUMPDEST POP DUP8 PUSH1 0x0 MSTORE DUP5 DUP7 MSTORE PUSH1 0x64 DUP4 PUSH1 0x40 PUSH1 0x0 KECCAK256 SLOAD PUSH1 0x10 SHR AND LT PUSH2 0x1B24 JUMP JUMPDEST POP DUP8 PUSH1 0x0 MSTORE DUP5 DUP7 MSTORE PUSH1 0x64 DUP4 PUSH1 0x40 PUSH1 0x0 KECCAK256 SLOAD PUSH1 0x8 SHR AND LT PUSH2 0x1AB9 JUMP JUMPDEST POP DUP8 PUSH1 0x0 MSTORE DUP5 DUP7 MSTORE PUSH1 0x64 DUP4 PUSH1 0x40 PUSH1 0x0 KECCAK256 SLOAD AND LT PUSH2 0x1A44 JUMP JUMPDEST PUSH1 0x11 DUP8 PUSH4 0x4E487B71 PUSH1 0xE0 SHL PUSH1 0x0 MSTORE MSTORE PUSH1 0x24 PUSH1 0x0 REVERT JUMPDEST PUSH1 0x40 MLOAD PUSH3 0x461BCD PUSH1 0xE5 SHL DUP2 MSTORE DUP1 DUP6 ADD DUP4 SWAP1 MSTORE PUSH1 0x1A PUSH1 0x24 DUP3 ADD MSTORE PUSH32 0x4D617820747261696E696E67206C6576656C2072656163686564000000000000 PUSH1 0x44 DUP3 ADD MSTORE PUSH1 0x64 SWAP1 REVERT JUMPDEST DUP3 PUSH1 0x84 SWAP2 PUSH1 0x40 MLOAD SWAP2 PUSH3 0x461BCD PUSH1 0xE5 SHL DUP4 MSTORE DUP3 ADD MSTORE PUSH1 0x21 PUSH1 0x24 DUP3 ADD MSTORE PUSH32 0x496E73756666696369656E74207061796D656E7420666F7220747261696E696E PUSH1 0x44 DUP3 ADD MSTORE PUSH1 0x67 PUSH1 0xF8 SHL PUSH1 0x64 DUP3 ADD MSTORE REVERT JUMPDEST POP CALLVALUE PUSH2 0x2C9 JUMPI PUSH1 0x20 CALLDATASIZE PUSH1 0x3 NOT ADD SLT PUSH2 0x2C9 JUMPI CALLDATALOAD PUSH1 0x0 MSTORE PUSH1 0xB PUSH1 0x20 MSTORE PUSH2 0x1A0 PUSH1 0x40 PUSH1 0x0 KECCAK256 SLOAD PUSH1 0x40 MLOAD SWAP1 PUSH1 0xFF DUP1 DUP3 AND DUP4 MSTORE DUP1 DUP3 PUSH1 0x8 SHR AND PUSH1 0x20 DUP5 ADD MSTORE DUP1 DUP3 PUSH1 0x10 SHR AND PUSH1 0x40 DUP5 ADD MSTORE DUP1 DUP3 PUSH1 0x18 SHR AND PUSH1 0x60 DUP5 ADD MSTORE DUP1 DUP3 PUSH1 0x20 SHR AND PUSH1 0x80 DUP5 ADD MSTORE DUP1 DUP3 PUSH1 0x28 SHR AND PUSH1 0xA0 DUP5 ADD MSTORE PUSH6 0xFFFFFFFFFFFF DUP1 DUP4 PUSH1 0x30 SHR AND PUSH1 0xC0 DUP6 ADD MSTORE DUP3 PUSH1 0x60 SHR AND PUSH1 0xE0 DUP5 ADD MSTORE PUSH4 0xFFFFFFFF DUP1 DUP4 PUSH1 0x90 SHR AND PUSH2 0x100 DUP6 ADD MSTORE DUP1 DUP4 PUSH1 0xB0 SHR AND PUSH2 0x120 DUP6 ADD MSTORE DUP3 PUSH1 0xD0 SHR AND PUSH2 0x140 DUP5 ADD MSTORE DUP2 PUSH1 0xF0 SHR AND ISZERO ISZERO PUSH2 0x160 DUP4 ADD MSTORE PUSH1 0xF8 SHR PUSH2 0x180 DUP3 ADD MSTORE RETURN JUMPDEST POP PUSH1 0x40 CALLDATASIZE PUSH1 0x3 NOT ADD SLT PUSH2 0x2C9 JUMPI DUP1 CALLDATALOAD PUSH1 0x24 CALLDATALOAD SWAP2 PUSH8 0xFFFFFFFFFFFFFFFF SWAP3 DUP4 DUP2 GT PUSH2 0x2C9 JUMPI CALLDATASIZE PUSH1 0x23 DUP3 ADD SLT ISZERO PUSH2 0x2C9 JUMPI PUSH2 0x1E8D SWAP1 CALLDATASIZE SWAP1 PUSH1 0x24 DUP2 DUP6 ADD CALLDATALOAD SWAP2 ADD PUSH2 0x252C JUMP JUMPDEST SWAP1 PUSH2 0x1E9A PUSH2 0x1969 DUP5 PUSH2 0x2853 JUMP JUMPDEST PUSH7 0x38D7EA4C68000 CALLVALUE LT PUSH2 0x2080 JUMPI DUP2 MLOAD DUP1 ISZERO ISZERO SWAP1 DUP2 PUSH2 0x2074 JUMPI JUMPDEST POP ISZERO PUSH2 0x203A JUMPI DUP3 PUSH1 0x0 MSTORE PUSH1 0x20 SWAP1 PUSH1 0xA DUP3 MSTORE PUSH1 0x40 PUSH1 0x0 KECCAK256 SWAP1 DUP4 MLOAD SWAP6 DUP7 GT PUSH2 0x2025 JUMPI POP PUSH2 0x1EDF DUP2 SLOAD PUSH2 0x2598 JUMP JUMPDEST PUSH1 0x1F DUP2 GT PUSH2 0x1FDF JUMPI JUMPDEST POP DUP2 PUSH1 0x1F DUP7 GT PUSH1 0x1 EQ PUSH2 0x1F5A JUMPI SWAP5 DUP1 PUSH32 0x93BA1FD5253BDA82916758E6B2A5D92A597015CB1924170D2C0191BE6392DE22 SWAP6 SWAP7 PUSH1 0x0 SWAP2 PUSH2 0x1F4F JUMPI JUMPDEST POP DUP2 PUSH1 0x1 SHL SWAP2 PUSH1 0x0 NOT SWAP1 PUSH1 0x3 SHL SHR NOT AND OR SWAP1 SSTORE JUMPDEST PUSH2 0x1F4A PUSH1 0x40 MLOAD SWAP3 DUP3 DUP5 SWAP4 DUP5 MSTORE DUP4 ADD SWAP1 PUSH2 0x2416 JUMP JUMPDEST SUB SWAP1 LOG2 STOP JUMPDEST SWAP1 POP DUP5 ADD MLOAD CODESIZE PUSH2 0x1F22 JUMP JUMPDEST PUSH1 0x1F NOT DUP7 AND SWAP1 DUP3 PUSH1 0x0 MSTORE DUP4 PUSH1 0x0 KECCAK256 SWAP2 PUSH1 0x0 JUMPDEST DUP2 DUP2 LT PUSH2 0x1FC8 JUMPI POP SWAP2 DUP8 SWAP2 PUSH32 0x93BA1FD5253BDA82916758E6B2A5D92A597015CB1924170D2C0191BE6392DE22 SWAP8 SWAP9 PUSH1 0x1 SWAP5 LT PUSH2 0x1FAF JUMPI JUMPDEST POP POP DUP2 SHL ADD SWAP1 SSTORE PUSH2 0x1F36 JUMP JUMPDEST DUP7 ADD MLOAD PUSH1 0x0 NOT PUSH1 0xF8 DUP5 PUSH1 0x3 SHL AND SHR NOT AND SWAP1 SSTORE CODESIZE DUP1 PUSH2 0x1FA3 JUMP JUMPDEST SWAP2 SWAP3 DUP6 PUSH1 0x1 DUP2 SWAP3 DUP7 DUP11 ADD MLOAD DUP2 SSTORE ADD SWAP5 ADD SWAP3 ADD PUSH2 0x1F6C JUMP JUMPDEST DUP2 PUSH1 0x0 MSTORE DUP3 PUSH1 0x0 KECCAK256 PUSH1 0x1F DUP8 ADD PUSH1 0x5 SHR DUP2 ADD SWAP2 DUP5 DUP9 LT PUSH2 0x201B JUMPI JUMPDEST PUSH1 0x1F ADD PUSH1 0x5 SHR ADD SWAP1 JUMPDEST DUP2 DUP2 LT PUSH2 0x200F JUMPI POP PUSH2 0x1EE8 JUMP JUMPDEST PUSH1 0x0 DUP2 SSTORE PUSH1 0x1 ADD PUSH2 0x2002 JUMP JUMPDEST SWAP1 SWAP2 POP DUP2 SWAP1 PUSH2 0x1FF9 JUMP JUMPDEST PUSH1 0x41 SWAP1 PUSH4 0x4E487B71 PUSH1 0xE0 SHL PUSH1 0x0 MSTORE MSTORE PUSH1 0x24 PUSH1 0x0 REVERT JUMPDEST PUSH1 0x64 SWAP1 PUSH1 0x20 PUSH1 0x40 MLOAD SWAP2 PUSH3 0x461BCD PUSH1 0xE5 SHL DUP4 MSTORE DUP3 ADD MSTORE PUSH1 0x13 PUSH1 0x24 DUP3 ADD MSTORE PUSH19 0x92DCECC2D8D2C840DCC2DACA40D8CADCCEE8D PUSH1 0x6B SHL PUSH1 0x44 DUP3 ADD MSTORE REVERT JUMPDEST PUSH1 0x20 SWAP2 POP GT ISZERO CODESIZE PUSH2 0x1EB4 JUMP JUMPDEST PUSH1 0x84 SWAP1 PUSH1 0x20 PUSH1 0x40 MLOAD SWAP2 PUSH3 0x461BCD PUSH1 0xE5 SHL DUP4 MSTORE DUP3 ADD MSTORE PUSH1 0x21 PUSH1 0x24 DUP3 ADD MSTORE PUSH32 0x496E73756666696369656E74207061796D656E7420666F722072656E616D696E PUSH1 0x44 DUP3 ADD MSTORE PUSH1 0x67 PUSH1 0xF8 SHL PUSH1 0x64 DUP3 ADD MSTORE REVERT JUMPDEST CALLVALUE PUSH2 0x2C9 JUMPI PUSH1 0x20 CALLDATASIZE PUSH1 0x3 NOT ADD SLT PUSH2 0x2C9 JUMPI PUSH2 0x20E7 PUSH2 0x243B JUMP JUMPDEST PUSH2 0x20EF PUSH2 0x2738 JUMP JUMPDEST PUSH1 0xD DUP1 SLOAD PUSH1 0x1 PUSH1 0x1 PUSH1 0xA0 SHL SUB NOT AND PUSH1 0x1 PUSH1 0x1 PUSH1 0xA0 SHL SUB SWAP3 SWAP1 SWAP3 AND SWAP2 SWAP1 SWAP2 OR SWAP1 SSTORE STOP JUMPDEST POP CALLVALUE PUSH2 0x2C9 JUMPI PUSH1 0x40 CALLDATASIZE PUSH1 0x3 NOT ADD SLT PUSH2 0x2C9 JUMPI PUSH2 0x212B PUSH2 0x243B JUMP JUMPDEST PUSH1 0x24 CALLDATALOAD SWAP2 PUSH1 0x1 PUSH1 0x1 PUSH1 0xA0 SHL SUB SWAP1 DUP2 DUP1 PUSH2 0x2143 DUP7 PUSH2 0x2853 JUMP JUMPDEST AND SWAP4 AND SWAP3 DUP1 DUP5 EQ PUSH2 0x223D JUMPI DUP1 CALLER EQ SWAP1 DUP2 ISZERO PUSH2 0x2218 JUMPI JUMPDEST POP ISZERO PUSH2 0x21AE JUMPI DUP4 PUSH1 0x0 MSTORE PUSH1 0x20 MSTORE PUSH1 0x40 PUSH1 0x0 KECCAK256 DUP3 PUSH1 0x1 PUSH1 0x1 PUSH1 0x60 SHL SUB PUSH1 0xA0 SHL DUP3 SLOAD AND OR SWAP1 SSTORE PUSH2 0x2186 DUP4 PUSH2 0x2853 JUMP JUMPDEST AND PUSH32 0x8C5BE1E5EBEC7D5BD14F71427D1E84F3DD0314C0F7B2291E5B200AC8C7C3B925 PUSH1 0x0 DUP1 LOG4 STOP JUMPDEST PUSH1 0x84 SWAP1 PUSH1 0x20 PUSH1 0x40 MLOAD SWAP2 PUSH3 0x461BCD PUSH1 0xE5 SHL DUP4 MSTORE DUP3 ADD MSTORE PUSH1 0x3D PUSH1 0x24 DUP3 ADD MSTORE PUSH32 0x4552433732313A20617070726F76652063616C6C6572206973206E6F7420746F PUSH1 0x44 DUP3 ADD MSTORE PUSH32 0x6B656E206F776E6572206F7220617070726F76656420666F7220616C6C000000 PUSH1 0x64 DUP3 ADD MSTORE REVERT JUMPDEST SWAP1 POP PUSH1 0x0 MSTORE PUSH1 0x5 PUSH1 0x20 MSTORE PUSH1 0x40 PUSH1 0x0 KECCAK256 CALLER PUSH1 0x0 MSTORE PUSH1 0x20 MSTORE PUSH1 0xFF PUSH1 0x40 PUSH1 0x0 KECCAK256 SLOAD AND CODESIZE PUSH2 0x2159 JUMP JUMPDEST PUSH1 0x40 MLOAD PUSH3 0x461BCD PUSH1 0xE5 SHL DUP2 MSTORE PUSH1 0x20 DUP2 DUP5 ADD MSTORE PUSH1 0x21 PUSH1 0x24 DUP3 ADD MSTORE PUSH32 0x4552433732313A20617070726F76616C20746F2063757272656E74206F776E65 PUSH1 0x44 DUP3 ADD MSTORE PUSH1 0x39 PUSH1 0xF9 SHL PUSH1 0x64 DUP3 ADD MSTORE PUSH1 0x84 SWAP1 REVERT JUMPDEST POP CALLVALUE PUSH2 0x2C9 JUMPI PUSH1 0x20 CALLDATASIZE PUSH1 0x3 NOT ADD SLT PUSH2 0x2C9 JUMPI PUSH2 0x1646 PUSH1 0x20 SWAP2 CALLDATALOAD PUSH2 0x2879 JUMP JUMPDEST CALLVALUE PUSH2 0x2C9 JUMPI PUSH1 0x0 CALLDATASIZE PUSH1 0x3 NOT ADD SLT PUSH2 0x2C9 JUMPI PUSH1 0x40 MLOAD PUSH1 0x0 DUP1 SLOAD PUSH2 0x22CA DUP2 PUSH2 0x2598 JUMP JUMPDEST DUP1 DUP5 MSTORE SWAP1 PUSH1 0x1 SWAP1 DUP2 DUP2 AND SWAP1 DUP2 ISZERO PUSH2 0xFB8 JUMPI POP PUSH1 0x1 EQ PUSH2 0x22F3 JUMPI PUSH2 0x403 DUP5 PUSH2 0xF4B DUP2 DUP7 SUB DUP3 PUSH2 0x24EE JUMP JUMPDEST PUSH1 0x0 DUP1 DUP1 MSTORE SWAP3 POP PUSH32 0x290DECD9548B62A8D60345A988386FC84BA6BC95484008F6362F93160EF3E563 JUMPDEST DUP3 DUP5 LT PUSH2 0x2334 JUMPI POP POP POP DUP2 ADD PUSH1 0x20 ADD PUSH2 0xF4B DUP3 PUSH2 0xF3B JUMP JUMPDEST DUP1 SLOAD PUSH1 0x20 DUP6 DUP8 ADD DUP2 ADD SWAP2 SWAP1 SWAP2 MSTORE SWAP1 SWAP4 ADD SWAP3 DUP2 ADD PUSH2 0x231C JUMP JUMPDEST POP CALLVALUE PUSH2 0x2C9 JUMPI PUSH1 0x20 CALLDATASIZE PUSH1 0x3 NOT ADD SLT PUSH2 0x2C9 JUMPI CALLDATALOAD PUSH4 0xFFFFFFFF PUSH1 0xE0 SHL DUP2 AND DUP1 SWAP2 SUB PUSH2 0x2C9 JUMPI PUSH1 0x20 SWAP1 PUSH4 0x24832483 PUSH1 0xE1 SHL DUP2 EQ SWAP1 DUP2 ISZERO PUSH2 0x2390 JUMPI JUMPDEST POP PUSH1 0x40 MLOAD SWAP1 ISZERO ISZERO DUP2 MSTORE RETURN JUMPDEST PUSH4 0x80AC58CD PUSH1 0xE0 SHL DUP2 EQ SWAP2 POP DUP2 ISZERO PUSH2 0x23C2 JUMPI JUMPDEST DUP2 ISZERO PUSH2 0x23B1 JUMPI JUMPDEST POP CODESIZE PUSH2 0x2385 JUMP JUMPDEST PUSH4 0x1FFC9A7 PUSH1 0xE0 SHL EQ SWAP1 POP CODESIZE PUSH2 0x23AA JUMP JUMPDEST PUSH4 0x5B5E139F PUSH1 0xE0 SHL DUP2 EQ SWAP2 POP PUSH2 0x23A3 JUMP JUMPDEST CALLVALUE PUSH2 0x2C9 JUMPI PUSH1 0x0 CALLDATASIZE PUSH1 0x3 NOT ADD SLT PUSH2 0x2C9 JUMPI DUP1 PUSH7 0x11C37937E08000 PUSH1 0x20 SWAP3 MSTORE RETURN JUMPDEST PUSH1 0x0 JUMPDEST DUP4 DUP2 LT PUSH2 0x2406 JUMPI POP POP PUSH1 0x0 SWAP2 ADD MSTORE JUMP JUMPDEST DUP2 DUP2 ADD MLOAD DUP4 DUP3 ADD MSTORE PUSH1 0x20 ADD PUSH2 0x23F6 JUMP JUMPDEST SWAP1 PUSH1 0x20 SWAP2 PUSH2 0x242F DUP2 MLOAD DUP1 SWAP3 DUP2 DUP6 MSTORE DUP6 DUP1 DUP7 ADD SWAP2 ADD PUSH2 0x23F3 JUMP JUMPDEST PUSH1 0x1F ADD PUSH1 0x1F NOT AND ADD ADD SWAP1 JUMP JUMPDEST PUSH1 0x4 CALLDATALOAD SWAP1 PUSH1 0x1 PUSH1 0x1 PUSH1 0xA0 SHL SUB DUP3 AND DUP3 SUB PUSH2 0x2C9 JUMPI JUMP JUMPDEST PUSH1 0x24 CALLDATALOAD SWAP1 PUSH1 0x1 PUSH1 0x1 PUSH1 0xA0 SHL SUB DUP3 AND DUP3 SUB PUSH2 0x2C9 JUMPI JUMP JUMPDEST PUSH1 0x60 DUP2 ADD SWAP1 DUP2 LT PUSH8 0xFFFFFFFFFFFFFFFF DUP3 GT OR PUSH2 0x2483 JUMPI PUSH1 0x40 MSTORE JUMP JUMPDEST PUSH4 0x4E487B71 PUSH1 0xE0 SHL PUSH1 0x0 MSTORE PUSH1 0x41 PUSH1 0x4 MSTORE PUSH1 0x24 PUSH1 0x0 REVERT JUMPDEST PUSH2 0x1A0 DUP2 ADD SWAP1 DUP2 LT PUSH8 0xFFFFFFFFFFFFFFFF DUP3 GT OR PUSH2 0x2483 JUMPI PUSH1 0x40 MSTORE JUMP JUMPDEST PUSH1 0x40 DUP2 ADD SWAP1 DUP2 LT PUSH8 0xFFFFFFFFFFFFFFFF DUP3 GT OR PUSH2 0x2483 JUMPI PUSH1 0x40 MSTORE JUMP JUMPDEST PUSH1 0x20 DUP2 ADD SWAP1 DUP2 LT PUSH8 0xFFFFFFFFFFFFFFFF DUP3 GT OR PUSH2 0x2483 JUMPI PUSH1 0x40 MSTORE JUMP JUMPDEST SWAP1 PUSH1 0x1F DUP1 NOT SWAP2 ADD AND DUP2 ADD SWAP1 DUP2 LT PUSH8 0xFFFFFFFFFFFFFFFF DUP3 GT OR PUSH2 0x2483 JUMPI PUSH1 0x40 MSTORE JUMP JUMPDEST PUSH8 0xFFFFFFFFFFFFFFFF DUP2 GT PUSH2 0x2483 JUMPI PUSH1 0x1F ADD PUSH1 0x1F NOT AND PUSH1 0x20 ADD SWAP1 JUMP JUMPDEST SWAP3 SWAP2 SWAP3 PUSH2 0x2538 DUP3 PUSH2 0x2510 JUMP JUMPDEST SWAP2 PUSH2 0x2546 PUSH1 0x40 MLOAD SWAP4 DUP5 PUSH2 0x24EE JUMP JUMPDEST DUP3 SWAP5 DUP2 DUP5 MSTORE DUP2 DUP4 ADD GT PUSH2 0x2C9 JUMPI DUP3 DUP2 PUSH1 0x20 SWAP4 DUP5 PUSH1 0x0 SWAP7 ADD CALLDATACOPY ADD ADD MSTORE JUMP JUMPDEST PUSH1 0x60 SWAP1 PUSH1 0x3 NOT ADD SLT PUSH2 0x2C9 JUMPI PUSH1 0x1 PUSH1 0x1 PUSH1 0xA0 SHL SUB SWAP1 PUSH1 0x4 CALLDATALOAD DUP3 DUP2 AND DUP2 SUB PUSH2 0x2C9 JUMPI SWAP2 PUSH1 0x24 CALLDATALOAD SWAP1 DUP2 AND DUP2 SUB PUSH2 0x2C9 JUMPI SWAP1 PUSH1 0x44 CALLDATALOAD SWAP1 JUMP JUMPDEST SWAP1 PUSH1 0x1 DUP3 DUP2 SHR SWAP3 AND DUP1 ISZERO PUSH2 0x25C8 JUMPI JUMPDEST PUSH1 0x20 DUP4 LT EQ PUSH2 0x25B2 JUMPI JUMP JUMPDEST PUSH4 0x4E487B71 PUSH1 0xE0 SHL PUSH1 0x0 MSTORE PUSH1 0x22 PUSH1 0x4 MSTORE PUSH1 0x24 PUSH1 0x0 REVERT JUMPDEST SWAP2 PUSH1 0x7F AND SWAP2 PUSH2 0x25A7 JUMP JUMPDEST SWAP1 PUSH1 0x40 MLOAD SWAP2 DUP3 PUSH1 0x0 DUP3 SLOAD SWAP3 PUSH2 0x25E6 DUP5 PUSH2 0x2598 JUMP JUMPDEST SWAP1 DUP2 DUP5 MSTORE PUSH1 0x1 SWAP5 DUP6 DUP2 AND SWAP1 DUP2 PUSH1 0x0 EQ PUSH2 0x2655 JUMPI POP PUSH1 0x1 EQ PUSH2 0x2612 JUMPI JUMPDEST POP POP PUSH2 0x2610 SWAP3 POP SUB DUP4 PUSH2 0x24EE JUMP JUMPDEST JUMP JUMPDEST SWAP1 SWAP4 SWAP2 POP PUSH1 0x0 MSTORE PUSH1 0x20 SWAP1 DUP2 PUSH1 0x0 KECCAK256 SWAP4 PUSH1 0x0 SWAP2 JUMPDEST DUP2 DUP4 LT PUSH2 0x263D JUMPI POP POP PUSH2 0x2610 SWAP4 POP DUP3 ADD ADD CODESIZE DUP1 PUSH2 0x2602 JUMP JUMPDEST DUP6 SLOAD DUP9 DUP5 ADD DUP6 ADD MSTORE SWAP5 DUP6 ADD SWAP5 DUP8 SWAP5 POP SWAP2 DUP4 ADD SWAP2 PUSH2 0x2625 JUMP JUMPDEST SWAP2 POP POP PUSH2 0x2610 SWAP5 POP PUSH1 0x20 SWAP3 POP PUSH1 0xFF NOT AND DUP3 DUP5 ADD MSTORE ISZERO ISZERO PUSH1 0x5 SHL DUP3 ADD ADD CODESIZE DUP1 PUSH2 0x2602 JUMP JUMPDEST PUSH1 0x24 CALLDATALOAD SWAP1 DUP2 ISZERO ISZERO DUP3 SUB PUSH2 0x2C9 JUMPI JUMP JUMPDEST SWAP2 SWAP1 SWAP2 PUSH2 0x1A0 DUP2 ADD SWAP3 PUSH1 0xFF DUP1 DUP3 MLOAD AND DUP4 MSTORE DUP1 PUSH1 0x20 DUP4 ADD MLOAD AND PUSH1 0x20 DUP5 ADD MSTORE DUP1 PUSH1 0x40 DUP4 ADD MLOAD AND PUSH1 0x40 DUP5 ADD MSTORE DUP1 PUSH1 0x60 DUP4 ADD MLOAD AND PUSH1 0x60 DUP5 ADD MSTORE DUP1 PUSH1 0x80 DUP4 ADD MLOAD AND PUSH1 0x80 DUP5 ADD MSTORE DUP1 PUSH1 0xA0 DUP4 ADD MLOAD AND PUSH1 0xA0 DUP5 ADD MSTORE PUSH6 0xFFFFFFFFFFFF DUP1 PUSH1 0xC0 DUP5 ADD MLOAD AND PUSH1 0xC0 DUP6 ADD MSTORE PUSH1 0xE0 DUP4 ADD MLOAD AND PUSH1 0xE0 DUP5 ADD MSTORE PUSH4 0xFFFFFFFF PUSH2 0x100 DUP2 DUP2 DUP6 ADD MLOAD AND SWAP1 DUP6 ADD MSTORE PUSH2 0x120 DUP2 DUP2 DUP6 ADD MLOAD AND SWAP1 DUP6 ADD MSTORE PUSH2 0x140 SWAP1 DUP2 DUP5 ADD MLOAD AND SWAP1 DUP5 ADD MSTORE PUSH2 0x160 DUP1 DUP4 ADD MLOAD ISZERO ISZERO SWAP1 DUP5 ADD MSTORE PUSH2 0x180 DUP1 SWAP3 ADD MLOAD AND SWAP2 ADD MSTORE JUMP JUMPDEST PUSH1 0x7 SLOAD PUSH1 0x1 PUSH1 0x1 PUSH1 0xA0 SHL SUB AND CALLER SUB PUSH2 0x274C JUMPI JUMP JUMPDEST PUSH1 0x64 PUSH1 0x40 MLOAD PUSH3 0x461BCD PUSH1 0xE5 SHL DUP2 MSTORE PUSH1 0x20 PUSH1 0x4 DUP3 ADD MSTORE PUSH1 0x20 PUSH1 0x24 DUP3 ADD MSTORE PUSH32 0x4F776E61626C653A2063616C6C6572206973206E6F7420746865206F776E6572 PUSH1 0x44 DUP3 ADD MSTORE REVERT JUMPDEST PUSH1 0x1 PUSH1 0x1 PUSH1 0xA0 SHL SUB AND DUP1 ISZERO PUSH2 0x27B0 JUMPI PUSH1 0x0 MSTORE PUSH1 0x3 PUSH1 0x20 MSTORE PUSH1 0x40 PUSH1 0x0 KECCAK256 SLOAD SWAP1 JUMP JUMPDEST PUSH1 0x40 MLOAD PUSH3 0x461BCD PUSH1 0xE5 SHL DUP2 MSTORE PUSH1 0x20 PUSH1 0x4 DUP3 ADD MSTORE PUSH1 0x29 PUSH1 0x24 DUP3 ADD MSTORE PUSH32 0x4552433732313A2061646472657373207A65726F206973206E6F742061207661 PUSH1 0x44 DUP3 ADD MSTORE PUSH9 0x3634B21037BBB732B9 PUSH1 0xB9 SHL PUSH1 0x64 DUP3 ADD MSTORE PUSH1 0x84 SWAP1 REVERT JUMPDEST ISZERO PUSH2 0x280E JUMPI JUMP JUMPDEST PUSH1 0x40 MLOAD PUSH3 0x461BCD PUSH1 0xE5 SHL DUP2 MSTORE PUSH1 0x20 PUSH1 0x4 DUP3 ADD MSTORE PUSH1 0x18 PUSH1 0x24 DUP3 ADD MSTORE PUSH32 0x4552433732313A20696E76616C696420746F6B656E2049440000000000000000 PUSH1 0x44 DUP3 ADD MSTORE PUSH1 0x64 SWAP1 REVERT JUMPDEST PUSH1 0x0 SWAP1 DUP2 MSTORE PUSH1 0x2 PUSH1 0x20 MSTORE PUSH1 0x40 SWAP1 KECCAK256 SLOAD PUSH1 0x1 PUSH1 0x1 PUSH1 0xA0 SHL SUB AND PUSH2 0x2876 DUP2 ISZERO ISZERO PUSH2 0x2807 JUMP JUMPDEST SWAP1 JUMP JUMPDEST PUSH1 0x0 DUP2 DUP2 MSTORE PUSH1 0x2 PUSH1 0x20 MSTORE PUSH1 0x40 SWAP1 KECCAK256 SLOAD PUSH2 0x289C SWAP1 PUSH1 0x1 PUSH1 0x1 PUSH1 0xA0 SHL SUB AND ISZERO ISZERO PUSH2 0x2807 JUMP JUMPDEST PUSH1 0x0 SWAP1 DUP2 MSTORE PUSH1 0x4 PUSH1 0x20 MSTORE PUSH1 0x40 SWAP1 KECCAK256 SLOAD PUSH1 0x1 PUSH1 0x1 PUSH1 0xA0 SHL SUB AND SWAP1 JUMP JUMPDEST ISZERO PUSH2 0x28BE JUMPI JUMP JUMPDEST PUSH1 0x40 MLOAD PUSH3 0x461BCD PUSH1 0xE5 SHL DUP2 MSTORE PUSH1 0x20 PUSH1 0x4 DUP3 ADD MSTORE PUSH1 0x2D PUSH1 0x24 DUP3 ADD MSTORE PUSH32 0x4552433732313A2063616C6C6572206973206E6F7420746F6B656E206F776E65 PUSH1 0x44 DUP3 ADD MSTORE PUSH13 0x1C881BDC88185C1C1C9BDD9959 PUSH1 0x9A SHL PUSH1 0x64 DUP3 ADD MSTORE PUSH1 0x84 SWAP1 REVERT JUMPDEST PUSH1 0x80 SWAP1 PUSH1 0x20 DUP2 MSTORE PUSH1 0x32 PUSH1 0x20 DUP3 ADD MSTORE PUSH32 0x4552433732313A207472616E7366657220746F206E6F6E204552433732315265 PUSH1 0x40 DUP3 ADD MSTORE PUSH18 0x31B2B4BB32B91034B6B83632B6B2B73A32B9 PUSH1 0x71 SHL PUSH1 0x60 DUP3 ADD MSTORE ADD SWAP1 JUMP JUMPDEST ISZERO PUSH2 0x2973 JUMPI JUMP JUMPDEST PUSH1 0x40 MLOAD PUSH3 0x461BCD PUSH1 0xE5 SHL DUP2 MSTORE DUP1 PUSH2 0x298C PUSH1 0x4 DUP3 ADD PUSH2 0x2919 JUMP JUMPDEST SUB SWAP1 REVERT JUMPDEST SWAP1 PUSH1 0x1 PUSH1 0x1 PUSH1 0xA0 SHL SUB DUP1 DUP1 PUSH2 0x29A4 DUP5 PUSH2 0x2853 JUMP JUMPDEST AND SWAP4 AND SWAP2 DUP4 DUP4 EQ SWAP4 DUP5 ISZERO PUSH2 0x29D7 JUMPI JUMPDEST POP DUP4 ISZERO PUSH2 0x29C1 JUMPI JUMPDEST POP POP POP SWAP1 JUMP JUMPDEST PUSH2 0x29CD SWAP2 SWAP3 SWAP4 POP PUSH2 0x2879 JUMP JUMPDEST AND EQ CODESIZE DUP1 DUP1 PUSH2 0x29BB JUMP JUMPDEST SWAP1 SWAP4 POP PUSH1 0x0 MSTORE PUSH1 0x5 PUSH1 0x20 MSTORE PUSH1 0x40 PUSH1 0x0 KECCAK256 DUP3 PUSH1 0x0 MSTORE PUSH1 0x20 MSTORE PUSH1 0xFF PUSH1 0x40 PUSH1 0x0 KECCAK256 SLOAD AND SWAP3 CODESIZE PUSH2 0x29B3 JUMP JUMPDEST ISZERO PUSH2 0x2A05 JUMPI JUMP JUMPDEST PUSH1 0x40 MLOAD PUSH3 0x461BCD PUSH1 0xE5 SHL DUP2 MSTORE PUSH1 0x20 PUSH1 0x4 DUP3 ADD MSTORE PUSH1 0x25 PUSH1 0x24 DUP3 ADD MSTORE PUSH32 0x4552433732313A207472616E736665722066726F6D20696E636F727265637420 PUSH1 0x44 DUP3 ADD MSTORE PUSH5 0x37BBB732B9 PUSH1 0xD9 SHL PUSH1 0x64 DUP3 ADD MSTORE PUSH1 0x84 SWAP1 REVERT JUMPDEST SWAP1 PUSH2 0x2A80 SWAP2 PUSH2 0x2A66 DUP5 PUSH2 0x2853 JUMP JUMPDEST PUSH1 0x1 PUSH1 0x1 PUSH1 0xA0 SHL SUB SWAP4 SWAP2 DUP5 AND SWAP3 DUP5 SWAP3 SWAP1 SWAP2 DUP4 AND DUP5 EQ PUSH2 0x29FE JUMP JUMPDEST AND SWAP2 DUP3 ISZERO PUSH2 0x2B18 JUMPI DUP2 PUSH2 0x2A9D SWAP2 PUSH2 0x2A96 DUP7 PUSH2 0x2853 JUMP JUMPDEST AND EQ PUSH2 0x29FE JUMP JUMPDEST PUSH32 0xDDF252AD1BE2C89B69C2B068FC378DAA952BA7F163C4A11628F55A4DF523B3EF PUSH1 0x0 DUP5 DUP2 MSTORE PUSH1 0x4 PUSH1 0x20 MSTORE PUSH1 0x40 DUP2 KECCAK256 PUSH1 0x1 PUSH1 0x1 PUSH1 0x60 SHL SUB PUSH1 0xA0 SHL SWAP1 DUP2 DUP2 SLOAD AND SWAP1 SSTORE DUP4 DUP3 MSTORE PUSH1 0x3 PUSH1 0x20 MSTORE PUSH1 0x40 DUP3 KECCAK256 PUSH1 0x0 NOT DUP2 SLOAD ADD SWAP1 SSTORE DUP5 DUP3 MSTORE PUSH1 0x40 DUP3 KECCAK256 PUSH1 0x1 DUP2 SLOAD ADD SWAP1 SSTORE DUP6 DUP3 MSTORE PUSH1 0x2 PUSH1 0x20 MSTORE DUP5 PUSH1 0x40 DUP4 KECCAK256 SWAP2 DUP3 SLOAD AND OR SWAP1 SSTORE DUP1 LOG4 JUMP JUMPDEST PUSH1 0x40 MLOAD PUSH3 0x461BCD PUSH1 0xE5 SHL DUP2 MSTORE PUSH1 0x20 PUSH1 0x4 DUP3 ADD MSTORE PUSH1 0x24 DUP1 DUP3 ADD MSTORE PUSH32 0x4552433732313A207472616E7366657220746F20746865207A65726F20616464 PUSH1 0x44 DUP3 ADD MSTORE PUSH4 0x72657373 PUSH1 0xE0 SHL PUSH1 0x64 DUP3 ADD MSTORE PUSH1 0x84 SWAP1 REVERT JUMPDEST RETURNDATASIZE ISZERO PUSH2 0x2B94 JUMPI RETURNDATASIZE SWAP1 PUSH2 0x2B7A DUP3 PUSH2 0x2510 JUMP JUMPDEST SWAP2 PUSH2 0x2B88 PUSH1 0x40 MLOAD SWAP4 DUP5 PUSH2 0x24EE JUMP JUMPDEST DUP3 MSTORE RETURNDATASIZE PUSH1 0x0 PUSH1 0x20 DUP5 ADD RETURNDATACOPY JUMP JUMPDEST PUSH1 0x60 SWAP1 JUMP JUMPDEST SWAP1 SWAP2 SWAP1 DUP1 EXTCODESIZE ISZERO PUSH2 0x2C89 JUMPI PUSH1 0x20 PUSH1 0x40 MLOAD DUP1 SWAP3 DUP2 PUSH4 0xA85BD01 PUSH1 0xE1 SHL SWAP7 DUP8 DUP3 MSTORE CALLER PUSH1 0x4 DUP4 ADD MSTORE DUP2 PUSH2 0x2BE2 PUSH1 0x0 SWAP9 DUP10 SWAP4 DUP5 PUSH1 0x24 DUP6 ADD MSTORE PUSH1 0x44 DUP5 ADD MSTORE PUSH1 0x80 PUSH1 0x64 DUP5 ADD MSTORE PUSH1 0x84 DUP4 ADD SWAP1 PUSH2 0x2416 JUMP JUMPDEST SUB SWAP3 PUSH1 0x1 PUSH1 0x1 PUSH1 0xA0 SHL SUB AND GAS CALL SWAP1 DUP3 SWAP1 DUP3 PUSH2 0x2C3A JUMPI JUMPDEST POP POP PUSH2 0x2C2C JUMPI PUSH2 0x2C06 PUSH2 0x2B69 JUMP JUMPDEST DUP1 MLOAD SWAP1 DUP2 PUSH2 0x2C27 JUMPI PUSH1 0x40 MLOAD PUSH3 0x461BCD PUSH1 0xE5 SHL DUP2 MSTORE DUP1 PUSH2 0x298C PUSH1 0x4 DUP3 ADD PUSH2 0x2919 JUMP JUMPDEST PUSH1 0x20 ADD REVERT JUMPDEST PUSH1 0x1 PUSH1 0x1 PUSH1 0xE0 SHL SUB NOT AND EQ SWAP1 JUMP JUMPDEST SWAP1 SWAP2 SWAP3 POP PUSH1 0x20 DUP2 RETURNDATASIZE DUP3 GT PUSH2 0x2C81 JUMPI JUMPDEST DUP2 PUSH2 0x2C56 PUSH1 0x20 SWAP4 DUP4 PUSH2 0x24EE JUMP JUMPDEST DUP2 ADD SUB SLT PUSH2 0x2C7D JUMPI MLOAD SWAP1 PUSH1 0x1 PUSH1 0x1 PUSH1 0xE0 SHL SUB NOT DUP3 AND DUP3 SUB PUSH2 0x2C7A JUMPI POP SWAP1 CODESIZE DUP1 PUSH2 0x2BF8 JUMP JUMPDEST DUP1 REVERT JUMPDEST POP DUP1 REVERT JUMPDEST RETURNDATASIZE SWAP2 POP PUSH2 0x2C49 JUMP JUMPDEST POP POP POP PUSH1 0x1 SWAP1 JUMP JUMPDEST SWAP2 SWAP3 SWAP1 DUP1 EXTCODESIZE ISZERO PUSH2 0x2D06 JUMPI PUSH1 0x40 MLOAD PUSH4 0xA85BD01 PUSH1 0xE1 SHL DUP1 DUP3 MSTORE CALLER PUSH1 0x4 DUP4 ADD MSTORE PUSH1 0x1 PUSH1 0x1 PUSH1 0xA0 SHL SUB SWAP5 DUP6 AND PUSH1 0x24 DUP4 ADD MSTORE PUSH1 0x44 DUP3 ADD SWAP6 SWAP1 SWAP6 MSTORE PUSH1 0x80 PUSH1 0x64 DUP3 ADD MSTORE SWAP2 PUSH1 0x20 SWAP2 DUP4 SWAP2 DUP3 SWAP1 DUP2 SWAP1 PUSH2 0x2CE6 SWAP1 PUSH1 0x84 DUP4 ADD SWAP1 PUSH2 0x2416 JUMP JUMPDEST SUB SWAP2 PUSH1 0x0 SWAP7 DUP8 SWAP2 AND GAS CALL SWAP1 DUP3 SWAP1 DUP3 PUSH2 0x2C3A JUMPI POP POP PUSH2 0x2C2C JUMPI PUSH2 0x2C06 PUSH2 0x2B69 JUMP JUMPDEST POP POP POP POP PUSH1 0x1 SWAP1 JUMP JUMPDEST ISZERO PUSH2 0x2D16 JUMPI JUMP JUMPDEST PUSH1 0x40 MLOAD PUSH3 0x461BCD PUSH1 0xE5 SHL DUP2 MSTORE PUSH1 0x20 PUSH1 0x4 DUP3 ADD MSTORE PUSH1 0x14 PUSH1 0x24 DUP3 ADD MSTORE PUSH20 0x125B9CDD59999A58DA595B9D081C185E5B595B9D PUSH1 0x62 SHL PUSH1 0x44 DUP3 ADD MSTORE PUSH1 0x64 SWAP1 REVERT JUMPDEST ISZERO PUSH2 0x2D59 JUMPI JUMP JUMPDEST PUSH1 0x40 MLOAD PUSH3 0x461BCD PUSH1 0xE5 SHL DUP2 MSTORE PUSH1 0x20 PUSH1 0x4 DUP3 ADD MSTORE PUSH1 0x12 PUSH1 0x24 DUP3 ADD MSTORE PUSH18 0x13585E081CDD5C1C1B1E481C995858DA1959 PUSH1 0x72 SHL PUSH1 0x44 DUP3 ADD MSTORE PUSH1 0x64 SWAP1 REVERT JUMPDEST SWAP2 SWAP1 DUP3 ADD DUP1 SWAP3 GT PUSH2 0x2DA0 JUMPI JUMP JUMPDEST PUSH4 0x4E487B71 PUSH1 0xE0 SHL PUSH1 0x0 MSTORE PUSH1 0x11 PUSH1 0x4 MSTORE PUSH1 0x24 PUSH1 0x0 REVERT JUMPDEST PUSH1 0x2 PUSH1 0x8 SLOAD EQ PUSH2 0x2DC7 JUMPI PUSH1 0x2 PUSH1 0x8 SSTORE JUMP JUMPDEST PUSH1 0x40 MLOAD PUSH3 0x461BCD PUSH1 0xE5 SHL DUP2 MSTORE PUSH1 0x20 PUSH1 0x4 DUP3 ADD MSTORE PUSH1 0x1F PUSH1 0x24 DUP3 ADD MSTORE PUSH32 0x5265656E7472616E637947756172643A207265656E7472616E742063616C6C00 PUSH1 0x44 DUP3 ADD MSTORE PUSH1 0x64 SWAP1 REVERT JUMPDEST PUSH1 0x40 MLOAD PUSH2 0x2E18 DUP2 PUSH2 0x24D2 JUMP JUMPDEST PUSH1 0x0 DUP1 DUP3 MSTORE SWAP3 PUSH1 0x1 PUSH1 0x1 PUSH1 0xA0 SHL SUB DUP4 AND SWAP3 DUP4 ISZERO PUSH2 0x2EDD JUMPI DUP2 PUSH2 0x712 SWAP5 PUSH2 0x2610 SWAP7 PUSH2 0x2E60 PUSH2 0x2E5A DUP5 PUSH1 0x0 MSTORE PUSH1 0x2 PUSH1 0x20 MSTORE PUSH1 0x1 DUP1 PUSH1 0xA0 SHL SUB PUSH1 0x40 PUSH1 0x0 KECCAK256 SLOAD AND ISZERO ISZERO SWAP1 JUMP JUMPDEST ISZERO PUSH2 0x2F21 JUMP JUMPDEST PUSH1 0x0 DUP4 DUP2 MSTORE PUSH1 0x2 PUSH1 0x20 MSTORE PUSH1 0x40 SWAP1 KECCAK256 SLOAD PUSH2 0x2E83 SWAP1 PUSH1 0x1 PUSH1 0x1 PUSH1 0xA0 SHL SUB AND ISZERO ISZERO PUSH2 0x2E5A JUMP JUMPDEST DUP2 DUP2 MSTORE PUSH1 0x3 PUSH1 0x20 MSTORE PUSH1 0x40 DUP2 KECCAK256 PUSH1 0x1 DUP2 SLOAD ADD SWAP1 SSTORE DUP3 DUP2 MSTORE PUSH1 0x2 PUSH1 0x20 MSTORE PUSH1 0x40 DUP2 KECCAK256 DUP3 PUSH1 0x1 PUSH1 0x1 PUSH1 0x60 SHL SUB PUSH1 0xA0 SHL DUP3 SLOAD AND OR SWAP1 SSTORE PUSH32 0xDDF252AD1BE2C89B69C2B068FC378DAA952BA7F163C4A11628F55A4DF523B3EF DUP2 DUP1 LOG4 PUSH2 0x2B99 JUMP JUMPDEST PUSH1 0x64 PUSH1 0x40 MLOAD PUSH3 0x461BCD PUSH1 0xE5 SHL DUP2 MSTORE PUSH1 0x20 PUSH1 0x4 DUP3 ADD MSTORE PUSH1 0x20 PUSH1 0x24 DUP3 ADD MSTORE PUSH32 0x4552433732313A206D696E7420746F20746865207A65726F2061646472657373 PUSH1 0x44 DUP3 ADD MSTORE REVERT JUMPDEST ISZERO PUSH2 0x2F28 JUMPI JUMP JUMPDEST PUSH1 0x40 MLOAD PUSH3 0x461BCD PUSH1 0xE5 SHL DUP2 MSTORE PUSH1 0x20 PUSH1 0x4 DUP3 ADD MSTORE PUSH1 0x1C PUSH1 0x24 DUP3 ADD MSTORE PUSH32 0x4552433732313A20746F6B656E20616C7265616479206D696E74656400000000 PUSH1 0x44 DUP3 ADD MSTORE PUSH1 0x64 SWAP1 REVERT JUMPDEST ISZERO PUSH2 0x2F74 JUMPI JUMP JUMPDEST PUSH1 0x40 MLOAD PUSH3 0x461BCD PUSH1 0xE5 SHL DUP2 MSTORE PUSH1 0x20 PUSH1 0x4 DUP3 ADD MSTORE PUSH1 0xD PUSH1 0x24 DUP3 ADD MSTORE PUSH13 0x2737BA103A34329037BBB732B9 PUSH1 0x99 SHL PUSH1 0x44 DUP3 ADD MSTORE PUSH1 0x64 SWAP1 REVERT JUMPDEST SWAP2 SWAP1 DUP3 SUB SWAP2 DUP3 GT PUSH2 0x2DA0 JUMPI JUMP JUMPDEST ISZERO PUSH2 0x2FBD JUMPI JUMP JUMPDEST PUSH1 0x40 MLOAD PUSH3 0x461BCD PUSH1 0xE5 SHL DUP2 MSTORE PUSH1 0x20 PUSH1 0x4 DUP3 ADD MSTORE PUSH1 0xE PUSH1 0x24 DUP3 ADD MSTORE PUSH14 0x139BDD08185D5D1A1BDC9A5E9959 PUSH1 0x92 SHL PUSH1 0x44 DUP3 ADD MSTORE PUSH1 0x64 SWAP1 REVERT JUMPDEST PUSH4 0xFFFFFFFF DUP1 SWAP2 AND SWAP1 DUP2 EQ PUSH2 0x2DA0 JUMPI PUSH1 0x1 ADD SWAP1 JUMP JUMPDEST PUSH8 0xFFFFFFFFFFFFFFFF DUP2 GT PUSH2 0x2483 JUMPI PUSH1 0x5 SHL PUSH1 0x20 ADD SWAP1 JUMP JUMPDEST PUSH1 0x0 NOT DUP2 EQ PUSH2 0x2DA0 JUMPI PUSH1 0x1 ADD SWAP1 JUMP JUMPDEST SWAP1 PUSH2 0x307A PUSH1 0x94 PUSH1 0x40 MLOAD DUP1 SWAP4 PUSH1 0x20 DUP3 ADD SWAP6 TIMESTAMP DUP8 MSTORE PREVRANDAO PUSH1 0x40 DUP5 ADD MSTORE PUSH1 0x60 DUP4 ADD MSTORE PUSH2 0x3061 DUP2 MLOAD DUP1 SWAP3 PUSH1 0x20 PUSH1 0x80 DUP7 ADD SWAP2 ADD PUSH2 0x23F3 JUMP JUMPDEST DUP2 ADD CALLER PUSH1 0x60 SHL PUSH1 0x80 DUP3 ADD MSTORE SUB PUSH1 0x74 DUP2 ADD DUP5 MSTORE ADD DUP3 PUSH2 0x24EE JUMP JUMPDEST MLOAD SWAP1 KECCAK256 SWAP1 JUMP INVALID LOG2 PUSH5 0x6970667358 0x22 SLT KECCAK256 SWAP10 0xD7 0x2B SWAP3 SWAP15 0xE6 PUSH3 0x761DD2 0xC3 ADDRESS DUP8 KECCAK256 EQ 0xD6 0xDD PUSH19 0xD7BB1E238AD8090C59E1CB1290664736F6C63 NUMBER STOP ADDMOD EQ STOP CALLER "},"methodIdentifiers":{"MARKETPLACE_FEE()":"9c103c61","MAX_SUPPLY()":"32cb6b0c","MAX_TRAINING_LEVEL()":"b795945b","MINT_PRICE()":"c002d23d","RENAME_PRICE()":"d773154f","TRAIN_PRICE()":"0139c414","approve(address,uint256)":"095ea7b3","balanceOf(address)":"70a08231","battleContract()":"423b1ca3","breedingContract()":"836e3375","buyHen(uint256)":"7bba64af","delistHen(uint256)":"50c7d5a0","getApproved(uint256)":"081812fc","getHenPower(uint256)":"afa2cf03","getHenTraits(uint256)":"a6345141","getHensByOwner(address)":"70e6e99a","henNames(uint256)":"4ac18640","henTraits(uint256)":"1733cdc8","isApprovedForAll(address,address)":"e985e9c5","listHen(uint256,uint256)":"bcaf673f","listings(uint256)":"de74e57b","mintHen()":"9c903ff0","mintOffspring(address,uint8,uint8,uint8,uint8,uint8,uint8)":"7deb0bf1","name()":"06fdde03","owner()":"8da5cb5b","ownerOf(uint256)":"6352211e","racingContract()":"89d796e4","renameHen(uint256,string)":"11712cc3","renounceOwnership()":"715018a6","safeTransferFrom(address,address,uint256)":"42842e0e","safeTransferFrom(address,address,uint256,bytes)":"b88d4fde","setApprovalForAll(address,bool)":"a22cb465","setBattleContract(address)":"0db6dff7","setBreedingContract(address)":"8c5527cf","setRacingContract(address)":"4b978505","supportsInterface(bytes4)":"01ffc9a7","symbol()":"95d89b41","tokenURI(uint256)":"c87b56dd","trainHen(uint256)":"19dd0cd8","transferFrom(address,address,uint256)":"23b872dd","transferOwnership(address)":"f2fde38b","updateBattleStats(uint256,bool)":"c62e0435","updateRaceStats(uint256)":"20960c46","withdraw()":"3ccfd60b"}}}}}