{"contracts/UserRegistry.sol":{"UserRegistry":{"abi":[{"inputs":[],"stateMutability":"nonpayable","type":"constructor"},{"anonymous":false,"inputs":[{"indexed":true,"internalType":"address","name":"previousOwner","type":"address"},{"indexed":true,"internalType":"address","name":"newOwner","type":"address"}],"name":"OwnershipTransferred","type":"event"},{"anonymous":false,"inputs":[{"indexed":true,"internalType":"address","name":"user","type":"address"}],"name":"RegistrationRevoked","type":"event"},{"anonymous":false,"inputs":[{"indexed":true,"internalType":"address","name":"user","type":"address"},{"indexed":false,"internalType":"string","name":"email","type":"string"},{"indexed":false,"internalType":"uint256","name":"timestamp","type":"uint256"}],"name":"UserRegistered","type":"event"},{"inputs":[],"name":"MAX_FREE_HENS","outputs":[{"internalType":"uint256","name":"","type":"uint256"}],"stateMutability":"view","type":"function"},{"inputs":[{"internalType":"address[]","name":"addresses","type":"address[]"}],"name":"areRegistered","outputs":[{"internalType":"bool[]","name":"","type":"bool[]"}],"stateMutability":"view","type":"function"},{"inputs":[{"internalType":"string","name":"","type":"string"}],"name":"emailUsed","outputs":[{"internalType":"bool","name":"","type":"bool"}],"stateMutability":"view","type":"function"},{"inputs":[{"internalType":"address","name":"user","type":"address"}],"name":"getUserInfo","outputs":[{"components":[{"internalType":"bool","name":"isRegistered","type":"bool"},{"internalType":"uint256","name":"registrationTime","type":"uint256"},{"internalType":"uint256","name":"hensReceived","type":"uint256"},{"internalType":"string","name":"email","type":"string"}],"internalType":"struct UserRegistry.UserInfo","name":"","type":"tuple"}],"stateMutability":"view","type":"function"},{"inputs":[{"internalType":"address","name":"user","type":"address"}],"name":"isRegistered","outputs":[{"internalType":"bool","name":"","type":"bool"}],"stateMutability":"view","type":"function"},{"inputs":[],"name":"owner","outputs":[{"internalType":"address","name":"","type":"address"}],"stateMutability":"view","type":"function"},{"inputs":[{"internalType":"address","name":"user","type":"address"},{"internalType":"string","name":"email","type":"string"}],"name":"registerUser","outputs":[],"stateMutability":"nonpayable","type":"function"},{"inputs":[],"name":"renounceOwnership","outputs":[],"stateMutability":"nonpayable","type":"function"},{"inputs":[{"internalType":"address","name":"user","type":"address"}],"name":"revokeRegistration","outputs":[],"stateMutability":"nonpayable","type":"function"},{"inputs":[],"name":"totalRegistrations","outputs":[{"internalType":"uint256","name":"","type":"uint256"}],"stateMutability":"view","type":"function"},{"inputs":[{"internalType":"address","name":"newOwner","type":"address"}],"name":"transferOwnership","outputs":[],"stateMutability":"nonpayable","type":"function"},{"inputs":[{"internalType":"address","name":"","type":"address"}],"name":"users","outputs":[{"internalType":"bool","name":"isRegistered","type":"bool"},{"internalType":"uint256","name":"registrationTime","type":"uint256"},{"internalType":"uint256","name":"hensReceived","type":"uint256"},{"internalType":"string","name":"email","type":"string"}],"stateMutability":"view","type":"function"}],"evm":{"bytecode":{"linkReferences":{},"object":"6080806040523461005b5760008054336001600160a01b0319821681178355916001600160a01b03909116907f8be0079c531659141344cd1fd0a4f28419497f9722a3daafe3b4186f6b6457e09080a3610d8390816100618239f35b600080fdfe6040608081526004908136101561001557600080fd5b600091823560e01c9081630397c4521461093c5781630ea126f9146105fb5781636386c1c71461053e578163715018a6146104e45781638da5cb5b146104bc57816394652f7514610457578163a87430ba146103e0578163af6ee860146101e8578163c3c5a547146101aa578163f2fde38b146100e357508063f4f62b6d146100c55763f797f04b146100a757600080fd5b346100c157816003193601126100c1576020905160028152f35b5080fd5b50346100c157816003193601126100c1576020906003549051908152f35b9050346101a65760203660031901126101a6576100fe610af5565b90610107610c8f565b6001600160a01b0391821692831561015457505082546001600160a01b0319811683178455167f8be0079c531659141344cd1fd0a4f28419497f9722a3daafe3b4186f6b6457e08380a380f35b906020608492519162461bcd60e51b8352820152602660248201527f4f776e61626c653a206e6577206f776e657220697320746865207a65726f206160448201526564647265737360d01b6064820152fd5b8280fd5b5050346100c15760203660031901126100c15760209160ff9082906001600160a01b036101d5610af5565b1681526001855220541690519015158152f35b9050346101a6576020806003193601126103dc57610204610af5565b61020c610c8f565b6001600160a01b03168085526001808352848620549194909160ff16156103a4579085929185845281835261024660038286200154610baf565b61030a575b6003908685528284528420848155848382015584600282015501906102708254610baf565b90816102c8575b50505050506003549081156102b55750600019016003557f81e159a3d6ec45abad37cc2ff82db3a9fea6021d1413ad4fcc34ed8c247e7e208280a280f35b634e487b7160e01b845260119052602483fd5b8490601f83116001146102e6575050509050555b8238808080610277565b601f849395839561030394528520950160051c8501908501610ce7565b55556102dc565b858452818352600381852001815190859080549061032782610baf565b9187878216918260001461038a575050600114610359575b50506002815281900384019020805460ff1916905561024b565b909150865284862086905b8282106103765750508101848261033f565b8054848301528a9750908601908501610364565b60ff191686528315159093028501935084915061033f9050565b5162461bcd60e51b81528084018390526013602482015272155cd95c881b9bdd081c9959da5cdd195c9959606a1b6044820152606490fd5b8380fd5b5050346100c15760203660031901126100c1579081906001600160a01b03610406610af5565b1681526001602052209061045360ff83541691600184015493610430600360028301549201610be9565b918051958695151586526020860152840152608060608401526080830190610b8a565b0390f35b8284346104b95760203660031901126104b95782359067ffffffffffffffff82116104b957506104a46020610492819560ff94369101610b10565b81855193828580945193849201610b67565b81016002815203019020541690519015158152f35b80fd5b5050346100c157816003193601126100c157905490516001600160a01b039091168152602090f35b83346104b957806003193601126104b9576104fd610c8f565b80546001600160a01b03198116825581906001600160a01b03167f8be0079c531659141344cd1fd0a4f28419497f9722a3daafe3b4186f6b6457e08280a380f35b5050346100c157602091826003193601126104b9578161045391610560610af5565b606080845161056e81610a89565b84815288810185905285810185905201526001600160a01b0316815260018552208251929061059c84610a89565b60ff815416151584526001810154918585019283526105c8600360028401549383880194855201610be9565b926060860193845281519687968188525115159087015251908501525160608401525160808084015260a0830190610b8a565b8383346100c157806003193601126100c157610615610af5565b67ffffffffffffffff91602435838111610938576106369036908701610b10565b9161063f610c8f565b6001600160a01b031680855260016020818152838720549295909260ff166108f55785156108bb5784518061082f575b5083519161067c83610a89565b8083526003848401934285528681016002815260608201958987528a8c52848852888c209251151560ff80198554169116178355518483015551600282015501925198895192831161081c57506106d38354610baf565b601f81116107e3575b508398601f8311600114610763578291899a83927f89105a1c6a3c2fbd471255c66a31ccab604af5697f67d7e2e9a0028c5e4dbd919a9b94610758575b50501b916000199060031b1c19161790555b610736600354610cfe565b60035561074c8251938385948552840190610b8a565b9042908301520390a280f35b015192508b80610719565b601f92919219821699848a52858a20918a5b8c81106107ce5750837f89105a1c6a3c2fbd471255c66a31ccab604af5697f67d7e2e9a0028c5e4dbd919a9b9c106107b5575b505050811b01905561072b565b015160001960f88460031b161c191690558980806107a8565b81830151845592850192918701918701610775565b61080c90848a52858a20601f850160051c810191878610610812575b601f0160051c0190610ce7565b896106dc565b90915081906107ff565b634e487b7160e01b895260419052602488fd5b60ff85518581818a0194610844818388610b67565b8101600281520301902054166108835783610869918651809381928a51928391610b67565b810160028152030190208260ff198254161790558861066f565b845162461bcd60e51b8152808a018590526012602482015271115b585a5b08185b1c9958591e481d5cd95960721b6044820152606490fd5b835162461bcd60e51b81528089018490526014602482015273496e76616c69642075736572206164647265737360601b6044820152606490fd5b835162461bcd60e51b8152808901849052601760248201527f5573657220616c726561647920726567697374657265640000000000000000006044820152606490fd5b8480fd5b905082346104b957602090816003193601126104b95782359267ffffffffffffffff84116100c157366023850112156100c1578301359261097c84610add565b9361098986519586610abb565b80855260248486019160051b830101913683116103dc57602401905b828210610a6a575050508251916109d36109be84610add565b936109cb87519586610abb565b808552610add565b8382019490601f1901368637825b8151811015610a2857610a23906001600160a01b03610a008285610d23565b511685526001845260ff8886205416610a198288610d23565b9015159052610cfe565b6109e1565b505093929183519485948186019282875251809352850193925b828110610a5157505050500390f35b8351151585528695509381019392810192600101610a42565b81356001600160a01b03811681036109385781529084019084016109a5565b6080810190811067ffffffffffffffff821117610aa557604052565b634e487b7160e01b600052604160045260246000fd5b90601f8019910116810190811067ffffffffffffffff821117610aa557604052565b67ffffffffffffffff8111610aa55760051b60200190565b600435906001600160a01b0382168203610b0b57565b600080fd5b81601f82011215610b0b5780359067ffffffffffffffff8211610aa55760405192610b45601f8401601f191660200185610abb565b82845260208383010111610b0b57816000926020809301838601378301015290565b60005b838110610b7a5750506000910152565b8181015183820152602001610b6a565b90602091610ba381518092818552858086019101610b67565b601f01601f1916010190565b90600182811c92168015610bdf575b6020831014610bc957565b634e487b7160e01b600052602260045260246000fd5b91607f1691610bbe565b9060405191826000825492610bfd84610baf565b908184526001948581169081600014610c6c5750600114610c29575b5050610c2792500383610abb565b565b9093915060005260209081600020936000915b818310610c54575050610c2793508201013880610c19565b85548884018501529485019487945091830191610c3c565b915050610c2794506020925060ff191682840152151560051b8201013880610c19565b6000546001600160a01b03163303610ca357565b606460405162461bcd60e51b815260206004820152602060248201527f4f776e61626c653a2063616c6c6572206973206e6f7420746865206f776e65726044820152fd5b818110610cf2575050565b60008155600101610ce7565b6000198114610d0d5760010190565b634e487b7160e01b600052601160045260246000fd5b8051821015610d375760209160051b010190565b634e487b7160e01b600052603260045260246000fdfea2646970667358221220187c9693cc8bba1104e54abfa75f50abd0daf401f82c05a725d7118510ef923c64736f6c63430008140033","opcodes":"PUSH1 0x80 DUP1 PUSH1 0x40 MSTORE CALLVALUE PUSH2 0x5B JUMPI PUSH1 0x0 DUP1 SLOAD CALLER PUSH1 0x1 PUSH1 0x1 PUSH1 0xA0 SHL SUB NOT DUP3 AND DUP2 OR DUP4 SSTORE SWAP2 PUSH1 0x1 PUSH1 0x1 PUSH1 0xA0 SHL SUB SWAP1 SWAP2 AND SWAP1 PUSH32 0x8BE0079C531659141344CD1FD0A4F28419497F9722A3DAAFE3B4186F6B6457E0 SWAP1 DUP1 LOG3 PUSH2 0xD83 SWAP1 DUP2 PUSH2 0x61 DUP3 CODECOPY RETURN JUMPDEST PUSH1 0x0 DUP1 REVERT INVALID PUSH1 0x40 PUSH1 0x80 DUP2 MSTORE PUSH1 0x4 SWAP1 DUP2 CALLDATASIZE LT ISZERO PUSH2 0x15 JUMPI PUSH1 0x0 DUP1 REVERT JUMPDEST PUSH1 0x0 SWAP2 DUP3 CALLDATALOAD PUSH1 0xE0 SHR SWAP1 DUP2 PUSH4 0x397C452 EQ PUSH2 0x93C JUMPI DUP2 PUSH4 0xEA126F9 EQ PUSH2 0x5FB JUMPI DUP2 PUSH4 0x6386C1C7 EQ PUSH2 0x53E JUMPI DUP2 PUSH4 0x715018A6 EQ PUSH2 0x4E4 JUMPI DUP2 PUSH4 0x8DA5CB5B EQ PUSH2 0x4BC JUMPI DUP2 PUSH4 0x94652F75 EQ PUSH2 0x457 JUMPI DUP2 PUSH4 0xA87430BA EQ PUSH2 0x3E0 JUMPI DUP2 PUSH4 0xAF6EE860 EQ PUSH2 0x1E8 JUMPI DUP2 PUSH4 0xC3C5A547 EQ PUSH2 0x1AA JUMPI DUP2 PUSH4 0xF2FDE38B EQ PUSH2 0xE3 JUMPI POP DUP1 PUSH4 0xF4F62B6D EQ PUSH2 0xC5 JUMPI PUSH4 0xF797F04B EQ PUSH2 0xA7 JUMPI PUSH1 0x0 DUP1 REVERT JUMPDEST CALLVALUE PUSH2 0xC1 JUMPI DUP2 PUSH1 0x3 NOT CALLDATASIZE ADD SLT PUSH2 0xC1 JUMPI PUSH1 0x20 SWAP1 MLOAD PUSH1 0x2 DUP2 MSTORE RETURN JUMPDEST POP DUP1 REVERT JUMPDEST POP CALLVALUE PUSH2 0xC1 JUMPI DUP2 PUSH1 0x3 NOT CALLDATASIZE ADD SLT PUSH2 0xC1 JUMPI PUSH1 0x20 SWAP1 PUSH1 0x3 SLOAD SWAP1 MLOAD SWAP1 DUP2 MSTORE RETURN JUMPDEST SWAP1 POP CALLVALUE PUSH2 0x1A6 JUMPI PUSH1 0x20 CALLDATASIZE PUSH1 0x3 NOT ADD SLT PUSH2 0x1A6 JUMPI PUSH2 0xFE PUSH2 0xAF5 JUMP JUMPDEST SWAP1 PUSH2 0x107 PUSH2 0xC8F JUMP JUMPDEST PUSH1 0x1 PUSH1 0x1 PUSH1 0xA0 SHL SUB SWAP2 DUP3 AND SWAP3 DUP4 ISZERO PUSH2 0x154 JUMPI POP POP DUP3 SLOAD PUSH1 0x1 PUSH1 0x1 PUSH1 0xA0 SHL SUB NOT DUP2 AND DUP4 OR DUP5 SSTORE AND PUSH32 0x8BE0079C531659141344CD1FD0A4F28419497F9722A3DAAFE3B4186F6B6457E0 DUP4 DUP1 LOG3 DUP1 RETURN JUMPDEST SWAP1 PUSH1 0x20 PUSH1 0x84 SWAP3 MLOAD SWAP2 PUSH3 0x461BCD PUSH1 0xE5 SHL DUP4 MSTORE DUP3 ADD MSTORE PUSH1 0x26 PUSH1 0x24 DUP3 ADD MSTORE PUSH32 0x4F776E61626C653A206E6577206F776E657220697320746865207A65726F2061 PUSH1 0x44 DUP3 ADD MSTORE PUSH6 0x646472657373 PUSH1 0xD0 SHL PUSH1 0x64 DUP3 ADD MSTORE REVERT JUMPDEST DUP3 DUP1 REVERT JUMPDEST POP POP CALLVALUE PUSH2 0xC1 JUMPI PUSH1 0x20 CALLDATASIZE PUSH1 0x3 NOT ADD SLT PUSH2 0xC1 JUMPI PUSH1 0x20 SWAP2 PUSH1 0xFF SWAP1 DUP3 SWAP1 PUSH1 0x1 PUSH1 0x1 PUSH1 0xA0 SHL SUB PUSH2 0x1D5 PUSH2 0xAF5 JUMP JUMPDEST AND DUP2 MSTORE PUSH1 0x1 DUP6 MSTORE KECCAK256 SLOAD AND SWAP1 MLOAD SWAP1 ISZERO ISZERO DUP2 MSTORE RETURN JUMPDEST SWAP1 POP CALLVALUE PUSH2 0x1A6 JUMPI PUSH1 0x20 DUP1 PUSH1 0x3 NOT CALLDATASIZE ADD SLT PUSH2 0x3DC JUMPI PUSH2 0x204 PUSH2 0xAF5 JUMP JUMPDEST PUSH2 0x20C PUSH2 0xC8F JUMP JUMPDEST PUSH1 0x1 PUSH1 0x1 PUSH1 0xA0 SHL SUB AND DUP1 DUP6 MSTORE PUSH1 0x1 DUP1 DUP4 MSTORE DUP5 DUP7 KECCAK256 SLOAD SWAP2 SWAP5 SWAP1 SWAP2 PUSH1 0xFF AND ISZERO PUSH2 0x3A4 JUMPI SWAP1 DUP6 SWAP3 SWAP2 DUP6 DUP5 MSTORE DUP2 DUP4 MSTORE PUSH2 0x246 PUSH1 0x3 DUP3 DUP7 KECCAK256 ADD SLOAD PUSH2 0xBAF JUMP JUMPDEST PUSH2 0x30A JUMPI JUMPDEST PUSH1 0x3 SWAP1 DUP7 DUP6 MSTORE DUP3 DUP5 MSTORE DUP5 KECCAK256 DUP5 DUP2 SSTORE DUP5 DUP4 DUP3 ADD SSTORE DUP5 PUSH1 0x2 DUP3 ADD SSTORE ADD SWAP1 PUSH2 0x270 DUP3 SLOAD PUSH2 0xBAF JUMP JUMPDEST SWAP1 DUP2 PUSH2 0x2C8 JUMPI JUMPDEST POP POP POP POP POP PUSH1 0x3 SLOAD SWAP1 DUP2 ISZERO PUSH2 0x2B5 JUMPI POP PUSH1 0x0 NOT ADD PUSH1 0x3 SSTORE PUSH32 0x81E159A3D6EC45ABAD37CC2FF82DB3A9FEA6021D1413AD4FCC34ED8C247E7E20 DUP3 DUP1 LOG2 DUP1 RETURN JUMPDEST PUSH4 0x4E487B71 PUSH1 0xE0 SHL DUP5 MSTORE PUSH1 0x11 SWAP1 MSTORE PUSH1 0x24 DUP4 REVERT JUMPDEST DUP5 SWAP1 PUSH1 0x1F DUP4 GT PUSH1 0x1 EQ PUSH2 0x2E6 JUMPI POP POP POP SWAP1 POP SSTORE JUMPDEST DUP3 CODESIZE DUP1 DUP1 DUP1 PUSH2 0x277 JUMP JUMPDEST PUSH1 0x1F DUP5 SWAP4 SWAP6 DUP4 SWAP6 PUSH2 0x303 SWAP5 MSTORE DUP6 KECCAK256 SWAP6 ADD PUSH1 0x5 SHR DUP6 ADD SWAP1 DUP6 ADD PUSH2 0xCE7 JUMP JUMPDEST SSTORE SSTORE PUSH2 0x2DC JUMP JUMPDEST DUP6 DUP5 MSTORE DUP2 DUP4 MSTORE PUSH1 0x3 DUP2 DUP6 KECCAK256 ADD DUP2 MLOAD SWAP1 DUP6 SWAP1 DUP1 SLOAD SWAP1 PUSH2 0x327 DUP3 PUSH2 0xBAF JUMP JUMPDEST SWAP2 DUP8 DUP8 DUP3 AND SWAP2 DUP3 PUSH1 0x0 EQ PUSH2 0x38A JUMPI POP POP PUSH1 0x1 EQ PUSH2 0x359 JUMPI JUMPDEST POP POP PUSH1 0x2 DUP2 MSTORE DUP2 SWAP1 SUB DUP5 ADD SWAP1 KECCAK256 DUP1 SLOAD PUSH1 0xFF NOT AND SWAP1 SSTORE PUSH2 0x24B JUMP JUMPDEST SWAP1 SWAP2 POP DUP7 MSTORE DUP5 DUP7 KECCAK256 DUP7 SWAP1 JUMPDEST DUP3 DUP3 LT PUSH2 0x376 JUMPI POP POP DUP2 ADD DUP5 DUP3 PUSH2 0x33F JUMP JUMPDEST DUP1 SLOAD DUP5 DUP4 ADD MSTORE DUP11 SWAP8 POP SWAP1 DUP7 ADD SWAP1 DUP6 ADD PUSH2 0x364 JUMP JUMPDEST PUSH1 0xFF NOT AND DUP7 MSTORE DUP4 ISZERO ISZERO SWAP1 SWAP4 MUL DUP6 ADD SWAP4 POP DUP5 SWAP2 POP PUSH2 0x33F SWAP1 POP JUMP JUMPDEST MLOAD PUSH3 0x461BCD PUSH1 0xE5 SHL DUP2 MSTORE DUP1 DUP5 ADD DUP4 SWAP1 MSTORE PUSH1 0x13 PUSH1 0x24 DUP3 ADD MSTORE PUSH19 0x155CD95C881B9BDD081C9959DA5CDD195C9959 PUSH1 0x6A SHL PUSH1 0x44 DUP3 ADD MSTORE PUSH1 0x64 SWAP1 REVERT JUMPDEST DUP4 DUP1 REVERT JUMPDEST POP POP CALLVALUE PUSH2 0xC1 JUMPI PUSH1 0x20 CALLDATASIZE PUSH1 0x3 NOT ADD SLT PUSH2 0xC1 JUMPI SWAP1 DUP2 SWAP1 PUSH1 0x1 PUSH1 0x1 PUSH1 0xA0 SHL SUB PUSH2 0x406 PUSH2 0xAF5 JUMP JUMPDEST AND DUP2 MSTORE PUSH1 0x1 PUSH1 0x20 MSTORE KECCAK256 SWAP1 PUSH2 0x453 PUSH1 0xFF DUP4 SLOAD AND SWAP2 PUSH1 0x1 DUP5 ADD SLOAD SWAP4 PUSH2 0x430 PUSH1 0x3 PUSH1 0x2 DUP4 ADD SLOAD SWAP3 ADD PUSH2 0xBE9 JUMP JUMPDEST SWAP2 DUP1 MLOAD SWAP6 DUP7 SWAP6 ISZERO ISZERO DUP7 MSTORE PUSH1 0x20 DUP7 ADD MSTORE DUP5 ADD MSTORE PUSH1 0x80 PUSH1 0x60 DUP5 ADD MSTORE PUSH1 0x80 DUP4 ADD SWAP1 PUSH2 0xB8A JUMP JUMPDEST SUB SWAP1 RETURN JUMPDEST DUP3 DUP5 CALLVALUE PUSH2 0x4B9 JUMPI PUSH1 0x20 CALLDATASIZE PUSH1 0x3 NOT ADD SLT PUSH2 0x4B9 JUMPI DUP3 CALLDATALOAD SWAP1 PUSH8 0xFFFFFFFFFFFFFFFF DUP3 GT PUSH2 0x4B9 JUMPI POP PUSH2 0x4A4 PUSH1 0x20 PUSH2 0x492 DUP2 SWAP6 PUSH1 0xFF SWAP5 CALLDATASIZE SWAP2 ADD PUSH2 0xB10 JUMP JUMPDEST DUP2 DUP6 MLOAD SWAP4 DUP3 DUP6 DUP1 SWAP5 MLOAD SWAP4 DUP5 SWAP3 ADD PUSH2 0xB67 JUMP JUMPDEST DUP2 ADD PUSH1 0x2 DUP2 MSTORE SUB ADD SWAP1 KECCAK256 SLOAD AND SWAP1 MLOAD SWAP1 ISZERO ISZERO DUP2 MSTORE RETURN JUMPDEST DUP1 REVERT JUMPDEST POP POP CALLVALUE PUSH2 0xC1 JUMPI DUP2 PUSH1 0x3 NOT CALLDATASIZE ADD SLT PUSH2 0xC1 JUMPI SWAP1 SLOAD SWAP1 MLOAD PUSH1 0x1 PUSH1 0x1 PUSH1 0xA0 SHL SUB SWAP1 SWAP2 AND DUP2 MSTORE PUSH1 0x20 SWAP1 RETURN JUMPDEST DUP4 CALLVALUE PUSH2 0x4B9 JUMPI DUP1 PUSH1 0x3 NOT CALLDATASIZE ADD SLT PUSH2 0x4B9 JUMPI PUSH2 0x4FD PUSH2 0xC8F JUMP JUMPDEST DUP1 SLOAD PUSH1 0x1 PUSH1 0x1 PUSH1 0xA0 SHL SUB NOT DUP2 AND DUP3 SSTORE DUP2 SWAP1 PUSH1 0x1 PUSH1 0x1 PUSH1 0xA0 SHL SUB AND PUSH32 0x8BE0079C531659141344CD1FD0A4F28419497F9722A3DAAFE3B4186F6B6457E0 DUP3 DUP1 LOG3 DUP1 RETURN JUMPDEST POP POP CALLVALUE PUSH2 0xC1 JUMPI PUSH1 0x20 SWAP2 DUP3 PUSH1 0x3 NOT CALLDATASIZE ADD SLT PUSH2 0x4B9 JUMPI DUP2 PUSH2 0x453 SWAP2 PUSH2 0x560 PUSH2 0xAF5 JUMP JUMPDEST PUSH1 0x60 DUP1 DUP5 MLOAD PUSH2 0x56E DUP2 PUSH2 0xA89 JUMP JUMPDEST DUP5 DUP2 MSTORE DUP9 DUP2 ADD DUP6 SWAP1 MSTORE DUP6 DUP2 ADD DUP6 SWAP1 MSTORE ADD MSTORE PUSH1 0x1 PUSH1 0x1 PUSH1 0xA0 SHL SUB AND DUP2 MSTORE PUSH1 0x1 DUP6 MSTORE KECCAK256 DUP3 MLOAD SWAP3 SWAP1 PUSH2 0x59C DUP5 PUSH2 0xA89 JUMP JUMPDEST PUSH1 0xFF DUP2 SLOAD AND ISZERO ISZERO DUP5 MSTORE PUSH1 0x1 DUP2 ADD SLOAD SWAP2 DUP6 DUP6 ADD SWAP3 DUP4 MSTORE PUSH2 0x5C8 PUSH1 0x3 PUSH1 0x2 DUP5 ADD SLOAD SWAP4 DUP4 DUP9 ADD SWAP5 DUP6 MSTORE ADD PUSH2 0xBE9 JUMP JUMPDEST SWAP3 PUSH1 0x60 DUP7 ADD SWAP4 DUP5 MSTORE DUP2 MLOAD SWAP7 DUP8 SWAP7 DUP2 DUP9 MSTORE MLOAD ISZERO ISZERO SWAP1 DUP8 ADD MSTORE MLOAD SWAP1 DUP6 ADD MSTORE MLOAD PUSH1 0x60 DUP5 ADD MSTORE MLOAD PUSH1 0x80 DUP1 DUP5 ADD MSTORE PUSH1 0xA0 DUP4 ADD SWAP1 PUSH2 0xB8A JUMP JUMPDEST DUP4 DUP4 CALLVALUE PUSH2 0xC1 JUMPI DUP1 PUSH1 0x3 NOT CALLDATASIZE ADD SLT PUSH2 0xC1 JUMPI PUSH2 0x615 PUSH2 0xAF5 JUMP JUMPDEST PUSH8 0xFFFFFFFFFFFFFFFF SWAP2 PUSH1 0x24 CALLDATALOAD DUP4 DUP2 GT PUSH2 0x938 JUMPI PUSH2 0x636 SWAP1 CALLDATASIZE SWAP1 DUP8 ADD PUSH2 0xB10 JUMP JUMPDEST SWAP2 PUSH2 0x63F PUSH2 0xC8F JUMP JUMPDEST PUSH1 0x1 PUSH1 0x1 PUSH1 0xA0 SHL SUB AND DUP1 DUP6 MSTORE PUSH1 0x1 PUSH1 0x20 DUP2 DUP2 MSTORE DUP4 DUP8 KECCAK256 SLOAD SWAP3 SWAP6 SWAP1 SWAP3 PUSH1 0xFF AND PUSH2 0x8F5 JUMPI DUP6 ISZERO PUSH2 0x8BB JUMPI DUP5 MLOAD DUP1 PUSH2 0x82F JUMPI JUMPDEST POP DUP4 MLOAD SWAP2 PUSH2 0x67C DUP4 PUSH2 0xA89 JUMP JUMPDEST DUP1 DUP4 MSTORE PUSH1 0x3 DUP5 DUP5 ADD SWAP4 TIMESTAMP DUP6 MSTORE DUP7 DUP2 ADD PUSH1 0x2 DUP2 MSTORE PUSH1 0x60 DUP3 ADD SWAP6 DUP10 DUP8 MSTORE DUP11 DUP13 MSTORE DUP5 DUP9 MSTORE DUP9 DUP13 KECCAK256 SWAP3 MLOAD ISZERO ISZERO PUSH1 0xFF DUP1 NOT DUP6 SLOAD AND SWAP2 AND OR DUP4 SSTORE MLOAD DUP5 DUP4 ADD SSTORE MLOAD PUSH1 0x2 DUP3 ADD SSTORE ADD SWAP3 MLOAD SWAP9 DUP10 MLOAD SWAP3 DUP4 GT PUSH2 0x81C JUMPI POP PUSH2 0x6D3 DUP4 SLOAD PUSH2 0xBAF JUMP JUMPDEST PUSH1 0x1F DUP2 GT PUSH2 0x7E3 JUMPI JUMPDEST POP DUP4 SWAP9 PUSH1 0x1F DUP4 GT PUSH1 0x1 EQ PUSH2 0x763 JUMPI DUP3 SWAP2 DUP10 SWAP11 DUP4 SWAP3 PUSH32 0x89105A1C6A3C2FBD471255C66A31CCAB604AF5697F67D7E2E9A0028C5E4DBD91 SWAP11 SWAP12 SWAP5 PUSH2 0x758 JUMPI JUMPDEST POP POP SHL SWAP2 PUSH1 0x0 NOT SWAP1 PUSH1 0x3 SHL SHR NOT AND OR SWAP1 SSTORE JUMPDEST PUSH2 0x736 PUSH1 0x3 SLOAD PUSH2 0xCFE JUMP JUMPDEST PUSH1 0x3 SSTORE PUSH2 0x74C DUP3 MLOAD SWAP4 DUP4 DUP6 SWAP5 DUP6 MSTORE DUP5 ADD SWAP1 PUSH2 0xB8A JUMP JUMPDEST SWAP1 TIMESTAMP SWAP1 DUP4 ADD MSTORE SUB SWAP1 LOG2 DUP1 RETURN JUMPDEST ADD MLOAD SWAP3 POP DUP12 DUP1 PUSH2 0x719 JUMP JUMPDEST PUSH1 0x1F SWAP3 SWAP2 SWAP3 NOT DUP3 AND SWAP10 DUP5 DUP11 MSTORE DUP6 DUP11 KECCAK256 SWAP2 DUP11 JUMPDEST DUP13 DUP2 LT PUSH2 0x7CE JUMPI POP DUP4 PUSH32 0x89105A1C6A3C2FBD471255C66A31CCAB604AF5697F67D7E2E9A0028C5E4DBD91 SWAP11 SWAP12 SWAP13 LT PUSH2 0x7B5 JUMPI JUMPDEST POP POP POP DUP2 SHL ADD SWAP1 SSTORE PUSH2 0x72B JUMP JUMPDEST ADD MLOAD PUSH1 0x0 NOT PUSH1 0xF8 DUP5 PUSH1 0x3 SHL AND SHR NOT AND SWAP1 SSTORE DUP10 DUP1 DUP1 PUSH2 0x7A8 JUMP JUMPDEST DUP2 DUP4 ADD MLOAD DUP5 SSTORE SWAP3 DUP6 ADD SWAP3 SWAP2 DUP8 ADD SWAP2 DUP8 ADD PUSH2 0x775 JUMP JUMPDEST PUSH2 0x80C SWAP1 DUP5 DUP11 MSTORE DUP6 DUP11 KECCAK256 PUSH1 0x1F DUP6 ADD PUSH1 0x5 SHR DUP2 ADD SWAP2 DUP8 DUP7 LT PUSH2 0x812 JUMPI JUMPDEST PUSH1 0x1F ADD PUSH1 0x5 SHR ADD SWAP1 PUSH2 0xCE7 JUMP JUMPDEST DUP10 PUSH2 0x6DC JUMP JUMPDEST SWAP1 SWAP2 POP DUP2 SWAP1 PUSH2 0x7FF JUMP JUMPDEST PUSH4 0x4E487B71 PUSH1 0xE0 SHL DUP10 MSTORE PUSH1 0x41 SWAP1 MSTORE PUSH1 0x24 DUP9 REVERT JUMPDEST PUSH1 0xFF DUP6 MLOAD DUP6 DUP2 DUP2 DUP11 ADD SWAP5 PUSH2 0x844 DUP2 DUP4 DUP9 PUSH2 0xB67 JUMP JUMPDEST DUP2 ADD PUSH1 0x2 DUP2 MSTORE SUB ADD SWAP1 KECCAK256 SLOAD AND PUSH2 0x883 JUMPI DUP4 PUSH2 0x869 SWAP2 DUP7 MLOAD DUP1 SWAP4 DUP2 SWAP3 DUP11 MLOAD SWAP3 DUP4 SWAP2 PUSH2 0xB67 JUMP JUMPDEST DUP2 ADD PUSH1 0x2 DUP2 MSTORE SUB ADD SWAP1 KECCAK256 DUP3 PUSH1 0xFF NOT DUP3 SLOAD AND OR SWAP1 SSTORE DUP9 PUSH2 0x66F JUMP JUMPDEST DUP5 MLOAD PUSH3 0x461BCD PUSH1 0xE5 SHL DUP2 MSTORE DUP1 DUP11 ADD DUP6 SWAP1 MSTORE PUSH1 0x12 PUSH1 0x24 DUP3 ADD MSTORE PUSH18 0x115B585A5B08185B1C9958591E481D5CD959 PUSH1 0x72 SHL PUSH1 0x44 DUP3 ADD MSTORE PUSH1 0x64 SWAP1 REVERT JUMPDEST DUP4 MLOAD PUSH3 0x461BCD PUSH1 0xE5 SHL DUP2 MSTORE DUP1 DUP10 ADD DUP5 SWAP1 MSTORE PUSH1 0x14 PUSH1 0x24 DUP3 ADD MSTORE PUSH20 0x496E76616C696420757365722061646472657373 PUSH1 0x60 SHL PUSH1 0x44 DUP3 ADD MSTORE PUSH1 0x64 SWAP1 REVERT JUMPDEST DUP4 MLOAD PUSH3 0x461BCD PUSH1 0xE5 SHL DUP2 MSTORE DUP1 DUP10 ADD DUP5 SWAP1 MSTORE PUSH1 0x17 PUSH1 0x24 DUP3 ADD MSTORE PUSH32 0x5573657220616C72656164792072656769737465726564000000000000000000 PUSH1 0x44 DUP3 ADD MSTORE PUSH1 0x64 SWAP1 REVERT JUMPDEST DUP5 DUP1 REVERT JUMPDEST SWAP1 POP DUP3 CALLVALUE PUSH2 0x4B9 JUMPI PUSH1 0x20 SWAP1 DUP2 PUSH1 0x3 NOT CALLDATASIZE ADD SLT PUSH2 0x4B9 JUMPI DUP3 CALLDATALOAD SWAP3 PUSH8 0xFFFFFFFFFFFFFFFF DUP5 GT PUSH2 0xC1 JUMPI CALLDATASIZE PUSH1 0x23 DUP6 ADD SLT ISZERO PUSH2 0xC1 JUMPI DUP4 ADD CALLDATALOAD SWAP3 PUSH2 0x97C DUP5 PUSH2 0xADD JUMP JUMPDEST SWAP4 PUSH2 0x989 DUP7 MLOAD SWAP6 DUP7 PUSH2 0xABB JUMP JUMPDEST DUP1 DUP6 MSTORE PUSH1 0x24 DUP5 DUP7 ADD SWAP2 PUSH1 0x5 SHL DUP4 ADD ADD SWAP2 CALLDATASIZE DUP4 GT PUSH2 0x3DC JUMPI PUSH1 0x24 ADD SWAP1 JUMPDEST DUP3 DUP3 LT PUSH2 0xA6A JUMPI POP POP POP DUP3 MLOAD SWAP2 PUSH2 0x9D3 PUSH2 0x9BE DUP5 PUSH2 0xADD JUMP JUMPDEST SWAP4 PUSH2 0x9CB DUP8 MLOAD SWAP6 DUP7 PUSH2 0xABB JUMP JUMPDEST DUP1 DUP6 MSTORE PUSH2 0xADD JUMP JUMPDEST DUP4 DUP3 ADD SWAP5 SWAP1 PUSH1 0x1F NOT ADD CALLDATASIZE DUP7 CALLDATACOPY DUP3 JUMPDEST DUP2 MLOAD DUP2 LT ISZERO PUSH2 0xA28 JUMPI PUSH2 0xA23 SWAP1 PUSH1 0x1 PUSH1 0x1 PUSH1 0xA0 SHL SUB PUSH2 0xA00 DUP3 DUP6 PUSH2 0xD23 JUMP JUMPDEST MLOAD AND DUP6 MSTORE PUSH1 0x1 DUP5 MSTORE PUSH1 0xFF DUP9 DUP7 KECCAK256 SLOAD AND PUSH2 0xA19 DUP3 DUP9 PUSH2 0xD23 JUMP JUMPDEST SWAP1 ISZERO ISZERO SWAP1 MSTORE PUSH2 0xCFE JUMP JUMPDEST PUSH2 0x9E1 JUMP JUMPDEST POP POP SWAP4 SWAP3 SWAP2 DUP4 MLOAD SWAP5 DUP6 SWAP5 DUP2 DUP7 ADD SWAP3 DUP3 DUP8 MSTORE MLOAD DUP1 SWAP4 MSTORE DUP6 ADD SWAP4 SWAP3 JUMPDEST DUP3 DUP2 LT PUSH2 0xA51 JUMPI POP POP POP POP SUB SWAP1 RETURN JUMPDEST DUP4 MLOAD ISZERO ISZERO DUP6 MSTORE DUP7 SWAP6 POP SWAP4 DUP2 ADD SWAP4 SWAP3 DUP2 ADD SWAP3 PUSH1 0x1 ADD PUSH2 0xA42 JUMP JUMPDEST DUP2 CALLDATALOAD PUSH1 0x1 PUSH1 0x1 PUSH1 0xA0 SHL SUB DUP2 AND DUP2 SUB PUSH2 0x938 JUMPI DUP2 MSTORE SWAP1 DUP5 ADD SWAP1 DUP5 ADD PUSH2 0x9A5 JUMP JUMPDEST PUSH1 0x80 DUP2 ADD SWAP1 DUP2 LT PUSH8 0xFFFFFFFFFFFFFFFF DUP3 GT OR PUSH2 0xAA5 JUMPI PUSH1 0x40 MSTORE JUMP JUMPDEST PUSH4 0x4E487B71 PUSH1 0xE0 SHL PUSH1 0x0 MSTORE PUSH1 0x41 PUSH1 0x4 MSTORE PUSH1 0x24 PUSH1 0x0 REVERT JUMPDEST SWAP1 PUSH1 0x1F DUP1 NOT SWAP2 ADD AND DUP2 ADD SWAP1 DUP2 LT PUSH8 0xFFFFFFFFFFFFFFFF DUP3 GT OR PUSH2 0xAA5 JUMPI PUSH1 0x40 MSTORE JUMP JUMPDEST PUSH8 0xFFFFFFFFFFFFFFFF DUP2 GT PUSH2 0xAA5 JUMPI PUSH1 0x5 SHL PUSH1 0x20 ADD SWAP1 JUMP JUMPDEST PUSH1 0x4 CALLDATALOAD SWAP1 PUSH1 0x1 PUSH1 0x1 PUSH1 0xA0 SHL SUB DUP3 AND DUP3 SUB PUSH2 0xB0B JUMPI JUMP JUMPDEST PUSH1 0x0 DUP1 REVERT JUMPDEST DUP2 PUSH1 0x1F DUP3 ADD SLT ISZERO PUSH2 0xB0B JUMPI DUP1 CALLDATALOAD SWAP1 PUSH8 0xFFFFFFFFFFFFFFFF DUP3 GT PUSH2 0xAA5 JUMPI PUSH1 0x40 MLOAD SWAP3 PUSH2 0xB45 PUSH1 0x1F DUP5 ADD PUSH1 0x1F NOT AND PUSH1 0x20 ADD DUP6 PUSH2 0xABB JUMP JUMPDEST DUP3 DUP5 MSTORE PUSH1 0x20 DUP4 DUP4 ADD ADD GT PUSH2 0xB0B JUMPI DUP2 PUSH1 0x0 SWAP3 PUSH1 0x20 DUP1 SWAP4 ADD DUP4 DUP7 ADD CALLDATACOPY DUP4 ADD ADD MSTORE SWAP1 JUMP JUMPDEST PUSH1 0x0 JUMPDEST DUP4 DUP2 LT PUSH2 0xB7A JUMPI POP POP PUSH1 0x0 SWAP2 ADD MSTORE JUMP JUMPDEST DUP2 DUP2 ADD MLOAD DUP4 DUP3 ADD MSTORE PUSH1 0x20 ADD PUSH2 0xB6A JUMP JUMPDEST SWAP1 PUSH1 0x20 SWAP2 PUSH2 0xBA3 DUP2 MLOAD DUP1 SWAP3 DUP2 DUP6 MSTORE DUP6 DUP1 DUP7 ADD SWAP2 ADD PUSH2 0xB67 JUMP JUMPDEST PUSH1 0x1F ADD PUSH1 0x1F NOT AND ADD ADD SWAP1 JUMP JUMPDEST SWAP1 PUSH1 0x1 DUP3 DUP2 SHR SWAP3 AND DUP1 ISZERO PUSH2 0xBDF JUMPI JUMPDEST PUSH1 0x20 DUP4 LT EQ PUSH2 0xBC9 JUMPI JUMP JUMPDEST PUSH4 0x4E487B71 PUSH1 0xE0 SHL PUSH1 0x0 MSTORE PUSH1 0x22 PUSH1 0x4 MSTORE PUSH1 0x24 PUSH1 0x0 REVERT JUMPDEST SWAP2 PUSH1 0x7F AND SWAP2 PUSH2 0xBBE JUMP JUMPDEST SWAP1 PUSH1 0x40 MLOAD SWAP2 DUP3 PUSH1 0x0 DUP3 SLOAD SWAP3 PUSH2 0xBFD DUP5 PUSH2 0xBAF JUMP JUMPDEST SWAP1 DUP2 DUP5 MSTORE PUSH1 0x1 SWAP5 DUP6 DUP2 AND SWAP1 DUP2 PUSH1 0x0 EQ PUSH2 0xC6C JUMPI POP PUSH1 0x1 EQ PUSH2 0xC29 JUMPI JUMPDEST POP POP PUSH2 0xC27 SWAP3 POP SUB DUP4 PUSH2 0xABB JUMP JUMPDEST JUMP JUMPDEST SWAP1 SWAP4 SWAP2 POP PUSH1 0x0 MSTORE PUSH1 0x20 SWAP1 DUP2 PUSH1 0x0 KECCAK256 SWAP4 PUSH1 0x0 SWAP2 JUMPDEST DUP2 DUP4 LT PUSH2 0xC54 JUMPI POP POP PUSH2 0xC27 SWAP4 POP DUP3 ADD ADD CODESIZE DUP1 PUSH2 0xC19 JUMP JUMPDEST DUP6 SLOAD DUP9 DUP5 ADD DUP6 ADD MSTORE SWAP5 DUP6 ADD SWAP5 DUP8 SWAP5 POP SWAP2 DUP4 ADD SWAP2 PUSH2 0xC3C JUMP JUMPDEST SWAP2 POP POP PUSH2 0xC27 SWAP5 POP PUSH1 0x20 SWAP3 POP PUSH1 0xFF NOT AND DUP3 DUP5 ADD MSTORE ISZERO ISZERO PUSH1 0x5 SHL DUP3 ADD ADD CODESIZE DUP1 PUSH2 0xC19 JUMP JUMPDEST PUSH1 0x0 SLOAD PUSH1 0x1 PUSH1 0x1 PUSH1 0xA0 SHL SUB AND CALLER SUB PUSH2 0xCA3 JUMPI JUMP JUMPDEST PUSH1 0x64 PUSH1 0x40 MLOAD PUSH3 0x461BCD PUSH1 0xE5 SHL DUP2 MSTORE PUSH1 0x20 PUSH1 0x4 DUP3 ADD MSTORE PUSH1 0x20 PUSH1 0x24 DUP3 ADD MSTORE PUSH32 0x4F776E61626C653A2063616C6C6572206973206E6F7420746865206F776E6572 PUSH1 0x44 DUP3 ADD MSTORE REVERT JUMPDEST DUP2 DUP2 LT PUSH2 0xCF2 JUMPI POP POP JUMP JUMPDEST PUSH1 0x0 DUP2 SSTORE PUSH1 0x1 ADD PUSH2 0xCE7 JUMP JUMPDEST PUSH1 0x0 NOT DUP2 EQ PUSH2 0xD0D JUMPI PUSH1 0x1 ADD SWAP1 JUMP JUMPDEST PUSH4 0x4E487B71 PUSH1 0xE0 SHL PUSH1 0x0 MSTORE PUSH1 0x11 PUSH1 0x4 MSTORE PUSH1 0x24 PUSH1 0x0 REVERT JUMPDEST DUP1 MLOAD DUP3 LT ISZERO PUSH2 0xD37 JUMPI PUSH1 0x20 SWAP2 PUSH1 0x5 SHL ADD ADD SWAP1 JUMP JUMPDEST PUSH4 0x4E487B71 PUSH1 0xE0 SHL PUSH1 0x0 MSTORE PUSH1 0x32 PUSH1 0x4 MSTORE PUSH1 0x24 PUSH1 0x0 REVERT INVALID LOG2 PUSH5 0x6970667358 0x22 SLT KECCAK256 XOR PUSH29 0x9693CC8BBA1104E54ABFA75F50ABD0DAF401F82C05A725D7118510EF92 EXTCODECOPY PUSH5 0x736F6C6343 STOP ADDMOD EQ STOP CALLER "},"methodIdentifiers":{"MAX_FREE_HENS()":"f797f04b","areRegistered(address[])":"0397c452","emailUsed(string)":"94652f75","getUserInfo(address)":"6386c1c7","isRegistered(address)":"c3c5a547","owner()":"8da5cb5b","registerUser(address,string)":"0ea126f9","renounceOwnership()":"715018a6","revokeRegistration(address)":"af6ee860","totalRegistrations()":"f4f62b6d","transferOwnership(address)":"f2fde38b","users(address)":"a87430ba"}}}}}