{"contracts/HenNFT.sol":{"HenNFT":{"abi":[{"inputs":[],"stateMutability":"nonpayable","type":"constructor"},{"anonymous":false,"inputs":[{"indexed":true,"internalType":"address","name":"owner","type":"address"},{"indexed":true,"internalType":"address","name":"approved","type":"address"},{"indexed":true,"internalType":"uint256","name":"tokenId","type":"uint256"}],"name":"Approval","type":"event"},{"anonymous":false,"inputs":[{"indexed":true,"internalType":"address","name":"owner","type":"address"},{"indexed":true,"internalType":"address","name":"operator","type":"address"},{"indexed":false,"internalType":"bool","name":"approved","type":"bool"}],"name":"ApprovalForAll","type":"event"},{"anonymous":false,"inputs":[{"indexed":false,"internalType":"uint256","name":"_fromTokenId","type":"uint256"},{"indexed":false,"internalType":"uint256","name":"_toTokenId","type":"uint256"}],"name":"BatchMetadataUpdate","type":"event"},{"anonymous":false,"inputs":[{"indexed":true,"internalType":"uint256","name":"henId","type":"uint256"},{"indexed":false,"internalType":"bool","name":"won","type":"bool"}],"name":"BattleResult","type":"event"},{"anonymous":false,"inputs":[{"indexed":true,"internalType":"uint256","name":"tokenId","type":"uint256"},{"indexed":true,"internalType":"address","name":"seller","type":"address"}],"name":"HenDelisted","type":"event"},{"anonymous":false,"inputs":[{"indexed":true,"internalType":"uint256","name":"tokenId","type":"uint256"},{"indexed":false,"internalType":"uint256","name":"price","type":"uint256"},{"indexed":true,"internalType":"address","name":"seller","type":"address"}],"name":"HenListed","type":"event"},{"anonymous":false,"inputs":[{"indexed":true,"internalType":"uint256","name":"tokenId","type":"uint256"},{"indexed":true,"internalType":"address","name":"owner","type":"address"},{"components":[{"internalType":"uint8","name":"strength","type":"uint8"},{"internalType":"uint8","name":"speed","type":"uint8"},{"internalType":"uint8","name":"stamina","type":"uint8"},{"internalType":"uint8","name":"intelligence","type":"uint8"},{"internalType":"uint8","name":"luck","type":"uint8"},{"internalType":"uint8","name":"generation","type":"uint8"},{"internalType":"uint48","name":"birthTime","type":"uint48"},{"internalType":"uint48","name":"lastBreedTime","type":"uint48"},{"internalType":"uint32","name":"wins","type":"uint32"},{"internalType":"uint32","name":"losses","type":"uint32"},{"internalType":"uint32","name":"racesWon","type":"uint32"},{"internalType":"uint32","name":"xp","type":"uint32"},{"internalType":"bool","name":"isAlive","type":"bool"},{"internalType":"uint8","name":"trainingLevel","type":"uint8"}],"indexed":false,"internalType":"struct HenNFT.HenTraits","name":"traits","type":"tuple"}],"name":"HenMinted","type":"event"},{"anonymous":false,"inputs":[{"indexed":true,"internalType":"uint256","name":"tokenId","type":"uint256"},{"indexed":false,"internalType":"string","name":"newName","type":"string"}],"name":"HenRenamed","type":"event"},{"anonymous":false,"inputs":[{"indexed":true,"internalType":"uint256","name":"tokenId","type":"uint256"},{"indexed":true,"internalType":"address","name":"from","type":"address"},{"indexed":true,"internalType":"address","name":"to","type":"address"},{"indexed":false,"internalType":"uint256","name":"price","type":"uint256"}],"name":"HenSold","type":"event"},{"anonymous":false,"inputs":[{"indexed":true,"internalType":"uint256","name":"tokenId","type":"uint256"},{"indexed":false,"internalType":"uint8","name":"trainingLevel","type":"uint8"}],"name":"HenTrained","type":"event"},{"anonymous":false,"inputs":[{"indexed":false,"internalType":"uint256","name":"_tokenId","type":"uint256"}],"name":"MetadataUpdate","type":"event"},{"anonymous":false,"inputs":[{"indexed":true,"internalType":"address","name":"previousOwner","type":"address"},{"indexed":true,"internalType":"address","name":"newOwner","type":"address"}],"name":"OwnershipTransferred","type":"event"},{"anonymous":false,"inputs":[{"indexed":true,"internalType":"address","name":"from","type":"address"},{"indexed":true,"internalType":"address","name":"to","type":"address"},{"indexed":true,"internalType":"uint256","name":"tokenId","type":"uint256"}],"name":"Transfer","type":"event"},{"inputs":[],"name":"MARKETPLACE_FEE","outputs":[{"internalType":"uint256","name":"","type":"uint256"}],"stateMutability":"view","type":"function"},{"inputs":[],"name":"MAX_SUPPLY","outputs":[{"internalType":"uint256","name":"","type":"uint256"}],"stateMutability":"view","type":"function"},{"inputs":[],"name":"MAX_TRAINING_LEVEL","outputs":[{"internalType":"uint256","name":"","type":"uint256"}],"stateMutability":"view","type":"function"},{"inputs":[],"name":"MINT_PRICE","outputs":[{"internalType":"uint256","name":"","type":"uint256"}],"stateMutability":"view","type":"function"},{"inputs":[],"name":"RENAME_PRICE","outputs":[{"internalType":"uint256","name":"","type":"uint256"}],"stateMutability":"view","type":"function"},{"inputs":[],"name":"TRAIN_PRICE","outputs":[{"internalType":"uint256","name":"","type":"uint256"}],"stateMutability":"view","type":"function"},{"inputs":[],"name":"XP_PER_BATTLE","outputs":[{"internalType":"uint256","name":"","type":"uint256"}],"stateMutability":"view","type":"function"},{"inputs":[],"name":"XP_PER_BATTLE_WIN","outputs":[{"internalType":"uint256","name":"","type":"uint256"}],"stateMutability":"view","type":"function"},{"inputs":[],"name":"XP_PER_BREED","outputs":[{"internalType":"uint256","name":"","type":"uint256"}],"stateMutability":"view","type":"function"},{"inputs":[],"name":"XP_PER_RACE","outputs":[{"internalType":"uint256","name":"","type":"uint256"}],"stateMutability":"view","type":"function"},{"inputs":[],"name":"XP_PER_RACE_WIN","outputs":[{"internalType":"uint256","name":"","type":"uint256"}],"stateMutability":"view","type":"function"},{"inputs":[{"internalType":"uint256","name":"tokenId","type":"uint256"},{"internalType":"uint256","name":"xpAmount","type":"uint256"}],"name":"addXP","outputs":[],"stateMutability":"nonpayable","type":"function"},{"inputs":[{"internalType":"address","name":"to","type":"address"},{"internalType":"uint256","name":"tokenId","type":"uint256"}],"name":"approve","outputs":[],"stateMutability":"nonpayable","type":"function"},{"inputs":[{"internalType":"address","name":"owner","type":"address"}],"name":"balanceOf","outputs":[{"internalType":"uint256","name":"","type":"uint256"}],"stateMutability":"view","type":"function"},{"inputs":[{"internalType":"uint256","name":"quantity","type":"uint256"}],"name":"batchMintHens","outputs":[{"internalType":"uint256[]","name":"","type":"uint256[]"}],"stateMutability":"payable","type":"function"},{"inputs":[],"name":"battleContract","outputs":[{"internalType":"address","name":"","type":"address"}],"stateMutability":"view","type":"function"},{"inputs":[],"name":"breedingContract","outputs":[{"internalType":"address","name":"","type":"address"}],"stateMutability":"view","type":"function"},{"inputs":[{"internalType":"uint256","name":"tokenId","type":"uint256"}],"name":"buyHen","outputs":[],"stateMutability":"payable","type":"function"},{"inputs":[{"internalType":"uint256","name":"tokenId","type":"uint256"}],"name":"delistHen","outputs":[],"stateMutability":"nonpayable","type":"function"},{"inputs":[{"internalType":"uint256","name":"tokenId","type":"uint256"}],"name":"getApproved","outputs":[{"internalType":"address","name":"","type":"address"}],"stateMutability":"view","type":"function"},{"inputs":[{"internalType":"uint256","name":"tokenId","type":"uint256"}],"name":"getHenPower","outputs":[{"internalType":"uint256","name":"","type":"uint256"}],"stateMutability":"view","type":"function"},{"inputs":[{"internalType":"uint256","name":"tokenId","type":"uint256"}],"name":"getHenTraits","outputs":[{"components":[{"internalType":"uint8","name":"strength","type":"uint8"},{"internalType":"uint8","name":"speed","type":"uint8"},{"internalType":"uint8","name":"stamina","type":"uint8"},{"internalType":"uint8","name":"intelligence","type":"uint8"},{"internalType":"uint8","name":"luck","type":"uint8"},{"internalType":"uint8","name":"generation","type":"uint8"},{"internalType":"uint48","name":"birthTime","type":"uint48"},{"internalType":"uint48","name":"lastBreedTime","type":"uint48"},{"internalType":"uint32","name":"wins","type":"uint32"},{"internalType":"uint32","name":"losses","type":"uint32"},{"internalType":"uint32","name":"racesWon","type":"uint32"},{"internalType":"uint32","name":"xp","type":"uint32"},{"internalType":"bool","name":"isAlive","type":"bool"},{"internalType":"uint8","name":"trainingLevel","type":"uint8"}],"internalType":"struct HenNFT.HenTraits","name":"","type":"tuple"}],"stateMutability":"view","type":"function"},{"inputs":[{"internalType":"address","name":"owner","type":"address"}],"name":"getHensByOwner","outputs":[{"internalType":"uint256[]","name":"","type":"uint256[]"}],"stateMutability":"view","type":"function"},{"inputs":[{"internalType":"uint256","name":"","type":"uint256"}],"name":"henNames","outputs":[{"internalType":"string","name":"","type":"string"}],"stateMutability":"view","type":"function"},{"inputs":[{"internalType":"uint256","name":"","type":"uint256"}],"name":"henTraits","outputs":[{"internalType":"uint8","name":"strength","type":"uint8"},{"internalType":"uint8","name":"speed","type":"uint8"},{"internalType":"uint8","name":"stamina","type":"uint8"},{"internalType":"uint8","name":"intelligence","type":"uint8"},{"internalType":"uint8","name":"luck","type":"uint8"},{"internalType":"uint8","name":"generation","type":"uint8"},{"internalType":"uint48","name":"birthTime","type":"uint48"},{"internalType":"uint48","name":"lastBreedTime","type":"uint48"},{"internalType":"uint32","name":"wins","type":"uint32"},{"internalType":"uint32","name":"losses","type":"uint32"},{"internalType":"uint32","name":"racesWon","type":"uint32"},{"internalType":"uint32","name":"xp","type":"uint32"},{"internalType":"bool","name":"isAlive","type":"bool"},{"internalType":"uint8","name":"trainingLevel","type":"uint8"}],"stateMutability":"view","type":"function"},{"inputs":[{"internalType":"address","name":"owner","type":"address"},{"internalType":"address","name":"operator","type":"address"}],"name":"isApprovedForAll","outputs":[{"internalType":"bool","name":"","type":"bool"}],"stateMutability":"view","type":"function"},{"inputs":[{"internalType":"uint256","name":"tokenId","type":"uint256"},{"internalType":"uint256","name":"price","type":"uint256"}],"name":"listHen","outputs":[],"stateMutability":"nonpayable","type":"function"},{"inputs":[{"internalType":"uint256","name":"","type":"uint256"}],"name":"listings","outputs":[{"internalType":"uint256","name":"price","type":"uint256"},{"internalType":"address","name":"seller","type":"address"},{"internalType":"bool","name":"isActive","type":"bool"}],"stateMutability":"view","type":"function"},{"inputs":[],"name":"mintHen","outputs":[{"internalType":"uint256","name":"","type":"uint256"}],"stateMutability":"payable","type":"function"},{"inputs":[{"internalType":"address","name":"to","type":"address"},{"internalType":"uint8","name":"strength","type":"uint8"},{"internalType":"uint8","name":"speed","type":"uint8"},{"internalType":"uint8","name":"stamina","type":"uint8"},{"internalType":"uint8","name":"intelligence","type":"uint8"},{"internalType":"uint8","name":"luck","type":"uint8"},{"internalType":"uint8","name":"generation","type":"uint8"}],"name":"mintOffspring","outputs":[{"internalType":"uint256","name":"","type":"uint256"}],"stateMutability":"nonpayable","type":"function"},{"inputs":[],"name":"name","outputs":[{"internalType":"string","name":"","type":"string"}],"stateMutability":"view","type":"function"},{"inputs":[],"name":"owner","outputs":[{"internalType":"address","name":"","type":"address"}],"stateMutability":"view","type":"function"},{"inputs":[{"internalType":"uint256","name":"tokenId","type":"uint256"}],"name":"ownerOf","outputs":[{"internalType":"address","name":"","type":"address"}],"stateMutability":"view","type":"function"},{"inputs":[],"name":"racingContract","outputs":[{"internalType":"address","name":"","type":"address"}],"stateMutability":"view","type":"function"},{"inputs":[{"internalType":"uint256","name":"tokenId","type":"uint256"},{"internalType":"string","name":"newName","type":"string"}],"name":"renameHen","outputs":[],"stateMutability":"payable","type":"function"},{"inputs":[],"name":"renounceOwnership","outputs":[],"stateMutability":"nonpayable","type":"function"},{"inputs":[{"internalType":"address","name":"from","type":"address"},{"internalType":"address","name":"to","type":"address"},{"internalType":"uint256","name":"tokenId","type":"uint256"}],"name":"safeTransferFrom","outputs":[],"stateMutability":"nonpayable","type":"function"},{"inputs":[{"internalType":"address","name":"from","type":"address"},{"internalType":"address","name":"to","type":"address"},{"internalType":"uint256","name":"tokenId","type":"uint256"},{"internalType":"bytes","name":"data","type":"bytes"}],"name":"safeTransferFrom","outputs":[],"stateMutability":"nonpayable","type":"function"},{"inputs":[{"internalType":"address","name":"operator","type":"address"},{"internalType":"bool","name":"approved","type":"bool"}],"name":"setApprovalForAll","outputs":[],"stateMutability":"nonpayable","type":"function"},{"inputs":[{"internalType":"address","name":"_addr","type":"address"}],"name":"setBattleContract","outputs":[],"stateMutability":"nonpayable","type":"function"},{"inputs":[{"internalType":"address","name":"_addr","type":"address"}],"name":"setBreedingContract","outputs":[],"stateMutability":"nonpayable","type":"function"},{"inputs":[{"internalType":"address","name":"_addr","type":"address"}],"name":"setRacingContract","outputs":[],"stateMutability":"nonpayable","type":"function"},{"inputs":[{"internalType":"bytes4","name":"interfaceId","type":"bytes4"}],"name":"supportsInterface","outputs":[{"internalType":"bool","name":"","type":"bool"}],"stateMutability":"view","type":"function"},{"inputs":[],"name":"symbol","outputs":[{"internalType":"string","name":"","type":"string"}],"stateMutability":"view","type":"function"},{"inputs":[{"internalType":"uint256","name":"tokenId","type":"uint256"}],"name":"tokenURI","outputs":[{"internalType":"string","name":"","type":"string"}],"stateMutability":"view","type":"function"},{"inputs":[{"internalType":"uint256","name":"tokenId","type":"uint256"}],"name":"trainHen","outputs":[],"stateMutability":"payable","type":"function"},{"inputs":[{"internalType":"address","name":"from","type":"address"},{"internalType":"address","name":"to","type":"address"},{"internalType":"uint256","name":"tokenId","type":"uint256"}],"name":"transferFrom","outputs":[],"stateMutability":"nonpayable","type":"function"},{"inputs":[{"internalType":"address","name":"newOwner","type":"address"}],"name":"transferOwnership","outputs":[],"stateMutability":"nonpayable","type":"function"},{"inputs":[{"internalType":"uint256","name":"tokenId","type":"uint256"},{"internalType":"bool","name":"won","type":"bool"}],"name":"updateBattleStats","outputs":[],"stateMutability":"nonpayable","type":"function"},{"inputs":[{"internalType":"uint256","name":"tokenId","type":"uint256"}],"name":"updateRaceStats","outputs":[],"stateMutability":"nonpayable","type":"function"},{"inputs":[],"name":"withdraw","outputs":[],"stateMutability":"nonpayable","type":"function"}],"evm":{"bytecode":{"linkReferences":{},"object":"6080346200035d576001600160401b03906040908082018381118282101762000347578252600a81526020916943727970746f48656e7360b01b83830152805193818501858110828211176200034757825260038552622422a760e91b84860152825181811162000347576000948554916001958684811c941680156200033c575b8385101462000328578190601f94858111620002d5575b5083908583116001146200027157899262000265575b5050600019600383901b1c191690861b1786555b8651928311620002515784548581811c9116801562000246575b828210146200023257828111620001ea575b50809183116001146200018157508495829394959262000175575b5050600019600383901b1c191690831b1782555b60078054336001600160a01b03198216811790925591519390916001600160a01b0316907f8be0079c531659141344cd1fd0a4f28419497f9722a3daafe3b4186f6b6457e09080a3600855613cf29081620003638239f35b01519050388062000109565b90601f198316968587528287209287905b898210620001d25750508386979896959610620001b8575b505050811b0182556200011d565b015160001960f88460031b161c19169055388080620001aa565b80888596829496860151815501950193019062000192565b8587528187208380860160051c82019284871062000228575b0160051c019086905b8281106200021c575050620000ee565b8881550186906200020c565b9250819262000203565b634e487b7160e01b87526022600452602487fd5b90607f1690620000dc565b634e487b7160e01b86526041600452602486fd5b015190503880620000ae565b898052848a208994509190601f1984168b5b87828210620002be5750508411620002a4575b505050811b018655620000c2565b015160001960f88460031b161c1916905538808062000296565b8385015186558c9790950194938401930162000283565b9091508880528389208580850160051c8201928686106200031e575b918a91869594930160051c01915b8281106200030f57505062000098565b8b81558594508a9101620002ff565b92508192620002f1565b634e487b7160e01b88526022600452602488fd5b93607f169362000081565b634e487b7160e01b600052604160045260246000fd5b600080fdfe6080806040526004908136101561001557600080fd5b60003560e01c9081630139c41414612dc15750806301ffc9a714612d3a57806306fdde0314612c97578063081812fc14612c79578063095ea7b314612aff5780630db6dff714612abc57806311712cc3146128395780631733cdc81461276457806319dd0cd81461231c57806320960c46146122a557806323b872dd1461228157806332cb6b0c146122645780633ccfd60b146121ef578063423b1ca3146121c657806342842e0e146121935780634ac18640146121685780634b9785051461212557806350c7d5a0146120305780635146ea0e14611bd75780635948e5e41461172c5780636352211e146116fc5780636a6ef765146116e057806370a08231146116bd57806370e6e99a14611601578063715018a6146115a45780637bba64af146113cf5780637deb0bf1146110a7578063836e33751461107e57806385d4d8821461106257806389d796e4146110395780638c5527cf14610ff65780638c5abc2414610fda5780638da5cb5b14610fb157806395d89b4114610ed25780639c103c6114610eb65780639c903ff014610b23578063a22cb46514610a50578063a2e9603514610a34578063a6345141146108b0578063afa2cf0314610796578063b795945b1461077a578063b88d4fde146106f2578063bcaf673f1461059c578063c002d23d1461057a578063c62e043514610470578063c87b56dd146103fb578063ce1b98c8146103df578063d773154f146103bd578063de74e57b14610371578063e985e9c51461031b5763f2fde38b1461025257600080fd5b346103165760203660031901126103165761026b612e29565b610273613184565b6001600160a01b039081169182156102c35750600754826001600160601b0360a01b821617600755167f8be0079c531659141344cd1fd0a4f28419497f9722a3daafe3b4186f6b6457e0600080a3005b60849060206040519162461bcd60e51b8352820152602660248201527f4f776e61626c653a206e6577206f776e657220697320746865207a65726f206160448201526564647265737360d01b6064820152fd5b600080fd5b3461031657604036600319011261031657610334612e29565b61033c612e3f565b9060018060a01b03809116600052600560205260406000209116600052602052602060ff604060002054166040519015158152f35b50346103165760203660031901126103165735600052600f6020526060604060002060ff6001825492015460405192835260018060a01b038116602084015260a01c1615156040820152f35b3461031657600036600319011261031657602060405166038d7ea4c680008152f35b3461031657600036600319011261031657602060405160328152f35b50346103165760203660031901126103165735600081815260026020526040902054610431906001600160a01b03161515613253565b600052600660205261046c6104496040600020612fc0565b600060405161045781612ec0565b52604051918291602083526020830190612e04565b0390f35b503461031657604036600319011261031657357f19d86b8edfcd6cf16daaf1ee062fa483161495cf6ad50132e27637b7ed38fb8860206104ae6130b7565b600d546104d090336001600160a01b039182161490811561056c575b50613b46565b80156105245783600052600b825261051960406000206104f963ffffffff825460901c16613b83565b815463ffffffff60901b191660909190911b63ffffffff60901b16179055565b6040519015158152a2005b83600052600b8252610567604060002061054763ffffffff825460b01c16613b83565b815463ffffffff60b01b191660b09190911b63ffffffff60b01b16179055565b610519565b9050600754163314386104ca565b34610316576000366003190112610316576020604051662386f26fc100008152f35b5034610316576105ab36613066565b916105b58261329f565b6001600160a01b0391906105cc9083163314613aec565b83156106ae5782600052600f60205260ff60016040600020015460a01c1661067957506040516105fb81612e88565b83815260208101913383526001604083019281845285600052600f6020526040600020905181550192511682549160ff60a01b9051151560a01b16916affffffffffffffffffffff60a81b16171790556040519182527fb401eb59e096f41c707abda600e71ddb0066743a000c511ccfd6b58ce62141e560203393a3005b60649060206040519162461bcd60e51b8352820152600e60248201526d105b1c9958591e481b1a5cdd195960921b6044820152fd5b60649060206040519162461bcd60e51b8352820152601c60248201527f5072696365206d7573742062652067726561746572207468616e2030000000006044820152fd5b50346103165760803660031901126103165761070c612e29565b90610715612e3f565b916044356064359367ffffffffffffffff85116103165736602386011215610316576107506107739486602461077898369301359101612f1a565b9261076361075e84336133dc565b613303565b61076e8383836134a4565b6136dd565b6133b8565b005b34610316576000366003190112610316576020604051600a8152f35b503461031657602090816003193601126103165735600052600b8152806040600020604051906107c582612e55565b80549160ff9283809281831690818152828460081c16908189820152836040820195818160101c1687526060830198828260181c168a528282608086019d1c168c52828260281c1660a085015265ffffffffffff808360301c1660c08601528260601c1660e085015263ffffffff8281809460901c16610100870152818160b01c1661012087015260d01c166101408501526001015490811661016084015281818d1c16151561018084015260281c16906101a0015261088491613803565b91511661089091613803565b91511661089c91613803565b9151166108a891613803565b604051908152f35b5034610316576020806003193601126103165760405161046c92356108d482612e55565b60008252600083830152600060408301526000606083015260006080830152600060a0830152600060c0830152600060e08301526101009060008284015261012090600082850152610140600081860152610160926000848701526101809260008488015260006101a08098015261096961096482600052600260205260018060a01b0360406000205416151590565b613b98565b600052600b87526040600020966001604051986109858a612e55565b80549460ff98868a8098168d528c86898360081c169101528c6040898360101c169101528c6060898360181c169101528c60808983891c169101528c60a0898360281c169101528c60e065ffffffffffff808460301c1660c08401528360601c169101528c63ffffffff978893848460901c1690830152838360b01c1691015260d01c16908b015201549485928316908901521c1615159085015260281c1690820152604051918291826130c6565b3461031657600036600319011261031657602060405160198152f35b503461031657604036600319011261031657610a6a612e29565b610a726130b7565b6001600160a01b0390911691338314610adf575033600052600560205260406000208260005260205260406000209015159060ff1981541660ff83161790556040519081527f17307eab39ab6107e8899845ad3d59bd9653f200f220920489ca2b5937696c3160203392a3005b60649060206040519162461bcd60e51b8352820152601960248201527f4552433732313a20617070726f766520746f2063616c6c6572000000000000006044820152fd5b50600036600319011261031657610b386138b2565b610b4b662386f26fc1000034101561375b565b600954610b5b612710821061379e565b60018101600955610b6f6001820133613908565b6051610b85610b7c6137df565b60018401613c6b565b0660148101809111610ea1576051610ba7610b9e613826565b60018501613c6b565b0660148101809111610e8c576051610bc9610bc0613847565b60018601613c6b565b0660148101809111610e77576051610beb610be261386a565b60018701613c6b565b069160148301809311610e62576051610c0e610c05613892565b60018801613c6b565b069560148701809711610e4d575060ff9283602097938180948160405199610c358b612e55565b1689521689880152166040860152166060840152166080820152600060a082015265ffffffffffff421660c0820152600060e08201526000610100820152600061012082015260006101408201526000610160820152600161018082015260006101a082015260018201600052600b8352610e04604060002060ff83511660ff19825416178155610cdd60ff8685015116829061ff0082549160081b169061ff001916179055565b60408301518154606080860151608087015160a088015160c089015160e08a01516101008b01516101208c01516101408d015160b09190911b63ffffffff60b01b1660909290921b63ffffffff60901b169290971b65ffffffffffff60601b1660309390931b65ffffffffffff60301b16602894851b60ff60281b90811660209790971b60ff60201b90811660189990991b63ff0000001660109c909c1b62ff00001662010000600160f01b0319909b169a909a179a909a1796909617949094179490941717929092171760d09290921b63ffffffff60d01b16919091178455610160860151600190940180546101808801516101a089015190931b909416911515891b90921663ffffffff90941665ffffffffffff199093169290921792909217179055565b604051907f06c776597a9374e4555dfa6f5d16120e7814f9b53f68b69e6f3ea53103579c9b339280610e3a6001870194826130c6565b0390a36001600855600160405191018152f35b601190634e487b7160e01b6000525260246000fd5b601186634e487b7160e01b6000525260246000fd5b601185634e487b7160e01b6000525260246000fd5b601184634e487b7160e01b6000525260246000fd5b601183634e487b7160e01b6000525260246000fd5b3461031657600036600319011261031657602060405160fa8152f35b346103165760003660031901126103165760405160006001805490610ef682612f86565b80855291818116908115610f8a5750600114610f31575b61046c84610f1d81860382612edc565b604051918291602083526020830190612e04565b600081815292507fb10e2d527612073b26eecdfd717e6a320cf44b4afac2b0732d9fcbe2b7fa0cf65b828410610f72575050508101602001610f1d82610f0d565b80546020858701810191909152909301928101610f5a565b60ff191660208087019190915292151560051b85019092019250610f1d9150839050610f0d565b34610316576000366003190112610316576007546040516001600160a01b039091168152602090f35b34610316576000366003190112610316576020604051601e8152f35b346103165760203660031901126103165761100f612e29565b611017613184565b600c80546001600160a01b0319166001600160a01b0392909216919091179055005b3461031657600036600319011261031657600e546040516001600160a01b039091168152602090f35b3461031657600036600319011261031657602060405160648152f35b3461031657600036600319011261031657600c546040516001600160a01b039091168152602090f35b50346103165760e0366003190112610316576110c1612e29565b906024359060ff821682036103165760443560ff811681036103165760643560ff81168103610316576084359060ff821682036103165760a4359260ff841684036103165760c4359460ff861686036103165761111c6138b2565b600c546001600160a01b031633036113795760206001898960ff8a818b818c818d818e6111606009549d8e611154612710821061379e565b0160098190558d613908565b816040519b61116e8d612e55565b168b52168c8a01521660408801521660608601521660808401521660a082015265ffffffffffff421660c0820152600060e08201526000610100820152600061012082015260006101408201526000610160820152600161018082015260006101a082015260018301600052600b845261133c604060002060ff83511660ff1982541617815561121560ff8785015116829061ff0082549160081b169061ff001916179055565b60408301518154606080860151608087015160a088015160c089015160e08a01516101008b01516101208c01516101408d015160b09190911b63ffffffff60b01b1660909290921b63ffffffff60901b169290971b65ffffffffffff60601b1660309390931b65ffffffffffff60301b16602894851b60ff60281b90811660209790971b60ff60201b90811660189990991b63ff0000001660109c909c1b62ff00001662010000600160f01b0319909b169a909a179a909a1796909617949094179490941717929092171760d09290921b63ffffffff60d01b16919091178455610160860151600190940180546101808801516101a089015190931b9094169115158a1b90921663ffffffff90941665ffffffffffff199093169290921792909217179055565b7f06c776597a9374e4555dfa6f5d16120e7814f9b53f68b69e6f3ea53103579c9b6040519260018060a01b03169280610e3a6001870194826130c6565b60849060206040519162461bcd60e51b8352820152602960248201527f4f6e6c79206272656564696e6720636f6e74726163742063616e206d696e74206044820152686f6666737072696e6760b81b6064820152fd5b50602090816003193601126103165780356113e86138b2565b80600052600f835260406000209060016040519261140584612e88565b80548452015484830160ff60018060a01b0392838116835260a01c16158015604086015261156a5761143a845134101561375b565b511691519160fa830283810460fa1484151715610e77576000808061146461271082950488613b28565b868252600f8a528160016040822082815501556114828733886134a4565b855af161148d6135b5565b501561152657604051918383527f23e7a5edd4c10cc4bf363be5ea945e863eb800cfb257a5d6b33b76b3a922ca5d863394a48034116114ce575b6001600855005b600080806114dd819434613b28565b335af16114e86135b5565b50156114f457806114c7565b6064916040519162461bcd60e51b8352820152600d60248201526c1499599d5b990819985a5b1959609a1b6044820152fd5b60405162461bcd60e51b8152808501869052601960248201527f5472616e7366657220746f2073656c6c6572206661696c6564000000000000006044820152606490fd5b60405162461bcd60e51b815280860187905260136024820152724e6f74206c697374656420666f722073616c6560681b6044820152606490fd5b34610316576000366003190112610316576115bd613184565b600780546001600160a01b031981169091556000906001600160a01b03167f8be0079c531659141344cd1fd0a4f28419497f9722a3daafe3b4186f6b6457e08280a3005b346103165760203660031901126103165761161a612e29565b61162b611626826131dc565b613a81565b906000600191600954925b8381111561164c576040518061046c878261307c565b6000818152600260205260409020546001600160a01b03161515806116a0575b61167f575b61167a90613ab3565b611636565b91611698818461169261167a9489613ac2565b52613ab3565b929050611671565b506116aa8161329f565b6001600160a01b0383811691161461166c565b346103165760203660031901126103165760206108a86116db612e29565b6131dc565b34610316576000366003190112610316576020604051604b8152f35b50346103165760203660031901126103165761171a6020913561329f565b6040516001600160a01b039091168152f35b5060203660031901126103165780356117436138b2565b80151580611bcc575b15611b8857662386f26fc100008181029081048203610ea1576117719034101561375b565b600991612710611782838554613803565b11611b445761179082613a81565b9260005b8381106117ae5760016008556040518061046c878261307c565b60018254018083556117c08133613908565b605190816117d56117cf6137df565b83613c6b565b06916014908184018411611b2f57806117f56117ef613826565b85613c6b565b06908282018211611b1a578061181261180c613847565b86613c6b565b068381018111611b05578161182e61182861386a565b87613c6b565b06918483018311611af057611844611828613892565b06928484018411611af057849291838092816040519a6118638c612e55565b0160ff168a520160ff1660208901520160ff1660408701520160ff1660608501520160ff16608083015260a08201600090524265ffffffffffff1660c083015260e08201600090526101008201600090526101208201600090526101408201600090526101608201600090526101808201600190526101a082016000905280600052600b6020526040600020825160ff1660ff19825416178155602083015160ff1661192090829061ff0082549160081b169061ff001916179055565b6040830151815462ff0000191660109190911b62ff0000161781556060830151815463ff000000191660189190911b63ff000000161781556080830151815464ff00000000191660209190911b60ff60201b1617815560a0830151815465ff0000000000191660289190911b60ff60281b1617815560c0830151815460e085015161010086015175ffffffffffffffffffffffffffffffff0000000000001990921665ffffffffffff60301b60309490941b939093169290921760609290921b65ffffffffffff60601b169190911760909190911b63ffffffff60901b1617815563ffffffff90610120840151815463ffffffff60b01b191690831660b01b63ffffffff60b01b16178155610140840151815463ffffffff60d01b191690831660d01b63ffffffff60d01b161781556001019061016084015116815490610180850151151560201b60ff60201b169164ffffffffff1916171781556101a083015160ff16611aa2919060ff60281b82549160281b169060ff60281b1916179055565b80611aad8489613ac2565b52604051803393611abe90826130c6565b037f06c776597a9374e4555dfa6f5d16120e7814f9b53f68b69e6f3ea53103579c9b91a3611aeb90613ab3565b611794565b60118a634e487b7160e01b6000525260246000fd5b601189634e487b7160e01b6000525260246000fd5b601188634e487b7160e01b6000525260246000fd5b601187634e487b7160e01b6000525260246000fd5b60649060206040519162461bcd60e51b8352820152601760248201527f576f756c6420657863656564206d617820737570706c790000000000000000006044820152fd5b60405162461bcd60e51b8152602081840152601a60248201527f43616e206d696e7420312d31302068656e73206174206f6e63650000000000006044820152606490fd5b50600a81111561174c565b503461031657611c90611be936613066565b9092611c1760018060a01b0380600d54163314908115612021575b8115612012575b811561056c5750613b46565b600084815260026020526040902054611c3a906001600160a01b03161515613b98565b836000526020600b815260406000209160019384840190815463ffffffff80988282611c738180961696611c6d88613bdb565b97613803565b8181111561200b5750805b16809163ffffffff1916178655613bdb565b92169116818111611c9d57005b0395808711610ea15795861660005b8188821610611cb757005b8254604051868101914283528b604083015263ffffffff60e01b9060e01b166060820152604481526080810181811067ffffffffffffffff821117611ff657604052519020611d48919060ff9086906005808204819006841691068316801580611fe9575b15611ec1578a5484611d2f818316613b35565b169060ff1916178b555b8103611d4d575b505050613b83565b611cac565b801580611eb4575b15611d7c575050875490611d6a818316613b35565b169060ff19161787555b388581611d40565b8a811480611ea4575b15611db9575050611d9e611db491895460081c16613b35565b885461ff00191660089190911b61ff0016178855565b611d74565b6002811480611e94575b15611df4575050611ddc611db491895460101c16613b35565b885462ff0000191660109190911b62ff000016178855565b6003811480611e84575b15611e31575050611e17611db491895460181c16613b35565b885463ff000000191660189190911b63ff00000016178855565b1480611e75575b611e43575b50611d74565b611e54611e6f918954891c16613b35565b885464ff00000000191660209190911b60ff60201b16178855565b38611e3d565b506064818954891c1610611e38565b506064838b5460181c1610611dfe565b506064838b5460101c1610611dc3565b506064838b5460081c1610611d85565b506064838b541610611d55565b8b811480611fd9575b15611efc57611ef7611ee1858d5460081c16613b35565b8c5461ff00191660089190911b61ff0016178c55565b611d39565b6002811480611fc9575b15611f3557611ef7611f1d858d5460101c16613b35565b8c5462ff0000191660109190911b62ff000016178c55565b6003811480611fb9575b15611f7057611ef7611f56858d5460181c16613b35565b8c5463ff000000191660189190911b63ff00000016178c55565b82811480611faa575b15611ef757611ef7611f8f858d548d1c16613b35565b8c5464ff00000000191660209190911b60ff60201b16178c55565b506064848c548c1c1610611f79565b506064848c5460181c1610611f3f565b506064848c5460101c1610611f06565b506064848c5460081c1610611eca565b506064848c541610611d1c565b604187634e487b7160e01b6000525260246000fd5b8116611c7e565b809150600c5416331490611c0b565b809150600e5416331490611c04565b5034610316576020806003193601126103165781356000818152600f835260409020600101549092906001600160a01b031633036120f25782600052600f825260ff60016040600020015460a01c16156120c35750600f9082600052526000600160408220828155015533907f08202ab9068fa5e6ea16e04517a8c260f8b0d6714d979788967e4bfb1faca28d600080a3005b6064916040519162461bcd60e51b8352820152600a602482015269139bdd081b1a5cdd195960b21b6044820152fd5b6064916040519162461bcd60e51b8352820152600e60248201526d2737ba103a34329039b2b63632b960911b6044820152fd5b346103165760203660031901126103165761213e612e29565b612146613184565b600e80546001600160a01b0319166001600160a01b0392909216919091179055005b50346103165760203660031901126103165735600052600a60205261046c610f1d6040600020612fc0565b34610316576107786107736121a736612f51565b90604051926121b584612ec0565b6000845261076361075e84336133dc565b3461031657600036600319011261031657600d546040516001600160a01b039091168152602090f35b503461031657600036600319011261031657612209613184565b60008080804760018060a01b03600754165af16122246135b5565b501561222c57005b60649060206040519162461bcd60e51b8352820152601160248201527015da5d1a191c985dd85b0819985a5b1959607a1b6044820152fd5b346103165760003660031901126103165760206040516127108152f35b346103165761077861229236612f51565b916122a061075e84336133dc565b6134a4565b503461031657602036600319011261031657600e546122d890336001600160a01b039182161490811561056c5750613b46565b35600052600b60205261077860406000206122fc63ffffffff825460d01c16613b83565b815463ffffffff60d01b191660d09190911b63ffffffff60d01b16179055565b506020806003193601126103165781356123346138b2565b6123506123408261329f565b6001600160a01b03163314613aec565b6611c37937e0800034106127165780600052600b9182815260ff600193600a82866040600020015460281c1610156126d257836000528083526123bb856040600020016123a284825460281c16613b35565b60ff60281b82549160281b169060ff60281b1916179055565b6123e16040516123ca81612ea4565b60058152643a3930b4b760d91b8582015285613c6b565b600360058206910690868201809211611b1a5796877f7baa804ecf3f4c341af2368b8f1ddd8adee82f9fa5de6f7dfbf99936c2c2235a96979815806126ba575b1561248b57505061244090866000528285528360406000205416613803565b80606410600014612486575060645b85600052818452826040600020911660ff198254161790555b846000528252846040600020015460281c16604051908152a2600855005b61244f565b8881148061269f575b156124fb5750506124b690866000528285528360406000205460081c16613803565b82816064106000146124f2576124ed915060645b876000528386521660406000209061ff0082549160081b169061ff001916179055565b612468565b6124ed916124ca565b6002811480612684575b1561256957505061252790866000528285528360406000205460101c16613803565b8281606410600014612560576124ed915060645b876000528386521660406000209062ff000082549160101b169062ff00001916179055565b6124ed9161253b565b6003811480612669575b156125d957505061259590866000528285528360406000205460181c16613803565b82816064106000146125d0576124ed915060645b876000528386521660406000209063ff00000082549160181b169063ff0000001916179055565b6124ed916125a9565b148061264f575b6125eb575b50612468565b612605908660005282855283604060002054861c16613803565b828160641060001461264657612640915060645b876000528386521660406000209060ff60201b82549160201b169060ff60201b1916179055565b386125e5565b61264091612619565b5085600052818452606483604060002054861c16106125e0565b508760005283865260648560406000205460181c1610612573565b508760005283865260648560406000205460101c1610612505565b508760005283865260648560406000205460081c1610612494565b50876000528386526064856040600020541610612421565b60405162461bcd60e51b8152808701849052601a60248201527f4d617820747261696e696e67206c6576656c20726561636865640000000000006044820152606490fd5b60405162461bcd60e51b8152808401839052602160248201527f496e73756666696369656e74207061796d656e7420666f7220747261696e696e6044820152606760f81b6064820152608490fd5b50346103165760203660031901126103165735600052600b6020526101c0604060002060018154910154906040519160ff918281168452828160081c166020850152828160101c166040850152828160181c166060850152828160201c166080850152828160281c1660a085015265ffffffffffff808260301c1660c08601528160601c1660e085015263ffffffff8181809360901c16610100870152818160b01c1661012087015260d01c166101408501528116610160840152818160201c16151561018084015260281c166101a0820152f35b5060403660031901126103165780356024359167ffffffffffffffff9283811161031657366023820112156103165761287b9036906024818501359101612f1a565b906128886123408461329f565b66038d7ea4c680003410612a6e5781518015159081612a62575b5015612a285782600052602090600a82526040600020908351958611612a1357506128cd8154612f86565b601f81116129cd575b5081601f86116001146129485794807f93ba1fd5253bda82916758e6b2a5d92a597015cb1924170d2c0191be6392de22959660009161293d575b508160011b916000199060031b1c19161790555b612938604051928284938452830190612e04565b0390a2005b905084015138612910565b601f1986169082600052836000209160005b8181106129b657509187917f93ba1fd5253bda82916758e6b2a5d92a597015cb1924170d2c0191be6392de2297986001941061299d575b5050811b019055612924565b86015160001960f88460031b161c191690553880612991565b91928560018192868a01518155019401920161295a565b8160005282600020601f870160051c810191848810612a09575b601f0160051c01905b8181106129fd57506128d6565b600081556001016129f0565b90915081906129e7565b604190634e487b7160e01b6000525260246000fd5b60649060206040519162461bcd60e51b83528201526013602482015272092dcecc2d8d2c840dcc2daca40d8cadccee8d606b1b6044820152fd5b602091501115386128a2565b60849060206040519162461bcd60e51b8352820152602160248201527f496e73756666696369656e74207061796d656e7420666f722072656e616d696e6044820152606760f81b6064820152fd5b3461031657602036600319011261031657612ad5612e29565b612add613184565b600d80546001600160a01b0319166001600160a01b0392909216919091179055005b503461031657604036600319011261031657612b19612e29565b602435916001600160a01b03908180612b318661329f565b16931692808414612c2b57803314908115612c06575b5015612b9c57836000526020526040600020826001600160601b0360a01b825416179055612b748361329f565b167f8c5be1e5ebec7d5bd14f71427d1e84f3dd0314c0f7b2291e5b200ac8c7c3b925600080a4005b60849060206040519162461bcd60e51b8352820152603d60248201527f4552433732313a20617070726f76652063616c6c6572206973206e6f7420746f60448201527f6b656e206f776e6572206f7220617070726f76656420666f7220616c6c0000006064820152fd5b9050600052600560205260406000203360005260205260ff6040600020541638612b47565b60405162461bcd60e51b8152602081840152602160248201527f4552433732313a20617070726f76616c20746f2063757272656e74206f776e656044820152603960f91b6064820152608490fd5b50346103165760203660031901126103165761171a602091356132c5565b346103165760003660031901126103165760405160008054612cb881612f86565b80845290600190818116908115610f8a5750600114612ce15761046c84610f1d81860382612edc565b600080805292507f290decd9548b62a8d60345a988386fc84ba6bc95484008f6362f93160ef3e5635b828410612d22575050508101602001610f1d82610f0d565b80546020858701810191909152909301928101612d0a565b5034610316576020366003190112610316573563ffffffff60e01b811680910361031657602090632483248360e11b8114908115612d7e575b506040519015158152f35b6380ac58cd60e01b811491508115612db0575b8115612d9f575b5038612d73565b6301ffc9a760e01b14905038612d98565b635b5e139f60e01b81149150612d91565b3461031657600036600319011261031657806611c37937e0800060209252f35b60005b838110612df45750506000910152565b8181015183820152602001612de4565b90602091612e1d81518092818552858086019101612de1565b601f01601f1916010190565b600435906001600160a01b038216820361031657565b602435906001600160a01b038216820361031657565b6101c0810190811067ffffffffffffffff821117612e7257604052565b634e487b7160e01b600052604160045260246000fd5b6060810190811067ffffffffffffffff821117612e7257604052565b6040810190811067ffffffffffffffff821117612e7257604052565b6020810190811067ffffffffffffffff821117612e7257604052565b90601f8019910116810190811067ffffffffffffffff821117612e7257604052565b67ffffffffffffffff8111612e7257601f01601f191660200190565b929192612f2682612efe565b91612f346040519384612edc565b829481845281830111610316578281602093846000960137010152565b6060906003190112610316576001600160a01b0390600435828116810361031657916024359081168103610316579060443590565b90600182811c92168015612fb6575b6020831014612fa057565b634e487b7160e01b600052602260045260246000fd5b91607f1691612f95565b9060405191826000825492612fd484612f86565b9081845260019485811690816000146130435750600114613000575b5050612ffe92500383612edc565b565b9093915060005260209081600020936000915b81831061302b575050612ffe93508201013880612ff0565b85548884018501529485019487945091830191613013565b915050612ffe94506020925060ff191682840152151560051b8201013880612ff0565b6040906003190112610316576004359060243590565b6020908160408183019282815285518094520193019160005b8281106130a3575050505090565b835185529381019392810192600101613095565b60243590811515820361031657565b9190916101c081019260ff8082511683528060208301511660208401528060408301511660408401528060608301511660608401528060808301511660808401528060a08301511660a084015265ffffffffffff8060c08401511660c085015260e08301511660e084015263ffffffff61010081818501511690850152610120818185015116908501526101408181850151169085015261016090818401511690840152610180808301511515908401526101a08092015116910152565b6007546001600160a01b0316330361319857565b606460405162461bcd60e51b815260206004820152602060248201527f4f776e61626c653a2063616c6c6572206973206e6f7420746865206f776e65726044820152fd5b6001600160a01b031680156131fc57600052600360205260406000205490565b60405162461bcd60e51b815260206004820152602960248201527f4552433732313a2061646472657373207a65726f206973206e6f7420612076616044820152683634b21037bbb732b960b91b6064820152608490fd5b1561325a57565b60405162461bcd60e51b815260206004820152601860248201527f4552433732313a20696e76616c696420746f6b656e20494400000000000000006044820152606490fd5b6000908152600260205260409020546001600160a01b03166132c2811515613253565b90565b6000818152600260205260409020546132e8906001600160a01b03161515613253565b6000908152600460205260409020546001600160a01b031690565b1561330a57565b60405162461bcd60e51b815260206004820152602d60248201527f4552433732313a2063616c6c6572206973206e6f7420746f6b656e206f776e6560448201526c1c881bdc88185c1c1c9bdd9959609a1b6064820152608490fd5b60809060208152603260208201527f4552433732313a207472616e7366657220746f206e6f6e20455243373231526560408201527131b2b4bb32b91034b6b83632b6b2b73a32b960711b60608201520190565b156133bf57565b60405162461bcd60e51b8152806133d860048201613365565b0390fd5b906001600160a01b0380806133f08461329f565b16931691838314938415613423575b50831561340d575b50505090565b613419919293506132c5565b1614388080613407565b909350600052600560205260406000208260005260205260ff6040600020541692386133ff565b1561345157565b60405162461bcd60e51b815260206004820152602560248201527f4552433732313a207472616e736665722066726f6d20696e636f72726563742060448201526437bbb732b960d91b6064820152608490fd5b906134cc916134b28461329f565b6001600160a01b039391841692849290918316841461344a565b1691821561356457816134e9916134e28661329f565b161461344a565b7fddf252ad1be2c89b69c2b068fc378daa952ba7f163c4a11628f55a4df523b3ef60008481526004602052604081206001600160601b0360a01b9081815416905583825260036020526040822060001981540190558482526040822060018154019055858252600260205284604083209182541617905580a4565b60405162461bcd60e51b8152602060048201526024808201527f4552433732313a207472616e7366657220746f20746865207a65726f206164646044820152637265737360e01b6064820152608490fd5b3d156135e0573d906135c682612efe565b916135d46040519384612edc565b82523d6000602084013e565b606090565b909190803b156136d5576020604051809281630a85bd0160e11b968782523360048301528161362e60009889938460248501526044840152608060648401526084830190612e04565b03926001600160a01b03165af190829082613686575b5050613678576136526135b5565b805190816136735760405162461bcd60e51b8152806133d860048201613365565b602001fd5b6001600160e01b0319161490565b909192506020813d82116136cd575b816136a260209383612edc565b810103126136c95751906001600160e01b0319821682036136c65750903880613644565b80fd5b5080fd5b3d9150613695565b505050600190565b919290803b1561375257604051630a85bd0160e11b8082523360048301526001600160a01b03948516602483015260448201959095526080606482015291602091839182908190613732906084830190612e04565b03916000968791165af190829082613686575050613678576136526135b5565b50505050600190565b1561376257565b60405162461bcd60e51b8152602060048201526014602482015273125b9cdd59999a58da595b9d081c185e5b595b9d60621b6044820152606490fd5b156137a557565b60405162461bcd60e51b815260206004820152601260248201527113585e081cdd5c1c1b1e481c995858da195960721b6044820152606490fd5b604051906137ec82612ea4565b60088252670e6e8e4cadccee8d60c31b6020830152565b9190820180921161381057565b634e487b7160e01b600052601160045260246000fd5b6040519061383382612ea4565b60058252641cdc19595960da1b6020830152565b6040519061385482612ea4565b60078252667374616d696e6160c81b6020830152565b6040519061387782612ea4565b600c82526b696e74656c6c6967656e636560a01b6020830152565b6040519061389f82612ea4565b60048252636c75636b60e01b6020830152565b6002600854146138c3576002600855565b60405162461bcd60e51b815260206004820152601f60248201527f5265656e7472616e637947756172643a207265656e7472616e742063616c6c006044820152606490fd5b60405161391481612ec0565b6000808252926001600160a01b0383169283156139d9578161077394612ffe9661395c61395684600052600260205260018060a01b0360406000205416151590565b15613a1d565b60008381526002602052604090205461397f906001600160a01b03161515613956565b81815260036020526040812060018154019055828152600260205260408120826001600160601b0360a01b8254161790557fddf252ad1be2c89b69c2b068fc378daa952ba7f163c4a11628f55a4df523b3ef8180a46135e5565b606460405162461bcd60e51b815260206004820152602060248201527f4552433732313a206d696e7420746f20746865207a65726f20616464726573736044820152fd5b15613a2457565b60405162461bcd60e51b815260206004820152601c60248201527f4552433732313a20746f6b656e20616c7265616479206d696e746564000000006044820152606490fd5b67ffffffffffffffff8111612e725760051b60200190565b90613a8b82613a69565b613a986040519182612edc565b8281528092613aa9601f1991613a69565b0190602036910137565b60001981146138105760010190565b8051821015613ad65760209160051b010190565b634e487b7160e01b600052603260045260246000fd5b15613af357565b60405162461bcd60e51b815260206004820152600d60248201526c2737ba103a34329037bbb732b960991b6044820152606490fd5b9190820391821161381057565b60ff1660ff81146138105760010190565b15613b4d57565b60405162461bcd60e51b815260206004820152600e60248201526d139bdd08185d5d1a1bdc9a5e995960921b6044820152606490fd5b63ffffffff8091169081146138105760010190565b15613b9f57565b60405162461bcd60e51b8152602060048201526014602482015273151bdad95b88191bd95cc81b9bdd08195e1a5cdd60621b6044820152606490fd5b63ffffffff8091168015613c05576064613bf59104613c0c565b80613c01575050600190565b1690565b5050600190565b8015613c6557600180820180831161381057811c90825b838310613c305750505090565b91925090828015613c505780613c47918304613803565b821c9190613c23565b60246000634e487b7160e01b81526012600452fd5b50600090565b90613cb66094604051809360208201954287524460408401526060830152613c9d815180926020608086019101612de1565b81013360601b6080820152036074810184520182612edc565b5190209056fea264697066735822122002ef9d370a4e70f832f218118444ab2d21d877b03013d3d536d82095954a4a0864736f6c63430008140033","opcodes":"PUSH1 0x80 CALLVALUE PUSH3 0x35D JUMPI PUSH1 0x1 PUSH1 0x1 PUSH1 0x40 SHL SUB SWAP1 PUSH1 0x40 SWAP1 DUP1 DUP3 ADD DUP4 DUP2 GT DUP3 DUP3 LT OR PUSH3 0x347 JUMPI DUP3 MSTORE PUSH1 0xA DUP2 MSTORE PUSH1 0x20 SWAP2 PUSH10 0x43727970746F48656E73 PUSH1 0xB0 SHL DUP4 DUP4 ADD MSTORE DUP1 MLOAD SWAP4 DUP2 DUP6 ADD DUP6 DUP2 LT DUP3 DUP3 GT OR PUSH3 0x347 JUMPI DUP3 MSTORE PUSH1 0x3 DUP6 MSTORE PUSH3 0x2422A7 PUSH1 0xE9 SHL DUP5 DUP7 ADD MSTORE DUP3 MLOAD DUP2 DUP2 GT PUSH3 0x347 JUMPI PUSH1 0x0 SWAP5 DUP6 SLOAD SWAP2 PUSH1 0x1 SWAP6 DUP7 DUP5 DUP2 SHR SWAP5 AND DUP1 ISZERO PUSH3 0x33C JUMPI JUMPDEST DUP4 DUP6 LT EQ PUSH3 0x328 JUMPI DUP2 SWAP1 PUSH1 0x1F SWAP5 DUP6 DUP2 GT PUSH3 0x2D5 JUMPI JUMPDEST POP DUP4 SWAP1 DUP6 DUP4 GT PUSH1 0x1 EQ PUSH3 0x271 JUMPI DUP10 SWAP3 PUSH3 0x265 JUMPI JUMPDEST POP POP PUSH1 0x0 NOT PUSH1 0x3 DUP4 SWAP1 SHL SHR NOT AND SWAP1 DUP7 SHL OR DUP7 SSTORE JUMPDEST DUP7 MLOAD SWAP3 DUP4 GT PUSH3 0x251 JUMPI DUP5 SLOAD DUP6 DUP2 DUP2 SHR SWAP2 AND DUP1 ISZERO PUSH3 0x246 JUMPI JUMPDEST DUP3 DUP3 LT EQ PUSH3 0x232 JUMPI DUP3 DUP2 GT PUSH3 0x1EA JUMPI JUMPDEST POP DUP1 SWAP2 DUP4 GT PUSH1 0x1 EQ PUSH3 0x181 JUMPI POP DUP5 SWAP6 DUP3 SWAP4 SWAP5 SWAP6 SWAP3 PUSH3 0x175 JUMPI JUMPDEST POP POP PUSH1 0x0 NOT PUSH1 0x3 DUP4 SWAP1 SHL SHR NOT AND SWAP1 DUP4 SHL OR DUP3 SSTORE JUMPDEST PUSH1 0x7 DUP1 SLOAD CALLER PUSH1 0x1 PUSH1 0x1 PUSH1 0xA0 SHL SUB NOT DUP3 AND DUP2 OR SWAP1 SWAP3 SSTORE SWAP2 MLOAD SWAP4 SWAP1 SWAP2 PUSH1 0x1 PUSH1 0x1 PUSH1 0xA0 SHL SUB AND SWAP1 PUSH32 0x8BE0079C531659141344CD1FD0A4F28419497F9722A3DAAFE3B4186F6B6457E0 SWAP1 DUP1 LOG3 PUSH1 0x8 SSTORE PUSH2 0x3CF2 SWAP1 DUP2 PUSH3 0x363 DUP3 CODECOPY RETURN JUMPDEST ADD MLOAD SWAP1 POP CODESIZE DUP1 PUSH3 0x109 JUMP JUMPDEST SWAP1 PUSH1 0x1F NOT DUP4 AND SWAP7 DUP6 DUP8 MSTORE DUP3 DUP8 KECCAK256 SWAP3 DUP8 SWAP1 JUMPDEST DUP10 DUP3 LT PUSH3 0x1D2 JUMPI POP POP DUP4 DUP7 SWAP8 SWAP9 SWAP7 SWAP6 SWAP7 LT PUSH3 0x1B8 JUMPI JUMPDEST POP POP POP DUP2 SHL ADD DUP3 SSTORE PUSH3 0x11D JUMP JUMPDEST ADD MLOAD PUSH1 0x0 NOT PUSH1 0xF8 DUP5 PUSH1 0x3 SHL AND SHR NOT AND SWAP1 SSTORE CODESIZE DUP1 DUP1 PUSH3 0x1AA JUMP JUMPDEST DUP1 DUP9 DUP6 SWAP7 DUP3 SWAP5 SWAP7 DUP7 ADD MLOAD DUP2 SSTORE ADD SWAP6 ADD SWAP4 ADD SWAP1 PUSH3 0x192 JUMP JUMPDEST DUP6 DUP8 MSTORE DUP2 DUP8 KECCAK256 DUP4 DUP1 DUP7 ADD PUSH1 0x5 SHR DUP3 ADD SWAP3 DUP5 DUP8 LT PUSH3 0x228 JUMPI JUMPDEST ADD PUSH1 0x5 SHR ADD SWAP1 DUP7 SWAP1 JUMPDEST DUP3 DUP2 LT PUSH3 0x21C JUMPI POP POP PUSH3 0xEE JUMP JUMPDEST DUP9 DUP2 SSTORE ADD DUP7 SWAP1 PUSH3 0x20C JUMP JUMPDEST SWAP3 POP DUP2 SWAP3 PUSH3 0x203 JUMP JUMPDEST PUSH4 0x4E487B71 PUSH1 0xE0 SHL DUP8 MSTORE PUSH1 0x22 PUSH1 0x4 MSTORE PUSH1 0x24 DUP8 REVERT JUMPDEST SWAP1 PUSH1 0x7F AND SWAP1 PUSH3 0xDC JUMP JUMPDEST PUSH4 0x4E487B71 PUSH1 0xE0 SHL DUP7 MSTORE PUSH1 0x41 PUSH1 0x4 MSTORE PUSH1 0x24 DUP7 REVERT JUMPDEST ADD MLOAD SWAP1 POP CODESIZE DUP1 PUSH3 0xAE JUMP JUMPDEST DUP10 DUP1 MSTORE DUP5 DUP11 KECCAK256 DUP10 SWAP5 POP SWAP2 SWAP1 PUSH1 0x1F NOT DUP5 AND DUP12 JUMPDEST DUP8 DUP3 DUP3 LT PUSH3 0x2BE JUMPI POP POP DUP5 GT PUSH3 0x2A4 JUMPI JUMPDEST POP POP POP DUP2 SHL ADD DUP7 SSTORE PUSH3 0xC2 JUMP JUMPDEST ADD MLOAD PUSH1 0x0 NOT PUSH1 0xF8 DUP5 PUSH1 0x3 SHL AND SHR NOT AND SWAP1 SSTORE CODESIZE DUP1 DUP1 PUSH3 0x296 JUMP JUMPDEST DUP4 DUP6 ADD MLOAD DUP7 SSTORE DUP13 SWAP8 SWAP1 SWAP6 ADD SWAP5 SWAP4 DUP5 ADD SWAP4 ADD PUSH3 0x283 JUMP JUMPDEST SWAP1 SWAP2 POP DUP9 DUP1 MSTORE DUP4 DUP10 KECCAK256 DUP6 DUP1 DUP6 ADD PUSH1 0x5 SHR DUP3 ADD SWAP3 DUP7 DUP7 LT PUSH3 0x31E JUMPI JUMPDEST SWAP2 DUP11 SWAP2 DUP7 SWAP6 SWAP5 SWAP4 ADD PUSH1 0x5 SHR ADD SWAP2 JUMPDEST DUP3 DUP2 LT PUSH3 0x30F JUMPI POP POP PUSH3 0x98 JUMP JUMPDEST DUP12 DUP2 SSTORE DUP6 SWAP5 POP DUP11 SWAP2 ADD PUSH3 0x2FF JUMP JUMPDEST SWAP3 POP DUP2 SWAP3 PUSH3 0x2F1 JUMP JUMPDEST PUSH4 0x4E487B71 PUSH1 0xE0 SHL DUP9 MSTORE PUSH1 0x22 PUSH1 0x4 MSTORE PUSH1 0x24 DUP9 REVERT JUMPDEST SWAP4 PUSH1 0x7F AND SWAP4 PUSH3 0x81 JUMP JUMPDEST PUSH4 0x4E487B71 PUSH1 0xE0 SHL PUSH1 0x0 MSTORE PUSH1 0x41 PUSH1 0x4 MSTORE PUSH1 0x24 PUSH1 0x0 REVERT JUMPDEST PUSH1 0x0 DUP1 REVERT INVALID PUSH1 0x80 DUP1 PUSH1 0x40 MSTORE PUSH1 0x4 SWAP1 DUP2 CALLDATASIZE LT ISZERO PUSH2 0x15 JUMPI PUSH1 0x0 DUP1 REVERT JUMPDEST PUSH1 0x0 CALLDATALOAD PUSH1 0xE0 SHR SWAP1 DUP2 PUSH4 0x139C414 EQ PUSH2 0x2DC1 JUMPI POP DUP1 PUSH4 0x1FFC9A7 EQ PUSH2 0x2D3A JUMPI DUP1 PUSH4 0x6FDDE03 EQ PUSH2 0x2C97 JUMPI DUP1 PUSH4 0x81812FC EQ PUSH2 0x2C79 JUMPI DUP1 PUSH4 0x95EA7B3 EQ PUSH2 0x2AFF JUMPI DUP1 PUSH4 0xDB6DFF7 EQ PUSH2 0x2ABC JUMPI DUP1 PUSH4 0x11712CC3 EQ PUSH2 0x2839 JUMPI DUP1 PUSH4 0x1733CDC8 EQ PUSH2 0x2764 JUMPI DUP1 PUSH4 0x19DD0CD8 EQ PUSH2 0x231C JUMPI DUP1 PUSH4 0x20960C46 EQ PUSH2 0x22A5 JUMPI DUP1 PUSH4 0x23B872DD EQ PUSH2 0x2281 JUMPI DUP1 PUSH4 0x32CB6B0C EQ PUSH2 0x2264 JUMPI DUP1 PUSH4 0x3CCFD60B EQ PUSH2 0x21EF JUMPI DUP1 PUSH4 0x423B1CA3 EQ PUSH2 0x21C6 JUMPI DUP1 PUSH4 0x42842E0E EQ PUSH2 0x2193 JUMPI DUP1 PUSH4 0x4AC18640 EQ PUSH2 0x2168 JUMPI DUP1 PUSH4 0x4B978505 EQ PUSH2 0x2125 JUMPI DUP1 PUSH4 0x50C7D5A0 EQ PUSH2 0x2030 JUMPI DUP1 PUSH4 0x5146EA0E EQ PUSH2 0x1BD7 JUMPI DUP1 PUSH4 0x5948E5E4 EQ PUSH2 0x172C JUMPI DUP1 PUSH4 0x6352211E EQ PUSH2 0x16FC JUMPI DUP1 PUSH4 0x6A6EF765 EQ PUSH2 0x16E0 JUMPI DUP1 PUSH4 0x70A08231 EQ PUSH2 0x16BD JUMPI DUP1 PUSH4 0x70E6E99A EQ PUSH2 0x1601 JUMPI DUP1 PUSH4 0x715018A6 EQ PUSH2 0x15A4 JUMPI DUP1 PUSH4 0x7BBA64AF EQ PUSH2 0x13CF JUMPI DUP1 PUSH4 0x7DEB0BF1 EQ PUSH2 0x10A7 JUMPI DUP1 PUSH4 0x836E3375 EQ PUSH2 0x107E JUMPI DUP1 PUSH4 0x85D4D882 EQ PUSH2 0x1062 JUMPI DUP1 PUSH4 0x89D796E4 EQ PUSH2 0x1039 JUMPI DUP1 PUSH4 0x8C5527CF EQ PUSH2 0xFF6 JUMPI DUP1 PUSH4 0x8C5ABC24 EQ PUSH2 0xFDA JUMPI DUP1 PUSH4 0x8DA5CB5B EQ PUSH2 0xFB1 JUMPI DUP1 PUSH4 0x95D89B41 EQ PUSH2 0xED2 JUMPI DUP1 PUSH4 0x9C103C61 EQ PUSH2 0xEB6 JUMPI DUP1 PUSH4 0x9C903FF0 EQ PUSH2 0xB23 JUMPI DUP1 PUSH4 0xA22CB465 EQ PUSH2 0xA50 JUMPI DUP1 PUSH4 0xA2E96035 EQ PUSH2 0xA34 JUMPI DUP1 PUSH4 0xA6345141 EQ PUSH2 0x8B0 JUMPI DUP1 PUSH4 0xAFA2CF03 EQ PUSH2 0x796 JUMPI DUP1 PUSH4 0xB795945B EQ PUSH2 0x77A JUMPI DUP1 PUSH4 0xB88D4FDE EQ PUSH2 0x6F2 JUMPI DUP1 PUSH4 0xBCAF673F EQ PUSH2 0x59C JUMPI DUP1 PUSH4 0xC002D23D EQ PUSH2 0x57A JUMPI DUP1 PUSH4 0xC62E0435 EQ PUSH2 0x470 JUMPI DUP1 PUSH4 0xC87B56DD EQ PUSH2 0x3FB JUMPI DUP1 PUSH4 0xCE1B98C8 EQ PUSH2 0x3DF JUMPI DUP1 PUSH4 0xD773154F EQ PUSH2 0x3BD JUMPI DUP1 PUSH4 0xDE74E57B EQ PUSH2 0x371 JUMPI DUP1 PUSH4 0xE985E9C5 EQ PUSH2 0x31B JUMPI PUSH4 0xF2FDE38B EQ PUSH2 0x252 JUMPI PUSH1 0x0 DUP1 REVERT JUMPDEST CALLVALUE PUSH2 0x316 JUMPI PUSH1 0x20 CALLDATASIZE PUSH1 0x3 NOT ADD SLT PUSH2 0x316 JUMPI PUSH2 0x26B PUSH2 0x2E29 JUMP JUMPDEST PUSH2 0x273 PUSH2 0x3184 JUMP JUMPDEST PUSH1 0x1 PUSH1 0x1 PUSH1 0xA0 SHL SUB SWAP1 DUP2 AND SWAP2 DUP3 ISZERO PUSH2 0x2C3 JUMPI POP PUSH1 0x7 SLOAD DUP3 PUSH1 0x1 PUSH1 0x1 PUSH1 0x60 SHL SUB PUSH1 0xA0 SHL DUP3 AND OR PUSH1 0x7 SSTORE AND PUSH32 0x8BE0079C531659141344CD1FD0A4F28419497F9722A3DAAFE3B4186F6B6457E0 PUSH1 0x0 DUP1 LOG3 STOP JUMPDEST PUSH1 0x84 SWAP1 PUSH1 0x20 PUSH1 0x40 MLOAD SWAP2 PUSH3 0x461BCD PUSH1 0xE5 SHL DUP4 MSTORE DUP3 ADD MSTORE PUSH1 0x26 PUSH1 0x24 DUP3 ADD MSTORE PUSH32 0x4F776E61626C653A206E6577206F776E657220697320746865207A65726F2061 PUSH1 0x44 DUP3 ADD MSTORE PUSH6 0x646472657373 PUSH1 0xD0 SHL PUSH1 0x64 DUP3 ADD MSTORE REVERT JUMPDEST PUSH1 0x0 DUP1 REVERT JUMPDEST CALLVALUE PUSH2 0x316 JUMPI PUSH1 0x40 CALLDATASIZE PUSH1 0x3 NOT ADD SLT PUSH2 0x316 JUMPI PUSH2 0x334 PUSH2 0x2E29 JUMP JUMPDEST PUSH2 0x33C PUSH2 0x2E3F JUMP JUMPDEST SWAP1 PUSH1 0x1 DUP1 PUSH1 0xA0 SHL SUB DUP1 SWAP2 AND PUSH1 0x0 MSTORE PUSH1 0x5 PUSH1 0x20 MSTORE PUSH1 0x40 PUSH1 0x0 KECCAK256 SWAP2 AND PUSH1 0x0 MSTORE PUSH1 0x20 MSTORE PUSH1 0x20 PUSH1 0xFF PUSH1 0x40 PUSH1 0x0 KECCAK256 SLOAD AND PUSH1 0x40 MLOAD SWAP1 ISZERO ISZERO DUP2 MSTORE RETURN JUMPDEST POP CALLVALUE PUSH2 0x316 JUMPI PUSH1 0x20 CALLDATASIZE PUSH1 0x3 NOT ADD SLT PUSH2 0x316 JUMPI CALLDATALOAD PUSH1 0x0 MSTORE PUSH1 0xF PUSH1 0x20 MSTORE PUSH1 0x60 PUSH1 0x40 PUSH1 0x0 KECCAK256 PUSH1 0xFF PUSH1 0x1 DUP3 SLOAD SWAP3 ADD SLOAD PUSH1 0x40 MLOAD SWAP3 DUP4 MSTORE PUSH1 0x1 DUP1 PUSH1 0xA0 SHL SUB DUP2 AND PUSH1 0x20 DUP5 ADD MSTORE PUSH1 0xA0 SHR AND ISZERO ISZERO PUSH1 0x40 DUP3 ADD MSTORE RETURN JUMPDEST CALLVALUE PUSH2 0x316 JUMPI PUSH1 0x0 CALLDATASIZE PUSH1 0x3 NOT ADD SLT PUSH2 0x316 JUMPI PUSH1 0x20 PUSH1 0x40 MLOAD PUSH7 0x38D7EA4C68000 DUP2 MSTORE RETURN JUMPDEST CALLVALUE PUSH2 0x316 JUMPI PUSH1 0x0 CALLDATASIZE PUSH1 0x3 NOT ADD SLT PUSH2 0x316 JUMPI PUSH1 0x20 PUSH1 0x40 MLOAD PUSH1 0x32 DUP2 MSTORE RETURN JUMPDEST POP CALLVALUE PUSH2 0x316 JUMPI PUSH1 0x20 CALLDATASIZE PUSH1 0x3 NOT ADD SLT PUSH2 0x316 JUMPI CALLDATALOAD PUSH1 0x0 DUP2 DUP2 MSTORE PUSH1 0x2 PUSH1 0x20 MSTORE PUSH1 0x40 SWAP1 KECCAK256 SLOAD PUSH2 0x431 SWAP1 PUSH1 0x1 PUSH1 0x1 PUSH1 0xA0 SHL SUB AND ISZERO ISZERO PUSH2 0x3253 JUMP JUMPDEST PUSH1 0x0 MSTORE PUSH1 0x6 PUSH1 0x20 MSTORE PUSH2 0x46C PUSH2 0x449 PUSH1 0x40 PUSH1 0x0 KECCAK256 PUSH2 0x2FC0 JUMP JUMPDEST PUSH1 0x0 PUSH1 0x40 MLOAD PUSH2 0x457 DUP2 PUSH2 0x2EC0 JUMP JUMPDEST MSTORE PUSH1 0x40 MLOAD SWAP2 DUP3 SWAP2 PUSH1 0x20 DUP4 MSTORE PUSH1 0x20 DUP4 ADD SWAP1 PUSH2 0x2E04 JUMP JUMPDEST SUB SWAP1 RETURN JUMPDEST POP CALLVALUE PUSH2 0x316 JUMPI PUSH1 0x40 CALLDATASIZE PUSH1 0x3 NOT ADD SLT PUSH2 0x316 JUMPI CALLDATALOAD PUSH32 0x19D86B8EDFCD6CF16DAAF1EE062FA483161495CF6AD50132E27637B7ED38FB88 PUSH1 0x20 PUSH2 0x4AE PUSH2 0x30B7 JUMP JUMPDEST PUSH1 0xD SLOAD PUSH2 0x4D0 SWAP1 CALLER PUSH1 0x1 PUSH1 0x1 PUSH1 0xA0 SHL SUB SWAP2 DUP3 AND EQ SWAP1 DUP2 ISZERO PUSH2 0x56C JUMPI JUMPDEST POP PUSH2 0x3B46 JUMP JUMPDEST DUP1 ISZERO PUSH2 0x524 JUMPI DUP4 PUSH1 0x0 MSTORE PUSH1 0xB DUP3 MSTORE PUSH2 0x519 PUSH1 0x40 PUSH1 0x0 KECCAK256 PUSH2 0x4F9 PUSH4 0xFFFFFFFF DUP3 SLOAD PUSH1 0x90 SHR AND PUSH2 0x3B83 JUMP JUMPDEST DUP2 SLOAD PUSH4 0xFFFFFFFF PUSH1 0x90 SHL NOT AND PUSH1 0x90 SWAP2 SWAP1 SWAP2 SHL PUSH4 0xFFFFFFFF PUSH1 0x90 SHL AND OR SWAP1 SSTORE JUMP JUMPDEST PUSH1 0x40 MLOAD SWAP1 ISZERO ISZERO DUP2 MSTORE LOG2 STOP JUMPDEST DUP4 PUSH1 0x0 MSTORE PUSH1 0xB DUP3 MSTORE PUSH2 0x567 PUSH1 0x40 PUSH1 0x0 KECCAK256 PUSH2 0x547 PUSH4 0xFFFFFFFF DUP3 SLOAD PUSH1 0xB0 SHR AND PUSH2 0x3B83 JUMP JUMPDEST DUP2 SLOAD PUSH4 0xFFFFFFFF PUSH1 0xB0 SHL NOT AND PUSH1 0xB0 SWAP2 SWAP1 SWAP2 SHL PUSH4 0xFFFFFFFF PUSH1 0xB0 SHL AND OR SWAP1 SSTORE JUMP JUMPDEST PUSH2 0x519 JUMP JUMPDEST SWAP1 POP PUSH1 0x7 SLOAD AND CALLER EQ CODESIZE PUSH2 0x4CA JUMP JUMPDEST CALLVALUE PUSH2 0x316 JUMPI PUSH1 0x0 CALLDATASIZE PUSH1 0x3 NOT ADD SLT PUSH2 0x316 JUMPI PUSH1 0x20 PUSH1 0x40 MLOAD PUSH7 0x2386F26FC10000 DUP2 MSTORE RETURN JUMPDEST POP CALLVALUE PUSH2 0x316 JUMPI PUSH2 0x5AB CALLDATASIZE PUSH2 0x3066 JUMP JUMPDEST SWAP2 PUSH2 0x5B5 DUP3 PUSH2 0x329F JUMP JUMPDEST PUSH1 0x1 PUSH1 0x1 PUSH1 0xA0 SHL SUB SWAP2 SWAP1 PUSH2 0x5CC SWAP1 DUP4 AND CALLER EQ PUSH2 0x3AEC JUMP JUMPDEST DUP4 ISZERO PUSH2 0x6AE JUMPI DUP3 PUSH1 0x0 MSTORE PUSH1 0xF PUSH1 0x20 MSTORE PUSH1 0xFF PUSH1 0x1 PUSH1 0x40 PUSH1 0x0 KECCAK256 ADD SLOAD PUSH1 0xA0 SHR AND PUSH2 0x679 JUMPI POP PUSH1 0x40 MLOAD PUSH2 0x5FB DUP2 PUSH2 0x2E88 JUMP JUMPDEST DUP4 DUP2 MSTORE PUSH1 0x20 DUP2 ADD SWAP2 CALLER DUP4 MSTORE PUSH1 0x1 PUSH1 0x40 DUP4 ADD SWAP3 DUP2 DUP5 MSTORE DUP6 PUSH1 0x0 MSTORE PUSH1 0xF PUSH1 0x20 MSTORE PUSH1 0x40 PUSH1 0x0 KECCAK256 SWAP1 MLOAD DUP2 SSTORE ADD SWAP3 MLOAD AND DUP3 SLOAD SWAP2 PUSH1 0xFF PUSH1 0xA0 SHL SWAP1 MLOAD ISZERO ISZERO PUSH1 0xA0 SHL AND SWAP2 PUSH11 0xFFFFFFFFFFFFFFFFFFFFFF PUSH1 0xA8 SHL AND OR OR SWAP1 SSTORE PUSH1 0x40 MLOAD SWAP2 DUP3 MSTORE PUSH32 0xB401EB59E096F41C707ABDA600E71DDB0066743A000C511CCFD6B58CE62141E5 PUSH1 0x20 CALLER SWAP4 LOG3 STOP JUMPDEST PUSH1 0x64 SWAP1 PUSH1 0x20 PUSH1 0x40 MLOAD SWAP2 PUSH3 0x461BCD PUSH1 0xE5 SHL DUP4 MSTORE DUP3 ADD MSTORE PUSH1 0xE PUSH1 0x24 DUP3 ADD MSTORE PUSH14 0x105B1C9958591E481B1A5CDD1959 PUSH1 0x92 SHL PUSH1 0x44 DUP3 ADD MSTORE REVERT JUMPDEST PUSH1 0x64 SWAP1 PUSH1 0x20 PUSH1 0x40 MLOAD SWAP2 PUSH3 0x461BCD PUSH1 0xE5 SHL DUP4 MSTORE DUP3 ADD MSTORE PUSH1 0x1C PUSH1 0x24 DUP3 ADD MSTORE PUSH32 0x5072696365206D7573742062652067726561746572207468616E203000000000 PUSH1 0x44 DUP3 ADD MSTORE REVERT JUMPDEST POP CALLVALUE PUSH2 0x316 JUMPI PUSH1 0x80 CALLDATASIZE PUSH1 0x3 NOT ADD SLT PUSH2 0x316 JUMPI PUSH2 0x70C PUSH2 0x2E29 JUMP JUMPDEST SWAP1 PUSH2 0x715 PUSH2 0x2E3F JUMP JUMPDEST SWAP2 PUSH1 0x44 CALLDATALOAD PUSH1 0x64 CALLDATALOAD SWAP4 PUSH8 0xFFFFFFFFFFFFFFFF DUP6 GT PUSH2 0x316 JUMPI CALLDATASIZE PUSH1 0x23 DUP7 ADD SLT ISZERO PUSH2 0x316 JUMPI PUSH2 0x750 PUSH2 0x773 SWAP5 DUP7 PUSH1 0x24 PUSH2 0x778 SWAP9 CALLDATASIZE SWAP4 ADD CALLDATALOAD SWAP2 ADD PUSH2 0x2F1A JUMP JUMPDEST SWAP3 PUSH2 0x763 PUSH2 0x75E DUP5 CALLER PUSH2 0x33DC JUMP JUMPDEST PUSH2 0x3303 JUMP JUMPDEST PUSH2 0x76E DUP4 DUP4 DUP4 PUSH2 0x34A4 JUMP JUMPDEST PUSH2 0x36DD JUMP JUMPDEST PUSH2 0x33B8 JUMP JUMPDEST STOP JUMPDEST CALLVALUE PUSH2 0x316 JUMPI PUSH1 0x0 CALLDATASIZE PUSH1 0x3 NOT ADD SLT PUSH2 0x316 JUMPI PUSH1 0x20 PUSH1 0x40 MLOAD PUSH1 0xA DUP2 MSTORE RETURN JUMPDEST POP CALLVALUE PUSH2 0x316 JUMPI PUSH1 0x20 SWAP1 DUP2 PUSH1 0x3 NOT CALLDATASIZE ADD SLT PUSH2 0x316 JUMPI CALLDATALOAD PUSH1 0x0 MSTORE PUSH1 0xB DUP2 MSTORE DUP1 PUSH1 0x40 PUSH1 0x0 KECCAK256 PUSH1 0x40 MLOAD SWAP1 PUSH2 0x7C5 DUP3 PUSH2 0x2E55 JUMP JUMPDEST DUP1 SLOAD SWAP2 PUSH1 0xFF SWAP3 DUP4 DUP1 SWAP3 DUP2 DUP4 AND SWAP1 DUP2 DUP2 MSTORE DUP3 DUP5 PUSH1 0x8 SHR AND SWAP1 DUP2 DUP10 DUP3 ADD MSTORE DUP4 PUSH1 0x40 DUP3 ADD SWAP6 DUP2 DUP2 PUSH1 0x10 SHR AND DUP8 MSTORE PUSH1 0x60 DUP4 ADD SWAP9 DUP3 DUP3 PUSH1 0x18 SHR AND DUP11 MSTORE DUP3 DUP3 PUSH1 0x80 DUP7 ADD SWAP14 SHR AND DUP13 MSTORE DUP3 DUP3 PUSH1 0x28 SHR AND PUSH1 0xA0 DUP6 ADD MSTORE PUSH6 0xFFFFFFFFFFFF DUP1 DUP4 PUSH1 0x30 SHR AND PUSH1 0xC0 DUP7 ADD MSTORE DUP3 PUSH1 0x60 SHR AND PUSH1 0xE0 DUP6 ADD MSTORE PUSH4 0xFFFFFFFF DUP3 DUP2 DUP1 SWAP5 PUSH1 0x90 SHR AND PUSH2 0x100 DUP8 ADD MSTORE DUP2 DUP2 PUSH1 0xB0 SHR AND PUSH2 0x120 DUP8 ADD MSTORE PUSH1 0xD0 SHR AND PUSH2 0x140 DUP6 ADD MSTORE PUSH1 0x1 ADD SLOAD SWAP1 DUP2 AND PUSH2 0x160 DUP5 ADD MSTORE DUP2 DUP2 DUP14 SHR AND ISZERO ISZERO PUSH2 0x180 DUP5 ADD MSTORE PUSH1 0x28 SHR AND SWAP1 PUSH2 0x1A0 ADD MSTORE PUSH2 0x884 SWAP2 PUSH2 0x3803 JUMP JUMPDEST SWAP2 MLOAD AND PUSH2 0x890 SWAP2 PUSH2 0x3803 JUMP JUMPDEST SWAP2 MLOAD AND PUSH2 0x89C SWAP2 PUSH2 0x3803 JUMP JUMPDEST SWAP2 MLOAD AND PUSH2 0x8A8 SWAP2 PUSH2 0x3803 JUMP JUMPDEST PUSH1 0x40 MLOAD SWAP1 DUP2 MSTORE RETURN JUMPDEST POP CALLVALUE PUSH2 0x316 JUMPI PUSH1 0x20 DUP1 PUSH1 0x3 NOT CALLDATASIZE ADD SLT PUSH2 0x316 JUMPI PUSH1 0x40 MLOAD PUSH2 0x46C SWAP3 CALLDATALOAD PUSH2 0x8D4 DUP3 PUSH2 0x2E55 JUMP JUMPDEST PUSH1 0x0 DUP3 MSTORE PUSH1 0x0 DUP4 DUP4 ADD MSTORE PUSH1 0x0 PUSH1 0x40 DUP4 ADD MSTORE PUSH1 0x0 PUSH1 0x60 DUP4 ADD MSTORE PUSH1 0x0 PUSH1 0x80 DUP4 ADD MSTORE PUSH1 0x0 PUSH1 0xA0 DUP4 ADD MSTORE PUSH1 0x0 PUSH1 0xC0 DUP4 ADD MSTORE PUSH1 0x0 PUSH1 0xE0 DUP4 ADD MSTORE PUSH2 0x100 SWAP1 PUSH1 0x0 DUP3 DUP5 ADD MSTORE PUSH2 0x120 SWAP1 PUSH1 0x0 DUP3 DUP6 ADD MSTORE PUSH2 0x140 PUSH1 0x0 DUP2 DUP7 ADD MSTORE PUSH2 0x160 SWAP3 PUSH1 0x0 DUP5 DUP8 ADD MSTORE PUSH2 0x180 SWAP3 PUSH1 0x0 DUP5 DUP9 ADD MSTORE PUSH1 0x0 PUSH2 0x1A0 DUP1 SWAP9 ADD MSTORE PUSH2 0x969 PUSH2 0x964 DUP3 PUSH1 0x0 MSTORE PUSH1 0x2 PUSH1 0x20 MSTORE PUSH1 0x1 DUP1 PUSH1 0xA0 SHL SUB PUSH1 0x40 PUSH1 0x0 KECCAK256 SLOAD AND ISZERO ISZERO SWAP1 JUMP JUMPDEST PUSH2 0x3B98 JUMP JUMPDEST PUSH1 0x0 MSTORE PUSH1 0xB DUP8 MSTORE PUSH1 0x40 PUSH1 0x0 KECCAK256 SWAP7 PUSH1 0x1 PUSH1 0x40 MLOAD SWAP9 PUSH2 0x985 DUP11 PUSH2 0x2E55 JUMP JUMPDEST DUP1 SLOAD SWAP5 PUSH1 0xFF SWAP9 DUP7 DUP11 DUP1 SWAP9 AND DUP14 MSTORE DUP13 DUP7 DUP10 DUP4 PUSH1 0x8 SHR AND SWAP2 ADD MSTORE DUP13 PUSH1 0x40 DUP10 DUP4 PUSH1 0x10 SHR AND SWAP2 ADD MSTORE DUP13 PUSH1 0x60 DUP10 DUP4 PUSH1 0x18 SHR AND SWAP2 ADD MSTORE DUP13 PUSH1 0x80 DUP10 DUP4 DUP10 SHR AND SWAP2 ADD MSTORE DUP13 PUSH1 0xA0 DUP10 DUP4 PUSH1 0x28 SHR AND SWAP2 ADD MSTORE DUP13 PUSH1 0xE0 PUSH6 0xFFFFFFFFFFFF DUP1 DUP5 PUSH1 0x30 SHR AND PUSH1 0xC0 DUP5 ADD MSTORE DUP4 PUSH1 0x60 SHR AND SWAP2 ADD MSTORE DUP13 PUSH4 0xFFFFFFFF SWAP8 DUP9 SWAP4 DUP5 DUP5 PUSH1 0x90 SHR AND SWAP1 DUP4 ADD MSTORE DUP4 DUP4 PUSH1 0xB0 SHR AND SWAP2 ADD MSTORE PUSH1 0xD0 SHR AND SWAP1 DUP12 ADD MSTORE ADD SLOAD SWAP5 DUP6 SWAP3 DUP4 AND SWAP1 DUP10 ADD MSTORE SHR AND ISZERO ISZERO SWAP1 DUP6 ADD MSTORE PUSH1 0x28 SHR AND SWAP1 DUP3 ADD MSTORE PUSH1 0x40 MLOAD SWAP2 DUP3 SWAP2 DUP3 PUSH2 0x30C6 JUMP JUMPDEST CALLVALUE PUSH2 0x316 JUMPI PUSH1 0x0 CALLDATASIZE PUSH1 0x3 NOT ADD SLT PUSH2 0x316 JUMPI PUSH1 0x20 PUSH1 0x40 MLOAD PUSH1 0x19 DUP2 MSTORE RETURN JUMPDEST POP CALLVALUE PUSH2 0x316 JUMPI PUSH1 0x40 CALLDATASIZE PUSH1 0x3 NOT ADD SLT PUSH2 0x316 JUMPI PUSH2 0xA6A PUSH2 0x2E29 JUMP JUMPDEST PUSH2 0xA72 PUSH2 0x30B7 JUMP JUMPDEST PUSH1 0x1 PUSH1 0x1 PUSH1 0xA0 SHL SUB SWAP1 SWAP2 AND SWAP2 CALLER DUP4 EQ PUSH2 0xADF JUMPI POP CALLER PUSH1 0x0 MSTORE PUSH1 0x5 PUSH1 0x20 MSTORE PUSH1 0x40 PUSH1 0x0 KECCAK256 DUP3 PUSH1 0x0 MSTORE PUSH1 0x20 MSTORE PUSH1 0x40 PUSH1 0x0 KECCAK256 SWAP1 ISZERO ISZERO SWAP1 PUSH1 0xFF NOT DUP2 SLOAD AND PUSH1 0xFF DUP4 AND OR SWAP1 SSTORE PUSH1 0x40 MLOAD SWAP1 DUP2 MSTORE PUSH32 0x17307EAB39AB6107E8899845AD3D59BD9653F200F220920489CA2B5937696C31 PUSH1 0x20 CALLER SWAP3 LOG3 STOP JUMPDEST PUSH1 0x64 SWAP1 PUSH1 0x20 PUSH1 0x40 MLOAD SWAP2 PUSH3 0x461BCD PUSH1 0xE5 SHL DUP4 MSTORE DUP3 ADD MSTORE PUSH1 0x19 PUSH1 0x24 DUP3 ADD MSTORE PUSH32 0x4552433732313A20617070726F766520746F2063616C6C657200000000000000 PUSH1 0x44 DUP3 ADD MSTORE REVERT JUMPDEST POP PUSH1 0x0 CALLDATASIZE PUSH1 0x3 NOT ADD SLT PUSH2 0x316 JUMPI PUSH2 0xB38 PUSH2 0x38B2 JUMP JUMPDEST PUSH2 0xB4B PUSH7 0x2386F26FC10000 CALLVALUE LT ISZERO PUSH2 0x375B JUMP JUMPDEST PUSH1 0x9 SLOAD PUSH2 0xB5B PUSH2 0x2710 DUP3 LT PUSH2 0x379E JUMP JUMPDEST PUSH1 0x1 DUP2 ADD PUSH1 0x9 SSTORE PUSH2 0xB6F PUSH1 0x1 DUP3 ADD CALLER PUSH2 0x3908 JUMP JUMPDEST PUSH1 0x51 PUSH2 0xB85 PUSH2 0xB7C PUSH2 0x37DF JUMP JUMPDEST PUSH1 0x1 DUP5 ADD PUSH2 0x3C6B JUMP JUMPDEST MOD PUSH1 0x14 DUP2 ADD DUP1 SWAP2 GT PUSH2 0xEA1 JUMPI PUSH1 0x51 PUSH2 0xBA7 PUSH2 0xB9E PUSH2 0x3826 JUMP JUMPDEST PUSH1 0x1 DUP6 ADD PUSH2 0x3C6B JUMP JUMPDEST MOD PUSH1 0x14 DUP2 ADD DUP1 SWAP2 GT PUSH2 0xE8C JUMPI PUSH1 0x51 PUSH2 0xBC9 PUSH2 0xBC0 PUSH2 0x3847 JUMP JUMPDEST PUSH1 0x1 DUP7 ADD PUSH2 0x3C6B JUMP JUMPDEST MOD PUSH1 0x14 DUP2 ADD DUP1 SWAP2 GT PUSH2 0xE77 JUMPI PUSH1 0x51 PUSH2 0xBEB PUSH2 0xBE2 PUSH2 0x386A JUMP JUMPDEST PUSH1 0x1 DUP8 ADD PUSH2 0x3C6B JUMP JUMPDEST MOD SWAP2 PUSH1 0x14 DUP4 ADD DUP1 SWAP4 GT PUSH2 0xE62 JUMPI PUSH1 0x51 PUSH2 0xC0E PUSH2 0xC05 PUSH2 0x3892 JUMP JUMPDEST PUSH1 0x1 DUP9 ADD PUSH2 0x3C6B JUMP JUMPDEST MOD SWAP6 PUSH1 0x14 DUP8 ADD DUP1 SWAP8 GT PUSH2 0xE4D JUMPI POP PUSH1 0xFF SWAP3 DUP4 PUSH1 0x20 SWAP8 SWAP4 DUP2 DUP1 SWAP5 DUP2 PUSH1 0x40 MLOAD SWAP10 PUSH2 0xC35 DUP12 PUSH2 0x2E55 JUMP JUMPDEST AND DUP10 MSTORE AND DUP10 DUP9 ADD MSTORE AND PUSH1 0x40 DUP7 ADD MSTORE AND PUSH1 0x60 DUP5 ADD MSTORE AND PUSH1 0x80 DUP3 ADD MSTORE PUSH1 0x0 PUSH1 0xA0 DUP3 ADD MSTORE PUSH6 0xFFFFFFFFFFFF TIMESTAMP AND PUSH1 0xC0 DUP3 ADD MSTORE PUSH1 0x0 PUSH1 0xE0 DUP3 ADD MSTORE PUSH1 0x0 PUSH2 0x100 DUP3 ADD MSTORE PUSH1 0x0 PUSH2 0x120 DUP3 ADD MSTORE PUSH1 0x0 PUSH2 0x140 DUP3 ADD MSTORE PUSH1 0x0 PUSH2 0x160 DUP3 ADD MSTORE PUSH1 0x1 PUSH2 0x180 DUP3 ADD MSTORE PUSH1 0x0 PUSH2 0x1A0 DUP3 ADD MSTORE PUSH1 0x1 DUP3 ADD PUSH1 0x0 MSTORE PUSH1 0xB DUP4 MSTORE PUSH2 0xE04 PUSH1 0x40 PUSH1 0x0 KECCAK256 PUSH1 0xFF DUP4 MLOAD AND PUSH1 0xFF NOT DUP3 SLOAD AND OR DUP2 SSTORE PUSH2 0xCDD PUSH1 0xFF DUP7 DUP6 ADD MLOAD AND DUP3 SWAP1 PUSH2 0xFF00 DUP3 SLOAD SWAP2 PUSH1 0x8 SHL AND SWAP1 PUSH2 0xFF00 NOT AND OR SWAP1 SSTORE JUMP JUMPDEST PUSH1 0x40 DUP4 ADD MLOAD DUP2 SLOAD PUSH1 0x60 DUP1 DUP7 ADD MLOAD PUSH1 0x80 DUP8 ADD MLOAD PUSH1 0xA0 DUP9 ADD MLOAD PUSH1 0xC0 DUP10 ADD MLOAD PUSH1 0xE0 DUP11 ADD MLOAD PUSH2 0x100 DUP12 ADD MLOAD PUSH2 0x120 DUP13 ADD MLOAD PUSH2 0x140 DUP14 ADD MLOAD PUSH1 0xB0 SWAP2 SWAP1 SWAP2 SHL PUSH4 0xFFFFFFFF PUSH1 0xB0 SHL AND PUSH1 0x90 SWAP3 SWAP1 SWAP3 SHL PUSH4 0xFFFFFFFF PUSH1 0x90 SHL AND SWAP3 SWAP1 SWAP8 SHL PUSH6 0xFFFFFFFFFFFF PUSH1 0x60 SHL AND PUSH1 0x30 SWAP4 SWAP1 SWAP4 SHL PUSH6 0xFFFFFFFFFFFF PUSH1 0x30 SHL AND PUSH1 0x28 SWAP5 DUP6 SHL PUSH1 0xFF PUSH1 0x28 SHL SWAP1 DUP2 AND PUSH1 0x20 SWAP8 SWAP1 SWAP8 SHL PUSH1 0xFF PUSH1 0x20 SHL SWAP1 DUP2 AND PUSH1 0x18 SWAP10 SWAP1 SWAP10 SHL PUSH4 0xFF000000 AND PUSH1 0x10 SWAP13 SWAP1 SWAP13 SHL PUSH3 0xFF0000 AND PUSH3 0x10000 PUSH1 0x1 PUSH1 0xF0 SHL SUB NOT SWAP1 SWAP12 AND SWAP11 SWAP1 SWAP11 OR SWAP11 SWAP1 SWAP11 OR SWAP7 SWAP1 SWAP7 OR SWAP5 SWAP1 SWAP5 OR SWAP5 SWAP1 SWAP5 OR OR SWAP3 SWAP1 SWAP3 OR OR PUSH1 0xD0 SWAP3 SWAP1 SWAP3 SHL PUSH4 0xFFFFFFFF PUSH1 0xD0 SHL AND SWAP2 SWAP1 SWAP2 OR DUP5 SSTORE PUSH2 0x160 DUP7 ADD MLOAD PUSH1 0x1 SWAP1 SWAP5 ADD DUP1 SLOAD PUSH2 0x180 DUP9 ADD MLOAD PUSH2 0x1A0 DUP10 ADD MLOAD SWAP1 SWAP4 SHL SWAP1 SWAP5 AND SWAP2 ISZERO ISZERO DUP10 SHL SWAP1 SWAP3 AND PUSH4 0xFFFFFFFF SWAP1 SWAP5 AND PUSH6 0xFFFFFFFFFFFF NOT SWAP1 SWAP4 AND SWAP3 SWAP1 SWAP3 OR SWAP3 SWAP1 SWAP3 OR OR SWAP1 SSTORE JUMP JUMPDEST PUSH1 0x40 MLOAD SWAP1 PUSH32 0x6C776597A9374E4555DFA6F5D16120E7814F9B53F68B69E6F3EA53103579C9B CALLER SWAP3 DUP1 PUSH2 0xE3A PUSH1 0x1 DUP8 ADD SWAP5 DUP3 PUSH2 0x30C6 JUMP JUMPDEST SUB SWAP1 LOG3 PUSH1 0x1 PUSH1 0x8 SSTORE PUSH1 0x1 PUSH1 0x40 MLOAD SWAP2 ADD DUP2 MSTORE RETURN JUMPDEST PUSH1 0x11 SWAP1 PUSH4 0x4E487B71 PUSH1 0xE0 SHL PUSH1 0x0 MSTORE MSTORE PUSH1 0x24 PUSH1 0x0 REVERT JUMPDEST PUSH1 0x11 DUP7 PUSH4 0x4E487B71 PUSH1 0xE0 SHL PUSH1 0x0 MSTORE MSTORE PUSH1 0x24 PUSH1 0x0 REVERT JUMPDEST PUSH1 0x11 DUP6 PUSH4 0x4E487B71 PUSH1 0xE0 SHL PUSH1 0x0 MSTORE MSTORE PUSH1 0x24 PUSH1 0x0 REVERT JUMPDEST PUSH1 0x11 DUP5 PUSH4 0x4E487B71 PUSH1 0xE0 SHL PUSH1 0x0 MSTORE MSTORE PUSH1 0x24 PUSH1 0x0 REVERT JUMPDEST PUSH1 0x11 DUP4 PUSH4 0x4E487B71 PUSH1 0xE0 SHL PUSH1 0x0 MSTORE MSTORE PUSH1 0x24 PUSH1 0x0 REVERT JUMPDEST CALLVALUE PUSH2 0x316 JUMPI PUSH1 0x0 CALLDATASIZE PUSH1 0x3 NOT ADD SLT PUSH2 0x316 JUMPI PUSH1 0x20 PUSH1 0x40 MLOAD PUSH1 0xFA DUP2 MSTORE RETURN JUMPDEST CALLVALUE PUSH2 0x316 JUMPI PUSH1 0x0 CALLDATASIZE PUSH1 0x3 NOT ADD SLT PUSH2 0x316 JUMPI PUSH1 0x40 MLOAD PUSH1 0x0 PUSH1 0x1 DUP1 SLOAD SWAP1 PUSH2 0xEF6 DUP3 PUSH2 0x2F86 JUMP JUMPDEST DUP1 DUP6 MSTORE SWAP2 DUP2 DUP2 AND SWAP1 DUP2 ISZERO PUSH2 0xF8A JUMPI POP PUSH1 0x1 EQ PUSH2 0xF31 JUMPI JUMPDEST PUSH2 0x46C DUP5 PUSH2 0xF1D DUP2 DUP7 SUB DUP3 PUSH2 0x2EDC JUMP JUMPDEST PUSH1 0x40 MLOAD SWAP2 DUP3 SWAP2 PUSH1 0x20 DUP4 MSTORE PUSH1 0x20 DUP4 ADD SWAP1 PUSH2 0x2E04 JUMP JUMPDEST PUSH1 0x0 DUP2 DUP2 MSTORE SWAP3 POP PUSH32 0xB10E2D527612073B26EECDFD717E6A320CF44B4AFAC2B0732D9FCBE2B7FA0CF6 JUMPDEST DUP3 DUP5 LT PUSH2 0xF72 JUMPI POP POP POP DUP2 ADD PUSH1 0x20 ADD PUSH2 0xF1D DUP3 PUSH2 0xF0D JUMP JUMPDEST DUP1 SLOAD PUSH1 0x20 DUP6 DUP8 ADD DUP2 ADD SWAP2 SWAP1 SWAP2 MSTORE SWAP1 SWAP4 ADD SWAP3 DUP2 ADD PUSH2 0xF5A JUMP JUMPDEST PUSH1 0xFF NOT AND PUSH1 0x20 DUP1 DUP8 ADD SWAP2 SWAP1 SWAP2 MSTORE SWAP3 ISZERO ISZERO PUSH1 0x5 SHL DUP6 ADD SWAP1 SWAP3 ADD SWAP3 POP PUSH2 0xF1D SWAP2 POP DUP4 SWAP1 POP PUSH2 0xF0D JUMP JUMPDEST CALLVALUE PUSH2 0x316 JUMPI PUSH1 0x0 CALLDATASIZE PUSH1 0x3 NOT ADD SLT PUSH2 0x316 JUMPI PUSH1 0x7 SLOAD PUSH1 0x40 MLOAD PUSH1 0x1 PUSH1 0x1 PUSH1 0xA0 SHL SUB SWAP1 SWAP2 AND DUP2 MSTORE PUSH1 0x20 SWAP1 RETURN JUMPDEST CALLVALUE PUSH2 0x316 JUMPI PUSH1 0x0 CALLDATASIZE PUSH1 0x3 NOT ADD SLT PUSH2 0x316 JUMPI PUSH1 0x20 PUSH1 0x40 MLOAD PUSH1 0x1E DUP2 MSTORE RETURN JUMPDEST CALLVALUE PUSH2 0x316 JUMPI PUSH1 0x20 CALLDATASIZE PUSH1 0x3 NOT ADD SLT PUSH2 0x316 JUMPI PUSH2 0x100F PUSH2 0x2E29 JUMP JUMPDEST PUSH2 0x1017 PUSH2 0x3184 JUMP JUMPDEST PUSH1 0xC DUP1 SLOAD PUSH1 0x1 PUSH1 0x1 PUSH1 0xA0 SHL SUB NOT AND PUSH1 0x1 PUSH1 0x1 PUSH1 0xA0 SHL SUB SWAP3 SWAP1 SWAP3 AND SWAP2 SWAP1 SWAP2 OR SWAP1 SSTORE STOP JUMPDEST CALLVALUE PUSH2 0x316 JUMPI PUSH1 0x0 CALLDATASIZE PUSH1 0x3 NOT ADD SLT PUSH2 0x316 JUMPI PUSH1 0xE SLOAD PUSH1 0x40 MLOAD PUSH1 0x1 PUSH1 0x1 PUSH1 0xA0 SHL SUB SWAP1 SWAP2 AND DUP2 MSTORE PUSH1 0x20 SWAP1 RETURN JUMPDEST CALLVALUE PUSH2 0x316 JUMPI PUSH1 0x0 CALLDATASIZE PUSH1 0x3 NOT ADD SLT PUSH2 0x316 JUMPI PUSH1 0x20 PUSH1 0x40 MLOAD PUSH1 0x64 DUP2 MSTORE RETURN JUMPDEST CALLVALUE PUSH2 0x316 JUMPI PUSH1 0x0 CALLDATASIZE PUSH1 0x3 NOT ADD SLT PUSH2 0x316 JUMPI PUSH1 0xC SLOAD PUSH1 0x40 MLOAD PUSH1 0x1 PUSH1 0x1 PUSH1 0xA0 SHL SUB SWAP1 SWAP2 AND DUP2 MSTORE PUSH1 0x20 SWAP1 RETURN JUMPDEST POP CALLVALUE PUSH2 0x316 JUMPI PUSH1 0xE0 CALLDATASIZE PUSH1 0x3 NOT ADD SLT PUSH2 0x316 JUMPI PUSH2 0x10C1 PUSH2 0x2E29 JUMP JUMPDEST SWAP1 PUSH1 0x24 CALLDATALOAD SWAP1 PUSH1 0xFF DUP3 AND DUP3 SUB PUSH2 0x316 JUMPI PUSH1 0x44 CALLDATALOAD PUSH1 0xFF DUP2 AND DUP2 SUB PUSH2 0x316 JUMPI PUSH1 0x64 CALLDATALOAD PUSH1 0xFF DUP2 AND DUP2 SUB PUSH2 0x316 JUMPI PUSH1 0x84 CALLDATALOAD SWAP1 PUSH1 0xFF DUP3 AND DUP3 SUB PUSH2 0x316 JUMPI PUSH1 0xA4 CALLDATALOAD SWAP3 PUSH1 0xFF DUP5 AND DUP5 SUB PUSH2 0x316 JUMPI PUSH1 0xC4 CALLDATALOAD SWAP5 PUSH1 0xFF DUP7 AND DUP7 SUB PUSH2 0x316 JUMPI PUSH2 0x111C PUSH2 0x38B2 JUMP JUMPDEST PUSH1 0xC SLOAD PUSH1 0x1 PUSH1 0x1 PUSH1 0xA0 SHL SUB AND CALLER SUB PUSH2 0x1379 JUMPI PUSH1 0x20 PUSH1 0x1 DUP10 DUP10 PUSH1 0xFF DUP11 DUP2 DUP12 DUP2 DUP13 DUP2 DUP14 DUP2 DUP15 PUSH2 0x1160 PUSH1 0x9 SLOAD SWAP14 DUP15 PUSH2 0x1154 PUSH2 0x2710 DUP3 LT PUSH2 0x379E JUMP JUMPDEST ADD PUSH1 0x9 DUP2 SWAP1 SSTORE DUP14 PUSH2 0x3908 JUMP JUMPDEST DUP2 PUSH1 0x40 MLOAD SWAP12 PUSH2 0x116E DUP14 PUSH2 0x2E55 JUMP JUMPDEST AND DUP12 MSTORE AND DUP13 DUP11 ADD MSTORE AND PUSH1 0x40 DUP9 ADD MSTORE AND PUSH1 0x60 DUP7 ADD MSTORE AND PUSH1 0x80 DUP5 ADD MSTORE AND PUSH1 0xA0 DUP3 ADD MSTORE PUSH6 0xFFFFFFFFFFFF TIMESTAMP AND PUSH1 0xC0 DUP3 ADD MSTORE PUSH1 0x0 PUSH1 0xE0 DUP3 ADD MSTORE PUSH1 0x0 PUSH2 0x100 DUP3 ADD MSTORE PUSH1 0x0 PUSH2 0x120 DUP3 ADD MSTORE PUSH1 0x0 PUSH2 0x140 DUP3 ADD MSTORE PUSH1 0x0 PUSH2 0x160 DUP3 ADD MSTORE PUSH1 0x1 PUSH2 0x180 DUP3 ADD MSTORE PUSH1 0x0 PUSH2 0x1A0 DUP3 ADD MSTORE PUSH1 0x1 DUP4 ADD PUSH1 0x0 MSTORE PUSH1 0xB DUP5 MSTORE PUSH2 0x133C PUSH1 0x40 PUSH1 0x0 KECCAK256 PUSH1 0xFF DUP4 MLOAD AND PUSH1 0xFF NOT DUP3 SLOAD AND OR DUP2 SSTORE PUSH2 0x1215 PUSH1 0xFF DUP8 DUP6 ADD MLOAD AND DUP3 SWAP1 PUSH2 0xFF00 DUP3 SLOAD SWAP2 PUSH1 0x8 SHL AND SWAP1 PUSH2 0xFF00 NOT AND OR SWAP1 SSTORE JUMP JUMPDEST PUSH1 0x40 DUP4 ADD MLOAD DUP2 SLOAD PUSH1 0x60 DUP1 DUP7 ADD MLOAD PUSH1 0x80 DUP8 ADD MLOAD PUSH1 0xA0 DUP9 ADD MLOAD PUSH1 0xC0 DUP10 ADD MLOAD PUSH1 0xE0 DUP11 ADD MLOAD PUSH2 0x100 DUP12 ADD MLOAD PUSH2 0x120 DUP13 ADD MLOAD PUSH2 0x140 DUP14 ADD MLOAD PUSH1 0xB0 SWAP2 SWAP1 SWAP2 SHL PUSH4 0xFFFFFFFF PUSH1 0xB0 SHL AND PUSH1 0x90 SWAP3 SWAP1 SWAP3 SHL PUSH4 0xFFFFFFFF PUSH1 0x90 SHL AND SWAP3 SWAP1 SWAP8 SHL PUSH6 0xFFFFFFFFFFFF PUSH1 0x60 SHL AND PUSH1 0x30 SWAP4 SWAP1 SWAP4 SHL PUSH6 0xFFFFFFFFFFFF PUSH1 0x30 SHL AND PUSH1 0x28 SWAP5 DUP6 SHL PUSH1 0xFF PUSH1 0x28 SHL SWAP1 DUP2 AND PUSH1 0x20 SWAP8 SWAP1 SWAP8 SHL PUSH1 0xFF PUSH1 0x20 SHL SWAP1 DUP2 AND PUSH1 0x18 SWAP10 SWAP1 SWAP10 SHL PUSH4 0xFF000000 AND PUSH1 0x10 SWAP13 SWAP1 SWAP13 SHL PUSH3 0xFF0000 AND PUSH3 0x10000 PUSH1 0x1 PUSH1 0xF0 SHL SUB NOT SWAP1 SWAP12 AND SWAP11 SWAP1 SWAP11 OR SWAP11 SWAP1 SWAP11 OR SWAP7 SWAP1 SWAP7 OR SWAP5 SWAP1 SWAP5 OR SWAP5 SWAP1 SWAP5 OR OR SWAP3 SWAP1 SWAP3 OR OR PUSH1 0xD0 SWAP3 SWAP1 SWAP3 SHL PUSH4 0xFFFFFFFF PUSH1 0xD0 SHL AND SWAP2 SWAP1 SWAP2 OR DUP5 SSTORE PUSH2 0x160 DUP7 ADD MLOAD PUSH1 0x1 SWAP1 SWAP5 ADD DUP1 SLOAD PUSH2 0x180 DUP9 ADD MLOAD PUSH2 0x1A0 DUP10 ADD MLOAD SWAP1 SWAP4 SHL SWAP1 SWAP5 AND SWAP2 ISZERO ISZERO DUP11 SHL SWAP1 SWAP3 AND PUSH4 0xFFFFFFFF SWAP1 SWAP5 AND PUSH6 0xFFFFFFFFFFFF NOT SWAP1 SWAP4 AND SWAP3 SWAP1 SWAP3 OR SWAP3 SWAP1 SWAP3 OR OR SWAP1 SSTORE JUMP JUMPDEST PUSH32 0x6C776597A9374E4555DFA6F5D16120E7814F9B53F68B69E6F3EA53103579C9B PUSH1 0x40 MLOAD SWAP3 PUSH1 0x1 DUP1 PUSH1 0xA0 SHL SUB AND SWAP3 DUP1 PUSH2 0xE3A PUSH1 0x1 DUP8 ADD SWAP5 DUP3 PUSH2 0x30C6 JUMP JUMPDEST PUSH1 0x84 SWAP1 PUSH1 0x20 PUSH1 0x40 MLOAD SWAP2 PUSH3 0x461BCD PUSH1 0xE5 SHL DUP4 MSTORE DUP3 ADD MSTORE PUSH1 0x29 PUSH1 0x24 DUP3 ADD MSTORE PUSH32 0x4F6E6C79206272656564696E6720636F6E74726163742063616E206D696E7420 PUSH1 0x44 DUP3 ADD MSTORE PUSH9 0x6F6666737072696E67 PUSH1 0xB8 SHL PUSH1 0x64 DUP3 ADD MSTORE REVERT JUMPDEST POP PUSH1 0x20 SWAP1 DUP2 PUSH1 0x3 NOT CALLDATASIZE ADD SLT PUSH2 0x316 JUMPI DUP1 CALLDATALOAD PUSH2 0x13E8 PUSH2 0x38B2 JUMP JUMPDEST DUP1 PUSH1 0x0 MSTORE PUSH1 0xF DUP4 MSTORE PUSH1 0x40 PUSH1 0x0 KECCAK256 SWAP1 PUSH1 0x1 PUSH1 0x40 MLOAD SWAP3 PUSH2 0x1405 DUP5 PUSH2 0x2E88 JUMP JUMPDEST DUP1 SLOAD DUP5 MSTORE ADD SLOAD DUP5 DUP4 ADD PUSH1 0xFF PUSH1 0x1 DUP1 PUSH1 0xA0 SHL SUB SWAP3 DUP4 DUP2 AND DUP4 MSTORE PUSH1 0xA0 SHR AND ISZERO DUP1 ISZERO PUSH1 0x40 DUP7 ADD MSTORE PUSH2 0x156A JUMPI PUSH2 0x143A DUP5 MLOAD CALLVALUE LT ISZERO PUSH2 0x375B JUMP JUMPDEST MLOAD AND SWAP2 MLOAD SWAP2 PUSH1 0xFA DUP4 MUL DUP4 DUP2 DIV PUSH1 0xFA EQ DUP5 ISZERO OR ISZERO PUSH2 0xE77 JUMPI PUSH1 0x0 DUP1 DUP1 PUSH2 0x1464 PUSH2 0x2710 DUP3 SWAP6 DIV DUP9 PUSH2 0x3B28 JUMP JUMPDEST DUP7 DUP3 MSTORE PUSH1 0xF DUP11 MSTORE DUP2 PUSH1 0x1 PUSH1 0x40 DUP3 KECCAK256 DUP3 DUP2 SSTORE ADD SSTORE PUSH2 0x1482 DUP8 CALLER DUP9 PUSH2 0x34A4 JUMP JUMPDEST DUP6 GAS CALL PUSH2 0x148D PUSH2 0x35B5 JUMP JUMPDEST POP ISZERO PUSH2 0x1526 JUMPI PUSH1 0x40 MLOAD SWAP2 DUP4 DUP4 MSTORE PUSH32 0x23E7A5EDD4C10CC4BF363BE5EA945E863EB800CFB257A5D6B33B76B3A922CA5D DUP7 CALLER SWAP5 LOG4 DUP1 CALLVALUE GT PUSH2 0x14CE JUMPI JUMPDEST PUSH1 0x1 PUSH1 0x8 SSTORE STOP JUMPDEST PUSH1 0x0 DUP1 DUP1 PUSH2 0x14DD DUP2 SWAP5 CALLVALUE PUSH2 0x3B28 JUMP JUMPDEST CALLER GAS CALL PUSH2 0x14E8 PUSH2 0x35B5 JUMP JUMPDEST POP ISZERO PUSH2 0x14F4 JUMPI DUP1 PUSH2 0x14C7 JUMP JUMPDEST PUSH1 0x64 SWAP2 PUSH1 0x40 MLOAD SWAP2 PUSH3 0x461BCD PUSH1 0xE5 SHL DUP4 MSTORE DUP3 ADD MSTORE PUSH1 0xD PUSH1 0x24 DUP3 ADD MSTORE PUSH13 0x1499599D5B990819985A5B1959 PUSH1 0x9A SHL PUSH1 0x44 DUP3 ADD MSTORE REVERT JUMPDEST PUSH1 0x40 MLOAD PUSH3 0x461BCD PUSH1 0xE5 SHL DUP2 MSTORE DUP1 DUP6 ADD DUP7 SWAP1 MSTORE PUSH1 0x19 PUSH1 0x24 DUP3 ADD MSTORE PUSH32 0x5472616E7366657220746F2073656C6C6572206661696C656400000000000000 PUSH1 0x44 DUP3 ADD MSTORE PUSH1 0x64 SWAP1 REVERT JUMPDEST PUSH1 0x40 MLOAD PUSH3 0x461BCD PUSH1 0xE5 SHL DUP2 MSTORE DUP1 DUP7 ADD DUP8 SWAP1 MSTORE PUSH1 0x13 PUSH1 0x24 DUP3 ADD MSTORE PUSH19 0x4E6F74206C697374656420666F722073616C65 PUSH1 0x68 SHL PUSH1 0x44 DUP3 ADD MSTORE PUSH1 0x64 SWAP1 REVERT JUMPDEST CALLVALUE PUSH2 0x316 JUMPI PUSH1 0x0 CALLDATASIZE PUSH1 0x3 NOT ADD SLT PUSH2 0x316 JUMPI PUSH2 0x15BD PUSH2 0x3184 JUMP JUMPDEST PUSH1 0x7 DUP1 SLOAD PUSH1 0x1 PUSH1 0x1 PUSH1 0xA0 SHL SUB NOT DUP2 AND SWAP1 SWAP2 SSTORE PUSH1 0x0 SWAP1 PUSH1 0x1 PUSH1 0x1 PUSH1 0xA0 SHL SUB AND PUSH32 0x8BE0079C531659141344CD1FD0A4F28419497F9722A3DAAFE3B4186F6B6457E0 DUP3 DUP1 LOG3 STOP JUMPDEST CALLVALUE PUSH2 0x316 JUMPI PUSH1 0x20 CALLDATASIZE PUSH1 0x3 NOT ADD SLT PUSH2 0x316 JUMPI PUSH2 0x161A PUSH2 0x2E29 JUMP JUMPDEST PUSH2 0x162B PUSH2 0x1626 DUP3 PUSH2 0x31DC JUMP JUMPDEST PUSH2 0x3A81 JUMP JUMPDEST SWAP1 PUSH1 0x0 PUSH1 0x1 SWAP2 PUSH1 0x9 SLOAD SWAP3 JUMPDEST DUP4 DUP2 GT ISZERO PUSH2 0x164C JUMPI PUSH1 0x40 MLOAD DUP1 PUSH2 0x46C DUP8 DUP3 PUSH2 0x307C JUMP JUMPDEST PUSH1 0x0 DUP2 DUP2 MSTORE PUSH1 0x2 PUSH1 0x20 MSTORE PUSH1 0x40 SWAP1 KECCAK256 SLOAD PUSH1 0x1 PUSH1 0x1 PUSH1 0xA0 SHL SUB AND ISZERO ISZERO DUP1 PUSH2 0x16A0 JUMPI JUMPDEST PUSH2 0x167F JUMPI JUMPDEST PUSH2 0x167A SWAP1 PUSH2 0x3AB3 JUMP JUMPDEST PUSH2 0x1636 JUMP JUMPDEST SWAP2 PUSH2 0x1698 DUP2 DUP5 PUSH2 0x1692 PUSH2 0x167A SWAP5 DUP10 PUSH2 0x3AC2 JUMP JUMPDEST MSTORE PUSH2 0x3AB3 JUMP JUMPDEST SWAP3 SWAP1 POP PUSH2 0x1671 JUMP JUMPDEST POP PUSH2 0x16AA DUP2 PUSH2 0x329F JUMP JUMPDEST PUSH1 0x1 PUSH1 0x1 PUSH1 0xA0 SHL SUB DUP4 DUP2 AND SWAP2 AND EQ PUSH2 0x166C JUMP JUMPDEST CALLVALUE PUSH2 0x316 JUMPI PUSH1 0x20 CALLDATASIZE PUSH1 0x3 NOT ADD SLT PUSH2 0x316 JUMPI PUSH1 0x20 PUSH2 0x8A8 PUSH2 0x16DB PUSH2 0x2E29 JUMP JUMPDEST PUSH2 0x31DC JUMP JUMPDEST CALLVALUE PUSH2 0x316 JUMPI PUSH1 0x0 CALLDATASIZE PUSH1 0x3 NOT ADD SLT PUSH2 0x316 JUMPI PUSH1 0x20 PUSH1 0x40 MLOAD PUSH1 0x4B DUP2 MSTORE RETURN JUMPDEST POP CALLVALUE PUSH2 0x316 JUMPI PUSH1 0x20 CALLDATASIZE PUSH1 0x3 NOT ADD SLT PUSH2 0x316 JUMPI PUSH2 0x171A PUSH1 0x20 SWAP2 CALLDATALOAD PUSH2 0x329F JUMP JUMPDEST PUSH1 0x40 MLOAD PUSH1 0x1 PUSH1 0x1 PUSH1 0xA0 SHL SUB SWAP1 SWAP2 AND DUP2 MSTORE RETURN JUMPDEST POP PUSH1 0x20 CALLDATASIZE PUSH1 0x3 NOT ADD SLT PUSH2 0x316 JUMPI DUP1 CALLDATALOAD PUSH2 0x1743 PUSH2 0x38B2 JUMP JUMPDEST DUP1 ISZERO ISZERO DUP1 PUSH2 0x1BCC JUMPI JUMPDEST ISZERO PUSH2 0x1B88 JUMPI PUSH7 0x2386F26FC10000 DUP2 DUP2 MUL SWAP1 DUP2 DIV DUP3 SUB PUSH2 0xEA1 JUMPI PUSH2 0x1771 SWAP1 CALLVALUE LT ISZERO PUSH2 0x375B JUMP JUMPDEST PUSH1 0x9 SWAP2 PUSH2 0x2710 PUSH2 0x1782 DUP4 DUP6 SLOAD PUSH2 0x3803 JUMP JUMPDEST GT PUSH2 0x1B44 JUMPI PUSH2 0x1790 DUP3 PUSH2 0x3A81 JUMP JUMPDEST SWAP3 PUSH1 0x0 JUMPDEST DUP4 DUP2 LT PUSH2 0x17AE JUMPI PUSH1 0x1 PUSH1 0x8 SSTORE PUSH1 0x40 MLOAD DUP1 PUSH2 0x46C DUP8 DUP3 PUSH2 0x307C JUMP JUMPDEST PUSH1 0x1 DUP3 SLOAD ADD DUP1 DUP4 SSTORE PUSH2 0x17C0 DUP2 CALLER PUSH2 0x3908 JUMP JUMPDEST PUSH1 0x51 SWAP1 DUP2 PUSH2 0x17D5 PUSH2 0x17CF PUSH2 0x37DF JUMP JUMPDEST DUP4 PUSH2 0x3C6B JUMP JUMPDEST MOD SWAP2 PUSH1 0x14 SWAP1 DUP2 DUP5 ADD DUP5 GT PUSH2 0x1B2F JUMPI DUP1 PUSH2 0x17F5 PUSH2 0x17EF PUSH2 0x3826 JUMP JUMPDEST DUP6 PUSH2 0x3C6B JUMP JUMPDEST MOD SWAP1 DUP3 DUP3 ADD DUP3 GT PUSH2 0x1B1A JUMPI DUP1 PUSH2 0x1812 PUSH2 0x180C PUSH2 0x3847 JUMP JUMPDEST DUP7 PUSH2 0x3C6B JUMP JUMPDEST MOD DUP4 DUP2 ADD DUP2 GT PUSH2 0x1B05 JUMPI DUP2 PUSH2 0x182E PUSH2 0x1828 PUSH2 0x386A JUMP JUMPDEST DUP8 PUSH2 0x3C6B JUMP JUMPDEST MOD SWAP2 DUP5 DUP4 ADD DUP4 GT PUSH2 0x1AF0 JUMPI PUSH2 0x1844 PUSH2 0x1828 PUSH2 0x3892 JUMP JUMPDEST MOD SWAP3 DUP5 DUP5 ADD DUP5 GT PUSH2 0x1AF0 JUMPI DUP5 SWAP3 SWAP2 DUP4 DUP1 SWAP3 DUP2 PUSH1 0x40 MLOAD SWAP11 PUSH2 0x1863 DUP13 PUSH2 0x2E55 JUMP JUMPDEST ADD PUSH1 0xFF AND DUP11 MSTORE ADD PUSH1 0xFF AND PUSH1 0x20 DUP10 ADD MSTORE ADD PUSH1 0xFF AND PUSH1 0x40 DUP8 ADD MSTORE ADD PUSH1 0xFF AND PUSH1 0x60 DUP6 ADD MSTORE ADD PUSH1 0xFF AND PUSH1 0x80 DUP4 ADD MSTORE PUSH1 0xA0 DUP3 ADD PUSH1 0x0 SWAP1 MSTORE TIMESTAMP PUSH6 0xFFFFFFFFFFFF AND PUSH1 0xC0 DUP4 ADD MSTORE PUSH1 0xE0 DUP3 ADD PUSH1 0x0 SWAP1 MSTORE PUSH2 0x100 DUP3 ADD PUSH1 0x0 SWAP1 MSTORE PUSH2 0x120 DUP3 ADD PUSH1 0x0 SWAP1 MSTORE PUSH2 0x140 DUP3 ADD PUSH1 0x0 SWAP1 MSTORE PUSH2 0x160 DUP3 ADD PUSH1 0x0 SWAP1 MSTORE PUSH2 0x180 DUP3 ADD PUSH1 0x1 SWAP1 MSTORE PUSH2 0x1A0 DUP3 ADD PUSH1 0x0 SWAP1 MSTORE DUP1 PUSH1 0x0 MSTORE PUSH1 0xB PUSH1 0x20 MSTORE PUSH1 0x40 PUSH1 0x0 KECCAK256 DUP3 MLOAD PUSH1 0xFF AND PUSH1 0xFF NOT DUP3 SLOAD AND OR DUP2 SSTORE PUSH1 0x20 DUP4 ADD MLOAD PUSH1 0xFF AND PUSH2 0x1920 SWAP1 DUP3 SWAP1 PUSH2 0xFF00 DUP3 SLOAD SWAP2 PUSH1 0x8 SHL AND SWAP1 PUSH2 0xFF00 NOT AND OR SWAP1 SSTORE JUMP JUMPDEST PUSH1 0x40 DUP4 ADD MLOAD DUP2 SLOAD PUSH3 0xFF0000 NOT AND PUSH1 0x10 SWAP2 SWAP1 SWAP2 SHL PUSH3 0xFF0000 AND OR DUP2 SSTORE PUSH1 0x60 DUP4 ADD MLOAD DUP2 SLOAD PUSH4 0xFF000000 NOT AND PUSH1 0x18 SWAP2 SWAP1 SWAP2 SHL PUSH4 0xFF000000 AND OR DUP2 SSTORE PUSH1 0x80 DUP4 ADD MLOAD DUP2 SLOAD PUSH5 0xFF00000000 NOT AND PUSH1 0x20 SWAP2 SWAP1 SWAP2 SHL PUSH1 0xFF PUSH1 0x20 SHL AND OR DUP2 SSTORE PUSH1 0xA0 DUP4 ADD MLOAD DUP2 SLOAD PUSH6 0xFF0000000000 NOT AND PUSH1 0x28 SWAP2 SWAP1 SWAP2 SHL PUSH1 0xFF PUSH1 0x28 SHL AND OR DUP2 SSTORE PUSH1 0xC0 DUP4 ADD MLOAD DUP2 SLOAD PUSH1 0xE0 DUP6 ADD MLOAD PUSH2 0x100 DUP7 ADD MLOAD PUSH22 0xFFFFFFFFFFFFFFFFFFFFFFFFFFFFFFFF000000000000 NOT SWAP1 SWAP3 AND PUSH6 0xFFFFFFFFFFFF PUSH1 0x30 SHL PUSH1 0x30 SWAP5 SWAP1 SWAP5 SHL SWAP4 SWAP1 SWAP4 AND SWAP3 SWAP1 SWAP3 OR PUSH1 0x60 SWAP3 SWAP1 SWAP3 SHL PUSH6 0xFFFFFFFFFFFF PUSH1 0x60 SHL AND SWAP2 SWAP1 SWAP2 OR PUSH1 0x90 SWAP2 SWAP1 SWAP2 SHL PUSH4 0xFFFFFFFF PUSH1 0x90 SHL AND OR DUP2 SSTORE PUSH4 0xFFFFFFFF SWAP1 PUSH2 0x120 DUP5 ADD MLOAD DUP2 SLOAD PUSH4 0xFFFFFFFF PUSH1 0xB0 SHL NOT AND SWAP1 DUP4 AND PUSH1 0xB0 SHL PUSH4 0xFFFFFFFF PUSH1 0xB0 SHL AND OR DUP2 SSTORE PUSH2 0x140 DUP5 ADD MLOAD DUP2 SLOAD PUSH4 0xFFFFFFFF PUSH1 0xD0 SHL NOT AND SWAP1 DUP4 AND PUSH1 0xD0 SHL PUSH4 0xFFFFFFFF PUSH1 0xD0 SHL AND OR DUP2 SSTORE PUSH1 0x1 ADD SWAP1 PUSH2 0x160 DUP5 ADD MLOAD AND DUP2 SLOAD SWAP1 PUSH2 0x180 DUP6 ADD MLOAD ISZERO ISZERO PUSH1 0x20 SHL PUSH1 0xFF PUSH1 0x20 SHL AND SWAP2 PUSH5 0xFFFFFFFFFF NOT AND OR OR DUP2 SSTORE PUSH2 0x1A0 DUP4 ADD MLOAD PUSH1 0xFF AND PUSH2 0x1AA2 SWAP2 SWAP1 PUSH1 0xFF PUSH1 0x28 SHL DUP3 SLOAD SWAP2 PUSH1 0x28 SHL AND SWAP1 PUSH1 0xFF PUSH1 0x28 SHL NOT AND OR SWAP1 SSTORE JUMP JUMPDEST DUP1 PUSH2 0x1AAD DUP5 DUP10 PUSH2 0x3AC2 JUMP JUMPDEST MSTORE PUSH1 0x40 MLOAD DUP1 CALLER SWAP4 PUSH2 0x1ABE SWAP1 DUP3 PUSH2 0x30C6 JUMP JUMPDEST SUB PUSH32 0x6C776597A9374E4555DFA6F5D16120E7814F9B53F68B69E6F3EA53103579C9B SWAP2 LOG3 PUSH2 0x1AEB SWAP1 PUSH2 0x3AB3 JUMP JUMPDEST PUSH2 0x1794 JUMP JUMPDEST PUSH1 0x11 DUP11 PUSH4 0x4E487B71 PUSH1 0xE0 SHL PUSH1 0x0 MSTORE MSTORE PUSH1 0x24 PUSH1 0x0 REVERT JUMPDEST PUSH1 0x11 DUP10 PUSH4 0x4E487B71 PUSH1 0xE0 SHL PUSH1 0x0 MSTORE MSTORE PUSH1 0x24 PUSH1 0x0 REVERT JUMPDEST PUSH1 0x11 DUP9 PUSH4 0x4E487B71 PUSH1 0xE0 SHL PUSH1 0x0 MSTORE MSTORE PUSH1 0x24 PUSH1 0x0 REVERT JUMPDEST PUSH1 0x11 DUP8 PUSH4 0x4E487B71 PUSH1 0xE0 SHL PUSH1 0x0 MSTORE MSTORE PUSH1 0x24 PUSH1 0x0 REVERT JUMPDEST PUSH1 0x64 SWAP1 PUSH1 0x20 PUSH1 0x40 MLOAD SWAP2 PUSH3 0x461BCD PUSH1 0xE5 SHL DUP4 MSTORE DUP3 ADD MSTORE PUSH1 0x17 PUSH1 0x24 DUP3 ADD MSTORE PUSH32 0x576F756C6420657863656564206D617820737570706C79000000000000000000 PUSH1 0x44 DUP3 ADD MSTORE REVERT JUMPDEST PUSH1 0x40 MLOAD PUSH3 0x461BCD PUSH1 0xE5 SHL DUP2 MSTORE PUSH1 0x20 DUP2 DUP5 ADD MSTORE PUSH1 0x1A PUSH1 0x24 DUP3 ADD MSTORE PUSH32 0x43616E206D696E7420312D31302068656E73206174206F6E6365000000000000 PUSH1 0x44 DUP3 ADD MSTORE PUSH1 0x64 SWAP1 REVERT JUMPDEST POP PUSH1 0xA DUP2 GT ISZERO PUSH2 0x174C JUMP JUMPDEST POP CALLVALUE PUSH2 0x316 JUMPI PUSH2 0x1C90 PUSH2 0x1BE9 CALLDATASIZE PUSH2 0x3066 JUMP JUMPDEST SWAP1 SWAP3 PUSH2 0x1C17 PUSH1 0x1 DUP1 PUSH1 0xA0 SHL SUB DUP1 PUSH1 0xD SLOAD AND CALLER EQ SWAP1 DUP2 ISZERO PUSH2 0x2021 JUMPI JUMPDEST DUP2 ISZERO PUSH2 0x2012 JUMPI JUMPDEST DUP2 ISZERO PUSH2 0x56C JUMPI POP PUSH2 0x3B46 JUMP JUMPDEST PUSH1 0x0 DUP5 DUP2 MSTORE PUSH1 0x2 PUSH1 0x20 MSTORE PUSH1 0x40 SWAP1 KECCAK256 SLOAD PUSH2 0x1C3A SWAP1 PUSH1 0x1 PUSH1 0x1 PUSH1 0xA0 SHL SUB AND ISZERO ISZERO PUSH2 0x3B98 JUMP JUMPDEST DUP4 PUSH1 0x0 MSTORE PUSH1 0x20 PUSH1 0xB DUP2 MSTORE PUSH1 0x40 PUSH1 0x0 KECCAK256 SWAP2 PUSH1 0x1 SWAP4 DUP5 DUP5 ADD SWAP1 DUP2 SLOAD PUSH4 0xFFFFFFFF DUP1 SWAP9 DUP3 DUP3 PUSH2 0x1C73 DUP2 DUP1 SWAP7 AND SWAP7 PUSH2 0x1C6D DUP9 PUSH2 0x3BDB JUMP JUMPDEST SWAP8 PUSH2 0x3803 JUMP JUMPDEST DUP2 DUP2 GT ISZERO PUSH2 0x200B JUMPI POP DUP1 JUMPDEST AND DUP1 SWAP2 PUSH4 0xFFFFFFFF NOT AND OR DUP7 SSTORE PUSH2 0x3BDB JUMP JUMPDEST SWAP3 AND SWAP2 AND DUP2 DUP2 GT PUSH2 0x1C9D JUMPI STOP JUMPDEST SUB SWAP6 DUP1 DUP8 GT PUSH2 0xEA1 JUMPI SWAP6 DUP7 AND PUSH1 0x0 JUMPDEST DUP2 DUP9 DUP3 AND LT PUSH2 0x1CB7 JUMPI STOP JUMPDEST DUP3 SLOAD PUSH1 0x40 MLOAD DUP7 DUP2 ADD SWAP2 TIMESTAMP DUP4 MSTORE DUP12 PUSH1 0x40 DUP4 ADD MSTORE PUSH4 0xFFFFFFFF PUSH1 0xE0 SHL SWAP1 PUSH1 0xE0 SHL AND PUSH1 0x60 DUP3 ADD MSTORE PUSH1 0x44 DUP2 MSTORE PUSH1 0x80 DUP2 ADD DUP2 DUP2 LT PUSH8 0xFFFFFFFFFFFFFFFF DUP3 GT OR PUSH2 0x1FF6 JUMPI PUSH1 0x40 MSTORE MLOAD SWAP1 KECCAK256 PUSH2 0x1D48 SWAP2 SWAP1 PUSH1 0xFF SWAP1 DUP7 SWAP1 PUSH1 0x5 DUP1 DUP3 DIV DUP2 SWAP1 MOD DUP5 AND SWAP2 MOD DUP4 AND DUP1 ISZERO DUP1 PUSH2 0x1FE9 JUMPI JUMPDEST ISZERO PUSH2 0x1EC1 JUMPI DUP11 SLOAD DUP5 PUSH2 0x1D2F DUP2 DUP4 AND PUSH2 0x3B35 JUMP JUMPDEST AND SWAP1 PUSH1 0xFF NOT AND OR DUP12 SSTORE JUMPDEST DUP2 SUB PUSH2 0x1D4D JUMPI JUMPDEST POP POP POP PUSH2 0x3B83 JUMP JUMPDEST PUSH2 0x1CAC JUMP JUMPDEST DUP1 ISZERO DUP1 PUSH2 0x1EB4 JUMPI JUMPDEST ISZERO PUSH2 0x1D7C JUMPI POP POP DUP8 SLOAD SWAP1 PUSH2 0x1D6A DUP2 DUP4 AND PUSH2 0x3B35 JUMP JUMPDEST AND SWAP1 PUSH1 0xFF NOT AND OR DUP8 SSTORE JUMPDEST CODESIZE DUP6 DUP2 PUSH2 0x1D40 JUMP JUMPDEST DUP11 DUP2 EQ DUP1 PUSH2 0x1EA4 JUMPI JUMPDEST ISZERO PUSH2 0x1DB9 JUMPI POP POP PUSH2 0x1D9E PUSH2 0x1DB4 SWAP2 DUP10 SLOAD PUSH1 0x8 SHR AND PUSH2 0x3B35 JUMP JUMPDEST DUP9 SLOAD PUSH2 0xFF00 NOT AND PUSH1 0x8 SWAP2 SWAP1 SWAP2 SHL PUSH2 0xFF00 AND OR DUP9 SSTORE JUMP JUMPDEST PUSH2 0x1D74 JUMP JUMPDEST PUSH1 0x2 DUP2 EQ DUP1 PUSH2 0x1E94 JUMPI JUMPDEST ISZERO PUSH2 0x1DF4 JUMPI POP POP PUSH2 0x1DDC PUSH2 0x1DB4 SWAP2 DUP10 SLOAD PUSH1 0x10 SHR AND PUSH2 0x3B35 JUMP JUMPDEST DUP9 SLOAD PUSH3 0xFF0000 NOT AND PUSH1 0x10 SWAP2 SWAP1 SWAP2 SHL PUSH3 0xFF0000 AND OR DUP9 SSTORE JUMP JUMPDEST PUSH1 0x3 DUP2 EQ DUP1 PUSH2 0x1E84 JUMPI JUMPDEST ISZERO PUSH2 0x1E31 JUMPI POP POP PUSH2 0x1E17 PUSH2 0x1DB4 SWAP2 DUP10 SLOAD PUSH1 0x18 SHR AND PUSH2 0x3B35 JUMP JUMPDEST DUP9 SLOAD PUSH4 0xFF000000 NOT AND PUSH1 0x18 SWAP2 SWAP1 SWAP2 SHL PUSH4 0xFF000000 AND OR DUP9 SSTORE JUMP JUMPDEST EQ DUP1 PUSH2 0x1E75 JUMPI JUMPDEST PUSH2 0x1E43 JUMPI JUMPDEST POP PUSH2 0x1D74 JUMP JUMPDEST PUSH2 0x1E54 PUSH2 0x1E6F SWAP2 DUP10 SLOAD DUP10 SHR AND PUSH2 0x3B35 JUMP JUMPDEST DUP9 SLOAD PUSH5 0xFF00000000 NOT AND PUSH1 0x20 SWAP2 SWAP1 SWAP2 SHL PUSH1 0xFF PUSH1 0x20 SHL AND OR DUP9 SSTORE JUMP JUMPDEST CODESIZE PUSH2 0x1E3D JUMP JUMPDEST POP PUSH1 0x64 DUP2 DUP10 SLOAD DUP10 SHR AND LT PUSH2 0x1E38 JUMP JUMPDEST POP PUSH1 0x64 DUP4 DUP12 SLOAD PUSH1 0x18 SHR AND LT PUSH2 0x1DFE JUMP JUMPDEST POP PUSH1 0x64 DUP4 DUP12 SLOAD PUSH1 0x10 SHR AND LT PUSH2 0x1DC3 JUMP JUMPDEST POP PUSH1 0x64 DUP4 DUP12 SLOAD PUSH1 0x8 SHR AND LT PUSH2 0x1D85 JUMP JUMPDEST POP PUSH1 0x64 DUP4 DUP12 SLOAD AND LT PUSH2 0x1D55 JUMP JUMPDEST DUP12 DUP2 EQ DUP1 PUSH2 0x1FD9 JUMPI JUMPDEST ISZERO PUSH2 0x1EFC JUMPI PUSH2 0x1EF7 PUSH2 0x1EE1 DUP6 DUP14 SLOAD PUSH1 0x8 SHR AND PUSH2 0x3B35 JUMP JUMPDEST DUP13 SLOAD PUSH2 0xFF00 NOT AND PUSH1 0x8 SWAP2 SWAP1 SWAP2 SHL PUSH2 0xFF00 AND OR DUP13 SSTORE JUMP JUMPDEST PUSH2 0x1D39 JUMP JUMPDEST PUSH1 0x2 DUP2 EQ DUP1 PUSH2 0x1FC9 JUMPI JUMPDEST ISZERO PUSH2 0x1F35 JUMPI PUSH2 0x1EF7 PUSH2 0x1F1D DUP6 DUP14 SLOAD PUSH1 0x10 SHR AND PUSH2 0x3B35 JUMP JUMPDEST DUP13 SLOAD PUSH3 0xFF0000 NOT AND PUSH1 0x10 SWAP2 SWAP1 SWAP2 SHL PUSH3 0xFF0000 AND OR DUP13 SSTORE JUMP JUMPDEST PUSH1 0x3 DUP2 EQ DUP1 PUSH2 0x1FB9 JUMPI JUMPDEST ISZERO PUSH2 0x1F70 JUMPI PUSH2 0x1EF7 PUSH2 0x1F56 DUP6 DUP14 SLOAD PUSH1 0x18 SHR AND PUSH2 0x3B35 JUMP JUMPDEST DUP13 SLOAD PUSH4 0xFF000000 NOT AND PUSH1 0x18 SWAP2 SWAP1 SWAP2 SHL PUSH4 0xFF000000 AND OR DUP13 SSTORE JUMP JUMPDEST DUP3 DUP2 EQ DUP1 PUSH2 0x1FAA JUMPI JUMPDEST ISZERO PUSH2 0x1EF7 JUMPI PUSH2 0x1EF7 PUSH2 0x1F8F DUP6 DUP14 SLOAD DUP14 SHR AND PUSH2 0x3B35 JUMP JUMPDEST DUP13 SLOAD PUSH5 0xFF00000000 NOT AND PUSH1 0x20 SWAP2 SWAP1 SWAP2 SHL PUSH1 0xFF PUSH1 0x20 SHL AND OR DUP13 SSTORE JUMP JUMPDEST POP PUSH1 0x64 DUP5 DUP13 SLOAD DUP13 SHR AND LT PUSH2 0x1F79 JUMP JUMPDEST POP PUSH1 0x64 DUP5 DUP13 SLOAD PUSH1 0x18 SHR AND LT PUSH2 0x1F3F JUMP JUMPDEST POP PUSH1 0x64 DUP5 DUP13 SLOAD PUSH1 0x10 SHR AND LT PUSH2 0x1F06 JUMP JUMPDEST POP PUSH1 0x64 DUP5 DUP13 SLOAD PUSH1 0x8 SHR AND LT PUSH2 0x1ECA JUMP JUMPDEST POP PUSH1 0x64 DUP5 DUP13 SLOAD AND LT PUSH2 0x1D1C JUMP JUMPDEST PUSH1 0x41 DUP8 PUSH4 0x4E487B71 PUSH1 0xE0 SHL PUSH1 0x0 MSTORE MSTORE PUSH1 0x24 PUSH1 0x0 REVERT JUMPDEST DUP2 AND PUSH2 0x1C7E JUMP JUMPDEST DUP1 SWAP2 POP PUSH1 0xC SLOAD AND CALLER EQ SWAP1 PUSH2 0x1C0B JUMP JUMPDEST DUP1 SWAP2 POP PUSH1 0xE SLOAD AND CALLER EQ SWAP1 PUSH2 0x1C04 JUMP JUMPDEST POP CALLVALUE PUSH2 0x316 JUMPI PUSH1 0x20 DUP1 PUSH1 0x3 NOT CALLDATASIZE ADD SLT PUSH2 0x316 JUMPI DUP2 CALLDATALOAD PUSH1 0x0 DUP2 DUP2 MSTORE PUSH1 0xF DUP4 MSTORE PUSH1 0x40 SWAP1 KECCAK256 PUSH1 0x1 ADD SLOAD SWAP1 SWAP3 SWAP1 PUSH1 0x1 PUSH1 0x1 PUSH1 0xA0 SHL SUB AND CALLER SUB PUSH2 0x20F2 JUMPI DUP3 PUSH1 0x0 MSTORE PUSH1 0xF DUP3 MSTORE PUSH1 0xFF PUSH1 0x1 PUSH1 0x40 PUSH1 0x0 KECCAK256 ADD SLOAD PUSH1 0xA0 SHR AND ISZERO PUSH2 0x20C3 JUMPI POP PUSH1 0xF SWAP1 DUP3 PUSH1 0x0 MSTORE MSTORE PUSH1 0x0 PUSH1 0x1 PUSH1 0x40 DUP3 KECCAK256 DUP3 DUP2 SSTORE ADD SSTORE CALLER SWAP1 PUSH32 0x8202AB9068FA5E6EA16E04517A8C260F8B0D6714D979788967E4BFB1FACA28D PUSH1 0x0 DUP1 LOG3 STOP JUMPDEST PUSH1 0x64 SWAP2 PUSH1 0x40 MLOAD SWAP2 PUSH3 0x461BCD PUSH1 0xE5 SHL DUP4 MSTORE DUP3 ADD MSTORE PUSH1 0xA PUSH1 0x24 DUP3 ADD MSTORE PUSH10 0x139BDD081B1A5CDD1959 PUSH1 0xB2 SHL PUSH1 0x44 DUP3 ADD MSTORE REVERT JUMPDEST PUSH1 0x64 SWAP2 PUSH1 0x40 MLOAD SWAP2 PUSH3 0x461BCD PUSH1 0xE5 SHL DUP4 MSTORE DUP3 ADD MSTORE PUSH1 0xE PUSH1 0x24 DUP3 ADD MSTORE PUSH14 0x2737BA103A34329039B2B63632B9 PUSH1 0x91 SHL PUSH1 0x44 DUP3 ADD MSTORE REVERT JUMPDEST CALLVALUE PUSH2 0x316 JUMPI PUSH1 0x20 CALLDATASIZE PUSH1 0x3 NOT ADD SLT PUSH2 0x316 JUMPI PUSH2 0x213E PUSH2 0x2E29 JUMP JUMPDEST PUSH2 0x2146 PUSH2 0x3184 JUMP JUMPDEST PUSH1 0xE DUP1 SLOAD PUSH1 0x1 PUSH1 0x1 PUSH1 0xA0 SHL SUB NOT AND PUSH1 0x1 PUSH1 0x1 PUSH1 0xA0 SHL SUB SWAP3 SWAP1 SWAP3 AND SWAP2 SWAP1 SWAP2 OR SWAP1 SSTORE STOP JUMPDEST POP CALLVALUE PUSH2 0x316 JUMPI PUSH1 0x20 CALLDATASIZE PUSH1 0x3 NOT ADD SLT PUSH2 0x316 JUMPI CALLDATALOAD PUSH1 0x0 MSTORE PUSH1 0xA PUSH1 0x20 MSTORE PUSH2 0x46C PUSH2 0xF1D PUSH1 0x40 PUSH1 0x0 KECCAK256 PUSH2 0x2FC0 JUMP JUMPDEST CALLVALUE PUSH2 0x316 JUMPI PUSH2 0x778 PUSH2 0x773 PUSH2 0x21A7 CALLDATASIZE PUSH2 0x2F51 JUMP JUMPDEST SWAP1 PUSH1 0x40 MLOAD SWAP3 PUSH2 0x21B5 DUP5 PUSH2 0x2EC0 JUMP JUMPDEST PUSH1 0x0 DUP5 MSTORE PUSH2 0x763 PUSH2 0x75E DUP5 CALLER PUSH2 0x33DC JUMP JUMPDEST CALLVALUE PUSH2 0x316 JUMPI PUSH1 0x0 CALLDATASIZE PUSH1 0x3 NOT ADD SLT PUSH2 0x316 JUMPI PUSH1 0xD SLOAD PUSH1 0x40 MLOAD PUSH1 0x1 PUSH1 0x1 PUSH1 0xA0 SHL SUB SWAP1 SWAP2 AND DUP2 MSTORE PUSH1 0x20 SWAP1 RETURN JUMPDEST POP CALLVALUE PUSH2 0x316 JUMPI PUSH1 0x0 CALLDATASIZE PUSH1 0x3 NOT ADD SLT PUSH2 0x316 JUMPI PUSH2 0x2209 PUSH2 0x3184 JUMP JUMPDEST PUSH1 0x0 DUP1 DUP1 DUP1 SELFBALANCE PUSH1 0x1 DUP1 PUSH1 0xA0 SHL SUB PUSH1 0x7 SLOAD AND GAS CALL PUSH2 0x2224 PUSH2 0x35B5 JUMP JUMPDEST POP ISZERO PUSH2 0x222C JUMPI STOP JUMPDEST PUSH1 0x64 SWAP1 PUSH1 0x20 PUSH1 0x40 MLOAD SWAP2 PUSH3 0x461BCD PUSH1 0xE5 SHL DUP4 MSTORE DUP3 ADD MSTORE PUSH1 0x11 PUSH1 0x24 DUP3 ADD MSTORE PUSH17 0x15DA5D1A191C985DD85B0819985A5B1959 PUSH1 0x7A SHL PUSH1 0x44 DUP3 ADD MSTORE REVERT JUMPDEST CALLVALUE PUSH2 0x316 JUMPI PUSH1 0x0 CALLDATASIZE PUSH1 0x3 NOT ADD SLT PUSH2 0x316 JUMPI PUSH1 0x20 PUSH1 0x40 MLOAD PUSH2 0x2710 DUP2 MSTORE RETURN JUMPDEST CALLVALUE PUSH2 0x316 JUMPI PUSH2 0x778 PUSH2 0x2292 CALLDATASIZE PUSH2 0x2F51 JUMP JUMPDEST SWAP2 PUSH2 0x22A0 PUSH2 0x75E DUP5 CALLER PUSH2 0x33DC JUMP JUMPDEST PUSH2 0x34A4 JUMP JUMPDEST POP CALLVALUE PUSH2 0x316 JUMPI PUSH1 0x20 CALLDATASIZE PUSH1 0x3 NOT ADD SLT PUSH2 0x316 JUMPI PUSH1 0xE SLOAD PUSH2 0x22D8 SWAP1 CALLER PUSH1 0x1 PUSH1 0x1 PUSH1 0xA0 SHL SUB SWAP2 DUP3 AND EQ SWAP1 DUP2 ISZERO PUSH2 0x56C JUMPI POP PUSH2 0x3B46 JUMP JUMPDEST CALLDATALOAD PUSH1 0x0 MSTORE PUSH1 0xB PUSH1 0x20 MSTORE PUSH2 0x778 PUSH1 0x40 PUSH1 0x0 KECCAK256 PUSH2 0x22FC PUSH4 0xFFFFFFFF DUP3 SLOAD PUSH1 0xD0 SHR AND PUSH2 0x3B83 JUMP JUMPDEST DUP2 SLOAD PUSH4 0xFFFFFFFF PUSH1 0xD0 SHL NOT AND PUSH1 0xD0 SWAP2 SWAP1 SWAP2 SHL PUSH4 0xFFFFFFFF PUSH1 0xD0 SHL AND OR SWAP1 SSTORE JUMP JUMPDEST POP PUSH1 0x20 DUP1 PUSH1 0x3 NOT CALLDATASIZE ADD SLT PUSH2 0x316 JUMPI DUP2 CALLDATALOAD PUSH2 0x2334 PUSH2 0x38B2 JUMP JUMPDEST PUSH2 0x2350 PUSH2 0x2340 DUP3 PUSH2 0x329F JUMP JUMPDEST PUSH1 0x1 PUSH1 0x1 PUSH1 0xA0 SHL SUB AND CALLER EQ PUSH2 0x3AEC JUMP JUMPDEST PUSH7 0x11C37937E08000 CALLVALUE LT PUSH2 0x2716 JUMPI DUP1 PUSH1 0x0 MSTORE PUSH1 0xB SWAP2 DUP3 DUP2 MSTORE PUSH1 0xFF PUSH1 0x1 SWAP4 PUSH1 0xA DUP3 DUP7 PUSH1 0x40 PUSH1 0x0 KECCAK256 ADD SLOAD PUSH1 0x28 SHR AND LT ISZERO PUSH2 0x26D2 JUMPI DUP4 PUSH1 0x0 MSTORE DUP1 DUP4 MSTORE PUSH2 0x23BB DUP6 PUSH1 0x40 PUSH1 0x0 KECCAK256 ADD PUSH2 0x23A2 DUP5 DUP3 SLOAD PUSH1 0x28 SHR AND PUSH2 0x3B35 JUMP JUMPDEST PUSH1 0xFF PUSH1 0x28 SHL DUP3 SLOAD SWAP2 PUSH1 0x28 SHL AND SWAP1 PUSH1 0xFF PUSH1 0x28 SHL NOT AND OR SWAP1 SSTORE JUMP JUMPDEST PUSH2 0x23E1 PUSH1 0x40 MLOAD PUSH2 0x23CA DUP2 PUSH2 0x2EA4 JUMP JUMPDEST PUSH1 0x5 DUP2 MSTORE PUSH5 0x3A3930B4B7 PUSH1 0xD9 SHL DUP6 DUP3 ADD MSTORE DUP6 PUSH2 0x3C6B JUMP JUMPDEST PUSH1 0x3 PUSH1 0x5 DUP3 MOD SWAP2 MOD SWAP1 DUP7 DUP3 ADD DUP1 SWAP3 GT PUSH2 0x1B1A JUMPI SWAP7 DUP8 PUSH32 0x7BAA804ECF3F4C341AF2368B8F1DDD8ADEE82F9FA5DE6F7DFBF99936C2C2235A SWAP7 SWAP8 SWAP9 ISZERO DUP1 PUSH2 0x26BA JUMPI JUMPDEST ISZERO PUSH2 0x248B JUMPI POP POP PUSH2 0x2440 SWAP1 DUP7 PUSH1 0x0 MSTORE DUP3 DUP6 MSTORE DUP4 PUSH1 0x40 PUSH1 0x0 KECCAK256 SLOAD AND PUSH2 0x3803 JUMP JUMPDEST DUP1 PUSH1 0x64 LT PUSH1 0x0 EQ PUSH2 0x2486 JUMPI POP PUSH1 0x64 JUMPDEST DUP6 PUSH1 0x0 MSTORE DUP2 DUP5 MSTORE DUP3 PUSH1 0x40 PUSH1 0x0 KECCAK256 SWAP2 AND PUSH1 0xFF NOT DUP3 SLOAD AND OR SWAP1 SSTORE JUMPDEST DUP5 PUSH1 0x0 MSTORE DUP3 MSTORE DUP5 PUSH1 0x40 PUSH1 0x0 KECCAK256 ADD SLOAD PUSH1 0x28 SHR AND PUSH1 0x40 MLOAD SWAP1 DUP2 MSTORE LOG2 PUSH1 0x8 SSTORE STOP JUMPDEST PUSH2 0x244F JUMP JUMPDEST DUP9 DUP2 EQ DUP1 PUSH2 0x269F JUMPI JUMPDEST ISZERO PUSH2 0x24FB JUMPI POP POP PUSH2 0x24B6 SWAP1 DUP7 PUSH1 0x0 MSTORE DUP3 DUP6 MSTORE DUP4 PUSH1 0x40 PUSH1 0x0 KECCAK256 SLOAD PUSH1 0x8 SHR AND PUSH2 0x3803 JUMP JUMPDEST DUP3 DUP2 PUSH1 0x64 LT PUSH1 0x0 EQ PUSH2 0x24F2 JUMPI PUSH2 0x24ED SWAP2 POP PUSH1 0x64 JUMPDEST DUP8 PUSH1 0x0 MSTORE DUP4 DUP7 MSTORE AND PUSH1 0x40 PUSH1 0x0 KECCAK256 SWAP1 PUSH2 0xFF00 DUP3 SLOAD SWAP2 PUSH1 0x8 SHL AND SWAP1 PUSH2 0xFF00 NOT AND OR SWAP1 SSTORE JUMP JUMPDEST PUSH2 0x2468 JUMP JUMPDEST PUSH2 0x24ED SWAP2 PUSH2 0x24CA JUMP JUMPDEST PUSH1 0x2 DUP2 EQ DUP1 PUSH2 0x2684 JUMPI JUMPDEST ISZERO PUSH2 0x2569 JUMPI POP POP PUSH2 0x2527 SWAP1 DUP7 PUSH1 0x0 MSTORE DUP3 DUP6 MSTORE DUP4 PUSH1 0x40 PUSH1 0x0 KECCAK256 SLOAD PUSH1 0x10 SHR AND PUSH2 0x3803 JUMP JUMPDEST DUP3 DUP2 PUSH1 0x64 LT PUSH1 0x0 EQ PUSH2 0x2560 JUMPI PUSH2 0x24ED SWAP2 POP PUSH1 0x64 JUMPDEST DUP8 PUSH1 0x0 MSTORE DUP4 DUP7 MSTORE AND PUSH1 0x40 PUSH1 0x0 KECCAK256 SWAP1 PUSH3 0xFF0000 DUP3 SLOAD SWAP2 PUSH1 0x10 SHL AND SWAP1 PUSH3 0xFF0000 NOT AND OR SWAP1 SSTORE JUMP JUMPDEST PUSH2 0x24ED SWAP2 PUSH2 0x253B JUMP JUMPDEST PUSH1 0x3 DUP2 EQ DUP1 PUSH2 0x2669 JUMPI JUMPDEST ISZERO PUSH2 0x25D9 JUMPI POP POP PUSH2 0x2595 SWAP1 DUP7 PUSH1 0x0 MSTORE DUP3 DUP6 MSTORE DUP4 PUSH1 0x40 PUSH1 0x0 KECCAK256 SLOAD PUSH1 0x18 SHR AND PUSH2 0x3803 JUMP JUMPDEST DUP3 DUP2 PUSH1 0x64 LT PUSH1 0x0 EQ PUSH2 0x25D0 JUMPI PUSH2 0x24ED SWAP2 POP PUSH1 0x64 JUMPDEST DUP8 PUSH1 0x0 MSTORE DUP4 DUP7 MSTORE AND PUSH1 0x40 PUSH1 0x0 KECCAK256 SWAP1 PUSH4 0xFF000000 DUP3 SLOAD SWAP2 PUSH1 0x18 SHL AND SWAP1 PUSH4 0xFF000000 NOT AND OR SWAP1 SSTORE JUMP JUMPDEST PUSH2 0x24ED SWAP2 PUSH2 0x25A9 JUMP JUMPDEST EQ DUP1 PUSH2 0x264F JUMPI JUMPDEST PUSH2 0x25EB JUMPI JUMPDEST POP PUSH2 0x2468 JUMP JUMPDEST PUSH2 0x2605 SWAP1 DUP7 PUSH1 0x0 MSTORE DUP3 DUP6 MSTORE DUP4 PUSH1 0x40 PUSH1 0x0 KECCAK256 SLOAD DUP7 SHR AND PUSH2 0x3803 JUMP JUMPDEST DUP3 DUP2 PUSH1 0x64 LT PUSH1 0x0 EQ PUSH2 0x2646 JUMPI PUSH2 0x2640 SWAP2 POP PUSH1 0x64 JUMPDEST DUP8 PUSH1 0x0 MSTORE DUP4 DUP7 MSTORE AND PUSH1 0x40 PUSH1 0x0 KECCAK256 SWAP1 PUSH1 0xFF PUSH1 0x20 SHL DUP3 SLOAD SWAP2 PUSH1 0x20 SHL AND SWAP1 PUSH1 0xFF PUSH1 0x20 SHL NOT AND OR SWAP1 SSTORE JUMP JUMPDEST CODESIZE PUSH2 0x25E5 JUMP JUMPDEST PUSH2 0x2640 SWAP2 PUSH2 0x2619 JUMP JUMPDEST POP DUP6 PUSH1 0x0 MSTORE DUP2 DUP5 MSTORE PUSH1 0x64 DUP4 PUSH1 0x40 PUSH1 0x0 KECCAK256 SLOAD DUP7 SHR AND LT PUSH2 0x25E0 JUMP JUMPDEST POP DUP8 PUSH1 0x0 MSTORE DUP4 DUP7 MSTORE PUSH1 0x64 DUP6 PUSH1 0x40 PUSH1 0x0 KECCAK256 SLOAD PUSH1 0x18 SHR AND LT PUSH2 0x2573 JUMP JUMPDEST POP DUP8 PUSH1 0x0 MSTORE DUP4 DUP7 MSTORE PUSH1 0x64 DUP6 PUSH1 0x40 PUSH1 0x0 KECCAK256 SLOAD PUSH1 0x10 SHR AND LT PUSH2 0x2505 JUMP JUMPDEST POP DUP8 PUSH1 0x0 MSTORE DUP4 DUP7 MSTORE PUSH1 0x64 DUP6 PUSH1 0x40 PUSH1 0x0 KECCAK256 SLOAD PUSH1 0x8 SHR AND LT PUSH2 0x2494 JUMP JUMPDEST POP DUP8 PUSH1 0x0 MSTORE DUP4 DUP7 MSTORE PUSH1 0x64 DUP6 PUSH1 0x40 PUSH1 0x0 KECCAK256 SLOAD AND LT PUSH2 0x2421 JUMP JUMPDEST PUSH1 0x40 MLOAD PUSH3 0x461BCD PUSH1 0xE5 SHL DUP2 MSTORE DUP1 DUP8 ADD DUP5 SWAP1 MSTORE PUSH1 0x1A PUSH1 0x24 DUP3 ADD MSTORE PUSH32 0x4D617820747261696E696E67206C6576656C2072656163686564000000000000 PUSH1 0x44 DUP3 ADD MSTORE PUSH1 0x64 SWAP1 REVERT JUMPDEST PUSH1 0x40 MLOAD PUSH3 0x461BCD PUSH1 0xE5 SHL DUP2 MSTORE DUP1 DUP5 ADD DUP4 SWAP1 MSTORE PUSH1 0x21 PUSH1 0x24 DUP3 ADD MSTORE PUSH32 0x496E73756666696369656E74207061796D656E7420666F7220747261696E696E PUSH1 0x44 DUP3 ADD MSTORE PUSH1 0x67 PUSH1 0xF8 SHL PUSH1 0x64 DUP3 ADD MSTORE PUSH1 0x84 SWAP1 REVERT JUMPDEST POP CALLVALUE PUSH2 0x316 JUMPI PUSH1 0x20 CALLDATASIZE PUSH1 0x3 NOT ADD SLT PUSH2 0x316 JUMPI CALLDATALOAD PUSH1 0x0 MSTORE PUSH1 0xB PUSH1 0x20 MSTORE PUSH2 0x1C0 PUSH1 0x40 PUSH1 0x0 KECCAK256 PUSH1 0x1 DUP2 SLOAD SWAP2 ADD SLOAD SWAP1 PUSH1 0x40 MLOAD SWAP2 PUSH1 0xFF SWAP2 DUP3 DUP2 AND DUP5 MSTORE DUP3 DUP2 PUSH1 0x8 SHR AND PUSH1 0x20 DUP6 ADD MSTORE DUP3 DUP2 PUSH1 0x10 SHR AND PUSH1 0x40 DUP6 ADD MSTORE DUP3 DUP2 PUSH1 0x18 SHR AND PUSH1 0x60 DUP6 ADD MSTORE DUP3 DUP2 PUSH1 0x20 SHR AND PUSH1 0x80 DUP6 ADD MSTORE DUP3 DUP2 PUSH1 0x28 SHR AND PUSH1 0xA0 DUP6 ADD MSTORE PUSH6 0xFFFFFFFFFFFF DUP1 DUP3 PUSH1 0x30 SHR AND PUSH1 0xC0 DUP7 ADD MSTORE DUP2 PUSH1 0x60 SHR AND PUSH1 0xE0 DUP6 ADD MSTORE PUSH4 0xFFFFFFFF DUP2 DUP2 DUP1 SWAP4 PUSH1 0x90 SHR AND PUSH2 0x100 DUP8 ADD MSTORE DUP2 DUP2 PUSH1 0xB0 SHR AND PUSH2 0x120 DUP8 ADD MSTORE PUSH1 0xD0 SHR AND PUSH2 0x140 DUP6 ADD MSTORE DUP2 AND PUSH2 0x160 DUP5 ADD MSTORE DUP2 DUP2 PUSH1 0x20 SHR AND ISZERO ISZERO PUSH2 0x180 DUP5 ADD MSTORE PUSH1 0x28 SHR AND PUSH2 0x1A0 DUP3 ADD MSTORE RETURN JUMPDEST POP PUSH1 0x40 CALLDATASIZE PUSH1 0x3 NOT ADD SLT PUSH2 0x316 JUMPI DUP1 CALLDATALOAD PUSH1 0x24 CALLDATALOAD SWAP2 PUSH8 0xFFFFFFFFFFFFFFFF SWAP3 DUP4 DUP2 GT PUSH2 0x316 JUMPI CALLDATASIZE PUSH1 0x23 DUP3 ADD SLT ISZERO PUSH2 0x316 JUMPI PUSH2 0x287B SWAP1 CALLDATASIZE SWAP1 PUSH1 0x24 DUP2 DUP6 ADD CALLDATALOAD SWAP2 ADD PUSH2 0x2F1A JUMP JUMPDEST SWAP1 PUSH2 0x2888 PUSH2 0x2340 DUP5 PUSH2 0x329F JUMP JUMPDEST PUSH7 0x38D7EA4C68000 CALLVALUE LT PUSH2 0x2A6E JUMPI DUP2 MLOAD DUP1 ISZERO ISZERO SWAP1 DUP2 PUSH2 0x2A62 JUMPI JUMPDEST POP ISZERO PUSH2 0x2A28 JUMPI DUP3 PUSH1 0x0 MSTORE PUSH1 0x20 SWAP1 PUSH1 0xA DUP3 MSTORE PUSH1 0x40 PUSH1 0x0 KECCAK256 SWAP1 DUP4 MLOAD SWAP6 DUP7 GT PUSH2 0x2A13 JUMPI POP PUSH2 0x28CD DUP2 SLOAD PUSH2 0x2F86 JUMP JUMPDEST PUSH1 0x1F DUP2 GT PUSH2 0x29CD JUMPI JUMPDEST POP DUP2 PUSH1 0x1F DUP7 GT PUSH1 0x1 EQ PUSH2 0x2948 JUMPI SWAP5 DUP1 PUSH32 0x93BA1FD5253BDA82916758E6B2A5D92A597015CB1924170D2C0191BE6392DE22 SWAP6 SWAP7 PUSH1 0x0 SWAP2 PUSH2 0x293D JUMPI JUMPDEST POP DUP2 PUSH1 0x1 SHL SWAP2 PUSH1 0x0 NOT SWAP1 PUSH1 0x3 SHL SHR NOT AND OR SWAP1 SSTORE JUMPDEST PUSH2 0x2938 PUSH1 0x40 MLOAD SWAP3 DUP3 DUP5 SWAP4 DUP5 MSTORE DUP4 ADD SWAP1 PUSH2 0x2E04 JUMP JUMPDEST SUB SWAP1 LOG2 STOP JUMPDEST SWAP1 POP DUP5 ADD MLOAD CODESIZE PUSH2 0x2910 JUMP JUMPDEST PUSH1 0x1F NOT DUP7 AND SWAP1 DUP3 PUSH1 0x0 MSTORE DUP4 PUSH1 0x0 KECCAK256 SWAP2 PUSH1 0x0 JUMPDEST DUP2 DUP2 LT PUSH2 0x29B6 JUMPI POP SWAP2 DUP8 SWAP2 PUSH32 0x93BA1FD5253BDA82916758E6B2A5D92A597015CB1924170D2C0191BE6392DE22 SWAP8 SWAP9 PUSH1 0x1 SWAP5 LT PUSH2 0x299D JUMPI JUMPDEST POP POP DUP2 SHL ADD SWAP1 SSTORE PUSH2 0x2924 JUMP JUMPDEST DUP7 ADD MLOAD PUSH1 0x0 NOT PUSH1 0xF8 DUP5 PUSH1 0x3 SHL AND SHR NOT AND SWAP1 SSTORE CODESIZE DUP1 PUSH2 0x2991 JUMP JUMPDEST SWAP2 SWAP3 DUP6 PUSH1 0x1 DUP2 SWAP3 DUP7 DUP11 ADD MLOAD DUP2 SSTORE ADD SWAP5 ADD SWAP3 ADD PUSH2 0x295A JUMP JUMPDEST DUP2 PUSH1 0x0 MSTORE DUP3 PUSH1 0x0 KECCAK256 PUSH1 0x1F DUP8 ADD PUSH1 0x5 SHR DUP2 ADD SWAP2 DUP5 DUP9 LT PUSH2 0x2A09 JUMPI JUMPDEST PUSH1 0x1F ADD PUSH1 0x5 SHR ADD SWAP1 JUMPDEST DUP2 DUP2 LT PUSH2 0x29FD JUMPI POP PUSH2 0x28D6 JUMP JUMPDEST PUSH1 0x0 DUP2 SSTORE PUSH1 0x1 ADD PUSH2 0x29F0 JUMP JUMPDEST SWAP1 SWAP2 POP DUP2 SWAP1 PUSH2 0x29E7 JUMP JUMPDEST PUSH1 0x41 SWAP1 PUSH4 0x4E487B71 PUSH1 0xE0 SHL PUSH1 0x0 MSTORE MSTORE PUSH1 0x24 PUSH1 0x0 REVERT JUMPDEST PUSH1 0x64 SWAP1 PUSH1 0x20 PUSH1 0x40 MLOAD SWAP2 PUSH3 0x461BCD PUSH1 0xE5 SHL DUP4 MSTORE DUP3 ADD MSTORE PUSH1 0x13 PUSH1 0x24 DUP3 ADD MSTORE PUSH19 0x92DCECC2D8D2C840DCC2DACA40D8CADCCEE8D PUSH1 0x6B SHL PUSH1 0x44 DUP3 ADD MSTORE REVERT JUMPDEST PUSH1 0x20 SWAP2 POP GT ISZERO CODESIZE PUSH2 0x28A2 JUMP JUMPDEST PUSH1 0x84 SWAP1 PUSH1 0x20 PUSH1 0x40 MLOAD SWAP2 PUSH3 0x461BCD PUSH1 0xE5 SHL DUP4 MSTORE DUP3 ADD MSTORE PUSH1 0x21 PUSH1 0x24 DUP3 ADD MSTORE PUSH32 0x496E73756666696369656E74207061796D656E7420666F722072656E616D696E PUSH1 0x44 DUP3 ADD MSTORE PUSH1 0x67 PUSH1 0xF8 SHL PUSH1 0x64 DUP3 ADD MSTORE REVERT JUMPDEST CALLVALUE PUSH2 0x316 JUMPI PUSH1 0x20 CALLDATASIZE PUSH1 0x3 NOT ADD SLT PUSH2 0x316 JUMPI PUSH2 0x2AD5 PUSH2 0x2E29 JUMP JUMPDEST PUSH2 0x2ADD PUSH2 0x3184 JUMP JUMPDEST PUSH1 0xD DUP1 SLOAD PUSH1 0x1 PUSH1 0x1 PUSH1 0xA0 SHL SUB NOT AND PUSH1 0x1 PUSH1 0x1 PUSH1 0xA0 SHL SUB SWAP3 SWAP1 SWAP3 AND SWAP2 SWAP1 SWAP2 OR SWAP1 SSTORE STOP JUMPDEST POP CALLVALUE PUSH2 0x316 JUMPI PUSH1 0x40 CALLDATASIZE PUSH1 0x3 NOT ADD SLT PUSH2 0x316 JUMPI PUSH2 0x2B19 PUSH2 0x2E29 JUMP JUMPDEST PUSH1 0x24 CALLDATALOAD SWAP2 PUSH1 0x1 PUSH1 0x1 PUSH1 0xA0 SHL SUB SWAP1 DUP2 DUP1 PUSH2 0x2B31 DUP7 PUSH2 0x329F JUMP JUMPDEST AND SWAP4 AND SWAP3 DUP1 DUP5 EQ PUSH2 0x2C2B JUMPI DUP1 CALLER EQ SWAP1 DUP2 ISZERO PUSH2 0x2C06 JUMPI JUMPDEST POP ISZERO PUSH2 0x2B9C JUMPI DUP4 PUSH1 0x0 MSTORE PUSH1 0x20 MSTORE PUSH1 0x40 PUSH1 0x0 KECCAK256 DUP3 PUSH1 0x1 PUSH1 0x1 PUSH1 0x60 SHL SUB PUSH1 0xA0 SHL DUP3 SLOAD AND OR SWAP1 SSTORE PUSH2 0x2B74 DUP4 PUSH2 0x329F JUMP JUMPDEST AND PUSH32 0x8C5BE1E5EBEC7D5BD14F71427D1E84F3DD0314C0F7B2291E5B200AC8C7C3B925 PUSH1 0x0 DUP1 LOG4 STOP JUMPDEST PUSH1 0x84 SWAP1 PUSH1 0x20 PUSH1 0x40 MLOAD SWAP2 PUSH3 0x461BCD PUSH1 0xE5 SHL DUP4 MSTORE DUP3 ADD MSTORE PUSH1 0x3D PUSH1 0x24 DUP3 ADD MSTORE PUSH32 0x4552433732313A20617070726F76652063616C6C6572206973206E6F7420746F PUSH1 0x44 DUP3 ADD MSTORE PUSH32 0x6B656E206F776E6572206F7220617070726F76656420666F7220616C6C000000 PUSH1 0x64 DUP3 ADD MSTORE REVERT JUMPDEST SWAP1 POP PUSH1 0x0 MSTORE PUSH1 0x5 PUSH1 0x20 MSTORE PUSH1 0x40 PUSH1 0x0 KECCAK256 CALLER PUSH1 0x0 MSTORE PUSH1 0x20 MSTORE PUSH1 0xFF PUSH1 0x40 PUSH1 0x0 KECCAK256 SLOAD AND CODESIZE PUSH2 0x2B47 JUMP JUMPDEST PUSH1 0x40 MLOAD PUSH3 0x461BCD PUSH1 0xE5 SHL DUP2 MSTORE PUSH1 0x20 DUP2 DUP5 ADD MSTORE PUSH1 0x21 PUSH1 0x24 DUP3 ADD MSTORE PUSH32 0x4552433732313A20617070726F76616C20746F2063757272656E74206F776E65 PUSH1 0x44 DUP3 ADD MSTORE PUSH1 0x39 PUSH1 0xF9 SHL PUSH1 0x64 DUP3 ADD MSTORE PUSH1 0x84 SWAP1 REVERT JUMPDEST POP CALLVALUE PUSH2 0x316 JUMPI PUSH1 0x20 CALLDATASIZE PUSH1 0x3 NOT ADD SLT PUSH2 0x316 JUMPI PUSH2 0x171A PUSH1 0x20 SWAP2 CALLDATALOAD PUSH2 0x32C5 JUMP JUMPDEST CALLVALUE PUSH2 0x316 JUMPI PUSH1 0x0 CALLDATASIZE PUSH1 0x3 NOT ADD SLT PUSH2 0x316 JUMPI PUSH1 0x40 MLOAD PUSH1 0x0 DUP1 SLOAD PUSH2 0x2CB8 DUP2 PUSH2 0x2F86 JUMP JUMPDEST DUP1 DUP5 MSTORE SWAP1 PUSH1 0x1 SWAP1 DUP2 DUP2 AND SWAP1 DUP2 ISZERO PUSH2 0xF8A JUMPI POP PUSH1 0x1 EQ PUSH2 0x2CE1 JUMPI PUSH2 0x46C DUP5 PUSH2 0xF1D DUP2 DUP7 SUB DUP3 PUSH2 0x2EDC JUMP JUMPDEST PUSH1 0x0 DUP1 DUP1 MSTORE SWAP3 POP PUSH32 0x290DECD9548B62A8D60345A988386FC84BA6BC95484008F6362F93160EF3E563 JUMPDEST DUP3 DUP5 LT PUSH2 0x2D22 JUMPI POP POP POP DUP2 ADD PUSH1 0x20 ADD PUSH2 0xF1D DUP3 PUSH2 0xF0D JUMP JUMPDEST DUP1 SLOAD PUSH1 0x20 DUP6 DUP8 ADD DUP2 ADD SWAP2 SWAP1 SWAP2 MSTORE SWAP1 SWAP4 ADD SWAP3 DUP2 ADD PUSH2 0x2D0A JUMP JUMPDEST POP CALLVALUE PUSH2 0x316 JUMPI PUSH1 0x20 CALLDATASIZE PUSH1 0x3 NOT ADD SLT PUSH2 0x316 JUMPI CALLDATALOAD PUSH4 0xFFFFFFFF PUSH1 0xE0 SHL DUP2 AND DUP1 SWAP2 SUB PUSH2 0x316 JUMPI PUSH1 0x20 SWAP1 PUSH4 0x24832483 PUSH1 0xE1 SHL DUP2 EQ SWAP1 DUP2 ISZERO PUSH2 0x2D7E JUMPI JUMPDEST POP PUSH1 0x40 MLOAD SWAP1 ISZERO ISZERO DUP2 MSTORE RETURN JUMPDEST PUSH4 0x80AC58CD PUSH1 0xE0 SHL DUP2 EQ SWAP2 POP DUP2 ISZERO PUSH2 0x2DB0 JUMPI JUMPDEST DUP2 ISZERO PUSH2 0x2D9F JUMPI JUMPDEST POP CODESIZE PUSH2 0x2D73 JUMP JUMPDEST PUSH4 0x1FFC9A7 PUSH1 0xE0 SHL EQ SWAP1 POP CODESIZE PUSH2 0x2D98 JUMP JUMPDEST PUSH4 0x5B5E139F PUSH1 0xE0 SHL DUP2 EQ SWAP2 POP PUSH2 0x2D91 JUMP JUMPDEST CALLVALUE PUSH2 0x316 JUMPI PUSH1 0x0 CALLDATASIZE PUSH1 0x3 NOT ADD SLT PUSH2 0x316 JUMPI DUP1 PUSH7 0x11C37937E08000 PUSH1 0x20 SWAP3 MSTORE RETURN JUMPDEST PUSH1 0x0 JUMPDEST DUP4 DUP2 LT PUSH2 0x2DF4 JUMPI POP POP PUSH1 0x0 SWAP2 ADD MSTORE JUMP JUMPDEST DUP2 DUP2 ADD MLOAD DUP4 DUP3 ADD MSTORE PUSH1 0x20 ADD PUSH2 0x2DE4 JUMP JUMPDEST SWAP1 PUSH1 0x20 SWAP2 PUSH2 0x2E1D DUP2 MLOAD DUP1 SWAP3 DUP2 DUP6 MSTORE DUP6 DUP1 DUP7 ADD SWAP2 ADD PUSH2 0x2DE1 JUMP JUMPDEST PUSH1 0x1F ADD PUSH1 0x1F NOT AND ADD ADD SWAP1 JUMP JUMPDEST PUSH1 0x4 CALLDATALOAD SWAP1 PUSH1 0x1 PUSH1 0x1 PUSH1 0xA0 SHL SUB DUP3 AND DUP3 SUB PUSH2 0x316 JUMPI JUMP JUMPDEST PUSH1 0x24 CALLDATALOAD SWAP1 PUSH1 0x1 PUSH1 0x1 PUSH1 0xA0 SHL SUB DUP3 AND DUP3 SUB PUSH2 0x316 JUMPI JUMP JUMPDEST PUSH2 0x1C0 DUP2 ADD SWAP1 DUP2 LT PUSH8 0xFFFFFFFFFFFFFFFF DUP3 GT OR PUSH2 0x2E72 JUMPI PUSH1 0x40 MSTORE JUMP JUMPDEST PUSH4 0x4E487B71 PUSH1 0xE0 SHL PUSH1 0x0 MSTORE PUSH1 0x41 PUSH1 0x4 MSTORE PUSH1 0x24 PUSH1 0x0 REVERT JUMPDEST PUSH1 0x60 DUP2 ADD SWAP1 DUP2 LT PUSH8 0xFFFFFFFFFFFFFFFF DUP3 GT OR PUSH2 0x2E72 JUMPI PUSH1 0x40 MSTORE JUMP JUMPDEST PUSH1 0x40 DUP2 ADD SWAP1 DUP2 LT PUSH8 0xFFFFFFFFFFFFFFFF DUP3 GT OR PUSH2 0x2E72 JUMPI PUSH1 0x40 MSTORE JUMP JUMPDEST PUSH1 0x20 DUP2 ADD SWAP1 DUP2 LT PUSH8 0xFFFFFFFFFFFFFFFF DUP3 GT OR PUSH2 0x2E72 JUMPI PUSH1 0x40 MSTORE JUMP JUMPDEST SWAP1 PUSH1 0x1F DUP1 NOT SWAP2 ADD AND DUP2 ADD SWAP1 DUP2 LT PUSH8 0xFFFFFFFFFFFFFFFF DUP3 GT OR PUSH2 0x2E72 JUMPI PUSH1 0x40 MSTORE JUMP JUMPDEST PUSH8 0xFFFFFFFFFFFFFFFF DUP2 GT PUSH2 0x2E72 JUMPI PUSH1 0x1F ADD PUSH1 0x1F NOT AND PUSH1 0x20 ADD SWAP1 JUMP JUMPDEST SWAP3 SWAP2 SWAP3 PUSH2 0x2F26 DUP3 PUSH2 0x2EFE JUMP JUMPDEST SWAP2 PUSH2 0x2F34 PUSH1 0x40 MLOAD SWAP4 DUP5 PUSH2 0x2EDC JUMP JUMPDEST DUP3 SWAP5 DUP2 DUP5 MSTORE DUP2 DUP4 ADD GT PUSH2 0x316 JUMPI DUP3 DUP2 PUSH1 0x20 SWAP4 DUP5 PUSH1 0x0 SWAP7 ADD CALLDATACOPY ADD ADD MSTORE JUMP JUMPDEST PUSH1 0x60 SWAP1 PUSH1 0x3 NOT ADD SLT PUSH2 0x316 JUMPI PUSH1 0x1 PUSH1 0x1 PUSH1 0xA0 SHL SUB SWAP1 PUSH1 0x4 CALLDATALOAD DUP3 DUP2 AND DUP2 SUB PUSH2 0x316 JUMPI SWAP2 PUSH1 0x24 CALLDATALOAD SWAP1 DUP2 AND DUP2 SUB PUSH2 0x316 JUMPI SWAP1 PUSH1 0x44 CALLDATALOAD SWAP1 JUMP JUMPDEST SWAP1 PUSH1 0x1 DUP3 DUP2 SHR SWAP3 AND DUP1 ISZERO PUSH2 0x2FB6 JUMPI JUMPDEST PUSH1 0x20 DUP4 LT EQ PUSH2 0x2FA0 JUMPI JUMP JUMPDEST PUSH4 0x4E487B71 PUSH1 0xE0 SHL PUSH1 0x0 MSTORE PUSH1 0x22 PUSH1 0x4 MSTORE PUSH1 0x24 PUSH1 0x0 REVERT JUMPDEST SWAP2 PUSH1 0x7F AND SWAP2 PUSH2 0x2F95 JUMP JUMPDEST SWAP1 PUSH1 0x40 MLOAD SWAP2 DUP3 PUSH1 0x0 DUP3 SLOAD SWAP3 PUSH2 0x2FD4 DUP5 PUSH2 0x2F86 JUMP JUMPDEST SWAP1 DUP2 DUP5 MSTORE PUSH1 0x1 SWAP5 DUP6 DUP2 AND SWAP1 DUP2 PUSH1 0x0 EQ PUSH2 0x3043 JUMPI POP PUSH1 0x1 EQ PUSH2 0x3000 JUMPI JUMPDEST POP POP PUSH2 0x2FFE SWAP3 POP SUB DUP4 PUSH2 0x2EDC JUMP JUMPDEST JUMP JUMPDEST SWAP1 SWAP4 SWAP2 POP PUSH1 0x0 MSTORE PUSH1 0x20 SWAP1 DUP2 PUSH1 0x0 KECCAK256 SWAP4 PUSH1 0x0 SWAP2 JUMPDEST DUP2 DUP4 LT PUSH2 0x302B JUMPI POP POP PUSH2 0x2FFE SWAP4 POP DUP3 ADD ADD CODESIZE DUP1 PUSH2 0x2FF0 JUMP JUMPDEST DUP6 SLOAD DUP9 DUP5 ADD DUP6 ADD MSTORE SWAP5 DUP6 ADD SWAP5 DUP8 SWAP5 POP SWAP2 DUP4 ADD SWAP2 PUSH2 0x3013 JUMP JUMPDEST SWAP2 POP POP PUSH2 0x2FFE SWAP5 POP PUSH1 0x20 SWAP3 POP PUSH1 0xFF NOT AND DUP3 DUP5 ADD MSTORE ISZERO ISZERO PUSH1 0x5 SHL DUP3 ADD ADD CODESIZE DUP1 PUSH2 0x2FF0 JUMP JUMPDEST PUSH1 0x40 SWAP1 PUSH1 0x3 NOT ADD SLT PUSH2 0x316 JUMPI PUSH1 0x4 CALLDATALOAD SWAP1 PUSH1 0x24 CALLDATALOAD SWAP1 JUMP JUMPDEST PUSH1 0x20 SWAP1 DUP2 PUSH1 0x40 DUP2 DUP4 ADD SWAP3 DUP3 DUP2 MSTORE DUP6 MLOAD DUP1 SWAP5 MSTORE ADD SWAP4 ADD SWAP2 PUSH1 0x0 JUMPDEST DUP3 DUP2 LT PUSH2 0x30A3 JUMPI POP POP POP POP SWAP1 JUMP JUMPDEST DUP4 MLOAD DUP6 MSTORE SWAP4 DUP2 ADD SWAP4 SWAP3 DUP2 ADD SWAP3 PUSH1 0x1 ADD PUSH2 0x3095 JUMP JUMPDEST PUSH1 0x24 CALLDATALOAD SWAP1 DUP2 ISZERO ISZERO DUP3 SUB PUSH2 0x316 JUMPI JUMP JUMPDEST SWAP2 SWAP1 SWAP2 PUSH2 0x1C0 DUP2 ADD SWAP3 PUSH1 0xFF DUP1 DUP3 MLOAD AND DUP4 MSTORE DUP1 PUSH1 0x20 DUP4 ADD MLOAD AND PUSH1 0x20 DUP5 ADD MSTORE DUP1 PUSH1 0x40 DUP4 ADD MLOAD AND PUSH1 0x40 DUP5 ADD MSTORE DUP1 PUSH1 0x60 DUP4 ADD MLOAD AND PUSH1 0x60 DUP5 ADD MSTORE DUP1 PUSH1 0x80 DUP4 ADD MLOAD AND PUSH1 0x80 DUP5 ADD MSTORE DUP1 PUSH1 0xA0 DUP4 ADD MLOAD AND PUSH1 0xA0 DUP5 ADD MSTORE PUSH6 0xFFFFFFFFFFFF DUP1 PUSH1 0xC0 DUP5 ADD MLOAD AND PUSH1 0xC0 DUP6 ADD MSTORE PUSH1 0xE0 DUP4 ADD MLOAD AND PUSH1 0xE0 DUP5 ADD MSTORE PUSH4 0xFFFFFFFF PUSH2 0x100 DUP2 DUP2 DUP6 ADD MLOAD AND SWAP1 DUP6 ADD MSTORE PUSH2 0x120 DUP2 DUP2 DUP6 ADD MLOAD AND SWAP1 DUP6 ADD MSTORE PUSH2 0x140 DUP2 DUP2 DUP6 ADD MLOAD AND SWAP1 DUP6 ADD MSTORE PUSH2 0x160 SWAP1 DUP2 DUP5 ADD MLOAD AND SWAP1 DUP5 ADD MSTORE PUSH2 0x180 DUP1 DUP4 ADD MLOAD ISZERO ISZERO SWAP1 DUP5 ADD MSTORE PUSH2 0x1A0 DUP1 SWAP3 ADD MLOAD AND SWAP2 ADD MSTORE JUMP JUMPDEST PUSH1 0x7 SLOAD PUSH1 0x1 PUSH1 0x1 PUSH1 0xA0 SHL SUB AND CALLER SUB PUSH2 0x3198 JUMPI JUMP JUMPDEST PUSH1 0x64 PUSH1 0x40 MLOAD PUSH3 0x461BCD PUSH1 0xE5 SHL DUP2 MSTORE PUSH1 0x20 PUSH1 0x4 DUP3 ADD MSTORE PUSH1 0x20 PUSH1 0x24 DUP3 ADD MSTORE PUSH32 0x4F776E61626C653A2063616C6C6572206973206E6F7420746865206F776E6572 PUSH1 0x44 DUP3 ADD MSTORE REVERT JUMPDEST PUSH1 0x1 PUSH1 0x1 PUSH1 0xA0 SHL SUB AND DUP1 ISZERO PUSH2 0x31FC JUMPI PUSH1 0x0 MSTORE PUSH1 0x3 PUSH1 0x20 MSTORE PUSH1 0x40 PUSH1 0x0 KECCAK256 SLOAD SWAP1 JUMP JUMPDEST PUSH1 0x40 MLOAD PUSH3 0x461BCD PUSH1 0xE5 SHL DUP2 MSTORE PUSH1 0x20 PUSH1 0x4 DUP3 ADD MSTORE PUSH1 0x29 PUSH1 0x24 DUP3 ADD MSTORE PUSH32 0x4552433732313A2061646472657373207A65726F206973206E6F742061207661 PUSH1 0x44 DUP3 ADD MSTORE PUSH9 0x3634B21037BBB732B9 PUSH1 0xB9 SHL PUSH1 0x64 DUP3 ADD MSTORE PUSH1 0x84 SWAP1 REVERT JUMPDEST ISZERO PUSH2 0x325A JUMPI JUMP JUMPDEST PUSH1 0x40 MLOAD PUSH3 0x461BCD PUSH1 0xE5 SHL DUP2 MSTORE PUSH1 0x20 PUSH1 0x4 DUP3 ADD MSTORE PUSH1 0x18 PUSH1 0x24 DUP3 ADD MSTORE PUSH32 0x4552433732313A20696E76616C696420746F6B656E2049440000000000000000 PUSH1 0x44 DUP3 ADD MSTORE PUSH1 0x64 SWAP1 REVERT JUMPDEST PUSH1 0x0 SWAP1 DUP2 MSTORE PUSH1 0x2 PUSH1 0x20 MSTORE PUSH1 0x40 SWAP1 KECCAK256 SLOAD PUSH1 0x1 PUSH1 0x1 PUSH1 0xA0 SHL SUB AND PUSH2 0x32C2 DUP2 ISZERO ISZERO PUSH2 0x3253 JUMP JUMPDEST SWAP1 JUMP JUMPDEST PUSH1 0x0 DUP2 DUP2 MSTORE PUSH1 0x2 PUSH1 0x20 MSTORE PUSH1 0x40 SWAP1 KECCAK256 SLOAD PUSH2 0x32E8 SWAP1 PUSH1 0x1 PUSH1 0x1 PUSH1 0xA0 SHL SUB AND ISZERO ISZERO PUSH2 0x3253 JUMP JUMPDEST PUSH1 0x0 SWAP1 DUP2 MSTORE PUSH1 0x4 PUSH1 0x20 MSTORE PUSH1 0x40 SWAP1 KECCAK256 SLOAD PUSH1 0x1 PUSH1 0x1 PUSH1 0xA0 SHL SUB AND SWAP1 JUMP JUMPDEST ISZERO PUSH2 0x330A JUMPI JUMP JUMPDEST PUSH1 0x40 MLOAD PUSH3 0x461BCD PUSH1 0xE5 SHL DUP2 MSTORE PUSH1 0x20 PUSH1 0x4 DUP3 ADD MSTORE PUSH1 0x2D PUSH1 0x24 DUP3 ADD MSTORE PUSH32 0x4552433732313A2063616C6C6572206973206E6F7420746F6B656E206F776E65 PUSH1 0x44 DUP3 ADD MSTORE PUSH13 0x1C881BDC88185C1C1C9BDD9959 PUSH1 0x9A SHL PUSH1 0x64 DUP3 ADD MSTORE PUSH1 0x84 SWAP1 REVERT JUMPDEST PUSH1 0x80 SWAP1 PUSH1 0x20 DUP2 MSTORE PUSH1 0x32 PUSH1 0x20 DUP3 ADD MSTORE PUSH32 0x4552433732313A207472616E7366657220746F206E6F6E204552433732315265 PUSH1 0x40 DUP3 ADD MSTORE PUSH18 0x31B2B4BB32B91034B6B83632B6B2B73A32B9 PUSH1 0x71 SHL PUSH1 0x60 DUP3 ADD MSTORE ADD SWAP1 JUMP JUMPDEST ISZERO PUSH2 0x33BF JUMPI JUMP JUMPDEST PUSH1 0x40 MLOAD PUSH3 0x461BCD PUSH1 0xE5 SHL DUP2 MSTORE DUP1 PUSH2 0x33D8 PUSH1 0x4 DUP3 ADD PUSH2 0x3365 JUMP JUMPDEST SUB SWAP1 REVERT JUMPDEST SWAP1 PUSH1 0x1 PUSH1 0x1 PUSH1 0xA0 SHL SUB DUP1 DUP1 PUSH2 0x33F0 DUP5 PUSH2 0x329F JUMP JUMPDEST AND SWAP4 AND SWAP2 DUP4 DUP4 EQ SWAP4 DUP5 ISZERO PUSH2 0x3423 JUMPI JUMPDEST POP DUP4 ISZERO PUSH2 0x340D JUMPI JUMPDEST POP POP POP SWAP1 JUMP JUMPDEST PUSH2 0x3419 SWAP2 SWAP3 SWAP4 POP PUSH2 0x32C5 JUMP JUMPDEST AND EQ CODESIZE DUP1 DUP1 PUSH2 0x3407 JUMP JUMPDEST SWAP1 SWAP4 POP PUSH1 0x0 MSTORE PUSH1 0x5 PUSH1 0x20 MSTORE PUSH1 0x40 PUSH1 0x0 KECCAK256 DUP3 PUSH1 0x0 MSTORE PUSH1 0x20 MSTORE PUSH1 0xFF PUSH1 0x40 PUSH1 0x0 KECCAK256 SLOAD AND SWAP3 CODESIZE PUSH2 0x33FF JUMP JUMPDEST ISZERO PUSH2 0x3451 JUMPI JUMP JUMPDEST PUSH1 0x40 MLOAD PUSH3 0x461BCD PUSH1 0xE5 SHL DUP2 MSTORE PUSH1 0x20 PUSH1 0x4 DUP3 ADD MSTORE PUSH1 0x25 PUSH1 0x24 DUP3 ADD MSTORE PUSH32 0x4552433732313A207472616E736665722066726F6D20696E636F727265637420 PUSH1 0x44 DUP3 ADD MSTORE PUSH5 0x37BBB732B9 PUSH1 0xD9 SHL PUSH1 0x64 DUP3 ADD MSTORE PUSH1 0x84 SWAP1 REVERT JUMPDEST SWAP1 PUSH2 0x34CC SWAP2 PUSH2 0x34B2 DUP5 PUSH2 0x329F JUMP JUMPDEST PUSH1 0x1 PUSH1 0x1 PUSH1 0xA0 SHL SUB SWAP4 SWAP2 DUP5 AND SWAP3 DUP5 SWAP3 SWAP1 SWAP2 DUP4 AND DUP5 EQ PUSH2 0x344A JUMP JUMPDEST AND SWAP2 DUP3 ISZERO PUSH2 0x3564 JUMPI DUP2 PUSH2 0x34E9 SWAP2 PUSH2 0x34E2 DUP7 PUSH2 0x329F JUMP JUMPDEST AND EQ PUSH2 0x344A JUMP JUMPDEST PUSH32 0xDDF252AD1BE2C89B69C2B068FC378DAA952BA7F163C4A11628F55A4DF523B3EF PUSH1 0x0 DUP5 DUP2 MSTORE PUSH1 0x4 PUSH1 0x20 MSTORE PUSH1 0x40 DUP2 KECCAK256 PUSH1 0x1 PUSH1 0x1 PUSH1 0x60 SHL SUB PUSH1 0xA0 SHL SWAP1 DUP2 DUP2 SLOAD AND SWAP1 SSTORE DUP4 DUP3 MSTORE PUSH1 0x3 PUSH1 0x20 MSTORE PUSH1 0x40 DUP3 KECCAK256 PUSH1 0x0 NOT DUP2 SLOAD ADD SWAP1 SSTORE DUP5 DUP3 MSTORE PUSH1 0x40 DUP3 KECCAK256 PUSH1 0x1 DUP2 SLOAD ADD SWAP1 SSTORE DUP6 DUP3 MSTORE PUSH1 0x2 PUSH1 0x20 MSTORE DUP5 PUSH1 0x40 DUP4 KECCAK256 SWAP2 DUP3 SLOAD AND OR SWAP1 SSTORE DUP1 LOG4 JUMP JUMPDEST PUSH1 0x40 MLOAD PUSH3 0x461BCD PUSH1 0xE5 SHL DUP2 MSTORE PUSH1 0x20 PUSH1 0x4 DUP3 ADD MSTORE PUSH1 0x24 DUP1 DUP3 ADD MSTORE PUSH32 0x4552433732313A207472616E7366657220746F20746865207A65726F20616464 PUSH1 0x44 DUP3 ADD MSTORE PUSH4 0x72657373 PUSH1 0xE0 SHL PUSH1 0x64 DUP3 ADD MSTORE PUSH1 0x84 SWAP1 REVERT JUMPDEST RETURNDATASIZE ISZERO PUSH2 0x35E0 JUMPI RETURNDATASIZE SWAP1 PUSH2 0x35C6 DUP3 PUSH2 0x2EFE JUMP JUMPDEST SWAP2 PUSH2 0x35D4 PUSH1 0x40 MLOAD SWAP4 DUP5 PUSH2 0x2EDC JUMP JUMPDEST DUP3 MSTORE RETURNDATASIZE PUSH1 0x0 PUSH1 0x20 DUP5 ADD RETURNDATACOPY JUMP JUMPDEST PUSH1 0x60 SWAP1 JUMP JUMPDEST SWAP1 SWAP2 SWAP1 DUP1 EXTCODESIZE ISZERO PUSH2 0x36D5 JUMPI PUSH1 0x20 PUSH1 0x40 MLOAD DUP1 SWAP3 DUP2 PUSH4 0xA85BD01 PUSH1 0xE1 SHL SWAP7 DUP8 DUP3 MSTORE CALLER PUSH1 0x4 DUP4 ADD MSTORE DUP2 PUSH2 0x362E PUSH1 0x0 SWAP9 DUP10 SWAP4 DUP5 PUSH1 0x24 DUP6 ADD MSTORE PUSH1 0x44 DUP5 ADD MSTORE PUSH1 0x80 PUSH1 0x64 DUP5 ADD MSTORE PUSH1 0x84 DUP4 ADD SWAP1 PUSH2 0x2E04 JUMP JUMPDEST SUB SWAP3 PUSH1 0x1 PUSH1 0x1 PUSH1 0xA0 SHL SUB AND GAS CALL SWAP1 DUP3 SWAP1 DUP3 PUSH2 0x3686 JUMPI JUMPDEST POP POP PUSH2 0x3678 JUMPI PUSH2 0x3652 PUSH2 0x35B5 JUMP JUMPDEST DUP1 MLOAD SWAP1 DUP2 PUSH2 0x3673 JUMPI PUSH1 0x40 MLOAD PUSH3 0x461BCD PUSH1 0xE5 SHL DUP2 MSTORE DUP1 PUSH2 0x33D8 PUSH1 0x4 DUP3 ADD PUSH2 0x3365 JUMP JUMPDEST PUSH1 0x20 ADD REVERT JUMPDEST PUSH1 0x1 PUSH1 0x1 PUSH1 0xE0 SHL SUB NOT AND EQ SWAP1 JUMP JUMPDEST SWAP1 SWAP2 SWAP3 POP PUSH1 0x20 DUP2 RETURNDATASIZE DUP3 GT PUSH2 0x36CD JUMPI JUMPDEST DUP2 PUSH2 0x36A2 PUSH1 0x20 SWAP4 DUP4 PUSH2 0x2EDC JUMP JUMPDEST DUP2 ADD SUB SLT PUSH2 0x36C9 JUMPI MLOAD SWAP1 PUSH1 0x1 PUSH1 0x1 PUSH1 0xE0 SHL SUB NOT DUP3 AND DUP3 SUB PUSH2 0x36C6 JUMPI POP SWAP1 CODESIZE DUP1 PUSH2 0x3644 JUMP JUMPDEST DUP1 REVERT JUMPDEST POP DUP1 REVERT JUMPDEST RETURNDATASIZE SWAP2 POP PUSH2 0x3695 JUMP JUMPDEST POP POP POP PUSH1 0x1 SWAP1 JUMP JUMPDEST SWAP2 SWAP3 SWAP1 DUP1 EXTCODESIZE ISZERO PUSH2 0x3752 JUMPI PUSH1 0x40 MLOAD PUSH4 0xA85BD01 PUSH1 0xE1 SHL DUP1 DUP3 MSTORE CALLER PUSH1 0x4 DUP4 ADD MSTORE PUSH1 0x1 PUSH1 0x1 PUSH1 0xA0 SHL SUB SWAP5 DUP6 AND PUSH1 0x24 DUP4 ADD MSTORE PUSH1 0x44 DUP3 ADD SWAP6 SWAP1 SWAP6 MSTORE PUSH1 0x80 PUSH1 0x64 DUP3 ADD MSTORE SWAP2 PUSH1 0x20 SWAP2 DUP4 SWAP2 DUP3 SWAP1 DUP2 SWAP1 PUSH2 0x3732 SWAP1 PUSH1 0x84 DUP4 ADD SWAP1 PUSH2 0x2E04 JUMP JUMPDEST SUB SWAP2 PUSH1 0x0 SWAP7 DUP8 SWAP2 AND GAS CALL SWAP1 DUP3 SWAP1 DUP3 PUSH2 0x3686 JUMPI POP POP PUSH2 0x3678 JUMPI PUSH2 0x3652 PUSH2 0x35B5 JUMP JUMPDEST POP POP POP POP PUSH1 0x1 SWAP1 JUMP JUMPDEST ISZERO PUSH2 0x3762 JUMPI JUMP JUMPDEST PUSH1 0x40 MLOAD PUSH3 0x461BCD PUSH1 0xE5 SHL DUP2 MSTORE PUSH1 0x20 PUSH1 0x4 DUP3 ADD MSTORE PUSH1 0x14 PUSH1 0x24 DUP3 ADD MSTORE PUSH20 0x125B9CDD59999A58DA595B9D081C185E5B595B9D PUSH1 0x62 SHL PUSH1 0x44 DUP3 ADD MSTORE PUSH1 0x64 SWAP1 REVERT JUMPDEST ISZERO PUSH2 0x37A5 JUMPI JUMP JUMPDEST PUSH1 0x40 MLOAD PUSH3 0x461BCD PUSH1 0xE5 SHL DUP2 MSTORE PUSH1 0x20 PUSH1 0x4 DUP3 ADD MSTORE PUSH1 0x12 PUSH1 0x24 DUP3 ADD MSTORE PUSH18 0x13585E081CDD5C1C1B1E481C995858DA1959 PUSH1 0x72 SHL PUSH1 0x44 DUP3 ADD MSTORE PUSH1 0x64 SWAP1 REVERT JUMPDEST PUSH1 0x40 MLOAD SWAP1 PUSH2 0x37EC DUP3 PUSH2 0x2EA4 JUMP JUMPDEST PUSH1 0x8 DUP3 MSTORE PUSH8 0xE6E8E4CADCCEE8D PUSH1 0xC3 SHL PUSH1 0x20 DUP4 ADD MSTORE JUMP JUMPDEST SWAP2 SWAP1 DUP3 ADD DUP1 SWAP3 GT PUSH2 0x3810 JUMPI JUMP JUMPDEST PUSH4 0x4E487B71 PUSH1 0xE0 SHL PUSH1 0x0 MSTORE PUSH1 0x11 PUSH1 0x4 MSTORE PUSH1 0x24 PUSH1 0x0 REVERT JUMPDEST PUSH1 0x40 MLOAD SWAP1 PUSH2 0x3833 DUP3 PUSH2 0x2EA4 JUMP JUMPDEST PUSH1 0x5 DUP3 MSTORE PUSH5 0x1CDC195959 PUSH1 0xDA SHL PUSH1 0x20 DUP4 ADD MSTORE JUMP JUMPDEST PUSH1 0x40 MLOAD SWAP1 PUSH2 0x3854 DUP3 PUSH2 0x2EA4 JUMP JUMPDEST PUSH1 0x7 DUP3 MSTORE PUSH7 0x7374616D696E61 PUSH1 0xC8 SHL PUSH1 0x20 DUP4 ADD MSTORE JUMP JUMPDEST PUSH1 0x40 MLOAD SWAP1 PUSH2 0x3877 DUP3 PUSH2 0x2EA4 JUMP JUMPDEST PUSH1 0xC DUP3 MSTORE PUSH12 0x696E74656C6C6967656E6365 PUSH1 0xA0 SHL PUSH1 0x20 DUP4 ADD MSTORE JUMP JUMPDEST PUSH1 0x40 MLOAD SWAP1 PUSH2 0x389F DUP3 PUSH2 0x2EA4 JUMP JUMPDEST PUSH1 0x4 DUP3 MSTORE PUSH4 0x6C75636B PUSH1 0xE0 SHL PUSH1 0x20 DUP4 ADD MSTORE JUMP JUMPDEST PUSH1 0x2 PUSH1 0x8 SLOAD EQ PUSH2 0x38C3 JUMPI PUSH1 0x2 PUSH1 0x8 SSTORE JUMP JUMPDEST PUSH1 0x40 MLOAD PUSH3 0x461BCD PUSH1 0xE5 SHL DUP2 MSTORE PUSH1 0x20 PUSH1 0x4 DUP3 ADD MSTORE PUSH1 0x1F PUSH1 0x24 DUP3 ADD MSTORE PUSH32 0x5265656E7472616E637947756172643A207265656E7472616E742063616C6C00 PUSH1 0x44 DUP3 ADD MSTORE PUSH1 0x64 SWAP1 REVERT JUMPDEST PUSH1 0x40 MLOAD PUSH2 0x3914 DUP2 PUSH2 0x2EC0 JUMP JUMPDEST PUSH1 0x0 DUP1 DUP3 MSTORE SWAP3 PUSH1 0x1 PUSH1 0x1 PUSH1 0xA0 SHL SUB DUP4 AND SWAP3 DUP4 ISZERO PUSH2 0x39D9 JUMPI DUP2 PUSH2 0x773 SWAP5 PUSH2 0x2FFE SWAP7 PUSH2 0x395C PUSH2 0x3956 DUP5 PUSH1 0x0 MSTORE PUSH1 0x2 PUSH1 0x20 MSTORE PUSH1 0x1 DUP1 PUSH1 0xA0 SHL SUB PUSH1 0x40 PUSH1 0x0 KECCAK256 SLOAD AND ISZERO ISZERO SWAP1 JUMP JUMPDEST ISZERO PUSH2 0x3A1D JUMP JUMPDEST PUSH1 0x0 DUP4 DUP2 MSTORE PUSH1 0x2 PUSH1 0x20 MSTORE PUSH1 0x40 SWAP1 KECCAK256 SLOAD PUSH2 0x397F SWAP1 PUSH1 0x1 PUSH1 0x1 PUSH1 0xA0 SHL SUB AND ISZERO ISZERO PUSH2 0x3956 JUMP JUMPDEST DUP2 DUP2 MSTORE PUSH1 0x3 PUSH1 0x20 MSTORE PUSH1 0x40 DUP2 KECCAK256 PUSH1 0x1 DUP2 SLOAD ADD SWAP1 SSTORE DUP3 DUP2 MSTORE PUSH1 0x2 PUSH1 0x20 MSTORE PUSH1 0x40 DUP2 KECCAK256 DUP3 PUSH1 0x1 PUSH1 0x1 PUSH1 0x60 SHL SUB PUSH1 0xA0 SHL DUP3 SLOAD AND OR SWAP1 SSTORE PUSH32 0xDDF252AD1BE2C89B69C2B068FC378DAA952BA7F163C4A11628F55A4DF523B3EF DUP2 DUP1 LOG4 PUSH2 0x35E5 JUMP JUMPDEST PUSH1 0x64 PUSH1 0x40 MLOAD PUSH3 0x461BCD PUSH1 0xE5 SHL DUP2 MSTORE PUSH1 0x20 PUSH1 0x4 DUP3 ADD MSTORE PUSH1 0x20 PUSH1 0x24 DUP3 ADD MSTORE PUSH32 0x4552433732313A206D696E7420746F20746865207A65726F2061646472657373 PUSH1 0x44 DUP3 ADD MSTORE REVERT JUMPDEST ISZERO PUSH2 0x3A24 JUMPI JUMP JUMPDEST PUSH1 0x40 MLOAD PUSH3 0x461BCD PUSH1 0xE5 SHL DUP2 MSTORE PUSH1 0x20 PUSH1 0x4 DUP3 ADD MSTORE PUSH1 0x1C PUSH1 0x24 DUP3 ADD MSTORE PUSH32 0x4552433732313A20746F6B656E20616C7265616479206D696E74656400000000 PUSH1 0x44 DUP3 ADD MSTORE PUSH1 0x64 SWAP1 REVERT JUMPDEST PUSH8 0xFFFFFFFFFFFFFFFF DUP2 GT PUSH2 0x2E72 JUMPI PUSH1 0x5 SHL PUSH1 0x20 ADD SWAP1 JUMP JUMPDEST SWAP1 PUSH2 0x3A8B DUP3 PUSH2 0x3A69 JUMP JUMPDEST PUSH2 0x3A98 PUSH1 0x40 MLOAD SWAP2 DUP3 PUSH2 0x2EDC JUMP JUMPDEST DUP3 DUP2 MSTORE DUP1 SWAP3 PUSH2 0x3AA9 PUSH1 0x1F NOT SWAP2 PUSH2 0x3A69 JUMP JUMPDEST ADD SWAP1 PUSH1 0x20 CALLDATASIZE SWAP2 ADD CALLDATACOPY JUMP JUMPDEST PUSH1 0x0 NOT DUP2 EQ PUSH2 0x3810 JUMPI PUSH1 0x1 ADD SWAP1 JUMP JUMPDEST DUP1 MLOAD DUP3 LT ISZERO PUSH2 0x3AD6 JUMPI PUSH1 0x20 SWAP2 PUSH1 0x5 SHL ADD ADD SWAP1 JUMP JUMPDEST PUSH4 0x4E487B71 PUSH1 0xE0 SHL PUSH1 0x0 MSTORE PUSH1 0x32 PUSH1 0x4 MSTORE PUSH1 0x24 PUSH1 0x0 REVERT JUMPDEST ISZERO PUSH2 0x3AF3 JUMPI JUMP JUMPDEST PUSH1 0x40 MLOAD PUSH3 0x461BCD PUSH1 0xE5 SHL DUP2 MSTORE PUSH1 0x20 PUSH1 0x4 DUP3 ADD MSTORE PUSH1 0xD PUSH1 0x24 DUP3 ADD MSTORE PUSH13 0x2737BA103A34329037BBB732B9 PUSH1 0x99 SHL PUSH1 0x44 DUP3 ADD MSTORE PUSH1 0x64 SWAP1 REVERT JUMPDEST SWAP2 SWAP1 DUP3 SUB SWAP2 DUP3 GT PUSH2 0x3810 JUMPI JUMP JUMPDEST PUSH1 0xFF AND PUSH1 0xFF DUP2 EQ PUSH2 0x3810 JUMPI PUSH1 0x1 ADD SWAP1 JUMP JUMPDEST ISZERO PUSH2 0x3B4D JUMPI JUMP JUMPDEST PUSH1 0x40 MLOAD PUSH3 0x461BCD PUSH1 0xE5 SHL DUP2 MSTORE PUSH1 0x20 PUSH1 0x4 DUP3 ADD MSTORE PUSH1 0xE PUSH1 0x24 DUP3 ADD MSTORE PUSH14 0x139BDD08185D5D1A1BDC9A5E9959 PUSH1 0x92 SHL PUSH1 0x44 DUP3 ADD MSTORE PUSH1 0x64 SWAP1 REVERT JUMPDEST PUSH4 0xFFFFFFFF DUP1 SWAP2 AND SWAP1 DUP2 EQ PUSH2 0x3810 JUMPI PUSH1 0x1 ADD SWAP1 JUMP JUMPDEST ISZERO PUSH2 0x3B9F JUMPI JUMP JUMPDEST PUSH1 0x40 MLOAD PUSH3 0x461BCD PUSH1 0xE5 SHL DUP2 MSTORE PUSH1 0x20 PUSH1 0x4 DUP3 ADD MSTORE PUSH1 0x14 PUSH1 0x24 DUP3 ADD MSTORE PUSH20 0x151BDAD95B88191BD95CC81B9BDD08195E1A5CDD PUSH1 0x62 SHL PUSH1 0x44 DUP3 ADD MSTORE PUSH1 0x64 SWAP1 REVERT JUMPDEST PUSH4 0xFFFFFFFF DUP1 SWAP2 AND DUP1 ISZERO PUSH2 0x3C05 JUMPI PUSH1 0x64 PUSH2 0x3BF5 SWAP2 DIV PUSH2 0x3C0C JUMP JUMPDEST DUP1 PUSH2 0x3C01 JUMPI POP POP PUSH1 0x1 SWAP1 JUMP JUMPDEST AND SWAP1 JUMP JUMPDEST POP POP PUSH1 0x1 SWAP1 JUMP JUMPDEST DUP1 ISZERO PUSH2 0x3C65 JUMPI PUSH1 0x1 DUP1 DUP3 ADD DUP1 DUP4 GT PUSH2 0x3810 JUMPI DUP2 SHR SWAP1 DUP3 JUMPDEST DUP4 DUP4 LT PUSH2 0x3C30 JUMPI POP POP POP SWAP1 JUMP JUMPDEST SWAP2 SWAP3 POP SWAP1 DUP3 DUP1 ISZERO PUSH2 0x3C50 JUMPI DUP1 PUSH2 0x3C47 SWAP2 DUP4 DIV PUSH2 0x3803 JUMP JUMPDEST DUP3 SHR SWAP2 SWAP1 PUSH2 0x3C23 JUMP JUMPDEST PUSH1 0x24 PUSH1 0x0 PUSH4 0x4E487B71 PUSH1 0xE0 SHL DUP2 MSTORE PUSH1 0x12 PUSH1 0x4 MSTORE REVERT JUMPDEST POP PUSH1 0x0 SWAP1 JUMP JUMPDEST SWAP1 PUSH2 0x3CB6 PUSH1 0x94 PUSH1 0x40 MLOAD DUP1 SWAP4 PUSH1 0x20 DUP3 ADD SWAP6 TIMESTAMP DUP8 MSTORE PREVRANDAO PUSH1 0x40 DUP5 ADD MSTORE PUSH1 0x60 DUP4 ADD MSTORE PUSH2 0x3C9D DUP2 MLOAD DUP1 SWAP3 PUSH1 0x20 PUSH1 0x80 DUP7 ADD SWAP2 ADD PUSH2 0x2DE1 JUMP JUMPDEST DUP2 ADD CALLER PUSH1 0x60 SHL PUSH1 0x80 DUP3 ADD MSTORE SUB PUSH1 0x74 DUP2 ADD DUP5 MSTORE ADD DUP3 PUSH2 0x2EDC JUMP JUMPDEST MLOAD SWAP1 KECCAK256 SWAP1 JUMP INVALID LOG2 PUSH5 0x6970667358 0x22 SLT KECCAK256 MUL 0xEF SWAP14 CALLDATACOPY EXP 0x4E PUSH17 0xF832F218118444AB2D21D877B03013D3D5 CALLDATASIZE 0xD8 KECCAK256 SWAP6 SWAP6 0x4A 0x4A ADDMOD PUSH5 0x736F6C6343 STOP ADDMOD EQ STOP CALLER "},"methodIdentifiers":{"MARKETPLACE_FEE()":"9c103c61","MAX_SUPPLY()":"32cb6b0c","MAX_TRAINING_LEVEL()":"b795945b","MINT_PRICE()":"c002d23d","RENAME_PRICE()":"d773154f","TRAIN_PRICE()":"0139c414","XP_PER_BATTLE()":"ce1b98c8","XP_PER_BATTLE_WIN()":"85d4d882","XP_PER_BREED()":"a2e96035","XP_PER_RACE()":"8c5abc24","XP_PER_RACE_WIN()":"6a6ef765","addXP(uint256,uint256)":"5146ea0e","approve(address,uint256)":"095ea7b3","balanceOf(address)":"70a08231","batchMintHens(uint256)":"5948e5e4","battleContract()":"423b1ca3","breedingContract()":"836e3375","buyHen(uint256)":"7bba64af","delistHen(uint256)":"50c7d5a0","getApproved(uint256)":"081812fc","getHenPower(uint256)":"afa2cf03","getHenTraits(uint256)":"a6345141","getHensByOwner(address)":"70e6e99a","henNames(uint256)":"4ac18640","henTraits(uint256)":"1733cdc8","isApprovedForAll(address,address)":"e985e9c5","listHen(uint256,uint256)":"bcaf673f","listings(uint256)":"de74e57b","mintHen()":"9c903ff0","mintOffspring(address,uint8,uint8,uint8,uint8,uint8,uint8)":"7deb0bf1","name()":"06fdde03","owner()":"8da5cb5b","ownerOf(uint256)":"6352211e","racingContract()":"89d796e4","renameHen(uint256,string)":"11712cc3","renounceOwnership()":"715018a6","safeTransferFrom(address,address,uint256)":"42842e0e","safeTransferFrom(address,address,uint256,bytes)":"b88d4fde","setApprovalForAll(address,bool)":"a22cb465","setBattleContract(address)":"0db6dff7","setBreedingContract(address)":"8c5527cf","setRacingContract(address)":"4b978505","supportsInterface(bytes4)":"01ffc9a7","symbol()":"95d89b41","tokenURI(uint256)":"c87b56dd","trainHen(uint256)":"19dd0cd8","transferFrom(address,address,uint256)":"23b872dd","transferOwnership(address)":"f2fde38b","updateBattleStats(uint256,bool)":"c62e0435","updateRaceStats(uint256)":"20960c46","withdraw()":"3ccfd60b"}}}}}