{
  "_format": "hh-sol-artifact-1",
  "contractName": "HenRacing",
  "sourceName": "contracts/HenRacing.sol",
  "abi": [
    {
      "inputs": [
        {
          "internalType": "address",
          "name": "_henNFTAddress",
          "type": "address"
        }
      ],
      "stateMutability": "nonpayable",
      "type": "constructor"
    },
    {
      "anonymous": false,
      "inputs": [
        {
          "indexed": true,
          "internalType": "uint256",
          "name": "raceId",
          "type": "uint256"
        },
        {
          "indexed": true,
          "internalType": "uint256",
          "name": "henId",
          "type": "uint256"
        },
        {
          "indexed": true,
          "internalType": "address",
          "name": "owner",
          "type": "address"
        }
      ],
      "name": "HenEntered",
      "type": "event"
    },
    {
      "anonymous": false,
      "inputs": [
        {
          "indexed": true,
          "internalType": "address",
          "name": "previousOwner",
          "type": "address"
        },
        {
          "indexed": true,
          "internalType": "address",
          "name": "newOwner",
          "type": "address"
        }
      ],
      "name": "OwnershipTransferred",
      "type": "event"
    },
    {
      "anonymous": false,
      "inputs": [
        {
          "indexed": true,
          "internalType": "uint256",
          "name": "raceId",
          "type": "uint256"
        },
        {
          "indexed": true,
          "internalType": "uint256",
          "name": "henId",
          "type": "uint256"
        },
        {
          "indexed": true,
          "internalType": "address",
          "name": "owner",
          "type": "address"
        },
        {
          "indexed": false,
          "internalType": "uint256",
          "name": "position",
          "type": "uint256"
        },
        {
          "indexed": false,
          "internalType": "uint256",
          "name": "prize",
          "type": "uint256"
        }
      ],
      "name": "PrizeAwarded",
      "type": "event"
    },
    {
      "anonymous": false,
      "inputs": [
        {
          "indexed": true,
          "internalType": "uint256",
          "name": "raceId",
          "type": "uint256"
        },
        {
          "indexed": false,
          "internalType": "uint256[]",
          "name": "winners",
          "type": "uint256[]"
        },
        {
          "indexed": false,
          "internalType": "uint256[]",
          "name": "prizes",
          "type": "uint256[]"
        }
      ],
      "name": "RaceComplete",
      "type": "event"
    },
    {
      "anonymous": false,
      "inputs": [
        {
          "indexed": true,
          "internalType": "uint256",
          "name": "raceId",
          "type": "uint256"
        },
        {
          "indexed": false,
          "internalType": "uint256",
          "name": "startTime",
          "type": "uint256"
        },
        {
          "indexed": false,
          "internalType": "uint256",
          "name": "entryFee",
          "type": "uint256"
        },
        {
          "indexed": false,
          "internalType": "uint256",
          "name": "maxParticipants",
          "type": "uint256"
        }
      ],
      "name": "RaceCreated",
      "type": "event"
    },
    {
      "anonymous": false,
      "inputs": [
        {
          "indexed": true,
          "internalType": "uint256",
          "name": "raceId",
          "type": "uint256"
        },
        {
          "indexed": false,
          "internalType": "uint256[]",
          "name": "participants",
          "type": "uint256[]"
        }
      ],
      "name": "RaceStarted",
      "type": "event"
    },
    {
      "inputs": [
        {
          "internalType": "uint256",
          "name": "raceId",
          "type": "uint256"
        },
        {
          "internalType": "uint256",
          "name": "henId",
          "type": "uint256"
        }
      ],
      "name": "canEnterRace",
      "outputs": [
        {
          "internalType": "bool",
          "name": "",
          "type": "bool"
        },
        {
          "internalType": "string",
          "name": "",
          "type": "string"
        }
      ],
      "stateMutability": "view",
      "type": "function"
    },
    {
      "inputs": [
        {
          "internalType": "uint256",
          "name": "raceId",
          "type": "uint256"
        }
      ],
      "name": "cancelRace",
      "outputs": [],
      "stateMutability": "nonpayable",
      "type": "function"
    },
    {
      "inputs": [
        {
          "internalType": "uint256",
          "name": "startTime",
          "type": "uint256"
        },
        {
          "internalType": "uint256",
          "name": "entryFee",
          "type": "uint256"
        },
        {
          "internalType": "uint256",
          "name": "maxParticipants",
          "type": "uint256"
        }
      ],
      "name": "createRace",
      "outputs": [
        {
          "internalType": "uint256",
          "name": "",
          "type": "uint256"
        }
      ],
      "stateMutability": "nonpayable",
      "type": "function"
    },
    {
      "inputs": [
        {
          "internalType": "uint256",
          "name": "raceId",
          "type": "uint256"
        },
        {
          "internalType": "uint256",
          "name": "henId",
          "type": "uint256"
        }
      ],
      "name": "enterRace",
      "outputs": [],
      "stateMutability": "payable",
      "type": "function"
    },
    {
      "inputs": [
        {
          "internalType": "uint256",
          "name": "henId",
          "type": "uint256"
        }
      ],
      "name": "getHenRaceStats",
      "outputs": [
        {
          "internalType": "uint256",
          "name": "totalRaces",
          "type": "uint256"
        },
        {
          "internalType": "uint256",
          "name": "wins",
          "type": "uint256"
        },
        {
          "internalType": "uint256",
          "name": "totalPrizes",
          "type": "uint256"
        }
      ],
      "stateMutability": "view",
      "type": "function"
    },
    {
      "inputs": [
        {
          "internalType": "uint256",
          "name": "raceId",
          "type": "uint256"
        }
      ],
      "name": "getRaceParticipants",
      "outputs": [
        {
          "internalType": "uint256[]",
          "name": "",
          "type": "uint256[]"
        }
      ],
      "stateMutability": "view",
      "type": "function"
    },
    {
      "inputs": [
        {
          "internalType": "uint256",
          "name": "raceId",
          "type": "uint256"
        }
      ],
      "name": "getRaceResults",
      "outputs": [
        {
          "components": [
            {
              "internalType": "uint256",
              "name": "raceId",
              "type": "uint256"
            },
            {
              "internalType": "uint256",
              "name": "henId",
              "type": "uint256"
            },
            {
              "internalType": "address",
              "name": "owner",
              "type": "address"
            },
            {
              "internalType": "uint256",
              "name": "position",
              "type": "uint256"
            },
            {
              "internalType": "uint256",
              "name": "finishTime",
              "type": "uint256"
            },
            {
              "internalType": "uint256",
              "name": "prize",
              "type": "uint256"
            }
          ],
          "internalType": "struct HenRacing.RaceResult[]",
          "name": "",
          "type": "tuple[]"
        }
      ],
      "stateMutability": "view",
      "type": "function"
    },
    {
      "inputs": [
        {
          "internalType": "uint256",
          "name": "",
          "type": "uint256"
        },
        {
          "internalType": "uint256",
          "name": "",
          "type": "uint256"
        }
      ],
      "name": "henInRace",
      "outputs": [
        {
          "internalType": "bool",
          "name": "",
          "type": "bool"
        }
      ],
      "stateMutability": "view",
      "type": "function"
    },
    {
      "inputs": [],
      "name": "henNFT",
      "outputs": [
        {
          "internalType": "contract IHenNFT",
          "name": "",
          "type": "address"
        }
      ],
      "stateMutability": "view",
      "type": "function"
    },
    {
      "inputs": [],
      "name": "owner",
      "outputs": [
        {
          "internalType": "address",
          "name": "",
          "type": "address"
        }
      ],
      "stateMutability": "view",
      "type": "function"
    },
    {
      "inputs": [
        {
          "internalType": "uint256",
          "name": "",
          "type": "uint256"
        }
      ],
      "name": "prizeDistribution",
      "outputs": [
        {
          "internalType": "uint256",
          "name": "",
          "type": "uint256"
        }
      ],
      "stateMutability": "view",
      "type": "function"
    },
    {
      "inputs": [],
      "name": "raceCounter",
      "outputs": [
        {
          "internalType": "uint256",
          "name": "",
          "type": "uint256"
        }
      ],
      "stateMutability": "view",
      "type": "function"
    },
    {
      "inputs": [
        {
          "internalType": "uint256",
          "name": "",
          "type": "uint256"
        },
        {
          "internalType": "uint256",
          "name": "",
          "type": "uint256"
        }
      ],
      "name": "raceResults",
      "outputs": [
        {
          "internalType": "uint256",
          "name": "raceId",
          "type": "uint256"
        },
        {
          "internalType": "uint256",
          "name": "henId",
          "type": "uint256"
        },
        {
          "internalType": "address",
          "name": "owner",
          "type": "address"
        },
        {
          "internalType": "uint256",
          "name": "position",
          "type": "uint256"
        },
        {
          "internalType": "uint256",
          "name": "finishTime",
          "type": "uint256"
        },
        {
          "internalType": "uint256",
          "name": "prize",
          "type": "uint256"
        }
      ],
      "stateMutability": "view",
      "type": "function"
    },
    {
      "inputs": [
        {
          "internalType": "uint256",
          "name": "",
          "type": "uint256"
        }
      ],
      "name": "races",
      "outputs": [
        {
          "internalType": "uint256",
          "name": "raceId",
          "type": "uint256"
        },
        {
          "internalType": "uint256",
          "name": "startTime",
          "type": "uint256"
        },
        {
          "internalType": "uint256",
          "name": "endTime",
          "type": "uint256"
        },
        {
          "internalType": "uint256",
          "name": "entryFee",
          "type": "uint256"
        },
        {
          "internalType": "uint256",
          "name": "prizePool",
          "type": "uint256"
        },
        {
          "internalType": "uint256",
          "name": "maxParticipants",
          "type": "uint256"
        },
        {
          "internalType": "bool",
          "name": "isActive",
          "type": "bool"
        },
        {
          "internalType": "bool",
          "name": "isComplete",
          "type": "bool"
        }
      ],
      "stateMutability": "view",
      "type": "function"
    },
    {
      "inputs": [],
      "name": "renounceOwnership",
      "outputs": [],
      "stateMutability": "nonpayable",
      "type": "function"
    },
    {
      "inputs": [
        {
          "internalType": "uint256",
          "name": "raceId",
          "type": "uint256"
        }
      ],
      "name": "startRace",
      "outputs": [],
      "stateMutability": "nonpayable",
      "type": "function"
    },
    {
      "inputs": [
        {
          "internalType": "address",
          "name": "newOwner",
          "type": "address"
        }
      ],
      "name": "transferOwnership",
      "outputs": [],
      "stateMutability": "nonpayable",
      "type": "function"
    }
  ],
  "bytecode": "0x60806040526040518060600160405280603260ff168152602001601e60ff168152602001601460ff1681525060079060036200003d929190620001ac565b503480156200004b57600080fd5b5060405162003c3938038062003c3983398181016040528101906200007191906200027f565b6200009162000085620000e060201b60201c565b620000e860201b60201c565b6001808190555080600260006101000a81548173ffffffffffffffffffffffffffffffffffffffff021916908373ffffffffffffffffffffffffffffffffffffffff16021790555050620002b1565b600033905090565b60008060009054906101000a900473ffffffffffffffffffffffffffffffffffffffff169050816000806101000a81548173ffffffffffffffffffffffffffffffffffffffff021916908373ffffffffffffffffffffffffffffffffffffffff1602179055508173ffffffffffffffffffffffffffffffffffffffff168173ffffffffffffffffffffffffffffffffffffffff167f8be0079c531659141344cd1fd0a4f28419497f9722a3daafe3b4186f6b6457e060405160405180910390a35050565b8260038101928215620001e3579160200282015b82811115620001e2578251829060ff16905591602001919060010190620001c0565b5b509050620001f29190620001f6565b5090565b5b8082111562000211576000816000905550600101620001f7565b5090565b600080fd5b600073ffffffffffffffffffffffffffffffffffffffff82169050919050565b600062000247826200021a565b9050919050565b62000259816200023a565b81146200026557600080fd5b50565b60008151905062000279816200024e565b92915050565b60006020828403121562000298576200029762000215565b5b6000620002a88482850162000268565b91505092915050565b61397880620002c16000396000f3fe6080604052600436106100fe5760003560e01c80637bbc469e11610095578063d596380e11610064578063d596380e14610358578063d9e7c8ca14610381578063dba30ea4146103be578063f2fde38b14610400578063f76bdb1a14610429576100fe565b80637bbc469e146102815780638da5cb5b146102c5578063c6cd13db146102f0578063ce08d6fa1461032d576100fe565b806332bd3a37116100d157806332bd3a37146101c457806354c237b714610202578063710ada351461023f578063715018a61461026a576100fe565b806312bd4e7314610103578063207f73a01461011f57806324d822bf1461015e5780632b945c4c14610187575b600080fd5b61011d600480360381019061011891906124aa565b610466565b005b34801561012b57600080fd5b50610146600480360381019061014191906124ea565b610a22565b60405161015593929190612526565b60405180910390f35b34801561016a57600080fd5b50610185600480360381019061018091906124ea565b610cb7565b005b34801561019357600080fd5b506101ae60048036038101906101a991906124ea565b610dbf565b6040516101bb919061261b565b60405180910390f35b3480156101d057600080fd5b506101eb60048036038101906101e691906124aa565b610e2d565b6040516101f99291906126e8565b60405180910390f35b34801561020e57600080fd5b50610229600480360381019061022491906124ea565b611147565b6040516102369190612718565b60405180910390f35b34801561024b57600080fd5b50610254611162565b6040516102619190612718565b60405180910390f35b34801561027657600080fd5b5061027f611168565b005b34801561028d57600080fd5b506102a860048036038101906102a391906124ea565b61117c565b6040516102bc989796959493929190612733565b60405180910390f35b3480156102d157600080fd5b506102da6111de565b6040516102e791906127f2565b60405180910390f35b3480156102fc57600080fd5b50610317600480360381019061031291906124aa565b611207565b604051610324919061280d565b60405180910390f35b34801561033957600080fd5b50610342611236565b60405161034f9190612887565b60405180910390f35b34801561036457600080fd5b5061037f600480360381019061037a91906124ea565b61125c565b005b34801561038d57600080fd5b506103a860048036038101906103a391906128a2565b6114d6565b6040516103b59190612718565b60405180910390f35b3480156103ca57600080fd5b506103e560048036038101906103e091906124aa565b61164f565b6040516103f7969594939291906128f5565b60405180910390f35b34801561040c57600080fd5b5061042760048036038101906104229190612982565b6116c8565b005b34801561043557600080fd5b50610450600480360381019061044b91906124ea565b61174b565b60405161045d9190612ae8565b60405180910390f35b61046e611845565b60006003600084815260200190815260200160002090508060080160009054906101000a900460ff166104d6576040517f08c379a00000000000000000000000000000000000000000000000000000000081526004016104cd90612b56565b60405180910390fd5b8060080160019054906101000a900460ff1615610528576040517f08c379a000000000000000000000000000000000000000000000000000000000815260040161051f90612bc2565b60405180910390fd5b8060010154421061056e576040517f08c379a000000000000000000000000000000000000000000000000000000000815260040161056590612c2e565b60405180910390fd5b3373ffffffffffffffffffffffffffffffffffffffff16600260009054906101000a900473ffffffffffffffffffffffffffffffffffffffff1673ffffffffffffffffffffffffffffffffffffffff16636352211e846040518263ffffffff1660e01b81526004016105e09190612718565b602060405180830381865afa1580156105fd573d6000803e3d6000fd5b505050506040513d601f19601f820116820180604052508101906106219190612c63565b73ffffffffffffffffffffffffffffffffffffffff1614610677576040517f08c379a000000000000000000000000000000000000000000000000000000000815260040161066e90612cdc565b60405180910390fd5b60056000848152602001908152602001600020600083815260200190815260200160002060009054906101000a900460ff16156106e9576040517f08c379a00000000000000000000000000000000000000000000000000000000081526004016106e090612d48565b60405180910390fd5b8060050154816006018054905010610736576040517f08c379a000000000000000000000000000000000000000000000000000000000815260040161072d90612db4565b60405180910390fd5b806003015434101561077d576040517f08c379a000000000000000000000000000000000000000000000000000000000815260040161077490612e20565b60405180910390fd5b6000600260009054906101000a900473ffffffffffffffffffffffffffffffffffffffff1673ffffffffffffffffffffffffffffffffffffffff1663a6345141846040518263ffffffff1660e01b81526004016107da9190612718565b61018060405180830381865afa1580156107f8573d6000803e3d6000fd5b505050506040513d601f19601f8201168201806040525081019061081c919061305c565b9050806101600151610863576040517f08c379a000000000000000000000000000000000000000000000000000000000815260040161085a906130d6565b60405180910390fd5b8160060183908060018154018082558091505060019003906000526020600020016000909190919091505581600301548260040160008282546108a69190613125565b92505081905550600160056000868152602001908152602001600020600085815260200190815260200160002060006101000a81548160ff0219169083151502179055503373ffffffffffffffffffffffffffffffffffffffff1683857f5325eec13f0684a4c4df3de1b9eb49e550a4a4cc5d5cc8f8b9d8402da1aa64dd60405160405180910390a481600301543411156109f85760003373ffffffffffffffffffffffffffffffffffffffff168360030154346109649190613159565b604051610970906131be565b60006040518083038185875af1925050503d80600081146109ad576040519150601f19603f3d011682016040523d82523d6000602084013e6109b2565b606091505b50509050806109f6576040517f08c379a00000000000000000000000000000000000000000000000000000000081526004016109ed9061321f565b60405180910390fd5b505b8160050154826006018054905003610a1457610a1384611894565b5b5050610a1e6118f3565b5050565b600080600080600260009054906101000a900473ffffffffffffffffffffffffffffffffffffffff1673ffffffffffffffffffffffffffffffffffffffff1663a6345141866040518263ffffffff1660e01b8152600401610a839190612718565b61018060405180830381865afa158015610aa1573d6000803e3d6000fd5b505050506040513d601f19601f82011682018060405250810190610ac5919061305c565b905080610140015192506000806000600190505b6006548111610ca35760056000828152602001908152602001600020600089815260200190815260200160002060009054906101000a900460ff1615610c90578280610b249061323f565b935050600060046000838152602001908152602001600020805480602002602001604051908101604052809291908181526020016000905b82821015610c1657838290600052602060002090600602016040518060c001604052908160008201548152602001600182015481526020016002820160009054906101000a900473ffffffffffffffffffffffffffffffffffffffff1673ffffffffffffffffffffffffffffffffffffffff1673ffffffffffffffffffffffffffffffffffffffff168152602001600382015481526020016004820154815260200160058201548152505081526020019060010190610b5c565b50505050905060005b8151811015610c8d5789828281518110610c3c57610c3b613287565b5b60200260200101516020015103610c7a57818181518110610c6057610c5f613287565b5b602002602001015160a0015184610c779190613125565b93505b8080610c859061323f565b915050610c1f565b50505b8080610c9b9061323f565b915050610ad9565b508185829550955095505050509193909250565b60006003600083815260200190815260200160002090508060010154421015610d15576040517f08c379a0000000000000000000000000000000000000000000000000000000008152600401610d0c90613302565b60405180910390fd5b600281600601805490501015610d60576040517f08c379a0000000000000000000000000000000000000000000000000000000008152600401610d579061336e565b60405180910390fd5b8060080160019054906101000a900460ff1615610db2576040517f08c379a0000000000000000000000000000000000000000000000000000000008152600401610da990612bc2565b60405180910390fd5b610dbb82611894565b5050565b606060036000838152602001908152602001600020600601805480602002602001604051908101604052809291908181526020018280548015610e2157602002820191906000526020600020905b815481526020019060010190808311610e0d575b50505050509050919050565b6000606060006003600086815260200190815260200160002090508060080160009054906101000a900460ff16610ea05760006040518060400160405280600f81526020017f52616365206e6f742061637469766500000000000000000000000000000000008152509250925050611140565b8060080160019054906101000a900460ff1615610ef95760006040518060400160405280601581526020017f5261636520616c726561647920636f6d706c65746500000000000000000000008152509250925050611140565b80600101544210610f465760006040518060400160405280601481526020017f5261636520616c726561647920737461727465640000000000000000000000008152509250925050611140565b60056000868152602001908152602001600020600085815260200190815260200160002060009054906101000a900460ff1615610fbf5760006040518060400160405280601381526020017f48656e20616c726561647920656e7465726564000000000000000000000000008152509250925050611140565b80600501548160060180549050106110135760006040518060400160405280600981526020017f526163652066756c6c00000000000000000000000000000000000000000000008152509250925050611140565b6000600260009054906101000a900473ffffffffffffffffffffffffffffffffffffffff1673ffffffffffffffffffffffffffffffffffffffff1663a6345141866040518263ffffffff1660e01b81526004016110709190612718565b61018060405180830381865afa15801561108e573d6000803e3d6000fd5b505050506040513d601f19601f820116820180604052508101906110b2919061305c565b90508061016001516111015760006040518060400160405280600d81526020017f48656e206e6f7420616c69766500000000000000000000000000000000000000815250935093505050611140565b60016040518060400160405280600981526020017f43616e20656e74657200000000000000000000000000000000000000000000008152509350935050505b9250929050565b6007816003811061115757600080fd5b016000915090505481565b60065481565b6111706118fc565b61117a600061197a565b565b60036020528060005260406000206000915090508060000154908060010154908060020154908060030154908060040154908060050154908060080160009054906101000a900460ff16908060080160019054906101000a900460ff16905088565b60008060009054906101000a900473ffffffffffffffffffffffffffffffffffffffff16905090565b60056020528160005260406000206020528060005260406000206000915091509054906101000a900460ff1681565b600260009054906101000a900473ffffffffffffffffffffffffffffffffffffffff1681565b6112646118fc565b60006003600083815260200190815260200160002090508060080160019054906101000a900460ff16156112cd576040517f08c379a00000000000000000000000000000000000000000000000000000000081526004016112c490612bc2565b60405180910390fd5b6002816006018054905010611317576040517f08c379a000000000000000000000000000000000000000000000000000000000815260040161130e906133da565b60405180910390fd5b60005b81600601805490508110156114b457600082600601828154811061134157611340613287565b5b906000526020600020015490506000600260009054906101000a900473ffffffffffffffffffffffffffffffffffffffff1673ffffffffffffffffffffffffffffffffffffffff16636352211e836040518263ffffffff1660e01b81526004016113ab9190612718565b602060405180830381865afa1580156113c8573d6000803e3d6000fd5b505050506040513d601f19601f820116820180604052508101906113ec9190612c63565b905060008173ffffffffffffffffffffffffffffffffffffffff168560030154604051611418906131be565b60006040518083038185875af1925050503d8060008114611455576040519150601f19603f3d011682016040523d82523d6000602084013e61145a565b606091505b505090508061149e576040517f08c379a00000000000000000000000000000000000000000000000000000000081526004016114959061321f565b60405180910390fd5b50505080806114ac9061323f565b91505061131a565b5060008160080160006101000a81548160ff0219169083151502179055505050565b60006114e06118fc565b428411611522576040517f08c379a000000000000000000000000000000000000000000000000000000000815260040161151990613446565b60405180910390fd5b60028210158015611534575060148211155b611573576040517f08c379a000000000000000000000000000000000000000000000000000000000815260040161156a906134b2565b60405180910390fd5b600660008154809291906115869061323f565b919050555060006003600060065481526020019081526020016000209050600654816000018190555084816001018190555083816003018190555082816005018190555060018160080160006101000a81548160ff02191690831515021790555060008160080160016101000a81548160ff0219169083151502179055506006547f16da87b2ce8ef9906525b31931f8ac5abb1cab0e4e2c72a59a61e4b1cb222a0e86868660405161163a93929190612526565b60405180910390a26006549150509392505050565b6004602052816000526040600020818154811061166b57600080fd5b9060005260206000209060060201600091509150508060000154908060010154908060020160009054906101000a900473ffffffffffffffffffffffffffffffffffffffff16908060030154908060040154908060050154905086565b6116d06118fc565b600073ffffffffffffffffffffffffffffffffffffffff168173ffffffffffffffffffffffffffffffffffffffff160361173f576040517f08c379a000000000000000000000000000000000000000000000000000000000815260040161173690613544565b60405180910390fd5b6117488161197a565b50565b606060046000838152602001908152602001600020805480602002602001604051908101604052809291908181526020016000905b8282101561183a57838290600052602060002090600602016040518060c001604052908160008201548152602001600182015481526020016002820160009054906101000a900473ffffffffffffffffffffffffffffffffffffffff1673ffffffffffffffffffffffffffffffffffffffff1673ffffffffffffffffffffffffffffffffffffffff168152602001600382015481526020016004820154815260200160058201548152505081526020019060010190611780565b505050509050919050565b60026001540361188a576040517f08c379a0000000000000000000000000000000000000000000000000000000008152600401611881906135b0565b60405180910390fd5b6002600181905550565b6000600360008381526020019081526020016000209050817fa1eb1e755edc2a113e857561616a7efe7b90b75de67e20d152d14ab0384bf1fb826006016040516118de91906136a6565b60405180910390a26118ef82611a3e565b5050565b60018081905550565b611904611cf1565b73ffffffffffffffffffffffffffffffffffffffff166119226111de565b73ffffffffffffffffffffffffffffffffffffffff1614611978576040517f08c379a000000000000000000000000000000000000000000000000000000000815260040161196f90613714565b60405180910390fd5b565b60008060009054906101000a900473ffffffffffffffffffffffffffffffffffffffff169050816000806101000a81548173ffffffffffffffffffffffffffffffffffffffff021916908373ffffffffffffffffffffffffffffffffffffffff1602179055508173ffffffffffffffffffffffffffffffffffffffff168173ffffffffffffffffffffffffffffffffffffffff167f8be0079c531659141344cd1fd0a4f28419497f9722a3daafe3b4186f6b6457e060405160405180910390a35050565b6000600360008381526020019081526020016000209050600081600601805480602002602001604051908101604052809291908181526020018280548015611aa557602002820191906000526020600020905b815481526020019060010190808311611a91575b505050505090506000815167ffffffffffffffff811115611ac957611ac8612e45565b5b604051908082528060200260200182016040528015611af75781602001602082028036833780820191505090505b50905060005b8251811015611c97576000838281518110611b1b57611b1a613287565b5b602002602001015190506000600260009054906101000a900473ffffffffffffffffffffffffffffffffffffffff1673ffffffffffffffffffffffffffffffffffffffff1663a6345141836040518263ffffffff1660e01b8152600401611b829190612718565b61018060405180830381865afa158015611ba0573d6000803e3d6000fd5b505050506040513d601f19601f82011682018060405250810190611bc4919061305c565b905060006032826020015160ff16611bdc9190613734565b612710611be99190613159565b90506000600a836040015160ff16611c019190613734565b90506000836080015160ff1642868844604051602001611c249493929190613797565b6040516020818303038152906040528051906020012060001c611c479190613814565b9050808284611c569190613159565b611c609190613159565b878781518110611c7357611c72613287565b5b60200260200101818152505050505050508080611c8f9061323f565b915050611afd565b50611ca28282611cf9565b611cac8483611ec6565b81836007019080519060200190611cc49291906123fb565b5060018360080160016101000a81548160ff02191690831515021790555042836002018190555050505050565b600033905090565b60008251905060005b600182611d0f9190613159565b811015611ec05760005b60018284611d279190613159565b611d319190613159565b811015611eac5783600182611d469190613125565b81518110611d5757611d56613287565b5b6020026020010151848281518110611d7257611d71613287565b5b60200260200101511115611e995783600182611d8e9190613125565b81518110611d9f57611d9e613287565b5b6020026020010151848281518110611dba57611db9613287565b5b6020026020010151858381518110611dd557611dd4613287565b5b6020026020010186600185611dea9190613125565b81518110611dfb57611dfa613287565b5b602002602001018281525082815250505084600182611e1a9190613125565b81518110611e2b57611e2a613287565b5b6020026020010151858281518110611e4657611e45613287565b5b6020026020010151868381518110611e6157611e60613287565b5b6020026020010187600185611e769190613125565b81518110611e8757611e86613287565b5b60200260200101828152508281525050505b8080611ea49061323f565b915050611d19565b508080611eb89061323f565b915050611d02565b50505050565b60006003600084815260200190815260200160002090506000816004015490506000600367ffffffffffffffff811115611f0357611f02612e45565b5b604051908082528060200260200182016040528015611f315781602001602082028036833780820191505090505b5090506000600367ffffffffffffffff811115611f5157611f50612e45565b5b604051908082528060200260200182016040528015611f7f5781602001602082028036833780820191505090505b50905060006003865110611f94576003611f97565b85515b905060005b818110156123b7576000878281518110611fb957611fb8613287565b5b602002602001015190506000606460078460038110611fdb57611fda613287565b5b015488611fe89190613734565b611ff29190613845565b90506000600260009054906101000a900473ffffffffffffffffffffffffffffffffffffffff1673ffffffffffffffffffffffffffffffffffffffff16636352211e846040518263ffffffff1660e01b81526004016120519190612718565b602060405180830381865afa15801561206e573d6000803e3d6000fd5b505050506040513d601f19601f820116820180604052508101906120929190612c63565b9050828785815181106120a8576120a7613287565b5b602002602001018181525050818685815181106120c8576120c7613287565b5b6020026020010181815250506000840361216a57600260009054906101000a900473ffffffffffffffffffffffffffffffffffffffff1673ffffffffffffffffffffffffffffffffffffffff166320960c46846040518263ffffffff1660e01b81526004016121379190612718565b600060405180830381600087803b15801561215157600080fd5b505af1158015612165573d6000803e3d6000fd5b505050505b600460008c81526020019081526020016000206040518060c001604052808d81526020018581526020018373ffffffffffffffffffffffffffffffffffffffff1681526020016001876121bd9190613125565b8152602001428152602001848152509080600181540180825580915050600190039060005260206000209060060201600090919091909150600082015181600001556020820151816001015560408201518160020160006101000a81548173ffffffffffffffffffffffffffffffffffffffff021916908373ffffffffffffffffffffffffffffffffffffffff160217905550606082015181600301556080820151816004015560a08201518160050155505060018461227d9190613125565b8960090160008581526020019081526020016000208190555060008173ffffffffffffffffffffffffffffffffffffffff16836040516122bc906131be565b60006040518083038185875af1925050503d80600081146122f9576040519150601f19603f3d011682016040523d82523d6000602084013e6122fe565b606091505b5050905080612342576040517f08c379a0000000000000000000000000000000000000000000000000000000008152600401612339906138c2565b60405180910390fd5b8173ffffffffffffffffffffffffffffffffffffffff16848d7f711e425ec1950436f3b25bba784d7db56c2f82f57632a6f496ce3b7a4cc4f5b16001896123899190613125565b876040516123989291906138e2565b60405180910390a45050505080806123af9061323f565b915050611f9c565b50867f3a6cabd906a29aa363edccb33dc868921d2b24ad8012e40e36e55fcfb4740a8384846040516123ea92919061390b565b60405180910390a250505050505050565b828054828255906000526020600020908101928215612437579160200282015b8281111561243657825182559160200191906001019061241b565b5b5090506124449190612448565b5090565b5b80821115612461576000816000905550600101612449565b5090565b6000604051905090565b600080fd5b6000819050919050565b61248781612474565b811461249257600080fd5b50565b6000813590506124a48161247e565b92915050565b600080604083850312156124c1576124c061246f565b5b60006124cf85828601612495565b92505060206124e085828601612495565b9150509250929050565b600060208284031215612500576124ff61246f565b5b600061250e84828501612495565b91505092915050565b61252081612474565b82525050565b600060608201905061253b6000830186612517565b6125486020830185612517565b6125556040830184612517565b949350505050565b600081519050919050565b600082825260208201905092915050565b6000819050602082019050919050565b61259281612474565b82525050565b60006125a48383612589565b60208301905092915050565b6000602082019050919050565b60006125c88261255d565b6125d28185612568565b93506125dd83612579565b8060005b8381101561260e5781516125f58882612598565b9750612600836125b0565b9250506001810190506125e1565b5085935050505092915050565b6000602082019050818103600083015261263581846125bd565b905092915050565b60008115159050919050565b6126528161263d565b82525050565b600081519050919050565b600082825260208201905092915050565b60005b83811015612692578082015181840152602081019050612677565b60008484015250505050565b6000601f19601f8301169050919050565b60006126ba82612658565b6126c48185612663565b93506126d4818560208601612674565b6126dd8161269e565b840191505092915050565b60006040820190506126fd6000830185612649565b818103602083015261270f81846126af565b90509392505050565b600060208201905061272d6000830184612517565b92915050565b600061010082019050612749600083018b612517565b612756602083018a612517565b6127636040830189612517565b6127706060830188612517565b61277d6080830187612517565b61278a60a0830186612517565b61279760c0830185612649565b6127a460e0830184612649565b9998505050505050505050565b600073ffffffffffffffffffffffffffffffffffffffff82169050919050565b60006127dc826127b1565b9050919050565b6127ec816127d1565b82525050565b600060208201905061280760008301846127e3565b92915050565b60006020820190506128226000830184612649565b92915050565b6000819050919050565b600061284d612848612843846127b1565b612828565b6127b1565b9050919050565b600061285f82612832565b9050919050565b600061287182612854565b9050919050565b61288181612866565b82525050565b600060208201905061289c6000830184612878565b92915050565b6000806000606084860312156128bb576128ba61246f565b5b60006128c986828701612495565b93505060206128da86828701612495565b92505060406128eb86828701612495565b9150509250925092565b600060c08201905061290a6000830189612517565b6129176020830188612517565b61292460408301876127e3565b6129316060830186612517565b61293e6080830185612517565b61294b60a0830184612517565b979650505050505050565b61295f816127d1565b811461296a57600080fd5b50565b60008135905061297c81612956565b92915050565b6000602082840312156129985761299761246f565b5b60006129a68482850161296d565b91505092915050565b600081519050919050565b600082825260208201905092915050565b6000819050602082019050919050565b6129e4816127d1565b82525050565b60c082016000820151612a006000850182612589565b506020820151612a136020850182612589565b506040820151612a2660408501826129db565b506060820151612a396060850182612589565b506080820151612a4c6080850182612589565b5060a0820151612a5f60a0850182612589565b50505050565b6000612a7183836129ea565b60c08301905092915050565b6000602082019050919050565b6000612a95826129af565b612a9f81856129ba565b9350612aaa836129cb565b8060005b83811015612adb578151612ac28882612a65565b9750612acd83612a7d565b925050600181019050612aae565b5085935050505092915050565b60006020820190508181036000830152612b028184612a8a565b905092915050565b7f52616365206e6f74206163746976650000000000000000000000000000000000600082015250565b6000612b40600f83612663565b9150612b4b82612b0a565b602082019050919050565b60006020820190508181036000830152612b6f81612b33565b9050919050565b7f5261636520616c726561647920636f6d706c6574650000000000000000000000600082015250565b6000612bac601583612663565b9150612bb782612b76565b602082019050919050565b60006020820190508181036000830152612bdb81612b9f565b9050919050565b7f5261636520616c72656164792073746172746564000000000000000000000000600082015250565b6000612c18601483612663565b9150612c2382612be2565b602082019050919050565b60006020820190508181036000830152612c4781612c0b565b9050919050565b600081519050612c5d81612956565b92915050565b600060208284031215612c7957612c7861246f565b5b6000612c8784828501612c4e565b91505092915050565b7f4e6f74206f776e6572206f662068656e00000000000000000000000000000000600082015250565b6000612cc6601083612663565b9150612cd182612c90565b602082019050919050565b60006020820190508181036000830152612cf581612cb9565b9050919050565b7f48656e20616c726561647920656e746572656400000000000000000000000000600082015250565b6000612d32601383612663565b9150612d3d82612cfc565b602082019050919050565b60006020820190508181036000830152612d6181612d25565b9050919050565b7f526163652066756c6c0000000000000000000000000000000000000000000000600082015250565b6000612d9e600983612663565b9150612da982612d68565b602082019050919050565b60006020820190508181036000830152612dcd81612d91565b9050919050565b7f496e73756666696369656e7420656e7472792066656500000000000000000000600082015250565b6000612e0a601683612663565b9150612e1582612dd4565b602082019050919050565b60006020820190508181036000830152612e3981612dfd565b9050919050565b600080fd5b7f4e487b7100000000000000000000000000000000000000000000000000000000600052604160045260246000fd5b612e7d8261269e565b810181811067ffffffffffffffff82111715612e9c57612e9b612e45565b5b80604052505050565b6000612eaf612465565b9050612ebb8282612e74565b919050565b600060ff82169050919050565b612ed681612ec0565b8114612ee157600080fd5b50565b600081519050612ef381612ecd565b92915050565b600081519050612f088161247e565b92915050565b612f178161263d565b8114612f2257600080fd5b50565b600081519050612f3481612f0e565b92915050565b60006101808284031215612f5157612f50612e40565b5b612f5c610180612ea5565b90506000612f6c84828501612ee4565b6000830152506020612f8084828501612ee4565b6020830152506040612f9484828501612ee4565b6040830152506060612fa884828501612ee4565b6060830152506080612fbc84828501612ee4565b60808301525060a0612fd084828501612ee4565b60a08301525060c0612fe484828501612ef9565b60c08301525060e0612ff884828501612ef9565b60e08301525061010061300d84828501612ef9565b6101008301525061012061302384828501612ef9565b6101208301525061014061303984828501612ef9565b6101408301525061016061304f84828501612f25565b6101608301525092915050565b600061018082840312156130735761307261246f565b5b600061308184828501612f3a565b91505092915050565b7f48656e206d75737420626520616c697665000000000000000000000000000000600082015250565b60006130c0601183612663565b91506130cb8261308a565b602082019050919050565b600060208201905081810360008301526130ef816130b3565b9050919050565b7f4e487b7100000000000000000000000000000000000000000000000000000000600052601160045260246000fd5b600061313082612474565b915061313b83612474565b9250828201905080821115613153576131526130f6565b5b92915050565b600061316482612474565b915061316f83612474565b9250828203905081811115613187576131866130f6565b5b92915050565b600081905092915050565b50565b60006131a860008361318d565b91506131b382613198565b600082019050919050565b60006131c98261319b565b9150819050919050565b7f526566756e64206661696c656400000000000000000000000000000000000000600082015250565b6000613209600d83612663565b9150613214826131d3565b602082019050919050565b60006020820190508181036000830152613238816131fc565b9050919050565b600061324a82612474565b91507fffffffffffffffffffffffffffffffffffffffffffffffffffffffffffffffff820361327c5761327b6130f6565b5b600182019050919050565b7f4e487b7100000000000000000000000000000000000000000000000000000000600052603260045260246000fd5b7f52616365206e6f7420726561647920746f207374617274000000000000000000600082015250565b60006132ec601783612663565b91506132f7826132b6565b602082019050919050565b6000602082019050818103600083015261331b816132df565b9050919050565b7f4e6f7420656e6f756768207061727469636970616e7473000000000000000000600082015250565b6000613358601783612663565b915061336382613322565b602082019050919050565b600060208201905081810360008301526133878161334b565b9050919050565b7f546f6f206d616e79207061727469636970616e747320746f2063616e63656c00600082015250565b60006133c4601f83612663565b91506133cf8261338e565b602082019050919050565b600060208201905081810360008301526133f3816133b7565b9050919050565b7f53746172742074696d65206d75737420626520696e2066757475726500000000600082015250565b6000613430601c83612663565b915061343b826133fa565b602082019050919050565b6000602082019050818103600083015261345f81613423565b9050919050565b7f496e76616c6964207061727469636970616e7420636f756e7400000000000000600082015250565b600061349c601983612663565b91506134a782613466565b602082019050919050565b600060208201905081810360008301526134cb8161348f565b9050919050565b7f4f776e61626c653a206e6577206f776e657220697320746865207a65726f206160008201527f6464726573730000000000000000000000000000000000000000000000000000602082015250565b600061352e602683612663565b9150613539826134d2565b604082019050919050565b6000602082019050818103600083015261355d81613521565b9050919050565b7f5265656e7472616e637947756172643a207265656e7472616e742063616c6c00600082015250565b600061359a601f83612663565b91506135a582613564565b602082019050919050565b600060208201905081810360008301526135c98161358d565b9050919050565b600081549050919050565b60008190508160005260206000209050919050565b60008160001c9050919050565b6000819050919050565b600061361a613615836135f0565b6135fd565b9050919050565b600061362d8254613607565b9050919050565b6000600182019050919050565b600061364c826135d0565b6136568185612568565b9350613661836135db565b8060005b838110156136995761367682613621565b6136808882612598565b975061368b83613634565b925050600181019050613665565b5085935050505092915050565b600060208201905081810360008301526136c08184613641565b905092915050565b7f4f776e61626c653a2063616c6c6572206973206e6f7420746865206f776e6572600082015250565b60006136fe602083612663565b9150613709826136c8565b602082019050919050565b6000602082019050818103600083015261372d816136f1565b9050919050565b600061373f82612474565b915061374a83612474565b925082820261375881612474565b9150828204841483151761376f5761376e6130f6565b5b5092915050565b6000819050919050565b61379161378c82612474565b613776565b82525050565b60006137a38287613780565b6020820191506137b38286613780565b6020820191506137c38285613780565b6020820191506137d38284613780565b60208201915081905095945050505050565b7f4e487b7100000000000000000000000000000000000000000000000000000000600052601260045260246000fd5b600061381f82612474565b915061382a83612474565b92508261383a576138396137e5565b5b828206905092915050565b600061385082612474565b915061385b83612474565b92508261386b5761386a6137e5565b5b828204905092915050565b7f5072697a65207472616e73666572206661696c65640000000000000000000000600082015250565b60006138ac601583612663565b91506138b782613876565b602082019050919050565b600060208201905081810360008301526138db8161389f565b9050919050565b60006040820190506138f76000830185612517565b6139046020830184612517565b9392505050565b6000604082019050818103600083015261392581856125bd565b9050818103602083015261393981846125bd565b9050939250505056fea264697066735822122088ef2c5b54a729c882466f8cfba4d5de99a80a4e0c2b66bbbc048b6429e5c62664736f6c63430008140033",
  "linkReferences": {},
  "deployedLinkReferences": {}
}