{
  "_format": "hh-sol-artifact-1",
  "contractName": "HenRacing",
  "sourceName": "contracts/HenRacing.sol",
  "abi": [
    {
      "inputs": [
        {
          "internalType": "address",
          "name": "_henNFTAddress",
          "type": "address"
        }
      ],
      "stateMutability": "nonpayable",
      "type": "constructor"
    },
    {
      "anonymous": false,
      "inputs": [
        {
          "indexed": true,
          "internalType": "uint256",
          "name": "raceId",
          "type": "uint256"
        },
        {
          "indexed": true,
          "internalType": "uint256",
          "name": "henId",
          "type": "uint256"
        },
        {
          "indexed": true,
          "internalType": "address",
          "name": "owner",
          "type": "address"
        }
      ],
      "name": "HenEntered",
      "type": "event"
    },
    {
      "anonymous": false,
      "inputs": [
        {
          "indexed": true,
          "internalType": "address",
          "name": "previousOwner",
          "type": "address"
        },
        {
          "indexed": true,
          "internalType": "address",
          "name": "newOwner",
          "type": "address"
        }
      ],
      "name": "OwnershipTransferred",
      "type": "event"
    },
    {
      "anonymous": false,
      "inputs": [
        {
          "indexed": true,
          "internalType": "uint256",
          "name": "raceId",
          "type": "uint256"
        },
        {
          "indexed": true,
          "internalType": "uint256",
          "name": "henId",
          "type": "uint256"
        },
        {
          "indexed": true,
          "internalType": "address",
          "name": "owner",
          "type": "address"
        },
        {
          "indexed": false,
          "internalType": "uint256",
          "name": "position",
          "type": "uint256"
        },
        {
          "indexed": false,
          "internalType": "uint256",
          "name": "prize",
          "type": "uint256"
        }
      ],
      "name": "PrizeAwarded",
      "type": "event"
    },
    {
      "anonymous": false,
      "inputs": [
        {
          "indexed": true,
          "internalType": "uint256",
          "name": "raceId",
          "type": "uint256"
        },
        {
          "indexed": false,
          "internalType": "uint256[]",
          "name": "winners",
          "type": "uint256[]"
        },
        {
          "indexed": false,
          "internalType": "uint256[]",
          "name": "prizes",
          "type": "uint256[]"
        }
      ],
      "name": "RaceComplete",
      "type": "event"
    },
    {
      "anonymous": false,
      "inputs": [
        {
          "indexed": true,
          "internalType": "uint256",
          "name": "raceId",
          "type": "uint256"
        },
        {
          "indexed": false,
          "internalType": "uint256",
          "name": "startTime",
          "type": "uint256"
        },
        {
          "indexed": false,
          "internalType": "uint256",
          "name": "entryFee",
          "type": "uint256"
        },
        {
          "indexed": false,
          "internalType": "uint256",
          "name": "maxParticipants",
          "type": "uint256"
        }
      ],
      "name": "RaceCreated",
      "type": "event"
    },
    {
      "anonymous": false,
      "inputs": [
        {
          "indexed": true,
          "internalType": "uint256",
          "name": "raceId",
          "type": "uint256"
        },
        {
          "indexed": false,
          "internalType": "uint256[]",
          "name": "participants",
          "type": "uint256[]"
        }
      ],
      "name": "RaceStarted",
      "type": "event"
    },
    {
      "inputs": [],
      "name": "MAX_ACTIVE_RACES",
      "outputs": [
        {
          "internalType": "uint256",
          "name": "",
          "type": "uint256"
        }
      ],
      "stateMutability": "view",
      "type": "function"
    },
    {
      "inputs": [],
      "name": "RACE_DURATION",
      "outputs": [
        {
          "internalType": "uint256",
          "name": "",
          "type": "uint256"
        }
      ],
      "stateMutability": "view",
      "type": "function"
    },
    {
      "inputs": [],
      "name": "activeRacesCount",
      "outputs": [
        {
          "internalType": "uint256",
          "name": "",
          "type": "uint256"
        }
      ],
      "stateMutability": "view",
      "type": "function"
    },
    {
      "inputs": [
        {
          "internalType": "uint256",
          "name": "raceId",
          "type": "uint256"
        },
        {
          "internalType": "uint256",
          "name": "henId",
          "type": "uint256"
        }
      ],
      "name": "canEnterRace",
      "outputs": [
        {
          "internalType": "bool",
          "name": "",
          "type": "bool"
        },
        {
          "internalType": "string",
          "name": "",
          "type": "string"
        }
      ],
      "stateMutability": "view",
      "type": "function"
    },
    {
      "inputs": [
        {
          "internalType": "uint256",
          "name": "raceId",
          "type": "uint256"
        }
      ],
      "name": "cancelRace",
      "outputs": [],
      "stateMutability": "nonpayable",
      "type": "function"
    },
    {
      "inputs": [
        {
          "internalType": "uint256",
          "name": "raceId",
          "type": "uint256"
        }
      ],
      "name": "completeRace",
      "outputs": [],
      "stateMutability": "nonpayable",
      "type": "function"
    },
    {
      "inputs": [
        {
          "internalType": "uint256",
          "name": "entryFee",
          "type": "uint256"
        },
        {
          "internalType": "uint256",
          "name": "maxParticipants",
          "type": "uint256"
        }
      ],
      "name": "createRace",
      "outputs": [
        {
          "internalType": "uint256",
          "name": "",
          "type": "uint256"
        }
      ],
      "stateMutability": "nonpayable",
      "type": "function"
    },
    {
      "inputs": [
        {
          "internalType": "uint256",
          "name": "raceId",
          "type": "uint256"
        },
        {
          "internalType": "uint256",
          "name": "henId",
          "type": "uint256"
        }
      ],
      "name": "enterRace",
      "outputs": [],
      "stateMutability": "payable",
      "type": "function"
    },
    {
      "inputs": [
        {
          "internalType": "uint256",
          "name": "henId",
          "type": "uint256"
        }
      ],
      "name": "getHenRaceStats",
      "outputs": [
        {
          "internalType": "uint256",
          "name": "totalRaces",
          "type": "uint256"
        },
        {
          "internalType": "uint256",
          "name": "wins",
          "type": "uint256"
        },
        {
          "internalType": "uint256",
          "name": "totalPrizes",
          "type": "uint256"
        }
      ],
      "stateMutability": "view",
      "type": "function"
    },
    {
      "inputs": [
        {
          "internalType": "uint256",
          "name": "raceId",
          "type": "uint256"
        }
      ],
      "name": "getRaceParticipants",
      "outputs": [
        {
          "internalType": "uint256[]",
          "name": "",
          "type": "uint256[]"
        }
      ],
      "stateMutability": "view",
      "type": "function"
    },
    {
      "inputs": [
        {
          "internalType": "uint256",
          "name": "raceId",
          "type": "uint256"
        }
      ],
      "name": "getRaceResults",
      "outputs": [
        {
          "components": [
            {
              "internalType": "uint256",
              "name": "raceId",
              "type": "uint256"
            },
            {
              "internalType": "uint256",
              "name": "henId",
              "type": "uint256"
            },
            {
              "internalType": "address",
              "name": "owner",
              "type": "address"
            },
            {
              "internalType": "uint256",
              "name": "position",
              "type": "uint256"
            },
            {
              "internalType": "uint256",
              "name": "finishTime",
              "type": "uint256"
            },
            {
              "internalType": "uint256",
              "name": "prize",
              "type": "uint256"
            }
          ],
          "internalType": "struct HenRacing.RaceResult[]",
          "name": "",
          "type": "tuple[]"
        }
      ],
      "stateMutability": "view",
      "type": "function"
    },
    {
      "inputs": [
        {
          "internalType": "uint256",
          "name": "",
          "type": "uint256"
        }
      ],
      "name": "henActiveRace",
      "outputs": [
        {
          "internalType": "uint256",
          "name": "",
          "type": "uint256"
        }
      ],
      "stateMutability": "view",
      "type": "function"
    },
    {
      "inputs": [
        {
          "internalType": "uint256",
          "name": "",
          "type": "uint256"
        },
        {
          "internalType": "uint256",
          "name": "",
          "type": "uint256"
        }
      ],
      "name": "henInRace",
      "outputs": [
        {
          "internalType": "bool",
          "name": "",
          "type": "bool"
        }
      ],
      "stateMutability": "view",
      "type": "function"
    },
    {
      "inputs": [],
      "name": "henNFT",
      "outputs": [
        {
          "internalType": "contract IHenNFT",
          "name": "",
          "type": "address"
        }
      ],
      "stateMutability": "view",
      "type": "function"
    },
    {
      "inputs": [],
      "name": "owner",
      "outputs": [
        {
          "internalType": "address",
          "name": "",
          "type": "address"
        }
      ],
      "stateMutability": "view",
      "type": "function"
    },
    {
      "inputs": [
        {
          "internalType": "uint256",
          "name": "",
          "type": "uint256"
        }
      ],
      "name": "prizeDistribution",
      "outputs": [
        {
          "internalType": "uint256",
          "name": "",
          "type": "uint256"
        }
      ],
      "stateMutability": "view",
      "type": "function"
    },
    {
      "inputs": [],
      "name": "raceCounter",
      "outputs": [
        {
          "internalType": "uint256",
          "name": "",
          "type": "uint256"
        }
      ],
      "stateMutability": "view",
      "type": "function"
    },
    {
      "inputs": [
        {
          "internalType": "uint256",
          "name": "",
          "type": "uint256"
        },
        {
          "internalType": "uint256",
          "name": "",
          "type": "uint256"
        }
      ],
      "name": "raceResults",
      "outputs": [
        {
          "internalType": "uint256",
          "name": "raceId",
          "type": "uint256"
        },
        {
          "internalType": "uint256",
          "name": "henId",
          "type": "uint256"
        },
        {
          "internalType": "address",
          "name": "owner",
          "type": "address"
        },
        {
          "internalType": "uint256",
          "name": "position",
          "type": "uint256"
        },
        {
          "internalType": "uint256",
          "name": "finishTime",
          "type": "uint256"
        },
        {
          "internalType": "uint256",
          "name": "prize",
          "type": "uint256"
        }
      ],
      "stateMutability": "view",
      "type": "function"
    },
    {
      "inputs": [
        {
          "internalType": "uint256",
          "name": "",
          "type": "uint256"
        }
      ],
      "name": "races",
      "outputs": [
        {
          "internalType": "uint256",
          "name": "raceId",
          "type": "uint256"
        },
        {
          "internalType": "uint256",
          "name": "startTime",
          "type": "uint256"
        },
        {
          "internalType": "uint256",
          "name": "endTime",
          "type": "uint256"
        },
        {
          "internalType": "uint256",
          "name": "entryFee",
          "type": "uint256"
        },
        {
          "internalType": "uint256",
          "name": "prizePool",
          "type": "uint256"
        },
        {
          "internalType": "uint256",
          "name": "maxParticipants",
          "type": "uint256"
        },
        {
          "internalType": "bool",
          "name": "isActive",
          "type": "bool"
        },
        {
          "internalType": "bool",
          "name": "isComplete",
          "type": "bool"
        }
      ],
      "stateMutability": "view",
      "type": "function"
    },
    {
      "inputs": [],
      "name": "renounceOwnership",
      "outputs": [],
      "stateMutability": "nonpayable",
      "type": "function"
    },
    {
      "inputs": [
        {
          "internalType": "uint256",
          "name": "raceId",
          "type": "uint256"
        }
      ],
      "name": "startRace",
      "outputs": [],
      "stateMutability": "nonpayable",
      "type": "function"
    },
    {
      "inputs": [
        {
          "internalType": "address",
          "name": "newOwner",
          "type": "address"
        }
      ],
      "name": "transferOwnership",
      "outputs": [],
      "stateMutability": "nonpayable",
      "type": "function"
    }
  ],
  "bytecode": "0x60803462000118576001600160401b0390620022a138819003601f8101601f19168301848111848210176200011d578392829160405283396020928391810103126200011857516001600160a01b038082169390929091849003620001185760008054336001600160a01b031980831682178455959091167f8be0079c531659141344cd1fd0a4f28419497f9722a3daafe3b4186f6b6457e08380a3600180805560405190936060820190811182821017620001045760405260328152601e8382015260146040820152905b60038110620000ee578585600254161760025560405161216d9081620001348239f35b815160ff166009820155908201908301620000cb565b634e487b7160e01b83526041600452602483fd5b600080fd5b634e487b7160e01b600052604160045260246000fdfe608080604052600436101561001357600080fd5b60003560e01c90816312bd4e731461164857508063207f73a01461145857806324d822bf146113375780632b945c4c146112df57806332bd3a371461126e578063420f0351146110a9578063534074a81461108d57806353a3fa441461106157806354c237b7146110355780636f39cb28146106e1578063710ada35146106c3578063715018a61461066a5780637b99a2e51461064c5780637bbc469e146105cc5780638da5cb5b146105a3578063c6cd13db1461056b578063ce08d6fa14610542578063d596380e1461039d578063dba30ea414610323578063e724596414610307578063f2fde38b1461023c5763f76bdb1a1461011157600080fd5b34610237576020806003193601126102375760043560005260048152604060002090815461013e81611eab565b9061014c6040519283611c30565b8082528282018094600052836000206000915b8383106101dc5760408051878152865181890181905289928201908960005b82811061018b5784840385f35b85518051855280830151858401526040808201516001600160a01b031690860152606080820151908601526080808201519086015260a090810151908501529481019460c09093019260010161017e565b6006866001926040516101ee81611bc8565b855481528486015483820152848060a01b0360028701541660408201526003860154606082015260048601546080820152600586015460a082015281520192019201919061015f565b600080fd5b34610237576020366003190112610237576004356001600160a01b03818116918290036102375761026b611a9c565b81156102b357600054826bffffffffffffffffffffffff60a01b821617600055167f8be0079c531659141344cd1fd0a4f28419497f9722a3daafe3b4186f6b6457e0600080a3005b60405162461bcd60e51b815260206004820152602660248201527f4f776e61626c653a206e6577206f776e657220697320746865207a65726f206160448201526564647265737360d01b6064820152608490fd5b34610237576000366003190112610237576020604051601e8152f35b346102375761033136611a36565b906000526004602052604060002080548210156102375760c09161035491611a80565b5080549060018101549060018060a01b036002820154166003820154906005600484015493015493604051958652602086015260408501526060840152608083015260a0820152f35b3461023757602080600319360112610237576103b7611a9c565b600435600052600390818152604060002060088101926103de60ff855460081c1615611b41565b6001906103ee8284015415611b85565b6006908184016005815410156104fd5783948260009101945b610433575b5050505050505060ff1981541690556008548061042557005b61042e90611ed7565b600855005b81548110156104f8578061044960249284611dc0565b905490851b1c60018060a01b03898160025416604051958680926331a9108f60e11b82528660048301525afa9081156104ec57600080809381938b8f6104b2986104b79b86956104bd575b508552528260408120558c5491165af16104ac611df2565b50611e32565b611af4565b85610407565b6104de919550823d84116104e5575b6104d68183611c30565b810190611c52565b9338610494565b503d6104cc565b6040513d6000823e3d90fd5b61040c565b60405162461bcd60e51b815260048101879052601f60248201527f546f6f206d616e79207061727469636970616e747320746f2063616e63656c006044820152606490fd5b34610237576000366003190112610237576002546040516001600160a01b039091168152602090f35b346102375761057936611a36565b906000526005602052604060002090600052602052602060ff604060002054166040519015158152f35b34610237576000366003190112610237576000546040516001600160a01b039091168152602090f35b34610237576020366003190112610237576004356000526003602052610100604060002060ff815491600181015490600281015460038201546004830154916008600585015494015494604051978852602088015260408701526060860152608085015260a0840152818116151560c084015260081c16151560e0820152f35b34610237576000366003190112610237576020600854604051908152f35b3461023757600036600319011261023757610683611a9c565b600080546001600160a01b0319811682556001600160a01b03167f8be0079c531659141344cd1fd0a4f28419497f9722a3daafe3b4186f6b6457e08280a3005b34610237576000366003190112610237576020600754604051908152f35b34610237576020366003190112610237576004356000526003602052604060002060018101548015610ffd5761072160ff600884015460081c1615611b41565b601e81018091116108d6574210610fbf57600435600052600360205260406000206040519161075e836107578160068601611e6e565b0384611c30565b82519261076a84611eab565b936107786040519586611c30565b808552610787601f1991611eab565b013660208601376002546001600160a01b03169160005b825181101561091d576107b18184611ec3565b519060405163a634514160e01b81528260048201526101c081602481895afa9081156104ec576000916108ec575b5060ff602082015116906032918281029281840414901517156108d6576127109081838103116108d65760ff60408201511691600a9583878102048714841517156108d657604051904260208301526040820152856060820152446080820152608081528060a081011067ffffffffffffffff60a0830111176108c05760808160a060ff930160405260208151910120930151169384156108aa576108a59661089595610890940694029103611de5565b611de5565b61089f8289611ec3565b52611af4565b61079e565b634e487b7160e01b600052601260045260246000fd5b634e487b7160e01b600052604160045260246000fd5b634e487b7160e01b600052601160045260246000fd5b61091091506101c03d6101c011610916575b6109088183611c30565b810190611ca3565b886107df565b503d6108fe565b508491848151926000915b846000198101116108d6576000198501831015610a0d5760005b61094c8487611de5565b806000198101116108d657600019018110156109fc5761096c8188611ec3565b51906001810181116108d65761099491610989600183018a611ec3565b511061099957611af4565b610942565b6109a66001820189611ec3565b516109b1828a611ec3565b516109bf600184018b611ec3565b526109ca828a611ec3565b526109d86001820187611ec3565b516109e38288611ec3565b516109f16001840189611ec3565b5261089f8288611ec3565b5091610a0790611af4565b91610928565b9091506004356000526003602052604060002060048101549060405190610a3382611bf8565b60038252606036602084013760405192610a4c84611bf8565b60038452606036602086013786516003811015610fb657915b60005b838110610c595750505050610aaf7f3a6cabd906a29aa363edccb33dc868921d2b24ad8012e40e36e55fcfb4740a8391610ac0604051928392604084526040840190611a4c565b828103602084015260043595611a4c565b0390a282516007820167ffffffffffffffff82116108c057600160401b82116108c0578054828255808310610c30575b506020850190600052602060002060005b838110610c1c57505050506008810161010061ff0019825416179055600242910155610b2e600854611ed7565b60085560005b8251811015610b655780610b4b610b609285611ec3565b51600052600660205260006040812055611af4565b610b34565b5060085460028110610b7357005b7f16da87b2ce8ef9906525b31931f8ac5abb1cab0e4e2c72a59a61e4b1cb222a0e90610bad610ba3600754611af4565b9182600755611af4565b6008558060005260036020526040600020908155600060018201556008600560038501948554600385015501918254600582015501600161ffff198254161790556007549254905490610c1760405192839242846040919493926060820195825260208201520152565b0390a2005b600190602084519401938184015501610b01565b8160005282602060002091820191015b818110610c4d5750610af0565b60008155600101610c40565b610c63818a611ec3565b51906003811015610fa057806009015484818102048114851517156108d6576002546040516331a9108f60e11b81526004810185905293906001600160a01b0316602085602481845afa9485156104ec57600095610f7f575b5081610cc8858b611ec3565b52606483880204610cd9858c611ec3565b5283610f3257506002546001600160a01b0316803b15610237576000809160246040518094819363104b062360e11b83528760048401525af180156104ec57610f23575b506002546001600160a01b0316803b1561023757600080916044604051809481936328a3750760e11b8352876004840152606960248401525af180156104ec57610f14575b505b600435600052600460205260406000206001840184116108d65760405190610d8b82611bc8565b6004358252602082018390526001600160a01b038616604083015260018501606083015242608083015260648885020460a08301528054600160401b8110156108c057610ddd91600182018155611a80565b919091610efe5760a0816005925184556020810151600185015560028401600180841b036040830151166bffffffffffffffffffffffff841b8254161790556060810151600385015560808101516004850155015191015580600052600985016020526001830160406000205560008080806064868b020460018060a01b0389165af1610e68611df2565b5015610ec157610ebc93606460405193600186018552880204602084015260018060a01b0316917f711e425ec1950436f3b25bba784d7db56c2f82f57632a6f496ce3b7a4cc4f5b1604060043592a4611af4565b610a68565b60405162461bcd60e51b8152602060048201526015602482015274141c9a5e99481d1c985b9cd9995c8819985a5b1959605a1b6044820152606490fd5b634e487b7160e01b600052600060045260246000fd5b610f1d90611be4565b8c610d62565b610f2c90611be4565b8c610d1d565b803b1561023757600080916044604051809481936328a3750760e11b8352876004840152601e60248401525af180156104ec57610f70575b50610d64565b610f7990611be4565b8c610f6a565b610f9991955060203d6020116104e5576104d68183611c30565b938d610cbc565b634e487b7160e01b600052603260045260246000fd5b50600391610a65565b60405162461bcd60e51b815260206004820152601660248201527552616365207374696c6c20696e2070726f677265737360501b6044820152606490fd5b60405162461bcd60e51b815260206004820152601060248201526f149858d9481b9bdd081cdd185c9d195960821b6044820152606490fd5b346102375760203660031901126102375760043560038110156102375760209060090154604051908152f35b346102375760203660031901126102375760043560005260066020526020604060002054604051908152f35b3461023757600036600319011261023757602060405160028152f35b34610237576110b736611a36565b6008549160028310156112295766038d7ea4c6800081101580611217575b156111d2576005821015806111c7575b156111825760086020936110fd610ba3600754611af4565b8255806000526003855260406000209081556000600182015582600382015583600582015501600161ffff198254161790557f16da87b2ce8ef9906525b31931f8ac5abb1cab0e4e2c72a59a61e4b1cb222a0e60075492839261117760405192839242846040919493926060820195825260208201520152565b0390a2604051908152f35b60405162461bcd60e51b815260206004820152601e60248201527f5061727469636970616e7420636f756e74206d75737420626520352d323000006044820152606490fd5b5060148211156110e5565b60405162461bcd60e51b815260206004820152601d60248201527f456e74727920666565206d75737420626520302e3030312d31204554480000006044820152606490fd5b50670de0b6b3a76400008111156110d5565b60405162461bcd60e51b815260206004820152601c60248201527f4d6178696d756d206163746976652072616365732072656163686564000000006044820152606490fd5b346102375761128561127f36611a36565b90611ee4565b60405191151582528160206040818301528251908160408401526000935b8285106112c6575050606092506000838284010152601f80199101168101030190f35b84810182015186860160600152938101938593506112a3565b3461023757602036600319011261023757600435600052600360205261133361131861131f600660406000200160405192838092611e6e565b0382611c30565b604051918291602083526020830190611a4c565b0390f35b3461023757602080600319360112610237576004358060005260038252604060002060088101549261136b60ff8516611b03565b6001820191825415801580611450575b501561141c576006019160058354106113d7576113c060ff7fa1eb1e755edc2a113e857561616a7efe7b90b75de67e20d152d14ab0384bf1fb959660081c1615611b41565b429055610c17604051928284938452830190611e6e565b60405162461bcd60e51b815260048101839052601f60248201527f4d696e696d756d2035207061727469636970616e7473207265717569726564006044820152606490fd5b60405162461bcd60e51b815260048101839052600c60248201526b496e76616c6964207261636560a01b6044820152606490fd5b90508661137b565b34610237576020806003193601126102375760043560018060a01b039160029183835416604051809163a634514160e01b82528360048301528160246101c09384935afa80156104ec5763ffffffff926101409260009261162b575b5050015116936000936000936001918293600754945b858111156114eb57604080518a8152602081018c9052908101899052606090f35b806000526005808552604060002088600052855260ff6040600020541661151c575b5061151790611af4565b6114ca565b9861152690611af4565b98816000526004855260406000209081549061154182611eab565b9261154f6040519485611c30565b828452600090815287812091898986015b8a8685106115d857505093505050506000905b61157e575b5061150d565b81518110156115d35788866115938385611ec3565b510151146115ac575b6115a68791611af4565b90611573565b986115a66115ca889260a06115c18e87611ec3565b51015190611dd8565b9a91505061159c565b611578565b6006916040516115e781611bc8565b8754815284880154838201528b8d89015416604082015260038801546060820152600488015460808201528588015460a08201528152019401920191928a90611560565b6116419250803d10610916576109088183611c30565b87806114b4565b61165136611a36565b9060019260028454146119f4575060028355806000526020916003835260406000209261169360ff6008860154611689828216611b03565b60081c1615611b41565b6116aa8585015480159081156119ea575b50611b85565b6002546040516331a9108f60e11b8152600481018490526001600160a01b03918216959160249190848284818b5afa9182156104ec576000926119cb575b5033911603611995578460005260058352604060002084600052835260ff6040600020541661195c578360005260068352604060002054611919576006820180549160058401548310156118ea576003840197885434106118ad57604051809163a634514160e01b825288600483015281846101c09485935afa9081156104ec5761018092600092611890575b505001511561185957600160401b83101561184557508161179e91896006969594018155611dc0565b81549060031b9086821b91600019901b19161790556117c4600487549201918254611dd8565b90558360005260058152604060002083600052815260406000208660ff19825416179055528160406000205533917f5325eec13f0684a4c4df3de1b9eb49e550a4a4cc5d5cc8f8b9d8402da1aa64dd600080a45480341161182457508055005b60008080806118366118419534611de5565b335af16104ac611df2565b8055005b634e487b7160e01b60009081526041600452fd5b8460116064926040519262461bcd60e51b845260048401528201527048656e206d75737420626520616c69766560781b6044820152fd5b6118a69250803d10610916576109088183611c30565b8b80611775565b60405162461bcd60e51b81526004810187905260168184015275496e73756666696369656e7420656e7472792066656560501b6044820152606490fd5b8460096064926040519262461bcd60e51b8452600484015282015268149858d948199d5b1b60ba1b6044820152fd5b82601d6064926040519262461bcd60e51b845260048401528201527f48656e20616c726561647920696e20616e2061637469766520726163650000006044820152fd5b8260136064926040519262461bcd60e51b845260048401528201527212195b88185b1c9958591e48195b9d195c9959606a1b6044820152fd5b8260106064926040519262461bcd60e51b845260048401528201526f2737ba1037bbb732b91037b3103432b760811b6044820152fd5b6119e3919250853d87116104e5576104d68183611c30565b90896116e8565b90504210876116a4565b62461bcd60e51b815260206004820152601f60248201527f5265656e7472616e637947756172643a207265656e7472616e742063616c6c006044820152606490fd5b6040906003190112610237576004359060243590565b90815180825260208080930193019160005b828110611a6c575050505090565b835185529381019392810192600101611a5e565b8054821015610fa0576000526006602060002091020190600090565b6000546001600160a01b03163303611ab057565b606460405162461bcd60e51b815260206004820152602060248201527f4f776e61626c653a2063616c6c6572206973206e6f7420746865206f776e65726044820152fd5b60001981146108d65760010190565b15611b0a57565b60405162461bcd60e51b815260206004820152600f60248201526e52616365206e6f742061637469766560881b6044820152606490fd5b15611b4857565b60405162461bcd60e51b81526020600482015260156024820152745261636520616c726561647920636f6d706c65746560581b6044820152606490fd5b15611b8c57565b60405162461bcd60e51b8152602060048201526014602482015273149858d948185b1c9958591e481cdd185c9d195960621b6044820152606490fd5b60c0810190811067ffffffffffffffff8211176108c057604052565b67ffffffffffffffff81116108c057604052565b6080810190811067ffffffffffffffff8211176108c057604052565b6040810190811067ffffffffffffffff8211176108c057604052565b90601f8019910116810190811067ffffffffffffffff8211176108c057604052565b9081602091031261023757516001600160a01b03811681036102375790565b519060ff8216820361023757565b519065ffffffffffff8216820361023757565b519063ffffffff8216820361023757565b80916101c092839103126102375760405191820182811067ffffffffffffffff8211176108c057604052611cd681611c71565b8252611ce460208201611c71565b6020830152611cf560408201611c71565b6040830152611d0660608201611c71565b6060830152611d1760808201611c71565b6080830152611d2860a08201611c71565b60a0830152611d3960c08201611c7f565b60c0830152611d4a60e08201611c7f565b60e0830152610100611d5d818301611c92565b90830152610120611d6f818301611c92565b90830152610140611d81818301611c92565b90830152610160611d93818301611c92565b908301526101808082015190811515820361023757830152611db96101a0809201611c71565b9082015290565b8054821015610fa05760005260206000200190600090565b919082018092116108d657565b919082039182116108d657565b3d15611e2d573d9067ffffffffffffffff82116108c05760405191611e21601f8201601f191660200184611c30565b82523d6000602084013e565b606090565b15611e3957565b60405162461bcd60e51b815260206004820152600d60248201526c1499599d5b990819985a5b1959609a1b6044820152606490fd5b90815480825260208092019260005281600020916000905b828210611e94575050505090565b835485529384019360019384019390910190611e86565b67ffffffffffffffff81116108c05760051b60200190565b8051821015610fa05760209160051b010190565b80156108d6576000190190565b919060008381526020916003835260409485832090600882015460ff8116156121095760081c60ff166120d657600182015480151590816120cb575b5061209957835260058452858320828452845260ff868420541661206957818352600684528583205461203a5760056006820154910154111561201f57600254855163a634514160e01b815260048101929092526101c091908290829060249082906001600160a01b03165afa918215612015579061018092918492611ff8575b5050015115611fd057506821b0b71032b73a32b960b91b6001935191611fc683611c14565b6009835282015290565b6c48656e206e6f7420616c69766560981b90935191611fee83611c14565b600d835282015290565b61200e9250803d10610916576109088183611c30565b3880611fa1565b86513d85823e3d90fd5b5068149858d948199d5b1b60ba1b90935191611fc683611c14565b50507148656e20696e20616374697665207261636560701b9093519161205f83611c14565b6012835282015290565b50507212195b88185b1c9958591e48195b9d195c9959606a1b9093519161208f83611c14565b6013835282015290565b50505073149858d948185b1c9958591e481cdd185c9d195960621b909351916120c183611c14565b6014835282015290565b905042101538611f20565b505050745261636520616c726561647920636f6d706c65746560581b909351916120ff83611c14565b6015835282015290565b505050506e52616365206e6f742061637469766560881b9093519161212d83611c14565b600f83528201529056fea26469706673582212205b1a8da8f7c460d35ce0f749272928a1d87a4ca3d700466335b4c5f1f886c25864736f6c63430008140033",
  "linkReferences": {},
  "deployedLinkReferences": {}
}