{
  "_format": "hh-sol-artifact-1",
  "contractName": "HenBattle",
  "sourceName": "contracts/HenBattle.sol",
  "abi": [
    {
      "inputs": [
        {
          "internalType": "address",
          "name": "_henNFTAddress",
          "type": "address"
        }
      ],
      "stateMutability": "nonpayable",
      "type": "constructor"
    },
    {
      "anonymous": false,
      "inputs": [
        {
          "indexed": true,
          "internalType": "uint256",
          "name": "battleId",
          "type": "uint256"
        },
        {
          "indexed": false,
          "internalType": "uint256",
          "name": "winnerId",
          "type": "uint256"
        },
        {
          "indexed": false,
          "internalType": "uint256",
          "name": "loserId",
          "type": "uint256"
        },
        {
          "indexed": false,
          "internalType": "address",
          "name": "winner",
          "type": "address"
        },
        {
          "indexed": false,
          "internalType": "uint256",
          "name": "rewardAmount",
          "type": "uint256"
        }
      ],
      "name": "BattleComplete",
      "type": "event"
    },
    {
      "anonymous": false,
      "inputs": [
        {
          "indexed": true,
          "internalType": "uint256",
          "name": "battleId",
          "type": "uint256"
        },
        {
          "indexed": true,
          "internalType": "uint256",
          "name": "hen1Id",
          "type": "uint256"
        },
        {
          "indexed": true,
          "internalType": "uint256",
          "name": "hen2Id",
          "type": "uint256"
        },
        {
          "indexed": false,
          "internalType": "address",
          "name": "player1",
          "type": "address"
        },
        {
          "indexed": false,
          "internalType": "address",
          "name": "player2",
          "type": "address"
        }
      ],
      "name": "BattleCreated",
      "type": "event"
    },
    {
      "anonymous": false,
      "inputs": [
        {
          "indexed": true,
          "internalType": "uint256",
          "name": "battleId",
          "type": "uint256"
        },
        {
          "indexed": false,
          "internalType": "uint256",
          "name": "round",
          "type": "uint256"
        },
        {
          "indexed": false,
          "internalType": "uint256",
          "name": "hen1Damage",
          "type": "uint256"
        },
        {
          "indexed": false,
          "internalType": "uint256",
          "name": "hen2Damage",
          "type": "uint256"
        },
        {
          "indexed": false,
          "internalType": "uint256",
          "name": "hen1Health",
          "type": "uint256"
        },
        {
          "indexed": false,
          "internalType": "uint256",
          "name": "hen2Health",
          "type": "uint256"
        }
      ],
      "name": "BattleRound",
      "type": "event"
    },
    {
      "anonymous": false,
      "inputs": [
        {
          "indexed": true,
          "internalType": "address",
          "name": "previousOwner",
          "type": "address"
        },
        {
          "indexed": true,
          "internalType": "address",
          "name": "newOwner",
          "type": "address"
        }
      ],
      "name": "OwnershipTransferred",
      "type": "event"
    },
    {
      "inputs": [],
      "name": "BATTLE_COOLDOWN",
      "outputs": [
        {
          "internalType": "uint256",
          "name": "",
          "type": "uint256"
        }
      ],
      "stateMutability": "view",
      "type": "function"
    },
    {
      "inputs": [],
      "name": "BATTLE_REWARD",
      "outputs": [
        {
          "internalType": "uint256",
          "name": "",
          "type": "uint256"
        }
      ],
      "stateMutability": "view",
      "type": "function"
    },
    {
      "inputs": [],
      "name": "battleCounter",
      "outputs": [
        {
          "internalType": "uint256",
          "name": "",
          "type": "uint256"
        }
      ],
      "stateMutability": "view",
      "type": "function"
    },
    {
      "inputs": [
        {
          "internalType": "uint256",
          "name": "",
          "type": "uint256"
        }
      ],
      "name": "battles",
      "outputs": [
        {
          "internalType": "uint256",
          "name": "battleId",
          "type": "uint256"
        },
        {
          "internalType": "uint256",
          "name": "hen1Id",
          "type": "uint256"
        },
        {
          "internalType": "uint256",
          "name": "hen2Id",
          "type": "uint256"
        },
        {
          "internalType": "address",
          "name": "player1",
          "type": "address"
        },
        {
          "internalType": "address",
          "name": "player2",
          "type": "address"
        },
        {
          "internalType": "uint256",
          "name": "startTime",
          "type": "uint256"
        },
        {
          "internalType": "uint256",
          "name": "endTime",
          "type": "uint256"
        },
        {
          "internalType": "uint256",
          "name": "winnerId",
          "type": "uint256"
        },
        {
          "internalType": "bool",
          "name": "isComplete",
          "type": "bool"
        },
        {
          "internalType": "uint256",
          "name": "rewardAmount",
          "type": "uint256"
        }
      ],
      "stateMutability": "view",
      "type": "function"
    },
    {
      "inputs": [
        {
          "internalType": "uint256",
          "name": "henId",
          "type": "uint256"
        }
      ],
      "name": "canBattle",
      "outputs": [
        {
          "internalType": "bool",
          "name": "",
          "type": "bool"
        },
        {
          "internalType": "string",
          "name": "",
          "type": "string"
        }
      ],
      "stateMutability": "view",
      "type": "function"
    },
    {
      "inputs": [
        {
          "internalType": "uint256",
          "name": "hen1Id",
          "type": "uint256"
        },
        {
          "internalType": "uint256",
          "name": "hen2Id",
          "type": "uint256"
        }
      ],
      "name": "createBattle",
      "outputs": [
        {
          "internalType": "uint256",
          "name": "",
          "type": "uint256"
        }
      ],
      "stateMutability": "nonpayable",
      "type": "function"
    },
    {
      "inputs": [
        {
          "internalType": "uint256",
          "name": "battleId",
          "type": "uint256"
        }
      ],
      "name": "getBattle",
      "outputs": [
        {
          "components": [
            {
              "internalType": "uint256",
              "name": "battleId",
              "type": "uint256"
            },
            {
              "internalType": "uint256",
              "name": "hen1Id",
              "type": "uint256"
            },
            {
              "internalType": "uint256",
              "name": "hen2Id",
              "type": "uint256"
            },
            {
              "internalType": "address",
              "name": "player1",
              "type": "address"
            },
            {
              "internalType": "address",
              "name": "player2",
              "type": "address"
            },
            {
              "internalType": "uint256",
              "name": "startTime",
              "type": "uint256"
            },
            {
              "internalType": "uint256",
              "name": "endTime",
              "type": "uint256"
            },
            {
              "internalType": "uint256",
              "name": "winnerId",
              "type": "uint256"
            },
            {
              "internalType": "bool",
              "name": "isComplete",
              "type": "bool"
            },
            {
              "internalType": "uint256",
              "name": "rewardAmount",
              "type": "uint256"
            }
          ],
          "internalType": "struct HenBattle.Battle",
          "name": "",
          "type": "tuple"
        }
      ],
      "stateMutability": "view",
      "type": "function"
    },
    {
      "inputs": [
        {
          "internalType": "uint256",
          "name": "henId",
          "type": "uint256"
        }
      ],
      "name": "getHenBattleStats",
      "outputs": [
        {
          "internalType": "uint256",
          "name": "totalBattles",
          "type": "uint256"
        },
        {
          "internalType": "uint256",
          "name": "wins",
          "type": "uint256"
        },
        {
          "internalType": "uint256",
          "name": "losses",
          "type": "uint256"
        },
        {
          "internalType": "uint256",
          "name": "winRate",
          "type": "uint256"
        },
        {
          "internalType": "uint256",
          "name": "cooldownRemaining",
          "type": "uint256"
        }
      ],
      "stateMutability": "view",
      "type": "function"
    },
    {
      "inputs": [
        {
          "internalType": "address",
          "name": "player",
          "type": "address"
        }
      ],
      "name": "getPlayerBattles",
      "outputs": [
        {
          "internalType": "uint256[]",
          "name": "",
          "type": "uint256[]"
        }
      ],
      "stateMutability": "view",
      "type": "function"
    },
    {
      "inputs": [],
      "name": "henNFT",
      "outputs": [
        {
          "internalType": "contract IHenNFT",
          "name": "",
          "type": "address"
        }
      ],
      "stateMutability": "view",
      "type": "function"
    },
    {
      "inputs": [
        {
          "internalType": "uint256",
          "name": "",
          "type": "uint256"
        }
      ],
      "name": "lastBattleTime",
      "outputs": [
        {
          "internalType": "uint256",
          "name": "",
          "type": "uint256"
        }
      ],
      "stateMutability": "view",
      "type": "function"
    },
    {
      "inputs": [],
      "name": "owner",
      "outputs": [
        {
          "internalType": "address",
          "name": "",
          "type": "address"
        }
      ],
      "stateMutability": "view",
      "type": "function"
    },
    {
      "inputs": [
        {
          "internalType": "address",
          "name": "",
          "type": "address"
        },
        {
          "internalType": "uint256",
          "name": "",
          "type": "uint256"
        }
      ],
      "name": "playerBattles",
      "outputs": [
        {
          "internalType": "uint256",
          "name": "",
          "type": "uint256"
        }
      ],
      "stateMutability": "view",
      "type": "function"
    },
    {
      "inputs": [],
      "name": "renounceOwnership",
      "outputs": [],
      "stateMutability": "nonpayable",
      "type": "function"
    },
    {
      "inputs": [
        {
          "internalType": "address",
          "name": "newOwner",
          "type": "address"
        }
      ],
      "name": "transferOwnership",
      "outputs": [],
      "stateMutability": "nonpayable",
      "type": "function"
    }
  ],
  "bytecode": "0x60806040523480156200001157600080fd5b5060405162002c8b38038062002c8b8339818101604052810190620000379190620001dc565b620000576200004b620000a660201b60201c565b620000ae60201b60201c565b6001808190555080600260006101000a81548173ffffffffffffffffffffffffffffffffffffffff021916908373ffffffffffffffffffffffffffffffffffffffff160217905550506200020e565b600033905090565b60008060009054906101000a900473ffffffffffffffffffffffffffffffffffffffff169050816000806101000a81548173ffffffffffffffffffffffffffffffffffffffff021916908373ffffffffffffffffffffffffffffffffffffffff1602179055508173ffffffffffffffffffffffffffffffffffffffff168173ffffffffffffffffffffffffffffffffffffffff167f8be0079c531659141344cd1fd0a4f28419497f9722a3daafe3b4186f6b6457e060405160405180910390a35050565b600080fd5b600073ffffffffffffffffffffffffffffffffffffffff82169050919050565b6000620001a48262000177565b9050919050565b620001b68162000197565b8114620001c257600080fd5b50565b600081519050620001d681620001ab565b92915050565b600060208284031215620001f557620001f462000172565b5b60006200020584828501620001c5565b91505092915050565b612a6d806200021e6000396000f3fe608060405234801561001057600080fd5b50600436106100f55760003560e01c8063873b3da111610097578063ce08d6fa11610066578063ce08d6fa146102a9578063df73c49f146102c7578063f2fde38b146102f7578063f72bdcfa14610313576100f5565b8063873b3da11461021f5780638da5cb5b1461023d578063a9b9be3f1461025b578063cd3ef3ff14610279576100f5565b8063641ef4cd116100d3578063641ef4cd146101855780636dd0ce7a146101b557806370ea9f68146101e5578063715018a614610215576100f5565b8063024a356e146100fa5780634ca28b4f1461012e578063606d2e961461014c575b600080fd5b610114600480360381019061010f9190611b02565b610344565b604051610125959493929190611b3e565b60405180910390f35b6101366104b1565b6040516101439190611b91565b60405180910390f35b61016660048036038101906101619190611b02565b6104be565b60405161017c9a99989796959493929190611c08565b60405180910390f35b61019f600480360381019061019a9190611cd0565b61055f565b6040516101ac9190611b91565b60405180910390f35b6101cf60048036038101906101ca9190611b02565b610590565b6040516101dc9190611e09565b60405180910390f35b6101ff60048036038101906101fa9190611b02565b6106cb565b60405161020c9190611b91565b60405180910390f35b61021d6106e3565b005b6102276106f7565b6040516102349190611b91565b60405180910390f35b6102456106fd565b6040516102529190611e25565b60405180910390f35b610263610726565b6040516102709190611b91565b60405180910390f35b610293600480360381019061028e9190611e40565b61072c565b6040516102a09190611f1c565b60405180910390f35b6102b16107c3565b6040516102be9190611f9d565b60405180910390f35b6102e160048036038101906102dc9190611fb8565b6107e9565b6040516102ee9190611b91565b60405180910390f35b610311600480360381019061030c9190611e40565b610f40565b005b61032d60048036038101906103289190611b02565b610fc3565b60405161033b929190612088565b60405180910390f35b600080600080600080600260009054906101000a900473ffffffffffffffffffffffffffffffffffffffff1673ffffffffffffffffffffffffffffffffffffffff1663a6345141886040518263ffffffff1660e01b81526004016103a89190611b91565b61018060405180830381865afa1580156103c6573d6000803e3d6000fd5b505050506040513d601f19601f820116820180604052508101906103ea91906122d4565b90508061012001518161010001516104029190612331565b9550806101000151945080610120015193506000861161042357600061043c565b856064866104319190612365565b61043b91906123d6565b5b92506000610e10600660008a8152602001908152602001600020546104619190612331565b4210156104975742610e10600660008b81526020019081526020016000205461048a9190612331565b6104949190612407565b90505b868686868496509650965096509650505091939590929450565b68056bc75e2d6310000081565b60036020528060005260406000206000915090508060000154908060010154908060020154908060030160009054906101000a900473ffffffffffffffffffffffffffffffffffffffff16908060040160009054906101000a900473ffffffffffffffffffffffffffffffffffffffff16908060050154908060060154908060070154908060080160009054906101000a900460ff1690806009015490508a565b6004602052816000526040600020818154811061057b57600080fd5b90600052602060002001600091509150505481565b610598611a3c565b60036000838152602001908152602001600020604051806101400160405290816000820154815260200160018201548152602001600282015481526020016003820160009054906101000a900473ffffffffffffffffffffffffffffffffffffffff1673ffffffffffffffffffffffffffffffffffffffff1673ffffffffffffffffffffffffffffffffffffffff1681526020016004820160009054906101000a900473ffffffffffffffffffffffffffffffffffffffff1673ffffffffffffffffffffffffffffffffffffffff1673ffffffffffffffffffffffffffffffffffffffff1681526020016005820154815260200160068201548152602001600782015481526020016008820160009054906101000a900460ff161515151581526020016009820154815250509050919050565b60066020528060005260406000206000915090505481565b6106eb611161565b6106f560006111df565b565b610e1081565b60008060009054906101000a900473ffffffffffffffffffffffffffffffffffffffff16905090565b60055481565b6060600460008373ffffffffffffffffffffffffffffffffffffffff1673ffffffffffffffffffffffffffffffffffffffff1681526020019081526020016000208054806020026020016040519081016040528092919081815260200182805480156107b757602002820191906000526020600020905b8154815260200190600101908083116107a3575b50505050509050919050565b600260009054906101000a900473ffffffffffffffffffffffffffffffffffffffff1681565b60006107f36112a3565b3373ffffffffffffffffffffffffffffffffffffffff16600260009054906101000a900473ffffffffffffffffffffffffffffffffffffffff1673ffffffffffffffffffffffffffffffffffffffff16636352211e856040518263ffffffff1660e01b81526004016108659190611b91565b602060405180830381865afa158015610882573d6000803e3d6000fd5b505050506040513d601f19601f820116820180604052508101906108a69190612450565b73ffffffffffffffffffffffffffffffffffffffff16146108fc576040517f08c379a00000000000000000000000000000000000000000000000000000000081526004016108f3906124c9565b60405180910390fd5b81830361093e576040517f08c379a000000000000000000000000000000000000000000000000000000000815260040161093590612535565b60405180910390fd5b610e10600660008581526020019081526020016000205461095f9190612331565b4210156109a1576040517f08c379a0000000000000000000000000000000000000000000000000000000008152600401610998906125a1565b60405180910390fd5b610e1060066000848152602001908152602001600020546109c29190612331565b421015610a04576040517f08c379a00000000000000000000000000000000000000000000000000000000081526004016109fb9061260d565b60405180910390fd5b6000600260009054906101000a900473ffffffffffffffffffffffffffffffffffffffff1673ffffffffffffffffffffffffffffffffffffffff1663a6345141856040518263ffffffff1660e01b8152600401610a619190611b91565b61018060405180830381865afa158015610a7f573d6000803e3d6000fd5b505050506040513d601f19601f82011682018060405250810190610aa391906122d4565b90506000600260009054906101000a900473ffffffffffffffffffffffffffffffffffffffff1673ffffffffffffffffffffffffffffffffffffffff1663a6345141856040518263ffffffff1660e01b8152600401610b029190611b91565b61018060405180830381865afa158015610b20573d6000803e3d6000fd5b505050506040513d601f19601f82011682018060405250810190610b4491906122d4565b90508161016001518015610b5a57508061016001515b610b99576040517f08c379a0000000000000000000000000000000000000000000000000000000008152600401610b9090612679565b60405180910390fd5b60056000815480929190610bac90612699565b91905055506000600260009054906101000a900473ffffffffffffffffffffffffffffffffffffffff1673ffffffffffffffffffffffffffffffffffffffff16636352211e866040518263ffffffff1660e01b8152600401610c0e9190611b91565b602060405180830381865afa158015610c2b573d6000803e3d6000fd5b505050506040513d601f19601f82011682018060405250810190610c4f9190612450565b905060405180610140016040528060055481526020018781526020018681526020013373ffffffffffffffffffffffffffffffffffffffff1681526020018273ffffffffffffffffffffffffffffffffffffffff168152602001428152602001600081526020016000815260200160001515815260200168056bc75e2d6310000081525060036000600554815260200190815260200160002060008201518160000155602082015181600101556040820151816002015560608201518160030160006101000a81548173ffffffffffffffffffffffffffffffffffffffff021916908373ffffffffffffffffffffffffffffffffffffffff16021790555060808201518160040160006101000a81548173ffffffffffffffffffffffffffffffffffffffff021916908373ffffffffffffffffffffffffffffffffffffffff16021790555060a0820151816005015560c0820151816006015560e082015181600701556101008201518160080160006101000a81548160ff0219169083151502179055506101208201518160090155905050600460003373ffffffffffffffffffffffffffffffffffffffff1673ffffffffffffffffffffffffffffffffffffffff1681526020019081526020016000206005549080600181540180825580915050600190039060005260206000200160009091909190915055600460008273ffffffffffffffffffffffffffffffffffffffff1673ffffffffffffffffffffffffffffffffffffffff168152602001908152602001600020600554908060018154018082558091505060019003906000526020600020016000909190919091505542600660008881526020019081526020016000208190555042600660008781526020019081526020016000208190555084866005547f11134b6eca96a2282c6de248e53957e29dc4ffb7ecef4889d8ac2e01e5ca5de43385604051610f179291906126e1565b60405180910390a4610f2a6005546112f2565b6005549350505050610f3a61188e565b92915050565b610f48611161565b600073ffffffffffffffffffffffffffffffffffffffff168173ffffffffffffffffffffffffffffffffffffffff1603610fb7576040517f08c379a0000000000000000000000000000000000000000000000000000000008152600401610fae9061277c565b60405180910390fd5b610fc0816111df565b50565b600060606000600260009054906101000a900473ffffffffffffffffffffffffffffffffffffffff1673ffffffffffffffffffffffffffffffffffffffff1663a6345141856040518263ffffffff1660e01b81526004016110249190611b91565b61018060405180830381865afa158015611042573d6000803e3d6000fd5b505050506040513d601f19601f8201168201806040525081019061106691906122d4565b90508061016001516110b45760006040518060400160405280600d81526020017f48656e206e6f7420616c69766500000000000000000000000000000000000000815250925092505061115c565b610e1060066000868152602001908152602001600020546110d59190612331565b42101561111e5760006040518060400160405280600f81526020017f48656e206f6e20636f6f6c646f776e0000000000000000000000000000000000815250925092505061115c565b60016040518060400160405280600a81526020017f43616e20626174746c650000000000000000000000000000000000000000000081525092509250505b915091565b611169611897565b73ffffffffffffffffffffffffffffffffffffffff166111876106fd565b73ffffffffffffffffffffffffffffffffffffffff16146111dd576040517f08c379a00000000000000000000000000000000000000000000000000000000081526004016111d4906127e8565b60405180910390fd5b565b60008060009054906101000a900473ffffffffffffffffffffffffffffffffffffffff169050816000806101000a81548173ffffffffffffffffffffffffffffffffffffffff021916908373ffffffffffffffffffffffffffffffffffffffff1602179055508173ffffffffffffffffffffffffffffffffffffffff168173ffffffffffffffffffffffffffffffffffffffff167f8be0079c531659141344cd1fd0a4f28419497f9722a3daafe3b4186f6b6457e060405160405180910390a35050565b6002600154036112e8576040517f08c379a00000000000000000000000000000000000000000000000000000000081526004016112df90612854565b60405180910390fd5b6002600181905550565b60006003600083815260200190815260200160002090506000600260009054906101000a900473ffffffffffffffffffffffffffffffffffffffff1673ffffffffffffffffffffffffffffffffffffffff1663a634514183600101546040518263ffffffff1660e01b815260040161136a9190611b91565b61018060405180830381865afa158015611388573d6000803e3d6000fd5b505050506040513d601f19601f820116820180604052508101906113ac91906122d4565b90506000600260009054906101000a900473ffffffffffffffffffffffffffffffffffffffff1673ffffffffffffffffffffffffffffffffffffffff1663a634514184600201546040518263ffffffff1660e01b815260040161140f9190611b91565b61018060405180830381865afa15801561142d573d6000803e3d6000fd5b505050506040513d601f19601f8201168201806040525081019061145191906122d4565b90506000600a836040015160ff166114699190612365565b90506000600a836040015160ff166114819190612365565b9050600080601490505b60008411801561149b5750600083115b80156114a657508082105b156115db5781806114b690612699565b92505060006114c687878561189f565b90506000808215611534576114dc898987611936565b91508186116114ec5760006114f9565b81866114f89190612407565b5b9550600086111561152f5761150f888a87611936565b905080871161151f57600061152c565b808761152b9190612407565b5b96505b611593565b61153f888a87611936565b905080871161154f57600061155c565b808761155b9190612407565b5b9650600087111561159257611572898987611936565b915081861161158257600061158f565b818661158e9190612407565b5b95505b5b8a7f3ade50f1af4c98d8b5df6fb1d4e6bee8a912bce2daeb60b7de26f0e6f2eeab338684848b8b6040516115cb959493929190611b3e565b60405180910390a250505061148b565b6000806000858711156116225789600101549250896002015491508960030160009054906101000a900473ffffffffffffffffffffffffffffffffffffffff1690506116eb565b868611156116645789600201549250896001015491508960040160009054906101000a900473ffffffffffffffffffffffffffffffffffffffff1690506116ea565b876080015160ff16896080015160ff16106116b35789600101549250896002015491508960030160009054906101000a900473ffffffffffffffffffffffffffffffffffffffff1690506116e9565b89600201549250896001015491508960040160009054906101000a900473ffffffffffffffffffffffffffffffffffffffff1690505b5b5b828a60070181905550428a6006018190555060018a60080160006101000a81548160ff021916908315150217905550600260009054906101000a900473ffffffffffffffffffffffffffffffffffffffff1673ffffffffffffffffffffffffffffffffffffffff1663c62e04358460016040518363ffffffff1660e01b8152600401611778929190612874565b600060405180830381600087803b15801561179257600080fd5b505af11580156117a6573d6000803e3d6000fd5b50505050600260009054906101000a900473ffffffffffffffffffffffffffffffffffffffff1673ffffffffffffffffffffffffffffffffffffffff1663c62e04358360006040518363ffffffff1660e01b8152600401611808929190612874565b600060405180830381600087803b15801561182257600080fd5b505af1158015611836573d6000803e3d6000fd5b505050508a7f8f232a4cdea6abf3370ce2bd2968124719064b54df1e0092e27d0c77a06c2ff984848468056bc75e2d63100000604051611879949392919061289d565b60405180910390a25050505050505050505050565b60018081905550565b600033905090565b6000826020015160ff16846020015160ff1611156118c0576001905061192f565b836020015160ff16836020015160ff1611156118df576000905061192f565b600060024284876020015187602001516040516020016119029493929190612939565b6040516020818303038152906040528051906020012060001c6119259190612987565b9050600081149150505b9392505050565b600080846000015160ff169050600060c882876060015160ff1661195a9190612365565b61196491906123d6565b905060006064428689608001514460405160200161198594939291906129b8565b6040516020818303038152906040528051906020012060001c6119a89190612987565b9050600060649050600288608001516119c19190612a06565b60ff168210156119d057609690505b6000600a886040015160ff166119e691906123d6565b9050600060648386886119f99190612331565b611a039190612365565b611a0d91906123d6565b9050818111611a1d576001611a2a565b8181611a299190612407565b5b90508096505050505050509392505050565b604051806101400160405280600081526020016000815260200160008152602001600073ffffffffffffffffffffffffffffffffffffffff168152602001600073ffffffffffffffffffffffffffffffffffffffff168152602001600081526020016000815260200160008152602001600015158152602001600081525090565b6000604051905090565b600080fd5b6000819050919050565b611adf81611acc565b8114611aea57600080fd5b50565b600081359050611afc81611ad6565b92915050565b600060208284031215611b1857611b17611ac7565b5b6000611b2684828501611aed565b91505092915050565b611b3881611acc565b82525050565b600060a082019050611b536000830188611b2f565b611b606020830187611b2f565b611b6d6040830186611b2f565b611b7a6060830185611b2f565b611b876080830184611b2f565b9695505050505050565b6000602082019050611ba66000830184611b2f565b92915050565b600073ffffffffffffffffffffffffffffffffffffffff82169050919050565b6000611bd782611bac565b9050919050565b611be781611bcc565b82525050565b60008115159050919050565b611c0281611bed565b82525050565b600061014082019050611c1e600083018d611b2f565b611c2b602083018c611b2f565b611c38604083018b611b2f565b611c45606083018a611bde565b611c526080830189611bde565b611c5f60a0830188611b2f565b611c6c60c0830187611b2f565b611c7960e0830186611b2f565b611c87610100830185611bf9565b611c95610120830184611b2f565b9b9a5050505050505050505050565b611cad81611bcc565b8114611cb857600080fd5b50565b600081359050611cca81611ca4565b92915050565b60008060408385031215611ce757611ce6611ac7565b5b6000611cf585828601611cbb565b9250506020611d0685828601611aed565b9150509250929050565b611d1981611acc565b82525050565b611d2881611bcc565b82525050565b611d3781611bed565b82525050565b61014082016000820151611d546000850182611d10565b506020820151611d676020850182611d10565b506040820151611d7a6040850182611d10565b506060820151611d8d6060850182611d1f565b506080820151611da06080850182611d1f565b5060a0820151611db360a0850182611d10565b5060c0820151611dc660c0850182611d10565b5060e0820151611dd960e0850182611d10565b50610100820151611dee610100850182611d2e565b50610120820151611e03610120850182611d10565b50505050565b600061014082019050611e1f6000830184611d3d565b92915050565b6000602082019050611e3a6000830184611bde565b92915050565b600060208284031215611e5657611e55611ac7565b5b6000611e6484828501611cbb565b91505092915050565b600081519050919050565b600082825260208201905092915050565b6000819050602082019050919050565b6000611ea58383611d10565b60208301905092915050565b6000602082019050919050565b6000611ec982611e6d565b611ed38185611e78565b9350611ede83611e89565b8060005b83811015611f0f578151611ef68882611e99565b9750611f0183611eb1565b925050600181019050611ee2565b5085935050505092915050565b60006020820190508181036000830152611f368184611ebe565b905092915050565b6000819050919050565b6000611f63611f5e611f5984611bac565b611f3e565b611bac565b9050919050565b6000611f7582611f48565b9050919050565b6000611f8782611f6a565b9050919050565b611f9781611f7c565b82525050565b6000602082019050611fb26000830184611f8e565b92915050565b60008060408385031215611fcf57611fce611ac7565b5b6000611fdd85828601611aed565b9250506020611fee85828601611aed565b9150509250929050565b600081519050919050565b600082825260208201905092915050565b60005b83811015612032578082015181840152602081019050612017565b60008484015250505050565b6000601f19601f8301169050919050565b600061205a82611ff8565b6120648185612003565b9350612074818560208601612014565b61207d8161203e565b840191505092915050565b600060408201905061209d6000830185611bf9565b81810360208301526120af818461204f565b90509392505050565b600080fd5b7f4e487b7100000000000000000000000000000000000000000000000000000000600052604160045260246000fd5b6120f58261203e565b810181811067ffffffffffffffff82111715612114576121136120bd565b5b80604052505050565b6000612127611abd565b905061213382826120ec565b919050565b600060ff82169050919050565b61214e81612138565b811461215957600080fd5b50565b60008151905061216b81612145565b92915050565b60008151905061218081611ad6565b92915050565b61218f81611bed565b811461219a57600080fd5b50565b6000815190506121ac81612186565b92915050565b600061018082840312156121c9576121c86120b8565b5b6121d461018061211d565b905060006121e48482850161215c565b60008301525060206121f88482850161215c565b602083015250604061220c8482850161215c565b60408301525060606122208482850161215c565b60608301525060806122348482850161215c565b60808301525060a06122488482850161215c565b60a08301525060c061225c84828501612171565b60c08301525060e061227084828501612171565b60e08301525061010061228584828501612171565b6101008301525061012061229b84828501612171565b610120830152506101406122b184828501612171565b610140830152506101606122c78482850161219d565b6101608301525092915050565b600061018082840312156122eb576122ea611ac7565b5b60006122f9848285016121b2565b91505092915050565b7f4e487b7100000000000000000000000000000000000000000000000000000000600052601160045260246000fd5b600061233c82611acc565b915061234783611acc565b925082820190508082111561235f5761235e612302565b5b92915050565b600061237082611acc565b915061237b83611acc565b925082820261238981611acc565b915082820484148315176123a05761239f612302565b5b5092915050565b7f4e487b7100000000000000000000000000000000000000000000000000000000600052601260045260246000fd5b60006123e182611acc565b91506123ec83611acc565b9250826123fc576123fb6123a7565b5b828204905092915050565b600061241282611acc565b915061241d83611acc565b925082820390508181111561243557612434612302565b5b92915050565b60008151905061244a81611ca4565b92915050565b60006020828403121561246657612465611ac7565b5b60006124748482850161243b565b91505092915050565b7f4e6f74206f776e6572206f662068656e20310000000000000000000000000000600082015250565b60006124b3601283612003565b91506124be8261247d565b602082019050919050565b600060208201905081810360008301526124e2816124a6565b9050919050565b7f43616e6e6f7420626174746c65207769746820697473656c6600000000000000600082015250565b600061251f601983612003565b915061252a826124e9565b602082019050919050565b6000602082019050818103600083015261254e81612512565b9050919050565b7f48656e2031206f6e20636f6f6c646f776e000000000000000000000000000000600082015250565b600061258b601183612003565b915061259682612555565b602082019050919050565b600060208201905081810360008301526125ba8161257e565b9050919050565b7f48656e2032206f6e20636f6f6c646f776e000000000000000000000000000000600082015250565b60006125f7601183612003565b9150612602826125c1565b602082019050919050565b60006020820190508181036000830152612626816125ea565b9050919050565b7f48656e206d75737420626520616c697665000000000000000000000000000000600082015250565b6000612663601183612003565b915061266e8261262d565b602082019050919050565b6000602082019050818103600083015261269281612656565b9050919050565b60006126a482611acc565b91507fffffffffffffffffffffffffffffffffffffffffffffffffffffffffffffffff82036126d6576126d5612302565b5b600182019050919050565b60006040820190506126f66000830185611bde565b6127036020830184611bde565b9392505050565b7f4f776e61626c653a206e6577206f776e657220697320746865207a65726f206160008201527f6464726573730000000000000000000000000000000000000000000000000000602082015250565b6000612766602683612003565b91506127718261270a565b604082019050919050565b6000602082019050818103600083015261279581612759565b9050919050565b7f4f776e61626c653a2063616c6c6572206973206e6f7420746865206f776e6572600082015250565b60006127d2602083612003565b91506127dd8261279c565b602082019050919050565b60006020820190508181036000830152612801816127c5565b9050919050565b7f5265656e7472616e637947756172643a207265656e7472616e742063616c6c00600082015250565b600061283e601f83612003565b915061284982612808565b602082019050919050565b6000602082019050818103600083015261286d81612831565b9050919050565b60006040820190506128896000830185611b2f565b6128966020830184611bf9565b9392505050565b60006080820190506128b26000830187611b2f565b6128bf6020830186611b2f565b6128cc6040830185611bde565b6128d96060830184611b2f565b95945050505050565b6000819050919050565b6128fd6128f882611acc565b6128e2565b82525050565b60008160f81b9050919050565b600061291b82612903565b9050919050565b61293361292e82612138565b612910565b82525050565b600061294582876128ec565b60208201915061295582866128ec565b6020820191506129658285612922565b6001820191506129758284612922565b60018201915081905095945050505050565b600061299282611acc565b915061299d83611acc565b9250826129ad576129ac6123a7565b5b828206905092915050565b60006129c482876128ec565b6020820191506129d482866128ec565b6020820191506129e48285612922565b6001820191506129f482846128ec565b60208201915081905095945050505050565b6000612a1182612138565b9150612a1c83612138565b925082612a2c57612a2b6123a7565b5b82820490509291505056fea26469706673582212201799241ebad1c9a8385ebfb482d41e8767a417ca41a42e23b83a53d47cfcf89564736f6c63430008140033",
  "linkReferences": {},
  "deployedLinkReferences": {}
}