{
  "_format": "hh-sol-artifact-1",
  "contractName": "HenRacing",
  "sourceName": "contracts/HenRacing.sol",
  "abi": [
    {
      "inputs": [
        {
          "internalType": "address",
          "name": "_henNFTAddress",
          "type": "address"
        }
      ],
      "stateMutability": "nonpayable",
      "type": "constructor"
    },
    {
      "anonymous": false,
      "inputs": [
        {
          "indexed": true,
          "internalType": "uint256",
          "name": "raceId",
          "type": "uint256"
        },
        {
          "indexed": true,
          "internalType": "uint256",
          "name": "henId",
          "type": "uint256"
        },
        {
          "indexed": true,
          "internalType": "address",
          "name": "owner",
          "type": "address"
        }
      ],
      "name": "HenEntered",
      "type": "event"
    },
    {
      "anonymous": false,
      "inputs": [
        {
          "indexed": true,
          "internalType": "address",
          "name": "previousOwner",
          "type": "address"
        },
        {
          "indexed": true,
          "internalType": "address",
          "name": "newOwner",
          "type": "address"
        }
      ],
      "name": "OwnershipTransferred",
      "type": "event"
    },
    {
      "anonymous": false,
      "inputs": [
        {
          "indexed": true,
          "internalType": "uint256",
          "name": "raceId",
          "type": "uint256"
        },
        {
          "indexed": true,
          "internalType": "uint256",
          "name": "henId",
          "type": "uint256"
        },
        {
          "indexed": true,
          "internalType": "address",
          "name": "owner",
          "type": "address"
        },
        {
          "indexed": false,
          "internalType": "uint256",
          "name": "position",
          "type": "uint256"
        },
        {
          "indexed": false,
          "internalType": "uint256",
          "name": "prize",
          "type": "uint256"
        }
      ],
      "name": "PrizeAwarded",
      "type": "event"
    },
    {
      "anonymous": false,
      "inputs": [
        {
          "indexed": true,
          "internalType": "uint256",
          "name": "raceId",
          "type": "uint256"
        },
        {
          "indexed": false,
          "internalType": "uint256[]",
          "name": "winners",
          "type": "uint256[]"
        },
        {
          "indexed": false,
          "internalType": "uint256[]",
          "name": "prizes",
          "type": "uint256[]"
        }
      ],
      "name": "RaceComplete",
      "type": "event"
    },
    {
      "anonymous": false,
      "inputs": [
        {
          "indexed": true,
          "internalType": "uint256",
          "name": "raceId",
          "type": "uint256"
        },
        {
          "indexed": false,
          "internalType": "uint256",
          "name": "startTime",
          "type": "uint256"
        },
        {
          "indexed": false,
          "internalType": "uint256",
          "name": "entryFee",
          "type": "uint256"
        },
        {
          "indexed": false,
          "internalType": "uint256",
          "name": "maxParticipants",
          "type": "uint256"
        }
      ],
      "name": "RaceCreated",
      "type": "event"
    },
    {
      "anonymous": false,
      "inputs": [
        {
          "indexed": true,
          "internalType": "uint256",
          "name": "raceId",
          "type": "uint256"
        },
        {
          "indexed": false,
          "internalType": "uint256[]",
          "name": "participants",
          "type": "uint256[]"
        }
      ],
      "name": "RaceStarted",
      "type": "event"
    },
    {
      "inputs": [],
      "name": "MAX_ACTIVE_RACES",
      "outputs": [
        {
          "internalType": "uint256",
          "name": "",
          "type": "uint256"
        }
      ],
      "stateMutability": "view",
      "type": "function"
    },
    {
      "inputs": [],
      "name": "RACE_DURATION",
      "outputs": [
        {
          "internalType": "uint256",
          "name": "",
          "type": "uint256"
        }
      ],
      "stateMutability": "view",
      "type": "function"
    },
    {
      "inputs": [],
      "name": "activeRacesCount",
      "outputs": [
        {
          "internalType": "uint256",
          "name": "",
          "type": "uint256"
        }
      ],
      "stateMutability": "view",
      "type": "function"
    },
    {
      "inputs": [
        {
          "internalType": "uint256",
          "name": "raceId",
          "type": "uint256"
        },
        {
          "internalType": "uint256",
          "name": "henId",
          "type": "uint256"
        }
      ],
      "name": "canEnterRace",
      "outputs": [
        {
          "internalType": "bool",
          "name": "",
          "type": "bool"
        },
        {
          "internalType": "string",
          "name": "",
          "type": "string"
        }
      ],
      "stateMutability": "view",
      "type": "function"
    },
    {
      "inputs": [
        {
          "internalType": "uint256",
          "name": "raceId",
          "type": "uint256"
        }
      ],
      "name": "cancelRace",
      "outputs": [],
      "stateMutability": "nonpayable",
      "type": "function"
    },
    {
      "inputs": [
        {
          "internalType": "uint256",
          "name": "raceId",
          "type": "uint256"
        }
      ],
      "name": "completeRace",
      "outputs": [],
      "stateMutability": "nonpayable",
      "type": "function"
    },
    {
      "inputs": [
        {
          "internalType": "uint256",
          "name": "entryFee",
          "type": "uint256"
        },
        {
          "internalType": "uint256",
          "name": "maxParticipants",
          "type": "uint256"
        }
      ],
      "name": "createRace",
      "outputs": [
        {
          "internalType": "uint256",
          "name": "",
          "type": "uint256"
        }
      ],
      "stateMutability": "nonpayable",
      "type": "function"
    },
    {
      "inputs": [
        {
          "internalType": "uint256",
          "name": "raceId",
          "type": "uint256"
        },
        {
          "internalType": "uint256",
          "name": "henId",
          "type": "uint256"
        }
      ],
      "name": "enterRace",
      "outputs": [],
      "stateMutability": "payable",
      "type": "function"
    },
    {
      "inputs": [
        {
          "internalType": "uint256",
          "name": "henId",
          "type": "uint256"
        }
      ],
      "name": "getHenRaceStats",
      "outputs": [
        {
          "internalType": "uint256",
          "name": "totalRaces",
          "type": "uint256"
        },
        {
          "internalType": "uint256",
          "name": "wins",
          "type": "uint256"
        },
        {
          "internalType": "uint256",
          "name": "totalPrizes",
          "type": "uint256"
        }
      ],
      "stateMutability": "view",
      "type": "function"
    },
    {
      "inputs": [
        {
          "internalType": "uint256",
          "name": "raceId",
          "type": "uint256"
        }
      ],
      "name": "getRaceParticipants",
      "outputs": [
        {
          "internalType": "uint256[]",
          "name": "",
          "type": "uint256[]"
        }
      ],
      "stateMutability": "view",
      "type": "function"
    },
    {
      "inputs": [
        {
          "internalType": "uint256",
          "name": "raceId",
          "type": "uint256"
        }
      ],
      "name": "getRaceResults",
      "outputs": [
        {
          "components": [
            {
              "internalType": "uint256",
              "name": "raceId",
              "type": "uint256"
            },
            {
              "internalType": "uint256",
              "name": "henId",
              "type": "uint256"
            },
            {
              "internalType": "address",
              "name": "owner",
              "type": "address"
            },
            {
              "internalType": "uint256",
              "name": "position",
              "type": "uint256"
            },
            {
              "internalType": "uint256",
              "name": "finishTime",
              "type": "uint256"
            },
            {
              "internalType": "uint256",
              "name": "prize",
              "type": "uint256"
            }
          ],
          "internalType": "struct HenRacing.RaceResult[]",
          "name": "",
          "type": "tuple[]"
        }
      ],
      "stateMutability": "view",
      "type": "function"
    },
    {
      "inputs": [
        {
          "internalType": "uint256",
          "name": "",
          "type": "uint256"
        }
      ],
      "name": "henActiveRace",
      "outputs": [
        {
          "internalType": "uint256",
          "name": "",
          "type": "uint256"
        }
      ],
      "stateMutability": "view",
      "type": "function"
    },
    {
      "inputs": [
        {
          "internalType": "uint256",
          "name": "",
          "type": "uint256"
        },
        {
          "internalType": "uint256",
          "name": "",
          "type": "uint256"
        }
      ],
      "name": "henInRace",
      "outputs": [
        {
          "internalType": "bool",
          "name": "",
          "type": "bool"
        }
      ],
      "stateMutability": "view",
      "type": "function"
    },
    {
      "inputs": [],
      "name": "henNFT",
      "outputs": [
        {
          "internalType": "contract IHenNFT",
          "name": "",
          "type": "address"
        }
      ],
      "stateMutability": "view",
      "type": "function"
    },
    {
      "inputs": [],
      "name": "owner",
      "outputs": [
        {
          "internalType": "address",
          "name": "",
          "type": "address"
        }
      ],
      "stateMutability": "view",
      "type": "function"
    },
    {
      "inputs": [
        {
          "internalType": "uint256",
          "name": "",
          "type": "uint256"
        }
      ],
      "name": "prizeDistribution",
      "outputs": [
        {
          "internalType": "uint256",
          "name": "",
          "type": "uint256"
        }
      ],
      "stateMutability": "view",
      "type": "function"
    },
    {
      "inputs": [],
      "name": "raceCounter",
      "outputs": [
        {
          "internalType": "uint256",
          "name": "",
          "type": "uint256"
        }
      ],
      "stateMutability": "view",
      "type": "function"
    },
    {
      "inputs": [
        {
          "internalType": "uint256",
          "name": "",
          "type": "uint256"
        },
        {
          "internalType": "uint256",
          "name": "",
          "type": "uint256"
        }
      ],
      "name": "raceResults",
      "outputs": [
        {
          "internalType": "uint256",
          "name": "raceId",
          "type": "uint256"
        },
        {
          "internalType": "uint256",
          "name": "henId",
          "type": "uint256"
        },
        {
          "internalType": "address",
          "name": "owner",
          "type": "address"
        },
        {
          "internalType": "uint256",
          "name": "position",
          "type": "uint256"
        },
        {
          "internalType": "uint256",
          "name": "finishTime",
          "type": "uint256"
        },
        {
          "internalType": "uint256",
          "name": "prize",
          "type": "uint256"
        }
      ],
      "stateMutability": "view",
      "type": "function"
    },
    {
      "inputs": [
        {
          "internalType": "uint256",
          "name": "",
          "type": "uint256"
        }
      ],
      "name": "races",
      "outputs": [
        {
          "internalType": "uint256",
          "name": "raceId",
          "type": "uint256"
        },
        {
          "internalType": "uint256",
          "name": "startTime",
          "type": "uint256"
        },
        {
          "internalType": "uint256",
          "name": "endTime",
          "type": "uint256"
        },
        {
          "internalType": "uint256",
          "name": "entryFee",
          "type": "uint256"
        },
        {
          "internalType": "uint256",
          "name": "prizePool",
          "type": "uint256"
        },
        {
          "internalType": "uint256",
          "name": "maxParticipants",
          "type": "uint256"
        },
        {
          "internalType": "bool",
          "name": "isActive",
          "type": "bool"
        },
        {
          "internalType": "bool",
          "name": "isComplete",
          "type": "bool"
        }
      ],
      "stateMutability": "view",
      "type": "function"
    },
    {
      "inputs": [],
      "name": "renounceOwnership",
      "outputs": [],
      "stateMutability": "nonpayable",
      "type": "function"
    },
    {
      "inputs": [
        {
          "internalType": "uint256",
          "name": "raceId",
          "type": "uint256"
        }
      ],
      "name": "startRace",
      "outputs": [],
      "stateMutability": "nonpayable",
      "type": "function"
    },
    {
      "inputs": [
        {
          "internalType": "address",
          "name": "newOwner",
          "type": "address"
        }
      ],
      "name": "transferOwnership",
      "outputs": [],
      "stateMutability": "nonpayable",
      "type": "function"
    }
  ],
  "bytecode": "0x60806040526040518060600160405280603260ff168152602001601e60ff168152602001601460ff1681525060099060036200003d929190620001ac565b503480156200004b57600080fd5b50604051620043863803806200438683398181016040528101906200007191906200027f565b6200009162000085620000e060201b60201c565b620000e860201b60201c565b6001808190555080600260006101000a81548173ffffffffffffffffffffffffffffffffffffffff021916908373ffffffffffffffffffffffffffffffffffffffff16021790555050620002b1565b600033905090565b60008060009054906101000a900473ffffffffffffffffffffffffffffffffffffffff169050816000806101000a81548173ffffffffffffffffffffffffffffffffffffffff021916908373ffffffffffffffffffffffffffffffffffffffff1602179055508173ffffffffffffffffffffffffffffffffffffffff168173ffffffffffffffffffffffffffffffffffffffff167f8be0079c531659141344cd1fd0a4f28419497f9722a3daafe3b4186f6b6457e060405160405180910390a35050565b8260038101928215620001e3579160200282015b82811115620001e2578251829060ff16905591602001919060010190620001c0565b5b509050620001f29190620001f6565b5090565b5b8082111562000211576000816000905550600101620001f7565b5090565b600080fd5b600073ffffffffffffffffffffffffffffffffffffffff82169050919050565b600062000247826200021a565b9050919050565b62000259816200023a565b81146200026557600080fd5b50565b60008151905062000279816200024e565b92915050565b60006020828403121562000298576200029762000215565b5b6000620002a88482850162000268565b91505092915050565b6140c580620002c16000396000f3fe6080604052600436106101355760003560e01c8063715018a6116100ab578063ce08d6fa1161006f578063ce08d6fa1461045d578063d596380e14610488578063dba30ea4146104b1578063e7245964146104f3578063f2fde38b1461051e578063f76bdb1a1461054757610135565b8063715018a61461036f5780637b99a2e5146103865780637bbc469e146103b15780638da5cb5b146103f5578063c6cd13db1461042057610135565b8063420f0351116100fd578063420f035114610239578063534074a81461027657806353a3fa44146102a157806354c237b7146102de5780636f39cb281461031b578063710ada351461034457610135565b806312bd4e731461013a578063207f73a01461015657806324d822bf146101955780632b945c4c146101be57806332bd3a37146101fb575b600080fd5b610154600480360381019061014f9190612a71565b610584565b005b34801561016257600080fd5b5061017d60048036038101906101789190612ab1565b610ba1565b60405161018c93929190612aed565b60405180910390f35b3480156101a157600080fd5b506101bc60048036038101906101b79190612ab1565b610e36565b005b3480156101ca57600080fd5b506101e560048036038101906101e09190612ab1565b610fd9565b6040516101f29190612be2565b60405180910390f35b34801561020757600080fd5b50610222600480360381019061021d9190612a71565b611047565b604051610230929190612caf565b60405180910390f35b34801561024557600080fd5b50610260600480360381019061025b9190612a71565b6113d0565b60405161026d9190612cdf565b60405180910390f35b34801561028257600080fd5b5061028b6115ba565b6040516102989190612cdf565b60405180910390f35b3480156102ad57600080fd5b506102c860048036038101906102c39190612ab1565b6115bf565b6040516102d59190612cdf565b60405180910390f35b3480156102ea57600080fd5b5061030560048036038101906103009190612ab1565b6115d7565b6040516103129190612cdf565b60405180910390f35b34801561032757600080fd5b50610342600480360381019061033d9190612ab1565b6115f2565b005b34801561035057600080fd5b50610359611807565b6040516103669190612cdf565b60405180910390f35b34801561037b57600080fd5b5061038461180d565b005b34801561039257600080fd5b5061039b611821565b6040516103a89190612cdf565b60405180910390f35b3480156103bd57600080fd5b506103d860048036038101906103d39190612ab1565b611827565b6040516103ec989796959493929190612cfa565b60405180910390f35b34801561040157600080fd5b5061040a611889565b6040516104179190612db9565b60405180910390f35b34801561042c57600080fd5b5061044760048036038101906104429190612a71565b6118b2565b6040516104549190612dd4565b60405180910390f35b34801561046957600080fd5b506104726118e1565b60405161047f9190612e4e565b60405180910390f35b34801561049457600080fd5b506104af60048036038101906104aa9190612ab1565b611907565b005b3480156104bd57600080fd5b506104d860048036038101906104d39190612a71565b611c05565b6040516104ea96959493929190612e69565b60405180910390f35b3480156104ff57600080fd5b50610508611c7e565b6040516105159190612cdf565b60405180910390f35b34801561052a57600080fd5b5061054560048036038101906105409190612ef6565b611c83565b005b34801561055357600080fd5b5061056e60048036038101906105699190612ab1565b611d06565b60405161057b919061305c565b60405180910390f35b61058c611e00565b60006003600084815260200190815260200160002090508060080160009054906101000a900460ff166105f4576040517f08c379a00000000000000000000000000000000000000000000000000000000081526004016105eb906130ca565b60405180910390fd5b8060080160019054906101000a900460ff1615610646576040517f08c379a000000000000000000000000000000000000000000000000000000000815260040161063d90613136565b60405180910390fd5b60008160010154148061065c5750806001015442105b61069b576040517f08c379a0000000000000000000000000000000000000000000000000000000008152600401610692906131a2565b60405180910390fd5b3373ffffffffffffffffffffffffffffffffffffffff16600260009054906101000a900473ffffffffffffffffffffffffffffffffffffffff1673ffffffffffffffffffffffffffffffffffffffff16636352211e846040518263ffffffff1660e01b815260040161070d9190612cdf565b602060405180830381865afa15801561072a573d6000803e3d6000fd5b505050506040513d601f19601f8201168201806040525081019061074e91906131d7565b73ffffffffffffffffffffffffffffffffffffffff16146107a4576040517f08c379a000000000000000000000000000000000000000000000000000000000815260040161079b90613250565b60405180910390fd5b60056000848152602001908152602001600020600083815260200190815260200160002060009054906101000a900460ff1615610816576040517f08c379a000000000000000000000000000000000000000000000000000000000815260040161080d906132bc565b60405180910390fd5b600060066000848152602001908152602001600020541461086c576040517f08c379a000000000000000000000000000000000000000000000000000000000815260040161086390613328565b60405180910390fd5b80600501548160060180549050106108b9576040517f08c379a00000000000000000000000000000000000000000000000000000000081526004016108b090613394565b60405180910390fd5b8060030154341015610900576040517f08c379a00000000000000000000000000000000000000000000000000000000081526004016108f790613400565b60405180910390fd5b6000600260009054906101000a900473ffffffffffffffffffffffffffffffffffffffff1673ffffffffffffffffffffffffffffffffffffffff1663a6345141846040518263ffffffff1660e01b815260040161095d9190612cdf565b61018060405180830381865afa15801561097b573d6000803e3d6000fd5b505050506040513d601f19601f8201168201806040525081019061099f919061363c565b90508061016001516109e6576040517f08c379a00000000000000000000000000000000000000000000000000000000081526004016109dd906136b6565b60405180910390fd5b816006018390806001815401808255809150506001900390600052602060002001600090919091909150558160030154826004016000828254610a299190613705565b92505081905550600160056000868152602001908152602001600020600085815260200190815260200160002060006101000a81548160ff0219169083151502179055508360066000858152602001908152602001600020819055503373ffffffffffffffffffffffffffffffffffffffff1683857f5325eec13f0684a4c4df3de1b9eb49e550a4a4cc5d5cc8f8b9d8402da1aa64dd60405160405180910390a48160030154341115610b935760003373ffffffffffffffffffffffffffffffffffffffff16836003015434610aff9190613739565b604051610b0b9061379e565b60006040518083038185875af1925050503d8060008114610b48576040519150601f19603f3d011682016040523d82523d6000602084013e610b4d565b606091505b5050905080610b91576040517f08c379a0000000000000000000000000000000000000000000000000000000008152600401610b88906137ff565b60405180910390fd5b505b5050610b9d611e4f565b5050565b600080600080600260009054906101000a900473ffffffffffffffffffffffffffffffffffffffff1673ffffffffffffffffffffffffffffffffffffffff1663a6345141866040518263ffffffff1660e01b8152600401610c029190612cdf565b61018060405180830381865afa158015610c20573d6000803e3d6000fd5b505050506040513d601f19601f82011682018060405250810190610c44919061363c565b905080610140015192506000806000600190505b6007548111610e225760056000828152602001908152602001600020600089815260200190815260200160002060009054906101000a900460ff1615610e0f578280610ca39061381f565b935050600060046000838152602001908152602001600020805480602002602001604051908101604052809291908181526020016000905b82821015610d9557838290600052602060002090600602016040518060c001604052908160008201548152602001600182015481526020016002820160009054906101000a900473ffffffffffffffffffffffffffffffffffffffff1673ffffffffffffffffffffffffffffffffffffffff1673ffffffffffffffffffffffffffffffffffffffff168152602001600382015481526020016004820154815260200160058201548152505081526020019060010190610cdb565b50505050905060005b8151811015610e0c5789828281518110610dbb57610dba613867565b5b60200260200101516020015103610df957818181518110610ddf57610dde613867565b5b602002602001015160a0015184610df69190613705565b93505b8080610e049061381f565b915050610d9e565b50505b8080610e1a9061381f565b915050610c58565b508185829550955095505050509193909250565b60006003600083815260200190815260200160002090508060080160009054906101000a900460ff16610e9e576040517f08c379a0000000000000000000000000000000000000000000000000000000008152600401610e95906130ca565b60405180910390fd5b600081600101541480610eb5575060008160010154115b610ef4576040517f08c379a0000000000000000000000000000000000000000000000000000000008152600401610eeb906138e2565b60405180910390fd5b600581600601805490501015610f3f576040517f08c379a0000000000000000000000000000000000000000000000000000000008152600401610f369061394e565b60405180910390fd5b8060080160019054906101000a900460ff1615610f91576040517f08c379a0000000000000000000000000000000000000000000000000000000008152600401610f8890613136565b60405180910390fd5b428160010181905550817fa1eb1e755edc2a113e857561616a7efe7b90b75de67e20d152d14ab0384bf1fb82600601604051610fcd9190613a44565b60405180910390a25050565b60606003600083815260200190815260200160002060060180548060200260200160405190810160405280929190818152602001828054801561103b57602002820191906000526020600020905b815481526020019060010190808311611027575b50505050509050919050565b6000606060006003600086815260200190815260200160002090508060080160009054906101000a900460ff166110ba5760006040518060400160405280600f81526020017f52616365206e6f7420616374697665000000000000000000000000000000000081525092509250506113c9565b8060080160019054906101000a900460ff16156111135760006040518060400160405280601581526020017f5261636520616c726561647920636f6d706c657465000000000000000000000081525092509250506113c9565b6000816001015411801561112b575080600101544210155b156111725760006040518060400160405280601481526020017f5261636520616c7265616479207374617274656400000000000000000000000081525092509250506113c9565b60056000868152602001908152602001600020600085815260200190815260200160002060009054906101000a900460ff16156111eb5760006040518060400160405280601381526020017f48656e20616c726561647920656e74657265640000000000000000000000000081525092509250506113c9565b60006006600086815260200190815260200160002054146112485760006040518060400160405280601281526020017f48656e20696e206163746976652072616365000000000000000000000000000081525092509250506113c9565b806005015481600601805490501061129c5760006040518060400160405280600981526020017f526163652066756c6c000000000000000000000000000000000000000000000081525092509250506113c9565b6000600260009054906101000a900473ffffffffffffffffffffffffffffffffffffffff1673ffffffffffffffffffffffffffffffffffffffff1663a6345141866040518263ffffffff1660e01b81526004016112f99190612cdf565b61018060405180830381865afa158015611317573d6000803e3d6000fd5b505050506040513d601f19601f8201168201806040525081019061133b919061363c565b905080610160015161138a5760006040518060400160405280600d81526020017f48656e206e6f7420616c697665000000000000000000000000000000000000008152509350935050506113c9565b60016040518060400160405280600981526020017f43616e20656e74657200000000000000000000000000000000000000000000008152509350935050505b9250929050565b6000600260085410611417576040517f08c379a000000000000000000000000000000000000000000000000000000000815260040161140e90613ab2565b60405180910390fd5b66038d7ea4c6800083101580156114365750670de0b6b3a76400008311155b611475576040517f08c379a000000000000000000000000000000000000000000000000000000000815260040161146c90613b1e565b60405180910390fd5b60058210158015611487575060148211155b6114c6576040517f08c379a00000000000000000000000000000000000000000000000000000000081526004016114bd90613b8a565b60405180910390fd5b600760008154809291906114d99061381f565b9190505550600860008154809291906114f19061381f565b91905055506000600360006007548152602001908152602001600020905060075481600001819055506000816001018190555083816003018190555082816005018190555060018160080160006101000a81548160ff02191690831515021790555060008160080160016101000a81548160ff0219169083151502179055506007547f16da87b2ce8ef9906525b31931f8ac5abb1cab0e4e2c72a59a61e4b1cb222a0e4286866040516115a693929190612aed565b60405180910390a260075491505092915050565b600281565b60066020528060005260406000206000915090505481565b600981600381106115e757600080fd5b016000915090505481565b60006003600083815260200190815260200160002090506000816001015411611650576040517f08c379a000000000000000000000000000000000000000000000000000000000815260040161164790613bf6565b60405180910390fd5b8060080160019054906101000a900460ff16156116a2576040517f08c379a000000000000000000000000000000000000000000000000000000000815260040161169990613136565b60405180910390fd5b601e81600101546116b39190613705565b4210156116f5576040517f08c379a00000000000000000000000000000000000000000000000000000000081526004016116ec90613c62565b60405180910390fd5b6116fe82611e58565b60026008541015611803576007600081548092919061171c9061381f565b9190505550600860008154809291906117349061381f565b919050555060006003600060075481526020019081526020016000209050600754816000018190555060008160010181905550816003015481600301819055508160050154816005018190555060018160080160006101000a81548160ff02191690831515021790555060008160080160016101000a81548160ff0219169083151502179055506007547f16da87b2ce8ef9906525b31931f8ac5abb1cab0e4e2c72a59a61e4b1cb222a0e42846003015485600501546040516117f993929190612aed565b60405180910390a2505b5050565b60075481565b611815612176565b61181f60006121f4565b565b60085481565b60036020528060005260406000206000915090508060000154908060010154908060020154908060030154908060040154908060050154908060080160009054906101000a900460ff16908060080160019054906101000a900460ff16905088565b60008060009054906101000a900473ffffffffffffffffffffffffffffffffffffffff16905090565b60056020528160005260406000206020528060005260406000206000915091509054906101000a900460ff1681565b600260009054906101000a900473ffffffffffffffffffffffffffffffffffffffff1681565b61190f612176565b60006003600083815260200190815260200160002090508060080160019054906101000a900460ff1615611978576040517f08c379a000000000000000000000000000000000000000000000000000000000815260040161196f90613136565b60405180910390fd5b60008160010154146119bf576040517f08c379a00000000000000000000000000000000000000000000000000000000081526004016119b6906131a2565b60405180910390fd5b6005816006018054905010611a09576040517f08c379a0000000000000000000000000000000000000000000000000000000008152600401611a0090613cce565b60405180910390fd5b60005b8160060180549050811015611bbf576000826006018281548110611a3357611a32613867565b5b906000526020600020015490506000600260009054906101000a900473ffffffffffffffffffffffffffffffffffffffff1673ffffffffffffffffffffffffffffffffffffffff16636352211e836040518263ffffffff1660e01b8152600401611a9d9190612cdf565b602060405180830381865afa158015611aba573d6000803e3d6000fd5b505050506040513d601f19601f82011682018060405250810190611ade91906131d7565b90506000600660008481526020019081526020016000208190555060008173ffffffffffffffffffffffffffffffffffffffff168560030154604051611b239061379e565b60006040518083038185875af1925050503d8060008114611b60576040519150601f19603f3d011682016040523d82523d6000602084013e611b65565b606091505b5050905080611ba9576040517f08c379a0000000000000000000000000000000000000000000000000000000008152600401611ba0906137ff565b60405180910390fd5b5050508080611bb79061381f565b915050611a0c565b5060008160080160006101000a81548160ff02191690831515021790555060006008541115611c015760086000815480929190611bfb90613cee565b91905055505b5050565b60046020528160005260406000208181548110611c2157600080fd5b9060005260206000209060060201600091509150508060000154908060010154908060020160009054906101000a900473ffffffffffffffffffffffffffffffffffffffff16908060030154908060040154908060050154905086565b601e81565b611c8b612176565b600073ffffffffffffffffffffffffffffffffffffffff168173ffffffffffffffffffffffffffffffffffffffff1603611cfa576040517f08c379a0000000000000000000000000000000000000000000000000000000008152600401611cf190613d89565b60405180910390fd5b611d03816121f4565b50565b606060046000838152602001908152602001600020805480602002602001604051908101604052809291908181526020016000905b82821015611df557838290600052602060002090600602016040518060c001604052908160008201548152602001600182015481526020016002820160009054906101000a900473ffffffffffffffffffffffffffffffffffffffff1673ffffffffffffffffffffffffffffffffffffffff1673ffffffffffffffffffffffffffffffffffffffff168152602001600382015481526020016004820154815260200160058201548152505081526020019060010190611d3b565b505050509050919050565b600260015403611e45576040517f08c379a0000000000000000000000000000000000000000000000000000000008152600401611e3c90613df5565b60405180910390fd5b6002600181905550565b60018081905550565b6000600360008381526020019081526020016000209050600081600601805480602002602001604051908101604052809291908181526020018280548015611ebf57602002820191906000526020600020905b815481526020019060010190808311611eab575b505050505090506000815167ffffffffffffffff811115611ee357611ee2613425565b5b604051908082528060200260200182016040528015611f115781602001602082028036833780820191505090505b50905060005b82518110156120b1576000838281518110611f3557611f34613867565b5b602002602001015190506000600260009054906101000a900473ffffffffffffffffffffffffffffffffffffffff1673ffffffffffffffffffffffffffffffffffffffff1663a6345141836040518263ffffffff1660e01b8152600401611f9c9190612cdf565b61018060405180830381865afa158015611fba573d6000803e3d6000fd5b505050506040513d601f19601f82011682018060405250810190611fde919061363c565b905060006032826020015160ff16611ff69190613e15565b6127106120039190613739565b90506000600a836040015160ff1661201b9190613e15565b90506000836080015160ff164286884460405160200161203e9493929190613e78565b6040516020818303038152906040528051906020012060001c6120619190613ef5565b90508082846120709190613739565b61207a9190613739565b87878151811061208d5761208c613867565b5b602002602001018181525050505050505080806120a99061381f565b915050611f17565b506120bc82826122b8565b6120c68483612485565b818360070190805190602001906120de9291906129c2565b5060018360080160016101000a81548160ff0219169083151502179055504283600201819055506008600081548092919061211890613cee565b919050555060005b825181101561216f5760006006600085848151811061214257612141613867565b5b602002602001015181526020019081526020016000208190555080806121679061381f565b915050612120565b5050505050565b61217e6129ba565b73ffffffffffffffffffffffffffffffffffffffff1661219c611889565b73ffffffffffffffffffffffffffffffffffffffff16146121f2576040517f08c379a00000000000000000000000000000000000000000000000000000000081526004016121e990613f72565b60405180910390fd5b565b60008060009054906101000a900473ffffffffffffffffffffffffffffffffffffffff169050816000806101000a81548173ffffffffffffffffffffffffffffffffffffffff021916908373ffffffffffffffffffffffffffffffffffffffff1602179055508173ffffffffffffffffffffffffffffffffffffffff168173ffffffffffffffffffffffffffffffffffffffff167f8be0079c531659141344cd1fd0a4f28419497f9722a3daafe3b4186f6b6457e060405160405180910390a35050565b60008251905060005b6001826122ce9190613739565b81101561247f5760005b600182846122e69190613739565b6122f09190613739565b81101561246b57836001826123059190613705565b8151811061231657612315613867565b5b602002602001015184828151811061233157612330613867565b5b60200260200101511115612458578360018261234d9190613705565b8151811061235e5761235d613867565b5b602002602001015184828151811061237957612378613867565b5b602002602001015185838151811061239457612393613867565b5b60200260200101866001856123a99190613705565b815181106123ba576123b9613867565b5b6020026020010182815250828152505050846001826123d99190613705565b815181106123ea576123e9613867565b5b602002602001015185828151811061240557612404613867565b5b60200260200101518683815181106124205761241f613867565b5b60200260200101876001856124359190613705565b8151811061244657612445613867565b5b60200260200101828152508281525050505b80806124639061381f565b9150506122d8565b5080806124779061381f565b9150506122c1565b50505050565b60006003600084815260200190815260200160002090506000816004015490506000600367ffffffffffffffff8111156124c2576124c1613425565b5b6040519080825280602002602001820160405280156124f05781602001602082028036833780820191505090505b5090506000600367ffffffffffffffff8111156125105761250f613425565b5b60405190808252806020026020018201604052801561253e5781602001602082028036833780820191505090505b50905060006003865110612553576003612556565b85515b905060005b8181101561297657600087828151811061257857612577613867565b5b60200260200101519050600060646009846003811061259a57612599613867565b5b0154886125a79190613e15565b6125b19190613f92565b90506000600260009054906101000a900473ffffffffffffffffffffffffffffffffffffffff1673ffffffffffffffffffffffffffffffffffffffff16636352211e846040518263ffffffff1660e01b81526004016126109190612cdf565b602060405180830381865afa15801561262d573d6000803e3d6000fd5b505050506040513d601f19601f8201168201806040525081019061265191906131d7565b90508287858151811061266757612666613867565b5b6020026020010181815250508186858151811061268757612686613867565b5b6020026020010181815250506000840361272957600260009054906101000a900473ffffffffffffffffffffffffffffffffffffffff1673ffffffffffffffffffffffffffffffffffffffff166320960c46846040518263ffffffff1660e01b81526004016126f69190612cdf565b600060405180830381600087803b15801561271057600080fd5b505af1158015612724573d6000803e3d6000fd5b505050505b600460008c81526020019081526020016000206040518060c001604052808d81526020018581526020018373ffffffffffffffffffffffffffffffffffffffff16815260200160018761277c9190613705565b8152602001428152602001848152509080600181540180825580915050600190039060005260206000209060060201600090919091909150600082015181600001556020820151816001015560408201518160020160006101000a81548173ffffffffffffffffffffffffffffffffffffffff021916908373ffffffffffffffffffffffffffffffffffffffff160217905550606082015181600301556080820151816004015560a08201518160050155505060018461283c9190613705565b8960090160008581526020019081526020016000208190555060008173ffffffffffffffffffffffffffffffffffffffff168360405161287b9061379e565b60006040518083038185875af1925050503d80600081146128b8576040519150601f19603f3d011682016040523d82523d6000602084013e6128bd565b606091505b5050905080612901576040517f08c379a00000000000000000000000000000000000000000000000000000000081526004016128f89061400f565b60405180910390fd5b8173ffffffffffffffffffffffffffffffffffffffff16848d7f711e425ec1950436f3b25bba784d7db56c2f82f57632a6f496ce3b7a4cc4f5b16001896129489190613705565b8760405161295792919061402f565b60405180910390a450505050808061296e9061381f565b91505061255b565b50867f3a6cabd906a29aa363edccb33dc868921d2b24ad8012e40e36e55fcfb4740a8384846040516129a9929190614058565b60405180910390a250505050505050565b600033905090565b8280548282559060005260206000209081019282156129fe579160200282015b828111156129fd5782518255916020019190600101906129e2565b5b509050612a0b9190612a0f565b5090565b5b80821115612a28576000816000905550600101612a10565b5090565b6000604051905090565b600080fd5b6000819050919050565b612a4e81612a3b565b8114612a5957600080fd5b50565b600081359050612a6b81612a45565b92915050565b60008060408385031215612a8857612a87612a36565b5b6000612a9685828601612a5c565b9250506020612aa785828601612a5c565b9150509250929050565b600060208284031215612ac757612ac6612a36565b5b6000612ad584828501612a5c565b91505092915050565b612ae781612a3b565b82525050565b6000606082019050612b026000830186612ade565b612b0f6020830185612ade565b612b1c6040830184612ade565b949350505050565b600081519050919050565b600082825260208201905092915050565b6000819050602082019050919050565b612b5981612a3b565b82525050565b6000612b6b8383612b50565b60208301905092915050565b6000602082019050919050565b6000612b8f82612b24565b612b998185612b2f565b9350612ba483612b40565b8060005b83811015612bd5578151612bbc8882612b5f565b9750612bc783612b77565b925050600181019050612ba8565b5085935050505092915050565b60006020820190508181036000830152612bfc8184612b84565b905092915050565b60008115159050919050565b612c1981612c04565b82525050565b600081519050919050565b600082825260208201905092915050565b60005b83811015612c59578082015181840152602081019050612c3e565b60008484015250505050565b6000601f19601f8301169050919050565b6000612c8182612c1f565b612c8b8185612c2a565b9350612c9b818560208601612c3b565b612ca481612c65565b840191505092915050565b6000604082019050612cc46000830185612c10565b8181036020830152612cd68184612c76565b90509392505050565b6000602082019050612cf46000830184612ade565b92915050565b600061010082019050612d10600083018b612ade565b612d1d602083018a612ade565b612d2a6040830189612ade565b612d376060830188612ade565b612d446080830187612ade565b612d5160a0830186612ade565b612d5e60c0830185612c10565b612d6b60e0830184612c10565b9998505050505050505050565b600073ffffffffffffffffffffffffffffffffffffffff82169050919050565b6000612da382612d78565b9050919050565b612db381612d98565b82525050565b6000602082019050612dce6000830184612daa565b92915050565b6000602082019050612de96000830184612c10565b92915050565b6000819050919050565b6000612e14612e0f612e0a84612d78565b612def565b612d78565b9050919050565b6000612e2682612df9565b9050919050565b6000612e3882612e1b565b9050919050565b612e4881612e2d565b82525050565b6000602082019050612e636000830184612e3f565b92915050565b600060c082019050612e7e6000830189612ade565b612e8b6020830188612ade565b612e986040830187612daa565b612ea56060830186612ade565b612eb26080830185612ade565b612ebf60a0830184612ade565b979650505050505050565b612ed381612d98565b8114612ede57600080fd5b50565b600081359050612ef081612eca565b92915050565b600060208284031215612f0c57612f0b612a36565b5b6000612f1a84828501612ee1565b91505092915050565b600081519050919050565b600082825260208201905092915050565b6000819050602082019050919050565b612f5881612d98565b82525050565b60c082016000820151612f746000850182612b50565b506020820151612f876020850182612b50565b506040820151612f9a6040850182612f4f565b506060820151612fad6060850182612b50565b506080820151612fc06080850182612b50565b5060a0820151612fd360a0850182612b50565b50505050565b6000612fe58383612f5e565b60c08301905092915050565b6000602082019050919050565b600061300982612f23565b6130138185612f2e565b935061301e83612f3f565b8060005b8381101561304f5781516130368882612fd9565b975061304183612ff1565b925050600181019050613022565b5085935050505092915050565b600060208201905081810360008301526130768184612ffe565b905092915050565b7f52616365206e6f74206163746976650000000000000000000000000000000000600082015250565b60006130b4600f83612c2a565b91506130bf8261307e565b602082019050919050565b600060208201905081810360008301526130e3816130a7565b9050919050565b7f5261636520616c726561647920636f6d706c6574650000000000000000000000600082015250565b6000613120601583612c2a565b915061312b826130ea565b602082019050919050565b6000602082019050818103600083015261314f81613113565b9050919050565b7f5261636520616c72656164792073746172746564000000000000000000000000600082015250565b600061318c601483612c2a565b915061319782613156565b602082019050919050565b600060208201905081810360008301526131bb8161317f565b9050919050565b6000815190506131d181612eca565b92915050565b6000602082840312156131ed576131ec612a36565b5b60006131fb848285016131c2565b91505092915050565b7f4e6f74206f776e6572206f662068656e00000000000000000000000000000000600082015250565b600061323a601083612c2a565b915061324582613204565b602082019050919050565b600060208201905081810360008301526132698161322d565b9050919050565b7f48656e20616c726561647920656e746572656400000000000000000000000000600082015250565b60006132a6601383612c2a565b91506132b182613270565b602082019050919050565b600060208201905081810360008301526132d581613299565b9050919050565b7f48656e20616c726561647920696e20616e206163746976652072616365000000600082015250565b6000613312601d83612c2a565b915061331d826132dc565b602082019050919050565b6000602082019050818103600083015261334181613305565b9050919050565b7f526163652066756c6c0000000000000000000000000000000000000000000000600082015250565b600061337e600983612c2a565b915061338982613348565b602082019050919050565b600060208201905081810360008301526133ad81613371565b9050919050565b7f496e73756666696369656e7420656e7472792066656500000000000000000000600082015250565b60006133ea601683612c2a565b91506133f5826133b4565b602082019050919050565b60006020820190508181036000830152613419816133dd565b9050919050565b600080fd5b7f4e487b7100000000000000000000000000000000000000000000000000000000600052604160045260246000fd5b61345d82612c65565b810181811067ffffffffffffffff8211171561347c5761347b613425565b5b80604052505050565b600061348f612a2c565b905061349b8282613454565b919050565b600060ff82169050919050565b6134b6816134a0565b81146134c157600080fd5b50565b6000815190506134d3816134ad565b92915050565b6000815190506134e881612a45565b92915050565b6134f781612c04565b811461350257600080fd5b50565b600081519050613514816134ee565b92915050565b6000610180828403121561353157613530613420565b5b61353c610180613485565b9050600061354c848285016134c4565b6000830152506020613560848285016134c4565b6020830152506040613574848285016134c4565b6040830152506060613588848285016134c4565b606083015250608061359c848285016134c4565b60808301525060a06135b0848285016134c4565b60a08301525060c06135c4848285016134d9565b60c08301525060e06135d8848285016134d9565b60e0830152506101006135ed848285016134d9565b61010083015250610120613603848285016134d9565b61012083015250610140613619848285016134d9565b6101408301525061016061362f84828501613505565b6101608301525092915050565b6000610180828403121561365357613652612a36565b5b60006136618482850161351a565b91505092915050565b7f48656e206d75737420626520616c697665000000000000000000000000000000600082015250565b60006136a0601183612c2a565b91506136ab8261366a565b602082019050919050565b600060208201905081810360008301526136cf81613693565b9050919050565b7f4e487b7100000000000000000000000000000000000000000000000000000000600052601160045260246000fd5b600061371082612a3b565b915061371b83612a3b565b9250828201905080821115613733576137326136d6565b5b92915050565b600061374482612a3b565b915061374f83612a3b565b9250828203905081811115613767576137666136d6565b5b92915050565b600081905092915050565b50565b600061378860008361376d565b915061379382613778565b600082019050919050565b60006137a98261377b565b9150819050919050565b7f526566756e64206661696c656400000000000000000000000000000000000000600082015250565b60006137e9600d83612c2a565b91506137f4826137b3565b602082019050919050565b60006020820190508181036000830152613818816137dc565b9050919050565b600061382a82612a3b565b91507fffffffffffffffffffffffffffffffffffffffffffffffffffffffffffffffff820361385c5761385b6136d6565b5b600182019050919050565b7f4e487b7100000000000000000000000000000000000000000000000000000000600052603260045260246000fd5b7f496e76616c696420726163650000000000000000000000000000000000000000600082015250565b60006138cc600c83612c2a565b91506138d782613896565b602082019050919050565b600060208201905081810360008301526138fb816138bf565b9050919050565b7f4d696e696d756d2035207061727469636970616e747320726571756972656400600082015250565b6000613938601f83612c2a565b915061394382613902565b602082019050919050565b600060208201905081810360008301526139678161392b565b9050919050565b600081549050919050565b60008190508160005260206000209050919050565b60008160001c9050919050565b6000819050919050565b60006139b86139b38361398e565b61399b565b9050919050565b60006139cb82546139a5565b9050919050565b6000600182019050919050565b60006139ea8261396e565b6139f48185612b2f565b93506139ff83613979565b8060005b83811015613a3757613a14826139bf565b613a1e8882612b5f565b9750613a29836139d2565b925050600181019050613a03565b5085935050505092915050565b60006020820190508181036000830152613a5e81846139df565b905092915050565b7f4d6178696d756d20616374697665207261636573207265616368656400000000600082015250565b6000613a9c601c83612c2a565b9150613aa782613a66565b602082019050919050565b60006020820190508181036000830152613acb81613a8f565b9050919050565b7f456e74727920666565206d75737420626520302e3030312d3120455448000000600082015250565b6000613b08601d83612c2a565b9150613b1382613ad2565b602082019050919050565b60006020820190508181036000830152613b3781613afb565b9050919050565b7f5061727469636970616e7420636f756e74206d75737420626520352d32300000600082015250565b6000613b74601e83612c2a565b9150613b7f82613b3e565b602082019050919050565b60006020820190508181036000830152613ba381613b67565b9050919050565b7f52616365206e6f74207374617274656400000000000000000000000000000000600082015250565b6000613be0601083612c2a565b9150613beb82613baa565b602082019050919050565b60006020820190508181036000830152613c0f81613bd3565b9050919050565b7f52616365207374696c6c20696e2070726f677265737300000000000000000000600082015250565b6000613c4c601683612c2a565b9150613c5782613c16565b602082019050919050565b60006020820190508181036000830152613c7b81613c3f565b9050919050565b7f546f6f206d616e79207061727469636970616e747320746f2063616e63656c00600082015250565b6000613cb8601f83612c2a565b9150613cc382613c82565b602082019050919050565b60006020820190508181036000830152613ce781613cab565b9050919050565b6000613cf982612a3b565b915060008203613d0c57613d0b6136d6565b5b600182039050919050565b7f4f776e61626c653a206e6577206f776e657220697320746865207a65726f206160008201527f6464726573730000000000000000000000000000000000000000000000000000602082015250565b6000613d73602683612c2a565b9150613d7e82613d17565b604082019050919050565b60006020820190508181036000830152613da281613d66565b9050919050565b7f5265656e7472616e637947756172643a207265656e7472616e742063616c6c00600082015250565b6000613ddf601f83612c2a565b9150613dea82613da9565b602082019050919050565b60006020820190508181036000830152613e0e81613dd2565b9050919050565b6000613e2082612a3b565b9150613e2b83612a3b565b9250828202613e3981612a3b565b91508282048414831517613e5057613e4f6136d6565b5b5092915050565b6000819050919050565b613e72613e6d82612a3b565b613e57565b82525050565b6000613e848287613e61565b602082019150613e948286613e61565b602082019150613ea48285613e61565b602082019150613eb48284613e61565b60208201915081905095945050505050565b7f4e487b7100000000000000000000000000000000000000000000000000000000600052601260045260246000fd5b6000613f0082612a3b565b9150613f0b83612a3b565b925082613f1b57613f1a613ec6565b5b828206905092915050565b7f4f776e61626c653a2063616c6c6572206973206e6f7420746865206f776e6572600082015250565b6000613f5c602083612c2a565b9150613f6782613f26565b602082019050919050565b60006020820190508181036000830152613f8b81613f4f565b9050919050565b6000613f9d82612a3b565b9150613fa883612a3b565b925082613fb857613fb7613ec6565b5b828204905092915050565b7f5072697a65207472616e73666572206661696c65640000000000000000000000600082015250565b6000613ff9601583612c2a565b915061400482613fc3565b602082019050919050565b6000602082019050818103600083015261402881613fec565b9050919050565b60006040820190506140446000830185612ade565b6140516020830184612ade565b9392505050565b600060408201905081810360008301526140728185612b84565b905081810360208301526140868184612b84565b9050939250505056fea2646970667358221220c989fa2231d149f0702c7f08a660297580589243a3da7c108b7af85311b3cd1d64736f6c63430008140033",
  "linkReferences": {},
  "deployedLinkReferences": {}
}