{
  "_format": "hh-sol-artifact-1",
  "contractName": "UserRegistry",
  "sourceName": "contracts/UserRegistry.sol",
  "abi": [
    {
      "inputs": [],
      "stateMutability": "nonpayable",
      "type": "constructor"
    },
    {
      "anonymous": false,
      "inputs": [
        {
          "indexed": true,
          "internalType": "address",
          "name": "previousOwner",
          "type": "address"
        },
        {
          "indexed": true,
          "internalType": "address",
          "name": "newOwner",
          "type": "address"
        }
      ],
      "name": "OwnershipTransferred",
      "type": "event"
    },
    {
      "anonymous": false,
      "inputs": [
        {
          "indexed": true,
          "internalType": "address",
          "name": "user",
          "type": "address"
        }
      ],
      "name": "RegistrationRevoked",
      "type": "event"
    },
    {
      "anonymous": false,
      "inputs": [
        {
          "indexed": true,
          "internalType": "address",
          "name": "user",
          "type": "address"
        },
        {
          "indexed": false,
          "internalType": "string",
          "name": "email",
          "type": "string"
        },
        {
          "indexed": false,
          "internalType": "uint256",
          "name": "timestamp",
          "type": "uint256"
        }
      ],
      "name": "UserRegistered",
      "type": "event"
    },
    {
      "inputs": [],
      "name": "MAX_FREE_HENS",
      "outputs": [
        {
          "internalType": "uint256",
          "name": "",
          "type": "uint256"
        }
      ],
      "stateMutability": "view",
      "type": "function"
    },
    {
      "inputs": [
        {
          "internalType": "address[]",
          "name": "addresses",
          "type": "address[]"
        }
      ],
      "name": "areRegistered",
      "outputs": [
        {
          "internalType": "bool[]",
          "name": "",
          "type": "bool[]"
        }
      ],
      "stateMutability": "view",
      "type": "function"
    },
    {
      "inputs": [
        {
          "internalType": "string",
          "name": "",
          "type": "string"
        }
      ],
      "name": "emailUsed",
      "outputs": [
        {
          "internalType": "bool",
          "name": "",
          "type": "bool"
        }
      ],
      "stateMutability": "view",
      "type": "function"
    },
    {
      "inputs": [
        {
          "internalType": "address",
          "name": "user",
          "type": "address"
        }
      ],
      "name": "getUserInfo",
      "outputs": [
        {
          "components": [
            {
              "internalType": "bool",
              "name": "isRegistered",
              "type": "bool"
            },
            {
              "internalType": "uint256",
              "name": "registrationTime",
              "type": "uint256"
            },
            {
              "internalType": "uint256",
              "name": "hensReceived",
              "type": "uint256"
            },
            {
              "internalType": "string",
              "name": "email",
              "type": "string"
            }
          ],
          "internalType": "struct UserRegistry.UserInfo",
          "name": "",
          "type": "tuple"
        }
      ],
      "stateMutability": "view",
      "type": "function"
    },
    {
      "inputs": [
        {
          "internalType": "address",
          "name": "user",
          "type": "address"
        }
      ],
      "name": "isRegistered",
      "outputs": [
        {
          "internalType": "bool",
          "name": "",
          "type": "bool"
        }
      ],
      "stateMutability": "view",
      "type": "function"
    },
    {
      "inputs": [],
      "name": "owner",
      "outputs": [
        {
          "internalType": "address",
          "name": "",
          "type": "address"
        }
      ],
      "stateMutability": "view",
      "type": "function"
    },
    {
      "inputs": [
        {
          "internalType": "address",
          "name": "user",
          "type": "address"
        },
        {
          "internalType": "string",
          "name": "email",
          "type": "string"
        }
      ],
      "name": "registerUser",
      "outputs": [],
      "stateMutability": "nonpayable",
      "type": "function"
    },
    {
      "inputs": [],
      "name": "renounceOwnership",
      "outputs": [],
      "stateMutability": "nonpayable",
      "type": "function"
    },
    {
      "inputs": [
        {
          "internalType": "address",
          "name": "user",
          "type": "address"
        }
      ],
      "name": "revokeRegistration",
      "outputs": [],
      "stateMutability": "nonpayable",
      "type": "function"
    },
    {
      "inputs": [],
      "name": "totalRegistrations",
      "outputs": [
        {
          "internalType": "uint256",
          "name": "",
          "type": "uint256"
        }
      ],
      "stateMutability": "view",
      "type": "function"
    },
    {
      "inputs": [
        {
          "internalType": "address",
          "name": "newOwner",
          "type": "address"
        }
      ],
      "name": "transferOwnership",
      "outputs": [],
      "stateMutability": "nonpayable",
      "type": "function"
    },
    {
      "inputs": [
        {
          "internalType": "address",
          "name": "",
          "type": "address"
        }
      ],
      "name": "users",
      "outputs": [
        {
          "internalType": "bool",
          "name": "isRegistered",
          "type": "bool"
        },
        {
          "internalType": "uint256",
          "name": "registrationTime",
          "type": "uint256"
        },
        {
          "internalType": "uint256",
          "name": "hensReceived",
          "type": "uint256"
        },
        {
          "internalType": "string",
          "name": "email",
          "type": "string"
        }
      ],
      "stateMutability": "view",
      "type": "function"
    }
  ],
  "bytecode": "0x6080806040523461005b5760008054336001600160a01b0319821681178355916001600160a01b03909116907f8be0079c531659141344cd1fd0a4f28419497f9722a3daafe3b4186f6b6457e09080a3610d8390816100618239f35b600080fdfe6040608081526004908136101561001557600080fd5b600091823560e01c9081630397c4521461093c5781630ea126f9146105fb5781636386c1c71461053e578163715018a6146104e45781638da5cb5b146104bc57816394652f7514610457578163a87430ba146103e0578163af6ee860146101e8578163c3c5a547146101aa578163f2fde38b146100e357508063f4f62b6d146100c55763f797f04b146100a757600080fd5b346100c157816003193601126100c1576020905160028152f35b5080fd5b50346100c157816003193601126100c1576020906003549051908152f35b9050346101a65760203660031901126101a6576100fe610af5565b90610107610c8f565b6001600160a01b0391821692831561015457505082546001600160a01b0319811683178455167f8be0079c531659141344cd1fd0a4f28419497f9722a3daafe3b4186f6b6457e08380a380f35b906020608492519162461bcd60e51b8352820152602660248201527f4f776e61626c653a206e6577206f776e657220697320746865207a65726f206160448201526564647265737360d01b6064820152fd5b8280fd5b5050346100c15760203660031901126100c15760209160ff9082906001600160a01b036101d5610af5565b1681526001855220541690519015158152f35b9050346101a6576020806003193601126103dc57610204610af5565b61020c610c8f565b6001600160a01b03168085526001808352848620549194909160ff16156103a4579085929185845281835261024660038286200154610baf565b61030a575b6003908685528284528420848155848382015584600282015501906102708254610baf565b90816102c8575b50505050506003549081156102b55750600019016003557f81e159a3d6ec45abad37cc2ff82db3a9fea6021d1413ad4fcc34ed8c247e7e208280a280f35b634e487b7160e01b845260119052602483fd5b8490601f83116001146102e6575050509050555b8238808080610277565b601f849395839561030394528520950160051c8501908501610ce7565b55556102dc565b858452818352600381852001815190859080549061032782610baf565b9187878216918260001461038a575050600114610359575b50506002815281900384019020805460ff1916905561024b565b909150865284862086905b8282106103765750508101848261033f565b8054848301528a9750908601908501610364565b60ff191686528315159093028501935084915061033f9050565b5162461bcd60e51b81528084018390526013602482015272155cd95c881b9bdd081c9959da5cdd195c9959606a1b6044820152606490fd5b8380fd5b5050346100c15760203660031901126100c1579081906001600160a01b03610406610af5565b1681526001602052209061045360ff83541691600184015493610430600360028301549201610be9565b918051958695151586526020860152840152608060608401526080830190610b8a565b0390f35b8284346104b95760203660031901126104b95782359067ffffffffffffffff82116104b957506104a46020610492819560ff94369101610b10565b81855193828580945193849201610b67565b81016002815203019020541690519015158152f35b80fd5b5050346100c157816003193601126100c157905490516001600160a01b039091168152602090f35b83346104b957806003193601126104b9576104fd610c8f565b80546001600160a01b03198116825581906001600160a01b03167f8be0079c531659141344cd1fd0a4f28419497f9722a3daafe3b4186f6b6457e08280a380f35b5050346100c157602091826003193601126104b9578161045391610560610af5565b606080845161056e81610a89565b84815288810185905285810185905201526001600160a01b0316815260018552208251929061059c84610a89565b60ff815416151584526001810154918585019283526105c8600360028401549383880194855201610be9565b926060860193845281519687968188525115159087015251908501525160608401525160808084015260a0830190610b8a565b8383346100c157806003193601126100c157610615610af5565b67ffffffffffffffff91602435838111610938576106369036908701610b10565b9161063f610c8f565b6001600160a01b031680855260016020818152838720549295909260ff166108f55785156108bb5784518061082f575b5083519161067c83610a89565b8083526003848401934285528681016002815260608201958987528a8c52848852888c209251151560ff80198554169116178355518483015551600282015501925198895192831161081c57506106d38354610baf565b601f81116107e3575b508398601f8311600114610763578291899a83927f89105a1c6a3c2fbd471255c66a31ccab604af5697f67d7e2e9a0028c5e4dbd919a9b94610758575b50501b916000199060031b1c19161790555b610736600354610cfe565b60035561074c8251938385948552840190610b8a565b9042908301520390a280f35b015192508b80610719565b601f92919219821699848a52858a20918a5b8c81106107ce5750837f89105a1c6a3c2fbd471255c66a31ccab604af5697f67d7e2e9a0028c5e4dbd919a9b9c106107b5575b505050811b01905561072b565b015160001960f88460031b161c191690558980806107a8565b81830151845592850192918701918701610775565b61080c90848a52858a20601f850160051c810191878610610812575b601f0160051c0190610ce7565b896106dc565b90915081906107ff565b634e487b7160e01b895260419052602488fd5b60ff85518581818a0194610844818388610b67565b8101600281520301902054166108835783610869918651809381928a51928391610b67565b810160028152030190208260ff198254161790558861066f565b845162461bcd60e51b8152808a018590526012602482015271115b585a5b08185b1c9958591e481d5cd95960721b6044820152606490fd5b835162461bcd60e51b81528089018490526014602482015273496e76616c69642075736572206164647265737360601b6044820152606490fd5b835162461bcd60e51b8152808901849052601760248201527f5573657220616c726561647920726567697374657265640000000000000000006044820152606490fd5b8480fd5b905082346104b957602090816003193601126104b95782359267ffffffffffffffff84116100c157366023850112156100c1578301359261097c84610add565b9361098986519586610abb565b80855260248486019160051b830101913683116103dc57602401905b828210610a6a575050508251916109d36109be84610add565b936109cb87519586610abb565b808552610add565b8382019490601f1901368637825b8151811015610a2857610a23906001600160a01b03610a008285610d23565b511685526001845260ff8886205416610a198288610d23565b9015159052610cfe565b6109e1565b505093929183519485948186019282875251809352850193925b828110610a5157505050500390f35b8351151585528695509381019392810192600101610a42565b81356001600160a01b03811681036109385781529084019084016109a5565b6080810190811067ffffffffffffffff821117610aa557604052565b634e487b7160e01b600052604160045260246000fd5b90601f8019910116810190811067ffffffffffffffff821117610aa557604052565b67ffffffffffffffff8111610aa55760051b60200190565b600435906001600160a01b0382168203610b0b57565b600080fd5b81601f82011215610b0b5780359067ffffffffffffffff8211610aa55760405192610b45601f8401601f191660200185610abb565b82845260208383010111610b0b57816000926020809301838601378301015290565b60005b838110610b7a5750506000910152565b8181015183820152602001610b6a565b90602091610ba381518092818552858086019101610b67565b601f01601f1916010190565b90600182811c92168015610bdf575b6020831014610bc957565b634e487b7160e01b600052602260045260246000fd5b91607f1691610bbe565b9060405191826000825492610bfd84610baf565b908184526001948581169081600014610c6c5750600114610c29575b5050610c2792500383610abb565b565b9093915060005260209081600020936000915b818310610c54575050610c2793508201013880610c19565b85548884018501529485019487945091830191610c3c565b915050610c2794506020925060ff191682840152151560051b8201013880610c19565b6000546001600160a01b03163303610ca357565b606460405162461bcd60e51b815260206004820152602060248201527f4f776e61626c653a2063616c6c6572206973206e6f7420746865206f776e65726044820152fd5b818110610cf2575050565b60008155600101610ce7565b6000198114610d0d5760010190565b634e487b7160e01b600052601160045260246000fd5b8051821015610d375760209160051b010190565b634e487b7160e01b600052603260045260246000fdfea2646970667358221220187c9693cc8bba1104e54abfa75f50abd0daf401f82c05a725d7118510ef923c64736f6c63430008140033",
  "linkReferences": {},
  "deployedLinkReferences": {}
}