{
  "_format": "hh-sol-artifact-1",
  "contractName": "HenNFT",
  "sourceName": "contracts/HenNFT.sol",
  "abi": [
    {
      "inputs": [],
      "stateMutability": "nonpayable",
      "type": "constructor"
    },
    {
      "anonymous": false,
      "inputs": [
        {
          "indexed": true,
          "internalType": "address",
          "name": "owner",
          "type": "address"
        },
        {
          "indexed": true,
          "internalType": "address",
          "name": "approved",
          "type": "address"
        },
        {
          "indexed": true,
          "internalType": "uint256",
          "name": "tokenId",
          "type": "uint256"
        }
      ],
      "name": "Approval",
      "type": "event"
    },
    {
      "anonymous": false,
      "inputs": [
        {
          "indexed": true,
          "internalType": "address",
          "name": "owner",
          "type": "address"
        },
        {
          "indexed": true,
          "internalType": "address",
          "name": "operator",
          "type": "address"
        },
        {
          "indexed": false,
          "internalType": "bool",
          "name": "approved",
          "type": "bool"
        }
      ],
      "name": "ApprovalForAll",
      "type": "event"
    },
    {
      "anonymous": false,
      "inputs": [
        {
          "indexed": false,
          "internalType": "uint256",
          "name": "_fromTokenId",
          "type": "uint256"
        },
        {
          "indexed": false,
          "internalType": "uint256",
          "name": "_toTokenId",
          "type": "uint256"
        }
      ],
      "name": "BatchMetadataUpdate",
      "type": "event"
    },
    {
      "anonymous": false,
      "inputs": [
        {
          "indexed": true,
          "internalType": "uint256",
          "name": "henId",
          "type": "uint256"
        },
        {
          "indexed": false,
          "internalType": "bool",
          "name": "won",
          "type": "bool"
        }
      ],
      "name": "BattleResult",
      "type": "event"
    },
    {
      "anonymous": false,
      "inputs": [
        {
          "indexed": true,
          "internalType": "uint256",
          "name": "tokenId",
          "type": "uint256"
        },
        {
          "indexed": true,
          "internalType": "address",
          "name": "seller",
          "type": "address"
        }
      ],
      "name": "HenDelisted",
      "type": "event"
    },
    {
      "anonymous": false,
      "inputs": [
        {
          "indexed": true,
          "internalType": "uint256",
          "name": "tokenId",
          "type": "uint256"
        },
        {
          "indexed": false,
          "internalType": "uint256",
          "name": "price",
          "type": "uint256"
        },
        {
          "indexed": true,
          "internalType": "address",
          "name": "seller",
          "type": "address"
        }
      ],
      "name": "HenListed",
      "type": "event"
    },
    {
      "anonymous": false,
      "inputs": [
        {
          "indexed": true,
          "internalType": "uint256",
          "name": "tokenId",
          "type": "uint256"
        },
        {
          "indexed": true,
          "internalType": "address",
          "name": "owner",
          "type": "address"
        },
        {
          "components": [
            {
              "internalType": "uint8",
              "name": "strength",
              "type": "uint8"
            },
            {
              "internalType": "uint8",
              "name": "speed",
              "type": "uint8"
            },
            {
              "internalType": "uint8",
              "name": "stamina",
              "type": "uint8"
            },
            {
              "internalType": "uint8",
              "name": "intelligence",
              "type": "uint8"
            },
            {
              "internalType": "uint8",
              "name": "luck",
              "type": "uint8"
            },
            {
              "internalType": "uint8",
              "name": "generation",
              "type": "uint8"
            },
            {
              "internalType": "uint48",
              "name": "birthTime",
              "type": "uint48"
            },
            {
              "internalType": "uint48",
              "name": "lastBreedTime",
              "type": "uint48"
            },
            {
              "internalType": "uint32",
              "name": "wins",
              "type": "uint32"
            },
            {
              "internalType": "uint32",
              "name": "losses",
              "type": "uint32"
            },
            {
              "internalType": "uint32",
              "name": "racesWon",
              "type": "uint32"
            },
            {
              "internalType": "uint32",
              "name": "xp",
              "type": "uint32"
            },
            {
              "internalType": "bool",
              "name": "isAlive",
              "type": "bool"
            },
            {
              "internalType": "uint8",
              "name": "trainingLevel",
              "type": "uint8"
            }
          ],
          "indexed": false,
          "internalType": "struct HenNFT.HenTraits",
          "name": "traits",
          "type": "tuple"
        }
      ],
      "name": "HenMinted",
      "type": "event"
    },
    {
      "anonymous": false,
      "inputs": [
        {
          "indexed": true,
          "internalType": "uint256",
          "name": "tokenId",
          "type": "uint256"
        },
        {
          "indexed": false,
          "internalType": "string",
          "name": "newName",
          "type": "string"
        }
      ],
      "name": "HenRenamed",
      "type": "event"
    },
    {
      "anonymous": false,
      "inputs": [
        {
          "indexed": true,
          "internalType": "uint256",
          "name": "tokenId",
          "type": "uint256"
        },
        {
          "indexed": true,
          "internalType": "address",
          "name": "from",
          "type": "address"
        },
        {
          "indexed": true,
          "internalType": "address",
          "name": "to",
          "type": "address"
        },
        {
          "indexed": false,
          "internalType": "uint256",
          "name": "price",
          "type": "uint256"
        }
      ],
      "name": "HenSold",
      "type": "event"
    },
    {
      "anonymous": false,
      "inputs": [
        {
          "indexed": true,
          "internalType": "uint256",
          "name": "tokenId",
          "type": "uint256"
        },
        {
          "indexed": false,
          "internalType": "uint8",
          "name": "trainingLevel",
          "type": "uint8"
        }
      ],
      "name": "HenTrained",
      "type": "event"
    },
    {
      "anonymous": false,
      "inputs": [
        {
          "indexed": false,
          "internalType": "uint256",
          "name": "_tokenId",
          "type": "uint256"
        }
      ],
      "name": "MetadataUpdate",
      "type": "event"
    },
    {
      "anonymous": false,
      "inputs": [
        {
          "indexed": true,
          "internalType": "address",
          "name": "previousOwner",
          "type": "address"
        },
        {
          "indexed": true,
          "internalType": "address",
          "name": "newOwner",
          "type": "address"
        }
      ],
      "name": "OwnershipTransferred",
      "type": "event"
    },
    {
      "anonymous": false,
      "inputs": [
        {
          "indexed": true,
          "internalType": "address",
          "name": "from",
          "type": "address"
        },
        {
          "indexed": true,
          "internalType": "address",
          "name": "to",
          "type": "address"
        },
        {
          "indexed": true,
          "internalType": "uint256",
          "name": "tokenId",
          "type": "uint256"
        }
      ],
      "name": "Transfer",
      "type": "event"
    },
    {
      "inputs": [],
      "name": "MARKETPLACE_FEE",
      "outputs": [
        {
          "internalType": "uint256",
          "name": "",
          "type": "uint256"
        }
      ],
      "stateMutability": "view",
      "type": "function"
    },
    {
      "inputs": [],
      "name": "MAX_SUPPLY",
      "outputs": [
        {
          "internalType": "uint256",
          "name": "",
          "type": "uint256"
        }
      ],
      "stateMutability": "view",
      "type": "function"
    },
    {
      "inputs": [],
      "name": "MAX_TRAINING_LEVEL",
      "outputs": [
        {
          "internalType": "uint256",
          "name": "",
          "type": "uint256"
        }
      ],
      "stateMutability": "view",
      "type": "function"
    },
    {
      "inputs": [],
      "name": "MINT_PRICE",
      "outputs": [
        {
          "internalType": "uint256",
          "name": "",
          "type": "uint256"
        }
      ],
      "stateMutability": "view",
      "type": "function"
    },
    {
      "inputs": [],
      "name": "RENAME_PRICE",
      "outputs": [
        {
          "internalType": "uint256",
          "name": "",
          "type": "uint256"
        }
      ],
      "stateMutability": "view",
      "type": "function"
    },
    {
      "inputs": [],
      "name": "TRAIN_PRICE",
      "outputs": [
        {
          "internalType": "uint256",
          "name": "",
          "type": "uint256"
        }
      ],
      "stateMutability": "view",
      "type": "function"
    },
    {
      "inputs": [],
      "name": "XP_PER_BATTLE",
      "outputs": [
        {
          "internalType": "uint256",
          "name": "",
          "type": "uint256"
        }
      ],
      "stateMutability": "view",
      "type": "function"
    },
    {
      "inputs": [],
      "name": "XP_PER_BATTLE_WIN",
      "outputs": [
        {
          "internalType": "uint256",
          "name": "",
          "type": "uint256"
        }
      ],
      "stateMutability": "view",
      "type": "function"
    },
    {
      "inputs": [],
      "name": "XP_PER_BREED",
      "outputs": [
        {
          "internalType": "uint256",
          "name": "",
          "type": "uint256"
        }
      ],
      "stateMutability": "view",
      "type": "function"
    },
    {
      "inputs": [],
      "name": "XP_PER_RACE",
      "outputs": [
        {
          "internalType": "uint256",
          "name": "",
          "type": "uint256"
        }
      ],
      "stateMutability": "view",
      "type": "function"
    },
    {
      "inputs": [],
      "name": "XP_PER_RACE_WIN",
      "outputs": [
        {
          "internalType": "uint256",
          "name": "",
          "type": "uint256"
        }
      ],
      "stateMutability": "view",
      "type": "function"
    },
    {
      "inputs": [
        {
          "internalType": "uint256",
          "name": "tokenId",
          "type": "uint256"
        },
        {
          "internalType": "uint256",
          "name": "xpAmount",
          "type": "uint256"
        }
      ],
      "name": "addXP",
      "outputs": [],
      "stateMutability": "nonpayable",
      "type": "function"
    },
    {
      "inputs": [
        {
          "internalType": "address",
          "name": "to",
          "type": "address"
        },
        {
          "internalType": "uint256",
          "name": "tokenId",
          "type": "uint256"
        }
      ],
      "name": "approve",
      "outputs": [],
      "stateMutability": "nonpayable",
      "type": "function"
    },
    {
      "inputs": [
        {
          "internalType": "address",
          "name": "owner",
          "type": "address"
        }
      ],
      "name": "balanceOf",
      "outputs": [
        {
          "internalType": "uint256",
          "name": "",
          "type": "uint256"
        }
      ],
      "stateMutability": "view",
      "type": "function"
    },
    {
      "inputs": [
        {
          "internalType": "uint256",
          "name": "quantity",
          "type": "uint256"
        }
      ],
      "name": "batchMintHens",
      "outputs": [
        {
          "internalType": "uint256[]",
          "name": "",
          "type": "uint256[]"
        }
      ],
      "stateMutability": "payable",
      "type": "function"
    },
    {
      "inputs": [],
      "name": "battleContract",
      "outputs": [
        {
          "internalType": "address",
          "name": "",
          "type": "address"
        }
      ],
      "stateMutability": "view",
      "type": "function"
    },
    {
      "inputs": [],
      "name": "breedingContract",
      "outputs": [
        {
          "internalType": "address",
          "name": "",
          "type": "address"
        }
      ],
      "stateMutability": "view",
      "type": "function"
    },
    {
      "inputs": [
        {
          "internalType": "uint256",
          "name": "tokenId",
          "type": "uint256"
        }
      ],
      "name": "buyHen",
      "outputs": [],
      "stateMutability": "payable",
      "type": "function"
    },
    {
      "inputs": [
        {
          "internalType": "uint256",
          "name": "tokenId",
          "type": "uint256"
        }
      ],
      "name": "delistHen",
      "outputs": [],
      "stateMutability": "nonpayable",
      "type": "function"
    },
    {
      "inputs": [
        {
          "internalType": "uint256",
          "name": "tokenId",
          "type": "uint256"
        }
      ],
      "name": "getApproved",
      "outputs": [
        {
          "internalType": "address",
          "name": "",
          "type": "address"
        }
      ],
      "stateMutability": "view",
      "type": "function"
    },
    {
      "inputs": [
        {
          "internalType": "uint256",
          "name": "tokenId",
          "type": "uint256"
        }
      ],
      "name": "getHenPower",
      "outputs": [
        {
          "internalType": "uint256",
          "name": "",
          "type": "uint256"
        }
      ],
      "stateMutability": "view",
      "type": "function"
    },
    {
      "inputs": [
        {
          "internalType": "uint256",
          "name": "tokenId",
          "type": "uint256"
        }
      ],
      "name": "getHenTraits",
      "outputs": [
        {
          "components": [
            {
              "internalType": "uint8",
              "name": "strength",
              "type": "uint8"
            },
            {
              "internalType": "uint8",
              "name": "speed",
              "type": "uint8"
            },
            {
              "internalType": "uint8",
              "name": "stamina",
              "type": "uint8"
            },
            {
              "internalType": "uint8",
              "name": "intelligence",
              "type": "uint8"
            },
            {
              "internalType": "uint8",
              "name": "luck",
              "type": "uint8"
            },
            {
              "internalType": "uint8",
              "name": "generation",
              "type": "uint8"
            },
            {
              "internalType": "uint48",
              "name": "birthTime",
              "type": "uint48"
            },
            {
              "internalType": "uint48",
              "name": "lastBreedTime",
              "type": "uint48"
            },
            {
              "internalType": "uint32",
              "name": "wins",
              "type": "uint32"
            },
            {
              "internalType": "uint32",
              "name": "losses",
              "type": "uint32"
            },
            {
              "internalType": "uint32",
              "name": "racesWon",
              "type": "uint32"
            },
            {
              "internalType": "uint32",
              "name": "xp",
              "type": "uint32"
            },
            {
              "internalType": "bool",
              "name": "isAlive",
              "type": "bool"
            },
            {
              "internalType": "uint8",
              "name": "trainingLevel",
              "type": "uint8"
            }
          ],
          "internalType": "struct HenNFT.HenTraits",
          "name": "",
          "type": "tuple"
        }
      ],
      "stateMutability": "view",
      "type": "function"
    },
    {
      "inputs": [
        {
          "internalType": "address",
          "name": "owner",
          "type": "address"
        }
      ],
      "name": "getHensByOwner",
      "outputs": [
        {
          "internalType": "uint256[]",
          "name": "",
          "type": "uint256[]"
        }
      ],
      "stateMutability": "view",
      "type": "function"
    },
    {
      "inputs": [
        {
          "internalType": "uint256",
          "name": "",
          "type": "uint256"
        }
      ],
      "name": "henNames",
      "outputs": [
        {
          "internalType": "string",
          "name": "",
          "type": "string"
        }
      ],
      "stateMutability": "view",
      "type": "function"
    },
    {
      "inputs": [
        {
          "internalType": "uint256",
          "name": "",
          "type": "uint256"
        }
      ],
      "name": "henTraits",
      "outputs": [
        {
          "internalType": "uint8",
          "name": "strength",
          "type": "uint8"
        },
        {
          "internalType": "uint8",
          "name": "speed",
          "type": "uint8"
        },
        {
          "internalType": "uint8",
          "name": "stamina",
          "type": "uint8"
        },
        {
          "internalType": "uint8",
          "name": "intelligence",
          "type": "uint8"
        },
        {
          "internalType": "uint8",
          "name": "luck",
          "type": "uint8"
        },
        {
          "internalType": "uint8",
          "name": "generation",
          "type": "uint8"
        },
        {
          "internalType": "uint48",
          "name": "birthTime",
          "type": "uint48"
        },
        {
          "internalType": "uint48",
          "name": "lastBreedTime",
          "type": "uint48"
        },
        {
          "internalType": "uint32",
          "name": "wins",
          "type": "uint32"
        },
        {
          "internalType": "uint32",
          "name": "losses",
          "type": "uint32"
        },
        {
          "internalType": "uint32",
          "name": "racesWon",
          "type": "uint32"
        },
        {
          "internalType": "uint32",
          "name": "xp",
          "type": "uint32"
        },
        {
          "internalType": "bool",
          "name": "isAlive",
          "type": "bool"
        },
        {
          "internalType": "uint8",
          "name": "trainingLevel",
          "type": "uint8"
        }
      ],
      "stateMutability": "view",
      "type": "function"
    },
    {
      "inputs": [
        {
          "internalType": "address",
          "name": "owner",
          "type": "address"
        },
        {
          "internalType": "address",
          "name": "operator",
          "type": "address"
        }
      ],
      "name": "isApprovedForAll",
      "outputs": [
        {
          "internalType": "bool",
          "name": "",
          "type": "bool"
        }
      ],
      "stateMutability": "view",
      "type": "function"
    },
    {
      "inputs": [
        {
          "internalType": "uint256",
          "name": "tokenId",
          "type": "uint256"
        },
        {
          "internalType": "uint256",
          "name": "price",
          "type": "uint256"
        }
      ],
      "name": "listHen",
      "outputs": [],
      "stateMutability": "nonpayable",
      "type": "function"
    },
    {
      "inputs": [
        {
          "internalType": "uint256",
          "name": "",
          "type": "uint256"
        }
      ],
      "name": "listings",
      "outputs": [
        {
          "internalType": "uint256",
          "name": "price",
          "type": "uint256"
        },
        {
          "internalType": "address",
          "name": "seller",
          "type": "address"
        },
        {
          "internalType": "bool",
          "name": "isActive",
          "type": "bool"
        }
      ],
      "stateMutability": "view",
      "type": "function"
    },
    {
      "inputs": [],
      "name": "mintHen",
      "outputs": [
        {
          "internalType": "uint256",
          "name": "",
          "type": "uint256"
        }
      ],
      "stateMutability": "payable",
      "type": "function"
    },
    {
      "inputs": [
        {
          "internalType": "address",
          "name": "to",
          "type": "address"
        },
        {
          "internalType": "uint8",
          "name": "strength",
          "type": "uint8"
        },
        {
          "internalType": "uint8",
          "name": "speed",
          "type": "uint8"
        },
        {
          "internalType": "uint8",
          "name": "stamina",
          "type": "uint8"
        },
        {
          "internalType": "uint8",
          "name": "intelligence",
          "type": "uint8"
        },
        {
          "internalType": "uint8",
          "name": "luck",
          "type": "uint8"
        },
        {
          "internalType": "uint8",
          "name": "generation",
          "type": "uint8"
        }
      ],
      "name": "mintOffspring",
      "outputs": [
        {
          "internalType": "uint256",
          "name": "",
          "type": "uint256"
        }
      ],
      "stateMutability": "nonpayable",
      "type": "function"
    },
    {
      "inputs": [],
      "name": "name",
      "outputs": [
        {
          "internalType": "string",
          "name": "",
          "type": "string"
        }
      ],
      "stateMutability": "view",
      "type": "function"
    },
    {
      "inputs": [],
      "name": "owner",
      "outputs": [
        {
          "internalType": "address",
          "name": "",
          "type": "address"
        }
      ],
      "stateMutability": "view",
      "type": "function"
    },
    {
      "inputs": [
        {
          "internalType": "uint256",
          "name": "tokenId",
          "type": "uint256"
        }
      ],
      "name": "ownerOf",
      "outputs": [
        {
          "internalType": "address",
          "name": "",
          "type": "address"
        }
      ],
      "stateMutability": "view",
      "type": "function"
    },
    {
      "inputs": [],
      "name": "racingContract",
      "outputs": [
        {
          "internalType": "address",
          "name": "",
          "type": "address"
        }
      ],
      "stateMutability": "view",
      "type": "function"
    },
    {
      "inputs": [
        {
          "internalType": "uint256",
          "name": "tokenId",
          "type": "uint256"
        },
        {
          "internalType": "string",
          "name": "newName",
          "type": "string"
        }
      ],
      "name": "renameHen",
      "outputs": [],
      "stateMutability": "payable",
      "type": "function"
    },
    {
      "inputs": [],
      "name": "renounceOwnership",
      "outputs": [],
      "stateMutability": "nonpayable",
      "type": "function"
    },
    {
      "inputs": [
        {
          "internalType": "address",
          "name": "from",
          "type": "address"
        },
        {
          "internalType": "address",
          "name": "to",
          "type": "address"
        },
        {
          "internalType": "uint256",
          "name": "tokenId",
          "type": "uint256"
        }
      ],
      "name": "safeTransferFrom",
      "outputs": [],
      "stateMutability": "nonpayable",
      "type": "function"
    },
    {
      "inputs": [
        {
          "internalType": "address",
          "name": "from",
          "type": "address"
        },
        {
          "internalType": "address",
          "name": "to",
          "type": "address"
        },
        {
          "internalType": "uint256",
          "name": "tokenId",
          "type": "uint256"
        },
        {
          "internalType": "bytes",
          "name": "data",
          "type": "bytes"
        }
      ],
      "name": "safeTransferFrom",
      "outputs": [],
      "stateMutability": "nonpayable",
      "type": "function"
    },
    {
      "inputs": [
        {
          "internalType": "address",
          "name": "operator",
          "type": "address"
        },
        {
          "internalType": "bool",
          "name": "approved",
          "type": "bool"
        }
      ],
      "name": "setApprovalForAll",
      "outputs": [],
      "stateMutability": "nonpayable",
      "type": "function"
    },
    {
      "inputs": [
        {
          "internalType": "address",
          "name": "_addr",
          "type": "address"
        }
      ],
      "name": "setBattleContract",
      "outputs": [],
      "stateMutability": "nonpayable",
      "type": "function"
    },
    {
      "inputs": [
        {
          "internalType": "address",
          "name": "_addr",
          "type": "address"
        }
      ],
      "name": "setBreedingContract",
      "outputs": [],
      "stateMutability": "nonpayable",
      "type": "function"
    },
    {
      "inputs": [
        {
          "internalType": "address",
          "name": "_addr",
          "type": "address"
        }
      ],
      "name": "setRacingContract",
      "outputs": [],
      "stateMutability": "nonpayable",
      "type": "function"
    },
    {
      "inputs": [
        {
          "internalType": "bytes4",
          "name": "interfaceId",
          "type": "bytes4"
        }
      ],
      "name": "supportsInterface",
      "outputs": [
        {
          "internalType": "bool",
          "name": "",
          "type": "bool"
        }
      ],
      "stateMutability": "view",
      "type": "function"
    },
    {
      "inputs": [],
      "name": "symbol",
      "outputs": [
        {
          "internalType": "string",
          "name": "",
          "type": "string"
        }
      ],
      "stateMutability": "view",
      "type": "function"
    },
    {
      "inputs": [
        {
          "internalType": "uint256",
          "name": "tokenId",
          "type": "uint256"
        }
      ],
      "name": "tokenURI",
      "outputs": [
        {
          "internalType": "string",
          "name": "",
          "type": "string"
        }
      ],
      "stateMutability": "view",
      "type": "function"
    },
    {
      "inputs": [
        {
          "internalType": "uint256",
          "name": "tokenId",
          "type": "uint256"
        }
      ],
      "name": "trainHen",
      "outputs": [],
      "stateMutability": "payable",
      "type": "function"
    },
    {
      "inputs": [
        {
          "internalType": "address",
          "name": "from",
          "type": "address"
        },
        {
          "internalType": "address",
          "name": "to",
          "type": "address"
        },
        {
          "internalType": "uint256",
          "name": "tokenId",
          "type": "uint256"
        }
      ],
      "name": "transferFrom",
      "outputs": [],
      "stateMutability": "nonpayable",
      "type": "function"
    },
    {
      "inputs": [
        {
          "internalType": "address",
          "name": "newOwner",
          "type": "address"
        }
      ],
      "name": "transferOwnership",
      "outputs": [],
      "stateMutability": "nonpayable",
      "type": "function"
    },
    {
      "inputs": [
        {
          "internalType": "uint256",
          "name": "tokenId",
          "type": "uint256"
        },
        {
          "internalType": "bool",
          "name": "won",
          "type": "bool"
        }
      ],
      "name": "updateBattleStats",
      "outputs": [],
      "stateMutability": "nonpayable",
      "type": "function"
    },
    {
      "inputs": [
        {
          "internalType": "uint256",
          "name": "tokenId",
          "type": "uint256"
        }
      ],
      "name": "updateRaceStats",
      "outputs": [],
      "stateMutability": "nonpayable",
      "type": "function"
    },
    {
      "inputs": [],
      "name": "withdraw",
      "outputs": [],
      "stateMutability": "nonpayable",
      "type": "function"
    }
  ],
  "bytecode": "0x6080346200035d576001600160401b03906040908082018381118282101762000347578252600a81526020916943727970746f48656e7360b01b83830152805193818501858110828211176200034757825260038552622422a760e91b84860152825181811162000347576000948554916001958684811c941680156200033c575b8385101462000328578190601f94858111620002d5575b5083908583116001146200027157899262000265575b5050600019600383901b1c191690861b1786555b8651928311620002515784548581811c9116801562000246575b828210146200023257828111620001ea575b50809183116001146200018157508495829394959262000175575b5050600019600383901b1c191690831b1782555b60078054336001600160a01b03198216811790925591519390916001600160a01b0316907f8be0079c531659141344cd1fd0a4f28419497f9722a3daafe3b4186f6b6457e09080a3600855613cf29081620003638239f35b01519050388062000109565b90601f198316968587528287209287905b898210620001d25750508386979896959610620001b8575b505050811b0182556200011d565b015160001960f88460031b161c19169055388080620001aa565b80888596829496860151815501950193019062000192565b8587528187208380860160051c82019284871062000228575b0160051c019086905b8281106200021c575050620000ee565b8881550186906200020c565b9250819262000203565b634e487b7160e01b87526022600452602487fd5b90607f1690620000dc565b634e487b7160e01b86526041600452602486fd5b015190503880620000ae565b898052848a208994509190601f1984168b5b87828210620002be5750508411620002a4575b505050811b018655620000c2565b015160001960f88460031b161c1916905538808062000296565b8385015186558c9790950194938401930162000283565b9091508880528389208580850160051c8201928686106200031e575b918a91869594930160051c01915b8281106200030f57505062000098565b8b81558594508a9101620002ff565b92508192620002f1565b634e487b7160e01b88526022600452602488fd5b93607f169362000081565b634e487b7160e01b600052604160045260246000fd5b600080fdfe6080806040526004908136101561001557600080fd5b60003560e01c9081630139c41414612dc15750806301ffc9a714612d3a57806306fdde0314612c97578063081812fc14612c79578063095ea7b314612aff5780630db6dff714612abc57806311712cc3146128395780631733cdc81461276457806319dd0cd81461231c57806320960c46146122a557806323b872dd1461228157806332cb6b0c146122645780633ccfd60b146121ef578063423b1ca3146121c657806342842e0e146121935780634ac18640146121685780634b9785051461212557806350c7d5a0146120305780635146ea0e14611bd75780635948e5e41461172c5780636352211e146116fc5780636a6ef765146116e057806370a08231146116bd57806370e6e99a14611601578063715018a6146115a45780637bba64af146113cf5780637deb0bf1146110a7578063836e33751461107e57806385d4d8821461106257806389d796e4146110395780638c5527cf14610ff65780638c5abc2414610fda5780638da5cb5b14610fb157806395d89b4114610ed25780639c103c6114610eb65780639c903ff014610b23578063a22cb46514610a50578063a2e9603514610a34578063a6345141146108b0578063afa2cf0314610796578063b795945b1461077a578063b88d4fde146106f2578063bcaf673f1461059c578063c002d23d1461057a578063c62e043514610470578063c87b56dd146103fb578063ce1b98c8146103df578063d773154f146103bd578063de74e57b14610371578063e985e9c51461031b5763f2fde38b1461025257600080fd5b346103165760203660031901126103165761026b612e29565b610273613184565b6001600160a01b039081169182156102c35750600754826001600160601b0360a01b821617600755167f8be0079c531659141344cd1fd0a4f28419497f9722a3daafe3b4186f6b6457e0600080a3005b60849060206040519162461bcd60e51b8352820152602660248201527f4f776e61626c653a206e6577206f776e657220697320746865207a65726f206160448201526564647265737360d01b6064820152fd5b600080fd5b3461031657604036600319011261031657610334612e29565b61033c612e3f565b9060018060a01b03809116600052600560205260406000209116600052602052602060ff604060002054166040519015158152f35b50346103165760203660031901126103165735600052600f6020526060604060002060ff6001825492015460405192835260018060a01b038116602084015260a01c1615156040820152f35b3461031657600036600319011261031657602060405166038d7ea4c680008152f35b3461031657600036600319011261031657602060405160328152f35b50346103165760203660031901126103165735600081815260026020526040902054610431906001600160a01b03161515613253565b600052600660205261046c6104496040600020612fc0565b600060405161045781612ec0565b52604051918291602083526020830190612e04565b0390f35b503461031657604036600319011261031657357f19d86b8edfcd6cf16daaf1ee062fa483161495cf6ad50132e27637b7ed38fb8860206104ae6130b7565b600d546104d090336001600160a01b039182161490811561056c575b50613b46565b80156105245783600052600b825261051960406000206104f963ffffffff825460901c16613b83565b815463ffffffff60901b191660909190911b63ffffffff60901b16179055565b6040519015158152a2005b83600052600b8252610567604060002061054763ffffffff825460b01c16613b83565b815463ffffffff60b01b191660b09190911b63ffffffff60b01b16179055565b610519565b9050600754163314386104ca565b34610316576000366003190112610316576020604051662386f26fc100008152f35b5034610316576105ab36613066565b916105b58261329f565b6001600160a01b0391906105cc9083163314613aec565b83156106ae5782600052600f60205260ff60016040600020015460a01c1661067957506040516105fb81612e88565b83815260208101913383526001604083019281845285600052600f6020526040600020905181550192511682549160ff60a01b9051151560a01b16916affffffffffffffffffffff60a81b16171790556040519182527fb401eb59e096f41c707abda600e71ddb0066743a000c511ccfd6b58ce62141e560203393a3005b60649060206040519162461bcd60e51b8352820152600e60248201526d105b1c9958591e481b1a5cdd195960921b6044820152fd5b60649060206040519162461bcd60e51b8352820152601c60248201527f5072696365206d7573742062652067726561746572207468616e2030000000006044820152fd5b50346103165760803660031901126103165761070c612e29565b90610715612e3f565b916044356064359367ffffffffffffffff85116103165736602386011215610316576107506107739486602461077898369301359101612f1a565b9261076361075e84336133dc565b613303565b61076e8383836134a4565b6136dd565b6133b8565b005b34610316576000366003190112610316576020604051600a8152f35b503461031657602090816003193601126103165735600052600b8152806040600020604051906107c582612e55565b80549160ff9283809281831690818152828460081c16908189820152836040820195818160101c1687526060830198828260181c168a528282608086019d1c168c52828260281c1660a085015265ffffffffffff808360301c1660c08601528260601c1660e085015263ffffffff8281809460901c16610100870152818160b01c1661012087015260d01c166101408501526001015490811661016084015281818d1c16151561018084015260281c16906101a0015261088491613803565b91511661089091613803565b91511661089c91613803565b9151166108a891613803565b604051908152f35b5034610316576020806003193601126103165760405161046c92356108d482612e55565b60008252600083830152600060408301526000606083015260006080830152600060a0830152600060c0830152600060e08301526101009060008284015261012090600082850152610140600081860152610160926000848701526101809260008488015260006101a08098015261096961096482600052600260205260018060a01b0360406000205416151590565b613b98565b600052600b87526040600020966001604051986109858a612e55565b80549460ff98868a8098168d528c86898360081c169101528c6040898360101c169101528c6060898360181c169101528c60808983891c169101528c60a0898360281c169101528c60e065ffffffffffff808460301c1660c08401528360601c169101528c63ffffffff978893848460901c1690830152838360b01c1691015260d01c16908b015201549485928316908901521c1615159085015260281c1690820152604051918291826130c6565b3461031657600036600319011261031657602060405160198152f35b503461031657604036600319011261031657610a6a612e29565b610a726130b7565b6001600160a01b0390911691338314610adf575033600052600560205260406000208260005260205260406000209015159060ff1981541660ff83161790556040519081527f17307eab39ab6107e8899845ad3d59bd9653f200f220920489ca2b5937696c3160203392a3005b60649060206040519162461bcd60e51b8352820152601960248201527f4552433732313a20617070726f766520746f2063616c6c6572000000000000006044820152fd5b50600036600319011261031657610b386138b2565b610b4b662386f26fc1000034101561375b565b600954610b5b612710821061379e565b60018101600955610b6f6001820133613908565b6051610b85610b7c6137df565b60018401613c6b565b0660148101809111610ea1576051610ba7610b9e613826565b60018501613c6b565b0660148101809111610e8c576051610bc9610bc0613847565b60018601613c6b565b0660148101809111610e77576051610beb610be261386a565b60018701613c6b565b069160148301809311610e62576051610c0e610c05613892565b60018801613c6b565b069560148701809711610e4d575060ff9283602097938180948160405199610c358b612e55565b1689521689880152166040860152166060840152166080820152600060a082015265ffffffffffff421660c0820152600060e08201526000610100820152600061012082015260006101408201526000610160820152600161018082015260006101a082015260018201600052600b8352610e04604060002060ff83511660ff19825416178155610cdd60ff8685015116829061ff0082549160081b169061ff001916179055565b60408301518154606080860151608087015160a088015160c089015160e08a01516101008b01516101208c01516101408d015160b09190911b63ffffffff60b01b1660909290921b63ffffffff60901b169290971b65ffffffffffff60601b1660309390931b65ffffffffffff60301b16602894851b60ff60281b90811660209790971b60ff60201b90811660189990991b63ff0000001660109c909c1b62ff00001662010000600160f01b0319909b169a909a179a909a1796909617949094179490941717929092171760d09290921b63ffffffff60d01b16919091178455610160860151600190940180546101808801516101a089015190931b909416911515891b90921663ffffffff90941665ffffffffffff199093169290921792909217179055565b604051907f06c776597a9374e4555dfa6f5d16120e7814f9b53f68b69e6f3ea53103579c9b339280610e3a6001870194826130c6565b0390a36001600855600160405191018152f35b601190634e487b7160e01b6000525260246000fd5b601186634e487b7160e01b6000525260246000fd5b601185634e487b7160e01b6000525260246000fd5b601184634e487b7160e01b6000525260246000fd5b601183634e487b7160e01b6000525260246000fd5b3461031657600036600319011261031657602060405160fa8152f35b346103165760003660031901126103165760405160006001805490610ef682612f86565b80855291818116908115610f8a5750600114610f31575b61046c84610f1d81860382612edc565b604051918291602083526020830190612e04565b600081815292507fb10e2d527612073b26eecdfd717e6a320cf44b4afac2b0732d9fcbe2b7fa0cf65b828410610f72575050508101602001610f1d82610f0d565b80546020858701810191909152909301928101610f5a565b60ff191660208087019190915292151560051b85019092019250610f1d9150839050610f0d565b34610316576000366003190112610316576007546040516001600160a01b039091168152602090f35b34610316576000366003190112610316576020604051601e8152f35b346103165760203660031901126103165761100f612e29565b611017613184565b600c80546001600160a01b0319166001600160a01b0392909216919091179055005b3461031657600036600319011261031657600e546040516001600160a01b039091168152602090f35b3461031657600036600319011261031657602060405160648152f35b3461031657600036600319011261031657600c546040516001600160a01b039091168152602090f35b50346103165760e0366003190112610316576110c1612e29565b906024359060ff821682036103165760443560ff811681036103165760643560ff81168103610316576084359060ff821682036103165760a4359260ff841684036103165760c4359460ff861686036103165761111c6138b2565b600c546001600160a01b031633036113795760206001898960ff8a818b818c818d818e6111606009549d8e611154612710821061379e565b0160098190558d613908565b816040519b61116e8d612e55565b168b52168c8a01521660408801521660608601521660808401521660a082015265ffffffffffff421660c0820152600060e08201526000610100820152600061012082015260006101408201526000610160820152600161018082015260006101a082015260018301600052600b845261133c604060002060ff83511660ff1982541617815561121560ff8785015116829061ff0082549160081b169061ff001916179055565b60408301518154606080860151608087015160a088015160c089015160e08a01516101008b01516101208c01516101408d015160b09190911b63ffffffff60b01b1660909290921b63ffffffff60901b169290971b65ffffffffffff60601b1660309390931b65ffffffffffff60301b16602894851b60ff60281b90811660209790971b60ff60201b90811660189990991b63ff0000001660109c909c1b62ff00001662010000600160f01b0319909b169a909a179a909a1796909617949094179490941717929092171760d09290921b63ffffffff60d01b16919091178455610160860151600190940180546101808801516101a089015190931b9094169115158a1b90921663ffffffff90941665ffffffffffff199093169290921792909217179055565b7f06c776597a9374e4555dfa6f5d16120e7814f9b53f68b69e6f3ea53103579c9b6040519260018060a01b03169280610e3a6001870194826130c6565b60849060206040519162461bcd60e51b8352820152602960248201527f4f6e6c79206272656564696e6720636f6e74726163742063616e206d696e74206044820152686f6666737072696e6760b81b6064820152fd5b50602090816003193601126103165780356113e86138b2565b80600052600f835260406000209060016040519261140584612e88565b80548452015484830160ff60018060a01b0392838116835260a01c16158015604086015261156a5761143a845134101561375b565b511691519160fa830283810460fa1484151715610e77576000808061146461271082950488613b28565b868252600f8a528160016040822082815501556114828733886134a4565b855af161148d6135b5565b501561152657604051918383527f23e7a5edd4c10cc4bf363be5ea945e863eb800cfb257a5d6b33b76b3a922ca5d863394a48034116114ce575b6001600855005b600080806114dd819434613b28565b335af16114e86135b5565b50156114f457806114c7565b6064916040519162461bcd60e51b8352820152600d60248201526c1499599d5b990819985a5b1959609a1b6044820152fd5b60405162461bcd60e51b8152808501869052601960248201527f5472616e7366657220746f2073656c6c6572206661696c6564000000000000006044820152606490fd5b60405162461bcd60e51b815280860187905260136024820152724e6f74206c697374656420666f722073616c6560681b6044820152606490fd5b34610316576000366003190112610316576115bd613184565b600780546001600160a01b031981169091556000906001600160a01b03167f8be0079c531659141344cd1fd0a4f28419497f9722a3daafe3b4186f6b6457e08280a3005b346103165760203660031901126103165761161a612e29565b61162b611626826131dc565b613a81565b906000600191600954925b8381111561164c576040518061046c878261307c565b6000818152600260205260409020546001600160a01b03161515806116a0575b61167f575b61167a90613ab3565b611636565b91611698818461169261167a9489613ac2565b52613ab3565b929050611671565b506116aa8161329f565b6001600160a01b0383811691161461166c565b346103165760203660031901126103165760206108a86116db612e29565b6131dc565b34610316576000366003190112610316576020604051604b8152f35b50346103165760203660031901126103165761171a6020913561329f565b6040516001600160a01b039091168152f35b5060203660031901126103165780356117436138b2565b80151580611bcc575b15611b8857662386f26fc100008181029081048203610ea1576117719034101561375b565b600991612710611782838554613803565b11611b445761179082613a81565b9260005b8381106117ae5760016008556040518061046c878261307c565b60018254018083556117c08133613908565b605190816117d56117cf6137df565b83613c6b565b06916014908184018411611b2f57806117f56117ef613826565b85613c6b565b06908282018211611b1a578061181261180c613847565b86613c6b565b068381018111611b05578161182e61182861386a565b87613c6b565b06918483018311611af057611844611828613892565b06928484018411611af057849291838092816040519a6118638c612e55565b0160ff168a520160ff1660208901520160ff1660408701520160ff1660608501520160ff16608083015260a08201600090524265ffffffffffff1660c083015260e08201600090526101008201600090526101208201600090526101408201600090526101608201600090526101808201600190526101a082016000905280600052600b6020526040600020825160ff1660ff19825416178155602083015160ff1661192090829061ff0082549160081b169061ff001916179055565b6040830151815462ff0000191660109190911b62ff0000161781556060830151815463ff000000191660189190911b63ff000000161781556080830151815464ff00000000191660209190911b60ff60201b1617815560a0830151815465ff0000000000191660289190911b60ff60281b1617815560c0830151815460e085015161010086015175ffffffffffffffffffffffffffffffff0000000000001990921665ffffffffffff60301b60309490941b939093169290921760609290921b65ffffffffffff60601b169190911760909190911b63ffffffff60901b1617815563ffffffff90610120840151815463ffffffff60b01b191690831660b01b63ffffffff60b01b16178155610140840151815463ffffffff60d01b191690831660d01b63ffffffff60d01b161781556001019061016084015116815490610180850151151560201b60ff60201b169164ffffffffff1916171781556101a083015160ff16611aa2919060ff60281b82549160281b169060ff60281b1916179055565b80611aad8489613ac2565b52604051803393611abe90826130c6565b037f06c776597a9374e4555dfa6f5d16120e7814f9b53f68b69e6f3ea53103579c9b91a3611aeb90613ab3565b611794565b60118a634e487b7160e01b6000525260246000fd5b601189634e487b7160e01b6000525260246000fd5b601188634e487b7160e01b6000525260246000fd5b601187634e487b7160e01b6000525260246000fd5b60649060206040519162461bcd60e51b8352820152601760248201527f576f756c6420657863656564206d617820737570706c790000000000000000006044820152fd5b60405162461bcd60e51b8152602081840152601a60248201527f43616e206d696e7420312d31302068656e73206174206f6e63650000000000006044820152606490fd5b50600a81111561174c565b503461031657611c90611be936613066565b9092611c1760018060a01b0380600d54163314908115612021575b8115612012575b811561056c5750613b46565b600084815260026020526040902054611c3a906001600160a01b03161515613b98565b836000526020600b815260406000209160019384840190815463ffffffff80988282611c738180961696611c6d88613bdb565b97613803565b8181111561200b5750805b16809163ffffffff1916178655613bdb565b92169116818111611c9d57005b0395808711610ea15795861660005b8188821610611cb757005b8254604051868101914283528b604083015263ffffffff60e01b9060e01b166060820152604481526080810181811067ffffffffffffffff821117611ff657604052519020611d48919060ff9086906005808204819006841691068316801580611fe9575b15611ec1578a5484611d2f818316613b35565b169060ff1916178b555b8103611d4d575b505050613b83565b611cac565b801580611eb4575b15611d7c575050875490611d6a818316613b35565b169060ff19161787555b388581611d40565b8a811480611ea4575b15611db9575050611d9e611db491895460081c16613b35565b885461ff00191660089190911b61ff0016178855565b611d74565b6002811480611e94575b15611df4575050611ddc611db491895460101c16613b35565b885462ff0000191660109190911b62ff000016178855565b6003811480611e84575b15611e31575050611e17611db491895460181c16613b35565b885463ff000000191660189190911b63ff00000016178855565b1480611e75575b611e43575b50611d74565b611e54611e6f918954891c16613b35565b885464ff00000000191660209190911b60ff60201b16178855565b38611e3d565b506064818954891c1610611e38565b506064838b5460181c1610611dfe565b506064838b5460101c1610611dc3565b506064838b5460081c1610611d85565b506064838b541610611d55565b8b811480611fd9575b15611efc57611ef7611ee1858d5460081c16613b35565b8c5461ff00191660089190911b61ff0016178c55565b611d39565b6002811480611fc9575b15611f3557611ef7611f1d858d5460101c16613b35565b8c5462ff0000191660109190911b62ff000016178c55565b6003811480611fb9575b15611f7057611ef7611f56858d5460181c16613b35565b8c5463ff000000191660189190911b63ff00000016178c55565b82811480611faa575b15611ef757611ef7611f8f858d548d1c16613b35565b8c5464ff00000000191660209190911b60ff60201b16178c55565b506064848c548c1c1610611f79565b506064848c5460181c1610611f3f565b506064848c5460101c1610611f06565b506064848c5460081c1610611eca565b506064848c541610611d1c565b604187634e487b7160e01b6000525260246000fd5b8116611c7e565b809150600c5416331490611c0b565b809150600e5416331490611c04565b5034610316576020806003193601126103165781356000818152600f835260409020600101549092906001600160a01b031633036120f25782600052600f825260ff60016040600020015460a01c16156120c35750600f9082600052526000600160408220828155015533907f08202ab9068fa5e6ea16e04517a8c260f8b0d6714d979788967e4bfb1faca28d600080a3005b6064916040519162461bcd60e51b8352820152600a602482015269139bdd081b1a5cdd195960b21b6044820152fd5b6064916040519162461bcd60e51b8352820152600e60248201526d2737ba103a34329039b2b63632b960911b6044820152fd5b346103165760203660031901126103165761213e612e29565b612146613184565b600e80546001600160a01b0319166001600160a01b0392909216919091179055005b50346103165760203660031901126103165735600052600a60205261046c610f1d6040600020612fc0565b34610316576107786107736121a736612f51565b90604051926121b584612ec0565b6000845261076361075e84336133dc565b3461031657600036600319011261031657600d546040516001600160a01b039091168152602090f35b503461031657600036600319011261031657612209613184565b60008080804760018060a01b03600754165af16122246135b5565b501561222c57005b60649060206040519162461bcd60e51b8352820152601160248201527015da5d1a191c985dd85b0819985a5b1959607a1b6044820152fd5b346103165760003660031901126103165760206040516127108152f35b346103165761077861229236612f51565b916122a061075e84336133dc565b6134a4565b503461031657602036600319011261031657600e546122d890336001600160a01b039182161490811561056c5750613b46565b35600052600b60205261077860406000206122fc63ffffffff825460d01c16613b83565b815463ffffffff60d01b191660d09190911b63ffffffff60d01b16179055565b506020806003193601126103165781356123346138b2565b6123506123408261329f565b6001600160a01b03163314613aec565b6611c37937e0800034106127165780600052600b9182815260ff600193600a82866040600020015460281c1610156126d257836000528083526123bb856040600020016123a284825460281c16613b35565b60ff60281b82549160281b169060ff60281b1916179055565b6123e16040516123ca81612ea4565b60058152643a3930b4b760d91b8582015285613c6b565b600360058206910690868201809211611b1a5796877f7baa804ecf3f4c341af2368b8f1ddd8adee82f9fa5de6f7dfbf99936c2c2235a96979815806126ba575b1561248b57505061244090866000528285528360406000205416613803565b80606410600014612486575060645b85600052818452826040600020911660ff198254161790555b846000528252846040600020015460281c16604051908152a2600855005b61244f565b8881148061269f575b156124fb5750506124b690866000528285528360406000205460081c16613803565b82816064106000146124f2576124ed915060645b876000528386521660406000209061ff0082549160081b169061ff001916179055565b612468565b6124ed916124ca565b6002811480612684575b1561256957505061252790866000528285528360406000205460101c16613803565b8281606410600014612560576124ed915060645b876000528386521660406000209062ff000082549160101b169062ff00001916179055565b6124ed9161253b565b6003811480612669575b156125d957505061259590866000528285528360406000205460181c16613803565b82816064106000146125d0576124ed915060645b876000528386521660406000209063ff00000082549160181b169063ff0000001916179055565b6124ed916125a9565b148061264f575b6125eb575b50612468565b612605908660005282855283604060002054861c16613803565b828160641060001461264657612640915060645b876000528386521660406000209060ff60201b82549160201b169060ff60201b1916179055565b386125e5565b61264091612619565b5085600052818452606483604060002054861c16106125e0565b508760005283865260648560406000205460181c1610612573565b508760005283865260648560406000205460101c1610612505565b508760005283865260648560406000205460081c1610612494565b50876000528386526064856040600020541610612421565b60405162461bcd60e51b8152808701849052601a60248201527f4d617820747261696e696e67206c6576656c20726561636865640000000000006044820152606490fd5b60405162461bcd60e51b8152808401839052602160248201527f496e73756666696369656e74207061796d656e7420666f7220747261696e696e6044820152606760f81b6064820152608490fd5b50346103165760203660031901126103165735600052600b6020526101c0604060002060018154910154906040519160ff918281168452828160081c166020850152828160101c166040850152828160181c166060850152828160201c166080850152828160281c1660a085015265ffffffffffff808260301c1660c08601528160601c1660e085015263ffffffff8181809360901c16610100870152818160b01c1661012087015260d01c166101408501528116610160840152818160201c16151561018084015260281c166101a0820152f35b5060403660031901126103165780356024359167ffffffffffffffff9283811161031657366023820112156103165761287b9036906024818501359101612f1a565b906128886123408461329f565b66038d7ea4c680003410612a6e5781518015159081612a62575b5015612a285782600052602090600a82526040600020908351958611612a1357506128cd8154612f86565b601f81116129cd575b5081601f86116001146129485794807f93ba1fd5253bda82916758e6b2a5d92a597015cb1924170d2c0191be6392de22959660009161293d575b508160011b916000199060031b1c19161790555b612938604051928284938452830190612e04565b0390a2005b905084015138612910565b601f1986169082600052836000209160005b8181106129b657509187917f93ba1fd5253bda82916758e6b2a5d92a597015cb1924170d2c0191be6392de2297986001941061299d575b5050811b019055612924565b86015160001960f88460031b161c191690553880612991565b91928560018192868a01518155019401920161295a565b8160005282600020601f870160051c810191848810612a09575b601f0160051c01905b8181106129fd57506128d6565b600081556001016129f0565b90915081906129e7565b604190634e487b7160e01b6000525260246000fd5b60649060206040519162461bcd60e51b83528201526013602482015272092dcecc2d8d2c840dcc2daca40d8cadccee8d606b1b6044820152fd5b602091501115386128a2565b60849060206040519162461bcd60e51b8352820152602160248201527f496e73756666696369656e74207061796d656e7420666f722072656e616d696e6044820152606760f81b6064820152fd5b3461031657602036600319011261031657612ad5612e29565b612add613184565b600d80546001600160a01b0319166001600160a01b0392909216919091179055005b503461031657604036600319011261031657612b19612e29565b602435916001600160a01b03908180612b318661329f565b16931692808414612c2b57803314908115612c06575b5015612b9c57836000526020526040600020826001600160601b0360a01b825416179055612b748361329f565b167f8c5be1e5ebec7d5bd14f71427d1e84f3dd0314c0f7b2291e5b200ac8c7c3b925600080a4005b60849060206040519162461bcd60e51b8352820152603d60248201527f4552433732313a20617070726f76652063616c6c6572206973206e6f7420746f60448201527f6b656e206f776e6572206f7220617070726f76656420666f7220616c6c0000006064820152fd5b9050600052600560205260406000203360005260205260ff6040600020541638612b47565b60405162461bcd60e51b8152602081840152602160248201527f4552433732313a20617070726f76616c20746f2063757272656e74206f776e656044820152603960f91b6064820152608490fd5b50346103165760203660031901126103165761171a602091356132c5565b346103165760003660031901126103165760405160008054612cb881612f86565b80845290600190818116908115610f8a5750600114612ce15761046c84610f1d81860382612edc565b600080805292507f290decd9548b62a8d60345a988386fc84ba6bc95484008f6362f93160ef3e5635b828410612d22575050508101602001610f1d82610f0d565b80546020858701810191909152909301928101612d0a565b5034610316576020366003190112610316573563ffffffff60e01b811680910361031657602090632483248360e11b8114908115612d7e575b506040519015158152f35b6380ac58cd60e01b811491508115612db0575b8115612d9f575b5038612d73565b6301ffc9a760e01b14905038612d98565b635b5e139f60e01b81149150612d91565b3461031657600036600319011261031657806611c37937e0800060209252f35b60005b838110612df45750506000910152565b8181015183820152602001612de4565b90602091612e1d81518092818552858086019101612de1565b601f01601f1916010190565b600435906001600160a01b038216820361031657565b602435906001600160a01b038216820361031657565b6101c0810190811067ffffffffffffffff821117612e7257604052565b634e487b7160e01b600052604160045260246000fd5b6060810190811067ffffffffffffffff821117612e7257604052565b6040810190811067ffffffffffffffff821117612e7257604052565b6020810190811067ffffffffffffffff821117612e7257604052565b90601f8019910116810190811067ffffffffffffffff821117612e7257604052565b67ffffffffffffffff8111612e7257601f01601f191660200190565b929192612f2682612efe565b91612f346040519384612edc565b829481845281830111610316578281602093846000960137010152565b6060906003190112610316576001600160a01b0390600435828116810361031657916024359081168103610316579060443590565b90600182811c92168015612fb6575b6020831014612fa057565b634e487b7160e01b600052602260045260246000fd5b91607f1691612f95565b9060405191826000825492612fd484612f86565b9081845260019485811690816000146130435750600114613000575b5050612ffe92500383612edc565b565b9093915060005260209081600020936000915b81831061302b575050612ffe93508201013880612ff0565b85548884018501529485019487945091830191613013565b915050612ffe94506020925060ff191682840152151560051b8201013880612ff0565b6040906003190112610316576004359060243590565b6020908160408183019282815285518094520193019160005b8281106130a3575050505090565b835185529381019392810192600101613095565b60243590811515820361031657565b9190916101c081019260ff8082511683528060208301511660208401528060408301511660408401528060608301511660608401528060808301511660808401528060a08301511660a084015265ffffffffffff8060c08401511660c085015260e08301511660e084015263ffffffff61010081818501511690850152610120818185015116908501526101408181850151169085015261016090818401511690840152610180808301511515908401526101a08092015116910152565b6007546001600160a01b0316330361319857565b606460405162461bcd60e51b815260206004820152602060248201527f4f776e61626c653a2063616c6c6572206973206e6f7420746865206f776e65726044820152fd5b6001600160a01b031680156131fc57600052600360205260406000205490565b60405162461bcd60e51b815260206004820152602960248201527f4552433732313a2061646472657373207a65726f206973206e6f7420612076616044820152683634b21037bbb732b960b91b6064820152608490fd5b1561325a57565b60405162461bcd60e51b815260206004820152601860248201527f4552433732313a20696e76616c696420746f6b656e20494400000000000000006044820152606490fd5b6000908152600260205260409020546001600160a01b03166132c2811515613253565b90565b6000818152600260205260409020546132e8906001600160a01b03161515613253565b6000908152600460205260409020546001600160a01b031690565b1561330a57565b60405162461bcd60e51b815260206004820152602d60248201527f4552433732313a2063616c6c6572206973206e6f7420746f6b656e206f776e6560448201526c1c881bdc88185c1c1c9bdd9959609a1b6064820152608490fd5b60809060208152603260208201527f4552433732313a207472616e7366657220746f206e6f6e20455243373231526560408201527131b2b4bb32b91034b6b83632b6b2b73a32b960711b60608201520190565b156133bf57565b60405162461bcd60e51b8152806133d860048201613365565b0390fd5b906001600160a01b0380806133f08461329f565b16931691838314938415613423575b50831561340d575b50505090565b613419919293506132c5565b1614388080613407565b909350600052600560205260406000208260005260205260ff6040600020541692386133ff565b1561345157565b60405162461bcd60e51b815260206004820152602560248201527f4552433732313a207472616e736665722066726f6d20696e636f72726563742060448201526437bbb732b960d91b6064820152608490fd5b906134cc916134b28461329f565b6001600160a01b039391841692849290918316841461344a565b1691821561356457816134e9916134e28661329f565b161461344a565b7fddf252ad1be2c89b69c2b068fc378daa952ba7f163c4a11628f55a4df523b3ef60008481526004602052604081206001600160601b0360a01b9081815416905583825260036020526040822060001981540190558482526040822060018154019055858252600260205284604083209182541617905580a4565b60405162461bcd60e51b8152602060048201526024808201527f4552433732313a207472616e7366657220746f20746865207a65726f206164646044820152637265737360e01b6064820152608490fd5b3d156135e0573d906135c682612efe565b916135d46040519384612edc565b82523d6000602084013e565b606090565b909190803b156136d5576020604051809281630a85bd0160e11b968782523360048301528161362e60009889938460248501526044840152608060648401526084830190612e04565b03926001600160a01b03165af190829082613686575b5050613678576136526135b5565b805190816136735760405162461bcd60e51b8152806133d860048201613365565b602001fd5b6001600160e01b0319161490565b909192506020813d82116136cd575b816136a260209383612edc565b810103126136c95751906001600160e01b0319821682036136c65750903880613644565b80fd5b5080fd5b3d9150613695565b505050600190565b919290803b1561375257604051630a85bd0160e11b8082523360048301526001600160a01b03948516602483015260448201959095526080606482015291602091839182908190613732906084830190612e04565b03916000968791165af190829082613686575050613678576136526135b5565b50505050600190565b1561376257565b60405162461bcd60e51b8152602060048201526014602482015273125b9cdd59999a58da595b9d081c185e5b595b9d60621b6044820152606490fd5b156137a557565b60405162461bcd60e51b815260206004820152601260248201527113585e081cdd5c1c1b1e481c995858da195960721b6044820152606490fd5b604051906137ec82612ea4565b60088252670e6e8e4cadccee8d60c31b6020830152565b9190820180921161381057565b634e487b7160e01b600052601160045260246000fd5b6040519061383382612ea4565b60058252641cdc19595960da1b6020830152565b6040519061385482612ea4565b60078252667374616d696e6160c81b6020830152565b6040519061387782612ea4565b600c82526b696e74656c6c6967656e636560a01b6020830152565b6040519061389f82612ea4565b60048252636c75636b60e01b6020830152565b6002600854146138c3576002600855565b60405162461bcd60e51b815260206004820152601f60248201527f5265656e7472616e637947756172643a207265656e7472616e742063616c6c006044820152606490fd5b60405161391481612ec0565b6000808252926001600160a01b0383169283156139d9578161077394612ffe9661395c61395684600052600260205260018060a01b0360406000205416151590565b15613a1d565b60008381526002602052604090205461397f906001600160a01b03161515613956565b81815260036020526040812060018154019055828152600260205260408120826001600160601b0360a01b8254161790557fddf252ad1be2c89b69c2b068fc378daa952ba7f163c4a11628f55a4df523b3ef8180a46135e5565b606460405162461bcd60e51b815260206004820152602060248201527f4552433732313a206d696e7420746f20746865207a65726f20616464726573736044820152fd5b15613a2457565b60405162461bcd60e51b815260206004820152601c60248201527f4552433732313a20746f6b656e20616c7265616479206d696e746564000000006044820152606490fd5b67ffffffffffffffff8111612e725760051b60200190565b90613a8b82613a69565b613a986040519182612edc565b8281528092613aa9601f1991613a69565b0190602036910137565b60001981146138105760010190565b8051821015613ad65760209160051b010190565b634e487b7160e01b600052603260045260246000fd5b15613af357565b60405162461bcd60e51b815260206004820152600d60248201526c2737ba103a34329037bbb732b960991b6044820152606490fd5b9190820391821161381057565b60ff1660ff81146138105760010190565b15613b4d57565b60405162461bcd60e51b815260206004820152600e60248201526d139bdd08185d5d1a1bdc9a5e995960921b6044820152606490fd5b63ffffffff8091169081146138105760010190565b15613b9f57565b60405162461bcd60e51b8152602060048201526014602482015273151bdad95b88191bd95cc81b9bdd08195e1a5cdd60621b6044820152606490fd5b63ffffffff8091168015613c05576064613bf59104613c0c565b80613c01575050600190565b1690565b5050600190565b8015613c6557600180820180831161381057811c90825b838310613c305750505090565b91925090828015613c505780613c47918304613803565b821c9190613c23565b60246000634e487b7160e01b81526012600452fd5b50600090565b90613cb66094604051809360208201954287524460408401526060830152613c9d815180926020608086019101612de1565b81013360601b6080820152036074810184520182612edc565b5190209056fea264697066735822122002ef9d370a4e70f832f218118444ab2d21d877b03013d3d536d82095954a4a0864736f6c63430008140033",
  "linkReferences": {},
  "deployedLinkReferences": {}
}