{
  "_format": "hh-sol-artifact-1",
  "contractName": "HenNFT",
  "sourceName": "contracts/HenNFT.sol",
  "abi": [
    {
      "inputs": [],
      "stateMutability": "nonpayable",
      "type": "constructor"
    },
    {
      "anonymous": false,
      "inputs": [
        {
          "indexed": true,
          "internalType": "address",
          "name": "owner",
          "type": "address"
        },
        {
          "indexed": true,
          "internalType": "address",
          "name": "approved",
          "type": "address"
        },
        {
          "indexed": true,
          "internalType": "uint256",
          "name": "tokenId",
          "type": "uint256"
        }
      ],
      "name": "Approval",
      "type": "event"
    },
    {
      "anonymous": false,
      "inputs": [
        {
          "indexed": true,
          "internalType": "address",
          "name": "owner",
          "type": "address"
        },
        {
          "indexed": true,
          "internalType": "address",
          "name": "operator",
          "type": "address"
        },
        {
          "indexed": false,
          "internalType": "bool",
          "name": "approved",
          "type": "bool"
        }
      ],
      "name": "ApprovalForAll",
      "type": "event"
    },
    {
      "anonymous": false,
      "inputs": [
        {
          "indexed": false,
          "internalType": "uint256",
          "name": "_fromTokenId",
          "type": "uint256"
        },
        {
          "indexed": false,
          "internalType": "uint256",
          "name": "_toTokenId",
          "type": "uint256"
        }
      ],
      "name": "BatchMetadataUpdate",
      "type": "event"
    },
    {
      "anonymous": false,
      "inputs": [
        {
          "indexed": true,
          "internalType": "uint256",
          "name": "henId",
          "type": "uint256"
        },
        {
          "indexed": false,
          "internalType": "bool",
          "name": "won",
          "type": "bool"
        }
      ],
      "name": "BattleResult",
      "type": "event"
    },
    {
      "anonymous": false,
      "inputs": [
        {
          "indexed": true,
          "internalType": "uint256",
          "name": "tokenId",
          "type": "uint256"
        },
        {
          "indexed": true,
          "internalType": "address",
          "name": "seller",
          "type": "address"
        }
      ],
      "name": "HenDelisted",
      "type": "event"
    },
    {
      "anonymous": false,
      "inputs": [
        {
          "indexed": true,
          "internalType": "uint256",
          "name": "tokenId",
          "type": "uint256"
        },
        {
          "indexed": false,
          "internalType": "uint256",
          "name": "price",
          "type": "uint256"
        },
        {
          "indexed": true,
          "internalType": "address",
          "name": "seller",
          "type": "address"
        }
      ],
      "name": "HenListed",
      "type": "event"
    },
    {
      "anonymous": false,
      "inputs": [
        {
          "indexed": true,
          "internalType": "uint256",
          "name": "tokenId",
          "type": "uint256"
        },
        {
          "indexed": true,
          "internalType": "address",
          "name": "owner",
          "type": "address"
        },
        {
          "components": [
            {
              "internalType": "uint8",
              "name": "strength",
              "type": "uint8"
            },
            {
              "internalType": "uint8",
              "name": "speed",
              "type": "uint8"
            },
            {
              "internalType": "uint8",
              "name": "stamina",
              "type": "uint8"
            },
            {
              "internalType": "uint8",
              "name": "intelligence",
              "type": "uint8"
            },
            {
              "internalType": "uint8",
              "name": "luck",
              "type": "uint8"
            },
            {
              "internalType": "uint8",
              "name": "generation",
              "type": "uint8"
            },
            {
              "internalType": "uint256",
              "name": "birthTime",
              "type": "uint256"
            },
            {
              "internalType": "uint256",
              "name": "lastBreedTime",
              "type": "uint256"
            },
            {
              "internalType": "uint256",
              "name": "wins",
              "type": "uint256"
            },
            {
              "internalType": "uint256",
              "name": "losses",
              "type": "uint256"
            },
            {
              "internalType": "uint256",
              "name": "racesWon",
              "type": "uint256"
            },
            {
              "internalType": "bool",
              "name": "isAlive",
              "type": "bool"
            }
          ],
          "indexed": false,
          "internalType": "struct HenNFT.HenTraits",
          "name": "traits",
          "type": "tuple"
        }
      ],
      "name": "HenMinted",
      "type": "event"
    },
    {
      "anonymous": false,
      "inputs": [
        {
          "indexed": true,
          "internalType": "uint256",
          "name": "tokenId",
          "type": "uint256"
        },
        {
          "indexed": true,
          "internalType": "address",
          "name": "from",
          "type": "address"
        },
        {
          "indexed": true,
          "internalType": "address",
          "name": "to",
          "type": "address"
        },
        {
          "indexed": false,
          "internalType": "uint256",
          "name": "price",
          "type": "uint256"
        }
      ],
      "name": "HenSold",
      "type": "event"
    },
    {
      "anonymous": false,
      "inputs": [
        {
          "indexed": false,
          "internalType": "uint256",
          "name": "_tokenId",
          "type": "uint256"
        }
      ],
      "name": "MetadataUpdate",
      "type": "event"
    },
    {
      "anonymous": false,
      "inputs": [
        {
          "indexed": true,
          "internalType": "address",
          "name": "previousOwner",
          "type": "address"
        },
        {
          "indexed": true,
          "internalType": "address",
          "name": "newOwner",
          "type": "address"
        }
      ],
      "name": "OwnershipTransferred",
      "type": "event"
    },
    {
      "anonymous": false,
      "inputs": [
        {
          "indexed": true,
          "internalType": "address",
          "name": "from",
          "type": "address"
        },
        {
          "indexed": true,
          "internalType": "address",
          "name": "to",
          "type": "address"
        },
        {
          "indexed": true,
          "internalType": "uint256",
          "name": "tokenId",
          "type": "uint256"
        }
      ],
      "name": "Transfer",
      "type": "event"
    },
    {
      "inputs": [],
      "name": "MARKETPLACE_FEE",
      "outputs": [
        {
          "internalType": "uint256",
          "name": "",
          "type": "uint256"
        }
      ],
      "stateMutability": "view",
      "type": "function"
    },
    {
      "inputs": [],
      "name": "MAX_SUPPLY",
      "outputs": [
        {
          "internalType": "uint256",
          "name": "",
          "type": "uint256"
        }
      ],
      "stateMutability": "view",
      "type": "function"
    },
    {
      "inputs": [],
      "name": "MINT_PRICE",
      "outputs": [
        {
          "internalType": "uint256",
          "name": "",
          "type": "uint256"
        }
      ],
      "stateMutability": "view",
      "type": "function"
    },
    {
      "inputs": [
        {
          "internalType": "address",
          "name": "to",
          "type": "address"
        },
        {
          "internalType": "uint256",
          "name": "tokenId",
          "type": "uint256"
        }
      ],
      "name": "approve",
      "outputs": [],
      "stateMutability": "nonpayable",
      "type": "function"
    },
    {
      "inputs": [
        {
          "internalType": "address",
          "name": "owner",
          "type": "address"
        }
      ],
      "name": "balanceOf",
      "outputs": [
        {
          "internalType": "uint256",
          "name": "",
          "type": "uint256"
        }
      ],
      "stateMutability": "view",
      "type": "function"
    },
    {
      "inputs": [
        {
          "internalType": "uint256",
          "name": "tokenId",
          "type": "uint256"
        }
      ],
      "name": "buyHen",
      "outputs": [],
      "stateMutability": "payable",
      "type": "function"
    },
    {
      "inputs": [
        {
          "internalType": "uint256",
          "name": "tokenId",
          "type": "uint256"
        }
      ],
      "name": "delistHen",
      "outputs": [],
      "stateMutability": "nonpayable",
      "type": "function"
    },
    {
      "inputs": [
        {
          "internalType": "uint256",
          "name": "tokenId",
          "type": "uint256"
        }
      ],
      "name": "getApproved",
      "outputs": [
        {
          "internalType": "address",
          "name": "",
          "type": "address"
        }
      ],
      "stateMutability": "view",
      "type": "function"
    },
    {
      "inputs": [
        {
          "internalType": "uint256",
          "name": "tokenId",
          "type": "uint256"
        }
      ],
      "name": "getHenPower",
      "outputs": [
        {
          "internalType": "uint256",
          "name": "",
          "type": "uint256"
        }
      ],
      "stateMutability": "view",
      "type": "function"
    },
    {
      "inputs": [
        {
          "internalType": "uint256",
          "name": "tokenId",
          "type": "uint256"
        }
      ],
      "name": "getHenTraits",
      "outputs": [
        {
          "components": [
            {
              "internalType": "uint8",
              "name": "strength",
              "type": "uint8"
            },
            {
              "internalType": "uint8",
              "name": "speed",
              "type": "uint8"
            },
            {
              "internalType": "uint8",
              "name": "stamina",
              "type": "uint8"
            },
            {
              "internalType": "uint8",
              "name": "intelligence",
              "type": "uint8"
            },
            {
              "internalType": "uint8",
              "name": "luck",
              "type": "uint8"
            },
            {
              "internalType": "uint8",
              "name": "generation",
              "type": "uint8"
            },
            {
              "internalType": "uint256",
              "name": "birthTime",
              "type": "uint256"
            },
            {
              "internalType": "uint256",
              "name": "lastBreedTime",
              "type": "uint256"
            },
            {
              "internalType": "uint256",
              "name": "wins",
              "type": "uint256"
            },
            {
              "internalType": "uint256",
              "name": "losses",
              "type": "uint256"
            },
            {
              "internalType": "uint256",
              "name": "racesWon",
              "type": "uint256"
            },
            {
              "internalType": "bool",
              "name": "isAlive",
              "type": "bool"
            }
          ],
          "internalType": "struct HenNFT.HenTraits",
          "name": "",
          "type": "tuple"
        }
      ],
      "stateMutability": "view",
      "type": "function"
    },
    {
      "inputs": [
        {
          "internalType": "address",
          "name": "owner",
          "type": "address"
        }
      ],
      "name": "getHensByOwner",
      "outputs": [
        {
          "internalType": "uint256[]",
          "name": "",
          "type": "uint256[]"
        }
      ],
      "stateMutability": "view",
      "type": "function"
    },
    {
      "inputs": [
        {
          "internalType": "uint256",
          "name": "",
          "type": "uint256"
        }
      ],
      "name": "henTraits",
      "outputs": [
        {
          "internalType": "uint8",
          "name": "strength",
          "type": "uint8"
        },
        {
          "internalType": "uint8",
          "name": "speed",
          "type": "uint8"
        },
        {
          "internalType": "uint8",
          "name": "stamina",
          "type": "uint8"
        },
        {
          "internalType": "uint8",
          "name": "intelligence",
          "type": "uint8"
        },
        {
          "internalType": "uint8",
          "name": "luck",
          "type": "uint8"
        },
        {
          "internalType": "uint8",
          "name": "generation",
          "type": "uint8"
        },
        {
          "internalType": "uint256",
          "name": "birthTime",
          "type": "uint256"
        },
        {
          "internalType": "uint256",
          "name": "lastBreedTime",
          "type": "uint256"
        },
        {
          "internalType": "uint256",
          "name": "wins",
          "type": "uint256"
        },
        {
          "internalType": "uint256",
          "name": "losses",
          "type": "uint256"
        },
        {
          "internalType": "uint256",
          "name": "racesWon",
          "type": "uint256"
        },
        {
          "internalType": "bool",
          "name": "isAlive",
          "type": "bool"
        }
      ],
      "stateMutability": "view",
      "type": "function"
    },
    {
      "inputs": [
        {
          "internalType": "address",
          "name": "owner",
          "type": "address"
        },
        {
          "internalType": "address",
          "name": "operator",
          "type": "address"
        }
      ],
      "name": "isApprovedForAll",
      "outputs": [
        {
          "internalType": "bool",
          "name": "",
          "type": "bool"
        }
      ],
      "stateMutability": "view",
      "type": "function"
    },
    {
      "inputs": [
        {
          "internalType": "uint256",
          "name": "tokenId",
          "type": "uint256"
        },
        {
          "internalType": "uint256",
          "name": "price",
          "type": "uint256"
        }
      ],
      "name": "listHen",
      "outputs": [],
      "stateMutability": "nonpayable",
      "type": "function"
    },
    {
      "inputs": [
        {
          "internalType": "uint256",
          "name": "",
          "type": "uint256"
        }
      ],
      "name": "listings",
      "outputs": [
        {
          "internalType": "uint256",
          "name": "price",
          "type": "uint256"
        },
        {
          "internalType": "address",
          "name": "seller",
          "type": "address"
        },
        {
          "internalType": "bool",
          "name": "isActive",
          "type": "bool"
        }
      ],
      "stateMutability": "view",
      "type": "function"
    },
    {
      "inputs": [],
      "name": "mintHen",
      "outputs": [
        {
          "internalType": "uint256",
          "name": "",
          "type": "uint256"
        }
      ],
      "stateMutability": "payable",
      "type": "function"
    },
    {
      "inputs": [],
      "name": "name",
      "outputs": [
        {
          "internalType": "string",
          "name": "",
          "type": "string"
        }
      ],
      "stateMutability": "view",
      "type": "function"
    },
    {
      "inputs": [],
      "name": "owner",
      "outputs": [
        {
          "internalType": "address",
          "name": "",
          "type": "address"
        }
      ],
      "stateMutability": "view",
      "type": "function"
    },
    {
      "inputs": [
        {
          "internalType": "uint256",
          "name": "tokenId",
          "type": "uint256"
        }
      ],
      "name": "ownerOf",
      "outputs": [
        {
          "internalType": "address",
          "name": "",
          "type": "address"
        }
      ],
      "stateMutability": "view",
      "type": "function"
    },
    {
      "inputs": [],
      "name": "renounceOwnership",
      "outputs": [],
      "stateMutability": "nonpayable",
      "type": "function"
    },
    {
      "inputs": [
        {
          "internalType": "address",
          "name": "from",
          "type": "address"
        },
        {
          "internalType": "address",
          "name": "to",
          "type": "address"
        },
        {
          "internalType": "uint256",
          "name": "tokenId",
          "type": "uint256"
        }
      ],
      "name": "safeTransferFrom",
      "outputs": [],
      "stateMutability": "nonpayable",
      "type": "function"
    },
    {
      "inputs": [
        {
          "internalType": "address",
          "name": "from",
          "type": "address"
        },
        {
          "internalType": "address",
          "name": "to",
          "type": "address"
        },
        {
          "internalType": "uint256",
          "name": "tokenId",
          "type": "uint256"
        },
        {
          "internalType": "bytes",
          "name": "data",
          "type": "bytes"
        }
      ],
      "name": "safeTransferFrom",
      "outputs": [],
      "stateMutability": "nonpayable",
      "type": "function"
    },
    {
      "inputs": [
        {
          "internalType": "address",
          "name": "operator",
          "type": "address"
        },
        {
          "internalType": "bool",
          "name": "approved",
          "type": "bool"
        }
      ],
      "name": "setApprovalForAll",
      "outputs": [],
      "stateMutability": "nonpayable",
      "type": "function"
    },
    {
      "inputs": [
        {
          "internalType": "bytes4",
          "name": "interfaceId",
          "type": "bytes4"
        }
      ],
      "name": "supportsInterface",
      "outputs": [
        {
          "internalType": "bool",
          "name": "",
          "type": "bool"
        }
      ],
      "stateMutability": "view",
      "type": "function"
    },
    {
      "inputs": [],
      "name": "symbol",
      "outputs": [
        {
          "internalType": "string",
          "name": "",
          "type": "string"
        }
      ],
      "stateMutability": "view",
      "type": "function"
    },
    {
      "inputs": [
        {
          "internalType": "uint256",
          "name": "tokenId",
          "type": "uint256"
        }
      ],
      "name": "tokenURI",
      "outputs": [
        {
          "internalType": "string",
          "name": "",
          "type": "string"
        }
      ],
      "stateMutability": "view",
      "type": "function"
    },
    {
      "inputs": [
        {
          "internalType": "address",
          "name": "from",
          "type": "address"
        },
        {
          "internalType": "address",
          "name": "to",
          "type": "address"
        },
        {
          "internalType": "uint256",
          "name": "tokenId",
          "type": "uint256"
        }
      ],
      "name": "transferFrom",
      "outputs": [],
      "stateMutability": "nonpayable",
      "type": "function"
    },
    {
      "inputs": [
        {
          "internalType": "address",
          "name": "newOwner",
          "type": "address"
        }
      ],
      "name": "transferOwnership",
      "outputs": [],
      "stateMutability": "nonpayable",
      "type": "function"
    },
    {
      "inputs": [
        {
          "internalType": "uint256",
          "name": "tokenId",
          "type": "uint256"
        },
        {
          "internalType": "bool",
          "name": "won",
          "type": "bool"
        }
      ],
      "name": "updateBattleStats",
      "outputs": [],
      "stateMutability": "nonpayable",
      "type": "function"
    },
    {
      "inputs": [
        {
          "internalType": "uint256",
          "name": "tokenId",
          "type": "uint256"
        }
      ],
      "name": "updateRaceStats",
      "outputs": [],
      "stateMutability": "nonpayable",
      "type": "function"
    },
    {
      "inputs": [],
      "name": "withdraw",
      "outputs": [],
      "stateMutability": "nonpayable",
      "type": "function"
    }
  ],
  "bytecode": "0x60806040523480156200001157600080fd5b506040518060400160405280600a81526020017f43727970746f48656e73000000000000000000000000000000000000000000008152506040518060400160405280600381526020017f48454e000000000000000000000000000000000000000000000000000000000081525081600090816200008f91906200041a565b508060019081620000a191906200041a565b505050620000c4620000b8620000d260201b60201c565b620000da60201b60201c565b600160088190555062000501565b600033905090565b6000600760009054906101000a900473ffffffffffffffffffffffffffffffffffffffff16905081600760006101000a81548173ffffffffffffffffffffffffffffffffffffffff021916908373ffffffffffffffffffffffffffffffffffffffff1602179055508173ffffffffffffffffffffffffffffffffffffffff168173ffffffffffffffffffffffffffffffffffffffff167f8be0079c531659141344cd1fd0a4f28419497f9722a3daafe3b4186f6b6457e060405160405180910390a35050565b600081519050919050565b7f4e487b7100000000000000000000000000000000000000000000000000000000600052604160045260246000fd5b7f4e487b7100000000000000000000000000000000000000000000000000000000600052602260045260246000fd5b600060028204905060018216806200022257607f821691505b602082108103620002385762000237620001da565b5b50919050565b60008190508160005260206000209050919050565b60006020601f8301049050919050565b600082821b905092915050565b600060088302620002a27fffffffffffffffffffffffffffffffffffffffffffffffffffffffffffffffff8262000263565b620002ae868362000263565b95508019841693508086168417925050509392505050565b6000819050919050565b6000819050919050565b6000620002fb620002f5620002ef84620002c6565b620002d0565b620002c6565b9050919050565b6000819050919050565b6200031783620002da565b6200032f620003268262000302565b84845462000270565b825550505050565b600090565b6200034662000337565b620003538184846200030c565b505050565b5b818110156200037b576200036f6000826200033c565b60018101905062000359565b5050565b601f821115620003ca5762000394816200023e565b6200039f8462000253565b81016020851015620003af578190505b620003c7620003be8562000253565b83018262000358565b50505b505050565b600082821c905092915050565b6000620003ef60001984600802620003cf565b1980831691505092915050565b60006200040a8383620003dc565b9150826002028217905092915050565b6200042582620001a0565b67ffffffffffffffff811115620004415762000440620001ab565b5b6200044d825462000209565b6200045a8282856200037f565b600060209050601f8311600181146200049257600084156200047d578287015190505b620004898582620003fc565b865550620004f9565b601f198416620004a2866200023e565b60005b82811015620004cc57848901518255600182019150602085019450602081019050620004a5565b86831015620004ec5784890151620004e8601f891682620003dc565b8355505b6001600288020188555050505b505050505050565b614dab80620005116000396000f3fe6080604052600436106101d85760003560e01c80637bba64af11610102578063b88d4fde11610095578063c87b56dd11610064578063c87b56dd146106ab578063de74e57b146106e8578063e985e9c514610727578063f2fde38b14610764576101d8565b8063b88d4fde14610605578063bcaf673f1461062e578063c002d23d14610657578063c62e043514610682576101d8565b80639c903ff0116100d15780639c903ff014610544578063a22cb46514610562578063a63451411461058b578063afa2cf03146105c8576101d8565b80637bba64af146104a75780638da5cb5b146104c357806395d89b41146104ee5780639c103c6114610519576101d8565b806332cb6b0c1161017a5780636352211e116101495780636352211e146103d957806370a082311461041657806370e6e99a14610453578063715018a614610490576101d8565b806332cb6b0c146103455780633ccfd60b1461037057806342842e0e1461038757806350c7d5a0146103b0576101d8565b8063095ea7b3116101b6578063095ea7b3146102825780631733cdc8146102ab57806320960c46146102f357806323b872dd1461031c576101d8565b806301ffc9a7146101dd57806306fdde031461021a578063081812fc14610245575b600080fd5b3480156101e957600080fd5b5061020460048036038101906101ff91906133d4565b61078d565b604051610211919061341c565b60405180910390f35b34801561022657600080fd5b5061022f61079f565b60405161023c91906134c7565b60405180910390f35b34801561025157600080fd5b5061026c6004803603810190610267919061351f565b610831565b604051610279919061358d565b60405180910390f35b34801561028e57600080fd5b506102a960048036038101906102a491906135d4565b610877565b005b3480156102b757600080fd5b506102d260048036038101906102cd919061351f565b61098e565b6040516102ea9c9b9a9998979695949392919061363f565b60405180910390f35b3480156102ff57600080fd5b5061031a6004803603810190610315919061351f565b610a49565b005b34801561032857600080fd5b50610343600480360381019061033e91906136f9565b610a78565b005b34801561035157600080fd5b5061035a610ad8565b604051610367919061374c565b60405180910390f35b34801561037c57600080fd5b50610385610ade565b005b34801561039357600080fd5b506103ae60048036038101906103a991906136f9565b610ba2565b005b3480156103bc57600080fd5b506103d760048036038101906103d2919061351f565b610bc2565b005b3480156103e557600080fd5b5061040060048036038101906103fb919061351f565b610d69565b60405161040d919061358d565b60405180910390f35b34801561042257600080fd5b5061043d60048036038101906104389190613767565b610def565b60405161044a919061374c565b60405180910390f35b34801561045f57600080fd5b5061047a60048036038101906104759190613767565b610ea6565b6040516104879190613852565b60405180910390f35b34801561049c57600080fd5b506104a5610fb5565b005b6104c160048036038101906104bc919061351f565b610fc9565b005b3480156104cf57600080fd5b506104d8611381565b6040516104e5919061358d565b60405180910390f35b3480156104fa57600080fd5b506105036113ab565b60405161051091906134c7565b60405180910390f35b34801561052557600080fd5b5061052e61143d565b60405161053b919061374c565b60405180910390f35b61054c611442565b604051610559919061374c565b60405180910390f35b34801561056e57600080fd5b50610589600480360381019061058491906138a0565b6118b5565b005b34801561059757600080fd5b506105b260048036038101906105ad919061351f565b6118cb565b6040516105bf91906139f4565b60405180910390f35b3480156105d457600080fd5b506105ef60048036038101906105ea919061351f565b611a3c565b6040516105fc919061374c565b60405180910390f35b34801561061157600080fd5b5061062c60048036038101906106279190613b45565b611bb3565b005b34801561063a57600080fd5b5061065560048036038101906106509190613bc8565b611c15565b005b34801561066357600080fd5b5061066c611e40565b604051610679919061374c565b60405180910390f35b34801561068e57600080fd5b506106a960048036038101906106a49190613c08565b611e4b565b005b3480156106b757600080fd5b506106d260048036038101906106cd919061351f565b611eeb565b6040516106df91906134c7565b60405180910390f35b3480156106f457600080fd5b5061070f600480360381019061070a919061351f565b611efd565b60405161071e93929190613c48565b60405180910390f35b34801561073357600080fd5b5061074e60048036038101906107499190613c7f565b611f54565b60405161075b919061341c565b60405180910390f35b34801561077057600080fd5b5061078b60048036038101906107869190613767565b611fe8565b005b60006107988261206b565b9050919050565b6060600080546107ae90613cee565b80601f01602080910402602001604051908101604052809291908181526020018280546107da90613cee565b80156108275780601f106107fc57610100808354040283529160200191610827565b820191906000526020600020905b81548152906001019060200180831161080a57829003601f168201915b5050505050905090565b600061083c826120cc565b6004600083815260200190815260200160002060009054906101000a900473ffffffffffffffffffffffffffffffffffffffff169050919050565b600061088282610d69565b90508073ffffffffffffffffffffffffffffffffffffffff168373ffffffffffffffffffffffffffffffffffffffff16036108f2576040517f08c379a00000000000000000000000000000000000000000000000000000000081526004016108e990613d91565b60405180910390fd5b8073ffffffffffffffffffffffffffffffffffffffff16610911612117565b73ffffffffffffffffffffffffffffffffffffffff161480610940575061093f8161093a612117565b611f54565b5b61097f576040517f08c379a000000000000000000000000000000000000000000000000000000000815260040161097690613e23565b60405180910390fd5b610989838361211f565b505050565b600a6020528060005260406000206000915090508060000160009054906101000a900460ff16908060000160019054906101000a900460ff16908060000160029054906101000a900460ff16908060000160039054906101000a900460ff16908060000160049054906101000a900460ff16908060000160059054906101000a900460ff16908060010154908060020154908060030154908060040154908060050154908060060160009054906101000a900460ff1690508c565b600a60008281526020019081526020016000206005016000815480929190610a7090613e72565b919050555050565b610a89610a83612117565b826121d8565b610ac8576040517f08c379a0000000000000000000000000000000000000000000000000000000008152600401610abf90613f2c565b60405180910390fd5b610ad383838361226d565b505050565b61271081565b610ae6612566565b60004790506000610af5611381565b73ffffffffffffffffffffffffffffffffffffffff1682604051610b1890613f7d565b60006040518083038185875af1925050503d8060008114610b55576040519150601f19603f3d011682016040523d82523d6000602084013e610b5a565b606091505b5050905080610b9e576040517f08c379a0000000000000000000000000000000000000000000000000000000008152600401610b9590613fde565b60405180910390fd5b5050565b610bbd83838360405180602001604052806000815250611bb3565b505050565b3373ffffffffffffffffffffffffffffffffffffffff16600b600083815260200190815260200160002060010160009054906101000a900473ffffffffffffffffffffffffffffffffffffffff1673ffffffffffffffffffffffffffffffffffffffff1614610c66576040517f08c379a0000000000000000000000000000000000000000000000000000000008152600401610c5d9061404a565b60405180910390fd5b600b600082815260200190815260200160002060010160149054906101000a900460ff16610cc9576040517f08c379a0000000000000000000000000000000000000000000000000000000008152600401610cc0906140b6565b60405180910390fd5b600b60008281526020019081526020016000206000808201600090556001820160006101000a81549073ffffffffffffffffffffffffffffffffffffffff02191690556001820160146101000a81549060ff021916905550503373ffffffffffffffffffffffffffffffffffffffff16817f08202ab9068fa5e6ea16e04517a8c260f8b0d6714d979788967e4bfb1faca28d60405160405180910390a350565b600080610d75836125e4565b9050600073ffffffffffffffffffffffffffffffffffffffff168173ffffffffffffffffffffffffffffffffffffffff1603610de6576040517f08c379a0000000000000000000000000000000000000000000000000000000008152600401610ddd90614122565b60405180910390fd5b80915050919050565b60008073ffffffffffffffffffffffffffffffffffffffff168273ffffffffffffffffffffffffffffffffffffffff1603610e5f576040517f08c379a0000000000000000000000000000000000000000000000000000000008152600401610e56906141b4565b60405180910390fd5b600360008373ffffffffffffffffffffffffffffffffffffffff1673ffffffffffffffffffffffffffffffffffffffff168152602001908152602001600020549050919050565b60606000610eb383610def565b905060008167ffffffffffffffff811115610ed157610ed0613a1a565b5b604051908082528060200260200182016040528015610eff5781602001602082028036833780820191505090505b509050600080600190505b610f146009612621565b8111610fa957610f238161262f565b8015610f6257508573ffffffffffffffffffffffffffffffffffffffff16610f4a82610d69565b73ffffffffffffffffffffffffffffffffffffffff16145b15610f965780838381518110610f7b57610f7a6141d4565b5b6020026020010181815250508180610f9290613e72565b9250505b8080610fa190613e72565b915050610f0a565b50819350505050919050565b610fbd612566565b610fc76000612670565b565b610fd1612736565b6000600b6000838152602001908152602001600020604051806060016040529081600082015481526020016001820160009054906101000a900473ffffffffffffffffffffffffffffffffffffffff1673ffffffffffffffffffffffffffffffffffffffff1673ffffffffffffffffffffffffffffffffffffffff1681526020016001820160149054906101000a900460ff161515151581525050905080604001516110b2576040517f08c379a00000000000000000000000000000000000000000000000000000000081526004016110a99061424f565b60405180910390fd5b80600001513410156110f9576040517f08c379a00000000000000000000000000000000000000000000000000000000081526004016110f0906142bb565b60405180910390fd5b600081602001519050600082600001519050600061271060fa8361111d91906142db565b611127919061434c565b905060008183611137919061437d565b9050600b60008781526020019081526020016000206000808201600090556001820160006101000a81549073ffffffffffffffffffffffffffffffffffffffff02191690556001820160146101000a81549060ff0219169055505061119d84338861226d565b60008473ffffffffffffffffffffffffffffffffffffffff16826040516111c390613f7d565b60006040518083038185875af1925050503d8060008114611200576040519150601f19603f3d011682016040523d82523d6000602084013e611205565b606091505b5050905080611249576040517f08c379a0000000000000000000000000000000000000000000000000000000008152600401611240906143fd565b60405180910390fd5b3373ffffffffffffffffffffffffffffffffffffffff168573ffffffffffffffffffffffffffffffffffffffff16887f23e7a5edd4c10cc4bf363be5ea945e863eb800cfb257a5d6b33b76b3a922ca5d876040516112a7919061374c565b60405180910390a4833411156113705760003373ffffffffffffffffffffffffffffffffffffffff1685346112dc919061437d565b6040516112e890613f7d565b60006040518083038185875af1925050503d8060008114611325576040519150601f19603f3d011682016040523d82523d6000602084013e61132a565b606091505b505090508061136e576040517f08c379a000000000000000000000000000000000000000000000000000000000815260040161136590614469565b60405180910390fd5b505b50505050505061137e612785565b50565b6000600760009054906101000a900473ffffffffffffffffffffffffffffffffffffffff16905090565b6060600180546113ba90613cee565b80601f01602080910402602001604051908101604052809291908181526020018280546113e690613cee565b80156114335780601f1061140857610100808354040283529160200191611433565b820191906000526020600020905b81548152906001019060200180831161141657829003601f168201915b5050505050905090565b60fa81565b600061144c612736565b662386f26fc10000341015611496576040517f08c379a000000000000000000000000000000000000000000000000000000000815260040161148d906142bb565b60405180910390fd5b6127106114a36009612621565b106114e3576040517f08c379a00000000000000000000000000000000000000000000000000000000081526004016114da906144d5565b60405180910390fd5b6114ed600961278f565b60006114f96009612621565b905061150533826127a5565b600060405180610180016040528060146051611556866040518060400160405280600881526020017f737472656e6774680000000000000000000000000000000000000000000000008152506127c3565b61156091906144f5565b61156a9190614526565b60ff168152602001601460516115b5866040518060400160405280600581526020017f73706565640000000000000000000000000000000000000000000000000000008152506127c3565b6115bf91906144f5565b6115c99190614526565b60ff16815260200160146051611614866040518060400160405280600781526020017f7374616d696e61000000000000000000000000000000000000000000000000008152506127c3565b61161e91906144f5565b6116289190614526565b60ff16815260200160146051611673866040518060400160405280600c81526020017f696e74656c6c6967656e636500000000000000000000000000000000000000008152506127c3565b61167d91906144f5565b6116879190614526565b60ff168152602001601460516116d2866040518060400160405280600481526020017f6c75636b000000000000000000000000000000000000000000000000000000008152506127c3565b6116dc91906144f5565b6116e69190614526565b60ff168152602001600060ff1681526020014281526020016000815260200160008152602001600081526020016000815260200160011515815250905080600a600084815260200190815260200160002060008201518160000160006101000a81548160ff021916908360ff16021790555060208201518160000160016101000a81548160ff021916908360ff16021790555060408201518160000160026101000a81548160ff021916908360ff16021790555060608201518160000160036101000a81548160ff021916908360ff16021790555060808201518160000160046101000a81548160ff021916908360ff16021790555060a08201518160000160056101000a81548160ff021916908360ff16021790555060c0820151816001015560e082015181600201556101008201518160030155610120820151816004015561014082015181600501556101608201518160060160006101000a81548160ff0219169083151502179055509050503373ffffffffffffffffffffffffffffffffffffffff16827f7bda72edc06b51d30619fd8b9f08dd86f43c36c3ed7f32604633d289850490dc8360405161189d91906139f4565b60405180910390a381925050506118b2612785565b90565b6118c76118c0612117565b83836127ff565b5050565b6118d36132f3565b6118dc8261262f565b61191b576040517f08c379a0000000000000000000000000000000000000000000000000000000008152600401611912906145a6565b60405180910390fd5b600a6000838152602001908152602001600020604051806101800160405290816000820160009054906101000a900460ff1660ff1660ff1681526020016000820160019054906101000a900460ff1660ff1660ff1681526020016000820160029054906101000a900460ff1660ff1660ff1681526020016000820160039054906101000a900460ff1660ff1660ff1681526020016000820160049054906101000a900460ff1660ff1660ff1681526020016000820160059054906101000a900460ff1660ff1660ff16815260200160018201548152602001600282015481526020016003820154815260200160048201548152602001600582015481526020016006820160009054906101000a900460ff1615151515815250509050919050565b600080600a6000848152602001908152602001600020604051806101800160405290816000820160009054906101000a900460ff1660ff1660ff1681526020016000820160019054906101000a900460ff1660ff1660ff1681526020016000820160029054906101000a900460ff1660ff1660ff1681526020016000820160039054906101000a900460ff1660ff1660ff1681526020016000820160049054906101000a900460ff1660ff1660ff1681526020016000820160059054906101000a900460ff1660ff1660ff16815260200160018201548152602001600282015481526020016003820154815260200160048201548152602001600582015481526020016006820160009054906101000a900460ff1615151515815250509050806080015160ff16816060015160ff16826040015160ff16836020015160ff16846000015160ff16611b8d9190614526565b611b979190614526565b611ba19190614526565b611bab9190614526565b915050919050565b611bc4611bbe612117565b836121d8565b611c03576040517f08c379a0000000000000000000000000000000000000000000000000000000008152600401611bfa90613f2c565b60405180910390fd5b611c0f8484848461296b565b50505050565b3373ffffffffffffffffffffffffffffffffffffffff16611c3583610d69565b73ffffffffffffffffffffffffffffffffffffffff1614611c8b576040517f08c379a0000000000000000000000000000000000000000000000000000000008152600401611c8290614612565b60405180910390fd5b60008111611cce576040517f08c379a0000000000000000000000000000000000000000000000000000000008152600401611cc59061467e565b60405180910390fd5b600b600083815260200190815260200160002060010160149054906101000a900460ff1615611d32576040517f08c379a0000000000000000000000000000000000000000000000000000000008152600401611d29906146ea565b60405180910390fd5b60405180606001604052808281526020013373ffffffffffffffffffffffffffffffffffffffff16815260200160011515815250600b60008481526020019081526020016000206000820151816000015560208201518160010160006101000a81548173ffffffffffffffffffffffffffffffffffffffff021916908373ffffffffffffffffffffffffffffffffffffffff16021790555060408201518160010160146101000a81548160ff0219169083151502179055509050503373ffffffffffffffffffffffffffffffffffffffff16827fb401eb59e096f41c707abda600e71ddb0066743a000c511ccfd6b58ce62141e583604051611e34919061374c565b60405180910390a35050565b662386f26fc1000081565b8015611e8257600a60008381526020019081526020016000206003016000815480929190611e7890613e72565b9190505550611eaf565b600a60008381526020019081526020016000206004016000815480929190611ea990613e72565b91905055505b817f19d86b8edfcd6cf16daaf1ee062fa483161495cf6ad50132e27637b7ed38fb8882604051611edf919061341c565b60405180910390a25050565b6060611ef6826129c7565b9050919050565b600b6020528060005260406000206000915090508060000154908060010160009054906101000a900473ffffffffffffffffffffffffffffffffffffffff16908060010160149054906101000a900460ff16905083565b6000600560008473ffffffffffffffffffffffffffffffffffffffff1673ffffffffffffffffffffffffffffffffffffffff16815260200190815260200160002060008373ffffffffffffffffffffffffffffffffffffffff1673ffffffffffffffffffffffffffffffffffffffff16815260200190815260200160002060009054906101000a900460ff16905092915050565b611ff0612566565b600073ffffffffffffffffffffffffffffffffffffffff168173ffffffffffffffffffffffffffffffffffffffff160361205f576040517f08c379a00000000000000000000000000000000000000000000000000000000081526004016120569061477c565b60405180910390fd5b61206881612670565b50565b6000634906490660e01b7bffffffffffffffffffffffffffffffffffffffffffffffffffffffff1916827bffffffffffffffffffffffffffffffffffffffffffffffffffffffff191614806120c557506120c482612ad9565b5b9050919050565b6120d58161262f565b612114576040517f08c379a000000000000000000000000000000000000000000000000000000000815260040161210b90614122565b60405180910390fd5b50565b600033905090565b816004600083815260200190815260200160002060006101000a81548173ffffffffffffffffffffffffffffffffffffffff021916908373ffffffffffffffffffffffffffffffffffffffff160217905550808273ffffffffffffffffffffffffffffffffffffffff1661219283610d69565b73ffffffffffffffffffffffffffffffffffffffff167f8c5be1e5ebec7d5bd14f71427d1e84f3dd0314c0f7b2291e5b200ac8c7c3b92560405160405180910390a45050565b6000806121e483610d69565b90508073ffffffffffffffffffffffffffffffffffffffff168473ffffffffffffffffffffffffffffffffffffffff16148061222657506122258185611f54565b5b8061226457508373ffffffffffffffffffffffffffffffffffffffff1661224c84610831565b73ffffffffffffffffffffffffffffffffffffffff16145b91505092915050565b8273ffffffffffffffffffffffffffffffffffffffff1661228d82610d69565b73ffffffffffffffffffffffffffffffffffffffff16146122e3576040517f08c379a00000000000000000000000000000000000000000000000000000000081526004016122da9061480e565b60405180910390fd5b600073ffffffffffffffffffffffffffffffffffffffff168273ffffffffffffffffffffffffffffffffffffffff1603612352576040517f08c379a0000000000000000000000000000000000000000000000000000000008152600401612349906148a0565b60405180910390fd5b61235f8383836001612bbb565b8273ffffffffffffffffffffffffffffffffffffffff1661237f82610d69565b73ffffffffffffffffffffffffffffffffffffffff16146123d5576040517f08c379a00000000000000000000000000000000000000000000000000000000081526004016123cc9061480e565b60405180910390fd5b6004600082815260200190815260200160002060006101000a81549073ffffffffffffffffffffffffffffffffffffffff02191690556001600360008573ffffffffffffffffffffffffffffffffffffffff1673ffffffffffffffffffffffffffffffffffffffff168152602001908152602001600020600082825403925050819055506001600360008473ffffffffffffffffffffffffffffffffffffffff1673ffffffffffffffffffffffffffffffffffffffff16815260200190815260200160002060008282540192505081905550816002600083815260200190815260200160002060006101000a81548173ffffffffffffffffffffffffffffffffffffffff021916908373ffffffffffffffffffffffffffffffffffffffff160217905550808273ffffffffffffffffffffffffffffffffffffffff168473ffffffffffffffffffffffffffffffffffffffff167fddf252ad1be2c89b69c2b068fc378daa952ba7f163c4a11628f55a4df523b3ef60405160405180910390a46125618383836001612bc1565b505050565b61256e612117565b73ffffffffffffffffffffffffffffffffffffffff1661258c611381565b73ffffffffffffffffffffffffffffffffffffffff16146125e2576040517f08c379a00000000000000000000000000000000000000000000000000000000081526004016125d99061490c565b60405180910390fd5b565b60006002600083815260200190815260200160002060009054906101000a900473ffffffffffffffffffffffffffffffffffffffff169050919050565b600081600001549050919050565b60008073ffffffffffffffffffffffffffffffffffffffff16612651836125e4565b73ffffffffffffffffffffffffffffffffffffffff1614159050919050565b6000600760009054906101000a900473ffffffffffffffffffffffffffffffffffffffff16905081600760006101000a81548173ffffffffffffffffffffffffffffffffffffffff021916908373ffffffffffffffffffffffffffffffffffffffff1602179055508173ffffffffffffffffffffffffffffffffffffffff168173ffffffffffffffffffffffffffffffffffffffff167f8be0079c531659141344cd1fd0a4f28419497f9722a3daafe3b4186f6b6457e060405160405180910390a35050565b60026008540361277b576040517f08c379a000000000000000000000000000000000000000000000000000000000815260040161277290614978565b60405180910390fd5b6002600881905550565b6001600881905550565b6001816000016000828254019250508190555050565b6127bf828260405180602001604052806000815250612bc7565b5050565b600042448484336040516020016127de959493929190614a3d565b6040516020818303038152906040528051906020012060001c905092915050565b8173ffffffffffffffffffffffffffffffffffffffff168373ffffffffffffffffffffffffffffffffffffffff160361286d576040517f08c379a000000000000000000000000000000000000000000000000000000000815260040161286490614ae4565b60405180910390fd5b80600560008573ffffffffffffffffffffffffffffffffffffffff1673ffffffffffffffffffffffffffffffffffffffff16815260200190815260200160002060008473ffffffffffffffffffffffffffffffffffffffff1673ffffffffffffffffffffffffffffffffffffffff16815260200190815260200160002060006101000a81548160ff0219169083151502179055508173ffffffffffffffffffffffffffffffffffffffff168373ffffffffffffffffffffffffffffffffffffffff167f17307eab39ab6107e8899845ad3d59bd9653f200f220920489ca2b5937696c318360405161295e919061341c565b60405180910390a3505050565b61297684848461226d565b61298284848484612c22565b6129c1576040517f08c379a00000000000000000000000000000000000000000000000000000000081526004016129b890614b76565b60405180910390fd5b50505050565b60606129d2826120cc565b60006006600084815260200190815260200160002080546129f290613cee565b80601f0160208091040260200160405190810160405280929190818152602001828054612a1e90613cee565b8015612a6b5780601f10612a4057610100808354040283529160200191612a6b565b820191906000526020600020905b815481529060010190602001808311612a4e57829003601f168201915b505050505090506000612a7c612da9565b90506000815103612a91578192505050612ad4565b600082511115612ac6578082604051602001612aae929190614b96565b60405160208183030381529060405292505050612ad4565b612acf84612dc0565b925050505b919050565b60007f80ac58cd000000000000000000000000000000000000000000000000000000007bffffffffffffffffffffffffffffffffffffffffffffffffffffffff1916827bffffffffffffffffffffffffffffffffffffffffffffffffffffffff19161480612ba457507f5b5e139f000000000000000000000000000000000000000000000000000000007bffffffffffffffffffffffffffffffffffffffffffffffffffffffff1916827bffffffffffffffffffffffffffffffffffffffffffffffffffffffff1916145b80612bb45750612bb382612e28565b5b9050919050565b50505050565b50505050565b612bd18383612e92565b612bde6000848484612c22565b612c1d576040517f08c379a0000000000000000000000000000000000000000000000000000000008152600401612c1490614b76565b60405180910390fd5b505050565b6000612c438473ffffffffffffffffffffffffffffffffffffffff166130af565b15612d9c578373ffffffffffffffffffffffffffffffffffffffff1663150b7a02612c6c612117565b8786866040518563ffffffff1660e01b8152600401612c8e9493929190614c0f565b6020604051808303816000875af1925050508015612cca57506040513d601f19601f82011682018060405250810190612cc79190614c70565b60015b612d4c573d8060008114612cfa576040519150601f19603f3d011682016040523d82523d6000602084013e612cff565b606091505b506000815103612d44576040517f08c379a0000000000000000000000000000000000000000000000000000000008152600401612d3b90614b76565b60405180910390fd5b805181602001fd5b63150b7a0260e01b7bffffffffffffffffffffffffffffffffffffffffffffffffffffffff1916817bffffffffffffffffffffffffffffffffffffffffffffffffffffffff191614915050612da1565b600190505b949350505050565b606060405180602001604052806000815250905090565b6060612dcb826120cc565b6000612dd5612da9565b90506000815111612df55760405180602001604052806000815250612e20565b80612dff846130d2565b604051602001612e10929190614b96565b6040516020818303038152906040525b915050919050565b60007f01ffc9a7000000000000000000000000000000000000000000000000000000007bffffffffffffffffffffffffffffffffffffffffffffffffffffffff1916827bffffffffffffffffffffffffffffffffffffffffffffffffffffffff1916149050919050565b600073ffffffffffffffffffffffffffffffffffffffff168273ffffffffffffffffffffffffffffffffffffffff1603612f01576040517f08c379a0000000000000000000000000000000000000000000000000000000008152600401612ef890614ce9565b60405180910390fd5b612f0a8161262f565b15612f4a576040517f08c379a0000000000000000000000000000000000000000000000000000000008152600401612f4190614d55565b60405180910390fd5b612f58600083836001612bbb565b612f618161262f565b15612fa1576040517f08c379a0000000000000000000000000000000000000000000000000000000008152600401612f9890614d55565b60405180910390fd5b6001600360008473ffffffffffffffffffffffffffffffffffffffff1673ffffffffffffffffffffffffffffffffffffffff16815260200190815260200160002060008282540192505081905550816002600083815260200190815260200160002060006101000a81548173ffffffffffffffffffffffffffffffffffffffff021916908373ffffffffffffffffffffffffffffffffffffffff160217905550808273ffffffffffffffffffffffffffffffffffffffff16600073ffffffffffffffffffffffffffffffffffffffff167fddf252ad1be2c89b69c2b068fc378daa952ba7f163c4a11628f55a4df523b3ef60405160405180910390a46130ab600083836001612bc1565b5050565b6000808273ffffffffffffffffffffffffffffffffffffffff163b119050919050565b6060600060016130e1846131a0565b01905060008167ffffffffffffffff811115613100576130ff613a1a565b5b6040519080825280601f01601f1916602001820160405280156131325781602001600182028036833780820191505090505b509050600082602001820190505b600115613195578080600190039150507f3031323334353637383961626364656600000000000000000000000000000000600a86061a8153600a85816131895761318861431d565b5b04945060008503613140575b819350505050919050565b600080600090507a184f03e93ff9f4daa797ed6e38ed64bf6a1f01000000000000000083106131fe577a184f03e93ff9f4daa797ed6e38ed64bf6a1f01000000000000000083816131f4576131f361431d565b5b0492506040810190505b6d04ee2d6d415b85acef8100000000831061323b576d04ee2d6d415b85acef810000000083816132315761323061431d565b5b0492506020810190505b662386f26fc10000831061326a57662386f26fc1000083816132605761325f61431d565b5b0492506010810190505b6305f5e1008310613293576305f5e10083816132895761328861431d565b5b0492506008810190505b61271083106132b85761271083816132ae576132ad61431d565b5b0492506004810190505b606483106132db57606483816132d1576132d061431d565b5b0492506002810190505b600a83106132ea576001810190505b80915050919050565b604051806101800160405280600060ff168152602001600060ff168152602001600060ff168152602001600060ff168152602001600060ff168152602001600060ff16815260200160008152602001600081526020016000815260200160008152602001600081526020016000151581525090565b6000604051905090565b600080fd5b600080fd5b60007fffffffff0000000000000000000000000000000000000000000000000000000082169050919050565b6133b18161337c565b81146133bc57600080fd5b50565b6000813590506133ce816133a8565b92915050565b6000602082840312156133ea576133e9613372565b5b60006133f8848285016133bf565b91505092915050565b60008115159050919050565b61341681613401565b82525050565b6000602082019050613431600083018461340d565b92915050565b600081519050919050565b600082825260208201905092915050565b60005b83811015613471578082015181840152602081019050613456565b60008484015250505050565b6000601f19601f8301169050919050565b600061349982613437565b6134a38185613442565b93506134b3818560208601613453565b6134bc8161347d565b840191505092915050565b600060208201905081810360008301526134e1818461348e565b905092915050565b6000819050919050565b6134fc816134e9565b811461350757600080fd5b50565b600081359050613519816134f3565b92915050565b60006020828403121561353557613534613372565b5b60006135438482850161350a565b91505092915050565b600073ffffffffffffffffffffffffffffffffffffffff82169050919050565b60006135778261354c565b9050919050565b6135878161356c565b82525050565b60006020820190506135a2600083018461357e565b92915050565b6135b18161356c565b81146135bc57600080fd5b50565b6000813590506135ce816135a8565b92915050565b600080604083850312156135eb576135ea613372565b5b60006135f9858286016135bf565b925050602061360a8582860161350a565b9150509250929050565b600060ff82169050919050565b61362a81613614565b82525050565b613639816134e9565b82525050565b600061018082019050613655600083018f613621565b613662602083018e613621565b61366f604083018d613621565b61367c606083018c613621565b613689608083018b613621565b61369660a083018a613621565b6136a360c0830189613630565b6136b060e0830188613630565b6136be610100830187613630565b6136cc610120830186613630565b6136da610140830185613630565b6136e861016083018461340d565b9d9c50505050505050505050505050565b60008060006060848603121561371257613711613372565b5b6000613720868287016135bf565b9350506020613731868287016135bf565b92505060406137428682870161350a565b9150509250925092565b60006020820190506137616000830184613630565b92915050565b60006020828403121561377d5761377c613372565b5b600061378b848285016135bf565b91505092915050565b600081519050919050565b600082825260208201905092915050565b6000819050602082019050919050565b6137c9816134e9565b82525050565b60006137db83836137c0565b60208301905092915050565b6000602082019050919050565b60006137ff82613794565b613809818561379f565b9350613814836137b0565b8060005b8381101561384557815161382c88826137cf565b9750613837836137e7565b925050600181019050613818565b5085935050505092915050565b6000602082019050818103600083015261386c81846137f4565b905092915050565b61387d81613401565b811461388857600080fd5b50565b60008135905061389a81613874565b92915050565b600080604083850312156138b7576138b6613372565b5b60006138c5858286016135bf565b92505060206138d68582860161388b565b9150509250929050565b6138e981613614565b82525050565b6138f881613401565b82525050565b6101808201600082015161391560008501826138e0565b50602082015161392860208501826138e0565b50604082015161393b60408501826138e0565b50606082015161394e60608501826138e0565b50608082015161396160808501826138e0565b5060a082015161397460a08501826138e0565b5060c082015161398760c08501826137c0565b5060e082015161399a60e08501826137c0565b506101008201516139af6101008501826137c0565b506101208201516139c46101208501826137c0565b506101408201516139d96101408501826137c0565b506101608201516139ee6101608501826138ef565b50505050565b600061018082019050613a0a60008301846138fe565b92915050565b600080fd5b600080fd5b7f4e487b7100000000000000000000000000000000000000000000000000000000600052604160045260246000fd5b613a528261347d565b810181811067ffffffffffffffff82111715613a7157613a70613a1a565b5b80604052505050565b6000613a84613368565b9050613a908282613a49565b919050565b600067ffffffffffffffff821115613ab057613aaf613a1a565b5b613ab98261347d565b9050602081019050919050565b82818337600083830152505050565b6000613ae8613ae384613a95565b613a7a565b905082815260208101848484011115613b0457613b03613a15565b5b613b0f848285613ac6565b509392505050565b600082601f830112613b2c57613b2b613a10565b5b8135613b3c848260208601613ad5565b91505092915050565b60008060008060808587031215613b5f57613b5e613372565b5b6000613b6d878288016135bf565b9450506020613b7e878288016135bf565b9350506040613b8f8782880161350a565b925050606085013567ffffffffffffffff811115613bb057613baf613377565b5b613bbc87828801613b17565b91505092959194509250565b60008060408385031215613bdf57613bde613372565b5b6000613bed8582860161350a565b9250506020613bfe8582860161350a565b9150509250929050565b60008060408385031215613c1f57613c1e613372565b5b6000613c2d8582860161350a565b9250506020613c3e8582860161388b565b9150509250929050565b6000606082019050613c5d6000830186613630565b613c6a602083018561357e565b613c77604083018461340d565b949350505050565b60008060408385031215613c9657613c95613372565b5b6000613ca4858286016135bf565b9250506020613cb5858286016135bf565b9150509250929050565b7f4e487b7100000000000000000000000000000000000000000000000000000000600052602260045260246000fd5b60006002820490506001821680613d0657607f821691505b602082108103613d1957613d18613cbf565b5b50919050565b7f4552433732313a20617070726f76616c20746f2063757272656e74206f776e6560008201527f7200000000000000000000000000000000000000000000000000000000000000602082015250565b6000613d7b602183613442565b9150613d8682613d1f565b604082019050919050565b60006020820190508181036000830152613daa81613d6e565b9050919050565b7f4552433732313a20617070726f76652063616c6c6572206973206e6f7420746f60008201527f6b656e206f776e6572206f7220617070726f76656420666f7220616c6c000000602082015250565b6000613e0d603d83613442565b9150613e1882613db1565b604082019050919050565b60006020820190508181036000830152613e3c81613e00565b9050919050565b7f4e487b7100000000000000000000000000000000000000000000000000000000600052601160045260246000fd5b6000613e7d826134e9565b91507fffffffffffffffffffffffffffffffffffffffffffffffffffffffffffffffff8203613eaf57613eae613e43565b5b600182019050919050565b7f4552433732313a2063616c6c6572206973206e6f7420746f6b656e206f776e6560008201527f72206f7220617070726f76656400000000000000000000000000000000000000602082015250565b6000613f16602d83613442565b9150613f2182613eba565b604082019050919050565b60006020820190508181036000830152613f4581613f09565b9050919050565b600081905092915050565b50565b6000613f67600083613f4c565b9150613f7282613f57565b600082019050919050565b6000613f8882613f5a565b9150819050919050565b7f5769746864726177616c206661696c6564000000000000000000000000000000600082015250565b6000613fc8601183613442565b9150613fd382613f92565b602082019050919050565b60006020820190508181036000830152613ff781613fbb565b9050919050565b7f4e6f74207468652073656c6c6572000000000000000000000000000000000000600082015250565b6000614034600e83613442565b915061403f82613ffe565b602082019050919050565b6000602082019050818103600083015261406381614027565b9050919050565b7f4e6f74206c697374656400000000000000000000000000000000000000000000600082015250565b60006140a0600a83613442565b91506140ab8261406a565b602082019050919050565b600060208201905081810360008301526140cf81614093565b9050919050565b7f4552433732313a20696e76616c696420746f6b656e2049440000000000000000600082015250565b600061410c601883613442565b9150614117826140d6565b602082019050919050565b6000602082019050818103600083015261413b816140ff565b9050919050565b7f4552433732313a2061646472657373207a65726f206973206e6f74206120766160008201527f6c6964206f776e65720000000000000000000000000000000000000000000000602082015250565b600061419e602983613442565b91506141a982614142565b604082019050919050565b600060208201905081810360008301526141cd81614191565b9050919050565b7f4e487b7100000000000000000000000000000000000000000000000000000000600052603260045260246000fd5b7f4e6f74206c697374656420666f722073616c6500000000000000000000000000600082015250565b6000614239601383613442565b915061424482614203565b602082019050919050565b600060208201905081810360008301526142688161422c565b9050919050565b7f496e73756666696369656e74207061796d656e74000000000000000000000000600082015250565b60006142a5601483613442565b91506142b08261426f565b602082019050919050565b600060208201905081810360008301526142d481614298565b9050919050565b60006142e6826134e9565b91506142f1836134e9565b92508282026142ff816134e9565b9150828204841483151761431657614315613e43565b5b5092915050565b7f4e487b7100000000000000000000000000000000000000000000000000000000600052601260045260246000fd5b6000614357826134e9565b9150614362836134e9565b9250826143725761437161431d565b5b828204905092915050565b6000614388826134e9565b9150614393836134e9565b92508282039050818111156143ab576143aa613e43565b5b92915050565b7f5472616e7366657220746f2073656c6c6572206661696c656400000000000000600082015250565b60006143e7601983613442565b91506143f2826143b1565b602082019050919050565b60006020820190508181036000830152614416816143da565b9050919050565b7f526566756e64206661696c656400000000000000000000000000000000000000600082015250565b6000614453600d83613442565b915061445e8261441d565b602082019050919050565b6000602082019050818103600083015261448281614446565b9050919050565b7f4d617820737570706c7920726561636865640000000000000000000000000000600082015250565b60006144bf601283613442565b91506144ca82614489565b602082019050919050565b600060208201905081810360008301526144ee816144b2565b9050919050565b6000614500826134e9565b915061450b836134e9565b92508261451b5761451a61431d565b5b828206905092915050565b6000614531826134e9565b915061453c836134e9565b925082820190508082111561455457614553613e43565b5b92915050565b7f546f6b656e20646f6573206e6f74206578697374000000000000000000000000600082015250565b6000614590601483613442565b915061459b8261455a565b602082019050919050565b600060208201905081810360008301526145bf81614583565b9050919050565b7f4e6f7420746865206f776e657200000000000000000000000000000000000000600082015250565b60006145fc600d83613442565b9150614607826145c6565b602082019050919050565b6000602082019050818103600083015261462b816145ef565b9050919050565b7f5072696365206d7573742062652067726561746572207468616e203000000000600082015250565b6000614668601c83613442565b915061467382614632565b602082019050919050565b600060208201905081810360008301526146978161465b565b9050919050565b7f416c7265616479206c6973746564000000000000000000000000000000000000600082015250565b60006146d4600e83613442565b91506146df8261469e565b602082019050919050565b60006020820190508181036000830152614703816146c7565b9050919050565b7f4f776e61626c653a206e6577206f776e657220697320746865207a65726f206160008201527f6464726573730000000000000000000000000000000000000000000000000000602082015250565b6000614766602683613442565b91506147718261470a565b604082019050919050565b6000602082019050818103600083015261479581614759565b9050919050565b7f4552433732313a207472616e736665722066726f6d20696e636f72726563742060008201527f6f776e6572000000000000000000000000000000000000000000000000000000602082015250565b60006147f8602583613442565b91506148038261479c565b604082019050919050565b60006020820190508181036000830152614827816147eb565b9050919050565b7f4552433732313a207472616e7366657220746f20746865207a65726f2061646460008201527f7265737300000000000000000000000000000000000000000000000000000000602082015250565b600061488a602483613442565b91506148958261482e565b604082019050919050565b600060208201905081810360008301526148b98161487d565b9050919050565b7f4f776e61626c653a2063616c6c6572206973206e6f7420746865206f776e6572600082015250565b60006148f6602083613442565b9150614901826148c0565b602082019050919050565b60006020820190508181036000830152614925816148e9565b9050919050565b7f5265656e7472616e637947756172643a207265656e7472616e742063616c6c00600082015250565b6000614962601f83613442565b915061496d8261492c565b602082019050919050565b6000602082019050818103600083015261499181614955565b9050919050565b6000819050919050565b6149b36149ae826134e9565b614998565b82525050565b600081905092915050565b60006149cf82613437565b6149d981856149b9565b93506149e9818560208601613453565b80840191505092915050565b60008160601b9050919050565b6000614a0d826149f5565b9050919050565b6000614a1f82614a02565b9050919050565b614a37614a328261356c565b614a14565b82525050565b6000614a4982886149a2565b602082019150614a5982876149a2565b602082019150614a6982866149a2565b602082019150614a7982856149c4565b9150614a858284614a26565b6014820191508190509695505050505050565b7f4552433732313a20617070726f766520746f2063616c6c657200000000000000600082015250565b6000614ace601983613442565b9150614ad982614a98565b602082019050919050565b60006020820190508181036000830152614afd81614ac1565b9050919050565b7f4552433732313a207472616e7366657220746f206e6f6e20455243373231526560008201527f63656976657220696d706c656d656e7465720000000000000000000000000000602082015250565b6000614b60603283613442565b9150614b6b82614b04565b604082019050919050565b60006020820190508181036000830152614b8f81614b53565b9050919050565b6000614ba282856149c4565b9150614bae82846149c4565b91508190509392505050565b600081519050919050565b600082825260208201905092915050565b6000614be182614bba565b614beb8185614bc5565b9350614bfb818560208601613453565b614c048161347d565b840191505092915050565b6000608082019050614c24600083018761357e565b614c31602083018661357e565b614c3e6040830185613630565b8181036060830152614c508184614bd6565b905095945050505050565b600081519050614c6a816133a8565b92915050565b600060208284031215614c8657614c85613372565b5b6000614c9484828501614c5b565b91505092915050565b7f4552433732313a206d696e7420746f20746865207a65726f2061646472657373600082015250565b6000614cd3602083613442565b9150614cde82614c9d565b602082019050919050565b60006020820190508181036000830152614d0281614cc6565b9050919050565b7f4552433732313a20746f6b656e20616c7265616479206d696e74656400000000600082015250565b6000614d3f601c83613442565b9150614d4a82614d09565b602082019050919050565b60006020820190508181036000830152614d6e81614d32565b905091905056fea2646970667358221220bf2f61af651aedc557c6a74042ac3478414a051a77da9eb3029fd8884cdf8d4764736f6c63430008140033",
  "linkReferences": {},
  "deployedLinkReferences": {}
}