{
  "_format": "hh-sol-artifact-1",
  "contractName": "BettingSystem",
  "sourceName": "contracts/BettingSystem.sol",
  "abi": [
    {
      "inputs": [
        {
          "internalType": "address",
          "name": "_battleContract",
          "type": "address"
        },
        {
          "internalType": "address",
          "name": "_racingContract",
          "type": "address"
        }
      ],
      "stateMutability": "nonpayable",
      "type": "constructor"
    },
    {
      "anonymous": false,
      "inputs": [
        {
          "indexed": true,
          "internalType": "uint256",
          "name": "betId",
          "type": "uint256"
        },
        {
          "indexed": true,
          "internalType": "uint256",
          "name": "battleId",
          "type": "uint256"
        },
        {
          "indexed": true,
          "internalType": "address",
          "name": "bettor",
          "type": "address"
        },
        {
          "indexed": false,
          "internalType": "uint256",
          "name": "henId",
          "type": "uint256"
        },
        {
          "indexed": false,
          "internalType": "uint256",
          "name": "amount",
          "type": "uint256"
        }
      ],
      "name": "BattleBetPlaced",
      "type": "event"
    },
    {
      "anonymous": false,
      "inputs": [
        {
          "indexed": true,
          "internalType": "uint256",
          "name": "betId",
          "type": "uint256"
        },
        {
          "indexed": true,
          "internalType": "address",
          "name": "bettor",
          "type": "address"
        },
        {
          "indexed": false,
          "internalType": "uint256",
          "name": "payout",
          "type": "uint256"
        },
        {
          "indexed": false,
          "internalType": "enum BettingSystem.BetType",
          "name": "betType",
          "type": "uint8"
        }
      ],
      "name": "BetClaimed",
      "type": "event"
    },
    {
      "anonymous": false,
      "inputs": [
        {
          "indexed": true,
          "internalType": "uint256",
          "name": "eventId",
          "type": "uint256"
        },
        {
          "indexed": false,
          "internalType": "uint256",
          "name": "henId",
          "type": "uint256"
        },
        {
          "indexed": false,
          "internalType": "uint256",
          "name": "odds",
          "type": "uint256"
        },
        {
          "indexed": false,
          "internalType": "enum BettingSystem.BetType",
          "name": "betType",
          "type": "uint8"
        }
      ],
      "name": "OddsCalculated",
      "type": "event"
    },
    {
      "anonymous": false,
      "inputs": [
        {
          "indexed": true,
          "internalType": "address",
          "name": "previousOwner",
          "type": "address"
        },
        {
          "indexed": true,
          "internalType": "address",
          "name": "newOwner",
          "type": "address"
        }
      ],
      "name": "OwnershipTransferred",
      "type": "event"
    },
    {
      "anonymous": false,
      "inputs": [
        {
          "indexed": true,
          "internalType": "uint256",
          "name": "betId",
          "type": "uint256"
        },
        {
          "indexed": true,
          "internalType": "uint256",
          "name": "raceId",
          "type": "uint256"
        },
        {
          "indexed": true,
          "internalType": "address",
          "name": "bettor",
          "type": "address"
        },
        {
          "indexed": false,
          "internalType": "uint256",
          "name": "henId",
          "type": "uint256"
        },
        {
          "indexed": false,
          "internalType": "uint256",
          "name": "amount",
          "type": "uint256"
        },
        {
          "indexed": false,
          "internalType": "uint256",
          "name": "position",
          "type": "uint256"
        }
      ],
      "name": "RaceBetPlaced",
      "type": "event"
    },
    {
      "inputs": [],
      "name": "HOUSE_FEE",
      "outputs": [
        {
          "internalType": "uint256",
          "name": "",
          "type": "uint256"
        }
      ],
      "stateMutability": "view",
      "type": "function"
    },
    {
      "inputs": [],
      "name": "MAX_BET",
      "outputs": [
        {
          "internalType": "uint256",
          "name": "",
          "type": "uint256"
        }
      ],
      "stateMutability": "view",
      "type": "function"
    },
    {
      "inputs": [],
      "name": "MIN_BET",
      "outputs": [
        {
          "internalType": "uint256",
          "name": "",
          "type": "uint256"
        }
      ],
      "stateMutability": "view",
      "type": "function"
    },
    {
      "inputs": [],
      "name": "battleBetCounter",
      "outputs": [
        {
          "internalType": "uint256",
          "name": "",
          "type": "uint256"
        }
      ],
      "stateMutability": "view",
      "type": "function"
    },
    {
      "inputs": [
        {
          "internalType": "uint256",
          "name": "",
          "type": "uint256"
        },
        {
          "internalType": "uint256",
          "name": "",
          "type": "uint256"
        }
      ],
      "name": "battleBetIds",
      "outputs": [
        {
          "internalType": "uint256",
          "name": "",
          "type": "uint256"
        }
      ],
      "stateMutability": "view",
      "type": "function"
    },
    {
      "inputs": [
        {
          "internalType": "uint256",
          "name": "",
          "type": "uint256"
        }
      ],
      "name": "battleBets",
      "outputs": [
        {
          "internalType": "uint256",
          "name": "betId",
          "type": "uint256"
        },
        {
          "internalType": "uint256",
          "name": "battleId",
          "type": "uint256"
        },
        {
          "internalType": "address",
          "name": "bettor",
          "type": "address"
        },
        {
          "internalType": "uint256",
          "name": "henId",
          "type": "uint256"
        },
        {
          "internalType": "uint256",
          "name": "amount",
          "type": "uint256"
        },
        {
          "internalType": "bool",
          "name": "claimed",
          "type": "bool"
        },
        {
          "internalType": "uint256",
          "name": "payout",
          "type": "uint256"
        }
      ],
      "stateMutability": "view",
      "type": "function"
    },
    {
      "inputs": [],
      "name": "battleContract",
      "outputs": [
        {
          "internalType": "contract IHenBattle",
          "name": "",
          "type": "address"
        }
      ],
      "stateMutability": "view",
      "type": "function"
    },
    {
      "inputs": [
        {
          "internalType": "uint256",
          "name": "",
          "type": "uint256"
        },
        {
          "internalType": "uint256",
          "name": "",
          "type": "uint256"
        }
      ],
      "name": "battlePools",
      "outputs": [
        {
          "internalType": "uint256",
          "name": "",
          "type": "uint256"
        }
      ],
      "stateMutability": "view",
      "type": "function"
    },
    {
      "inputs": [
        {
          "internalType": "uint256",
          "name": "battleId",
          "type": "uint256"
        },
        {
          "internalType": "uint256",
          "name": "henId",
          "type": "uint256"
        },
        {
          "internalType": "uint256",
          "name": "betAmount",
          "type": "uint256"
        }
      ],
      "name": "calculateBattlePayout",
      "outputs": [
        {
          "internalType": "uint256",
          "name": "",
          "type": "uint256"
        }
      ],
      "stateMutability": "view",
      "type": "function"
    },
    {
      "inputs": [
        {
          "internalType": "uint256",
          "name": "betId",
          "type": "uint256"
        }
      ],
      "name": "claimBattleBet",
      "outputs": [],
      "stateMutability": "nonpayable",
      "type": "function"
    },
    {
      "inputs": [
        {
          "internalType": "uint256",
          "name": "betId",
          "type": "uint256"
        }
      ],
      "name": "claimRaceBet",
      "outputs": [],
      "stateMutability": "nonpayable",
      "type": "function"
    },
    {
      "inputs": [
        {
          "internalType": "uint256",
          "name": "betId",
          "type": "uint256"
        }
      ],
      "name": "getBattleBet",
      "outputs": [
        {
          "components": [
            {
              "internalType": "uint256",
              "name": "betId",
              "type": "uint256"
            },
            {
              "internalType": "uint256",
              "name": "battleId",
              "type": "uint256"
            },
            {
              "internalType": "address",
              "name": "bettor",
              "type": "address"
            },
            {
              "internalType": "uint256",
              "name": "henId",
              "type": "uint256"
            },
            {
              "internalType": "uint256",
              "name": "amount",
              "type": "uint256"
            },
            {
              "internalType": "bool",
              "name": "claimed",
              "type": "bool"
            },
            {
              "internalType": "uint256",
              "name": "payout",
              "type": "uint256"
            }
          ],
          "internalType": "struct BettingSystem.BattleBet",
          "name": "",
          "type": "tuple"
        }
      ],
      "stateMutability": "view",
      "type": "function"
    },
    {
      "inputs": [
        {
          "internalType": "uint256",
          "name": "battleId",
          "type": "uint256"
        }
      ],
      "name": "getBattleBets",
      "outputs": [
        {
          "internalType": "uint256[]",
          "name": "",
          "type": "uint256[]"
        }
      ],
      "stateMutability": "view",
      "type": "function"
    },
    {
      "inputs": [
        {
          "internalType": "uint256",
          "name": "battleId",
          "type": "uint256"
        },
        {
          "internalType": "uint256",
          "name": "henId",
          "type": "uint256"
        }
      ],
      "name": "getBattleOdds",
      "outputs": [
        {
          "internalType": "uint256",
          "name": "",
          "type": "uint256"
        }
      ],
      "stateMutability": "view",
      "type": "function"
    },
    {
      "inputs": [
        {
          "internalType": "uint256",
          "name": "betId",
          "type": "uint256"
        }
      ],
      "name": "getRaceBet",
      "outputs": [
        {
          "components": [
            {
              "internalType": "uint256",
              "name": "betId",
              "type": "uint256"
            },
            {
              "internalType": "uint256",
              "name": "raceId",
              "type": "uint256"
            },
            {
              "internalType": "address",
              "name": "bettor",
              "type": "address"
            },
            {
              "internalType": "uint256",
              "name": "henId",
              "type": "uint256"
            },
            {
              "internalType": "uint256",
              "name": "amount",
              "type": "uint256"
            },
            {
              "internalType": "uint256",
              "name": "position",
              "type": "uint256"
            },
            {
              "internalType": "bool",
              "name": "claimed",
              "type": "bool"
            },
            {
              "internalType": "uint256",
              "name": "payout",
              "type": "uint256"
            }
          ],
          "internalType": "struct BettingSystem.RaceBet",
          "name": "",
          "type": "tuple"
        }
      ],
      "stateMutability": "view",
      "type": "function"
    },
    {
      "inputs": [
        {
          "internalType": "uint256",
          "name": "raceId",
          "type": "uint256"
        }
      ],
      "name": "getRaceBets",
      "outputs": [
        {
          "internalType": "uint256[]",
          "name": "",
          "type": "uint256[]"
        }
      ],
      "stateMutability": "view",
      "type": "function"
    },
    {
      "inputs": [
        {
          "internalType": "uint256",
          "name": "raceId",
          "type": "uint256"
        },
        {
          "internalType": "uint256",
          "name": "henId",
          "type": "uint256"
        }
      ],
      "name": "getRaceOdds",
      "outputs": [
        {
          "internalType": "uint256",
          "name": "",
          "type": "uint256"
        }
      ],
      "stateMutability": "view",
      "type": "function"
    },
    {
      "inputs": [
        {
          "internalType": "address",
          "name": "user",
          "type": "address"
        }
      ],
      "name": "getUserBattleBets",
      "outputs": [
        {
          "internalType": "uint256[]",
          "name": "",
          "type": "uint256[]"
        }
      ],
      "stateMutability": "view",
      "type": "function"
    },
    {
      "inputs": [
        {
          "internalType": "address",
          "name": "user",
          "type": "address"
        }
      ],
      "name": "getUserRaceBets",
      "outputs": [
        {
          "internalType": "uint256[]",
          "name": "",
          "type": "uint256[]"
        }
      ],
      "stateMutability": "view",
      "type": "function"
    },
    {
      "inputs": [
        {
          "internalType": "address",
          "name": "user",
          "type": "address"
        }
      ],
      "name": "getUserStats",
      "outputs": [
        {
          "internalType": "uint256",
          "name": "totalBattleBets",
          "type": "uint256"
        },
        {
          "internalType": "uint256",
          "name": "totalRaceBets",
          "type": "uint256"
        },
        {
          "internalType": "uint256",
          "name": "totalWagered",
          "type": "uint256"
        },
        {
          "internalType": "uint256",
          "name": "totalWon",
          "type": "uint256"
        }
      ],
      "stateMutability": "view",
      "type": "function"
    },
    {
      "inputs": [],
      "name": "owner",
      "outputs": [
        {
          "internalType": "address",
          "name": "",
          "type": "address"
        }
      ],
      "stateMutability": "view",
      "type": "function"
    },
    {
      "inputs": [
        {
          "internalType": "uint256",
          "name": "battleId",
          "type": "uint256"
        },
        {
          "internalType": "uint256",
          "name": "henId",
          "type": "uint256"
        }
      ],
      "name": "placeBattleBet",
      "outputs": [],
      "stateMutability": "payable",
      "type": "function"
    },
    {
      "inputs": [
        {
          "internalType": "uint256",
          "name": "raceId",
          "type": "uint256"
        },
        {
          "internalType": "uint256",
          "name": "henId",
          "type": "uint256"
        },
        {
          "internalType": "uint256",
          "name": "position",
          "type": "uint256"
        }
      ],
      "name": "placeRaceBet",
      "outputs": [],
      "stateMutability": "payable",
      "type": "function"
    },
    {
      "inputs": [],
      "name": "raceBetCounter",
      "outputs": [
        {
          "internalType": "uint256",
          "name": "",
          "type": "uint256"
        }
      ],
      "stateMutability": "view",
      "type": "function"
    },
    {
      "inputs": [
        {
          "internalType": "uint256",
          "name": "",
          "type": "uint256"
        },
        {
          "internalType": "uint256",
          "name": "",
          "type": "uint256"
        }
      ],
      "name": "raceBetIds",
      "outputs": [
        {
          "internalType": "uint256",
          "name": "",
          "type": "uint256"
        }
      ],
      "stateMutability": "view",
      "type": "function"
    },
    {
      "inputs": [
        {
          "internalType": "uint256",
          "name": "",
          "type": "uint256"
        }
      ],
      "name": "raceBets",
      "outputs": [
        {
          "internalType": "uint256",
          "name": "betId",
          "type": "uint256"
        },
        {
          "internalType": "uint256",
          "name": "raceId",
          "type": "uint256"
        },
        {
          "internalType": "address",
          "name": "bettor",
          "type": "address"
        },
        {
          "internalType": "uint256",
          "name": "henId",
          "type": "uint256"
        },
        {
          "internalType": "uint256",
          "name": "amount",
          "type": "uint256"
        },
        {
          "internalType": "uint256",
          "name": "position",
          "type": "uint256"
        },
        {
          "internalType": "bool",
          "name": "claimed",
          "type": "bool"
        },
        {
          "internalType": "uint256",
          "name": "payout",
          "type": "uint256"
        }
      ],
      "stateMutability": "view",
      "type": "function"
    },
    {
      "inputs": [
        {
          "internalType": "uint256",
          "name": "",
          "type": "uint256"
        },
        {
          "internalType": "uint256",
          "name": "",
          "type": "uint256"
        }
      ],
      "name": "racePools",
      "outputs": [
        {
          "internalType": "uint256",
          "name": "",
          "type": "uint256"
        }
      ],
      "stateMutability": "view",
      "type": "function"
    },
    {
      "inputs": [],
      "name": "racingContract",
      "outputs": [
        {
          "internalType": "contract IHenRacing",
          "name": "",
          "type": "address"
        }
      ],
      "stateMutability": "view",
      "type": "function"
    },
    {
      "inputs": [],
      "name": "renounceOwnership",
      "outputs": [],
      "stateMutability": "nonpayable",
      "type": "function"
    },
    {
      "inputs": [
        {
          "internalType": "address",
          "name": "newOwner",
          "type": "address"
        }
      ],
      "name": "transferOwnership",
      "outputs": [],
      "stateMutability": "nonpayable",
      "type": "function"
    },
    {
      "inputs": [
        {
          "internalType": "address",
          "name": "",
          "type": "address"
        },
        {
          "internalType": "uint256",
          "name": "",
          "type": "uint256"
        }
      ],
      "name": "userBattleBets",
      "outputs": [
        {
          "internalType": "uint256",
          "name": "",
          "type": "uint256"
        }
      ],
      "stateMutability": "view",
      "type": "function"
    },
    {
      "inputs": [
        {
          "internalType": "address",
          "name": "",
          "type": "address"
        },
        {
          "internalType": "uint256",
          "name": "",
          "type": "uint256"
        }
      ],
      "name": "userRaceBets",
      "outputs": [
        {
          "internalType": "uint256",
          "name": "",
          "type": "uint256"
        }
      ],
      "stateMutability": "view",
      "type": "function"
    },
    {
      "inputs": [],
      "name": "withdraw",
      "outputs": [],
      "stateMutability": "nonpayable",
      "type": "function"
    }
  ],
  "bytecode": "0x60806040523480156200001157600080fd5b5060405162003b2038038062003b2083398181016040528101906200003791906200021e565b620000576200004b620000e860201b60201c565b620000f060201b60201c565b6001808190555081600260006101000a81548173ffffffffffffffffffffffffffffffffffffffff021916908373ffffffffffffffffffffffffffffffffffffffff16021790555080600360006101000a81548173ffffffffffffffffffffffffffffffffffffffff021916908373ffffffffffffffffffffffffffffffffffffffff160217905550505062000265565b600033905090565b60008060009054906101000a900473ffffffffffffffffffffffffffffffffffffffff169050816000806101000a81548173ffffffffffffffffffffffffffffffffffffffff021916908373ffffffffffffffffffffffffffffffffffffffff1602179055508173ffffffffffffffffffffffffffffffffffffffff168173ffffffffffffffffffffffffffffffffffffffff167f8be0079c531659141344cd1fd0a4f28419497f9722a3daafe3b4186f6b6457e060405160405180910390a35050565b600080fd5b600073ffffffffffffffffffffffffffffffffffffffff82169050919050565b6000620001e682620001b9565b9050919050565b620001f881620001d9565b81146200020457600080fd5b50565b6000815190506200021881620001ed565b92915050565b60008060408385031215620002385762000237620001b4565b5b6000620002488582860162000207565b92505060206200025b8582860162000207565b9150509250929050565b6138ab80620002756000396000f3fe6080604052600436106101ee5760003560e01c80636c7858711161010d578063a24e67cd116100a0578063dbaea9981161006f578063dbaea9981461079c578063e5534aef146107c7578063ee36650b146107e3578063f2fde38b14610820578063fb5d414214610849576101ee565b8063a24e67cd146106ba578063ade5f324146106f7578063b70ff01914610722578063d45b3ccb1461075f576101ee565b80637fe23497116100dc5780637fe234971461061f57806388c057d41461063b57806389d796e4146106645780638da5cb5b1461068f576101ee565b80636c78587114610563578063715018a6146105a0578063716bfd8c146105b75780637e95b523146105f4576101ee565b80634056fa4611610185578063510619cf11610154578063510619cf14610481578063597813db146104be5780635f9101b1146104fb5780636540742f14610538576101ee565b80634056fa4614610395578063423b1ca3146103d957806349bccfed146104045780634e43603a14610441576101ee565b80632380597c116101c15780632380597c146102c157806326eacadb146102fe5780633a35c68e146103415780633ccfd60b1461037e576101ee565b806307388e3b146101f3578063185b071d146102305780631dcbb5b91461025b578063214d0dc914610284575b600080fd5b3480156101ff57600080fd5b5061021a600480360381019061021591906127e6565b610886565b6040516102279190612835565b60405180910390f35b34801561023c57600080fd5b506102456108ab565b6040516102529190612835565b60405180910390f35b34801561026757600080fd5b50610282600480360381019061027d9190612850565b6108b1565b005b34801561029057600080fd5b506102ab60048036038101906102a69190612850565b610cf3565b6040516102b89190612976565b60405180910390f35b3480156102cd57600080fd5b506102e860048036038101906102e39190612850565b610dc3565b6040516102f59190612a40565b60405180910390f35b34801561030a57600080fd5b5061032560048036038101906103209190612850565b610e2e565b6040516103389796959493929190612a80565b60405180910390f35b34801561034d57600080fd5b5061036860048036038101906103639190612b1b565b610e9d565b6040516103759190612835565b60405180910390f35b34801561038a57600080fd5b50610393610ece565b005b3480156103a157600080fd5b506103bc60048036038101906103b79190612850565b610f92565b6040516103d0989796959493929190612b5b565b60405180910390f35b3480156103e557600080fd5b506103ee611007565b6040516103fb9190612c38565b60405180910390f35b34801561041057600080fd5b5061042b60048036038101906104269190612b1b565b61102d565b6040516104389190612835565b60405180910390f35b34801561044d57600080fd5b5061046860048036038101906104639190612c53565b61105e565b6040516104789493929190612c80565b60405180910390f35b34801561048d57600080fd5b506104a860048036038101906104a39190612cc5565b61146e565b6040516104b59190612835565b60405180910390f35b3480156104ca57600080fd5b506104e560048036038101906104e091906127e6565b611604565b6040516104f29190612835565b60405180910390f35b34801561050757600080fd5b50610522600480360381019061051d91906127e6565b61176e565b60405161052f9190612835565b60405180910390f35b34801561054457600080fd5b5061054d61179f565b60405161055a9190612835565b60405180910390f35b34801561056f57600080fd5b5061058a600480360381019061058591906127e6565b6117aa565b6040516105979190612835565b60405180910390f35b3480156105ac57600080fd5b506105b5611821565b005b3480156105c357600080fd5b506105de60048036038101906105d991906127e6565b611835565b6040516105eb9190612835565b60405180910390f35b34801561060057600080fd5b5061060961185a565b6040516106169190612835565b60405180910390f35b610639600480360381019061063491906127e6565b611866565b005b34801561064757600080fd5b50610662600480360381019061065d9190612850565b611c5f565b005b34801561067057600080fd5b50610679611ea9565b6040516106869190612d39565b60405180910390f35b34801561069b57600080fd5b506106a4611ecf565b6040516106b19190612d54565b60405180910390f35b3480156106c657600080fd5b506106e160048036038101906106dc9190612c53565b611ef8565b6040516106ee9190612a40565b60405180910390f35b34801561070357600080fd5b5061070c611f8f565b6040516107199190612835565b60405180910390f35b34801561072e57600080fd5b5061074960048036038101906107449190612850565b611f95565b6040516107569190612e11565b60405180910390f35b34801561076b57600080fd5b5061078660048036038101906107819190612850565b612070565b6040516107939190612a40565b60405180910390f35b3480156107a857600080fd5b506107b16120db565b6040516107be9190612835565b60405180910390f35b6107e160048036038101906107dc9190612cc5565b6120e0565b005b3480156107ef57600080fd5b5061080a600480360381019061080591906127e6565b612402565b6040516108179190612835565b60405180910390f35b34801561082c57600080fd5b5061084760048036038101906108429190612c53565b612433565b005b34801561085557600080fd5b50610870600480360381019061086b9190612c53565b6124b6565b60405161087d9190612a40565b60405180910390f35b600c602052816000526040600020602052806000526040600020600091509150505481565b600a5481565b6108b961254d565b60006004600083815260200190815260200160002090503373ffffffffffffffffffffffffffffffffffffffff168160020160009054906101000a900473ffffffffffffffffffffffffffffffffffffffff1673ffffffffffffffffffffffffffffffffffffffff1614610962576040517f08c379a000000000000000000000000000000000000000000000000000000000815260040161095990612e8a565b60405180910390fd5b8060050160009054906101000a900460ff16156109b4576040517f08c379a00000000000000000000000000000000000000000000000000000000081526004016109ab90612ef6565b60405180910390fd5b6000600260009054906101000a900473ffffffffffffffffffffffffffffffffffffffff1673ffffffffffffffffffffffffffffffffffffffff16636dd0ce7a83600101546040518263ffffffff1660e01b8152600401610a159190612835565b61014060405180830381865afa158015610a33573d6000803e3d6000fd5b505050506040513d601f19601f82011682018060405250810190610a5791906130f3565b9050806101000151610a9e576040517f08c379a0000000000000000000000000000000000000000000000000000000008152600401610a959061316d565b60405180910390fd5b81600301548160e0015103610cbe576000600c60008460010154815260200190815260200160002060008360400151815260200190815260200160002054600c60008560010154815260200190815260200160002060008460200151815260200190815260200160002054610b1391906131bc565b90506000600c60008560010154815260200190815260200160002060008560030154815260200190815260200160002054905060006127106064612710610b5a91906131f0565b84610b659190613224565b610b6f9190613295565b9050600082828760040154610b849190613224565b610b8e9190613295565b905080866006018190555060018660050160006101000a81548160ff02191690831515021790555060003373ffffffffffffffffffffffffffffffffffffffff1682604051610bdc906132f7565b60006040518083038185875af1925050503d8060008114610c19576040519150601f19603f3d011682016040523d82523d6000602084013e610c1e565b606091505b5050905080610c62576040517f08c379a0000000000000000000000000000000000000000000000000000000008152600401610c5990613358565b60405180910390fd5b3373ffffffffffffffffffffffffffffffffffffffff16887f73b6c67a10640019fcd7c6d59e7655875d26fc22beea176c2c90bd66cc8dfbe0846000604051610cac9291906133ef565b60405180910390a35050505050610ce6565b60018260050160006101000a81548160ff021916908315150217905550600082600601819055505b5050610cf061259c565b50565b610cfb6126ef565b600460008381526020019081526020016000206040518060e001604052908160008201548152602001600182015481526020016002820160009054906101000a900473ffffffffffffffffffffffffffffffffffffffff1673ffffffffffffffffffffffffffffffffffffffff1673ffffffffffffffffffffffffffffffffffffffff16815260200160038201548152602001600482015481526020016005820160009054906101000a900460ff161515151581526020016006820154815250509050919050565b606060076000838152602001908152602001600020805480602002602001604051908101604052809291908181526020018280548015610e2257602002820191906000526020600020905b815481526020019060010190808311610e0e575b50505050509050919050565b60046020528060005260406000206000915090508060000154908060010154908060020160009054906101000a900473ffffffffffffffffffffffffffffffffffffffff16908060030154908060040154908060050160009054906101000a900460ff16908060060154905087565b60096020528160005260406000208181548110610eb957600080fd5b90600052602060002001600091509150505481565b610ed66125a5565b60004790506000610ee5611ecf565b73ffffffffffffffffffffffffffffffffffffffff1682604051610f08906132f7565b60006040518083038185875af1925050503d8060008114610f45576040519150601f19603f3d011682016040523d82523d6000602084013e610f4a565b606091505b5050905080610f8e576040517f08c379a0000000000000000000000000000000000000000000000000000000008152600401610f8590613464565b60405180910390fd5b5050565b60056020528060005260406000206000915090508060000154908060010154908060020160009054906101000a900473ffffffffffffffffffffffffffffffffffffffff16908060030154908060040154908060050154908060060160009054906101000a900460ff16908060070154905088565b600260009054906101000a900473ffffffffffffffffffffffffffffffffffffffff1681565b6008602052816000526040600020818154811061104957600080fd5b90600052602060002001600091509150505481565b600080600080600860008673ffffffffffffffffffffffffffffffffffffffff1673ffffffffffffffffffffffffffffffffffffffff168152602001908152602001600020805490509350600960008673ffffffffffffffffffffffffffffffffffffffff1673ffffffffffffffffffffffffffffffffffffffff16815260200190815260200160002080549050925060005b600860008773ffffffffffffffffffffffffffffffffffffffff1673ffffffffffffffffffffffffffffffffffffffff168152602001908152602001600020805490508110156112a4576000600860008873ffffffffffffffffffffffffffffffffffffffff1673ffffffffffffffffffffffffffffffffffffffff168152602001908152602001600020828154811061118e5761118d613484565b5b906000526020600020015490506000600460008381526020019081526020016000206040518060e001604052908160008201548152602001600182015481526020016002820160009054906101000a900473ffffffffffffffffffffffffffffffffffffffff1673ffffffffffffffffffffffffffffffffffffffff1673ffffffffffffffffffffffffffffffffffffffff16815260200160038201548152602001600482015481526020016005820160009054906101000a900460ff16151515158152602001600682015481525050905080608001518561127091906131bc565b94508060a001511561128f578060c001518461128c91906131bc565b93505b5050808061129c906134b3565b9150506110f1565b5060005b600960008773ffffffffffffffffffffffffffffffffffffffff1673ffffffffffffffffffffffffffffffffffffffff16815260200190815260200160002080549050811015611466576000600960008873ffffffffffffffffffffffffffffffffffffffff1673ffffffffffffffffffffffffffffffffffffffff168152602001908152602001600020828154811061134557611344613484565b5b906000526020600020015490506000600560008381526020019081526020016000206040518061010001604052908160008201548152602001600182015481526020016002820160009054906101000a900473ffffffffffffffffffffffffffffffffffffffff1673ffffffffffffffffffffffffffffffffffffffff1673ffffffffffffffffffffffffffffffffffffffff1681526020016003820154815260200160048201548152602001600582015481526020016006820160009054906101000a900460ff16151515158152602001600782015481525050905080608001518561143291906131bc565b94508060c0015115611451578060e001518461144e91906131bc565b93505b5050808061145e906134b3565b9150506112a8565b509193509193565b600080600260009054906101000a900473ffffffffffffffffffffffffffffffffffffffff1673ffffffffffffffffffffffffffffffffffffffff16636dd0ce7a866040518263ffffffff1660e01b81526004016114cc9190612835565b61014060405180830381865afa1580156114ea573d6000803e3d6000fd5b505050506040513d601f19601f8201168201806040525081019061150e91906130f3565b9050600083600c600088815260200190815260200160002060008460400151815260200190815260200160002054600c60008981526020019081526020016000206000856020015181526020019081526020016000205461156f91906131bc565b61157991906131bc565b9050600084600c60008981526020019081526020016000206000888152602001908152602001600020546115ad91906131bc565b9050600061271060646127106115c391906131f0565b846115ce9190613224565b6115d89190613295565b905060008282886115e99190613224565b6115f39190613295565b905080955050505050509392505050565b600080600260009054906101000a900473ffffffffffffffffffffffffffffffffffffffff1673ffffffffffffffffffffffffffffffffffffffff16636dd0ce7a856040518263ffffffff1660e01b81526004016116629190612835565b61014060405180830381865afa158015611680573d6000803e3d6000fd5b505050506040513d601f19601f820116820180604052508101906116a491906130f3565b90506000600c600086815260200190815260200160002060008360400151815260200190815260200160002054600c60008781526020019081526020016000206000846020015181526020019081526020016000205461170491906131bc565b90506000600c6000878152602001908152602001600020600086815260200190815260200160002054905060008103611744576127109350505050611768565b6000816064846117549190613224565b61175e9190613295565b9050809450505050505b92915050565b6006602052816000526040600020818154811061178a57600080fd5b90600052602060002001600091509150505481565b66038d7ea4c6800081565b600080600d60008581526020019081526020016000206000848152602001908152602001600020549050600081036117e75761271091505061181b565b60006005826117f69190613224565b90506000826064836118089190613224565b6118129190613295565b90508093505050505b92915050565b6118296125a5565b6118336000612623565b565b600d602052816000526040600020602052806000526040600020600091509150505481565b678ac7230489e8000081565b61186e61254d565b66038d7ea4c68000341015801561188d5750678ac7230489e800003411155b6118cc576040517f08c379a00000000000000000000000000000000000000000000000000000000081526004016118c390613547565b60405180910390fd5b6000600260009054906101000a900473ffffffffffffffffffffffffffffffffffffffff1673ffffffffffffffffffffffffffffffffffffffff16636dd0ce7a846040518263ffffffff1660e01b81526004016119299190612835565b61014060405180830381865afa158015611947573d6000803e3d6000fd5b505050506040513d601f19601f8201168201806040525081019061196b91906130f3565b9050806101000151156119b3576040517f08c379a00000000000000000000000000000000000000000000000000000000081526004016119aa906135b3565b60405180910390fd5b81816020015114806119c85750818160400151145b611a07576040517f08c379a00000000000000000000000000000000000000000000000000000000081526004016119fe9061361f565b60405180910390fd5b600a6000815480929190611a1a906134b3565b91905055506040518060e00160405280600a5481526020018481526020013373ffffffffffffffffffffffffffffffffffffffff168152602001838152602001348152602001600015158152602001600081525060046000600a548152602001908152602001600020600082015181600001556020820151816001015560408201518160020160006101000a81548173ffffffffffffffffffffffffffffffffffffffff021916908373ffffffffffffffffffffffffffffffffffffffff160217905550606082015181600301556080820151816004015560a08201518160050160006101000a81548160ff02191690831515021790555060c0820151816006015590505060066000848152602001908152602001600020600a549080600181540180825580915050600190039060005260206000200160009091909190915055600860003373ffffffffffffffffffffffffffffffffffffffff1673ffffffffffffffffffffffffffffffffffffffff168152602001908152602001600020600a54908060018154018082558091505060019003906000526020600020016000909190919091505534600c600085815260200190815260200160002060008481526020019081526020016000206000828254611bf791906131bc565b925050819055503373ffffffffffffffffffffffffffffffffffffffff1683600a547fc6d6cb8d584fb225148401889c091c730fad2ba049c8ff335cbf41bdda4797948534604051611c4a92919061363f565b60405180910390a450611c5b61259c565b5050565b611c6761254d565b60006005600083815260200190815260200160002090503373ffffffffffffffffffffffffffffffffffffffff168160020160009054906101000a900473ffffffffffffffffffffffffffffffffffffffff1673ffffffffffffffffffffffffffffffffffffffff1614611d10576040517f08c379a0000000000000000000000000000000000000000000000000000000008152600401611d0790612e8a565b60405180910390fd5b8060060160009054906101000a900460ff1615611d62576040517f08c379a0000000000000000000000000000000000000000000000000000000008152600401611d5990612ef6565b60405180910390fd5b60018160060160006101000a81548160ff021916908315150217905550600060028260040154611d929190613224565b905080826007018190555060003373ffffffffffffffffffffffffffffffffffffffff1682604051611dc3906132f7565b60006040518083038185875af1925050503d8060008114611e00576040519150601f19603f3d011682016040523d82523d6000602084013e611e05565b606091505b5050905080611e49576040517f08c379a0000000000000000000000000000000000000000000000000000000008152600401611e4090613358565b60405180910390fd5b3373ffffffffffffffffffffffffffffffffffffffff16847f73b6c67a10640019fcd7c6d59e7655875d26fc22beea176c2c90bd66cc8dfbe0846001604051611e939291906133ef565b60405180910390a3505050611ea661259c565b50565b600360009054906101000a900473ffffffffffffffffffffffffffffffffffffffff1681565b60008060009054906101000a900473ffffffffffffffffffffffffffffffffffffffff16905090565b6060600960008373ffffffffffffffffffffffffffffffffffffffff1673ffffffffffffffffffffffffffffffffffffffff168152602001908152602001600020805480602002602001604051908101604052809291908181526020018280548015611f8357602002820191906000526020600020905b815481526020019060010190808311611f6f575b50505050509050919050565b600b5481565b611f9d612744565b600560008381526020019081526020016000206040518061010001604052908160008201548152602001600182015481526020016002820160009054906101000a900473ffffffffffffffffffffffffffffffffffffffff1673ffffffffffffffffffffffffffffffffffffffff1673ffffffffffffffffffffffffffffffffffffffff1681526020016003820154815260200160048201548152602001600582015481526020016006820160009054906101000a900460ff161515151581526020016007820154815250509050919050565b6060600660008381526020019081526020016000208054806020026020016040519081016040528092919081815260200182805480156120cf57602002820191906000526020600020905b8154815260200190600101908083116120bb575b50505050509050919050565b606481565b6120e861254d565b66038d7ea4c6800034101580156121075750678ac7230489e800003411155b612146576040517f08c379a000000000000000000000000000000000000000000000000000000000815260040161213d90613547565b60405180910390fd5b60018110158015612158575060038111155b612197576040517f08c379a000000000000000000000000000000000000000000000000000000000815260040161218e906136b4565b60405180910390fd5b600b60008154809291906121aa906134b3565b9190505550604051806101000160405280600b5481526020018481526020013373ffffffffffffffffffffffffffffffffffffffff168152602001838152602001348152602001828152602001600015158152602001600081525060056000600b548152602001908152602001600020600082015181600001556020820151816001015560408201518160020160006101000a81548173ffffffffffffffffffffffffffffffffffffffff021916908373ffffffffffffffffffffffffffffffffffffffff160217905550606082015181600301556080820151816004015560a0820151816005015560c08201518160060160006101000a81548160ff02191690831515021790555060e0820151816007015590505060076000848152602001908152602001600020600b549080600181540180825580915050600190039060005260206000200160009091909190915055600960003373ffffffffffffffffffffffffffffffffffffffff1673ffffffffffffffffffffffffffffffffffffffff168152602001908152602001600020600b54908060018154018082558091505060019003906000526020600020016000909190919091505534600d60008581526020019081526020016000206000848152602001908152602001600020600082825461239891906131bc565b925050819055503373ffffffffffffffffffffffffffffffffffffffff1683600b547f97b2de67b2c139b864576794573311a4ad82b73d78d0bf1e08ca782fc1540e368534866040516123ed939291906136d4565b60405180910390a46123fd61259c565b505050565b6007602052816000526040600020818154811061241e57600080fd5b90600052602060002001600091509150505481565b61243b6125a5565b600073ffffffffffffffffffffffffffffffffffffffff168173ffffffffffffffffffffffffffffffffffffffff16036124aa576040517f08c379a00000000000000000000000000000000000000000000000000000000081526004016124a19061377d565b60405180910390fd5b6124b381612623565b50565b6060600860008373ffffffffffffffffffffffffffffffffffffffff1673ffffffffffffffffffffffffffffffffffffffff16815260200190815260200160002080548060200260200160405190810160405280929190818152602001828054801561254157602002820191906000526020600020905b81548152602001906001019080831161252d575b50505050509050919050565b600260015403612592576040517f08c379a0000000000000000000000000000000000000000000000000000000008152600401612589906137e9565b60405180910390fd5b6002600181905550565b60018081905550565b6125ad6126e7565b73ffffffffffffffffffffffffffffffffffffffff166125cb611ecf565b73ffffffffffffffffffffffffffffffffffffffff1614612621576040517f08c379a000000000000000000000000000000000000000000000000000000000815260040161261890613855565b60405180910390fd5b565b60008060009054906101000a900473ffffffffffffffffffffffffffffffffffffffff169050816000806101000a81548173ffffffffffffffffffffffffffffffffffffffff021916908373ffffffffffffffffffffffffffffffffffffffff1602179055508173ffffffffffffffffffffffffffffffffffffffff168173ffffffffffffffffffffffffffffffffffffffff167f8be0079c531659141344cd1fd0a4f28419497f9722a3daafe3b4186f6b6457e060405160405180910390a35050565b600033905090565b6040518060e001604052806000815260200160008152602001600073ffffffffffffffffffffffffffffffffffffffff1681526020016000815260200160008152602001600015158152602001600081525090565b6040518061010001604052806000815260200160008152602001600073ffffffffffffffffffffffffffffffffffffffff168152602001600081526020016000815260200160008152602001600015158152602001600081525090565b6000604051905090565b600080fd5b6000819050919050565b6127c3816127b0565b81146127ce57600080fd5b50565b6000813590506127e0816127ba565b92915050565b600080604083850312156127fd576127fc6127ab565b5b600061280b858286016127d1565b925050602061281c858286016127d1565b9150509250929050565b61282f816127b0565b82525050565b600060208201905061284a6000830184612826565b92915050565b600060208284031215612866576128656127ab565b5b6000612874848285016127d1565b91505092915050565b612886816127b0565b82525050565b600073ffffffffffffffffffffffffffffffffffffffff82169050919050565b60006128b78261288c565b9050919050565b6128c7816128ac565b82525050565b60008115159050919050565b6128e2816128cd565b82525050565b60e0820160008201516128fe600085018261287d565b506020820151612911602085018261287d565b50604082015161292460408501826128be565b506060820151612937606085018261287d565b50608082015161294a608085018261287d565b5060a082015161295d60a08501826128d9565b5060c082015161297060c085018261287d565b50505050565b600060e08201905061298b60008301846128e8565b92915050565b600081519050919050565b600082825260208201905092915050565b6000819050602082019050919050565b60006129c9838361287d565b60208301905092915050565b6000602082019050919050565b60006129ed82612991565b6129f7818561299c565b9350612a02836129ad565b8060005b83811015612a33578151612a1a88826129bd565b9750612a25836129d5565b925050600181019050612a06565b5085935050505092915050565b60006020820190508181036000830152612a5a81846129e2565b905092915050565b612a6b816128ac565b82525050565b612a7a816128cd565b82525050565b600060e082019050612a95600083018a612826565b612aa26020830189612826565b612aaf6040830188612a62565b612abc6060830187612826565b612ac96080830186612826565b612ad660a0830185612a71565b612ae360c0830184612826565b98975050505050505050565b612af8816128ac565b8114612b0357600080fd5b50565b600081359050612b1581612aef565b92915050565b60008060408385031215612b3257612b316127ab565b5b6000612b4085828601612b06565b9250506020612b51858286016127d1565b9150509250929050565b600061010082019050612b71600083018b612826565b612b7e602083018a612826565b612b8b6040830189612a62565b612b986060830188612826565b612ba56080830187612826565b612bb260a0830186612826565b612bbf60c0830185612a71565b612bcc60e0830184612826565b9998505050505050505050565b6000819050919050565b6000612bfe612bf9612bf48461288c565b612bd9565b61288c565b9050919050565b6000612c1082612be3565b9050919050565b6000612c2282612c05565b9050919050565b612c3281612c17565b82525050565b6000602082019050612c4d6000830184612c29565b92915050565b600060208284031215612c6957612c686127ab565b5b6000612c7784828501612b06565b91505092915050565b6000608082019050612c956000830187612826565b612ca26020830186612826565b612caf6040830185612826565b612cbc6060830184612826565b95945050505050565b600080600060608486031215612cde57612cdd6127ab565b5b6000612cec868287016127d1565b9350506020612cfd868287016127d1565b9250506040612d0e868287016127d1565b9150509250925092565b6000612d2382612c05565b9050919050565b612d3381612d18565b82525050565b6000602082019050612d4e6000830184612d2a565b92915050565b6000602082019050612d696000830184612a62565b92915050565b61010082016000820151612d86600085018261287d565b506020820151612d99602085018261287d565b506040820151612dac60408501826128be565b506060820151612dbf606085018261287d565b506080820151612dd2608085018261287d565b5060a0820151612de560a085018261287d565b5060c0820151612df860c08501826128d9565b5060e0820151612e0b60e085018261287d565b50505050565b600061010082019050612e276000830184612d6f565b92915050565b600082825260208201905092915050565b7f4e6f7420796f7572206265740000000000000000000000000000000000000000600082015250565b6000612e74600c83612e2d565b9150612e7f82612e3e565b602082019050919050565b60006020820190508181036000830152612ea381612e67565b9050919050565b7f416c726561647920636c61696d65640000000000000000000000000000000000600082015250565b6000612ee0600f83612e2d565b9150612eeb82612eaa565b602082019050919050565b60006020820190508181036000830152612f0f81612ed3565b9050919050565b600080fd5b6000601f19601f8301169050919050565b7f4e487b7100000000000000000000000000000000000000000000000000000000600052604160045260246000fd5b612f6482612f1b565b810181811067ffffffffffffffff82111715612f8357612f82612f2c565b5b80604052505050565b6000612f966127a1565b9050612fa28282612f5b565b919050565b600081519050612fb6816127ba565b92915050565b600081519050612fcb81612aef565b92915050565b612fda816128cd565b8114612fe557600080fd5b50565b600081519050612ff781612fd1565b92915050565b6000610140828403121561301457613013612f16565b5b61301f610140612f8c565b9050600061302f84828501612fa7565b600083015250602061304384828501612fa7565b602083015250604061305784828501612fa7565b604083015250606061306b84828501612fbc565b606083015250608061307f84828501612fbc565b60808301525060a061309384828501612fa7565b60a08301525060c06130a784828501612fa7565b60c08301525060e06130bb84828501612fa7565b60e0830152506101006130d084828501612fe8565b610100830152506101206130e684828501612fa7565b6101208301525092915050565b6000610140828403121561310a576131096127ab565b5b600061311884828501612ffd565b91505092915050565b7f426174746c65206e6f7420636f6d706c65746500000000000000000000000000600082015250565b6000613157601383612e2d565b915061316282613121565b602082019050919050565b600060208201905081810360008301526131868161314a565b9050919050565b7f4e487b7100000000000000000000000000000000000000000000000000000000600052601160045260246000fd5b60006131c7826127b0565b91506131d2836127b0565b92508282019050808211156131ea576131e961318d565b5b92915050565b60006131fb826127b0565b9150613206836127b0565b925082820390508181111561321e5761321d61318d565b5b92915050565b600061322f826127b0565b915061323a836127b0565b9250828202613248816127b0565b9150828204841483151761325f5761325e61318d565b5b5092915050565b7f4e487b7100000000000000000000000000000000000000000000000000000000600052601260045260246000fd5b60006132a0826127b0565b91506132ab836127b0565b9250826132bb576132ba613266565b5b828204905092915050565b600081905092915050565b50565b60006132e16000836132c6565b91506132ec826132d1565b600082019050919050565b6000613302826132d4565b9150819050919050565b7f5061796f7574206661696c656400000000000000000000000000000000000000600082015250565b6000613342600d83612e2d565b915061334d8261330c565b602082019050919050565b6000602082019050818103600083015261337181613335565b9050919050565b7f4e487b7100000000000000000000000000000000000000000000000000000000600052602160045260246000fd5b600281106133b8576133b7613378565b5b50565b60008190506133c9826133a7565b919050565b60006133d9826133bb565b9050919050565b6133e9816133ce565b82525050565b60006040820190506134046000830185612826565b61341160208301846133e0565b9392505050565b7f5769746864726177616c206661696c6564000000000000000000000000000000600082015250565b600061344e601183612e2d565b915061345982613418565b602082019050919050565b6000602082019050818103600083015261347d81613441565b9050919050565b7f4e487b7100000000000000000000000000000000000000000000000000000000600052603260045260246000fd5b60006134be826127b0565b91507fffffffffffffffffffffffffffffffffffffffffffffffffffffffffffffffff82036134f0576134ef61318d565b5b600182019050919050565b7f496e76616c69642062657420616d6f756e740000000000000000000000000000600082015250565b6000613531601283612e2d565b915061353c826134fb565b602082019050919050565b6000602082019050818103600083015261356081613524565b9050919050565b7f426174746c6520616c726561647920636f6d706c657465000000000000000000600082015250565b600061359d601783612e2d565b91506135a882613567565b602082019050919050565b600060208201905081810360008301526135cc81613590565b9050919050565b7f496e76616c69642068656e000000000000000000000000000000000000000000600082015250565b6000613609600b83612e2d565b9150613614826135d3565b602082019050919050565b60006020820190508181036000830152613638816135fc565b9050919050565b60006040820190506136546000830185612826565b6136616020830184612826565b9392505050565b7f506f736974696f6e206d75737420626520312d33000000000000000000000000600082015250565b600061369e601483612e2d565b91506136a982613668565b602082019050919050565b600060208201905081810360008301526136cd81613691565b9050919050565b60006060820190506136e96000830186612826565b6136f66020830185612826565b6137036040830184612826565b949350505050565b7f4f776e61626c653a206e6577206f776e657220697320746865207a65726f206160008201527f6464726573730000000000000000000000000000000000000000000000000000602082015250565b6000613767602683612e2d565b91506137728261370b565b604082019050919050565b600060208201905081810360008301526137968161375a565b9050919050565b7f5265656e7472616e637947756172643a207265656e7472616e742063616c6c00600082015250565b60006137d3601f83612e2d565b91506137de8261379d565b602082019050919050565b60006020820190508181036000830152613802816137c6565b9050919050565b7f4f776e61626c653a2063616c6c6572206973206e6f7420746865206f776e6572600082015250565b600061383f602083612e2d565b915061384a82613809565b602082019050919050565b6000602082019050818103600083015261386e81613832565b905091905056fea2646970667358221220f18de833f0fcd480ea0f523e3328c20945fb35abd302cfbd14a1fb1f3b3f21f864736f6c63430008140033",
  "linkReferences": {},
  "deployedLinkReferences": {}
}