{
  "_format": "hh-sol-artifact-1",
  "contractName": "HenNFT",
  "sourceName": "contracts/HenNFT.sol",
  "abi": [
    {
      "inputs": [],
      "stateMutability": "nonpayable",
      "type": "constructor"
    },
    {
      "anonymous": false,
      "inputs": [
        {
          "indexed": true,
          "internalType": "address",
          "name": "owner",
          "type": "address"
        },
        {
          "indexed": true,
          "internalType": "address",
          "name": "approved",
          "type": "address"
        },
        {
          "indexed": true,
          "internalType": "uint256",
          "name": "tokenId",
          "type": "uint256"
        }
      ],
      "name": "Approval",
      "type": "event"
    },
    {
      "anonymous": false,
      "inputs": [
        {
          "indexed": true,
          "internalType": "address",
          "name": "owner",
          "type": "address"
        },
        {
          "indexed": true,
          "internalType": "address",
          "name": "operator",
          "type": "address"
        },
        {
          "indexed": false,
          "internalType": "bool",
          "name": "approved",
          "type": "bool"
        }
      ],
      "name": "ApprovalForAll",
      "type": "event"
    },
    {
      "anonymous": false,
      "inputs": [
        {
          "indexed": false,
          "internalType": "uint256",
          "name": "_fromTokenId",
          "type": "uint256"
        },
        {
          "indexed": false,
          "internalType": "uint256",
          "name": "_toTokenId",
          "type": "uint256"
        }
      ],
      "name": "BatchMetadataUpdate",
      "type": "event"
    },
    {
      "anonymous": false,
      "inputs": [
        {
          "indexed": true,
          "internalType": "uint256",
          "name": "henId",
          "type": "uint256"
        },
        {
          "indexed": false,
          "internalType": "bool",
          "name": "won",
          "type": "bool"
        }
      ],
      "name": "BattleResult",
      "type": "event"
    },
    {
      "anonymous": false,
      "inputs": [
        {
          "indexed": true,
          "internalType": "uint256",
          "name": "tokenId",
          "type": "uint256"
        },
        {
          "indexed": true,
          "internalType": "address",
          "name": "seller",
          "type": "address"
        }
      ],
      "name": "HenDelisted",
      "type": "event"
    },
    {
      "anonymous": false,
      "inputs": [
        {
          "indexed": true,
          "internalType": "uint256",
          "name": "tokenId",
          "type": "uint256"
        },
        {
          "indexed": false,
          "internalType": "uint256",
          "name": "price",
          "type": "uint256"
        },
        {
          "indexed": true,
          "internalType": "address",
          "name": "seller",
          "type": "address"
        }
      ],
      "name": "HenListed",
      "type": "event"
    },
    {
      "anonymous": false,
      "inputs": [
        {
          "indexed": true,
          "internalType": "uint256",
          "name": "tokenId",
          "type": "uint256"
        },
        {
          "indexed": true,
          "internalType": "address",
          "name": "owner",
          "type": "address"
        },
        {
          "components": [
            {
              "internalType": "uint8",
              "name": "strength",
              "type": "uint8"
            },
            {
              "internalType": "uint8",
              "name": "speed",
              "type": "uint8"
            },
            {
              "internalType": "uint8",
              "name": "stamina",
              "type": "uint8"
            },
            {
              "internalType": "uint8",
              "name": "intelligence",
              "type": "uint8"
            },
            {
              "internalType": "uint8",
              "name": "luck",
              "type": "uint8"
            },
            {
              "internalType": "uint8",
              "name": "generation",
              "type": "uint8"
            },
            {
              "internalType": "uint256",
              "name": "birthTime",
              "type": "uint256"
            },
            {
              "internalType": "uint256",
              "name": "lastBreedTime",
              "type": "uint256"
            },
            {
              "internalType": "uint256",
              "name": "wins",
              "type": "uint256"
            },
            {
              "internalType": "uint256",
              "name": "losses",
              "type": "uint256"
            },
            {
              "internalType": "uint256",
              "name": "racesWon",
              "type": "uint256"
            },
            {
              "internalType": "bool",
              "name": "isAlive",
              "type": "bool"
            }
          ],
          "indexed": false,
          "internalType": "struct HenNFT.HenTraits",
          "name": "traits",
          "type": "tuple"
        }
      ],
      "name": "HenMinted",
      "type": "event"
    },
    {
      "anonymous": false,
      "inputs": [
        {
          "indexed": true,
          "internalType": "uint256",
          "name": "tokenId",
          "type": "uint256"
        },
        {
          "indexed": true,
          "internalType": "address",
          "name": "from",
          "type": "address"
        },
        {
          "indexed": true,
          "internalType": "address",
          "name": "to",
          "type": "address"
        },
        {
          "indexed": false,
          "internalType": "uint256",
          "name": "price",
          "type": "uint256"
        }
      ],
      "name": "HenSold",
      "type": "event"
    },
    {
      "anonymous": false,
      "inputs": [
        {
          "indexed": false,
          "internalType": "uint256",
          "name": "_tokenId",
          "type": "uint256"
        }
      ],
      "name": "MetadataUpdate",
      "type": "event"
    },
    {
      "anonymous": false,
      "inputs": [
        {
          "indexed": true,
          "internalType": "address",
          "name": "previousOwner",
          "type": "address"
        },
        {
          "indexed": true,
          "internalType": "address",
          "name": "newOwner",
          "type": "address"
        }
      ],
      "name": "OwnershipTransferred",
      "type": "event"
    },
    {
      "anonymous": false,
      "inputs": [
        {
          "indexed": true,
          "internalType": "address",
          "name": "from",
          "type": "address"
        },
        {
          "indexed": true,
          "internalType": "address",
          "name": "to",
          "type": "address"
        },
        {
          "indexed": true,
          "internalType": "uint256",
          "name": "tokenId",
          "type": "uint256"
        }
      ],
      "name": "Transfer",
      "type": "event"
    },
    {
      "inputs": [],
      "name": "MARKETPLACE_FEE",
      "outputs": [
        {
          "internalType": "uint256",
          "name": "",
          "type": "uint256"
        }
      ],
      "stateMutability": "view",
      "type": "function"
    },
    {
      "inputs": [],
      "name": "MAX_SUPPLY",
      "outputs": [
        {
          "internalType": "uint256",
          "name": "",
          "type": "uint256"
        }
      ],
      "stateMutability": "view",
      "type": "function"
    },
    {
      "inputs": [],
      "name": "MINT_PRICE",
      "outputs": [
        {
          "internalType": "uint256",
          "name": "",
          "type": "uint256"
        }
      ],
      "stateMutability": "view",
      "type": "function"
    },
    {
      "inputs": [
        {
          "internalType": "address",
          "name": "to",
          "type": "address"
        },
        {
          "internalType": "uint256",
          "name": "tokenId",
          "type": "uint256"
        }
      ],
      "name": "approve",
      "outputs": [],
      "stateMutability": "nonpayable",
      "type": "function"
    },
    {
      "inputs": [
        {
          "internalType": "address",
          "name": "owner",
          "type": "address"
        }
      ],
      "name": "balanceOf",
      "outputs": [
        {
          "internalType": "uint256",
          "name": "",
          "type": "uint256"
        }
      ],
      "stateMutability": "view",
      "type": "function"
    },
    {
      "inputs": [],
      "name": "battleContract",
      "outputs": [
        {
          "internalType": "address",
          "name": "",
          "type": "address"
        }
      ],
      "stateMutability": "view",
      "type": "function"
    },
    {
      "inputs": [],
      "name": "breedingContract",
      "outputs": [
        {
          "internalType": "address",
          "name": "",
          "type": "address"
        }
      ],
      "stateMutability": "view",
      "type": "function"
    },
    {
      "inputs": [
        {
          "internalType": "uint256",
          "name": "tokenId",
          "type": "uint256"
        }
      ],
      "name": "buyHen",
      "outputs": [],
      "stateMutability": "payable",
      "type": "function"
    },
    {
      "inputs": [
        {
          "internalType": "uint256",
          "name": "tokenId",
          "type": "uint256"
        }
      ],
      "name": "delistHen",
      "outputs": [],
      "stateMutability": "nonpayable",
      "type": "function"
    },
    {
      "inputs": [
        {
          "internalType": "uint256",
          "name": "tokenId",
          "type": "uint256"
        }
      ],
      "name": "getApproved",
      "outputs": [
        {
          "internalType": "address",
          "name": "",
          "type": "address"
        }
      ],
      "stateMutability": "view",
      "type": "function"
    },
    {
      "inputs": [
        {
          "internalType": "uint256",
          "name": "tokenId",
          "type": "uint256"
        }
      ],
      "name": "getHenPower",
      "outputs": [
        {
          "internalType": "uint256",
          "name": "",
          "type": "uint256"
        }
      ],
      "stateMutability": "view",
      "type": "function"
    },
    {
      "inputs": [
        {
          "internalType": "uint256",
          "name": "tokenId",
          "type": "uint256"
        }
      ],
      "name": "getHenTraits",
      "outputs": [
        {
          "components": [
            {
              "internalType": "uint8",
              "name": "strength",
              "type": "uint8"
            },
            {
              "internalType": "uint8",
              "name": "speed",
              "type": "uint8"
            },
            {
              "internalType": "uint8",
              "name": "stamina",
              "type": "uint8"
            },
            {
              "internalType": "uint8",
              "name": "intelligence",
              "type": "uint8"
            },
            {
              "internalType": "uint8",
              "name": "luck",
              "type": "uint8"
            },
            {
              "internalType": "uint8",
              "name": "generation",
              "type": "uint8"
            },
            {
              "internalType": "uint256",
              "name": "birthTime",
              "type": "uint256"
            },
            {
              "internalType": "uint256",
              "name": "lastBreedTime",
              "type": "uint256"
            },
            {
              "internalType": "uint256",
              "name": "wins",
              "type": "uint256"
            },
            {
              "internalType": "uint256",
              "name": "losses",
              "type": "uint256"
            },
            {
              "internalType": "uint256",
              "name": "racesWon",
              "type": "uint256"
            },
            {
              "internalType": "bool",
              "name": "isAlive",
              "type": "bool"
            }
          ],
          "internalType": "struct HenNFT.HenTraits",
          "name": "",
          "type": "tuple"
        }
      ],
      "stateMutability": "view",
      "type": "function"
    },
    {
      "inputs": [
        {
          "internalType": "address",
          "name": "owner",
          "type": "address"
        }
      ],
      "name": "getHensByOwner",
      "outputs": [
        {
          "internalType": "uint256[]",
          "name": "",
          "type": "uint256[]"
        }
      ],
      "stateMutability": "view",
      "type": "function"
    },
    {
      "inputs": [
        {
          "internalType": "uint256",
          "name": "",
          "type": "uint256"
        }
      ],
      "name": "henTraits",
      "outputs": [
        {
          "internalType": "uint8",
          "name": "strength",
          "type": "uint8"
        },
        {
          "internalType": "uint8",
          "name": "speed",
          "type": "uint8"
        },
        {
          "internalType": "uint8",
          "name": "stamina",
          "type": "uint8"
        },
        {
          "internalType": "uint8",
          "name": "intelligence",
          "type": "uint8"
        },
        {
          "internalType": "uint8",
          "name": "luck",
          "type": "uint8"
        },
        {
          "internalType": "uint8",
          "name": "generation",
          "type": "uint8"
        },
        {
          "internalType": "uint256",
          "name": "birthTime",
          "type": "uint256"
        },
        {
          "internalType": "uint256",
          "name": "lastBreedTime",
          "type": "uint256"
        },
        {
          "internalType": "uint256",
          "name": "wins",
          "type": "uint256"
        },
        {
          "internalType": "uint256",
          "name": "losses",
          "type": "uint256"
        },
        {
          "internalType": "uint256",
          "name": "racesWon",
          "type": "uint256"
        },
        {
          "internalType": "bool",
          "name": "isAlive",
          "type": "bool"
        }
      ],
      "stateMutability": "view",
      "type": "function"
    },
    {
      "inputs": [
        {
          "internalType": "address",
          "name": "owner",
          "type": "address"
        },
        {
          "internalType": "address",
          "name": "operator",
          "type": "address"
        }
      ],
      "name": "isApprovedForAll",
      "outputs": [
        {
          "internalType": "bool",
          "name": "",
          "type": "bool"
        }
      ],
      "stateMutability": "view",
      "type": "function"
    },
    {
      "inputs": [
        {
          "internalType": "uint256",
          "name": "tokenId",
          "type": "uint256"
        },
        {
          "internalType": "uint256",
          "name": "price",
          "type": "uint256"
        }
      ],
      "name": "listHen",
      "outputs": [],
      "stateMutability": "nonpayable",
      "type": "function"
    },
    {
      "inputs": [
        {
          "internalType": "uint256",
          "name": "",
          "type": "uint256"
        }
      ],
      "name": "listings",
      "outputs": [
        {
          "internalType": "uint256",
          "name": "price",
          "type": "uint256"
        },
        {
          "internalType": "address",
          "name": "seller",
          "type": "address"
        },
        {
          "internalType": "bool",
          "name": "isActive",
          "type": "bool"
        }
      ],
      "stateMutability": "view",
      "type": "function"
    },
    {
      "inputs": [],
      "name": "mintHen",
      "outputs": [
        {
          "internalType": "uint256",
          "name": "",
          "type": "uint256"
        }
      ],
      "stateMutability": "payable",
      "type": "function"
    },
    {
      "inputs": [
        {
          "internalType": "address",
          "name": "to",
          "type": "address"
        },
        {
          "internalType": "uint8",
          "name": "strength",
          "type": "uint8"
        },
        {
          "internalType": "uint8",
          "name": "speed",
          "type": "uint8"
        },
        {
          "internalType": "uint8",
          "name": "stamina",
          "type": "uint8"
        },
        {
          "internalType": "uint8",
          "name": "intelligence",
          "type": "uint8"
        },
        {
          "internalType": "uint8",
          "name": "luck",
          "type": "uint8"
        },
        {
          "internalType": "uint8",
          "name": "generation",
          "type": "uint8"
        }
      ],
      "name": "mintOffspring",
      "outputs": [
        {
          "internalType": "uint256",
          "name": "",
          "type": "uint256"
        }
      ],
      "stateMutability": "nonpayable",
      "type": "function"
    },
    {
      "inputs": [],
      "name": "name",
      "outputs": [
        {
          "internalType": "string",
          "name": "",
          "type": "string"
        }
      ],
      "stateMutability": "view",
      "type": "function"
    },
    {
      "inputs": [],
      "name": "owner",
      "outputs": [
        {
          "internalType": "address",
          "name": "",
          "type": "address"
        }
      ],
      "stateMutability": "view",
      "type": "function"
    },
    {
      "inputs": [
        {
          "internalType": "uint256",
          "name": "tokenId",
          "type": "uint256"
        }
      ],
      "name": "ownerOf",
      "outputs": [
        {
          "internalType": "address",
          "name": "",
          "type": "address"
        }
      ],
      "stateMutability": "view",
      "type": "function"
    },
    {
      "inputs": [],
      "name": "racingContract",
      "outputs": [
        {
          "internalType": "address",
          "name": "",
          "type": "address"
        }
      ],
      "stateMutability": "view",
      "type": "function"
    },
    {
      "inputs": [],
      "name": "renounceOwnership",
      "outputs": [],
      "stateMutability": "nonpayable",
      "type": "function"
    },
    {
      "inputs": [
        {
          "internalType": "address",
          "name": "from",
          "type": "address"
        },
        {
          "internalType": "address",
          "name": "to",
          "type": "address"
        },
        {
          "internalType": "uint256",
          "name": "tokenId",
          "type": "uint256"
        }
      ],
      "name": "safeTransferFrom",
      "outputs": [],
      "stateMutability": "nonpayable",
      "type": "function"
    },
    {
      "inputs": [
        {
          "internalType": "address",
          "name": "from",
          "type": "address"
        },
        {
          "internalType": "address",
          "name": "to",
          "type": "address"
        },
        {
          "internalType": "uint256",
          "name": "tokenId",
          "type": "uint256"
        },
        {
          "internalType": "bytes",
          "name": "data",
          "type": "bytes"
        }
      ],
      "name": "safeTransferFrom",
      "outputs": [],
      "stateMutability": "nonpayable",
      "type": "function"
    },
    {
      "inputs": [
        {
          "internalType": "address",
          "name": "operator",
          "type": "address"
        },
        {
          "internalType": "bool",
          "name": "approved",
          "type": "bool"
        }
      ],
      "name": "setApprovalForAll",
      "outputs": [],
      "stateMutability": "nonpayable",
      "type": "function"
    },
    {
      "inputs": [
        {
          "internalType": "address",
          "name": "_addr",
          "type": "address"
        }
      ],
      "name": "setBattleContract",
      "outputs": [],
      "stateMutability": "nonpayable",
      "type": "function"
    },
    {
      "inputs": [
        {
          "internalType": "address",
          "name": "_addr",
          "type": "address"
        }
      ],
      "name": "setBreedingContract",
      "outputs": [],
      "stateMutability": "nonpayable",
      "type": "function"
    },
    {
      "inputs": [
        {
          "internalType": "address",
          "name": "_addr",
          "type": "address"
        }
      ],
      "name": "setRacingContract",
      "outputs": [],
      "stateMutability": "nonpayable",
      "type": "function"
    },
    {
      "inputs": [
        {
          "internalType": "bytes4",
          "name": "interfaceId",
          "type": "bytes4"
        }
      ],
      "name": "supportsInterface",
      "outputs": [
        {
          "internalType": "bool",
          "name": "",
          "type": "bool"
        }
      ],
      "stateMutability": "view",
      "type": "function"
    },
    {
      "inputs": [],
      "name": "symbol",
      "outputs": [
        {
          "internalType": "string",
          "name": "",
          "type": "string"
        }
      ],
      "stateMutability": "view",
      "type": "function"
    },
    {
      "inputs": [
        {
          "internalType": "uint256",
          "name": "tokenId",
          "type": "uint256"
        }
      ],
      "name": "tokenURI",
      "outputs": [
        {
          "internalType": "string",
          "name": "",
          "type": "string"
        }
      ],
      "stateMutability": "view",
      "type": "function"
    },
    {
      "inputs": [
        {
          "internalType": "address",
          "name": "from",
          "type": "address"
        },
        {
          "internalType": "address",
          "name": "to",
          "type": "address"
        },
        {
          "internalType": "uint256",
          "name": "tokenId",
          "type": "uint256"
        }
      ],
      "name": "transferFrom",
      "outputs": [],
      "stateMutability": "nonpayable",
      "type": "function"
    },
    {
      "inputs": [
        {
          "internalType": "address",
          "name": "newOwner",
          "type": "address"
        }
      ],
      "name": "transferOwnership",
      "outputs": [],
      "stateMutability": "nonpayable",
      "type": "function"
    },
    {
      "inputs": [
        {
          "internalType": "uint256",
          "name": "tokenId",
          "type": "uint256"
        },
        {
          "internalType": "bool",
          "name": "won",
          "type": "bool"
        }
      ],
      "name": "updateBattleStats",
      "outputs": [],
      "stateMutability": "nonpayable",
      "type": "function"
    },
    {
      "inputs": [
        {
          "internalType": "uint256",
          "name": "tokenId",
          "type": "uint256"
        }
      ],
      "name": "updateRaceStats",
      "outputs": [],
      "stateMutability": "nonpayable",
      "type": "function"
    },
    {
      "inputs": [],
      "name": "withdraw",
      "outputs": [],
      "stateMutability": "nonpayable",
      "type": "function"
    }
  ],
  "bytecode": "0x60806040523480156200001157600080fd5b506040518060400160405280600a81526020017f43727970746f48656e73000000000000000000000000000000000000000000008152506040518060400160405280600381526020017f48454e000000000000000000000000000000000000000000000000000000000081525081600090816200008f91906200041a565b508060019081620000a191906200041a565b505050620000c4620000b8620000d260201b60201c565b620000da60201b60201c565b600160088190555062000501565b600033905090565b6000600760009054906101000a900473ffffffffffffffffffffffffffffffffffffffff16905081600760006101000a81548173ffffffffffffffffffffffffffffffffffffffff021916908373ffffffffffffffffffffffffffffffffffffffff1602179055508173ffffffffffffffffffffffffffffffffffffffff168173ffffffffffffffffffffffffffffffffffffffff167f8be0079c531659141344cd1fd0a4f28419497f9722a3daafe3b4186f6b6457e060405160405180910390a35050565b600081519050919050565b7f4e487b7100000000000000000000000000000000000000000000000000000000600052604160045260246000fd5b7f4e487b7100000000000000000000000000000000000000000000000000000000600052602260045260246000fd5b600060028204905060018216806200022257607f821691505b602082108103620002385762000237620001da565b5b50919050565b60008190508160005260206000209050919050565b60006020601f8301049050919050565b600082821b905092915050565b600060088302620002a27fffffffffffffffffffffffffffffffffffffffffffffffffffffffffffffffff8262000263565b620002ae868362000263565b95508019841693508086168417925050509392505050565b6000819050919050565b6000819050919050565b6000620002fb620002f5620002ef84620002c6565b620002d0565b620002c6565b9050919050565b6000819050919050565b6200031783620002da565b6200032f620003268262000302565b84845462000270565b825550505050565b600090565b6200034662000337565b620003538184846200030c565b505050565b5b818110156200037b576200036f6000826200033c565b60018101905062000359565b5050565b601f821115620003ca5762000394816200023e565b6200039f8462000253565b81016020851015620003af578190505b620003c7620003be8562000253565b83018262000358565b50505b505050565b600082821c905092915050565b6000620003ef60001984600802620003cf565b1980831691505092915050565b60006200040a8383620003dc565b9150826002028217905092915050565b6200042582620001a0565b67ffffffffffffffff811115620004415762000440620001ab565b5b6200044d825462000209565b6200045a8282856200037f565b600060209050601f8311600181146200049257600084156200047d578287015190505b620004898582620003fc565b865550620004f9565b601f198416620004a2866200023e565b60005b82811015620004cc57848901518255600182019150602085019450602081019050620004a5565b86831015620004ec5784890151620004e8601f891682620003dc565b8355505b6001600288020188555050505b505050505050565b6156ff80620005116000396000f3fe6080604052600436106102255760003560e01c80637deb0bf111610123578063a6345141116100ab578063c62e04351161006f578063c62e043514610808578063c87b56dd14610831578063de74e57b1461086e578063e985e9c5146108ad578063f2fde38b146108ea57610225565b8063a634514114610711578063afa2cf031461074e578063b88d4fde1461078b578063bcaf673f146107b4578063c002d23d146107dd57610225565b80638da5cb5b116100f25780638da5cb5b1461064957806395d89b41146106745780639c103c611461069f5780639c903ff0146106ca578063a22cb465146106e857610225565b80637deb0bf11461058d578063836e3375146105ca57806389d796e4146105f55780638c5527cf1461062057610225565b80633ccfd60b116101b15780636352211e116101755780636352211e146104a357806370a08231146104e057806370e6e99a1461051d578063715018a61461055a5780637bba64af1461057157610225565b80633ccfd60b146103e6578063423b1ca3146103fd57806342842e0e146104285780634b9785051461045157806350c7d5a01461047a57610225565b80630db6dff7116101f85780630db6dff7146102f85780631733cdc81461032157806320960c461461036957806323b872dd1461039257806332cb6b0c146103bb57610225565b806301ffc9a71461022a57806306fdde0314610267578063081812fc14610292578063095ea7b3146102cf575b600080fd5b34801561023657600080fd5b50610251600480360381019061024c9190613b5c565b610913565b60405161025e9190613ba4565b60405180910390f35b34801561027357600080fd5b5061027c610925565b6040516102899190613c4f565b60405180910390f35b34801561029e57600080fd5b506102b960048036038101906102b49190613ca7565b6109b7565b6040516102c69190613d15565b60405180910390f35b3480156102db57600080fd5b506102f660048036038101906102f19190613d5c565b6109fd565b005b34801561030457600080fd5b5061031f600480360381019061031a9190613d9c565b610b14565b005b34801561032d57600080fd5b5061034860048036038101906103439190613ca7565b610b60565b6040516103609c9b9a99989796959493929190613df4565b60405180910390f35b34801561037557600080fd5b50610390600480360381019061038b9190613ca7565b610c1b565b005b34801561039e57600080fd5b506103b960048036038101906103b49190613eae565b610d17565b005b3480156103c757600080fd5b506103d0610d77565b6040516103dd9190613f01565b60405180910390f35b3480156103f257600080fd5b506103fb610d7d565b005b34801561040957600080fd5b50610412610e41565b60405161041f9190613d15565b60405180910390f35b34801561043457600080fd5b5061044f600480360381019061044a9190613eae565b610e67565b005b34801561045d57600080fd5b5061047860048036038101906104739190613d9c565b610e87565b005b34801561048657600080fd5b506104a1600480360381019061049c9190613ca7565b610ed3565b005b3480156104af57600080fd5b506104ca60048036038101906104c59190613ca7565b61107a565b6040516104d79190613d15565b60405180910390f35b3480156104ec57600080fd5b5061050760048036038101906105029190613d9c565b611100565b6040516105149190613f01565b60405180910390f35b34801561052957600080fd5b50610544600480360381019061053f9190613d9c565b6111b7565b6040516105519190613fda565b60405180910390f35b34801561056657600080fd5b5061056f6112c6565b005b61058b60048036038101906105869190613ca7565b6112da565b005b34801561059957600080fd5b506105b460048036038101906105af9190614028565b611692565b6040516105c19190613f01565b60405180910390f35b3480156105d657600080fd5b506105df6119a4565b6040516105ec9190613d15565b60405180910390f35b34801561060157600080fd5b5061060a6119ca565b6040516106179190613d15565b60405180910390f35b34801561062c57600080fd5b5061064760048036038101906106429190613d9c565b6119f0565b005b34801561065557600080fd5b5061065e611a3c565b60405161066b9190613d15565b60405180910390f35b34801561068057600080fd5b50610689611a66565b6040516106969190613c4f565b60405180910390f35b3480156106ab57600080fd5b506106b4611af8565b6040516106c19190613f01565b60405180910390f35b6106d2611afd565b6040516106df9190613f01565b60405180910390f35b3480156106f457600080fd5b5061070f600480360381019061070a91906140f6565b611f70565b005b34801561071d57600080fd5b5061073860048036038101906107339190613ca7565b611f86565b604051610745919061424a565b60405180910390f35b34801561075a57600080fd5b5061077560048036038101906107709190613ca7565b6120f7565b6040516107829190613f01565b60405180910390f35b34801561079757600080fd5b506107b260048036038101906107ad919061439b565b61226e565b005b3480156107c057600080fd5b506107db60048036038101906107d6919061441e565b6122d0565b005b3480156107e957600080fd5b506107f26124fb565b6040516107ff9190613f01565b60405180910390f35b34801561081457600080fd5b5061082f600480360381019061082a919061445e565b612506565b005b34801561083d57600080fd5b5061085860048036038101906108539190613ca7565b612673565b6040516108659190613c4f565b60405180910390f35b34801561087a57600080fd5b5061089560048036038101906108909190613ca7565b612685565b6040516108a49392919061449e565b60405180910390f35b3480156108b957600080fd5b506108d460048036038101906108cf91906144d5565b6126dc565b6040516108e19190613ba4565b60405180910390f35b3480156108f657600080fd5b50610911600480360381019061090c9190613d9c565b612770565b005b600061091e826127f3565b9050919050565b60606000805461093490614544565b80601f016020809104026020016040519081016040528092919081815260200182805461096090614544565b80156109ad5780601f10610982576101008083540402835291602001916109ad565b820191906000526020600020905b81548152906001019060200180831161099057829003601f168201915b5050505050905090565b60006109c282612854565b6004600083815260200190815260200160002060009054906101000a900473ffffffffffffffffffffffffffffffffffffffff169050919050565b6000610a088261107a565b90508073ffffffffffffffffffffffffffffffffffffffff168373ffffffffffffffffffffffffffffffffffffffff1603610a78576040517f08c379a0000000000000000000000000000000000000000000000000000000008152600401610a6f906145e7565b60405180910390fd5b8073ffffffffffffffffffffffffffffffffffffffff16610a9761289f565b73ffffffffffffffffffffffffffffffffffffffff161480610ac65750610ac581610ac061289f565b6126dc565b5b610b05576040517f08c379a0000000000000000000000000000000000000000000000000000000008152600401610afc90614679565b60405180910390fd5b610b0f83836128a7565b505050565b610b1c612960565b80600c60006101000a81548173ffffffffffffffffffffffffffffffffffffffff021916908373ffffffffffffffffffffffffffffffffffffffff16021790555050565b600a6020528060005260406000206000915090508060000160009054906101000a900460ff16908060000160019054906101000a900460ff16908060000160029054906101000a900460ff16908060000160039054906101000a900460ff16908060000160049054906101000a900460ff16908060000160059054906101000a900460ff16908060010154908060020154908060030154908060040154908060050154908060060160009054906101000a900460ff1690508c565b600d60009054906101000a900473ffffffffffffffffffffffffffffffffffffffff1673ffffffffffffffffffffffffffffffffffffffff163373ffffffffffffffffffffffffffffffffffffffff161480610ca95750610c7a611a3c565b73ffffffffffffffffffffffffffffffffffffffff163373ffffffffffffffffffffffffffffffffffffffff16145b610ce8576040517f08c379a0000000000000000000000000000000000000000000000000000000008152600401610cdf906146e5565b60405180910390fd5b600a60008281526020019081526020016000206005016000815480929190610d0f90614734565b919050555050565b610d28610d2261289f565b826129de565b610d67576040517f08c379a0000000000000000000000000000000000000000000000000000000008152600401610d5e906147ee565b60405180910390fd5b610d72838383612a73565b505050565b61271081565b610d85612960565b60004790506000610d94611a3c565b73ffffffffffffffffffffffffffffffffffffffff1682604051610db79061483f565b60006040518083038185875af1925050503d8060008114610df4576040519150601f19603f3d011682016040523d82523d6000602084013e610df9565b606091505b5050905080610e3d576040517f08c379a0000000000000000000000000000000000000000000000000000000008152600401610e34906148a0565b60405180910390fd5b5050565b600c60009054906101000a900473ffffffffffffffffffffffffffffffffffffffff1681565b610e828383836040518060200160405280600081525061226e565b505050565b610e8f612960565b80600d60006101000a81548173ffffffffffffffffffffffffffffffffffffffff021916908373ffffffffffffffffffffffffffffffffffffffff16021790555050565b3373ffffffffffffffffffffffffffffffffffffffff16600e600083815260200190815260200160002060010160009054906101000a900473ffffffffffffffffffffffffffffffffffffffff1673ffffffffffffffffffffffffffffffffffffffff1614610f77576040517f08c379a0000000000000000000000000000000000000000000000000000000008152600401610f6e9061490c565b60405180910390fd5b600e600082815260200190815260200160002060010160149054906101000a900460ff16610fda576040517f08c379a0000000000000000000000000000000000000000000000000000000008152600401610fd190614978565b60405180910390fd5b600e60008281526020019081526020016000206000808201600090556001820160006101000a81549073ffffffffffffffffffffffffffffffffffffffff02191690556001820160146101000a81549060ff021916905550503373ffffffffffffffffffffffffffffffffffffffff16817f08202ab9068fa5e6ea16e04517a8c260f8b0d6714d979788967e4bfb1faca28d60405160405180910390a350565b60008061108683612d6c565b9050600073ffffffffffffffffffffffffffffffffffffffff168173ffffffffffffffffffffffffffffffffffffffff16036110f7576040517f08c379a00000000000000000000000000000000000000000000000000000000081526004016110ee906149e4565b60405180910390fd5b80915050919050565b60008073ffffffffffffffffffffffffffffffffffffffff168273ffffffffffffffffffffffffffffffffffffffff1603611170576040517f08c379a000000000000000000000000000000000000000000000000000000000815260040161116790614a76565b60405180910390fd5b600360008373ffffffffffffffffffffffffffffffffffffffff1673ffffffffffffffffffffffffffffffffffffffff168152602001908152602001600020549050919050565b606060006111c483611100565b905060008167ffffffffffffffff8111156111e2576111e1614270565b5b6040519080825280602002602001820160405280156112105781602001602082028036833780820191505090505b509050600080600190505b6112256009612da9565b81116112ba5761123481612db7565b801561127357508573ffffffffffffffffffffffffffffffffffffffff1661125b8261107a565b73ffffffffffffffffffffffffffffffffffffffff16145b156112a7578083838151811061128c5761128b614a96565b5b60200260200101818152505081806112a390614734565b9250505b80806112b290614734565b91505061121b565b50819350505050919050565b6112ce612960565b6112d86000612df8565b565b6112e2612ebe565b6000600e6000838152602001908152602001600020604051806060016040529081600082015481526020016001820160009054906101000a900473ffffffffffffffffffffffffffffffffffffffff1673ffffffffffffffffffffffffffffffffffffffff1673ffffffffffffffffffffffffffffffffffffffff1681526020016001820160149054906101000a900460ff161515151581525050905080604001516113c3576040517f08c379a00000000000000000000000000000000000000000000000000000000081526004016113ba90614b11565b60405180910390fd5b806000015134101561140a576040517f08c379a000000000000000000000000000000000000000000000000000000000815260040161140190614b7d565b60405180910390fd5b600081602001519050600082600001519050600061271060fa8361142e9190614b9d565b6114389190614c0e565b9050600081836114489190614c3f565b9050600e60008781526020019081526020016000206000808201600090556001820160006101000a81549073ffffffffffffffffffffffffffffffffffffffff02191690556001820160146101000a81549060ff021916905550506114ae843388612a73565b60008473ffffffffffffffffffffffffffffffffffffffff16826040516114d49061483f565b60006040518083038185875af1925050503d8060008114611511576040519150601f19603f3d011682016040523d82523d6000602084013e611516565b606091505b505090508061155a576040517f08c379a000000000000000000000000000000000000000000000000000000000815260040161155190614cbf565b60405180910390fd5b3373ffffffffffffffffffffffffffffffffffffffff168573ffffffffffffffffffffffffffffffffffffffff16887f23e7a5edd4c10cc4bf363be5ea945e863eb800cfb257a5d6b33b76b3a922ca5d876040516115b89190613f01565b60405180910390a4833411156116815760003373ffffffffffffffffffffffffffffffffffffffff1685346115ed9190614c3f565b6040516115f99061483f565b60006040518083038185875af1925050503d8060008114611636576040519150601f19603f3d011682016040523d82523d6000602084013e61163b565b606091505b505090508061167f576040517f08c379a000000000000000000000000000000000000000000000000000000000815260040161167690614d2b565b60405180910390fd5b505b50505050505061168f612f0d565b50565b600061169c612ebe565b600b60009054906101000a900473ffffffffffffffffffffffffffffffffffffffff1673ffffffffffffffffffffffffffffffffffffffff163373ffffffffffffffffffffffffffffffffffffffff161461172c576040517f08c379a000000000000000000000000000000000000000000000000000000000815260040161172390614dbd565b60405180910390fd5b6127106117396009612da9565b10611779576040517f08c379a000000000000000000000000000000000000000000000000000000000815260040161177090614e29565b60405180910390fd5b6117836009612f17565b600061178f6009612da9565b905061179b8982612f2d565b60006040518061018001604052808a60ff1681526020018960ff1681526020018860ff1681526020018760ff1681526020018660ff1681526020018560ff1681526020014281526020016000815260200160008152602001600081526020016000815260200160011515815250905080600a600084815260200190815260200160002060008201518160000160006101000a81548160ff021916908360ff16021790555060208201518160000160016101000a81548160ff021916908360ff16021790555060408201518160000160026101000a81548160ff021916908360ff16021790555060608201518160000160036101000a81548160ff021916908360ff16021790555060808201518160000160046101000a81548160ff021916908360ff16021790555060a08201518160000160056101000a81548160ff021916908360ff16021790555060c0820151816001015560e082015181600201556101008201518160030155610120820151816004015561014082015181600501556101608201518160060160006101000a81548160ff0219169083151502179055509050508973ffffffffffffffffffffffffffffffffffffffff16827f7bda72edc06b51d30619fd8b9f08dd86f43c36c3ed7f32604633d289850490dc83604051611984919061424a565b60405180910390a38192505050611999612f0d565b979650505050505050565b600b60009054906101000a900473ffffffffffffffffffffffffffffffffffffffff1681565b600d60009054906101000a900473ffffffffffffffffffffffffffffffffffffffff1681565b6119f8612960565b80600b60006101000a81548173ffffffffffffffffffffffffffffffffffffffff021916908373ffffffffffffffffffffffffffffffffffffffff16021790555050565b6000600760009054906101000a900473ffffffffffffffffffffffffffffffffffffffff16905090565b606060018054611a7590614544565b80601f0160208091040260200160405190810160405280929190818152602001828054611aa190614544565b8015611aee5780601f10611ac357610100808354040283529160200191611aee565b820191906000526020600020905b815481529060010190602001808311611ad157829003601f168201915b5050505050905090565b60fa81565b6000611b07612ebe565b662386f26fc10000341015611b51576040517f08c379a0000000000000000000000000000000000000000000000000000000008152600401611b4890614b7d565b60405180910390fd5b612710611b5e6009612da9565b10611b9e576040517f08c379a0000000000000000000000000000000000000000000000000000000008152600401611b9590614e29565b60405180910390fd5b611ba86009612f17565b6000611bb46009612da9565b9050611bc03382612f2d565b600060405180610180016040528060146051611c11866040518060400160405280600881526020017f737472656e677468000000000000000000000000000000000000000000000000815250612f4b565b611c1b9190614e49565b611c259190614e7a565b60ff16815260200160146051611c70866040518060400160405280600581526020017f7370656564000000000000000000000000000000000000000000000000000000815250612f4b565b611c7a9190614e49565b611c849190614e7a565b60ff16815260200160146051611ccf866040518060400160405280600781526020017f7374616d696e6100000000000000000000000000000000000000000000000000815250612f4b565b611cd99190614e49565b611ce39190614e7a565b60ff16815260200160146051611d2e866040518060400160405280600c81526020017f696e74656c6c6967656e63650000000000000000000000000000000000000000815250612f4b565b611d389190614e49565b611d429190614e7a565b60ff16815260200160146051611d8d866040518060400160405280600481526020017f6c75636b00000000000000000000000000000000000000000000000000000000815250612f4b565b611d979190614e49565b611da19190614e7a565b60ff168152602001600060ff1681526020014281526020016000815260200160008152602001600081526020016000815260200160011515815250905080600a600084815260200190815260200160002060008201518160000160006101000a81548160ff021916908360ff16021790555060208201518160000160016101000a81548160ff021916908360ff16021790555060408201518160000160026101000a81548160ff021916908360ff16021790555060608201518160000160036101000a81548160ff021916908360ff16021790555060808201518160000160046101000a81548160ff021916908360ff16021790555060a08201518160000160056101000a81548160ff021916908360ff16021790555060c0820151816001015560e082015181600201556101008201518160030155610120820151816004015561014082015181600501556101608201518160060160006101000a81548160ff0219169083151502179055509050503373ffffffffffffffffffffffffffffffffffffffff16827f7bda72edc06b51d30619fd8b9f08dd86f43c36c3ed7f32604633d289850490dc83604051611f58919061424a565b60405180910390a38192505050611f6d612f0d565b90565b611f82611f7b61289f565b8383612f87565b5050565b611f8e613a7b565b611f9782612db7565b611fd6576040517f08c379a0000000000000000000000000000000000000000000000000000000008152600401611fcd90614efa565b60405180910390fd5b600a6000838152602001908152602001600020604051806101800160405290816000820160009054906101000a900460ff1660ff1660ff1681526020016000820160019054906101000a900460ff1660ff1660ff1681526020016000820160029054906101000a900460ff1660ff1660ff1681526020016000820160039054906101000a900460ff1660ff1660ff1681526020016000820160049054906101000a900460ff1660ff1660ff1681526020016000820160059054906101000a900460ff1660ff1660ff16815260200160018201548152602001600282015481526020016003820154815260200160048201548152602001600582015481526020016006820160009054906101000a900460ff1615151515815250509050919050565b600080600a6000848152602001908152602001600020604051806101800160405290816000820160009054906101000a900460ff1660ff1660ff1681526020016000820160019054906101000a900460ff1660ff1660ff1681526020016000820160029054906101000a900460ff1660ff1660ff1681526020016000820160039054906101000a900460ff1660ff1660ff1681526020016000820160049054906101000a900460ff1660ff1660ff1681526020016000820160059054906101000a900460ff1660ff1660ff16815260200160018201548152602001600282015481526020016003820154815260200160048201548152602001600582015481526020016006820160009054906101000a900460ff1615151515815250509050806080015160ff16816060015160ff16826040015160ff16836020015160ff16846000015160ff166122489190614e7a565b6122529190614e7a565b61225c9190614e7a565b6122669190614e7a565b915050919050565b61227f61227961289f565b836129de565b6122be576040517f08c379a00000000000000000000000000000000000000000000000000000000081526004016122b5906147ee565b60405180910390fd5b6122ca848484846130f3565b50505050565b3373ffffffffffffffffffffffffffffffffffffffff166122f08361107a565b73ffffffffffffffffffffffffffffffffffffffff1614612346576040517f08c379a000000000000000000000000000000000000000000000000000000000815260040161233d90614f66565b60405180910390fd5b60008111612389576040517f08c379a000000000000000000000000000000000000000000000000000000000815260040161238090614fd2565b60405180910390fd5b600e600083815260200190815260200160002060010160149054906101000a900460ff16156123ed576040517f08c379a00000000000000000000000000000000000000000000000000000000081526004016123e49061503e565b60405180910390fd5b60405180606001604052808281526020013373ffffffffffffffffffffffffffffffffffffffff16815260200160011515815250600e60008481526020019081526020016000206000820151816000015560208201518160010160006101000a81548173ffffffffffffffffffffffffffffffffffffffff021916908373ffffffffffffffffffffffffffffffffffffffff16021790555060408201518160010160146101000a81548160ff0219169083151502179055509050503373ffffffffffffffffffffffffffffffffffffffff16827fb401eb59e096f41c707abda600e71ddb0066743a000c511ccfd6b58ce62141e5836040516124ef9190613f01565b60405180910390a35050565b662386f26fc1000081565b600c60009054906101000a900473ffffffffffffffffffffffffffffffffffffffff1673ffffffffffffffffffffffffffffffffffffffff163373ffffffffffffffffffffffffffffffffffffffff1614806125945750612565611a3c565b73ffffffffffffffffffffffffffffffffffffffff163373ffffffffffffffffffffffffffffffffffffffff16145b6125d3576040517f08c379a00000000000000000000000000000000000000000000000000000000081526004016125ca906146e5565b60405180910390fd5b801561260a57600a6000838152602001908152602001600020600301600081548092919061260090614734565b9190505550612637565b600a6000838152602001908152602001600020600401600081548092919061263190614734565b91905055505b817f19d86b8edfcd6cf16daaf1ee062fa483161495cf6ad50132e27637b7ed38fb88826040516126679190613ba4565b60405180910390a25050565b606061267e8261314f565b9050919050565b600e6020528060005260406000206000915090508060000154908060010160009054906101000a900473ffffffffffffffffffffffffffffffffffffffff16908060010160149054906101000a900460ff16905083565b6000600560008473ffffffffffffffffffffffffffffffffffffffff1673ffffffffffffffffffffffffffffffffffffffff16815260200190815260200160002060008373ffffffffffffffffffffffffffffffffffffffff1673ffffffffffffffffffffffffffffffffffffffff16815260200190815260200160002060009054906101000a900460ff16905092915050565b612778612960565b600073ffffffffffffffffffffffffffffffffffffffff168173ffffffffffffffffffffffffffffffffffffffff16036127e7576040517f08c379a00000000000000000000000000000000000000000000000000000000081526004016127de906150d0565b60405180910390fd5b6127f081612df8565b50565b6000634906490660e01b7bffffffffffffffffffffffffffffffffffffffffffffffffffffffff1916827bffffffffffffffffffffffffffffffffffffffffffffffffffffffff1916148061284d575061284c82613261565b5b9050919050565b61285d81612db7565b61289c576040517f08c379a0000000000000000000000000000000000000000000000000000000008152600401612893906149e4565b60405180910390fd5b50565b600033905090565b816004600083815260200190815260200160002060006101000a81548173ffffffffffffffffffffffffffffffffffffffff021916908373ffffffffffffffffffffffffffffffffffffffff160217905550808273ffffffffffffffffffffffffffffffffffffffff1661291a8361107a565b73ffffffffffffffffffffffffffffffffffffffff167f8c5be1e5ebec7d5bd14f71427d1e84f3dd0314c0f7b2291e5b200ac8c7c3b92560405160405180910390a45050565b61296861289f565b73ffffffffffffffffffffffffffffffffffffffff16612986611a3c565b73ffffffffffffffffffffffffffffffffffffffff16146129dc576040517f08c379a00000000000000000000000000000000000000000000000000000000081526004016129d39061513c565b60405180910390fd5b565b6000806129ea8361107a565b90508073ffffffffffffffffffffffffffffffffffffffff168473ffffffffffffffffffffffffffffffffffffffff161480612a2c5750612a2b81856126dc565b5b80612a6a57508373ffffffffffffffffffffffffffffffffffffffff16612a52846109b7565b73ffffffffffffffffffffffffffffffffffffffff16145b91505092915050565b8273ffffffffffffffffffffffffffffffffffffffff16612a938261107a565b73ffffffffffffffffffffffffffffffffffffffff1614612ae9576040517f08c379a0000000000000000000000000000000000000000000000000000000008152600401612ae0906151ce565b60405180910390fd5b600073ffffffffffffffffffffffffffffffffffffffff168273ffffffffffffffffffffffffffffffffffffffff1603612b58576040517f08c379a0000000000000000000000000000000000000000000000000000000008152600401612b4f90615260565b60405180910390fd5b612b658383836001613343565b8273ffffffffffffffffffffffffffffffffffffffff16612b858261107a565b73ffffffffffffffffffffffffffffffffffffffff1614612bdb576040517f08c379a0000000000000000000000000000000000000000000000000000000008152600401612bd2906151ce565b60405180910390fd5b6004600082815260200190815260200160002060006101000a81549073ffffffffffffffffffffffffffffffffffffffff02191690556001600360008573ffffffffffffffffffffffffffffffffffffffff1673ffffffffffffffffffffffffffffffffffffffff168152602001908152602001600020600082825403925050819055506001600360008473ffffffffffffffffffffffffffffffffffffffff1673ffffffffffffffffffffffffffffffffffffffff16815260200190815260200160002060008282540192505081905550816002600083815260200190815260200160002060006101000a81548173ffffffffffffffffffffffffffffffffffffffff021916908373ffffffffffffffffffffffffffffffffffffffff160217905550808273ffffffffffffffffffffffffffffffffffffffff168473ffffffffffffffffffffffffffffffffffffffff167fddf252ad1be2c89b69c2b068fc378daa952ba7f163c4a11628f55a4df523b3ef60405160405180910390a4612d678383836001613349565b505050565b60006002600083815260200190815260200160002060009054906101000a900473ffffffffffffffffffffffffffffffffffffffff169050919050565b600081600001549050919050565b60008073ffffffffffffffffffffffffffffffffffffffff16612dd983612d6c565b73ffffffffffffffffffffffffffffffffffffffff1614159050919050565b6000600760009054906101000a900473ffffffffffffffffffffffffffffffffffffffff16905081600760006101000a81548173ffffffffffffffffffffffffffffffffffffffff021916908373ffffffffffffffffffffffffffffffffffffffff1602179055508173ffffffffffffffffffffffffffffffffffffffff168173ffffffffffffffffffffffffffffffffffffffff167f8be0079c531659141344cd1fd0a4f28419497f9722a3daafe3b4186f6b6457e060405160405180910390a35050565b600260085403612f03576040517f08c379a0000000000000000000000000000000000000000000000000000000008152600401612efa906152cc565b60405180910390fd5b6002600881905550565b6001600881905550565b6001816000016000828254019250508190555050565b612f4782826040518060200160405280600081525061334f565b5050565b60004244848433604051602001612f66959493929190615391565b6040516020818303038152906040528051906020012060001c905092915050565b8173ffffffffffffffffffffffffffffffffffffffff168373ffffffffffffffffffffffffffffffffffffffff1603612ff5576040517f08c379a0000000000000000000000000000000000000000000000000000000008152600401612fec90615438565b60405180910390fd5b80600560008573ffffffffffffffffffffffffffffffffffffffff1673ffffffffffffffffffffffffffffffffffffffff16815260200190815260200160002060008473ffffffffffffffffffffffffffffffffffffffff1673ffffffffffffffffffffffffffffffffffffffff16815260200190815260200160002060006101000a81548160ff0219169083151502179055508173ffffffffffffffffffffffffffffffffffffffff168373ffffffffffffffffffffffffffffffffffffffff167f17307eab39ab6107e8899845ad3d59bd9653f200f220920489ca2b5937696c31836040516130e69190613ba4565b60405180910390a3505050565b6130fe848484612a73565b61310a848484846133aa565b613149576040517f08c379a0000000000000000000000000000000000000000000000000000000008152600401613140906154ca565b60405180910390fd5b50505050565b606061315a82612854565b600060066000848152602001908152602001600020805461317a90614544565b80601f01602080910402602001604051908101604052809291908181526020018280546131a690614544565b80156131f35780601f106131c8576101008083540402835291602001916131f3565b820191906000526020600020905b8154815290600101906020018083116131d657829003601f168201915b505050505090506000613204613531565b9050600081510361321957819250505061325c565b60008251111561324e5780826040516020016132369291906154ea565b6040516020818303038152906040529250505061325c565b61325784613548565b925050505b919050565b60007f80ac58cd000000000000000000000000000000000000000000000000000000007bffffffffffffffffffffffffffffffffffffffffffffffffffffffff1916827bffffffffffffffffffffffffffffffffffffffffffffffffffffffff1916148061332c57507f5b5e139f000000000000000000000000000000000000000000000000000000007bffffffffffffffffffffffffffffffffffffffffffffffffffffffff1916827bffffffffffffffffffffffffffffffffffffffffffffffffffffffff1916145b8061333c575061333b826135b0565b5b9050919050565b50505050565b50505050565b613359838361361a565b61336660008484846133aa565b6133a5576040517f08c379a000000000000000000000000000000000000000000000000000000000815260040161339c906154ca565b60405180910390fd5b505050565b60006133cb8473ffffffffffffffffffffffffffffffffffffffff16613837565b15613524578373ffffffffffffffffffffffffffffffffffffffff1663150b7a026133f461289f565b8786866040518563ffffffff1660e01b81526004016134169493929190615563565b6020604051808303816000875af192505050801561345257506040513d601f19601f8201168201806040525081019061344f91906155c4565b60015b6134d4573d8060008114613482576040519150601f19603f3d011682016040523d82523d6000602084013e613487565b606091505b5060008151036134cc576040517f08c379a00000000000000000000000000000000000000000000000000000000081526004016134c3906154ca565b60405180910390fd5b805181602001fd5b63150b7a0260e01b7bffffffffffffffffffffffffffffffffffffffffffffffffffffffff1916817bffffffffffffffffffffffffffffffffffffffffffffffffffffffff191614915050613529565b600190505b949350505050565b606060405180602001604052806000815250905090565b606061355382612854565b600061355d613531565b9050600081511161357d57604051806020016040528060008152506135a8565b806135878461385a565b6040516020016135989291906154ea565b6040516020818303038152906040525b915050919050565b60007f01ffc9a7000000000000000000000000000000000000000000000000000000007bffffffffffffffffffffffffffffffffffffffffffffffffffffffff1916827bffffffffffffffffffffffffffffffffffffffffffffffffffffffff1916149050919050565b600073ffffffffffffffffffffffffffffffffffffffff168273ffffffffffffffffffffffffffffffffffffffff1603613689576040517f08c379a00000000000000000000000000000000000000000000000000000000081526004016136809061563d565b60405180910390fd5b61369281612db7565b156136d2576040517f08c379a00000000000000000000000000000000000000000000000000000000081526004016136c9906156a9565b60405180910390fd5b6136e0600083836001613343565b6136e981612db7565b15613729576040517f08c379a0000000000000000000000000000000000000000000000000000000008152600401613720906156a9565b60405180910390fd5b6001600360008473ffffffffffffffffffffffffffffffffffffffff1673ffffffffffffffffffffffffffffffffffffffff16815260200190815260200160002060008282540192505081905550816002600083815260200190815260200160002060006101000a81548173ffffffffffffffffffffffffffffffffffffffff021916908373ffffffffffffffffffffffffffffffffffffffff160217905550808273ffffffffffffffffffffffffffffffffffffffff16600073ffffffffffffffffffffffffffffffffffffffff167fddf252ad1be2c89b69c2b068fc378daa952ba7f163c4a11628f55a4df523b3ef60405160405180910390a4613833600083836001613349565b5050565b6000808273ffffffffffffffffffffffffffffffffffffffff163b119050919050565b60606000600161386984613928565b01905060008167ffffffffffffffff81111561388857613887614270565b5b6040519080825280601f01601f1916602001820160405280156138ba5781602001600182028036833780820191505090505b509050600082602001820190505b60011561391d578080600190039150507f3031323334353637383961626364656600000000000000000000000000000000600a86061a8153600a858161391157613910614bdf565b5b049450600085036138c8575b819350505050919050565b600080600090507a184f03e93ff9f4daa797ed6e38ed64bf6a1f0100000000000000008310613986577a184f03e93ff9f4daa797ed6e38ed64bf6a1f010000000000000000838161397c5761397b614bdf565b5b0492506040810190505b6d04ee2d6d415b85acef810000000083106139c3576d04ee2d6d415b85acef810000000083816139b9576139b8614bdf565b5b0492506020810190505b662386f26fc1000083106139f257662386f26fc1000083816139e8576139e7614bdf565b5b0492506010810190505b6305f5e1008310613a1b576305f5e1008381613a1157613a10614bdf565b5b0492506008810190505b6127108310613a40576127108381613a3657613a35614bdf565b5b0492506004810190505b60648310613a635760648381613a5957613a58614bdf565b5b0492506002810190505b600a8310613a72576001810190505b80915050919050565b604051806101800160405280600060ff168152602001600060ff168152602001600060ff168152602001600060ff168152602001600060ff168152602001600060ff16815260200160008152602001600081526020016000815260200160008152602001600081526020016000151581525090565b6000604051905090565b600080fd5b600080fd5b60007fffffffff0000000000000000000000000000000000000000000000000000000082169050919050565b613b3981613b04565b8114613b4457600080fd5b50565b600081359050613b5681613b30565b92915050565b600060208284031215613b7257613b71613afa565b5b6000613b8084828501613b47565b91505092915050565b60008115159050919050565b613b9e81613b89565b82525050565b6000602082019050613bb96000830184613b95565b92915050565b600081519050919050565b600082825260208201905092915050565b60005b83811015613bf9578082015181840152602081019050613bde565b60008484015250505050565b6000601f19601f8301169050919050565b6000613c2182613bbf565b613c2b8185613bca565b9350613c3b818560208601613bdb565b613c4481613c05565b840191505092915050565b60006020820190508181036000830152613c698184613c16565b905092915050565b6000819050919050565b613c8481613c71565b8114613c8f57600080fd5b50565b600081359050613ca181613c7b565b92915050565b600060208284031215613cbd57613cbc613afa565b5b6000613ccb84828501613c92565b91505092915050565b600073ffffffffffffffffffffffffffffffffffffffff82169050919050565b6000613cff82613cd4565b9050919050565b613d0f81613cf4565b82525050565b6000602082019050613d2a6000830184613d06565b92915050565b613d3981613cf4565b8114613d4457600080fd5b50565b600081359050613d5681613d30565b92915050565b60008060408385031215613d7357613d72613afa565b5b6000613d8185828601613d47565b9250506020613d9285828601613c92565b9150509250929050565b600060208284031215613db257613db1613afa565b5b6000613dc084828501613d47565b91505092915050565b600060ff82169050919050565b613ddf81613dc9565b82525050565b613dee81613c71565b82525050565b600061018082019050613e0a600083018f613dd6565b613e17602083018e613dd6565b613e24604083018d613dd6565b613e31606083018c613dd6565b613e3e608083018b613dd6565b613e4b60a083018a613dd6565b613e5860c0830189613de5565b613e6560e0830188613de5565b613e73610100830187613de5565b613e81610120830186613de5565b613e8f610140830185613de5565b613e9d610160830184613b95565b9d9c50505050505050505050505050565b600080600060608486031215613ec757613ec6613afa565b5b6000613ed586828701613d47565b9350506020613ee686828701613d47565b9250506040613ef786828701613c92565b9150509250925092565b6000602082019050613f166000830184613de5565b92915050565b600081519050919050565b600082825260208201905092915050565b6000819050602082019050919050565b613f5181613c71565b82525050565b6000613f638383613f48565b60208301905092915050565b6000602082019050919050565b6000613f8782613f1c565b613f918185613f27565b9350613f9c83613f38565b8060005b83811015613fcd578151613fb48882613f57565b9750613fbf83613f6f565b925050600181019050613fa0565b5085935050505092915050565b60006020820190508181036000830152613ff48184613f7c565b905092915050565b61400581613dc9565b811461401057600080fd5b50565b60008135905061402281613ffc565b92915050565b600080600080600080600060e0888a03121561404757614046613afa565b5b60006140558a828b01613d47565b97505060206140668a828b01614013565b96505060406140778a828b01614013565b95505060606140888a828b01614013565b94505060806140998a828b01614013565b93505060a06140aa8a828b01614013565b92505060c06140bb8a828b01614013565b91505092959891949750929550565b6140d381613b89565b81146140de57600080fd5b50565b6000813590506140f0816140ca565b92915050565b6000806040838503121561410d5761410c613afa565b5b600061411b85828601613d47565b925050602061412c858286016140e1565b9150509250929050565b61413f81613dc9565b82525050565b61414e81613b89565b82525050565b6101808201600082015161416b6000850182614136565b50602082015161417e6020850182614136565b5060408201516141916040850182614136565b5060608201516141a46060850182614136565b5060808201516141b76080850182614136565b5060a08201516141ca60a0850182614136565b5060c08201516141dd60c0850182613f48565b5060e08201516141f060e0850182613f48565b50610100820151614205610100850182613f48565b5061012082015161421a610120850182613f48565b5061014082015161422f610140850182613f48565b50610160820151614244610160850182614145565b50505050565b6000610180820190506142606000830184614154565b92915050565b600080fd5b600080fd5b7f4e487b7100000000000000000000000000000000000000000000000000000000600052604160045260246000fd5b6142a882613c05565b810181811067ffffffffffffffff821117156142c7576142c6614270565b5b80604052505050565b60006142da613af0565b90506142e6828261429f565b919050565b600067ffffffffffffffff82111561430657614305614270565b5b61430f82613c05565b9050602081019050919050565b82818337600083830152505050565b600061433e614339846142eb565b6142d0565b90508281526020810184848401111561435a5761435961426b565b5b61436584828561431c565b509392505050565b600082601f83011261438257614381614266565b5b813561439284826020860161432b565b91505092915050565b600080600080608085870312156143b5576143b4613afa565b5b60006143c387828801613d47565b94505060206143d487828801613d47565b93505060406143e587828801613c92565b925050606085013567ffffffffffffffff81111561440657614405613aff565b5b6144128782880161436d565b91505092959194509250565b6000806040838503121561443557614434613afa565b5b600061444385828601613c92565b925050602061445485828601613c92565b9150509250929050565b6000806040838503121561447557614474613afa565b5b600061448385828601613c92565b9250506020614494858286016140e1565b9150509250929050565b60006060820190506144b36000830186613de5565b6144c06020830185613d06565b6144cd6040830184613b95565b949350505050565b600080604083850312156144ec576144eb613afa565b5b60006144fa85828601613d47565b925050602061450b85828601613d47565b9150509250929050565b7f4e487b7100000000000000000000000000000000000000000000000000000000600052602260045260246000fd5b6000600282049050600182168061455c57607f821691505b60208210810361456f5761456e614515565b5b50919050565b7f4552433732313a20617070726f76616c20746f2063757272656e74206f776e6560008201527f7200000000000000000000000000000000000000000000000000000000000000602082015250565b60006145d1602183613bca565b91506145dc82614575565b604082019050919050565b60006020820190508181036000830152614600816145c4565b9050919050565b7f4552433732313a20617070726f76652063616c6c6572206973206e6f7420746f60008201527f6b656e206f776e6572206f7220617070726f76656420666f7220616c6c000000602082015250565b6000614663603d83613bca565b915061466e82614607565b604082019050919050565b6000602082019050818103600083015261469281614656565b9050919050565b7f4e6f7420617574686f72697a6564000000000000000000000000000000000000600082015250565b60006146cf600e83613bca565b91506146da82614699565b602082019050919050565b600060208201905081810360008301526146fe816146c2565b9050919050565b7f4e487b7100000000000000000000000000000000000000000000000000000000600052601160045260246000fd5b600061473f82613c71565b91507fffffffffffffffffffffffffffffffffffffffffffffffffffffffffffffffff820361477157614770614705565b5b600182019050919050565b7f4552433732313a2063616c6c6572206973206e6f7420746f6b656e206f776e6560008201527f72206f7220617070726f76656400000000000000000000000000000000000000602082015250565b60006147d8602d83613bca565b91506147e38261477c565b604082019050919050565b60006020820190508181036000830152614807816147cb565b9050919050565b600081905092915050565b50565b600061482960008361480e565b915061483482614819565b600082019050919050565b600061484a8261481c565b9150819050919050565b7f5769746864726177616c206661696c6564000000000000000000000000000000600082015250565b600061488a601183613bca565b915061489582614854565b602082019050919050565b600060208201905081810360008301526148b98161487d565b9050919050565b7f4e6f74207468652073656c6c6572000000000000000000000000000000000000600082015250565b60006148f6600e83613bca565b9150614901826148c0565b602082019050919050565b60006020820190508181036000830152614925816148e9565b9050919050565b7f4e6f74206c697374656400000000000000000000000000000000000000000000600082015250565b6000614962600a83613bca565b915061496d8261492c565b602082019050919050565b6000602082019050818103600083015261499181614955565b9050919050565b7f4552433732313a20696e76616c696420746f6b656e2049440000000000000000600082015250565b60006149ce601883613bca565b91506149d982614998565b602082019050919050565b600060208201905081810360008301526149fd816149c1565b9050919050565b7f4552433732313a2061646472657373207a65726f206973206e6f74206120766160008201527f6c6964206f776e65720000000000000000000000000000000000000000000000602082015250565b6000614a60602983613bca565b9150614a6b82614a04565b604082019050919050565b60006020820190508181036000830152614a8f81614a53565b9050919050565b7f4e487b7100000000000000000000000000000000000000000000000000000000600052603260045260246000fd5b7f4e6f74206c697374656420666f722073616c6500000000000000000000000000600082015250565b6000614afb601383613bca565b9150614b0682614ac5565b602082019050919050565b60006020820190508181036000830152614b2a81614aee565b9050919050565b7f496e73756666696369656e74207061796d656e74000000000000000000000000600082015250565b6000614b67601483613bca565b9150614b7282614b31565b602082019050919050565b60006020820190508181036000830152614b9681614b5a565b9050919050565b6000614ba882613c71565b9150614bb383613c71565b9250828202614bc181613c71565b91508282048414831517614bd857614bd7614705565b5b5092915050565b7f4e487b7100000000000000000000000000000000000000000000000000000000600052601260045260246000fd5b6000614c1982613c71565b9150614c2483613c71565b925082614c3457614c33614bdf565b5b828204905092915050565b6000614c4a82613c71565b9150614c5583613c71565b9250828203905081811115614c6d57614c6c614705565b5b92915050565b7f5472616e7366657220746f2073656c6c6572206661696c656400000000000000600082015250565b6000614ca9601983613bca565b9150614cb482614c73565b602082019050919050565b60006020820190508181036000830152614cd881614c9c565b9050919050565b7f526566756e64206661696c656400000000000000000000000000000000000000600082015250565b6000614d15600d83613bca565b9150614d2082614cdf565b602082019050919050565b60006020820190508181036000830152614d4481614d08565b9050919050565b7f4f6e6c79206272656564696e6720636f6e74726163742063616e206d696e742060008201527f6f6666737072696e670000000000000000000000000000000000000000000000602082015250565b6000614da7602983613bca565b9150614db282614d4b565b604082019050919050565b60006020820190508181036000830152614dd681614d9a565b9050919050565b7f4d617820737570706c7920726561636865640000000000000000000000000000600082015250565b6000614e13601283613bca565b9150614e1e82614ddd565b602082019050919050565b60006020820190508181036000830152614e4281614e06565b9050919050565b6000614e5482613c71565b9150614e5f83613c71565b925082614e6f57614e6e614bdf565b5b828206905092915050565b6000614e8582613c71565b9150614e9083613c71565b9250828201905080821115614ea857614ea7614705565b5b92915050565b7f546f6b656e20646f6573206e6f74206578697374000000000000000000000000600082015250565b6000614ee4601483613bca565b9150614eef82614eae565b602082019050919050565b60006020820190508181036000830152614f1381614ed7565b9050919050565b7f4e6f7420746865206f776e657200000000000000000000000000000000000000600082015250565b6000614f50600d83613bca565b9150614f5b82614f1a565b602082019050919050565b60006020820190508181036000830152614f7f81614f43565b9050919050565b7f5072696365206d7573742062652067726561746572207468616e203000000000600082015250565b6000614fbc601c83613bca565b9150614fc782614f86565b602082019050919050565b60006020820190508181036000830152614feb81614faf565b9050919050565b7f416c7265616479206c6973746564000000000000000000000000000000000000600082015250565b6000615028600e83613bca565b915061503382614ff2565b602082019050919050565b600060208201905081810360008301526150578161501b565b9050919050565b7f4f776e61626c653a206e6577206f776e657220697320746865207a65726f206160008201527f6464726573730000000000000000000000000000000000000000000000000000602082015250565b60006150ba602683613bca565b91506150c58261505e565b604082019050919050565b600060208201905081810360008301526150e9816150ad565b9050919050565b7f4f776e61626c653a2063616c6c6572206973206e6f7420746865206f776e6572600082015250565b6000615126602083613bca565b9150615131826150f0565b602082019050919050565b6000602082019050818103600083015261515581615119565b9050919050565b7f4552433732313a207472616e736665722066726f6d20696e636f72726563742060008201527f6f776e6572000000000000000000000000000000000000000000000000000000602082015250565b60006151b8602583613bca565b91506151c38261515c565b604082019050919050565b600060208201905081810360008301526151e7816151ab565b9050919050565b7f4552433732313a207472616e7366657220746f20746865207a65726f2061646460008201527f7265737300000000000000000000000000000000000000000000000000000000602082015250565b600061524a602483613bca565b9150615255826151ee565b604082019050919050565b600060208201905081810360008301526152798161523d565b9050919050565b7f5265656e7472616e637947756172643a207265656e7472616e742063616c6c00600082015250565b60006152b6601f83613bca565b91506152c182615280565b602082019050919050565b600060208201905081810360008301526152e5816152a9565b9050919050565b6000819050919050565b61530761530282613c71565b6152ec565b82525050565b600081905092915050565b600061532382613bbf565b61532d818561530d565b935061533d818560208601613bdb565b80840191505092915050565b60008160601b9050919050565b600061536182615349565b9050919050565b600061537382615356565b9050919050565b61538b61538682613cf4565b615368565b82525050565b600061539d82886152f6565b6020820191506153ad82876152f6565b6020820191506153bd82866152f6565b6020820191506153cd8285615318565b91506153d9828461537a565b6014820191508190509695505050505050565b7f4552433732313a20617070726f766520746f2063616c6c657200000000000000600082015250565b6000615422601983613bca565b915061542d826153ec565b602082019050919050565b6000602082019050818103600083015261545181615415565b9050919050565b7f4552433732313a207472616e7366657220746f206e6f6e20455243373231526560008201527f63656976657220696d706c656d656e7465720000000000000000000000000000602082015250565b60006154b4603283613bca565b91506154bf82615458565b604082019050919050565b600060208201905081810360008301526154e3816154a7565b9050919050565b60006154f68285615318565b91506155028284615318565b91508190509392505050565b600081519050919050565b600082825260208201905092915050565b60006155358261550e565b61553f8185615519565b935061554f818560208601613bdb565b61555881613c05565b840191505092915050565b60006080820190506155786000830187613d06565b6155856020830186613d06565b6155926040830185613de5565b81810360608301526155a4818461552a565b905095945050505050565b6000815190506155be81613b30565b92915050565b6000602082840312156155da576155d9613afa565b5b60006155e8848285016155af565b91505092915050565b7f4552433732313a206d696e7420746f20746865207a65726f2061646472657373600082015250565b6000615627602083613bca565b9150615632826155f1565b602082019050919050565b600060208201905081810360008301526156568161561a565b9050919050565b7f4552433732313a20746f6b656e20616c7265616479206d696e74656400000000600082015250565b6000615693601c83613bca565b915061569e8261565d565b602082019050919050565b600060208201905081810360008301526156c281615686565b905091905056fea264697066735822122086f36b4889e015dea15613b46285db87aea581ef65b9851a2b845ec3a72ed33464736f6c63430008140033",
  "linkReferences": {},
  "deployedLinkReferences": {}
}