{
  "_format": "hh-sol-artifact-1",
  "contractName": "HenBreeding",
  "sourceName": "contracts/HenBreeding.sol",
  "abi": [
    {
      "inputs": [
        {
          "internalType": "address",
          "name": "_henNFTAddress",
          "type": "address"
        }
      ],
      "stateMutability": "nonpayable",
      "type": "constructor"
    },
    {
      "anonymous": false,
      "inputs": [
        {
          "indexed": true,
          "internalType": "uint256",
          "name": "parent1Id",
          "type": "uint256"
        },
        {
          "indexed": true,
          "internalType": "uint256",
          "name": "parent2Id",
          "type": "uint256"
        },
        {
          "indexed": true,
          "internalType": "uint256",
          "name": "offspringId",
          "type": "uint256"
        },
        {
          "indexed": false,
          "internalType": "address",
          "name": "breeder",
          "type": "address"
        }
      ],
      "name": "BreedingInitiated",
      "type": "event"
    },
    {
      "anonymous": false,
      "inputs": [
        {
          "indexed": true,
          "internalType": "uint256",
          "name": "tokenId",
          "type": "uint256"
        },
        {
          "components": [
            {
              "internalType": "uint8",
              "name": "strength",
              "type": "uint8"
            },
            {
              "internalType": "uint8",
              "name": "speed",
              "type": "uint8"
            },
            {
              "internalType": "uint8",
              "name": "stamina",
              "type": "uint8"
            },
            {
              "internalType": "uint8",
              "name": "intelligence",
              "type": "uint8"
            },
            {
              "internalType": "uint8",
              "name": "luck",
              "type": "uint8"
            },
            {
              "internalType": "uint8",
              "name": "generation",
              "type": "uint8"
            },
            {
              "internalType": "uint48",
              "name": "birthTime",
              "type": "uint48"
            },
            {
              "internalType": "uint48",
              "name": "lastBreedTime",
              "type": "uint48"
            },
            {
              "internalType": "uint32",
              "name": "wins",
              "type": "uint32"
            },
            {
              "internalType": "uint32",
              "name": "losses",
              "type": "uint32"
            },
            {
              "internalType": "uint32",
              "name": "racesWon",
              "type": "uint32"
            },
            {
              "internalType": "uint32",
              "name": "xp",
              "type": "uint32"
            },
            {
              "internalType": "bool",
              "name": "isAlive",
              "type": "bool"
            },
            {
              "internalType": "uint8",
              "name": "trainingLevel",
              "type": "uint8"
            }
          ],
          "indexed": false,
          "internalType": "struct IHenNFT.HenTraits",
          "name": "traits",
          "type": "tuple"
        }
      ],
      "name": "OffspringBorn",
      "type": "event"
    },
    {
      "anonymous": false,
      "inputs": [
        {
          "indexed": true,
          "internalType": "address",
          "name": "previousOwner",
          "type": "address"
        },
        {
          "indexed": true,
          "internalType": "address",
          "name": "newOwner",
          "type": "address"
        }
      ],
      "name": "OwnershipTransferred",
      "type": "event"
    },
    {
      "inputs": [],
      "name": "BREEDING_COOLDOWN",
      "outputs": [
        {
          "internalType": "uint256",
          "name": "",
          "type": "uint256"
        }
      ],
      "stateMutability": "view",
      "type": "function"
    },
    {
      "inputs": [],
      "name": "BREEDING_COST",
      "outputs": [
        {
          "internalType": "uint256",
          "name": "",
          "type": "uint256"
        }
      ],
      "stateMutability": "view",
      "type": "function"
    },
    {
      "inputs": [],
      "name": "MAX_GENERATION",
      "outputs": [
        {
          "internalType": "uint256",
          "name": "",
          "type": "uint256"
        }
      ],
      "stateMutability": "view",
      "type": "function"
    },
    {
      "inputs": [
        {
          "internalType": "uint256",
          "name": "",
          "type": "uint256"
        }
      ],
      "name": "breedCount",
      "outputs": [
        {
          "internalType": "uint256",
          "name": "",
          "type": "uint256"
        }
      ],
      "stateMutability": "view",
      "type": "function"
    },
    {
      "inputs": [
        {
          "internalType": "uint256",
          "name": "parent1Id",
          "type": "uint256"
        },
        {
          "internalType": "uint256",
          "name": "parent2Id",
          "type": "uint256"
        }
      ],
      "name": "breedHens",
      "outputs": [
        {
          "internalType": "uint256",
          "name": "",
          "type": "uint256"
        }
      ],
      "stateMutability": "payable",
      "type": "function"
    },
    {
      "inputs": [
        {
          "internalType": "uint256",
          "name": "parent1Id",
          "type": "uint256"
        },
        {
          "internalType": "uint256",
          "name": "parent2Id",
          "type": "uint256"
        }
      ],
      "name": "canBreed",
      "outputs": [
        {
          "internalType": "bool",
          "name": "",
          "type": "bool"
        },
        {
          "internalType": "string",
          "name": "",
          "type": "string"
        }
      ],
      "stateMutability": "view",
      "type": "function"
    },
    {
      "inputs": [
        {
          "internalType": "uint256",
          "name": "tokenId",
          "type": "uint256"
        }
      ],
      "name": "getBreedingInfo",
      "outputs": [
        {
          "internalType": "uint256",
          "name": "breedingCount",
          "type": "uint256"
        },
        {
          "internalType": "uint256",
          "name": "cooldownRemaining",
          "type": "uint256"
        },
        {
          "internalType": "uint256[]",
          "name": "offspringIds",
          "type": "uint256[]"
        }
      ],
      "stateMutability": "view",
      "type": "function"
    },
    {
      "inputs": [
        {
          "internalType": "uint256",
          "name": "parentId",
          "type": "uint256"
        }
      ],
      "name": "getOffspring",
      "outputs": [
        {
          "internalType": "uint256[]",
          "name": "",
          "type": "uint256[]"
        }
      ],
      "stateMutability": "view",
      "type": "function"
    },
    {
      "inputs": [
        {
          "internalType": "uint256",
          "name": "",
          "type": "uint256"
        },
        {
          "internalType": "uint256",
          "name": "",
          "type": "uint256"
        }
      ],
      "name": "hasBred",
      "outputs": [
        {
          "internalType": "bool",
          "name": "",
          "type": "bool"
        }
      ],
      "stateMutability": "view",
      "type": "function"
    },
    {
      "inputs": [],
      "name": "henNFT",
      "outputs": [
        {
          "internalType": "contract IHenNFT",
          "name": "",
          "type": "address"
        }
      ],
      "stateMutability": "view",
      "type": "function"
    },
    {
      "inputs": [
        {
          "internalType": "uint256",
          "name": "",
          "type": "uint256"
        },
        {
          "internalType": "uint256",
          "name": "",
          "type": "uint256"
        }
      ],
      "name": "offspring",
      "outputs": [
        {
          "internalType": "uint256",
          "name": "",
          "type": "uint256"
        }
      ],
      "stateMutability": "view",
      "type": "function"
    },
    {
      "inputs": [],
      "name": "owner",
      "outputs": [
        {
          "internalType": "address",
          "name": "",
          "type": "address"
        }
      ],
      "stateMutability": "view",
      "type": "function"
    },
    {
      "inputs": [],
      "name": "renounceOwnership",
      "outputs": [],
      "stateMutability": "nonpayable",
      "type": "function"
    },
    {
      "inputs": [
        {
          "internalType": "address",
          "name": "newOwner",
          "type": "address"
        }
      ],
      "name": "transferOwnership",
      "outputs": [],
      "stateMutability": "nonpayable",
      "type": "function"
    },
    {
      "inputs": [],
      "name": "withdraw",
      "outputs": [],
      "stateMutability": "nonpayable",
      "type": "function"
    }
  ],
  "bytecode": "0x6080346100ab57601f61196c38819003918201601f19168301916001600160401b038311848410176100b0578084926020946040528339810103126100ab57516001600160a01b0390818116908190036100ab5760005460018060a01b0319903382821617600055604051933391167f8be0079c531659141344cd1fd0a4f28419497f9722a3daafe3b4186f6b6457e0600080a36001805560025416176002556118a590816100c78239f35b600080fd5b634e487b7160e01b600052604160045260246000fdfe608080604052600436101561001357600080fd5b600090813560e01c9081630ef6992614611086575080631c8e1887146110325780633ccfd60b14610f7657806340af96bb14610f365780634324450b14610f1457806352ff6baf14610ef8578063715018a614610e9e57806385a9022914610d6c57806387bfa1d714610d4e5780638da5cb5b14610d27578063a43e18c014610ce4578063ce08d6fa14610cbb578063cea1fcde14610c89578063ea13afba146101995763f2fde38b146100c657600080fd5b34610196576020366003190112610196576004356001600160a01b0381811691829003610192576100f561114d565b811561013e57600054826bffffffffffffffffffffffff60a01b821617600055167f8be0079c531659141344cd1fd0a4f28419497f9722a3daafe3b4186f6b6457e0600080a380f35b60405162461bcd60e51b815260206004820152602660248201527f4f776e61626c653a206e6577206f776e657220697320746865207a65726f206160448201526564647265737360d01b6064820152608490fd5b8280fd5b80fd5b506101a3366110ad565b90600260015414610c44576002600155662386f26fc100003410610bff57818114610bbf576002546040516331a9108f60e11b808252600482018490526001600160a01b03909216939190602081602481885afa908115610880578691610ba0575b50336001600160a01b0390911603610b6357604051908152816004820152602081602481875afa9081156108d6578591610b34575b50336001600160a01b0390911603610af75781845260036020526040842081855260205260ff6040852054161580610ad9575b15610aa5576040519163a634514160e01b8084528160048501526101c084602481885afa938415610880578694610a82575b506101c09060246040518097819382528660048301525afa9384156108d6578594610a4f575b50610180830151151580610a41575b15610a055765ffffffffffff60e08401511662093a80908181018091116109f15742106109ac5765ffffffffffff60e08601511690810180911161099857421061095357600a60ff60a0850151161080610942575b15610904578085526003602052604085208286526020526040852060ff1990600182825416179055600360205260408620828752602052600160408720918254161790556004602052604085206103808154611387565b90558185526004602052604085206103988154611387565b90556040514260208201528160408201528260608201523360601b6080820152446094820152609481528060c081011067ffffffffffffffff60c0830111176108f0578060c08792016040528161026082516020840120926103fc60c082016111a5565b8260c08201528260e08201528261010082015282610120820152826101408201528261016082015282610180820152826101a0820152826101c0820152826101e0820152826102008201528261022082015282610240820152015260ff60a08601511660ff60a0880151168091116000146108e1575061048260ff60a0870151166113e6565b905b855160ff16875160ff16826040519161049c836111ec565b60088352670e6e8e4cadccee8d60c31b60208401526104ba936113f8565b91602087015160ff16602089015160ff1683604051916104d9836111ec565b60058352641cdc19595960da1b60208401526104f4936113f8565b97604088015160ff16604082015160ff168460405191610513836111ec565b60078352667374616d696e6160c81b6020840152610530936113f8565b92606089015160ff16606083015160ff16826040519161054f836111ec565b600c83526b696e74656c6c6967656e636560a01b6020840152610571936113f8565b986080015160ff16916080015160ff16906040519161058f836111ec565b60048352636c75636b60e01b60208401526105a9936113f8565b604051976105b6896111a5565b60ff8516895260ff8a1660208a015260ff841660408a015260ff811660608a015260ff821660808a015260ff831660a08a01524265ffffffffffff1660c08a01528560e08a0152856101008a0152856101208a0152856101408a0152856101608a0152610180890160019052856101a08a0152600160a01b6001900360025416936040519a8b96637deb0bf160e01b885233600489015260ff16602488015260ff16604487015260ff16606486015260ff16608485015260ff1660a484015260ff1660c4830152815a9360e492602095f19384156108d65785946108a2575b5060025485906001600160a01b0316803b1561088b5781906044604051809481936328a3750760e11b8352876004840152601960248401525af180156108805761088f575b5060025485906001600160a01b0316803b1561088b5781906044604051809481936328a3750760e11b8352886004840152601960248401525af1801561088057610868575b508392837ffa5a6b70499c8469a277e6089f81f6c3e0166762a1423e4bba35702ebfeec08493836107728360408b6101c09860209d5260058d52610765838383206113ac565b85815260058d52206113ac565b7fa2729177feabecfa451f897dc3ab5dcd97538bad71b46f9f0849debf61b9291089604051338152a460ff6101a060405192828151168452828982015116898501528260408201511660408501528260608201511660608501528260808201511660808501528260a08201511660a085015265ffffffffffff60c08201511660c085015265ffffffffffff60e08201511660e085015263ffffffff8061010083015116610100860152806101208301511661012086015280610140830151166101408601526101608201511661016085015261018081015115156101808501520151166101a0820152a260018055604051908152f35b61087286916111d8565b61087c573861071f565b8480fd5b6040513d88823e3d90fd5b5080fd5b61089b909591956111d8565b93386106da565b9093506020813d6020116108ce575b816108be60209383611208565b8101031261087c57519238610695565b3d91506108b1565b6040513d87823e3d90fd5b6108ea906113e6565b90610484565b634e487b7160e01b86526041600452602486fd5b60405162461bcd60e51b815260206004820152601660248201527513585e0819d95b995c985d1a5bdb881c995858da195960521b6044820152606490fd5b50600a60ff60a08601511610610329565b60405162461bcd60e51b815260206004820152601e60248201527f506172656e74203220636f6f6c646f776e206e6f742066696e697368656400006044820152606490fd5b634e487b7160e01b86526011600452602486fd5b60405162461bcd60e51b815260206004820152601e60248201527f506172656e74203120636f6f6c646f776e206e6f742066696e697368656400006044820152606490fd5b634e487b7160e01b87526011600452602487fd5b60405162461bcd60e51b8152602060048201526014602482015273506172656e74206d75737420626520616c69766560601b6044820152606490fd5b5061018084015115156102d4565b610a749194506101c03d6101c011610a7b575b610a6c8183611208565b81019061127b565b92386102c5565b503d610a62565b6101c0919450610a9e90823d8411610a7b57610a6c8183611208565b939061029f565b60405162461bcd60e51b815260206004820152600c60248201526b105b1c9958591e48189c995960a21b6044820152606490fd5b5060036020526040842082855260205260ff6040852054161561026d565b60405162461bcd60e51b81526020600482015260156024820152742737ba1037bbb732b91037b3103830b932b73a101960591b6044820152606490fd5b610b56915060203d602011610b5c575b610b4e8183611208565b81019061122a565b3861023a565b503d610b44565b60405162461bcd60e51b81526020600482015260156024820152744e6f74206f776e6572206f6620706172656e74203160581b6044820152606490fd5b610bb9915060203d602011610b5c57610b4e8183611208565b38610205565b60405162461bcd60e51b815260206004820152601860248201527721b0b73737ba10313932b2b2103bb4ba341034ba39b2b63360411b6044820152606490fd5b60405162461bcd60e51b815260206004820152601960248201527f496e73756666696369656e74206272656564696e6720666565000000000000006044820152606490fd5b60405162461bcd60e51b815260206004820152601f60248201527f5265656e7472616e637947756172643a207265656e7472616e742063616c6c006044820152606490fd5b50346101965760ff6040602092610c9f366110ad565b9082526003855282822090825284522054166040519015158152f35b50346101965780600319360112610196576002546040516001600160a01b039091168152602090f35b503461019657602036600319011261019657610d0f6040610d2392600435815260056020522061154b565b604051918291602083526020830190611119565b0390f35b5034610196578060031936011261019657546040516001600160a01b039091168152602090f35b5034610196578060031936011261019657602060405162093a808152f35b5034610196576020366003190112610196576004359060018060a01b036002541691604051809363a634514160e01b82528260048301528160246101c09687935afa938415610e93578394610e74575b505060e082930165ffffffffffff808251169162093a8092838101809111610998574210610e25575b50505081526004602052610d23610e076040808420549360056020522061154b565b60405193849384526020840152606060408401526060830190611119565b909192945051169080820191828111610e605742900301908111610e4c5791388080610de5565b634e487b7160e01b82526011600452602482fd5b634e487b7160e01b84526011600452602484fd5b610e8b929450803d10610a7b57610a6c8183611208565b913880610dbc565b6040513d85823e3d90fd5b5034610196578060031936011261019657610eb761114d565b80546001600160a01b03198116825581906001600160a01b03167f8be0079c531659141344cd1fd0a4f28419497f9722a3daafe3b4186f6b6457e08280a380f35b50346101965780600319360112610196576020604051600a8152f35b50346101965780600319360112610196576020604051662386f26fc100008152f35b503461019657610f45366110ad565b91908152600560205260408120908154831015610196576020610f6884846110eb565b90546040519160031b1c8152f35b5034610196578060031936011261019657610f8f61114d565b808080804760018060a01b038254165af13d1561102d573d67ffffffffffffffff81116110195760405190610fce601f8201601f191660200183611208565b81528260203d92013e5b15610fe05780f35b60405162461bcd60e51b815260206004820152601160248201527015da5d1a191c985dd85b0819985a5b1959607a1b6044820152606490fd5b634e487b7160e01b83526041600452602483fd5b610fd8565b503461019657606061104c611046366110ad565b9061159c565b9190604051928391151582526040602083015261107881518092816040860152602086860191016110c8565b601f01601f19168101030190f35b90503461088b57602036600319011261088b57604060209260043581526004845220548152f35b60409060031901126110c3576004359060243590565b600080fd5b60005b8381106110db5750506000910152565b81810151838201526020016110cb565b80548210156111035760005260206000200190600090565b634e487b7160e01b600052603260045260246000fd5b90815180825260208080930193019160005b828110611139575050505090565b83518552938101939281019260010161112b565b6000546001600160a01b0316330361116157565b606460405162461bcd60e51b815260206004820152602060248201527f4f776e61626c653a2063616c6c6572206973206e6f7420746865206f776e65726044820152fd5b6101c0810190811067ffffffffffffffff8211176111c257604052565b634e487b7160e01b600052604160045260246000fd5b67ffffffffffffffff81116111c257604052565b6040810190811067ffffffffffffffff8211176111c257604052565b90601f8019910116810190811067ffffffffffffffff8211176111c257604052565b908160209103126110c357516001600160a01b03811681036110c35790565b519060ff821682036110c357565b519065ffffffffffff821682036110c357565b519063ffffffff821682036110c357565b90816101c09103126110c35760405190611294826111a5565b61129d81611249565b82526112ab60208201611249565b60208301526112bc60408201611249565b60408301526112cd60608201611249565b60608301526112de60808201611249565b60808301526112ef60a08201611249565b60a083015261130060c08201611257565b60c083015261131160e08201611257565b60e083015261010061132481830161126a565b9083015261012061133681830161126a565b9083015261014061134881830161126a565b9083015261016061135a81830161126a565b90830152610180808201519081151582036110c3578301526113806101a0809201611249565b9082015290565b60001981146113965760010190565b634e487b7160e01b600052601160045260246000fd5b8054680100000000000000008110156111c2576113ce916001820181556110eb565b819291549060031b91821b91600019901b1916179055565b60ff60019116019060ff821161139657565b909260649060405161145260628260208101944286528860408301526114288151809260206060860191016110c8565b810160ff60f81b808960f81b1660608301528a60f81b166061820152036042810184520182611208565b5190200692602884101561146e575061146b92506114a0565b90565b91926050111561148357509061146b916114a0565b60ff9081169116019061ffff82116113965760ff61146b9260011c165b90604051906020820190428252604083015260ff60f81b8360f81b1660608301524460618301526061825260a082019082821067ffffffffffffffff8311176111c25761ffff92600b92604052519020061660019060041990820b0191617fff90617fff1993828113858212176113965760ff90840b9116830b01928312908313176113965781810b90808212611545575060641261153f5760ff1690565b50606490565b91505090565b9060405191828154918282526020928383019160005283600020936000905b8282106115825750505061158092500383611208565b565b85548452600195860195889550938101939091019061156a565b91909182811461183657600081815260209160038352604094858320818452845260ff8684205416801561181d575b6117eb5760018060a01b036002541686519163a634514160e01b9384845260048401526101c0938484602481865afa9384156117e1579085929187956117bf575b506024908a519485938492835260048301525afa9283156117b5578493611796575b5050610180808201511590811561178a575b5061175d5765ffffffffffff8060e0830151169062093a80918281018091116109985742106117345760e084015116908101809111610e605742106117035760ff60a0600a9201511610908115916116ef575b506116be57506810d85b88189c99595960ba1b60019351916116b4836111ec565b6009835282015290565b7513585e0819d95b995c985d1a5bdb881c995858da195960521b909351916116e5836111ec565b6016835282015290565b600a915060a060ff91015116101538611693565b5050732830b932b73a10191037b71031b7b7b63237bbb760611b9093519161172a836111ec565b6014835282015290565b50505050732830b932b73a10189037b71031b7b7b63237bbb760611b9093519161172a836111ec565b50506f506172656e74206e6f7420616c69766560801b90935191611780836111ec565b6010835282015290565b90508201511538611640565b6117ad929350803d10610a7b57610a6c8183611208565b90388061162e565b87513d86823e3d90fd5b60249195506117da90843d8611610a7b57610a6c8183611208565b949061160c565b89513d88823e3d90fd5b50507420b63932b0b23c90313932b2103a37b3b2ba3432b960591b90935191611813836111ec565b6015835282015290565b5060038452858320828452845260ff86842054166115cb565b5060405160009250611847816111ec565b601881527721b0b73737ba10313932b2b2103bb4ba341034ba39b2b63360411b60208201529056fea264697066735822122065589a1b92ef9bef26837ad76744f111e15f5edc2ede6d2aa2f59e3ec0f71ea864736f6c63430008140033",
  "linkReferences": {},
  "deployedLinkReferences": {}
}