{
  "_format": "hh-sol-artifact-1",
  "contractName": "HenBreeding",
  "sourceName": "contracts/HenBreeding.sol",
  "abi": [
    {
      "inputs": [
        {
          "internalType": "address",
          "name": "_henNFTAddress",
          "type": "address"
        }
      ],
      "stateMutability": "nonpayable",
      "type": "constructor"
    },
    {
      "anonymous": false,
      "inputs": [
        {
          "indexed": true,
          "internalType": "uint256",
          "name": "parent1Id",
          "type": "uint256"
        },
        {
          "indexed": true,
          "internalType": "uint256",
          "name": "parent2Id",
          "type": "uint256"
        },
        {
          "indexed": true,
          "internalType": "uint256",
          "name": "offspringId",
          "type": "uint256"
        },
        {
          "indexed": false,
          "internalType": "address",
          "name": "breeder",
          "type": "address"
        }
      ],
      "name": "BreedingInitiated",
      "type": "event"
    },
    {
      "anonymous": false,
      "inputs": [
        {
          "indexed": true,
          "internalType": "uint256",
          "name": "tokenId",
          "type": "uint256"
        },
        {
          "components": [
            {
              "internalType": "uint8",
              "name": "strength",
              "type": "uint8"
            },
            {
              "internalType": "uint8",
              "name": "speed",
              "type": "uint8"
            },
            {
              "internalType": "uint8",
              "name": "stamina",
              "type": "uint8"
            },
            {
              "internalType": "uint8",
              "name": "intelligence",
              "type": "uint8"
            },
            {
              "internalType": "uint8",
              "name": "luck",
              "type": "uint8"
            },
            {
              "internalType": "uint8",
              "name": "generation",
              "type": "uint8"
            },
            {
              "internalType": "uint256",
              "name": "birthTime",
              "type": "uint256"
            },
            {
              "internalType": "uint256",
              "name": "lastBreedTime",
              "type": "uint256"
            },
            {
              "internalType": "uint256",
              "name": "wins",
              "type": "uint256"
            },
            {
              "internalType": "uint256",
              "name": "losses",
              "type": "uint256"
            },
            {
              "internalType": "uint256",
              "name": "racesWon",
              "type": "uint256"
            },
            {
              "internalType": "bool",
              "name": "isAlive",
              "type": "bool"
            }
          ],
          "indexed": false,
          "internalType": "struct IHenNFT.HenTraits",
          "name": "traits",
          "type": "tuple"
        }
      ],
      "name": "OffspringBorn",
      "type": "event"
    },
    {
      "anonymous": false,
      "inputs": [
        {
          "indexed": true,
          "internalType": "address",
          "name": "previousOwner",
          "type": "address"
        },
        {
          "indexed": true,
          "internalType": "address",
          "name": "newOwner",
          "type": "address"
        }
      ],
      "name": "OwnershipTransferred",
      "type": "event"
    },
    {
      "inputs": [],
      "name": "BREEDING_COOLDOWN",
      "outputs": [
        {
          "internalType": "uint256",
          "name": "",
          "type": "uint256"
        }
      ],
      "stateMutability": "view",
      "type": "function"
    },
    {
      "inputs": [],
      "name": "BREEDING_COST",
      "outputs": [
        {
          "internalType": "uint256",
          "name": "",
          "type": "uint256"
        }
      ],
      "stateMutability": "view",
      "type": "function"
    },
    {
      "inputs": [],
      "name": "MAX_GENERATION",
      "outputs": [
        {
          "internalType": "uint256",
          "name": "",
          "type": "uint256"
        }
      ],
      "stateMutability": "view",
      "type": "function"
    },
    {
      "inputs": [
        {
          "internalType": "uint256",
          "name": "",
          "type": "uint256"
        }
      ],
      "name": "breedCount",
      "outputs": [
        {
          "internalType": "uint256",
          "name": "",
          "type": "uint256"
        }
      ],
      "stateMutability": "view",
      "type": "function"
    },
    {
      "inputs": [
        {
          "internalType": "uint256",
          "name": "parent1Id",
          "type": "uint256"
        },
        {
          "internalType": "uint256",
          "name": "parent2Id",
          "type": "uint256"
        }
      ],
      "name": "breedHens",
      "outputs": [
        {
          "internalType": "uint256",
          "name": "",
          "type": "uint256"
        }
      ],
      "stateMutability": "payable",
      "type": "function"
    },
    {
      "inputs": [
        {
          "internalType": "uint256",
          "name": "parent1Id",
          "type": "uint256"
        },
        {
          "internalType": "uint256",
          "name": "parent2Id",
          "type": "uint256"
        }
      ],
      "name": "canBreed",
      "outputs": [
        {
          "internalType": "bool",
          "name": "",
          "type": "bool"
        },
        {
          "internalType": "string",
          "name": "",
          "type": "string"
        }
      ],
      "stateMutability": "view",
      "type": "function"
    },
    {
      "inputs": [
        {
          "internalType": "uint256",
          "name": "tokenId",
          "type": "uint256"
        }
      ],
      "name": "getBreedingInfo",
      "outputs": [
        {
          "internalType": "uint256",
          "name": "breedingCount",
          "type": "uint256"
        },
        {
          "internalType": "uint256",
          "name": "cooldownRemaining",
          "type": "uint256"
        },
        {
          "internalType": "uint256[]",
          "name": "offspringIds",
          "type": "uint256[]"
        }
      ],
      "stateMutability": "view",
      "type": "function"
    },
    {
      "inputs": [
        {
          "internalType": "uint256",
          "name": "parentId",
          "type": "uint256"
        }
      ],
      "name": "getOffspring",
      "outputs": [
        {
          "internalType": "uint256[]",
          "name": "",
          "type": "uint256[]"
        }
      ],
      "stateMutability": "view",
      "type": "function"
    },
    {
      "inputs": [
        {
          "internalType": "uint256",
          "name": "",
          "type": "uint256"
        },
        {
          "internalType": "uint256",
          "name": "",
          "type": "uint256"
        }
      ],
      "name": "hasBred",
      "outputs": [
        {
          "internalType": "bool",
          "name": "",
          "type": "bool"
        }
      ],
      "stateMutability": "view",
      "type": "function"
    },
    {
      "inputs": [],
      "name": "henNFT",
      "outputs": [
        {
          "internalType": "contract IHenNFT",
          "name": "",
          "type": "address"
        }
      ],
      "stateMutability": "view",
      "type": "function"
    },
    {
      "inputs": [
        {
          "internalType": "uint256",
          "name": "",
          "type": "uint256"
        },
        {
          "internalType": "uint256",
          "name": "",
          "type": "uint256"
        }
      ],
      "name": "offspring",
      "outputs": [
        {
          "internalType": "uint256",
          "name": "",
          "type": "uint256"
        }
      ],
      "stateMutability": "view",
      "type": "function"
    },
    {
      "inputs": [],
      "name": "owner",
      "outputs": [
        {
          "internalType": "address",
          "name": "",
          "type": "address"
        }
      ],
      "stateMutability": "view",
      "type": "function"
    },
    {
      "inputs": [],
      "name": "renounceOwnership",
      "outputs": [],
      "stateMutability": "nonpayable",
      "type": "function"
    },
    {
      "inputs": [
        {
          "internalType": "address",
          "name": "newOwner",
          "type": "address"
        }
      ],
      "name": "transferOwnership",
      "outputs": [],
      "stateMutability": "nonpayable",
      "type": "function"
    },
    {
      "inputs": [],
      "name": "withdraw",
      "outputs": [],
      "stateMutability": "nonpayable",
      "type": "function"
    }
  ],
  "bytecode": "0x60806040523480156200001157600080fd5b5060405162002f8738038062002f878339818101604052810190620000379190620001dc565b620000576200004b620000a660201b60201c565b620000ae60201b60201c565b6001808190555080600260006101000a81548173ffffffffffffffffffffffffffffffffffffffff021916908373ffffffffffffffffffffffffffffffffffffffff160217905550506200020e565b600033905090565b60008060009054906101000a900473ffffffffffffffffffffffffffffffffffffffff169050816000806101000a81548173ffffffffffffffffffffffffffffffffffffffff021916908373ffffffffffffffffffffffffffffffffffffffff1602179055508173ffffffffffffffffffffffffffffffffffffffff168173ffffffffffffffffffffffffffffffffffffffff167f8be0079c531659141344cd1fd0a4f28419497f9722a3daafe3b4186f6b6457e060405160405180910390a35050565b600080fd5b600073ffffffffffffffffffffffffffffffffffffffff82169050919050565b6000620001a48262000177565b9050919050565b620001b68162000197565b8114620001c257600080fd5b50565b600081519050620001d681620001ab565b92915050565b600060208284031215620001f557620001f462000172565b5b60006200020584828501620001c5565b91505092915050565b612d69806200021e6000396000f3fe6080604052600436106100e85760003560e01c806385a902291161008a578063ce08d6fa11610059578063ce08d6fa146102fb578063cea1fcde14610326578063ea13afba14610363578063f2fde38b14610393576100e8565b806385a902291461022957806387bfa1d7146102685780638da5cb5b14610293578063a43e18c0146102be576100e8565b806340af96bb116100c657806340af96bb1461017f5780634324450b146101bc57806352ff6baf146101e7578063715018a614610212576100e8565b80630ef69926146100ed5780631c8e18871461012a5780633ccfd60b14610168575b600080fd5b3480156100f957600080fd5b50610114600480360381019061010f9190611a7d565b6103bc565b6040516101219190611ab9565b60405180910390f35b34801561013657600080fd5b50610151600480360381019061014c9190611ad4565b6103d4565b60405161015f929190611bbf565b60405180910390f35b34801561017457600080fd5b5061017d6107d7565b005b34801561018b57600080fd5b506101a660048036038101906101a19190611ad4565b61089b565b6040516101b39190611ab9565b60405180910390f35b3480156101c857600080fd5b506101d16108cc565b6040516101de9190611ab9565b60405180910390f35b3480156101f357600080fd5b506101fc6108d7565b6040516102099190611ab9565b60405180910390f35b34801561021e57600080fd5b506102276108dc565b005b34801561023557600080fd5b50610250600480360381019061024b9190611a7d565b6108f0565b60405161025f93929190611cad565b60405180910390f35b34801561027457600080fd5b5061027d610a5c565b60405161028a9190611ab9565b60405180910390f35b34801561029f57600080fd5b506102a8610a63565b6040516102b59190611d2c565b60405180910390f35b3480156102ca57600080fd5b506102e560048036038101906102e09190611a7d565b610a8c565b6040516102f29190611d47565b60405180910390f35b34801561030757600080fd5b50610310610af7565b60405161031d9190611dc8565b60405180910390f35b34801561033257600080fd5b5061034d60048036038101906103489190611ad4565b610b1d565b60405161035a9190611de3565b60405180910390f35b61037d60048036038101906103789190611ad4565b610b4c565b60405161038a9190611ab9565b60405180910390f35b34801561039f57600080fd5b506103ba60048036038101906103b59190611e2a565b6113e8565b005b60046020528060005260406000206000915090505481565b600060608284036104205760006040518060400160405280601881526020017f43616e6e6f74206272656564207769746820697473656c660000000000000000815250915091506107d0565b60036000858152602001908152602001600020600084815260200190815260200160002060009054906101000a900460ff168061048b575060036000848152602001908152602001600020600085815260200190815260200160002060009054906101000a900460ff165b156104d15760006040518060400160405280601581526020017f416c7265616479206272656420746f6765746865720000000000000000000000815250915091506107d0565b6000600260009054906101000a900473ffffffffffffffffffffffffffffffffffffffff1673ffffffffffffffffffffffffffffffffffffffff1663a6345141866040518263ffffffff1660e01b815260040161052e9190611ab9565b61018060405180830381865afa15801561054c573d6000803e3d6000fd5b505050506040513d601f19601f820116820180604052508101906105709190612073565b90506000600260009054906101000a900473ffffffffffffffffffffffffffffffffffffffff1673ffffffffffffffffffffffffffffffffffffffff1663a6345141866040518263ffffffff1660e01b81526004016105cf9190611ab9565b61018060405180830381865afa1580156105ed573d6000803e3d6000fd5b505050506040513d601f19601f820116820180604052508101906106119190612073565b905081610160015115806106285750806101600151155b156106705760006040518060400160405280601081526020017f506172656e74206e6f7420616c697665000000000000000000000000000000008152509350935050506107d0565b62093a808260e0015161068391906120d0565b4210156106cd5760006040518060400160405280601481526020017f506172656e742031206f6e20636f6f6c646f776e0000000000000000000000008152509350935050506107d0565b62093a808160e001516106e091906120d0565b42101561072a5760006040518060400160405280601481526020017f506172656e742032206f6e20636f6f6c646f776e0000000000000000000000008152509350935050506107d0565b600a8260a0015160ff161015806107495750600a8160a0015160ff1610155b156107915760006040518060400160405280601681526020017f4d61782067656e65726174696f6e2072656163686564000000000000000000008152509350935050506107d0565b60016040518060400160405280600981526020017f43616e20627265656400000000000000000000000000000000000000000000008152509350935050505b9250929050565b6107df61146b565b600047905060006107ee610a63565b73ffffffffffffffffffffffffffffffffffffffff168260405161081190612135565b60006040518083038185875af1925050503d806000811461084e576040519150601f19603f3d011682016040523d82523d6000602084013e610853565b606091505b5050905080610897576040517f08c379a000000000000000000000000000000000000000000000000000000000815260040161088e90612196565b60405180910390fd5b5050565b600560205281600052604060002081815481106108b757600080fd5b90600052602060002001600091509150505481565b662386f26fc1000081565b600a81565b6108e461146b565b6108ee60006114e9565b565b60008060606000600260009054906101000a900473ffffffffffffffffffffffffffffffffffffffff1673ffffffffffffffffffffffffffffffffffffffff1663a6345141866040518263ffffffff1660e01b81526004016109529190611ab9565b61018060405180830381865afa158015610970573d6000803e3d6000fd5b505050506040513d601f19601f820116820180604052508101906109949190612073565b9050600062093a808260e001516109ab91906120d0565b4210156109d3574262093a808360e001516109c691906120d0565b6109d091906121b6565b90505b6004600087815260200190815260200160002054816005600089815260200190815260200160002080805480602002602001604051908101604052809291908181526020018280548015610a4657602002820191906000526020600020905b815481526020019060010190808311610a32575b5050505050905094509450945050509193909250565b62093a8081565b60008060009054906101000a900473ffffffffffffffffffffffffffffffffffffffff16905090565b606060056000838152602001908152602001600020805480602002602001604051908101604052809291908181526020018280548015610aeb57602002820191906000526020600020905b815481526020019060010190808311610ad7575b50505050509050919050565b600260009054906101000a900473ffffffffffffffffffffffffffffffffffffffff1681565b60036020528160005260406000206020528060005260406000206000915091509054906101000a900460ff1681565b6000610b566115ad565b662386f26fc10000341015610ba0576040517f08c379a0000000000000000000000000000000000000000000000000000000008152600401610b9790612236565b60405180910390fd5b818303610be2576040517f08c379a0000000000000000000000000000000000000000000000000000000008152600401610bd9906122a2565b60405180910390fd5b3373ffffffffffffffffffffffffffffffffffffffff16600260009054906101000a900473ffffffffffffffffffffffffffffffffffffffff1673ffffffffffffffffffffffffffffffffffffffff16636352211e856040518263ffffffff1660e01b8152600401610c549190611ab9565b602060405180830381865afa158015610c71573d6000803e3d6000fd5b505050506040513d601f19601f82011682018060405250810190610c9591906122d7565b73ffffffffffffffffffffffffffffffffffffffff1614610ceb576040517f08c379a0000000000000000000000000000000000000000000000000000000008152600401610ce290612350565b60405180910390fd5b3373ffffffffffffffffffffffffffffffffffffffff16600260009054906101000a900473ffffffffffffffffffffffffffffffffffffffff1673ffffffffffffffffffffffffffffffffffffffff16636352211e846040518263ffffffff1660e01b8152600401610d5d9190611ab9565b602060405180830381865afa158015610d7a573d6000803e3d6000fd5b505050506040513d601f19601f82011682018060405250810190610d9e91906122d7565b73ffffffffffffffffffffffffffffffffffffffff1614610df4576040517f08c379a0000000000000000000000000000000000000000000000000000000008152600401610deb906123bc565b60405180910390fd5b60036000848152602001908152602001600020600083815260200190815260200160002060009054906101000a900460ff16158015610e62575060036000838152602001908152602001600020600084815260200190815260200160002060009054906101000a900460ff16155b610ea1576040517f08c379a0000000000000000000000000000000000000000000000000000000008152600401610e9890612428565b60405180910390fd5b6000600260009054906101000a900473ffffffffffffffffffffffffffffffffffffffff1673ffffffffffffffffffffffffffffffffffffffff1663a6345141856040518263ffffffff1660e01b8152600401610efe9190611ab9565b61018060405180830381865afa158015610f1c573d6000803e3d6000fd5b505050506040513d601f19601f82011682018060405250810190610f409190612073565b90506000600260009054906101000a900473ffffffffffffffffffffffffffffffffffffffff1673ffffffffffffffffffffffffffffffffffffffff1663a6345141856040518263ffffffff1660e01b8152600401610f9f9190611ab9565b61018060405180830381865afa158015610fbd573d6000803e3d6000fd5b505050506040513d601f19601f82011682018060405250810190610fe19190612073565b90508161016001518015610ff757508061016001515b611036576040517f08c379a000000000000000000000000000000000000000000000000000000000815260040161102d90612494565b60405180910390fd5b62093a808260e0015161104991906120d0565b42101561108b576040517f08c379a000000000000000000000000000000000000000000000000000000000815260040161108290612500565b60405180910390fd5b62093a808160e0015161109e91906120d0565b4210156110e0576040517f08c379a00000000000000000000000000000000000000000000000000000000081526004016110d79061256c565b60405180910390fd5b600a8260a0015160ff161080156110fe5750600a8160a0015160ff16105b61113d576040517f08c379a0000000000000000000000000000000000000000000000000000000008152600401611134906125d8565b60405180910390fd5b600160036000878152602001908152602001600020600086815260200190815260200160002060006101000a81548160ff021916908315150217905550600160036000868152602001908152602001600020600087815260200190815260200160002060006101000a81548160ff0219169083151502179055506004600086815260200190815260200160002060008154809291906111db906125f8565b9190505550600460008581526020019081526020016000206000815480929190611204906125f8565b9190505550600061121586866115fc565b90506000611224848484611638565b90506000600260009054906101000a900473ffffffffffffffffffffffffffffffffffffffff1673ffffffffffffffffffffffffffffffffffffffff16637deb0bf133846000015185602001518660400151876060015188608001518960a001516040518863ffffffff1660e01b81526004016112a7979695949392919061264f565b6020604051808303816000875af11580156112c6573d6000803e3d6000fd5b505050506040513d601f19601f820116820180604052508101906112ea91906126be565b905060056000898152602001908152602001600020819080600181540180825580915050600190039060005260206000200160009091909190915055600560008881526020019081526020016000208190806001815401808255809150506001900390600052602060002001600090919091909150558087897fa2729177feabecfa451f897dc3ab5dcd97538bad71b46f9f0849debf61b92910336040516113929190611d2c565b60405180910390a4807fecaa463057dbb491f4286ff310ee613dc07b01ee2203e66c0d551a41c372411e836040516113ca91906127ff565b60405180910390a280955050505050506113e261185e565b92915050565b6113f061146b565b600073ffffffffffffffffffffffffffffffffffffffff168173ffffffffffffffffffffffffffffffffffffffff160361145f576040517f08c379a00000000000000000000000000000000000000000000000000000000081526004016114569061288d565b60405180910390fd5b611468816114e9565b50565b611473611867565b73ffffffffffffffffffffffffffffffffffffffff16611491610a63565b73ffffffffffffffffffffffffffffffffffffffff16146114e7576040517f08c379a00000000000000000000000000000000000000000000000000000000081526004016114de906128f9565b60405180910390fd5b565b60008060009054906101000a900473ffffffffffffffffffffffffffffffffffffffff169050816000806101000a81548173ffffffffffffffffffffffffffffffffffffffff021916908373ffffffffffffffffffffffffffffffffffffffff1602179055508173ffffffffffffffffffffffffffffffffffffffff168173ffffffffffffffffffffffffffffffffffffffff167f8be0079c531659141344cd1fd0a4f28419497f9722a3daafe3b4186f6b6457e060405160405180910390a35050565b6002600154036115f2576040517f08c379a00000000000000000000000000000000000000000000000000000000081526004016115e990612965565b60405180910390fd5b6002600181905550565b600042838333446040516020016116179594939291906129ee565b6040516020818303038152906040528051906020012060001c905092915050565b6116406119c3565b60008360a0015160ff168560a0015160ff161161166d5760018460a001516116689190612a4d565b61167f565b60018560a0015161167e9190612a4d565b5b90506040518061018001604052806116d687600001518760000151876040518060400160405280600881526020017f737472656e67746800000000000000000000000000000000000000000000000081525061186f565b60ff16815260200161172787602001518760200151876040518060400160405280600581526020017f737065656400000000000000000000000000000000000000000000000000000081525061186f565b60ff16815260200161177887604001518760400151876040518060400160405280600781526020017f7374616d696e610000000000000000000000000000000000000000000000000081525061186f565b60ff1681526020016117c987606001518760600151876040518060400160405280600c81526020017f696e74656c6c6967656e6365000000000000000000000000000000000000000081525061186f565b60ff16815260200161181a87608001518760800151876040518060400160405280600481526020017f6c75636b0000000000000000000000000000000000000000000000000000000081525061186f565b60ff1681526020018260ff16815260200142815260200160008152602001600081526020016000815260200160008152602001600115158152509150509392505050565b60018081905550565b600033905090565b6000806064428585898960405160200161188d959493929190612af4565b6040516020818303038152906040528051906020012060001c6118b09190612b7e565b905060288110156118cd576118c58685611921565b915050611919565b60508110156118e8576118e08585611921565b915050611919565b600060028660ff168860ff166118fe9190612bbd565b6119089190612bf3565b90506119148186611921565b925050505b949350505050565b600080600b4284864460405160200161193d9493929190612c24565b6040516020818303038152906040528051906020012060001c6119609190612b7e565b905060006005826119719190612c7f565b90506000818660ff166119849190612cd9565b905060018160010b121561199e57600193505050506119bd565b60648160010b13156119b657606493505050506119bd565b8093505050505b92915050565b604051806101800160405280600060ff168152602001600060ff168152602001600060ff168152602001600060ff168152602001600060ff168152602001600060ff16815260200160008152602001600081526020016000815260200160008152602001600081526020016000151581525090565b6000604051905090565b600080fd5b6000819050919050565b611a5a81611a47565b8114611a6557600080fd5b50565b600081359050611a7781611a51565b92915050565b600060208284031215611a9357611a92611a42565b5b6000611aa184828501611a68565b91505092915050565b611ab381611a47565b82525050565b6000602082019050611ace6000830184611aaa565b92915050565b60008060408385031215611aeb57611aea611a42565b5b6000611af985828601611a68565b9250506020611b0a85828601611a68565b9150509250929050565b60008115159050919050565b611b2981611b14565b82525050565b600081519050919050565b600082825260208201905092915050565b60005b83811015611b69578082015181840152602081019050611b4e565b60008484015250505050565b6000601f19601f8301169050919050565b6000611b9182611b2f565b611b9b8185611b3a565b9350611bab818560208601611b4b565b611bb481611b75565b840191505092915050565b6000604082019050611bd46000830185611b20565b8181036020830152611be68184611b86565b90509392505050565b600081519050919050565b600082825260208201905092915050565b6000819050602082019050919050565b611c2481611a47565b82525050565b6000611c368383611c1b565b60208301905092915050565b6000602082019050919050565b6000611c5a82611bef565b611c648185611bfa565b9350611c6f83611c0b565b8060005b83811015611ca0578151611c878882611c2a565b9750611c9283611c42565b925050600181019050611c73565b5085935050505092915050565b6000606082019050611cc26000830186611aaa565b611ccf6020830185611aaa565b8181036040830152611ce18184611c4f565b9050949350505050565b600073ffffffffffffffffffffffffffffffffffffffff82169050919050565b6000611d1682611ceb565b9050919050565b611d2681611d0b565b82525050565b6000602082019050611d416000830184611d1d565b92915050565b60006020820190508181036000830152611d618184611c4f565b905092915050565b6000819050919050565b6000611d8e611d89611d8484611ceb565b611d69565b611ceb565b9050919050565b6000611da082611d73565b9050919050565b6000611db282611d95565b9050919050565b611dc281611da7565b82525050565b6000602082019050611ddd6000830184611db9565b92915050565b6000602082019050611df86000830184611b20565b92915050565b611e0781611d0b565b8114611e1257600080fd5b50565b600081359050611e2481611dfe565b92915050565b600060208284031215611e4057611e3f611a42565b5b6000611e4e84828501611e15565b91505092915050565b600080fd5b7f4e487b7100000000000000000000000000000000000000000000000000000000600052604160045260246000fd5b611e9482611b75565b810181811067ffffffffffffffff82111715611eb357611eb2611e5c565b5b80604052505050565b6000611ec6611a38565b9050611ed28282611e8b565b919050565b600060ff82169050919050565b611eed81611ed7565b8114611ef857600080fd5b50565b600081519050611f0a81611ee4565b92915050565b600081519050611f1f81611a51565b92915050565b611f2e81611b14565b8114611f3957600080fd5b50565b600081519050611f4b81611f25565b92915050565b60006101808284031215611f6857611f67611e57565b5b611f73610180611ebc565b90506000611f8384828501611efb565b6000830152506020611f9784828501611efb565b6020830152506040611fab84828501611efb565b6040830152506060611fbf84828501611efb565b6060830152506080611fd384828501611efb565b60808301525060a0611fe784828501611efb565b60a08301525060c0611ffb84828501611f10565b60c08301525060e061200f84828501611f10565b60e08301525061010061202484828501611f10565b6101008301525061012061203a84828501611f10565b6101208301525061014061205084828501611f10565b6101408301525061016061206684828501611f3c565b6101608301525092915050565b6000610180828403121561208a57612089611a42565b5b600061209884828501611f51565b91505092915050565b7f4e487b7100000000000000000000000000000000000000000000000000000000600052601160045260246000fd5b60006120db82611a47565b91506120e683611a47565b92508282019050808211156120fe576120fd6120a1565b5b92915050565b600081905092915050565b50565b600061211f600083612104565b915061212a8261210f565b600082019050919050565b600061214082612112565b9150819050919050565b7f5769746864726177616c206661696c6564000000000000000000000000000000600082015250565b6000612180601183611b3a565b915061218b8261214a565b602082019050919050565b600060208201905081810360008301526121af81612173565b9050919050565b60006121c182611a47565b91506121cc83611a47565b92508282039050818111156121e4576121e36120a1565b5b92915050565b7f496e73756666696369656e74206272656564696e672066656500000000000000600082015250565b6000612220601983611b3a565b915061222b826121ea565b602082019050919050565b6000602082019050818103600083015261224f81612213565b9050919050565b7f43616e6e6f74206272656564207769746820697473656c660000000000000000600082015250565b600061228c601883611b3a565b915061229782612256565b602082019050919050565b600060208201905081810360008301526122bb8161227f565b9050919050565b6000815190506122d181611dfe565b92915050565b6000602082840312156122ed576122ec611a42565b5b60006122fb848285016122c2565b91505092915050565b7f4e6f74206f776e6572206f6620706172656e7420310000000000000000000000600082015250565b600061233a601583611b3a565b915061234582612304565b602082019050919050565b600060208201905081810360008301526123698161232d565b9050919050565b7f4e6f74206f776e6572206f6620706172656e7420320000000000000000000000600082015250565b60006123a6601583611b3a565b91506123b182612370565b602082019050919050565b600060208201905081810360008301526123d581612399565b9050919050565b7f416c726561647920627265640000000000000000000000000000000000000000600082015250565b6000612412600c83611b3a565b915061241d826123dc565b602082019050919050565b6000602082019050818103600083015261244181612405565b9050919050565b7f506172656e74206d75737420626520616c697665000000000000000000000000600082015250565b600061247e601483611b3a565b915061248982612448565b602082019050919050565b600060208201905081810360008301526124ad81612471565b9050919050565b7f506172656e74203120636f6f6c646f776e206e6f742066696e69736865640000600082015250565b60006124ea601e83611b3a565b91506124f5826124b4565b602082019050919050565b60006020820190508181036000830152612519816124dd565b9050919050565b7f506172656e74203220636f6f6c646f776e206e6f742066696e69736865640000600082015250565b6000612556601e83611b3a565b915061256182612520565b602082019050919050565b6000602082019050818103600083015261258581612549565b9050919050565b7f4d61782067656e65726174696f6e207265616368656400000000000000000000600082015250565b60006125c2601683611b3a565b91506125cd8261258c565b602082019050919050565b600060208201905081810360008301526125f1816125b5565b9050919050565b600061260382611a47565b91507fffffffffffffffffffffffffffffffffffffffffffffffffffffffffffffffff8203612635576126346120a1565b5b600182019050919050565b61264981611ed7565b82525050565b600060e082019050612664600083018a611d1d565b6126716020830189612640565b61267e6040830188612640565b61268b6060830187612640565b6126986080830186612640565b6126a560a0830185612640565b6126b260c0830184612640565b98975050505050505050565b6000602082840312156126d4576126d3611a42565b5b60006126e284828501611f10565b91505092915050565b6126f481611ed7565b82525050565b61270381611b14565b82525050565b6101808201600082015161272060008501826126eb565b50602082015161273360208501826126eb565b50604082015161274660408501826126eb565b50606082015161275960608501826126eb565b50608082015161276c60808501826126eb565b5060a082015161277f60a08501826126eb565b5060c082015161279260c0850182611c1b565b5060e08201516127a560e0850182611c1b565b506101008201516127ba610100850182611c1b565b506101208201516127cf610120850182611c1b565b506101408201516127e4610140850182611c1b565b506101608201516127f96101608501826126fa565b50505050565b6000610180820190506128156000830184612709565b92915050565b7f4f776e61626c653a206e6577206f776e657220697320746865207a65726f206160008201527f6464726573730000000000000000000000000000000000000000000000000000602082015250565b6000612877602683611b3a565b91506128828261281b565b604082019050919050565b600060208201905081810360008301526128a68161286a565b9050919050565b7f4f776e61626c653a2063616c6c6572206973206e6f7420746865206f776e6572600082015250565b60006128e3602083611b3a565b91506128ee826128ad565b602082019050919050565b60006020820190508181036000830152612912816128d6565b9050919050565b7f5265656e7472616e637947756172643a207265656e7472616e742063616c6c00600082015250565b600061294f601f83611b3a565b915061295a82612919565b602082019050919050565b6000602082019050818103600083015261297e81612942565b9050919050565b6000819050919050565b6129a061299b82611a47565b612985565b82525050565b60008160601b9050919050565b60006129be826129a6565b9050919050565b60006129d0826129b3565b9050919050565b6129e86129e382611d0b565b6129c5565b82525050565b60006129fa828861298f565b602082019150612a0a828761298f565b602082019150612a1a828661298f565b602082019150612a2a82856129d7565b601482019150612a3a828461298f565b6020820191508190509695505050505050565b6000612a5882611ed7565b9150612a6383611ed7565b9250828201905060ff811115612a7c57612a7b6120a1565b5b92915050565b600081905092915050565b6000612a9882611b2f565b612aa28185612a82565b9350612ab2818560208601611b4b565b80840191505092915050565b60008160f81b9050919050565b6000612ad682612abe565b9050919050565b612aee612ae982611ed7565b612acb565b82525050565b6000612b00828861298f565b602082019150612b10828761298f565b602082019150612b208286612a8d565b9150612b2c8285612add565b600182019150612b3c8284612add565b6001820191508190509695505050505050565b7f4e487b7100000000000000000000000000000000000000000000000000000000600052601260045260246000fd5b6000612b8982611a47565b9150612b9483611a47565b925082612ba457612ba3612b4f565b5b828206905092915050565b600061ffff82169050919050565b6000612bc882612baf565b9150612bd383612baf565b9250828201905061ffff811115612bed57612bec6120a1565b5b92915050565b6000612bfe82612baf565b9150612c0983612baf565b925082612c1957612c18612b4f565b5b828204905092915050565b6000612c30828761298f565b602082019150612c40828661298f565b602082019150612c508285612add565b600182019150612c60828461298f565b60208201915081905095945050505050565b60008160010b9050919050565b6000612c8a82612c72565b9150612c9583612c72565b92508282039050617fff81137fffffffffffffffffffffffffffffffffffffffffffffffffffffffffffff800082121715612cd357612cd26120a1565b5b92915050565b6000612ce482612c72565b9150612cef83612c72565b925082820190507fffffffffffffffffffffffffffffffffffffffffffffffffffffffffffff80008112617fff82131715612d2d57612d2c6120a1565b5b9291505056fea2646970667358221220d7b96c57f4595ee2b83824cfcf66287d73a11d8210375a24bb70a1bb40f8204c64736f6c63430008140033",
  "linkReferences": {},
  "deployedLinkReferences": {}
}