{
  "_format": "hh-sol-artifact-1",
  "contractName": "HenBattle",
  "sourceName": "contracts/HenBattle.sol",
  "abi": [
    {
      "inputs": [
        {
          "internalType": "address",
          "name": "_henNFTAddress",
          "type": "address"
        }
      ],
      "stateMutability": "nonpayable",
      "type": "constructor"
    },
    {
      "anonymous": false,
      "inputs": [
        {
          "indexed": true,
          "internalType": "uint256",
          "name": "battleId",
          "type": "uint256"
        },
        {
          "indexed": false,
          "internalType": "uint256",
          "name": "winnerId",
          "type": "uint256"
        },
        {
          "indexed": false,
          "internalType": "uint256",
          "name": "loserId",
          "type": "uint256"
        },
        {
          "indexed": false,
          "internalType": "address",
          "name": "winner",
          "type": "address"
        },
        {
          "indexed": false,
          "internalType": "uint256",
          "name": "rewardAmount",
          "type": "uint256"
        }
      ],
      "name": "BattleComplete",
      "type": "event"
    },
    {
      "anonymous": false,
      "inputs": [
        {
          "indexed": true,
          "internalType": "uint256",
          "name": "battleId",
          "type": "uint256"
        },
        {
          "indexed": true,
          "internalType": "uint256",
          "name": "hen1Id",
          "type": "uint256"
        },
        {
          "indexed": true,
          "internalType": "uint256",
          "name": "hen2Id",
          "type": "uint256"
        },
        {
          "indexed": false,
          "internalType": "address",
          "name": "player1",
          "type": "address"
        },
        {
          "indexed": false,
          "internalType": "address",
          "name": "player2",
          "type": "address"
        }
      ],
      "name": "BattleCreated",
      "type": "event"
    },
    {
      "anonymous": false,
      "inputs": [
        {
          "indexed": true,
          "internalType": "uint256",
          "name": "battleId",
          "type": "uint256"
        },
        {
          "indexed": false,
          "internalType": "uint256",
          "name": "round",
          "type": "uint256"
        },
        {
          "indexed": false,
          "internalType": "uint256",
          "name": "hen1Damage",
          "type": "uint256"
        },
        {
          "indexed": false,
          "internalType": "uint256",
          "name": "hen2Damage",
          "type": "uint256"
        },
        {
          "indexed": false,
          "internalType": "uint256",
          "name": "hen1Health",
          "type": "uint256"
        },
        {
          "indexed": false,
          "internalType": "uint256",
          "name": "hen2Health",
          "type": "uint256"
        }
      ],
      "name": "BattleRound",
      "type": "event"
    },
    {
      "anonymous": false,
      "inputs": [
        {
          "indexed": true,
          "internalType": "address",
          "name": "previousOwner",
          "type": "address"
        },
        {
          "indexed": true,
          "internalType": "address",
          "name": "newOwner",
          "type": "address"
        }
      ],
      "name": "OwnershipTransferred",
      "type": "event"
    },
    {
      "inputs": [],
      "name": "BATTLE_COOLDOWN",
      "outputs": [
        {
          "internalType": "uint256",
          "name": "",
          "type": "uint256"
        }
      ],
      "stateMutability": "view",
      "type": "function"
    },
    {
      "inputs": [],
      "name": "BATTLE_REWARD",
      "outputs": [
        {
          "internalType": "uint256",
          "name": "",
          "type": "uint256"
        }
      ],
      "stateMutability": "view",
      "type": "function"
    },
    {
      "inputs": [],
      "name": "battleCounter",
      "outputs": [
        {
          "internalType": "uint256",
          "name": "",
          "type": "uint256"
        }
      ],
      "stateMutability": "view",
      "type": "function"
    },
    {
      "inputs": [
        {
          "internalType": "uint256",
          "name": "",
          "type": "uint256"
        }
      ],
      "name": "battles",
      "outputs": [
        {
          "internalType": "uint256",
          "name": "battleId",
          "type": "uint256"
        },
        {
          "internalType": "uint256",
          "name": "hen1Id",
          "type": "uint256"
        },
        {
          "internalType": "uint256",
          "name": "hen2Id",
          "type": "uint256"
        },
        {
          "internalType": "address",
          "name": "player1",
          "type": "address"
        },
        {
          "internalType": "address",
          "name": "player2",
          "type": "address"
        },
        {
          "internalType": "uint256",
          "name": "startTime",
          "type": "uint256"
        },
        {
          "internalType": "uint256",
          "name": "endTime",
          "type": "uint256"
        },
        {
          "internalType": "uint256",
          "name": "winnerId",
          "type": "uint256"
        },
        {
          "internalType": "bool",
          "name": "isComplete",
          "type": "bool"
        },
        {
          "internalType": "uint256",
          "name": "rewardAmount",
          "type": "uint256"
        }
      ],
      "stateMutability": "view",
      "type": "function"
    },
    {
      "inputs": [
        {
          "internalType": "uint256",
          "name": "henId",
          "type": "uint256"
        }
      ],
      "name": "canBattle",
      "outputs": [
        {
          "internalType": "bool",
          "name": "",
          "type": "bool"
        },
        {
          "internalType": "string",
          "name": "",
          "type": "string"
        }
      ],
      "stateMutability": "view",
      "type": "function"
    },
    {
      "inputs": [
        {
          "internalType": "uint256",
          "name": "hen1Id",
          "type": "uint256"
        },
        {
          "internalType": "uint256",
          "name": "hen2Id",
          "type": "uint256"
        }
      ],
      "name": "createBattle",
      "outputs": [
        {
          "internalType": "uint256",
          "name": "",
          "type": "uint256"
        }
      ],
      "stateMutability": "nonpayable",
      "type": "function"
    },
    {
      "inputs": [
        {
          "internalType": "uint256",
          "name": "battleId",
          "type": "uint256"
        }
      ],
      "name": "getBattle",
      "outputs": [
        {
          "components": [
            {
              "internalType": "uint256",
              "name": "battleId",
              "type": "uint256"
            },
            {
              "internalType": "uint256",
              "name": "hen1Id",
              "type": "uint256"
            },
            {
              "internalType": "uint256",
              "name": "hen2Id",
              "type": "uint256"
            },
            {
              "internalType": "address",
              "name": "player1",
              "type": "address"
            },
            {
              "internalType": "address",
              "name": "player2",
              "type": "address"
            },
            {
              "internalType": "uint256",
              "name": "startTime",
              "type": "uint256"
            },
            {
              "internalType": "uint256",
              "name": "endTime",
              "type": "uint256"
            },
            {
              "internalType": "uint256",
              "name": "winnerId",
              "type": "uint256"
            },
            {
              "internalType": "bool",
              "name": "isComplete",
              "type": "bool"
            },
            {
              "internalType": "uint256",
              "name": "rewardAmount",
              "type": "uint256"
            }
          ],
          "internalType": "struct HenBattle.Battle",
          "name": "",
          "type": "tuple"
        }
      ],
      "stateMutability": "view",
      "type": "function"
    },
    {
      "inputs": [
        {
          "internalType": "uint256",
          "name": "henId",
          "type": "uint256"
        }
      ],
      "name": "getHenBattleStats",
      "outputs": [
        {
          "internalType": "uint256",
          "name": "totalBattles",
          "type": "uint256"
        },
        {
          "internalType": "uint256",
          "name": "wins",
          "type": "uint256"
        },
        {
          "internalType": "uint256",
          "name": "losses",
          "type": "uint256"
        },
        {
          "internalType": "uint256",
          "name": "winRate",
          "type": "uint256"
        },
        {
          "internalType": "uint256",
          "name": "cooldownRemaining",
          "type": "uint256"
        }
      ],
      "stateMutability": "view",
      "type": "function"
    },
    {
      "inputs": [
        {
          "internalType": "address",
          "name": "player",
          "type": "address"
        }
      ],
      "name": "getPlayerBattles",
      "outputs": [
        {
          "internalType": "uint256[]",
          "name": "",
          "type": "uint256[]"
        }
      ],
      "stateMutability": "view",
      "type": "function"
    },
    {
      "inputs": [],
      "name": "henNFT",
      "outputs": [
        {
          "internalType": "contract IHenNFT",
          "name": "",
          "type": "address"
        }
      ],
      "stateMutability": "view",
      "type": "function"
    },
    {
      "inputs": [
        {
          "internalType": "uint256",
          "name": "",
          "type": "uint256"
        }
      ],
      "name": "lastBattleTime",
      "outputs": [
        {
          "internalType": "uint256",
          "name": "",
          "type": "uint256"
        }
      ],
      "stateMutability": "view",
      "type": "function"
    },
    {
      "inputs": [],
      "name": "owner",
      "outputs": [
        {
          "internalType": "address",
          "name": "",
          "type": "address"
        }
      ],
      "stateMutability": "view",
      "type": "function"
    },
    {
      "inputs": [
        {
          "internalType": "address",
          "name": "",
          "type": "address"
        },
        {
          "internalType": "uint256",
          "name": "",
          "type": "uint256"
        }
      ],
      "name": "playerBattles",
      "outputs": [
        {
          "internalType": "uint256",
          "name": "",
          "type": "uint256"
        }
      ],
      "stateMutability": "view",
      "type": "function"
    },
    {
      "inputs": [],
      "name": "renounceOwnership",
      "outputs": [],
      "stateMutability": "nonpayable",
      "type": "function"
    },
    {
      "inputs": [
        {
          "internalType": "address",
          "name": "newOwner",
          "type": "address"
        }
      ],
      "name": "transferOwnership",
      "outputs": [],
      "stateMutability": "nonpayable",
      "type": "function"
    }
  ],
  "bytecode": "0x6080346100ab57601f61198338819003918201601f19168301916001600160401b038311848410176100b0578084926020946040528339810103126100ab57516001600160a01b0390818116908190036100ab5760005460018060a01b0319903382821617600055604051933391167f8be0079c531659141344cd1fd0a4f28419497f9722a3daafe3b4186f6b6457e0600080a36001805560025416176002556118bc90816100c78239f35b600080fd5b634e487b7160e01b600052604160045260246000fdfe608080604052600436101561001357600080fd5b600090813560e01c908163024a356e146110e6575080634ca28b4f146110c2578063606d2e9614611023578063641ef4cd14610fcd5780636dd0ce7a14610e7257806370ea9f6814610e48578063715018a614610dee578063873b3da114610dd15780638da5cb5b14610daa578063a9b9be3f14610d8c578063cd3ef3ff14610cde578063ce08d6fa14610cb5578063df73c49f14610207578063f2fde38b1461013c5763f72bdcfa146100c657600080fd5b34610139576020908160031936011261013957906100e5600435611750565b9160405193849215158352604082840152835191826040850152815b83811061012257505060608094508284010152601f80199101168101030190f35b808601820151878201606001528694508101610101565b80fd5b5034610139576020366003190112610139576101566112a2565b61015e6112eb565b6001600160a01b039081169081156101b357600054826bffffffffffffffffffffffff60a01b821617600055167f8be0079c531659141344cd1fd0a4f28419497f9722a3daafe3b4186f6b6457e0600080a380f35b60405162461bcd60e51b815260206004820152602660248201527f4f776e61626c653a206e6577206f776e657220697320746865207a65726f206160448201526564647265737360d01b6064820152608490fd5b503461013957604036600319011261013957600260015414610c7057600260015560018060a01b0360025416906040516331a9108f60e11b81526004356004820152602081602481865afa908115610923578291610c51575b50336001600160a01b0390911603610c175760243560043514610bd257600435815260066020526040812054610e1090818101809111610bbe574210610b8557602435825260066020526040822054908101809111610b71574210610b385760405163a634514160e01b815260048035908201526101c081602481865afa908115610923578291610b17575b506040519063a634514160e01b825260243560048301526101c082602481875afa91821561094a578392610af4575b506101808091015115159182610ae7575b505015610aae576024916020610343600554611559565b9182600555604051948580926331a9108f60e11b8252823560048301525afa928315610923578293610a7d575b506040519061037e82611343565b8082526004356020830152602435604083015233606083015260018060a01b03841660808301524260a08301528260c08301528260e08301528261010083015268056bc75e2d6310000061012083015282526003602052600961012060408420928051845560208101516001850155604081015160028501556003840160018060a01b03606083015116906bffffffffffffffffffffffff60a01b9182825416179055600485019060018060a01b036080840151169082541617905560a0810151600585015560c0810151600685015560e0810151600785015560088401610100820151151560ff801983541691161790550151910155338152600460205261048d6040822060055490611568565b6001600160a01b03821681526004602052604081206005546104ae91611568565b600435815260066020524260408220556024358152426040822055600554916040519033825260018060a01b0316602082015260243590837f11134b6eca96a2282c6de248e53957e29dc4ffb7ecef4889d8ac2e01e5ca5de4604060043593a481815260036020526040812060018060a01b03600254169160018201549260405163a634514160e01b81528460048201526101c081602481855afa90811561094a5790602492918491610a5c575b506101c06002860154926040519485809263a634514160e01b82528660048301525afa928315610a51578493610a1e575b5060ff604082015116600a810290808204600a1490151715610a0a579160ff60408501511680600a810204600a14811517156109f657600a0295855b841515806109ed575b806109e3575b15610763576105e690611559565b97896105f38a88876115c2565b9888899a6000146106ca57508a61060b818a89611649565b9182808211156106c25761061e916115b5565b809b8c91610673575b6000805160206118678339815191529392918a61066a925b604051958695869192608093969594919660a084019784526020840152604083015260608201520152565b0390a2976105c9565b5097906000805160206118678339815191529291610692828a8d611649565b998a91828111156106b65761066a926106aa916115b5565b9a915091929350610627565b5061066a91508c6106aa565b50508961061e565b9099508a6106d981888b611649565b97888082111561075a576106ec916115b5565b975b88610710575b9061066a8c8a600080516020611867833981519152959461063f565b60008051602061186783398151915292509061066a899c92610733838d8c611649565b93848082111561075257610746916115b5565b9d5091929350506106f4565b50508c610746565b505089976106ee565b5095969392909680821160001461097857505050509290600860018060a01b03600385015416935b6007810186905542600682015501805460ff191660011790556002546001600160a01b031690813b156101395760405181816044818363c62e043560e01b978883528b6004840152600160248401525af1801561092357610969575b509060018060a01b036002541690813b1561092e57829160448392604051948593849283528860048401528160248401525af1801561092357908291610955575b50506002546001600160a01b0316803b15610946576040518281604481836328a3750760e11b968783528b6004840152609660248401525af1801561094a57908391610932575b50506002546001600160a01b031690813b1561092e5782916044839260405194859384928352886004840152603260248401525af180156109235761090f575b857f8f232a4cdea6abf3370ce2bd2968124719064b54df1e0092e27d0c77a06c2ff96080878787604051928352602083015260018060a01b0316604082015268056bc75e2d631000006060820152a2602060055460018055604051908152f35b6109198291611376565b61013957806108af565b6040513d84823e3d90fd5b8280fd5b61093b90611376565b61094657813861086f565b5080fd5b6040513d85823e3d90fd5b61095e90611376565b610139578038610828565b61097290611376565b386107e7565b939693111561099a5750509290600860018060a01b036004850154169361078b565b60809081015191015191949160ff9182169116116109c9579290600860018060a01b036003850154169361078b565b60048301546001600160a01b03169290919060089061078b565b50601481106105d8565b508715156105d2565b634e487b7160e01b86526011600452602486fd5b634e487b7160e01b85526011600452602485fd5b610a439193506101c03d6101c011610a4a575b610a3b81836113a6565b81019061143c565b913861058d565b503d610a31565b6040513d86823e3d90fd5b610a7791506101c03d6101c011610a4a57610a3b81836113a6565b3861055c565b610aa091935060203d602011610aa7575b610a9881836113a6565b8101906113c8565b9138610370565b503d610a8e565b60405162461bcd60e51b815260206004820152601160248201527048656e206d75737420626520616c69766560781b6044820152606490fd5b015115159050388061032c565b610b109192506101c03d6101c011610a4a57610a3b81836113a6565b903861031b565b610b3291506101c03d6101c011610a4a57610a3b81836113a6565b386102ec565b60405162461bcd60e51b81526020600482015260116024820152702432b710191037b71031b7b7b63237bbb760791b6044820152606490fd5b634e487b7160e01b82526011600452602482fd5b60405162461bcd60e51b81526020600482015260116024820152702432b710189037b71031b7b7b63237bbb760791b6044820152606490fd5b634e487b7160e01b83526011600452602483fd5b60405162461bcd60e51b815260206004820152601960248201527f43616e6e6f7420626174746c65207769746820697473656c66000000000000006044820152606490fd5b60405162461bcd60e51b81526020600482015260126024820152714e6f74206f776e6572206f662068656e203160701b6044820152606490fd5b610c6a915060203d602011610aa757610a9881836113a6565b38610260565b60405162461bcd60e51b815260206004820152601f60248201527f5265656e7472616e637947756172643a207265656e7472616e742063616c6c006044820152606490fd5b50346101395780600319360112610139576002546040516001600160a01b039091168152602090f35b503461013957602080600319360112610946576001600160a01b03610d016112a2565b168252600481526040822060405192838383549182815201908193835284832090835b818110610d785750505084610d3a9103856113a6565b60405193838594850191818652518092526040850193925b828110610d6157505050500390f35b835185528695509381019392810192600101610d52565b825484529286019260019283019201610d24565b50346101395780600319360112610139576020600554604051908152f35b5034610139578060031936011261013957546040516001600160a01b039091168152602090f35b50346101395780600319360112610139576020604051610e108152f35b5034610139578060031936011261013957610e076112eb565b80546001600160a01b03198116825581906001600160a01b03167f8be0079c531659141344cd1fd0a4f28419497f9722a3daafe3b4186f6b6457e08280a380f35b50346101395760203660031901126101395760406020916004358152600683522054604051908152f35b503461013957602036600319011261013957610140906101206040805192610e9984611343565b80845280602085015280828501528060608501528060808501528060a08501528060c08501528060e08501528083610100958287820152015260043581526003602052209160405190610eeb82611343565b6009845494858452600181015460208501526002810154604085015260018060a01b03600382015416606085015260018060a01b036004820154166080850152600581015460a0850152600681015460c0850152600781015460e085015260ff600882015416151583850152015483830152604051938452602082015160208501526040820151604085015260018060a01b03606083015116606085015260018060a01b03608083015116608085015260a082015160a085015260c082015160c085015260e082015160e0850152808201511515908401520151610120820152f35b503461013957604036600319011261013957610fe76112a2565b6001600160a01b031681526004602052604081208054602435929083101561013957602061101584846112bd565b90546040519160031b1c8152f35b5034610139576020366003190112610139576040610140916004358152600360205220805490600181015490600281015460018060a01b038060038401541690600484015416600584015490600685015492600786015494600960ff60088901541697015497604051998a5260208a015260408901526060880152608087015260a086015260c085015260e08401521515610100830152610120820152f35b5034610139578060031936011261013957602060405168056bc75e2d631000008152f35b905034610946576020366003190112610946578091600435908260018060a01b036002541663a634514160e01b82528360048301526101c095869160249687915afa948515610923578295611283575b505061010084019263ffffffff61012081865116960195818751160181811161127057818091169551169551169284158015600014611268576064870290878204606414881517156112555761124257859004915b838281526006602052604081205492610e109384810180911161122f5742106111e6575b505050506111e292604051958695869192608093969594919660a084019784526020840152604083015260608201520152565b0390f35b90809293949550526006602052604081205492830180931161121e575050906112146111e2939242906115b5565b91923880806111af565b634e487b7160e01b81526011600452fd5b5050634e487b7160e01b81526011600452fd5b634e487b7160e01b845260126004528284fd5b634e487b7160e01b855260116004528385fd5b50829161118b565b634e487b7160e01b845260116004528284fd5b61129a929550803d10610a4a57610a3b81836113a6565b923880611136565b600435906001600160a01b03821682036112b857565b600080fd5b80548210156112d55760005260206000200190600090565b634e487b7160e01b600052603260045260246000fd5b6000546001600160a01b031633036112ff57565b606460405162461bcd60e51b815260206004820152602060248201527f4f776e61626c653a2063616c6c6572206973206e6f7420746865206f776e65726044820152fd5b610140810190811067ffffffffffffffff82111761136057604052565b634e487b7160e01b600052604160045260246000fd5b67ffffffffffffffff811161136057604052565b6040810190811067ffffffffffffffff82111761136057604052565b90601f8019910116810190811067ffffffffffffffff82111761136057604052565b908160209103126112b857516001600160a01b03811681036112b85790565b919082018092116113f457565b634e487b7160e01b600052601160045260246000fd5b519060ff821682036112b857565b519065ffffffffffff821682036112b857565b519063ffffffff821682036112b857565b80916101c092839103126112b85760405191820182811067ffffffffffffffff8211176113605760405261146f8161140a565b825261147d6020820161140a565b602083015261148e6040820161140a565b604083015261149f6060820161140a565b60608301526114b06080820161140a565b60808301526114c160a0820161140a565b60a08301526114d260c08201611418565b60c08301526114e360e08201611418565b60e08301526101006114f681830161142b565b9083015261012061150881830161142b565b9083015261014061151a81830161142b565b9083015261016061152c81830161142b565b90830152610180808201519081151582036112b8578301526115526101a080920161140a565b9082015290565b60001981146113f45760010190565b8054680100000000000000008110156113605761158a916001820181556112bd565b819291549060031b91821b91600019901b1916179055565b818102929181159184041417156113f457565b919082039182116113f457565b602090810151910151919060ff808216908416808211156115e7575050505050600190565b11156115f557505050600090565b604051926020840192428452604085015260ff60f81b809260f81b16606085015260f81b16606183015260428252608082019180831067ffffffffffffffff84111761136057600192604052519020161590565b919060ff9081845116609661166482856060890151166115a2565b04611676846101a088015116836115a2565b918260011b92808404600214901517156113f45761169d6116a292606460809504926113e7565b6113e7565b940192835190604051916020830191428352604084015260ff60f81b9060f81b1660608301524460618301526061825260a082019180831067ffffffffffffffff841117611360576064926040525190200692601e83606492511602928084169384036113f457606494818361172a96041611611747575b6040600a929301511604936115a2565b0490808211156117405761173d916115b5565b90565b5050600190565b607d915061171a565b6002546040805163a634514160e01b815260048101849052909392916101c091908290829060249082906001600160a01b03165afa90811561185b576101809260009261183e575b50500151156118135760005260066020528160002054610e1081018091116113f45742106117e757600191516117cd8161138a565b600a81526943616e20626174746c6560b01b602082015290565b600091516117f48161138a565b600f81526e2432b71037b71031b7b7b63237bbb760891b602082015290565b50600091516118218161138a565b600d81526c48656e206e6f7420616c69766560981b602082015290565b6118549250803d10610a4a57610a3b81836113a6565b3880611798565b85513d6000823e3d90fdfe3ade50f1af4c98d8b5df6fb1d4e6bee8a912bce2daeb60b7de26f0e6f2eeab33a26469706673582212201b98f3134e85a893bec1f2f3182742aef850b5bfc23c5766de6f2bd6cf09fab864736f6c63430008140033",
  "linkReferences": {},
  "deployedLinkReferences": {}
}