{
  "_format": "hh-sol-artifact-1",
  "contractName": "BettingSystem",
  "sourceName": "contracts/BettingSystem.sol",
  "abi": [
    {
      "inputs": [
        {
          "internalType": "address",
          "name": "_battleContract",
          "type": "address"
        },
        {
          "internalType": "address",
          "name": "_racingContract",
          "type": "address"
        }
      ],
      "stateMutability": "nonpayable",
      "type": "constructor"
    },
    {
      "anonymous": false,
      "inputs": [
        {
          "indexed": true,
          "internalType": "uint256",
          "name": "betId",
          "type": "uint256"
        },
        {
          "indexed": true,
          "internalType": "uint256",
          "name": "battleId",
          "type": "uint256"
        },
        {
          "indexed": true,
          "internalType": "address",
          "name": "bettor",
          "type": "address"
        },
        {
          "indexed": false,
          "internalType": "uint256",
          "name": "henId",
          "type": "uint256"
        },
        {
          "indexed": false,
          "internalType": "uint256",
          "name": "amount",
          "type": "uint256"
        }
      ],
      "name": "BattleBetPlaced",
      "type": "event"
    },
    {
      "anonymous": false,
      "inputs": [
        {
          "indexed": true,
          "internalType": "uint256",
          "name": "betId",
          "type": "uint256"
        },
        {
          "indexed": true,
          "internalType": "address",
          "name": "bettor",
          "type": "address"
        },
        {
          "indexed": false,
          "internalType": "uint256",
          "name": "payout",
          "type": "uint256"
        },
        {
          "indexed": false,
          "internalType": "enum BettingSystem.BetType",
          "name": "betType",
          "type": "uint8"
        }
      ],
      "name": "BetClaimed",
      "type": "event"
    },
    {
      "anonymous": false,
      "inputs": [
        {
          "indexed": true,
          "internalType": "uint256",
          "name": "eventId",
          "type": "uint256"
        },
        {
          "indexed": false,
          "internalType": "uint256",
          "name": "henId",
          "type": "uint256"
        },
        {
          "indexed": false,
          "internalType": "uint256",
          "name": "odds",
          "type": "uint256"
        },
        {
          "indexed": false,
          "internalType": "enum BettingSystem.BetType",
          "name": "betType",
          "type": "uint8"
        }
      ],
      "name": "OddsCalculated",
      "type": "event"
    },
    {
      "anonymous": false,
      "inputs": [
        {
          "indexed": true,
          "internalType": "address",
          "name": "previousOwner",
          "type": "address"
        },
        {
          "indexed": true,
          "internalType": "address",
          "name": "newOwner",
          "type": "address"
        }
      ],
      "name": "OwnershipTransferred",
      "type": "event"
    },
    {
      "anonymous": false,
      "inputs": [
        {
          "indexed": true,
          "internalType": "uint256",
          "name": "betId",
          "type": "uint256"
        },
        {
          "indexed": true,
          "internalType": "uint256",
          "name": "raceId",
          "type": "uint256"
        },
        {
          "indexed": true,
          "internalType": "address",
          "name": "bettor",
          "type": "address"
        },
        {
          "indexed": false,
          "internalType": "uint256",
          "name": "henId",
          "type": "uint256"
        },
        {
          "indexed": false,
          "internalType": "uint256",
          "name": "amount",
          "type": "uint256"
        },
        {
          "indexed": false,
          "internalType": "uint256",
          "name": "position",
          "type": "uint256"
        }
      ],
      "name": "RaceBetPlaced",
      "type": "event"
    },
    {
      "inputs": [],
      "name": "HOUSE_FEE",
      "outputs": [
        {
          "internalType": "uint256",
          "name": "",
          "type": "uint256"
        }
      ],
      "stateMutability": "view",
      "type": "function"
    },
    {
      "inputs": [],
      "name": "MAX_BET",
      "outputs": [
        {
          "internalType": "uint256",
          "name": "",
          "type": "uint256"
        }
      ],
      "stateMutability": "view",
      "type": "function"
    },
    {
      "inputs": [],
      "name": "MIN_BET",
      "outputs": [
        {
          "internalType": "uint256",
          "name": "",
          "type": "uint256"
        }
      ],
      "stateMutability": "view",
      "type": "function"
    },
    {
      "inputs": [],
      "name": "battleBetCounter",
      "outputs": [
        {
          "internalType": "uint256",
          "name": "",
          "type": "uint256"
        }
      ],
      "stateMutability": "view",
      "type": "function"
    },
    {
      "inputs": [
        {
          "internalType": "uint256",
          "name": "",
          "type": "uint256"
        },
        {
          "internalType": "uint256",
          "name": "",
          "type": "uint256"
        }
      ],
      "name": "battleBetIds",
      "outputs": [
        {
          "internalType": "uint256",
          "name": "",
          "type": "uint256"
        }
      ],
      "stateMutability": "view",
      "type": "function"
    },
    {
      "inputs": [
        {
          "internalType": "uint256",
          "name": "",
          "type": "uint256"
        }
      ],
      "name": "battleBets",
      "outputs": [
        {
          "internalType": "uint256",
          "name": "betId",
          "type": "uint256"
        },
        {
          "internalType": "uint256",
          "name": "battleId",
          "type": "uint256"
        },
        {
          "internalType": "address",
          "name": "bettor",
          "type": "address"
        },
        {
          "internalType": "uint256",
          "name": "henId",
          "type": "uint256"
        },
        {
          "internalType": "uint256",
          "name": "amount",
          "type": "uint256"
        },
        {
          "internalType": "bool",
          "name": "claimed",
          "type": "bool"
        },
        {
          "internalType": "uint256",
          "name": "payout",
          "type": "uint256"
        }
      ],
      "stateMutability": "view",
      "type": "function"
    },
    {
      "inputs": [],
      "name": "battleContract",
      "outputs": [
        {
          "internalType": "contract IHenBattle",
          "name": "",
          "type": "address"
        }
      ],
      "stateMutability": "view",
      "type": "function"
    },
    {
      "inputs": [
        {
          "internalType": "uint256",
          "name": "",
          "type": "uint256"
        },
        {
          "internalType": "uint256",
          "name": "",
          "type": "uint256"
        }
      ],
      "name": "battlePools",
      "outputs": [
        {
          "internalType": "uint256",
          "name": "",
          "type": "uint256"
        }
      ],
      "stateMutability": "view",
      "type": "function"
    },
    {
      "inputs": [
        {
          "internalType": "uint256",
          "name": "battleId",
          "type": "uint256"
        },
        {
          "internalType": "uint256",
          "name": "henId",
          "type": "uint256"
        },
        {
          "internalType": "uint256",
          "name": "betAmount",
          "type": "uint256"
        }
      ],
      "name": "calculateBattlePayout",
      "outputs": [
        {
          "internalType": "uint256",
          "name": "",
          "type": "uint256"
        }
      ],
      "stateMutability": "view",
      "type": "function"
    },
    {
      "inputs": [
        {
          "internalType": "uint256",
          "name": "betId",
          "type": "uint256"
        }
      ],
      "name": "claimBattleBet",
      "outputs": [],
      "stateMutability": "nonpayable",
      "type": "function"
    },
    {
      "inputs": [
        {
          "internalType": "uint256",
          "name": "betId",
          "type": "uint256"
        }
      ],
      "name": "claimRaceBet",
      "outputs": [],
      "stateMutability": "nonpayable",
      "type": "function"
    },
    {
      "inputs": [
        {
          "internalType": "uint256",
          "name": "betId",
          "type": "uint256"
        }
      ],
      "name": "getBattleBet",
      "outputs": [
        {
          "components": [
            {
              "internalType": "uint256",
              "name": "betId",
              "type": "uint256"
            },
            {
              "internalType": "uint256",
              "name": "battleId",
              "type": "uint256"
            },
            {
              "internalType": "address",
              "name": "bettor",
              "type": "address"
            },
            {
              "internalType": "uint256",
              "name": "henId",
              "type": "uint256"
            },
            {
              "internalType": "uint256",
              "name": "amount",
              "type": "uint256"
            },
            {
              "internalType": "bool",
              "name": "claimed",
              "type": "bool"
            },
            {
              "internalType": "uint256",
              "name": "payout",
              "type": "uint256"
            }
          ],
          "internalType": "struct BettingSystem.BattleBet",
          "name": "",
          "type": "tuple"
        }
      ],
      "stateMutability": "view",
      "type": "function"
    },
    {
      "inputs": [
        {
          "internalType": "uint256",
          "name": "battleId",
          "type": "uint256"
        }
      ],
      "name": "getBattleBets",
      "outputs": [
        {
          "internalType": "uint256[]",
          "name": "",
          "type": "uint256[]"
        }
      ],
      "stateMutability": "view",
      "type": "function"
    },
    {
      "inputs": [
        {
          "internalType": "uint256",
          "name": "battleId",
          "type": "uint256"
        },
        {
          "internalType": "uint256",
          "name": "henId",
          "type": "uint256"
        }
      ],
      "name": "getBattleOdds",
      "outputs": [
        {
          "internalType": "uint256",
          "name": "",
          "type": "uint256"
        }
      ],
      "stateMutability": "view",
      "type": "function"
    },
    {
      "inputs": [
        {
          "internalType": "uint256",
          "name": "betId",
          "type": "uint256"
        }
      ],
      "name": "getRaceBet",
      "outputs": [
        {
          "components": [
            {
              "internalType": "uint256",
              "name": "betId",
              "type": "uint256"
            },
            {
              "internalType": "uint256",
              "name": "raceId",
              "type": "uint256"
            },
            {
              "internalType": "address",
              "name": "bettor",
              "type": "address"
            },
            {
              "internalType": "uint256",
              "name": "henId",
              "type": "uint256"
            },
            {
              "internalType": "uint256",
              "name": "amount",
              "type": "uint256"
            },
            {
              "internalType": "uint256",
              "name": "position",
              "type": "uint256"
            },
            {
              "internalType": "bool",
              "name": "claimed",
              "type": "bool"
            },
            {
              "internalType": "uint256",
              "name": "payout",
              "type": "uint256"
            }
          ],
          "internalType": "struct BettingSystem.RaceBet",
          "name": "",
          "type": "tuple"
        }
      ],
      "stateMutability": "view",
      "type": "function"
    },
    {
      "inputs": [
        {
          "internalType": "uint256",
          "name": "raceId",
          "type": "uint256"
        }
      ],
      "name": "getRaceBets",
      "outputs": [
        {
          "internalType": "uint256[]",
          "name": "",
          "type": "uint256[]"
        }
      ],
      "stateMutability": "view",
      "type": "function"
    },
    {
      "inputs": [
        {
          "internalType": "uint256",
          "name": "raceId",
          "type": "uint256"
        },
        {
          "internalType": "uint256",
          "name": "henId",
          "type": "uint256"
        }
      ],
      "name": "getRaceOdds",
      "outputs": [
        {
          "internalType": "uint256",
          "name": "",
          "type": "uint256"
        }
      ],
      "stateMutability": "view",
      "type": "function"
    },
    {
      "inputs": [
        {
          "internalType": "address",
          "name": "user",
          "type": "address"
        }
      ],
      "name": "getUserBattleBets",
      "outputs": [
        {
          "internalType": "uint256[]",
          "name": "",
          "type": "uint256[]"
        }
      ],
      "stateMutability": "view",
      "type": "function"
    },
    {
      "inputs": [
        {
          "internalType": "address",
          "name": "user",
          "type": "address"
        }
      ],
      "name": "getUserRaceBets",
      "outputs": [
        {
          "internalType": "uint256[]",
          "name": "",
          "type": "uint256[]"
        }
      ],
      "stateMutability": "view",
      "type": "function"
    },
    {
      "inputs": [
        {
          "internalType": "address",
          "name": "user",
          "type": "address"
        }
      ],
      "name": "getUserStats",
      "outputs": [
        {
          "internalType": "uint256",
          "name": "totalBattleBets",
          "type": "uint256"
        },
        {
          "internalType": "uint256",
          "name": "totalRaceBets",
          "type": "uint256"
        },
        {
          "internalType": "uint256",
          "name": "totalWagered",
          "type": "uint256"
        },
        {
          "internalType": "uint256",
          "name": "totalWon",
          "type": "uint256"
        }
      ],
      "stateMutability": "view",
      "type": "function"
    },
    {
      "inputs": [],
      "name": "owner",
      "outputs": [
        {
          "internalType": "address",
          "name": "",
          "type": "address"
        }
      ],
      "stateMutability": "view",
      "type": "function"
    },
    {
      "inputs": [
        {
          "internalType": "uint256",
          "name": "battleId",
          "type": "uint256"
        },
        {
          "internalType": "uint256",
          "name": "henId",
          "type": "uint256"
        }
      ],
      "name": "placeBattleBet",
      "outputs": [],
      "stateMutability": "payable",
      "type": "function"
    },
    {
      "inputs": [
        {
          "internalType": "uint256",
          "name": "raceId",
          "type": "uint256"
        },
        {
          "internalType": "uint256",
          "name": "henId",
          "type": "uint256"
        },
        {
          "internalType": "uint256",
          "name": "position",
          "type": "uint256"
        }
      ],
      "name": "placeRaceBet",
      "outputs": [],
      "stateMutability": "payable",
      "type": "function"
    },
    {
      "inputs": [],
      "name": "raceBetCounter",
      "outputs": [
        {
          "internalType": "uint256",
          "name": "",
          "type": "uint256"
        }
      ],
      "stateMutability": "view",
      "type": "function"
    },
    {
      "inputs": [
        {
          "internalType": "uint256",
          "name": "",
          "type": "uint256"
        },
        {
          "internalType": "uint256",
          "name": "",
          "type": "uint256"
        }
      ],
      "name": "raceBetIds",
      "outputs": [
        {
          "internalType": "uint256",
          "name": "",
          "type": "uint256"
        }
      ],
      "stateMutability": "view",
      "type": "function"
    },
    {
      "inputs": [
        {
          "internalType": "uint256",
          "name": "",
          "type": "uint256"
        }
      ],
      "name": "raceBets",
      "outputs": [
        {
          "internalType": "uint256",
          "name": "betId",
          "type": "uint256"
        },
        {
          "internalType": "uint256",
          "name": "raceId",
          "type": "uint256"
        },
        {
          "internalType": "address",
          "name": "bettor",
          "type": "address"
        },
        {
          "internalType": "uint256",
          "name": "henId",
          "type": "uint256"
        },
        {
          "internalType": "uint256",
          "name": "amount",
          "type": "uint256"
        },
        {
          "internalType": "uint256",
          "name": "position",
          "type": "uint256"
        },
        {
          "internalType": "bool",
          "name": "claimed",
          "type": "bool"
        },
        {
          "internalType": "uint256",
          "name": "payout",
          "type": "uint256"
        }
      ],
      "stateMutability": "view",
      "type": "function"
    },
    {
      "inputs": [
        {
          "internalType": "uint256",
          "name": "",
          "type": "uint256"
        },
        {
          "internalType": "uint256",
          "name": "",
          "type": "uint256"
        }
      ],
      "name": "racePools",
      "outputs": [
        {
          "internalType": "uint256",
          "name": "",
          "type": "uint256"
        }
      ],
      "stateMutability": "view",
      "type": "function"
    },
    {
      "inputs": [],
      "name": "racingContract",
      "outputs": [
        {
          "internalType": "contract IHenRacing",
          "name": "",
          "type": "address"
        }
      ],
      "stateMutability": "view",
      "type": "function"
    },
    {
      "inputs": [],
      "name": "renounceOwnership",
      "outputs": [],
      "stateMutability": "nonpayable",
      "type": "function"
    },
    {
      "inputs": [
        {
          "internalType": "address",
          "name": "newOwner",
          "type": "address"
        }
      ],
      "name": "transferOwnership",
      "outputs": [],
      "stateMutability": "nonpayable",
      "type": "function"
    },
    {
      "inputs": [
        {
          "internalType": "address",
          "name": "",
          "type": "address"
        },
        {
          "internalType": "uint256",
          "name": "",
          "type": "uint256"
        }
      ],
      "name": "userBattleBets",
      "outputs": [
        {
          "internalType": "uint256",
          "name": "",
          "type": "uint256"
        }
      ],
      "stateMutability": "view",
      "type": "function"
    },
    {
      "inputs": [
        {
          "internalType": "address",
          "name": "",
          "type": "address"
        },
        {
          "internalType": "uint256",
          "name": "",
          "type": "uint256"
        }
      ],
      "name": "userRaceBets",
      "outputs": [
        {
          "internalType": "uint256",
          "name": "",
          "type": "uint256"
        }
      ],
      "stateMutability": "view",
      "type": "function"
    },
    {
      "inputs": [],
      "name": "withdraw",
      "outputs": [],
      "stateMutability": "nonpayable",
      "type": "function"
    }
  ],
  "bytecode": "0x6080346100c957601f62001c2338819003918201601f19168301916001600160401b038311848410176100ce5780849260409485528339810103126100c957610053602061004c836100e4565b92016100e4565b60008054336001600160a01b0319808316821784556040519590946001600160a01b03949093859391908416907f8be0079c531659141344cd1fd0a4f28419497f9722a3daafe3b4186f6b6457e09080a3600180551683600254161760025516906003541617600355611b2a9081620000f98239f35b600080fd5b634e487b7160e01b600052604160045260246000fd5b51906001600160a01b03821682036100c95756fe608080604052600436101561001357600080fd5b60003560e01c90816307388e3b1461151557508063185b071d146114f75780631dcbb5b9146112f9578063214d0dc9146112095780632380597c1461119f57806326eacadb146111255780633a35c68e146110db5780633ccfd60b146110675780634056fa4614610fe1578063423b1ca314610fb857806349bccfed14610f6e5780634e43603a14610d50578063510619cf14610c44578063597813db14610c2b5780635f9101b114610bfa5780636540742f14610bd85780636c78587114610bb7578063715018a614610b5e578063716bfd8c14610b2b5780637e95b52314610b085780637fe234971461086757806388c057d41461078157806389d796e4146107585780638da5cb5b1461072f578063a24e67cd146106b7578063ade5f32414610699578063b70ff0191461058f578063d45b3ccb14610525578063dbaea99814610509578063e5534aef1461031a578063ee36650b146102db578063f2fde38b146102175763fb5d41421461018a57600080fd5b3461021257602080600319360112610212576001600160a01b036101ac611594565b1660005260088152604060002090604051908181845491828152019360005281600020916000905b8282106101fb576101f7856101eb818903826116da565b60405191829182611559565b0390f35b8354865294850194600193840193909101906101d4565b600080fd5b3461021257602036600319011261021257610230611594565b6102386115f2565b6001600160a01b0390811690811561028757600054826001600160601b0360a01b821617600055167f8be0079c531659141344cd1fd0a4f28419497f9722a3daafe3b4186f6b6457e0600080a3005b60405162461bcd60e51b815260206004820152602660248201527f4f776e61626c653a206e6577206f776e657220697320746865207a65726f206160448201526564647265737360d01b6064820152608490fd5b34610212576102e936611543565b906000526007602052604060002080548210156102125760209161030c916115aa565b90546040519160031b1c8152f35b610323366115d8565b61032e92919261180a565b66038d7ea4c68000341015806104f7575b6103489061164a565b6001811015806104ec575b156104b057610363600b546117b4565b9081600b55604051610374816116bd565b828152600760209361041585840187815260408501338152606086018a8152608087019034825260a088019289845260c08901946000865260e08a01976000895260005260058c52604060002099518a555160018a0155600289019060018060a01b039051166001600160601b0360a01b825416179055516003880155516004870155516005860155511515600685019060ff801983541691151516179055565b5191015582600052600782526104326040600020600b54906117c3565b336000526009825261044b6040600020600b54906117c3565b82600052600d82526040600020846000528252604060002061046e3482546117fd565b9055600b5491604051948552349085015260408401527f97b2de67b2c139b864576794573311a4ad82b73d78d0bf1e08ca782fc1540e3660603394a460018055005b60405162461bcd60e51b8152602060048201526014602482015273506f736974696f6e206d75737420626520312d3360601b6044820152606490fd5b506003811115610353565b50678ac7230489e8000034111561033f565b3461021257600036600319011261021257602060405160648152f35b34610212576020806003193601126102125760043560005260068152604060002090604051908181845491828152019360005281600020916000905b828210610578576101f7856101eb818903826116da565b835486529485019460019384019390910190610561565b3461021257602036600319011261021257600060e06040516105b0816116bd565b8281528260208201528260408201528260608201528260808201528260a08201528260c08201520152600435600052600560205261010060406000206040516105f8816116bd565b81549182825260018101546020830190815260018060a01b03806002840154169060408501918252600384015490606086019182526004850154926080870193845260058601549460a0880195865260e0600760ff60068a0154169860c08b019915158a5201549801978852604051988952516020890152511660408701525160608601525160808501525160a084015251151560c08301525160e0820152f35b34610212576000366003190112610212576020600b54604051908152f35b3461021257602080600319360112610212576001600160a01b036106d9611594565b1660005260098152604060002090604051908181845491828152019360005281600020916000905b828210610718576101f7856101eb818903826116da565b835486529485019460019384019390910190610701565b34610212576000366003190112610212576000546040516001600160a01b039091168152602090f35b34610212576000366003190112610212576003546040516001600160a01b039091168152602090f35b346102125760203660031901126102125760043561079d61180a565b8060005260056020526040600020906107c360018060a01b036002840154163314611860565b60068201600181546107d860ff82161561189b565b60ff19161790556004820154918260011b928084046002149015171561085157600783910155610818600080808086335af1610812611923565b50611963565b604051918252600160208301527f73b6c67a10640019fcd7c6d59e7655875d26fc22beea176c2c90bd66cc8dfbe060403393a360018055005b634e487b7160e01b600052601160045260246000fd5b61087036611543565b9061087961180a565b66038d7ea4c6800034101580610af6575b6108939061164a565b6002546040516336e8673d60e11b815260048101839052610140916001600160a01b03919083908290602490829086165afa928315610aea57600093610abb575b5050610100820151610a765760209184808483015114918215610a68575b505015610a35576006610906600a546117b4565b80600a5561099f6040519361091a8561168b565b828552858501908782526040860133815260608701908a8252608088019234845260a08901946000865260c08a01976000895260005260048b52604060002099518a555160018a0155600289019151166001600160601b0360a01b825416179055516003870155516004860155511515600585019060ff801983541691151516179055565b5191015581600052600681526109bc6040600020600a54906117c3565b33600052600881526109d56040600020600a54906117c3565b81600052600c8152604060002083600052815260406000206109f83482546117fd565b9055600a549060405193845234908401527fc6d6cb8d584fb225148401889c091c730fad2ba049c8ff335cbf41bdda47979460403394a460018055005b60405162461bcd60e51b815260048101839052600b60248201526a24b73b30b634b2103432b760a91b6044820152606490fd5b6040015114905084866108f2565b60405162461bcd60e51b815260206004820152601760248201527f426174746c6520616c726561647920636f6d706c6574650000000000000000006044820152606490fd5b610adb929350803d10610ae3575b610ad381836116da565b810190611710565b9084806108d4565b503d610ac9565b6040513d6000823e3d90fd5b50678ac7230489e8000034111561088a565b34610212576000366003190112610212576020604051678ac7230489e800008152f35b3461021257610b3936611543565b90600052600d6020526040600020906000526020526020604060002054604051908152f35b3461021257600036600319011261021257610b776115f2565b600080546001600160a01b0319811682556001600160a01b03167f8be0079c531659141344cd1fd0a4f28419497f9722a3daafe3b4186f6b6457e08280a3005b34610212576020610bd0610bca36611543565b90611a8a565b604051908152f35b3461021257600036600319011261021257602060405166038d7ea4c680008152f35b3461021257610c0836611543565b906000526006602052604060002080548210156102125760209161030c916115aa565b34610212576020610bd0610c3e36611543565b9061199f565b3461021257610c52366115d8565b6002546040516336e8673d60e11b8152600481018590529293610140939092918490829060249082906001600160a01b03165afa938415610aea57600094610d27575b84610bd085610d22868a83600052610ced82610ce8602098600c8a5260406000208a8201516000528a526040600020549088600052600c8b526040806000209101516000528a52604060002054906117fd565b6117fd565b93600052600c86526040600020906000528552612710610d1b610d15836040600020546117fd565b946118d9565b04906118f0565b611903565b610bd09450610d22929181610d4792903d10610ae357610ad381836116da565b93819250610c95565b3461021257602036600319011261021257610d69611594565b60009060009160018060a01b038216600052600860205260406000205492600960205260406000205460005b6001600160a01b03851660009081526008602052604090208054821015610e695781610dc0916115aa565b90549060031b1c600052600460205260406000209360a0610e3b60405196610de78861168b565b8054885260018101546020890152600180841b0360028201541660408901526003810154606089015260066004820154918260808b015260ff6005820154161515858b015201549360c089019485526117fd565b950151610e52575b50610e4d906117b4565b610d95565b610e4d9193610e629151906117fd565b9290610e43565b50509360005b6001600160a01b03851660009081526009602052604090208054821015610f515781610e9a916115aa565b90549060031b1c600052600560205260406000209360c0610f2360405196610ec1886116bd565b805488526001810154602089015260028101546001600160a01b0316604089015260038101546060890152600481015460808901819052600582015460a08a0152600682015460ff161515848a015260079091015460e08901908152936117fd565b950151610f3a575b50610f35906117b4565b610e6f565b610f359193610f4a9151906117fd565b9290610f2b565b60808385878a604051938452602084015260408301526060820152f35b3461021257604036600319011261021257610f87611594565b6001600160a01b03166000908152600860205260409020805460243591908210156102125760209161030c916115aa565b34610212576000366003190112610212576002546040516001600160a01b039091168152602090f35b34610212576020366003190112610212576004356000526005602052610100604060002080549060018101549060018060a01b036002820154166003820154600483015490600584015492600760ff60068701541695015495604051978852602088015260408701526060860152608085015260a0840152151560c083015260e0820152f35b34610212576000366003190112610212576110806115f2565b60008080804760018060a01b038254165af161109a611923565b50156110a257005b60405162461bcd60e51b815260206004820152601160248201527015da5d1a191c985dd85b0819985a5b1959607a1b6044820152606490fd5b34610212576040366003190112610212576110f4611594565b6001600160a01b03166000908152600960205260409020805460243591908210156102125760209161030c916115aa565b3461021257602036600319011261021257600435600052600460205260e0604060002080549060018101549060018060a01b036002820154166003820154600483015491600660ff600586015416940154946040519687526020870152604086015260608501526080840152151560a083015260c0820152f35b34610212576020806003193601126102125760043560005260078152604060002090604051908181845491828152019360005281600020916000905b8282106111f2576101f7856101eb818903826116da565b8354865294850194600193840193909101906111db565b3461021257602036600319011261021257600060c060405161122a8161168b565b8281528260208201528260408201528260608201528260808201528260a08201520152600435600052600460205260e0604060002060405161126b8161168b565b81549182825260018101546020830190815260018060a01b03806002840154169060408501918252600384015491606086019283526004850154936080870194855260c0600660ff6005890154169760a08a019815158952015497019687526040519788525160208801525116604086015251606085015251608084015251151560a08301525160c0820152f35b34610212576020806003193601126102125760043561131661180a565b806000526004825260406000209160018060a01b039261133d846002830154163314611860565b600581019081549461135260ff87161561189b565b600254166001820180546040519283916336e8673d60e11b835260048301528160246101409586935afa928315610aea576000936114d8575b50506101008201511561149d5760e0820151906003840191825414600014611481576006975091611428916113f86000979695945492838952600c885260408920888201518a528852604089205490848a52600c89526040808b209101518a5288526040892054906117fd565b918752600c865260408720905487528552610d2261271061141d6040892054936118d9565b0460048501546118f0565b9501859055805460ff1916600117905561144b8280808088335af1610812611923565b6040519384528301527f73b6c67a10640019fcd7c6d59e7655875d26fc22beea176c2c90bd66cc8dfbe060403393a35b60018055005b505050915060069250600160009460ff1916179055015561147b565b60405162461bcd60e51b8152600481018690526013602482015272426174746c65206e6f7420636f6d706c65746560681b6044820152606490fd5b6114ef929350803d10610ae357610ad381836116da565b90878061138b565b34610212576000366003190112610212576020600a54604051908152f35b346102125760209061152636611543565b90600052600c835260406000209060005282526040600020548152f35b6040906003190112610212576004359060243590565b6020908160408183019282815285518094520193019160005b828110611580575050505090565b835185529381019392810192600101611572565b600435906001600160a01b038216820361021257565b80548210156115c25760005260206000200190600090565b634e487b7160e01b600052603260045260246000fd5b606090600319011261021257600435906024359060443590565b6000546001600160a01b0316330361160657565b606460405162461bcd60e51b815260206004820152602060248201527f4f776e61626c653a2063616c6c6572206973206e6f7420746865206f776e65726044820152fd5b1561165157565b60405162461bcd60e51b8152602060048201526012602482015271125b9d985b1a590818995d08185b5bdd5b9d60721b6044820152606490fd5b60e0810190811067ffffffffffffffff8211176116a757604052565b634e487b7160e01b600052604160045260246000fd5b610100810190811067ffffffffffffffff8211176116a757604052565b90601f8019910116810190811067ffffffffffffffff8211176116a757604052565b51906001600160a01b038216820361021257565b809161014092839103126102125760405191820182811067ffffffffffffffff8211176116a75760405280518252602081015160208301526040810151604083015261175e606082016116fc565b606083015261176f608082016116fc565b608083015260a081015160a083015260c081015160c083015260e081015160e08301526101008082015190811515820361021257830152610120809101519082015290565b60001981146108515760010190565b8054680100000000000000008110156116a7576117e5916001820181556115aa565b819291549060031b91821b91600019901b1916179055565b9190820180921161085157565b60026001541461181b576002600155565b60405162461bcd60e51b815260206004820152601f60248201527f5265656e7472616e637947756172643a207265656e7472616e742063616c6c006044820152606490fd5b1561186757565b60405162461bcd60e51b815260206004820152600c60248201526b139bdd081e5bdd5c8818995d60a21b6044820152606490fd5b156118a257565b60405162461bcd60e51b815260206004820152600f60248201526e105b1c9958591e4818db185a5b5959608a1b6044820152606490fd5b906126ac9182810292818404149015171561085157565b8181029291811591840414171561085157565b811561190d570490565b634e487b7160e01b600052601260045260246000fd5b3d1561195e573d9067ffffffffffffffff82116116a75760405191611952601f8201601f1916602001846116da565b82523d6000602084013e565b606090565b1561196a57565b60405162461bcd60e51b815260206004820152600d60248201526c14185e5bdd5d0819985a5b1959609a1b6044820152606490fd5b9060018060a01b036002541690604091825180916336e8673d60e11b82528560048301528160246101409485935afa918215611a7f57600092611a62575b505083600052611a20602091600c83528460002083820151600052835284600020549086600052600c8452858060002091015160005283528460002054906117fd565b93600052600c8152826000209160005252600020548015611a5a5760648202918083046064149015171561085157611a5791611903565b90565b505061271090565b611a789250803d10610ae357610ad381836116da565b38806119dd565b84513d6000823e3d90fd5b91906000928352600d6020526040832090835260205260408220548015611aec5760058102818104600503611ad8576101f482029080820460641490151715611ad857611a57929350611903565b634e487b7160e01b84526011600452602484fd5b50612710915056fea2646970667358221220baeb2fafb334610bf71ec98f19fd22caa0645f4af16ade2b3b19c2791f0e0f9464736f6c63430008140033",
  "linkReferences": {},
  "deployedLinkReferences": {}
}